{
  "contractName": "DataControl",
  "abi": [
    {
      "constant": true,
      "inputs": [],
      "name": "length",
      "outputs": [
        {
          "name": "",
          "type": "uint16"
        }
      ],
      "payable": false,
      "stateMutability": "view",
      "type": "function",
      "signature": "0x1f7b6d32"
    },
    {
      "constant": true,
      "inputs": [],
      "name": "owner",
      "outputs": [
        {
          "name": "",
          "type": "address"
        }
      ],
      "payable": false,
      "stateMutability": "view",
      "type": "function",
      "signature": "0x8da5cb5b"
    },
    {
      "constant": true,
      "inputs": [],
      "name": "str",
      "outputs": [
        {
          "name": "",
          "type": "string"
        }
      ],
      "payable": false,
      "stateMutability": "view",
      "type": "function",
      "signature": "0xc15bae84"
    },
    {
      "anonymous": false,
      "inputs": [
        {
          "indexed": false,
          "name": "length",
          "type": "uint16"
        }
      ],
      "name": "FileInfoOk",
      "type": "event",
      "signature": "0xb94fdd1d0ffbf38a73dd078f0de4fd25fccceef761e76846ec416ae535eacac0"
    },
    {
      "constant": true,
      "inputs": [],
      "name": "getaddr",
      "outputs": [
        {
          "name": "",
          "type": "address"
        }
      ],
      "payable": false,
      "stateMutability": "view",
      "type": "function",
      "signature": "0x8fb4aabf"
    },
    {
      "constant": true,
      "inputs": [],
      "name": "getstart",
      "outputs": [
        {
          "name": "",
          "type": "uint256"
        }
      ],
      "payable": false,
      "stateMutability": "view",
      "type": "function",
      "signature": "0x60a6e3fd"
    },
    {
      "constant": true,
      "inputs": [],
      "name": "getString",
      "outputs": [
        {
          "name": "",
          "type": "string"
        }
      ],
      "payable": false,
      "stateMutability": "view",
      "type": "function",
      "signature": "0x89ea642f"
    },
    {
      "constant": true,
      "inputs": [],
      "name": "getLength",
      "outputs": [
        {
          "name": "",
          "type": "uint256"
        },
        {
          "name": "",
          "type": "uint16"
        }
      ],
      "payable": false,
      "stateMutability": "view",
      "type": "function",
      "signature": "0xbe1c766b"
    },
    {
      "constant": false,
      "inputs": [
        {
          "name": "_length",
          "type": "uint16"
        }
      ],
      "name": "SetLength",
      "outputs": [],
      "payable": false,
      "stateMutability": "nonpayable",
      "type": "function",
      "signature": "0x1aa03878"
    },
    {
      "constant": false,
      "inputs": [
        {
          "name": "_owner",
          "type": "address"
        }
      ],
      "name": "ChangeOwner",
      "outputs": [],
      "payable": false,
      "stateMutability": "nonpayable",
      "type": "function",
      "signature": "0xf2853292"
    },
    {
      "constant": false,
      "inputs": [
        {
          "name": "number",
          "type": "uint256"
        },
        {
          "name": "file_number",
          "type": "uint256"
        },
        {
          "name": "data_type",
          "type": "uint8"
        },
        {
          "name": "size",
          "type": "uint256"
        },
        {
          "name": "user",
          "type": "address"
        },
        {
          "name": "period",
          "type": "string"
        },
        {
          "name": "area",
          "type": "string"
        },
        {
          "name": "file_addr",
          "type": "string"
        },
        {
          "name": "file_hash",
          "type": "uint256"
        },
        {
          "name": "key",
          "type": "uint256"
        }
      ],
      "name": "set_file_list",
      "outputs": [],
      "payable": false,
      "stateMutability": "nonpayable",
      "type": "function",
      "signature": "0x0a9d74b7"
    },
    {
      "constant": true,
      "inputs": [],
      "name": "get0_1",
      "outputs": [
        {
          "name": "",
          "type": "uint256[]"
        },
        {
          "name": "",
          "type": "uint256[]"
        }
      ],
      "payable": false,
      "stateMutability": "view",
      "type": "function",
      "signature": "0x6229421a"
    },
    {
      "constant": true,
      "inputs": [],
      "name": "get2_3",
      "outputs": [
        {
          "name": "",
          "type": "uint8[]"
        },
        {
          "name": "",
          "type": "uint256[]"
        }
      ],
      "payable": false,
      "stateMutability": "view",
      "type": "function",
      "signature": "0xac949826"
    },
    {
      "constant": true,
      "inputs": [],
      "name": "get4_5",
      "outputs": [
        {
          "name": "",
          "type": "address[]"
        },
        {
          "name": "",
          "type": "string[]"
        }
      ],
      "payable": false,
      "stateMutability": "view",
      "type": "function",
      "signature": "0xaecb3682"
    },
    {
      "constant": true,
      "inputs": [],
      "name": "get6_7",
      "outputs": [
        {
          "name": "",
          "type": "string[]"
        },
        {
          "name": "",
          "type": "string[]"
        }
      ],
      "payable": false,
      "stateMutability": "view",
      "type": "function",
      "signature": "0xa52780c9"
    },
    {
      "constant": true,
      "inputs": [],
      "name": "get8_9",
      "outputs": [
        {
          "name": "",
          "type": "uint256[]"
        },
        {
          "name": "",
          "type": "uint256[]"
        }
      ],
      "payable": false,
      "stateMutability": "view",
      "type": "function",
      "signature": "0xbb20b811"
    },
    {
      "constant": false,
      "inputs": [],
      "name": "set_start",
      "outputs": [],
      "payable": false,
      "stateMutability": "nonpayable",
      "type": "function",
      "signature": "0x873727ee"
    }
  ],
  "bytecode": "0x6080604052336000806101000a81548173ffffffffffffffffffffffffffffffffffffffff021916908373ffffffffffffffffffffffffffffffffffffffff1602179055506064600060146101000a81548161ffff021916908361ffff16021790555060006002556040805190810160405280600281526020017f616100000000000000000000000000000000000000000000000000000000000081525060039080519060200190620000b4929190620000c9565b50348015620000c257600080fd5b5062000178565b828054600181600116156101000203166002900490600052602060002090601f016020900481019282601f106200010c57805160ff19168380011785556200013d565b828001600101855582156200013d579182015b828111156200013c5782518255916020019190600101906200011f565b5b5090506200014c919062000150565b5090565b6200017591905b808211156200017157600081600090555060010162000157565b5090565b90565b61222e80620001886000396000f3fe6080604052600436106100e6576000357c0100000000000000000000000000000000000000000000000000000000900463ffffffff1680630a9d74b7146100eb5780631aa03878146101145780631f7b6d321461013d57806360a6e3fd146101685780636229421a14610193578063873727ee146101bf57806389ea642f146101d65780638da5cb5b146102015780638fb4aabf1461022c578063a52780c914610257578063ac94982614610283578063aecb3682146102af578063bb20b811146102db578063be1c766b14610307578063c15bae8414610333578063f28532921461035e575b600080fd5b3480156100f757600080fd5b50610112600480360361010d9190810190611b2c565b610387565b005b34801561012057600080fd5b5061013b60048036036101369190810190611b03565b610596565b005b34801561014957600080fd5b50610152610611565b60405161015f9190611fb1565b60405180910390f35b34801561017457600080fd5b5061017d610625565b60405161018a9190611fcc565b60405180910390f35b34801561019f57600080fd5b506101a861062f565b6040516101b6929190611eff565b60405180910390f35b3480156101cb57600080fd5b506101d46108f9565b005b3480156101e257600080fd5b506101eb610975565b6040516101f89190611f8f565b60405180910390f35b34801561020d57600080fd5b50610216610a17565b6040516102239190611e76565b60405180910390f35b34801561023857600080fd5b50610241610a3c565b60405161024e9190611e76565b60405180910390f35b34801561026357600080fd5b5061026c610a65565b60405161027a929190611ec8565b60405180910390f35b34801561028f57600080fd5b50610298610e67565b6040516102a6929190611f36565b60405180910390f35b3480156102bb57600080fd5b506102c4611146565b6040516102d2929190611e91565b60405180910390f35b3480156102e757600080fd5b506102f06114fa565b6040516102fe929190611eff565b60405180910390f35b34801561031357600080fd5b5061031c6117c4565b60405161032a929190611fe7565b60405180910390f35b34801561033f57600080fd5b506103486117e6565b6040516103559190611f6d565b60405180910390f35b34801561036a57600080fd5b5061038560048036036103809190810190611ada565b611884565b005b61038f611922565b610140604051908101604052808c81526020018b81526020018a60ff1681526020018981526020018873ffffffffffffffffffffffffffffffffffffffff1681526020018781526020018681526020018581526020018481526020018381525090506001819080600181540180825580915050906001820390600052602060002090600a020160009091929091909150600082015181600001556020820151816001015560408201518160020160006101000a81548160ff021916908360ff1602179055506060820151816003015560808201518160040160006101000a81548173ffffffffffffffffffffffffffffffffffffffff021916908373ffffffffffffffffffffffffffffffffffffffff16021790555060a08201518160050190805190602001906104c192919061198f565b5060c08201518160060190805190602001906104de92919061198f565b5060e08201518160070190805190602001906104fb92919061198f565b506101008201518160080155610120820151816009015550505060008060149054906101000a900461ffff1661ffff1660018054905081151561053a57fe5b061415610589577fb94fdd1d0ffbf38a73dd078f0de4fd25fccceef761e76846ec416ae535eacac0600060149054906101000a900461ffff166040516105809190611fb1565b60405180910390a15b5050505050505050505050565b6000809054906101000a900473ffffffffffffffffffffffffffffffffffffffff1673ffffffffffffffffffffffffffffffffffffffff163373ffffffffffffffffffffffffffffffffffffffff161415156105f157600080fd5b80600060146101000a81548161ffff021916908361ffff16021790555050565b600060149054906101000a900461ffff1681565b6000600254905090565b6060806000809054906101000a900473ffffffffffffffffffffffffffffffffffffffff1673ffffffffffffffffffffffffffffffffffffffff163373ffffffffffffffffffffffffffffffffffffffff1614151561068d57600080fd5b6060600060149054906101000a900461ffff1661ffff166040519080825280602002602001820160405280156106d25781602001602082028038833980820191505090505b5090506060600060149054906101000a900461ffff1661ffff1660405190808252806020026020018201604052801561071a5781602001602082028038833980820191505090505b5090506060600260405190808252806020026020018201604052801561074f5781602001602082028038833980820191505090505b509050600060149054906101000a900461ffff1661ffff166002540181600181518110151561077a57fe5b906020019060200201818152505060025481600081518110151561079a57fe5b90602001906020020181815250505b8060018151811015156107b857fe5b906020019060200201518160008151811015156107d157fe5b9060200190602002015110156108ec5760018160008151811015156107f257fe5b9060200190602002015181548110151561080857fe5b90600052602060002090600a0201600001548360025483600081518110151561082d57fe5b906020019060200201510381518110151561084457fe5b9060200190602002018181525050600181600081518110151561086357fe5b9060200190602002015181548110151561087957fe5b90600052602060002090600a0201600101548260025483600081518110151561089e57fe5b90602001906020020151038151811015156108b557fe5b90602001906020020181815250508060008151811015156108d257fe5b9060200190602002018051809190600101815250506107a9565b8282945094505050509091565b6000809054906101000a900473ffffffffffffffffffffffffffffffffffffffff1673ffffffffffffffffffffffffffffffffffffffff163373ffffffffffffffffffffffffffffffffffffffff1614151561095457600080fd5b600060149054906101000a900461ffff1661ffff1660025401600281905550565b606060038054600181600116156101000203166002900480601f016020809104026020016040519081016040528092919081815260200182805460018160011615610100020316600290048015610a0d5780601f106109e257610100808354040283529160200191610a0d565b820191906000526020600020905b8154815290600101906020018083116109f057829003601f168201915b5050505050905090565b6000809054906101000a900473ffffffffffffffffffffffffffffffffffffffff1681565b60008060009054906101000a900473ffffffffffffffffffffffffffffffffffffffff16905090565b6060806000809054906101000a900473ffffffffffffffffffffffffffffffffffffffff1673ffffffffffffffffffffffffffffffffffffffff163373ffffffffffffffffffffffffffffffffffffffff16141515610ac357600080fd5b6060600060149054906101000a900461ffff1661ffff16604051908082528060200260200182016040528015610b0d57816020015b6060815260200190600190039081610af85790505b5090506060600060149054906101000a900461ffff1661ffff16604051908082528060200260200182016040528015610b5a57816020015b6060815260200190600190039081610b455790505b50905060606002604051908082528060200260200182016040528015610b8f5781602001602082028038833980820191505090505b509050600060149054906101000a900461ffff1661ffff1660025401816001815181101515610bba57fe5b9060200190602002018181525050600254816000815181101515610bda57fe5b90602001906020020181815250505b806001815181101515610bf857fe5b90602001906020020151816000815181101515610c1157fe5b906020019060200201511015610e5a576001816000815181101515610c3257fe5b90602001906020020151815481101515610c4857fe5b90600052602060002090600a02016006018054600181600116156101000203166002900480601f016020809104026020016040519081016040528092919081815260200182805460018160011615610100020316600290048015610ced5780601f10610cc257610100808354040283529160200191610ced565b820191906000526020600020905b815481529060010190602001808311610cd057829003601f168201915b505050505083600254836000815181101515610d0557fe5b9060200190602002015103815181101515610d1c57fe5b906020019060200201819052506001816000815181101515610d3a57fe5b90602001906020020151815481101515610d5057fe5b90600052602060002090600a02016007018054600181600116156101000203166002900480601f016020809104026020016040519081016040528092919081815260200182805460018160011615610100020316600290048015610df55780601f10610dca57610100808354040283529160200191610df5565b820191906000526020600020905b815481529060010190602001808311610dd857829003601f168201915b505050505082600254836000815181101515610e0d57fe5b9060200190602002015103815181101515610e2457fe5b90602001906020020181905250806000815181101515610e4057fe5b906020019060200201805180919060010181525050610be9565b8282945094505050509091565b6060806000809054906101000a900473ffffffffffffffffffffffffffffffffffffffff1673ffffffffffffffffffffffffffffffffffffffff163373ffffffffffffffffffffffffffffffffffffffff16141515610ec557600080fd5b6060600060149054906101000a900461ffff1661ffff16604051908082528060200260200182016040528015610f0a5781602001602082028038833980820191505090505b5090506060600060149054906101000a900461ffff1661ffff16604051908082528060200260200182016040528015610f525781602001602082028038833980820191505090505b50905060606002604051908082528060200260200182016040528015610f875781602001602082028038833980820191505090505b509050600060149054906101000a900461ffff1661ffff1660025401816001815181101515610fb257fe5b9060200190602002018181525050600254816000815181101515610fd257fe5b90602001906020020181815250505b806001815181101515610ff057fe5b9060200190602002015181600081518110151561100957fe5b90602001906020020151101561113957600181600081518110151561102a57fe5b9060200190602002015181548110151561104057fe5b90600052602060002090600a020160020160009054906101000a900460ff168360025483600081518110151561107257fe5b906020019060200201510381518110151561108957fe5b9060200190602002019060ff16908160ff168152505060018160008151811015156110b057fe5b906020019060200201518154811015156110c657fe5b90600052602060002090600a020160030154826002548360008151811015156110eb57fe5b906020019060200201510381518110151561110257fe5b906020019060200201818152505080600081518110151561111f57fe5b906020019060200201805180919060010181525050610fe1565b8282945094505050509091565b6060806000809054906101000a900473ffffffffffffffffffffffffffffffffffffffff1673ffffffffffffffffffffffffffffffffffffffff163373ffffffffffffffffffffffffffffffffffffffff161415156111a457600080fd5b6060600060149054906101000a900461ffff1661ffff166040519080825280602002602001820160405280156111e95781602001602082028038833980820191505090505b5090506060600060149054906101000a900461ffff1661ffff1660405190808252806020026020018201604052801561123657816020015b60608152602001906001900390816112215790505b5090506060600260405190808252806020026020018201604052801561126b5781602001602082028038833980820191505090505b509050600060149054906101000a900461ffff1661ffff166002540181600181518110151561129657fe5b90602001906020020181815250506002548160008151811015156112b657fe5b90602001906020020181815250505b8060018151811015156112d457fe5b906020019060200201518160008151811015156112ed57fe5b9060200190602002015110156114ed57600181600081518110151561130e57fe5b9060200190602002015181548110151561132457fe5b90600052602060002090600a020160040160009054906101000a900473ffffffffffffffffffffffffffffffffffffffff168360025483600081518110151561136957fe5b906020019060200201510381518110151561138057fe5b9060200190602002019073ffffffffffffffffffffffffffffffffffffffff16908173ffffffffffffffffffffffffffffffffffffffff168152505060018160008151811015156113cd57fe5b906020019060200201518154811015156113e357fe5b90600052602060002090600a02016005018054600181600116156101000203166002900480601f0160208091040260200160405190810160405280929190818152602001828054600181600116156101000203166002900480156114885780601f1061145d57610100808354040283529160200191611488565b820191906000526020600020905b81548152906001019060200180831161146b57829003601f168201915b5050505050826002548360008151811015156114a057fe5b90602001906020020151038151811015156114b757fe5b906020019060200201819052508060008151811015156114d357fe5b9060200190602002018051809190600101815250506112c5565b8282945094505050509091565b6060806000809054906101000a900473ffffffffffffffffffffffffffffffffffffffff1673ffffffffffffffffffffffffffffffffffffffff163373ffffffffffffffffffffffffffffffffffffffff1614151561155857600080fd5b6060600060149054906101000a900461ffff1661ffff1660405190808252806020026020018201604052801561159d5781602001602082028038833980820191505090505b5090506060600060149054906101000a900461ffff1661ffff166040519080825280602002602001820160405280156115e55781602001602082028038833980820191505090505b5090506060600260405190808252806020026020018201604052801561161a5781602001602082028038833980820191505090505b509050600060149054906101000a900461ffff1661ffff166002540181600181518110151561164557fe5b906020019060200201818152505060025481600081518110151561166557fe5b90602001906020020181815250505b80600181518110151561168357fe5b9060200190602002015181600081518110151561169c57fe5b9060200190602002015110156117b75760018160008151811015156116bd57fe5b906020019060200201518154811015156116d357fe5b90600052602060002090600a020160080154836002548360008151811015156116f857fe5b906020019060200201510381518110151561170f57fe5b9060200190602002018181525050600181600081518110151561172e57fe5b9060200190602002015181548110151561174457fe5b90600052602060002090600a0201600901548260025483600081518110151561176957fe5b906020019060200201510381518110151561178057fe5b906020019060200201818152505080600081518110151561179d57fe5b906020019060200201805180919060010181525050611674565b8282945094505050509091565b600080600180549050600060149054906101000a900461ffff16915091509091565b60038054600181600116156101000203166002900480601f01602080910402602001604051908101604052809291908181526020018280546001816001161561010002031660029004801561187c5780601f106118515761010080835404028352916020019161187c565b820191906000526020600020905b81548152906001019060200180831161185f57829003601f168201915b505050505081565b6000809054906101000a900473ffffffffffffffffffffffffffffffffffffffff1673ffffffffffffffffffffffffffffffffffffffff163373ffffffffffffffffffffffffffffffffffffffff161415156118df57600080fd5b806000806101000a81548173ffffffffffffffffffffffffffffffffffffffff021916908373ffffffffffffffffffffffffffffffffffffffff16021790555050565b610140604051908101604052806000815260200160008152602001600060ff16815260200160008152602001600073ffffffffffffffffffffffffffffffffffffffff16815260200160608152602001606081526020016060815260200160008152602001600081525090565b828054600181600116156101000203166002900490600052602060002090601f016020900481019282601f106119d057805160ff19168380011785556119fe565b828001600101855582156119fe579182015b828111156119fd5782518255916020019190600101906119e2565b5b509050611a0b9190611a0f565b5090565b611a3191905b80821115611a2d576000816000905550600101611a15565b5090565b90565b6000611a40823561216a565b905092915050565b600082601f8301121515611a5b57600080fd5b8135611a6e611a698261203d565b612010565b91508082526020830160208301858383011115611a8a57600080fd5b611a958382846121a1565b50505092915050565b6000611aaa823561217c565b905092915050565b6000611abe823561218a565b905092915050565b6000611ad28235612194565b905092915050565b600060208284031215611aec57600080fd5b6000611afa84828501611a34565b91505092915050565b600060208284031215611b1557600080fd5b6000611b2384828501611a9e565b91505092915050565b6000806000806000806000806000806101408b8d031215611b4c57600080fd5b6000611b5a8d828e01611ab2565b9a50506020611b6b8d828e01611ab2565b9950506040611b7c8d828e01611ac6565b9850506060611b8d8d828e01611ab2565b9750506080611b9e8d828e01611a34565b96505060a08b013567ffffffffffffffff811115611bbb57600080fd5b611bc78d828e01611a48565b95505060c08b013567ffffffffffffffff811115611be457600080fd5b611bf08d828e01611a48565b94505060e08b013567ffffffffffffffff811115611c0d57600080fd5b611c198d828e01611a48565b935050610100611c2b8d828e01611ab2565b925050610120611c3d8d828e01611ab2565b9150509295989b9194979a5092959850565b611c5881612113565b82525050565b6000611c698261209d565b808452602084019350611c7b83612069565b60005b82811015611cad57611c91868351611c4f565b611c9a826120df565b9150602086019550600181019050611c7e565b50849250505092915050565b6000611cc4826120a8565b80845260208401935083602082028501611cdd85612076565b60005b84811015611d16578383038852611cf8838351611e13565b9250611d03826120ec565b9150602088019750600181019050611ce0565b508196508694505050505092915050565b6000611d32826120b3565b808452602084019350611d4483612083565b60005b82811015611d7657611d5a868351611e58565b611d63826120f9565b9150602086019550600181019050611d47565b50849250505092915050565b6000611d8d826120be565b808452602084019350611d9f83612090565b60005b82811015611dd157611db5868351611e67565b611dbe82612106565b9150602086019550600181019050611da2565b50849250505092915050565b6000611de8826120d4565b808452611dfc8160208601602086016121b0565b611e05816121e3565b602085010191505092915050565b6000611e1e826120c9565b808452611e328160208601602086016121b0565b611e3b816121e3565b602085010191505092915050565b611e5281612125565b82525050565b611e6181612153565b82525050565b611e708161215d565b82525050565b6000602082019050611e8b6000830184611c4f565b92915050565b60006040820190508181036000830152611eab8185611c5e565b90508181036020830152611ebf8184611cb9565b90509392505050565b60006040820190508181036000830152611ee28185611cb9565b90508181036020830152611ef68184611cb9565b90509392505050565b60006040820190508181036000830152611f198185611d27565b90508181036020830152611f2d8184611d27565b90509392505050565b60006040820190508181036000830152611f508185611d82565b90508181036020830152611f648184611d27565b90509392505050565b60006020820190508181036000830152611f878184611e13565b905092915050565b60006020820190508181036000830152611fa98184611ddd565b905092915050565b6000602082019050611fc66000830184611e49565b92915050565b6000602082019050611fe16000830184611e58565b92915050565b6000604082019050611ffc6000830185611e58565b6120096020830184611e49565b9392505050565b6000604051905081810181811067ffffffffffffffff8211171561203357600080fd5b8060405250919050565b600067ffffffffffffffff82111561205457600080fd5b601f19601f8301169050602081019050919050565b6000602082019050919050565b6000602082019050919050565b6000602082019050919050565b6000602082019050919050565b600081519050919050565b600081519050919050565b600081519050919050565b600081519050919050565b600081519050919050565b600081519050919050565b6000602082019050919050565b6000602082019050919050565b6000602082019050919050565b6000602082019050919050565b600061211e82612133565b9050919050565b600061ffff82169050919050565b600073ffffffffffffffffffffffffffffffffffffffff82169050919050565b6000819050919050565b600060ff82169050919050565b600061217582612133565b9050919050565b600061ffff82169050919050565b6000819050919050565b600060ff82169050919050565b82818337600083830152505050565b60005b838110156121ce5780820151818401526020810190506121b3565b838111156121dd576000848401525b50505050565b6000601f19601f830116905091905056fea265627a7a72305820e759dca7b6f8370ec6c5ef0e0266e02d7f6720ce540c81974457dc3b529da4976c6578706572696d656e74616cf50037",
  "source": "pragma solidity ^0.5.0;\r\npragma experimental ABIEncoderV2;\r\n\r\ncontract DataControl{\r\n    struct FileInfoSave {\r\n        uint256 number;  //\r\n        uint256 file_number;  //\r\n        uint8 data_type;  //\r\n        uint256 size;  //\r\n        address user;  //\r\n        string period;  //\r\n        string area;  //\r\n        string file_addr;  //\r\n        uint256 file_hash;  //Hash\r\n        uint256 key;  //AES256\r\n    }\r\n\r\n    address public owner = msg.sender;\r\n    uint16 public length = 100;\r\n    FileInfoSave[] private fileInfoSave;\r\n    uint256 private start = 0;\r\n    string public str = 'aa';\r\n\r\n    //\r\n    modifier onlyOwner(){\r\n        require(msg.sender == owner);\r\n        _;\r\n    }\r\n\r\n    event FileInfoOk(uint16 length);\r\n\r\n//    modifier only\r\n\r\n    function getaddr() public view returns(address){\r\n        return owner;\r\n    }\r\n\r\n    function getstart() public view returns(uint256){\r\n        return start;\r\n    }\r\n\r\n    function getString() public view returns(string memory) {\r\n        return str;\r\n    }\r\n\r\n    function getLength() public view returns(uint256, uint16) {\r\n        return (fileInfoSave.length, length);\r\n    }\r\n\r\n    //\r\n    function SetLength(uint16 _length) public onlyOwner{\r\n        length = _length;\r\n    }\r\n\r\n    function ChangeOwner(address _owner) public onlyOwner{\r\n        owner = _owner;\r\n        \r\n    }\r\n\r\n    function set_file_list(uint256 number, uint256 file_number, uint8 data_type, uint256 size, address user, string memory period, string memory area, string memory file_addr, uint256 file_hash, uint256 key) public{\r\n        FileInfoSave memory data = FileInfoSave({\r\n            number: number,\r\n            file_number: file_number,\r\n            data_type: data_type,\r\n            size: size,\r\n            user: user,\r\n            period: period,\r\n            area: area,\r\n            file_addr: file_addr,\r\n            file_hash: file_hash,\r\n            key: key\r\n        });\r\n        fileInfoSave.push(data);\r\n        if(fileInfoSave.length % length == 0) emit FileInfoOk(length);\r\n    }\r\n\r\n    function get0_1() public view onlyOwner returns(uint256[] memory, uint256[] memory){\r\n        uint256[] memory _number = new uint256[](length);\r\n        uint256[] memory _file_number = new uint256[](length);\r\n        uint256[] memory i = new uint256[](2);\r\n        i[1] = start + length;\r\n        for(i[0] = start; i[0] < i[1]; i[0]++){\r\n            _number[i[0] - start] = fileInfoSave[i[0]].number;\r\n            _file_number[i[0] - start] = fileInfoSave[i[0]].file_number;\r\n        }\r\n        return (_number, _file_number);\r\n    }\r\n\r\n    function get2_3() public view onlyOwner returns(uint8[] memory, uint256[] memory){\r\n        uint8[] memory _data_type = new uint8[](length);\r\n        uint256[] memory _size = new uint256[](length);\r\n        uint256[] memory i = new uint256[](2);\r\n        i[1] = start + length;\r\n        for(i[0] = start; i[0] < i[1]; i[0]++){\r\n            _data_type[i[0] - start] = fileInfoSave[i[0]].data_type;\r\n            _size[i[0] - start] = fileInfoSave[i[0]].size;\r\n        }\r\n        return ( _data_type, _size);\r\n    }\r\n\r\n    function get4_5() public view onlyOwner returns( address[] memory, string[] memory){\r\n        address[] memory _user = new address[](length);\r\n        string[] memory _period = new string[](length);\r\n        uint256[] memory i = new uint256[](2);\r\n        i[1] = start + length;\r\n        for(i[0] = start; i[0] < i[1]; i[0]++){\r\n            _user[i[0] - start] = fileInfoSave[i[0]].user;\r\n            _period[i[0] - start] = fileInfoSave[i[0]].period;\r\n        }\r\n        return (_user, _period);\r\n    }\r\n\r\n    function get6_7() public view onlyOwner returns(string[] memory, string[] memory){\r\n        string[] memory _area = new string[](length);\r\n        string[] memory _file_addr = new string[](length);\r\n        uint256[] memory i = new uint256[](2);\r\n        i[1] = start + length;\r\n        for(i[0] = start; i[0] < i[1]; i[0]++){\r\n            _area[i[0] - start] = fileInfoSave[i[0]].area;\r\n            _file_addr[i[0] - start] = fileInfoSave[i[0]].file_addr;\r\n        }\r\n        return (_area, _file_addr);\r\n    }\r\n\r\n    function get8_9() public view onlyOwner returns(uint256[] memory, uint256[] memory){\r\n        uint256[] memory _file_hash = new uint256[](length);\r\n        uint256[] memory _key = new uint256[](length);\r\n        uint256[] memory i = new uint256[](2);\r\n        i[1] = start + length;\r\n        for(i[0] = start; i[0] < i[1]; i[0]++){\r\n            _file_hash[i[0] - start] = fileInfoSave[i[0]].file_hash;\r\n            _key[i[0] - start] = fileInfoSave[i[0]].key;\r\n        }\r\n        return (_file_hash, _key);\r\n    }\r\n\r\n    function set_start() public onlyOwner {\r\n        start = start + length;\r\n    }\r\n}\r\n",
  "sourcePath": "G:/ControlSolidity/contracts/DataControl.sol",
  "compiler": {
    "name": "solc",
    "version": "0.5.0+commit.1d4f565a.Emscripten.clang"
  },
  "schemaVersion": "3.0.5",
  "updatedAt": "2019-04-09T08:11:52.074Z",
  "devdoc": {
    "methods": {}
  },
  "userdoc": {
    "methods": {}
  }
}