{
  "contractName": "DataControl",
  "abi": [
    {
      "constant": true,
      "inputs": [],
      "name": "length",
      "outputs": [
        {
          "name": "",
          "type": "uint16"
        }
      ],
      "payable": false,
      "stateMutability": "view",
      "type": "function"
    },
    {
      "constant": true,
      "inputs": [],
      "name": "owner",
      "outputs": [
        {
          "name": "",
          "type": "address"
        }
      ],
      "payable": false,
      "stateMutability": "view",
      "type": "function"
    },
    {
      "constant": true,
      "inputs": [],
      "name": "str",
      "outputs": [
        {
          "name": "",
          "type": "string"
        }
      ],
      "payable": false,
      "stateMutability": "view",
      "type": "function"
    },
    {
      "anonymous": false,
      "inputs": [
        {
          "indexed": false,
          "name": "length",
          "type": "uint16"
        }
      ],
      "name": "FileInfoOk",
      "type": "event"
    },
    {
      "constant": true,
      "inputs": [],
      "name": "getaddr",
      "outputs": [
        {
          "name": "",
          "type": "address"
        }
      ],
      "payable": false,
      "stateMutability": "view",
      "type": "function"
    },
    {
      "constant": true,
      "inputs": [],
      "name": "getstart",
      "outputs": [
        {
          "name": "",
          "type": "uint256"
        }
      ],
      "payable": false,
      "stateMutability": "view",
      "type": "function"
    },
    {
      "constant": true,
      "inputs": [],
      "name": "getString",
      "outputs": [
        {
          "name": "",
          "type": "string"
        }
      ],
      "payable": false,
      "stateMutability": "view",
      "type": "function"
    },
    {
      "constant": true,
      "inputs": [],
      "name": "getLength",
      "outputs": [
        {
          "name": "",
          "type": "uint256"
        },
        {
          "name": "",
          "type": "uint16"
        }
      ],
      "payable": false,
      "stateMutability": "view",
      "type": "function"
    },
    {
      "constant": false,
      "inputs": [
        {
          "name": "_length",
          "type": "uint16"
        }
      ],
      "name": "SetLength",
      "outputs": [],
      "payable": false,
      "stateMutability": "nonpayable",
      "type": "function"
    },
    {
      "constant": false,
      "inputs": [
        {
          "name": "_owner",
          "type": "address"
        }
      ],
      "name": "ChangeOwner",
      "outputs": [],
      "payable": false,
      "stateMutability": "nonpayable",
      "type": "function"
    },
    {
      "constant": false,
      "inputs": [
        {
          "name": "number",
          "type": "uint256"
        },
        {
          "name": "file_number",
          "type": "uint256"
        },
        {
          "name": "data_type",
          "type": "uint8"
        },
        {
          "name": "size",
          "type": "string"
        },
        {
          "name": "user",
          "type": "address"
        },
        {
          "name": "period",
          "type": "string"
        },
        {
          "name": "area",
          "type": "string"
        },
        {
          "name": "file_addr",
          "type": "string"
        },
        {
          "name": "file_hash",
          "type": "string"
        },
        {
          "name": "key",
          "type": "string"
        }
      ],
      "name": "set_file_list",
      "outputs": [],
      "payable": false,
      "stateMutability": "nonpayable",
      "type": "function"
    },
    {
      "constant": true,
      "inputs": [],
      "name": "get0_1",
      "outputs": [
        {
          "name": "",
          "type": "uint256[]"
        },
        {
          "name": "",
          "type": "uint256[]"
        }
      ],
      "payable": false,
      "stateMutability": "view",
      "type": "function"
    },
    {
      "constant": true,
      "inputs": [],
      "name": "get2_3",
      "outputs": [
        {
          "name": "",
          "type": "uint8[]"
        },
        {
          "name": "",
          "type": "string[]"
        }
      ],
      "payable": false,
      "stateMutability": "view",
      "type": "function"
    },
    {
      "constant": true,
      "inputs": [],
      "name": "get4_5",
      "outputs": [
        {
          "name": "",
          "type": "address[]"
        },
        {
          "name": "",
          "type": "string[]"
        }
      ],
      "payable": false,
      "stateMutability": "view",
      "type": "function"
    },
    {
      "constant": true,
      "inputs": [],
      "name": "get6_7",
      "outputs": [
        {
          "name": "",
          "type": "string[]"
        },
        {
          "name": "",
          "type": "string[]"
        }
      ],
      "payable": false,
      "stateMutability": "view",
      "type": "function"
    },
    {
      "constant": true,
      "inputs": [],
      "name": "get8_9",
      "outputs": [
        {
          "name": "",
          "type": "string[]"
        },
        {
          "name": "",
          "type": "string[]"
        }
      ],
      "payable": false,
      "stateMutability": "view",
      "type": "function"
    },
    {
      "constant": false,
      "inputs": [],
      "name": "set_start",
      "outputs": [],
      "payable": false,
      "stateMutability": "nonpayable",
      "type": "function"
    }
  ],
  "bytecode": "0x6000805433600160a060020a03199091161760a060020a61ffff02191674640000000000000000000000000000000000000000178155600290815560c060405260808190527f616100000000000000000000000000000000000000000000000000000000000060a09081526200007991600391906200008e565b503480156200008757600080fd5b5062000133565b828054600181600116156101000203166002900490600052602060002090601f016020900481019282601f10620000d157805160ff191683800117855562000101565b8280016001018555821562000101579182015b8281111562000101578251825591602001919060010190620000e4565b506200010f92915062000113565b5090565b6200013091905b808211156200010f57600081556001016200011a565b90565b611ea580620001436000396000f3fe6080604052600436106100e55763ffffffff7c010000000000000000000000000000000000000000000000000000000060003504166312cff23481146100ea5780631aa038781461010c5780631f7b6d321461012c57806360a6e3fd146101575780636229421a14610179578063873727ee1461019c57806389ea642f146101b15780638da5cb5b146101d35780638fb4aabf146101f5578063a52780c91461020a578063ac9498261461022d578063aecb368214610250578063bb20b81114610273578063be1c766b14610288578063c15bae84146102ab578063f2853292146102c0575b600080fd5b3480156100f657600080fd5b5061010a6101053660046119b3565b6102e0565b005b34801561011857600080fd5b5061010a610127366004611995565b61057c565b34801561013857600080fd5b506101416105ed565b60405161014e9190611d64565b60405180910390f35b34801561016357600080fd5b5061016c61060f565b60405161014e9190611d72565b34801561018557600080fd5b5061018e610616565b60405161014e929190611d1d565b3480156101a857600080fd5b5061010a61087f565b3480156101bd57600080fd5b506101c66108ce565b60405161014e9190611d53565b3480156101df57600080fd5b506101e8610964565b60405161014e9190611cd3565b34801561020157600080fd5b506101e8610980565b34801561021657600080fd5b5061021f61099c565b60405161014e929190611d0c565b34801561023957600080fd5b50610242610d21565b60405161014e929190611d42565b34801561025c57600080fd5b50610265611020565b60405161014e929190611ce7565b34801561027f57600080fd5b5061021f611345565b34801561029457600080fd5b5061029d6116ca565b60405161014e929190611d80565b3480156102b757600080fd5b506101c66116f1565b3480156102cc57600080fd5b5061010a6102db36600461196f565b61177f565b6102e86117df565b5060408051610140810182528b815260208082018c815260ff8c8116948401948552606084018c815273ffffffffffffffffffffffffffffffffffffffff8c16608086015260a085018b905260c085018a905260e08501899052610100850188905261012085018790526001805480820180835560009290925286517fb10e2d527612073b26eecdfd717e6a320cf44b4afac2b0732d9fcbe2b7fa0cf6600a90920291820190815594517fb10e2d527612073b26eecdfd717e6a320cf44b4afac2b0732d9fcbe2b7fa0cf782015596517fb10e2d527612073b26eecdfd717e6a320cf44b4afac2b0732d9fcbe2b7fa0cf88801805460ff19169190941617909255518051949591948694610420937fb10e2d527612073b26eecdfd717e6a320cf44b4afac2b0732d9fcbe2b7fa0cf90192019061184c565b50608082015160048201805473ffffffffffffffffffffffffffffffffffffffff191673ffffffffffffffffffffffffffffffffffffffff90921691909117905560a0820151805161047c91600584019160209091019061184c565b5060c0820151805161049891600684019160209091019061184c565b5060e082015180516104b491600784019160209091019061184c565b5061010082015180516104d191600884019160209091019061184c565b5061012082015180516104ee91600984019160209091019061184c565b50506000546001547401000000000000000000000000000000000000000090910461ffff169250905081151561052057fe5b06151561056f577fb94fdd1d0ffbf38a73dd078f0de4fd25fccceef761e76846ec416ae535eacac0600060149054906101000a900461ffff166040516105669190611d64565b60405180910390a15b5050505050505050505050565b60005473ffffffffffffffffffffffffffffffffffffffff1633146105a057600080fd5b6000805461ffff90921674010000000000000000000000000000000000000000027fffffffffffffffffffff0000ffffffffffffffffffffffffffffffffffffffff909216919091179055565b60005474010000000000000000000000000000000000000000900461ffff1681565b6002545b90565b600054606090819073ffffffffffffffffffffffffffffffffffffffff16331461063f57600080fd5b6060600060149054906101000a900461ffff1661ffff1660405190808252806020026020018201604052801561067f578160200160208202803883390190505b5090506060600060149054906101000a900461ffff1661ffff166040519080825280602002602001820160405280156106c2578160200160208202803883390190505b50604080516002808252606080830184529394509091602083019080388339505060005460025483519394507401000000000000000000000000000000000000000090910461ffff160191839150600190811061071b57fe5b6020908102909101015260025481518290600090811061073757fe5b602090810290910101525b80600181518110151561075157fe5b9060200190602002015181600081518110151561076a57fe5b90602001906020020151101561087557600181600081518110151561078b57fe5b602090810290910101518154811061079f57fe5b90600052602060002090600a020160000154836002548360008151811015156107c457fe5b90602001906020020151038151811015156107db57fe5b602090810290910101528051600190829060009081106107f757fe5b602090810290910101518154811061080b57fe5b90600052602060002090600a0201600101548260025483600081518110151561083057fe5b906020019060200201510381518110151561084757fe5b6020908102909101015280518190600090811061086057fe5b60209081029091010180516001019052610742565b5090925090509091565b60005473ffffffffffffffffffffffffffffffffffffffff1633146108a357600080fd5b600054600280547401000000000000000000000000000000000000000090920461ffff169091019055565b60038054604080516020601f600260001961010060018816150201909516949094049384018190048102820181019092528281526060939092909183018282801561095a5780601f1061092f5761010080835404028352916020019161095a565b820191906000526020600020905b81548152906001019060200180831161093d57829003601f168201915b5050505050905090565b60005473ffffffffffffffffffffffffffffffffffffffff1681565b60005473ffffffffffffffffffffffffffffffffffffffff1690565b600054606090819073ffffffffffffffffffffffffffffffffffffffff1633146109c557600080fd5b6060600060149054906101000a900461ffff1661ffff16604051908082528060200260200182016040528015610a0f57816020015b60608152602001906001900390816109fa5790505b5090506060600060149054906101000a900461ffff1661ffff16604051908082528060200260200182016040528015610a5c57816020015b6060815260200190600190039081610a475790505b50604080516002808252606080830184529394509091602083019080388339505060005460025483519394507401000000000000000000000000000000000000000090910461ffff1601918391506001908110610ab557fe5b60209081029091010152600254815182906000908110610ad157fe5b602090810290910101525b806001815181101515610aeb57fe5b90602001906020020151816000815181101515610b0457fe5b906020019060200201511015610875576001816000815181101515610b2557fe5b6020908102909101015181548110610b3957fe5b60009182526020918290206006600a9092020101805460408051601f6002600019610100600187161502019094169390930492830185900485028101850190915281815292830182828015610bcf5780601f10610ba457610100808354040283529160200191610bcf565b820191906000526020600020905b815481529060010190602001808311610bb257829003601f168201915b505050505083600254836000815181101515610be757fe5b9060200190602002015103815181101515610bfe57fe5b60209081029091010152805160019082906000908110610c1a57fe5b6020908102909101015181548110610c2e57fe5b60009182526020918290206007600a9092020101805460408051601f6002600019610100600187161502019094169390930492830185900485028101850190915281815292830182828015610cc45780601f10610c9957610100808354040283529160200191610cc4565b820191906000526020600020905b815481529060010190602001808311610ca757829003601f168201915b505050505082600254836000815181101515610cdc57fe5b9060200190602002015103815181101515610cf357fe5b60209081029091010152805181906000908110610d0c57fe5b60209081029091010180516001019052610adc565b600054606090819073ffffffffffffffffffffffffffffffffffffffff163314610d4a57600080fd5b6060600060149054906101000a900461ffff1661ffff16604051908082528060200260200182016040528015610d8a578160200160208202803883390190505b5090506060600060149054906101000a900461ffff1661ffff16604051908082528060200260200182016040528015610dd757816020015b6060815260200190600190039081610dc25790505b50604080516002808252606080830184529394509091602083019080388339505060005460025483519394507401000000000000000000000000000000000000000090910461ffff1601918391506001908110610e3057fe5b60209081029091010152600254815182906000908110610e4c57fe5b602090810290910101525b806001815181101515610e6657fe5b90602001906020020151816000815181101515610e7f57fe5b906020019060200201511015610875576001816000815181101515610ea057fe5b6020908102909101015181548110610eb457fe5b6000918252602082206002600a909202018101549054835160ff9092169286928591908110610edf57fe5b9060200190602002015103815181101515610ef657fe5b60ff909216602092830290910190910152805160019082906000908110610f1957fe5b6020908102909101015181548110610f2d57fe5b60009182526020918290206003600a9092020101805460408051601f6002600019610100600187161502019094169390930492830185900485028101850190915281815292830182828015610fc35780601f10610f9857610100808354040283529160200191610fc3565b820191906000526020600020905b815481529060010190602001808311610fa657829003601f168201915b505050505082600254836000815181101515610fdb57fe5b9060200190602002015103815181101515610ff257fe5b6020908102909101015280518190600090811061100b57fe5b60209081029091010180516001019052610e57565b600054606090819073ffffffffffffffffffffffffffffffffffffffff16331461104957600080fd5b6060600060149054906101000a900461ffff1661ffff16604051908082528060200260200182016040528015611089578160200160208202803883390190505b5090506060600060149054906101000a900461ffff1661ffff166040519080825280602002602001820160405280156110d657816020015b60608152602001906001900390816110c15790505b50604080516002808252606080830184529394509091602083019080388339505060005460025483519394507401000000000000000000000000000000000000000090910461ffff160191839150600190811061112f57fe5b6020908102909101015260025481518290600090811061114b57fe5b602090810290910101525b80600181518110151561116557fe5b9060200190602002015181600081518110151561117e57fe5b90602001906020020151101561087557600181600081518110151561119f57fe5b60209081029091010151815481106111b357fe5b6000918252602082206004600a909202010154600254835173ffffffffffffffffffffffffffffffffffffffff90921692869285919081106111f157fe5b906020019060200201510381518110151561120857fe5b73ffffffffffffffffffffffffffffffffffffffff90921660209283029091019091015280516001908290600090811061123e57fe5b602090810290910101518154811061125257fe5b60009182526020918290206005600a9092020101805460408051601f60026000196101006001871615020190941693909304928301859004850281018501909152818152928301828280156112e85780601f106112bd576101008083540402835291602001916112e8565b820191906000526020600020905b8154815290600101906020018083116112cb57829003601f168201915b50505050508260025483600081518110151561130057fe5b906020019060200201510381518110151561131757fe5b6020908102909101015280518190600090811061133057fe5b60209081029091010180516001019052611156565b600054606090819073ffffffffffffffffffffffffffffffffffffffff16331461136e57600080fd5b6060600060149054906101000a900461ffff1661ffff166040519080825280602002602001820160405280156113b857816020015b60608152602001906001900390816113a35790505b5090506060600060149054906101000a900461ffff1661ffff1660405190808252806020026020018201604052801561140557816020015b60608152602001906001900390816113f05790505b50604080516002808252606080830184529394509091602083019080388339505060005460025483519394507401000000000000000000000000000000000000000090910461ffff160191839150600190811061145e57fe5b6020908102909101015260025481518290600090811061147a57fe5b602090810290910101525b80600181518110151561149457fe5b906020019060200201518160008151811015156114ad57fe5b9060200190602002015110156108755760018160008151811015156114ce57fe5b60209081029091010151815481106114e257fe5b60009182526020918290206008600a9092020101805460408051601f60026000196101006001871615020190941693909304928301859004850281018501909152818152928301828280156115785780601f1061154d57610100808354040283529160200191611578565b820191906000526020600020905b81548152906001019060200180831161155b57829003601f168201915b50505050508360025483600081518110151561159057fe5b90602001906020020151038151811015156115a757fe5b602090810290910101528051600190829060009081106115c357fe5b60209081029091010151815481106115d757fe5b60009182526020918290206009600a9092020101805460408051601f600260001961010060018716150201909416939093049283018590048502810185019091528181529283018282801561166d5780601f106116425761010080835404028352916020019161166d565b820191906000526020600020905b81548152906001019060200180831161165057829003601f168201915b50505050508260025483600081518110151561168557fe5b906020019060200201510381518110151561169c57fe5b602090810290910101528051819060009081106116b557fe5b60209081029091010180516001019052611485565b60015460005461ffff74010000000000000000000000000000000000000000909104169091565b6003805460408051602060026001851615610100026000190190941693909304601f810184900484028201840190925281815292918301828280156117775780601f1061174c57610100808354040283529160200191611777565b820191906000526020600020905b81548152906001019060200180831161175a57829003601f168201915b505050505081565b60005473ffffffffffffffffffffffffffffffffffffffff1633146117a357600080fd5b6000805473ffffffffffffffffffffffffffffffffffffffff191673ffffffffffffffffffffffffffffffffffffffff92909216919091179055565b610140604051908101604052806000815260200160008152602001600060ff16815260200160608152602001600073ffffffffffffffffffffffffffffffffffffffff16815260200160608152602001606081526020016060815260200160608152602001606081525090565b828054600181600116156101000203166002900490600052602060002090601f016020900481019282601f1061188d57805160ff19168380011785556118ba565b828001600101855582156118ba579182015b828111156118ba57825182559160200191906001019061189f565b506118c69291506118ca565b5090565b61061391905b808211156118c657600081556001016118d0565b60006118f08235611df4565b9392505050565b6000601f8201831361190857600080fd5b813561191b61191682611dc2565b611d9b565b9150808252602083016020830185838301111561193757600080fd5b611942838284611e25565b50505092915050565b60006118f08235611dff565b60006118f08235610613565b60006118f08235611e1f565b60006020828403121561198157600080fd5b600061198d84846118e4565b949350505050565b6000602082840312156119a757600080fd5b600061198d848461194b565b6000806000806000806000806000806101408b8d0312156119d357600080fd5b60006119df8d8d611957565b9a505060206119f08d828e01611957565b9950506040611a018d828e01611963565b98505060608b013567ffffffffffffffff811115611a1e57600080fd5b611a2a8d828e016118f7565b9750506080611a3b8d828e016118e4565b96505060a08b013567ffffffffffffffff811115611a5857600080fd5b611a648d828e016118f7565b95505060c08b013567ffffffffffffffff811115611a8157600080fd5b611a8d8d828e016118f7565b94505060e08b013567ffffffffffffffff811115611aaa57600080fd5b611ab68d828e016118f7565b9350506101008b013567ffffffffffffffff811115611ad457600080fd5b611ae08d828e016118f7565b9250506101208b013567ffffffffffffffff811115611afe57600080fd5b611b0a8d828e016118f7565b9150509295989b9194979a5092959850565b611b2581611df4565b82525050565b6000611b3682611df0565b808452602084019350611b4883611dea565b60005b82811015611b7857611b5e868351611b1c565b611b6782611dea565b602096909601959150600101611b4b565b5093949350505050565b6000611b8d82611df0565b80845260208401935083602082028501611ba685611dea565b60005b84811015611bdd578383038852611bc1838351611c83565b9250611bcc82611dea565b602098909801979150600101611ba9565b50909695505050505050565b6000611bf482611df0565b808452602084019350611c0683611dea565b60005b82811015611b7857611c1c868351611cc1565b611c2582611dea565b602096909601959150600101611c09565b6000611c4182611df0565b808452602084019350611c5383611dea565b60005b82811015611b7857611c69868351611cca565b611c7282611dea565b602096909601959150600101611c56565b6000611c8e82611df0565b808452611ca2816020860160208601611e31565b611cab81611e61565b9093016020019392505050565b611b2581611dff565b611b2581610613565b611b2581611e1f565b60208101611ce18284611b1c565b92915050565b60408082528101611cf88185611b2b565b9050818103602083015261198d8184611b82565b60408082528101611cf88185611b82565b60408082528101611d2e8185611be9565b9050818103602083015261198d8184611be9565b60408082528101611cf88185611c36565b602080825281016118f08184611c83565b60208101611ce18284611cb8565b60208101611ce18284611cc1565b60408101611d8e8285611cc1565b6118f06020830184611cb8565b60405181810167ffffffffffffffff81118282101715611dba57600080fd5b604052919050565b600067ffffffffffffffff821115611dd957600080fd5b506020601f91909101601f19160190565b60200190565b5190565b6000611ce182611e06565b61ffff1690565b73ffffffffffffffffffffffffffffffffffffffff1690565b60ff1690565b82818337506000910152565b60005b83811015611e4c578181015183820152602001611e34565b83811115611e5b576000848401525b50505050565b601f01601f19169056fea265627a7a7230582014db7ead43e3c0309abf73c4801b7d10e46503207e7824ed04afc49d4e6bf10b6c6578706572696d656e74616cf50037",
  "source": "pragma solidity ^0.5.0;\r\npragma experimental ABIEncoderV2;\r\n\r\ncontract DataControl{\r\n    struct FileInfoSave {\r\n        uint256 number;  //\r\n        uint256 file_number;  //\r\n        uint8 data_type;  //\r\n        string size;  //\r\n        address user;  //\r\n        string period;  //\r\n        string area;  //\r\n        string file_addr;  //\r\n        string file_hash;  //Hash\r\n        string key;  //AES256\r\n    }\r\n\r\n    address public owner = msg.sender;\r\n    uint16 public length = 100;\r\n    FileInfoSave[] private fileInfoSave;\r\n    uint256 private start = 0;\r\n    string public str = 'aa';\r\n\r\n    //\r\n    modifier onlyOwner(){\r\n        require(msg.sender == owner);\r\n        _;\r\n    }\r\n\r\n    event FileInfoOk(uint16 length);\r\n\r\n//    modifier only\r\n\r\n    function getaddr() public view returns(address){\r\n        return owner;\r\n    }\r\n\r\n    function getstart() public view returns(uint256){\r\n        return start;\r\n    }\r\n\r\n    function getString() public view returns(string memory) {\r\n        return str;\r\n    }\r\n\r\n    function getLength() public view returns(uint256, uint16) {\r\n        return (fileInfoSave.length, length);\r\n    }\r\n\r\n    //\r\n    function SetLength(uint16 _length) public onlyOwner{\r\n        length = _length;\r\n    }\r\n\r\n    function ChangeOwner(address _owner) public onlyOwner{\r\n        owner = _owner;\r\n        \r\n    }\r\n\r\n    function set_file_list(uint256 number, uint256 file_number, uint8 data_type, string memory size, address user, string memory period, string memory area, string memory file_addr, string memory file_hash, string memory key) public{\r\n        FileInfoSave memory data = FileInfoSave({\r\n            number: number,\r\n            file_number: file_number,\r\n            data_type: data_type,\r\n            size: size,\r\n            user: user,\r\n            period: period,\r\n            area: area,\r\n            file_addr: file_addr,\r\n            file_hash: file_hash,\r\n            key: key\r\n        });\r\n        fileInfoSave.push(data);\r\n        if(fileInfoSave.length % length == 0) emit FileInfoOk(length);\r\n    }\r\n\r\n    function get0_1() public view onlyOwner returns(uint256[] memory, uint256[] memory){\r\n        uint256[] memory _number = new uint256[](length);\r\n        uint256[] memory _file_number = new uint256[](length);\r\n        uint256[] memory i = new uint256[](2);\r\n        i[1] = start + length;\r\n        for(i[0] = start; i[0] < i[1]; i[0]++){\r\n            _number[i[0] - start] = fileInfoSave[i[0]].number;\r\n            _file_number[i[0] - start] = fileInfoSave[i[0]].file_number;\r\n        }\r\n        return (_number, _file_number);\r\n    }\r\n\r\n    function get2_3() public view onlyOwner returns(uint8[] memory, string[] memory){\r\n        uint8[] memory _data_type = new uint8[](length);\r\n        string[] memory _size = new string[](length);\r\n        uint256[] memory i = new uint256[](2);\r\n        i[1] = start + length;\r\n        for(i[0] = start; i[0] < i[1]; i[0]++){\r\n            _data_type[i[0] - start] = fileInfoSave[i[0]].data_type;\r\n            _size[i[0] - start] = fileInfoSave[i[0]].size;\r\n        }\r\n        return ( _data_type, _size);\r\n    }\r\n\r\n    function get4_5() public view onlyOwner returns( address[] memory, string[] memory){\r\n        address[] memory _user = new address[](length);\r\n        string[] memory _period = new string[](length);\r\n        uint256[] memory i = new uint256[](2);\r\n        i[1] = start + length;\r\n        for(i[0] = start; i[0] < i[1]; i[0]++){\r\n            _user[i[0] - start] = fileInfoSave[i[0]].user;\r\n            _period[i[0] - start] = fileInfoSave[i[0]].period;\r\n        }\r\n        return (_user, _period);\r\n    }\r\n\r\n    function get6_7() public view onlyOwner returns(string[] memory, string[] memory){\r\n        string[] memory _area = new string[](length);\r\n        string[] memory _file_addr = new string[](length);\r\n        uint256[] memory i = new uint256[](2);\r\n        i[1] = start + length;\r\n        for(i[0] = start; i[0] < i[1]; i[0]++){\r\n            _area[i[0] - start] = fileInfoSave[i[0]].area;\r\n            _file_addr[i[0] - start] = fileInfoSave[i[0]].file_addr;\r\n        }\r\n        return (_area, _file_addr);\r\n    }\r\n\r\n    function get8_9() public view onlyOwner returns(string[] memory, string[] memory){\r\n        string[] memory _file_hash = new string[](length);\r\n        string[] memory _key = new string[](length);\r\n        uint256[] memory i = new uint256[](2);\r\n        i[1] = start + length;\r\n        for(i[0] = start; i[0] < i[1]; i[0]++){\r\n            _file_hash[i[0] - start] = fileInfoSave[i[0]].file_hash;\r\n            _key[i[0] - start] = fileInfoSave[i[0]].key;\r\n        }\r\n        return (_file_hash, _key);\r\n    }\r\n\r\n    function set_start() public onlyOwner {\r\n        start = start + length;\r\n    }\r\n}\r\n",
  "sourcePath": "G:/ControlSolidity/contracts/DataControl.sol",
  "compiler": {
    "name": "solc",
    "version": "0.5.0+commit.1d4f565a.Emscripten.clang"
  },
  "schemaVersion": "3.0.5",
  "updatedAt": "2019-05-02T08:54:38.156Z",
  "devdoc": {
    "methods": {}
  },
  "userdoc": {
    "methods": {}
  }
}