{
  "contractName": "DataControl",
  "abi": [
    {
      "constant": true,
      "inputs": [],
      "name": "length",
      "outputs": [
        {
          "name": "",
          "type": "uint16"
        }
      ],
      "payable": false,
      "stateMutability": "view",
      "type": "function",
      "signature": "0x1f7b6d32"
    },
    {
      "constant": true,
      "inputs": [],
      "name": "owner",
      "outputs": [
        {
          "name": "",
          "type": "address"
        }
      ],
      "payable": false,
      "stateMutability": "view",
      "type": "function",
      "signature": "0x8da5cb5b"
    },
    {
      "constant": true,
      "inputs": [],
      "name": "str",
      "outputs": [
        {
          "name": "",
          "type": "string"
        }
      ],
      "payable": false,
      "stateMutability": "view",
      "type": "function",
      "signature": "0xc15bae84"
    },
    {
      "anonymous": false,
      "inputs": [
        {
          "indexed": false,
          "name": "length",
          "type": "uint16"
        }
      ],
      "name": "FileInfoOk",
      "type": "event",
      "signature": "0xb94fdd1d0ffbf38a73dd078f0de4fd25fccceef761e76846ec416ae535eacac0"
    },
    {
      "constant": true,
      "inputs": [],
      "name": "getaddr",
      "outputs": [
        {
          "name": "",
          "type": "address"
        }
      ],
      "payable": false,
      "stateMutability": "view",
      "type": "function",
      "signature": "0x8fb4aabf"
    },
    {
      "constant": true,
      "inputs": [],
      "name": "getstart",
      "outputs": [
        {
          "name": "",
          "type": "uint256"
        }
      ],
      "payable": false,
      "stateMutability": "view",
      "type": "function",
      "signature": "0x60a6e3fd"
    },
    {
      "constant": true,
      "inputs": [],
      "name": "getString",
      "outputs": [
        {
          "name": "",
          "type": "string"
        }
      ],
      "payable": false,
      "stateMutability": "view",
      "type": "function",
      "signature": "0x89ea642f"
    },
    {
      "constant": true,
      "inputs": [],
      "name": "getLength",
      "outputs": [
        {
          "name": "",
          "type": "uint256"
        },
        {
          "name": "",
          "type": "uint16"
        }
      ],
      "payable": false,
      "stateMutability": "view",
      "type": "function",
      "signature": "0xbe1c766b"
    },
    {
      "constant": false,
      "inputs": [
        {
          "name": "_length",
          "type": "uint16"
        }
      ],
      "name": "SetLength",
      "outputs": [],
      "payable": false,
      "stateMutability": "nonpayable",
      "type": "function",
      "signature": "0x1aa03878"
    },
    {
      "constant": false,
      "inputs": [
        {
          "name": "_owner",
          "type": "address"
        }
      ],
      "name": "ChangeOwner",
      "outputs": [],
      "payable": false,
      "stateMutability": "nonpayable",
      "type": "function",
      "signature": "0xf2853292"
    },
    {
      "constant": false,
      "inputs": [
        {
          "name": "number",
          "type": "uint256"
        },
        {
          "name": "file_number",
          "type": "uint256"
        },
        {
          "name": "data_type",
          "type": "uint8"
        },
        {
          "name": "size",
          "type": "uint256"
        },
        {
          "name": "user",
          "type": "address"
        },
        {
          "name": "period",
          "type": "string"
        },
        {
          "name": "area",
          "type": "string"
        },
        {
          "name": "file_addr",
          "type": "string"
        },
        {
          "name": "file_hash",
          "type": "uint256"
        },
        {
          "name": "key",
          "type": "uint256"
        }
      ],
      "name": "set_file_list",
      "outputs": [],
      "payable": false,
      "stateMutability": "nonpayable",
      "type": "function",
      "signature": "0x0a9d74b7"
    },
    {
      "constant": true,
      "inputs": [],
      "name": "get0_1",
      "outputs": [
        {
          "name": "",
          "type": "uint256[]"
        },
        {
          "name": "",
          "type": "uint256[]"
        }
      ],
      "payable": false,
      "stateMutability": "view",
      "type": "function",
      "signature": "0x6229421a"
    },
    {
      "constant": true,
      "inputs": [],
      "name": "get2_3",
      "outputs": [
        {
          "name": "",
          "type": "uint8[]"
        },
        {
          "name": "",
          "type": "uint256[]"
        }
      ],
      "payable": false,
      "stateMutability": "view",
      "type": "function",
      "signature": "0xac949826"
    },
    {
      "constant": true,
      "inputs": [],
      "name": "get4_5",
      "outputs": [
        {
          "name": "",
          "type": "address[]"
        },
        {
          "name": "",
          "type": "string[]"
        }
      ],
      "payable": false,
      "stateMutability": "view",
      "type": "function",
      "signature": "0xaecb3682"
    },
    {
      "constant": true,
      "inputs": [],
      "name": "get6_7",
      "outputs": [
        {
          "name": "",
          "type": "string[]"
        },
        {
          "name": "",
          "type": "string[]"
        }
      ],
      "payable": false,
      "stateMutability": "view",
      "type": "function",
      "signature": "0xa52780c9"
    },
    {
      "constant": true,
      "inputs": [],
      "name": "get8_9",
      "outputs": [
        {
          "name": "",
          "type": "uint256[]"
        },
        {
          "name": "",
          "type": "uint256[]"
        }
      ],
      "payable": false,
      "stateMutability": "view",
      "type": "function",
      "signature": "0xbb20b811"
    },
    {
      "constant": false,
      "inputs": [],
      "name": "set_start",
      "outputs": [],
      "payable": false,
      "stateMutability": "nonpayable",
      "type": "function",
      "signature": "0x873727ee"
    }
  ],
  "bytecode": "0x6080604052336000806101000a81548173ffffffffffffffffffffffffffffffffffffffff021916908373ffffffffffffffffffffffffffffffffffffffff1602179055506064600060146101000a81548161ffff021916908361ffff16021790555060006002556040805190810160405280600281526020017f616100000000000000000000000000000000000000000000000000000000000081525060039080519060200190620000b4929190620000c9565b50348015620000c257600080fd5b5062000178565b828054600181600116156101000203166002900490600052602060002090601f016020900481019282601f106200010c57805160ff19168380011785556200013d565b828001600101855582156200013d579182015b828111156200013c5782518255916020019190600101906200011f565b5b5090506200014c919062000150565b5090565b6200017591905b808211156200017157600081600090555060010162000157565b5090565b90565b61218e80620001886000396000f3fe6080604052600436106100e6576000357c0100000000000000000000000000000000000000000000000000000000900463ffffffff1680630a9d74b7146100eb5780631aa03878146101145780631f7b6d321461013d57806360a6e3fd146101685780636229421a14610193578063873727ee146101bf57806389ea642f146101d65780638da5cb5b146102015780638fb4aabf1461022c578063a52780c914610257578063ac94982614610283578063aecb3682146102af578063bb20b811146102db578063be1c766b14610307578063c15bae8414610333578063f28532921461035e575b600080fd5b3480156100f757600080fd5b50610112600480360361010d9190810190611a8c565b610387565b005b34801561012057600080fd5b5061013b60048036036101369190810190611a63565b610596565b005b34801561014957600080fd5b50610152610611565b60405161015f9190611f11565b60405180910390f35b34801561017457600080fd5b5061017d610625565b60405161018a9190611f2c565b60405180910390f35b34801561019f57600080fd5b506101a861062f565b6040516101b6929190611e5f565b60405180910390f35b3480156101cb57600080fd5b506101d46108d9565b005b3480156101e257600080fd5b506101eb610955565b6040516101f89190611eef565b60405180910390f35b34801561020d57600080fd5b506102166109f7565b6040516102239190611dd6565b60405180910390f35b34801561023857600080fd5b50610241610a1c565b60405161024e9190611dd6565b60405180910390f35b34801561026357600080fd5b5061026c610a45565b60405161027a929190611e28565b60405180910390f35b34801561028f57600080fd5b50610298610e27565b6040516102a6929190611e96565b60405180910390f35b3480156102bb57600080fd5b506102c46110e6565b6040516102d2929190611df1565b60405180910390f35b3480156102e757600080fd5b506102f061147a565b6040516102fe929190611e5f565b60405180910390f35b34801561031357600080fd5b5061031c611724565b60405161032a929190611f47565b60405180910390f35b34801561033f57600080fd5b50610348611746565b6040516103559190611ecd565b60405180910390f35b34801561036a57600080fd5b5061038560048036036103809190810190611a3a565b6117e4565b005b61038f611882565b610140604051908101604052808c81526020018b81526020018a60ff1681526020018981526020018873ffffffffffffffffffffffffffffffffffffffff1681526020018781526020018681526020018581526020018481526020018381525090506001819080600181540180825580915050906001820390600052602060002090600a020160009091929091909150600082015181600001556020820151816001015560408201518160020160006101000a81548160ff021916908360ff1602179055506060820151816003015560808201518160040160006101000a81548173ffffffffffffffffffffffffffffffffffffffff021916908373ffffffffffffffffffffffffffffffffffffffff16021790555060a08201518160050190805190602001906104c19291906118ef565b5060c08201518160060190805190602001906104de9291906118ef565b5060e08201518160070190805190602001906104fb9291906118ef565b506101008201518160080155610120820151816009015550505060008060149054906101000a900461ffff1661ffff1660018054905081151561053a57fe5b061415610589577fb94fdd1d0ffbf38a73dd078f0de4fd25fccceef761e76846ec416ae535eacac0600060149054906101000a900461ffff166040516105809190611f11565b60405180910390a15b5050505050505050505050565b6000809054906101000a900473ffffffffffffffffffffffffffffffffffffffff1673ffffffffffffffffffffffffffffffffffffffff163373ffffffffffffffffffffffffffffffffffffffff161415156105f157600080fd5b80600060146101000a81548161ffff021916908361ffff16021790555050565b600060149054906101000a900461ffff1681565b6000600254905090565b6060806000809054906101000a900473ffffffffffffffffffffffffffffffffffffffff1673ffffffffffffffffffffffffffffffffffffffff163373ffffffffffffffffffffffffffffffffffffffff1614151561068d57600080fd5b6060600060149054906101000a900461ffff1661ffff166040519080825280602002602001820160405280156106d25781602001602082028038833980820191505090505b5090506060600060149054906101000a900461ffff1661ffff1660405190808252806020026020018201604052801561071a5781602001602082028038833980820191505090505b5090506060600260405190808252806020026020018201604052801561074f5781602001602082028038833980820191505090505b509050600060149054906101000a900461ffff1661ffff166002540181600181518110151561077a57fe5b90602001906020020181815250505b80600181518110151561079857fe5b906020019060200201518160008151811015156107b157fe5b9060200190602002015110156108cc5760018160008151811015156107d257fe5b906020019060200201518154811015156107e857fe5b90600052602060002090600a0201600001548360025483600081518110151561080d57fe5b906020019060200201510381518110151561082457fe5b9060200190602002018181525050600181600081518110151561084357fe5b9060200190602002015181548110151561085957fe5b90600052602060002090600a0201600101548260025483600081518110151561087e57fe5b906020019060200201510381518110151561089557fe5b90602001906020020181815250508060008151811015156108b257fe5b906020019060200201805180919060010181525050610789565b8282945094505050509091565b6000809054906101000a900473ffffffffffffffffffffffffffffffffffffffff1673ffffffffffffffffffffffffffffffffffffffff163373ffffffffffffffffffffffffffffffffffffffff1614151561093457600080fd5b600060149054906101000a900461ffff1661ffff1660025401600281905550565b606060038054600181600116156101000203166002900480601f0160208091040260200160405190810160405280929190818152602001828054600181600116156101000203166002900480156109ed5780601f106109c2576101008083540402835291602001916109ed565b820191906000526020600020905b8154815290600101906020018083116109d057829003601f168201915b5050505050905090565b6000809054906101000a900473ffffffffffffffffffffffffffffffffffffffff1681565b60008060009054906101000a900473ffffffffffffffffffffffffffffffffffffffff16905090565b6060806000809054906101000a900473ffffffffffffffffffffffffffffffffffffffff1673ffffffffffffffffffffffffffffffffffffffff163373ffffffffffffffffffffffffffffffffffffffff16141515610aa357600080fd5b6060600060149054906101000a900461ffff1661ffff16604051908082528060200260200182016040528015610aed57816020015b6060815260200190600190039081610ad85790505b5090506060600060149054906101000a900461ffff1661ffff16604051908082528060200260200182016040528015610b3a57816020015b6060815260200190600190039081610b255790505b50905060606002604051908082528060200260200182016040528015610b6f5781602001602082028038833980820191505090505b509050600060149054906101000a900461ffff1661ffff1660025401816001815181101515610b9a57fe5b90602001906020020181815250505b806001815181101515610bb857fe5b90602001906020020151816000815181101515610bd157fe5b906020019060200201511015610e1a576001816000815181101515610bf257fe5b90602001906020020151815481101515610c0857fe5b90600052602060002090600a02016006018054600181600116156101000203166002900480601f016020809104026020016040519081016040528092919081815260200182805460018160011615610100020316600290048015610cad5780601f10610c8257610100808354040283529160200191610cad565b820191906000526020600020905b815481529060010190602001808311610c9057829003601f168201915b505050505083600254836000815181101515610cc557fe5b9060200190602002015103815181101515610cdc57fe5b906020019060200201819052506001816000815181101515610cfa57fe5b90602001906020020151815481101515610d1057fe5b90600052602060002090600a02016007018054600181600116156101000203166002900480601f016020809104026020016040519081016040528092919081815260200182805460018160011615610100020316600290048015610db55780601f10610d8a57610100808354040283529160200191610db5565b820191906000526020600020905b815481529060010190602001808311610d9857829003601f168201915b505050505082600254836000815181101515610dcd57fe5b9060200190602002015103815181101515610de457fe5b90602001906020020181905250806000815181101515610e0057fe5b906020019060200201805180919060010181525050610ba9565b8282945094505050509091565b6060806000809054906101000a900473ffffffffffffffffffffffffffffffffffffffff1673ffffffffffffffffffffffffffffffffffffffff163373ffffffffffffffffffffffffffffffffffffffff16141515610e8557600080fd5b6060600060149054906101000a900461ffff1661ffff16604051908082528060200260200182016040528015610eca5781602001602082028038833980820191505090505b5090506060600060149054906101000a900461ffff1661ffff16604051908082528060200260200182016040528015610f125781602001602082028038833980820191505090505b50905060606002604051908082528060200260200182016040528015610f475781602001602082028038833980820191505090505b509050600060149054906101000a900461ffff1661ffff1660025401816001815181101515610f7257fe5b90602001906020020181815250505b806001815181101515610f9057fe5b90602001906020020151816000815181101515610fa957fe5b9060200190602002015110156110d9576001816000815181101515610fca57fe5b90602001906020020151815481101515610fe057fe5b90600052602060002090600a020160020160009054906101000a900460ff168360025483600081518110151561101257fe5b906020019060200201510381518110151561102957fe5b9060200190602002019060ff16908160ff1681525050600181600081518110151561105057fe5b9060200190602002015181548110151561106657fe5b90600052602060002090600a0201600301548260025483600081518110151561108b57fe5b90602001906020020151038151811015156110a257fe5b90602001906020020181815250508060008151811015156110bf57fe5b906020019060200201805180919060010181525050610f81565b8282945094505050509091565b6060806000809054906101000a900473ffffffffffffffffffffffffffffffffffffffff1673ffffffffffffffffffffffffffffffffffffffff163373ffffffffffffffffffffffffffffffffffffffff1614151561114457600080fd5b6060600060149054906101000a900461ffff1661ffff166040519080825280602002602001820160405280156111895781602001602082028038833980820191505090505b5090506060600060149054906101000a900461ffff1661ffff166040519080825280602002602001820160405280156111d657816020015b60608152602001906001900390816111c15790505b5090506060600260405190808252806020026020018201604052801561120b5781602001602082028038833980820191505090505b509050600060149054906101000a900461ffff1661ffff166002540181600181518110151561123657fe5b90602001906020020181815250505b80600181518110151561125457fe5b9060200190602002015181600081518110151561126d57fe5b90602001906020020151101561146d57600181600081518110151561128e57fe5b906020019060200201518154811015156112a457fe5b90600052602060002090600a020160040160009054906101000a900473ffffffffffffffffffffffffffffffffffffffff16836002548360008151811015156112e957fe5b906020019060200201510381518110151561130057fe5b9060200190602002019073ffffffffffffffffffffffffffffffffffffffff16908173ffffffffffffffffffffffffffffffffffffffff1681525050600181600081518110151561134d57fe5b9060200190602002015181548110151561136357fe5b90600052602060002090600a02016005018054600181600116156101000203166002900480601f0160208091040260200160405190810160405280929190818152602001828054600181600116156101000203166002900480156114085780601f106113dd57610100808354040283529160200191611408565b820191906000526020600020905b8154815290600101906020018083116113eb57829003601f168201915b50505050508260025483600081518110151561142057fe5b906020019060200201510381518110151561143757fe5b9060200190602002018190525080600081518110151561145357fe5b906020019060200201805180919060010181525050611245565b8282945094505050509091565b6060806000809054906101000a900473ffffffffffffffffffffffffffffffffffffffff1673ffffffffffffffffffffffffffffffffffffffff163373ffffffffffffffffffffffffffffffffffffffff161415156114d857600080fd5b6060600060149054906101000a900461ffff1661ffff1660405190808252806020026020018201604052801561151d5781602001602082028038833980820191505090505b5090506060600060149054906101000a900461ffff1661ffff166040519080825280602002602001820160405280156115655781602001602082028038833980820191505090505b5090506060600260405190808252806020026020018201604052801561159a5781602001602082028038833980820191505090505b509050600060149054906101000a900461ffff1661ffff16600254018160018151811015156115c557fe5b90602001906020020181815250505b8060018151811015156115e357fe5b906020019060200201518160008151811015156115fc57fe5b90602001906020020151101561171757600181600081518110151561161d57fe5b9060200190602002015181548110151561163357fe5b90600052602060002090600a0201600801548360025483600081518110151561165857fe5b906020019060200201510381518110151561166f57fe5b9060200190602002018181525050600181600081518110151561168e57fe5b906020019060200201518154811015156116a457fe5b90600052602060002090600a020160090154826002548360008151811015156116c957fe5b90602001906020020151038151811015156116e057fe5b90602001906020020181815250508060008151811015156116fd57fe5b9060200190602002018051809190600101815250506115d4565b8282945094505050509091565b600080600180549050600060149054906101000a900461ffff16915091509091565b60038054600181600116156101000203166002900480601f0160208091040260200160405190810160405280929190818152602001828054600181600116156101000203166002900480156117dc5780601f106117b1576101008083540402835291602001916117dc565b820191906000526020600020905b8154815290600101906020018083116117bf57829003601f168201915b505050505081565b6000809054906101000a900473ffffffffffffffffffffffffffffffffffffffff1673ffffffffffffffffffffffffffffffffffffffff163373ffffffffffffffffffffffffffffffffffffffff1614151561183f57600080fd5b806000806101000a81548173ffffffffffffffffffffffffffffffffffffffff021916908373ffffffffffffffffffffffffffffffffffffffff16021790555050565b610140604051908101604052806000815260200160008152602001600060ff16815260200160008152602001600073ffffffffffffffffffffffffffffffffffffffff16815260200160608152602001606081526020016060815260200160008152602001600081525090565b828054600181600116156101000203166002900490600052602060002090601f016020900481019282601f1061193057805160ff191683800117855561195e565b8280016001018555821561195e579182015b8281111561195d578251825591602001919060010190611942565b5b50905061196b919061196f565b5090565b61199191905b8082111561198d576000816000905550600101611975565b5090565b90565b60006119a082356120ca565b905092915050565b600082601f83011215156119bb57600080fd5b81356119ce6119c982611f9d565b611f70565b915080825260208301602083018583830111156119ea57600080fd5b6119f5838284612101565b50505092915050565b6000611a0a82356120dc565b905092915050565b6000611a1e82356120ea565b905092915050565b6000611a3282356120f4565b905092915050565b600060208284031215611a4c57600080fd5b6000611a5a84828501611994565b91505092915050565b600060208284031215611a7557600080fd5b6000611a83848285016119fe565b91505092915050565b6000806000806000806000806000806101408b8d031215611aac57600080fd5b6000611aba8d828e01611a12565b9a50506020611acb8d828e01611a12565b9950506040611adc8d828e01611a26565b9850506060611aed8d828e01611a12565b9750506080611afe8d828e01611994565b96505060a08b013567ffffffffffffffff811115611b1b57600080fd5b611b278d828e016119a8565b95505060c08b013567ffffffffffffffff811115611b4457600080fd5b611b508d828e016119a8565b94505060e08b013567ffffffffffffffff811115611b6d57600080fd5b611b798d828e016119a8565b935050610100611b8b8d828e01611a12565b925050610120611b9d8d828e01611a12565b9150509295989b9194979a5092959850565b611bb881612073565b82525050565b6000611bc982611ffd565b808452602084019350611bdb83611fc9565b60005b82811015611c0d57611bf1868351611baf565b611bfa8261203f565b9150602086019550600181019050611bde565b50849250505092915050565b6000611c2482612008565b80845260208401935083602082028501611c3d85611fd6565b60005b84811015611c76578383038852611c58838351611d73565b9250611c638261204c565b9150602088019750600181019050611c40565b508196508694505050505092915050565b6000611c9282612013565b808452602084019350611ca483611fe3565b60005b82811015611cd657611cba868351611db8565b611cc382612059565b9150602086019550600181019050611ca7565b50849250505092915050565b6000611ced8261201e565b808452602084019350611cff83611ff0565b60005b82811015611d3157611d15868351611dc7565b611d1e82612066565b9150602086019550600181019050611d02565b50849250505092915050565b6000611d4882612034565b808452611d5c816020860160208601612110565b611d6581612143565b602085010191505092915050565b6000611d7e82612029565b808452611d92816020860160208601612110565b611d9b81612143565b602085010191505092915050565b611db281612085565b82525050565b611dc1816120b3565b82525050565b611dd0816120bd565b82525050565b6000602082019050611deb6000830184611baf565b92915050565b60006040820190508181036000830152611e0b8185611bbe565b90508181036020830152611e1f8184611c19565b90509392505050565b60006040820190508181036000830152611e428185611c19565b90508181036020830152611e568184611c19565b90509392505050565b60006040820190508181036000830152611e798185611c87565b90508181036020830152611e8d8184611c87565b90509392505050565b60006040820190508181036000830152611eb08185611ce2565b90508181036020830152611ec48184611c87565b90509392505050565b60006020820190508181036000830152611ee78184611d73565b905092915050565b60006020820190508181036000830152611f098184611d3d565b905092915050565b6000602082019050611f266000830184611da9565b92915050565b6000602082019050611f416000830184611db8565b92915050565b6000604082019050611f5c6000830185611db8565b611f696020830184611da9565b9392505050565b6000604051905081810181811067ffffffffffffffff82111715611f9357600080fd5b8060405250919050565b600067ffffffffffffffff821115611fb457600080fd5b601f19601f8301169050602081019050919050565b6000602082019050919050565b6000602082019050919050565b6000602082019050919050565b6000602082019050919050565b600081519050919050565b600081519050919050565b600081519050919050565b600081519050919050565b600081519050919050565b600081519050919050565b6000602082019050919050565b6000602082019050919050565b6000602082019050919050565b6000602082019050919050565b600061207e82612093565b9050919050565b600061ffff82169050919050565b600073ffffffffffffffffffffffffffffffffffffffff82169050919050565b6000819050919050565b600060ff82169050919050565b60006120d582612093565b9050919050565b600061ffff82169050919050565b6000819050919050565b600060ff82169050919050565b82818337600083830152505050565b60005b8381101561212e578082015181840152602081019050612113565b8381111561213d576000848401525b50505050565b6000601f19601f830116905091905056fea265627a7a72305820597298ca5ef6c7f08b46b9fb0346bb1d9a112a0006fe2094753c179bd5a174f66c6578706572696d656e74616cf50037",
  "source": "pragma solidity ^0.5.0;\r\npragma experimental ABIEncoderV2;\r\n\r\ncontract DataControl{\r\n    struct FileInfoSave {\r\n        uint256 number;  //\r\n        uint256 file_number;  //\r\n        uint8 data_type;  //\r\n        uint256 size;  //\r\n        address user;  //\r\n        string period;  //\r\n        string area;  //\r\n        string file_addr;  //\r\n        uint256 file_hash;  //Hash\r\n        uint256 key;  //AES256\r\n    }\r\n\r\n    address public owner = msg.sender;\r\n    uint16 public length = 100;\r\n    FileInfoSave[] private fileInfoSave;\r\n    uint256 private start = 0;\r\n    string public str = 'aa';\r\n\r\n    //\r\n    modifier onlyOwner(){\r\n        require(msg.sender == owner);\r\n        _;\r\n    }\r\n    \r\n    event FileInfoOk(uint16 length);\r\n    \r\n//    modifier only\r\n\r\n    function getaddr() public view returns(address){\r\n        return owner;\r\n    }\r\n\r\n    function getstart() public view returns(uint256){\r\n        return start;\r\n    }\r\n\r\n    function getString() public view returns(string memory) {\r\n        return str;\r\n    }\r\n\r\n    function getLength() public view returns(uint256, uint16) {\r\n        return (fileInfoSave.length, length);\r\n    }\r\n\r\n    //\r\n    function SetLength(uint16 _length) public onlyOwner{\r\n        length = _length;\r\n    }\r\n    \r\n    function ChangeOwner(address _owner) public onlyOwner{\r\n        owner = _owner;\r\n    }\r\n\r\n    function set_file_list(uint256 number, uint256 file_number, uint8 data_type, uint256 size, address user, string memory period, string memory area, string memory file_addr, uint256 file_hash, uint256 key) public{\r\n        FileInfoSave memory data = FileInfoSave({\r\n            number: number,\r\n            file_number: file_number,\r\n            data_type: data_type,\r\n            size: size,\r\n            user: user,\r\n            period: period,\r\n            area: area,\r\n            file_addr: file_addr,\r\n            file_hash: file_hash,\r\n            key: key\r\n        });\r\n        fileInfoSave.push(data);\r\n        if(fileInfoSave.length % length == 0) emit FileInfoOk(length);\r\n    }\r\n\r\n    function get0_1() public view onlyOwner returns(uint256[] memory, uint256[] memory){\r\n        uint256[] memory _number = new uint256[](length);\r\n        uint256[] memory _file_number = new uint256[](length);\r\n        uint256[] memory i = new uint256[](2);\r\n        i[1] = start + length;\r\n        for( ; i[0] < i[1]; i[0]++){\r\n            _number[i[0] - start] = fileInfoSave[i[0]].number;\r\n            _file_number[i[0] - start] = fileInfoSave[i[0]].file_number;\r\n        }\r\n        return (_number, _file_number);\r\n    }\r\n\r\n    function get2_3() public view onlyOwner returns(uint8[] memory, uint256[] memory){\r\n        uint8[] memory _data_type = new uint8[](length);\r\n        uint256[] memory _size = new uint256[](length);\r\n        uint256[] memory i = new uint256[](2);\r\n        i[1] = start + length;\r\n        for( ;i[0] < i[1]; i[0]++){\r\n            _data_type[i[0] - start] = fileInfoSave[i[0]].data_type;\r\n            _size[i[0] - start] = fileInfoSave[i[0]].size;\r\n        }\r\n        return ( _data_type, _size);\r\n    }\r\n\r\n    function get4_5() public view onlyOwner returns( address[] memory, string[] memory){\r\n        address[] memory _user = new address[](length);\r\n        string[] memory _period = new string[](length);\r\n        uint256[] memory i = new uint256[](2);\r\n        i[1] = start + length;\r\n        for( ; i[0] < i[1]; i[0]++){\r\n            _user[i[0] - start] = fileInfoSave[i[0]].user;\r\n            _period[i[0] - start] = fileInfoSave[i[0]].period;\r\n        }\r\n        return (_user, _period);\r\n    }\r\n\r\n    function get6_7() public view onlyOwner returns(string[] memory, string[] memory){\r\n        string[] memory _area = new string[](length);\r\n        string[] memory _file_addr = new string[](length);\r\n        uint256[] memory i = new uint256[](2);\r\n        i[1] = start + length;\r\n        for( ; i[0] < i[1]; i[0]++){\r\n            _area[i[0] - start] = fileInfoSave[i[0]].area;\r\n            _file_addr[i[0] - start] = fileInfoSave[i[0]].file_addr;\r\n        }\r\n        return (_area, _file_addr);\r\n    }\r\n\r\n    function get8_9() public view onlyOwner returns(uint256[] memory, uint256[] memory){\r\n        uint256[] memory _file_hash = new uint256[](length);\r\n        uint256[] memory _key = new uint256[](length);\r\n        uint256[] memory i = new uint256[](2);\r\n        i[1] = start + length;\r\n        for( ; i[0] < i[1]; i[0]++){\r\n            _file_hash[i[0] - start] = fileInfoSave[i[0]].file_hash;\r\n            _key[i[0] - start] = fileInfoSave[i[0]].key;\r\n        }\r\n        return (_file_hash, _key);\r\n    }\r\n\r\n    function set_start() public onlyOwner {\r\n        start = start + length;\r\n    }\r\n}\r\n",
  "sourcePath": "G:/ControlSolidity/contracts/DataControl.sol",
  "compiler": {
    "name": "solc",
    "version": "0.5.0+commit.1d4f565a.Emscripten.clang"
  },
  "schemaVersion": "3.0.5",
  "updatedAt": "2019-04-07T01:43:00.359Z",
  "devdoc": {
    "methods": {}
  },
  "userdoc": {
    "methods": {}
  }
}