{
  "contractName": "ERC20",
  "abi": [
    {
      "constant": true,
      "inputs": [],
      "name": "name",
      "outputs": [
        {
          "name": "",
          "type": "string"
        }
      ],
      "payable": false,
      "stateMutability": "view",
      "type": "function"
    },
    {
      "constant": true,
      "inputs": [],
      "name": "decimals",
      "outputs": [
        {
          "name": "",
          "type": "uint8"
        }
      ],
      "payable": false,
      "stateMutability": "view",
      "type": "function"
    },
    {
      "constant": true,
      "inputs": [],
      "name": "_totalSupply",
      "outputs": [
        {
          "name": "",
          "type": "uint256"
        }
      ],
      "payable": false,
      "stateMutability": "view",
      "type": "function"
    },
    {
      "constant": false,
      "inputs": [],
      "name": "unpause",
      "outputs": [
        {
          "name": "",
          "type": "bool"
        }
      ],
      "payable": false,
      "stateMutability": "nonpayable",
      "type": "function"
    },
    {
      "constant": true,
      "inputs": [],
      "name": "paused",
      "outputs": [
        {
          "name": "",
          "type": "bool"
        }
      ],
      "payable": false,
      "stateMutability": "view",
      "type": "function"
    },
    {
      "constant": true,
      "inputs": [
        {
          "name": "",
          "type": "address"
        }
      ],
      "name": "_balances",
      "outputs": [
        {
          "name": "",
          "type": "uint256"
        }
      ],
      "payable": false,
      "stateMutability": "view",
      "type": "function"
    },
    {
      "constant": false,
      "inputs": [],
      "name": "pause",
      "outputs": [
        {
          "name": "",
          "type": "bool"
        }
      ],
      "payable": false,
      "stateMutability": "nonpayable",
      "type": "function"
    },
    {
      "constant": true,
      "inputs": [],
      "name": "owner",
      "outputs": [
        {
          "name": "",
          "type": "address"
        }
      ],
      "payable": false,
      "stateMutability": "view",
      "type": "function"
    },
    {
      "constant": true,
      "inputs": [],
      "name": "symbol",
      "outputs": [
        {
          "name": "",
          "type": "string"
        }
      ],
      "payable": false,
      "stateMutability": "view",
      "type": "function"
    },
    {
      "constant": false,
      "inputs": [
        {
          "name": "newOwner",
          "type": "address"
        }
      ],
      "name": "transferOwnership",
      "outputs": [],
      "payable": false,
      "stateMutability": "nonpayable",
      "type": "function"
    },
    {
      "inputs": [
        {
          "name": "initialSupply",
          "type": "uint256"
        },
        {
          "name": "tokenName",
          "type": "string"
        },
        {
          "name": "tokenSymbol",
          "type": "string"
        }
      ],
      "payable": false,
      "stateMutability": "nonpayable",
      "type": "constructor"
    },
    {
      "anonymous": false,
      "inputs": [
        {
          "indexed": true,
          "name": "from",
          "type": "address"
        },
        {
          "indexed": true,
          "name": "to",
          "type": "address"
        },
        {
          "indexed": false,
          "name": "value",
          "type": "uint256"
        }
      ],
      "name": "Transfer",
      "type": "event"
    },
    {
      "anonymous": false,
      "inputs": [
        {
          "indexed": true,
          "name": "from",
          "type": "address"
        },
        {
          "indexed": false,
          "name": "value",
          "type": "uint256"
        }
      ],
      "name": "Burn",
      "type": "event"
    },
    {
      "anonymous": false,
      "inputs": [],
      "name": "Pause",
      "type": "event"
    },
    {
      "anonymous": false,
      "inputs": [],
      "name": "Unpause",
      "type": "event"
    },
    {
      "anonymous": false,
      "inputs": [
        {
          "indexed": false,
          "name": "newContract",
          "type": "address"
        }
      ],
      "name": "ContractUpgrade",
      "type": "event"
    },
    {
      "constant": true,
      "inputs": [],
      "name": "totalSupply",
      "outputs": [
        {
          "name": "",
          "type": "uint256"
        }
      ],
      "payable": false,
      "stateMutability": "view",
      "type": "function"
    },
    {
      "constant": true,
      "inputs": [
        {
          "name": "who",
          "type": "address"
        }
      ],
      "name": "balanceOf",
      "outputs": [
        {
          "name": "",
          "type": "uint256"
        }
      ],
      "payable": false,
      "stateMutability": "view",
      "type": "function"
    },
    {
      "constant": true,
      "inputs": [
        {
          "name": "owner",
          "type": "address"
        },
        {
          "name": "spender",
          "type": "address"
        }
      ],
      "name": "allowance",
      "outputs": [
        {
          "name": "",
          "type": "uint256"
        }
      ],
      "payable": false,
      "stateMutability": "view",
      "type": "function"
    },
    {
      "constant": false,
      "inputs": [
        {
          "name": "_to",
          "type": "address"
        },
        {
          "name": "_value",
          "type": "uint256"
        }
      ],
      "name": "transfer",
      "outputs": [
        {
          "name": "",
          "type": "bool"
        }
      ],
      "payable": false,
      "stateMutability": "nonpayable",
      "type": "function"
    },
    {
      "constant": false,
      "inputs": [
        {
          "name": "_from",
          "type": "address"
        },
        {
          "name": "_to",
          "type": "address"
        },
        {
          "name": "_value",
          "type": "uint256"
        }
      ],
      "name": "transferFrom",
      "outputs": [
        {
          "name": "",
          "type": "bool"
        }
      ],
      "payable": false,
      "stateMutability": "nonpayable",
      "type": "function"
    },
    {
      "constant": false,
      "inputs": [
        {
          "name": "_spender",
          "type": "address"
        },
        {
          "name": "_value",
          "type": "uint256"
        }
      ],
      "name": "approve",
      "outputs": [
        {
          "name": "",
          "type": "bool"
        }
      ],
      "payable": false,
      "stateMutability": "nonpayable",
      "type": "function"
    },
    {
      "constant": false,
      "inputs": [
        {
          "name": "_value",
          "type": "uint256"
        }
      ],
      "name": "burn",
      "outputs": [
        {
          "name": "success",
          "type": "bool"
        }
      ],
      "payable": false,
      "stateMutability": "nonpayable",
      "type": "function"
    },
    {
      "constant": false,
      "inputs": [
        {
          "name": "_from",
          "type": "address"
        },
        {
          "name": "_value",
          "type": "uint256"
        }
      ],
      "name": "burnFrom",
      "outputs": [
        {
          "name": "success",
          "type": "bool"
        }
      ],
      "payable": false,
      "stateMutability": "nonpayable",
      "type": "function"
    }
  ],
  "bytecode": "0x608060405260008060146101000a81548160ff0219169083151502179055506012600360006101000a81548160ff021916908360ff1602179055503480156200004757600080fd5b5060405162001a0038038062001a00833981018060405260608110156200006d57600080fd5b810190808051906020019092919080516401000000008111156200009057600080fd5b82810190506020810184811115620000a757600080fd5b8151856001820283011164010000000082111715620000c557600080fd5b50509291906020018051640100000000811115620000e257600080fd5b82810190506020810184811115620000f957600080fd5b81518560018202830111640100000000821117156200011757600080fd5b5050929190505050336000806101000a81548173ffffffffffffffffffffffffffffffffffffffff021916908373ffffffffffffffffffffffffffffffffffffffff160217905550600360009054906101000a900460ff1660ff16600a0a8302600481905550600454600560003073ffffffffffffffffffffffffffffffffffffffff1673ffffffffffffffffffffffffffffffffffffffff168152602001908152602001600020819055508160019080519060200190620001db929190620001fe565b508060029080519060200190620001f4929190620001fe565b50505050620002ad565b828054600181600116156101000203166002900490600052602060002090601f016020900481019282601f106200024157805160ff191683800117855562000272565b8280016001018555821562000272579182015b828111156200027157825182559160200191906001019062000254565b5b50905062000281919062000285565b5090565b620002aa91905b80821115620002a65760008160009055506001016200028c565b5090565b90565b61174380620002bd6000396000f3fe6080604052600436106100fc576000357c0100000000000000000000000000000000000000000000000000000000900463ffffffff16806306fdde0314610101578063095ea7b31461019157806318160ddd1461020457806323b872dd1461022f578063313ce567146102c25780633eaaf86b146102f35780633f4ba83a1461031e57806342966c681461034d5780635c975abb146103a05780636ebcf607146103cf57806370a082311461043457806379cc6790146104995780638456cb591461050c5780638da5cb5b1461053b57806395d89b4114610592578063a9059cbb14610622578063dd62ed3e14610695578063f2fde38b1461071a575b600080fd5b34801561010d57600080fd5b5061011661076b565b6040518080602001828103825283818151815260200191508051906020019080838360005b8381101561015657808201518184015260208101905061013b565b50505050905090810190601f1680156101835780820380516001836020036101000a031916815260200191505b509250505060405180910390f35b34801561019d57600080fd5b506101ea600480360360408110156101b457600080fd5b81019080803573ffffffffffffffffffffffffffffffffffffffff16906020019092919080359060200190929190505050610809565b604051808215151515815260200191505060405180910390f35b34801561021057600080fd5b5061021961092e565b6040518082815260200191505060405180910390f35b34801561023b57600080fd5b506102a86004803603606081101561025257600080fd5b81019080803573ffffffffffffffffffffffffffffffffffffffff169060200190929190803573ffffffffffffffffffffffffffffffffffffffff16906020019092919080359060200190929190505050610938565b604051808215151515815260200191505060405180910390f35b3480156102ce57600080fd5b506102d7610b1e565b604051808260ff1660ff16815260200191505060405180910390f35b3480156102ff57600080fd5b50610308610b31565b6040518082815260200191505060405180910390f35b34801561032a57600080fd5b50610333610b37565b604051808215151515815260200191505060405180910390f35b34801561035957600080fd5b506103866004803603602081101561037057600080fd5b8101908080359060200190929190505050610bfc565b604051808215151515815260200191505060405180910390f35b3480156103ac57600080fd5b506103b5610d77565b604051808215151515815260200191505060405180910390f35b3480156103db57600080fd5b5061041e600480360360208110156103f257600080fd5b81019080803573ffffffffffffffffffffffffffffffffffffffff169060200190929190505050610d8a565b6040518082815260200191505060405180910390f35b34801561044057600080fd5b506104836004803603602081101561045757600080fd5b81019080803573ffffffffffffffffffffffffffffffffffffffff169060200190929190505050610da2565b6040518082815260200191505060405180910390f35b3480156104a557600080fd5b506104f2600480360360408110156104bc57600080fd5b81019080803573ffffffffffffffffffffffffffffffffffffffff16906020019092919080359060200190929190505050610deb565b604051808215151515815260200191505060405180910390f35b34801561051857600080fd5b506105216110be565b604051808215151515815260200191505060405180910390f35b34801561054757600080fd5b50610550611185565b604051808273ffffffffffffffffffffffffffffffffffffffff1673ffffffffffffffffffffffffffffffffffffffff16815260200191505060405180910390f35b34801561059e57600080fd5b506105a76111aa565b6040518080602001828103825283818151815260200191508051906020019080838360005b838110156105e75780820151818401526020810190506105cc565b50505050905090810190601f1680156106145780820380516001836020036101000a031916815260200191505b509250505060405180910390f35b34801561062e57600080fd5b5061067b6004803603604081101561064557600080fd5b81019080803573ffffffffffffffffffffffffffffffffffffffff16906020019092919080359060200190929190505050611248565b604051808215151515815260200191505060405180910390f35b3480156106a157600080fd5b50610704600480360360408110156106b857600080fd5b81019080803573ffffffffffffffffffffffffffffffffffffffff169060200190929190803573ffffffffffffffffffffffffffffffffffffffff169060200190929190505050611289565b6040518082815260200191505060405180910390f35b34801561072657600080fd5b506107696004803603602081101561073d57600080fd5b81019080803573ffffffffffffffffffffffffffffffffffffffff169060200190929190505050611310565b005b60018054600181600116156101000203166002900480601f0160208091040260200160405190810160405280929190818152602001828054600181600116156101000203166002900480156108015780601f106107d657610100808354040283529160200191610801565b820191906000526020600020905b8154815290600101906020018083116107e457829003601f168201915b505050505081565b60008060009054906101000a900473ffffffffffffffffffffffffffffffffffffffff1673ffffffffffffffffffffffffffffffffffffffff163373ffffffffffffffffffffffffffffffffffffffff1614151561086657600080fd5b600060149054906101000a900460ff1615151561088257600080fd5b81600660008060009054906101000a900473ffffffffffffffffffffffffffffffffffffffff1673ffffffffffffffffffffffffffffffffffffffff1673ffffffffffffffffffffffffffffffffffffffff16815260200190815260200160002060008573ffffffffffffffffffffffffffffffffffffffff1673ffffffffffffffffffffffffffffffffffffffff168152602001908152602001600020819055506001905092915050565b6000600454905090565b60008060009054906101000a900473ffffffffffffffffffffffffffffffffffffffff1673ffffffffffffffffffffffffffffffffffffffff163373ffffffffffffffffffffffffffffffffffffffff1614151561099557600080fd5b600060149054906101000a900460ff161515156109b157600080fd5b600660008060009054906101000a900473ffffffffffffffffffffffffffffffffffffffff1673ffffffffffffffffffffffffffffffffffffffff1673ffffffffffffffffffffffffffffffffffffffff16815260200190815260200160002060008573ffffffffffffffffffffffffffffffffffffffff1673ffffffffffffffffffffffffffffffffffffffff168152602001908152602001600020548211151515610a5d57600080fd5b81600660008060009054906101000a900473ffffffffffffffffffffffffffffffffffffffff1673ffffffffffffffffffffffffffffffffffffffff1673ffffffffffffffffffffffffffffffffffffffff16815260200190815260200160002060008673ffffffffffffffffffffffffffffffffffffffff1673ffffffffffffffffffffffffffffffffffffffff16815260200190815260200160002060008282540392505081905550610b138484846113ea565b600190509392505050565b600360009054906101000a900460ff1681565b60045481565b60008060009054906101000a900473ffffffffffffffffffffffffffffffffffffffff1673ffffffffffffffffffffffffffffffffffffffff163373ffffffffffffffffffffffffffffffffffffffff16141515610b9457600080fd5b600060149054906101000a900460ff161515610baf57600080fd5b60008060146101000a81548160ff0219169083151502179055507f7805862f689e2f13df9f062ff482ad3ad112aca9e0847911ed832e158c525b3360405160405180910390a16001905090565b60008060009054906101000a900473ffffffffffffffffffffffffffffffffffffffff1673ffffffffffffffffffffffffffffffffffffffff163373ffffffffffffffffffffffffffffffffffffffff16141515610c5957600080fd5b600060149054906101000a900460ff16151515610c7557600080fd5b81600560003073ffffffffffffffffffffffffffffffffffffffff1673ffffffffffffffffffffffffffffffffffffffff1681526020019081526020016000205410151515610cc357600080fd5b81600560003073ffffffffffffffffffffffffffffffffffffffff1673ffffffffffffffffffffffffffffffffffffffff16815260200190815260200160002060008282540392505081905550816004600082825403925050819055503073ffffffffffffffffffffffffffffffffffffffff167fcc16f5dbb4873280815c1ee09dbd06736cffcc184412cf7a71a0fdb75d397ca5836040518082815260200191505060405180910390a260019050919050565b600060149054906101000a900460ff1681565b60056020528060005260406000206000915090505481565b6000600560008373ffffffffffffffffffffffffffffffffffffffff1673ffffffffffffffffffffffffffffffffffffffff168152602001908152602001600020549050919050565b60008060009054906101000a900473ffffffffffffffffffffffffffffffffffffffff1673ffffffffffffffffffffffffffffffffffffffff163373ffffffffffffffffffffffffffffffffffffffff16141515610e4857600080fd5b600060149054906101000a900460ff16151515610e6457600080fd5b81600560008573ffffffffffffffffffffffffffffffffffffffff1673ffffffffffffffffffffffffffffffffffffffff1681526020019081526020016000205410151515610eb257600080fd5b600660008060009054906101000a900473ffffffffffffffffffffffffffffffffffffffff1673ffffffffffffffffffffffffffffffffffffffff1673ffffffffffffffffffffffffffffffffffffffff16815260200190815260200160002060008473ffffffffffffffffffffffffffffffffffffffff1673ffffffffffffffffffffffffffffffffffffffff168152602001908152602001600020548211151515610f5e57600080fd5b81600560008573ffffffffffffffffffffffffffffffffffffffff1673ffffffffffffffffffffffffffffffffffffffff1681526020019081526020016000206000828254039250508190555081600660008060009054906101000a900473ffffffffffffffffffffffffffffffffffffffff1673ffffffffffffffffffffffffffffffffffffffff1673ffffffffffffffffffffffffffffffffffffffff16815260200190815260200160002060008573ffffffffffffffffffffffffffffffffffffffff1673ffffffffffffffffffffffffffffffffffffffff16815260200190815260200160002060008282540392505081905550816004600082825403925050819055508273ffffffffffffffffffffffffffffffffffffffff167fcc16f5dbb4873280815c1ee09dbd06736cffcc184412cf7a71a0fdb75d397ca5836040518082815260200191505060405180910390a26001905092915050565b60008060009054906101000a900473ffffffffffffffffffffffffffffffffffffffff1673ffffffffffffffffffffffffffffffffffffffff163373ffffffffffffffffffffffffffffffffffffffff1614151561111b57600080fd5b600060149054906101000a900460ff1615151561113757600080fd5b6001600060146101000a81548160ff0219169083151502179055507f6985a02210a168e66602d3235cb6db0e70f92b3ba4d376a33c0f3d9434bff62560405160405180910390a16001905090565b6000809054906101000a900473ffffffffffffffffffffffffffffffffffffffff1681565b60028054600181600116156101000203166002900480601f0160208091040260200160405190810160405280929190818152602001828054600181600116156101000203166002900480156112405780601f1061121557610100808354040283529160200191611240565b820191906000526020600020905b81548152906001019060200180831161122357829003601f168201915b505050505081565b60008060149054906101000a900460ff1615151561126557600080fd5b6044600036905014151561127857600080fd5b6112833384846113ea565b92915050565b6000600660008473ffffffffffffffffffffffffffffffffffffffff1673ffffffffffffffffffffffffffffffffffffffff16815260200190815260200160002060008373ffffffffffffffffffffffffffffffffffffffff1673ffffffffffffffffffffffffffffffffffffffff16815260200190815260200160002054905092915050565b6000809054906101000a900473ffffffffffffffffffffffffffffffffffffffff1673ffffffffffffffffffffffffffffffffffffffff163373ffffffffffffffffffffffffffffffffffffffff1614151561136b57600080fd5b600073ffffffffffffffffffffffffffffffffffffffff168173ffffffffffffffffffffffffffffffffffffffff16141515156113a757600080fd5b806000806101000a81548173ffffffffffffffffffffffffffffffffffffffff021916908373ffffffffffffffffffffffffffffffffffffffff16021790555050565b600073ffffffffffffffffffffffffffffffffffffffff168273ffffffffffffffffffffffffffffffffffffffff161415151561142657600080fd5b80600560008573ffffffffffffffffffffffffffffffffffffffff1673ffffffffffffffffffffffffffffffffffffffff168152602001908152602001600020541015151561147457600080fd5b600560008373ffffffffffffffffffffffffffffffffffffffff1673ffffffffffffffffffffffffffffffffffffffff1681526020019081526020016000205481600560008573ffffffffffffffffffffffffffffffffffffffff1673ffffffffffffffffffffffffffffffffffffffff168152602001908152602001600020540111151561150257600080fd5b6000600560008473ffffffffffffffffffffffffffffffffffffffff1673ffffffffffffffffffffffffffffffffffffffff16815260200190815260200160002054600560008673ffffffffffffffffffffffffffffffffffffffff1673ffffffffffffffffffffffffffffffffffffffff1681526020019081526020016000205401905081600560008673ffffffffffffffffffffffffffffffffffffffff1673ffffffffffffffffffffffffffffffffffffffff1681526020019081526020016000206000828254039250508190555081600560008573ffffffffffffffffffffffffffffffffffffffff1673ffffffffffffffffffffffffffffffffffffffff168152602001908152602001600020600082825401925050819055508273ffffffffffffffffffffffffffffffffffffffff168473ffffffffffffffffffffffffffffffffffffffff167fddf252ad1be2c89b69c2b068fc378daa952ba7f163c4a11628f55a4df523b3ef846040518082815260200191505060405180910390a380600560008573ffffffffffffffffffffffffffffffffffffffff1673ffffffffffffffffffffffffffffffffffffffff16815260200190815260200160002054600560008773ffffffffffffffffffffffffffffffffffffffff1673ffffffffffffffffffffffffffffffffffffffff168152602001908152602001600020540114151561171157fe5b5050505056fea165627a7a72305820ead501c5eb7b51a3faa76a08c32c35874257be0954f1962178e34f05ba548e8a0029",
  "source": "pragma solidity ^0.5.0;\n\ninterface tokenRecipient { function receiveApproval(address _from, uint256 _value, address _token, bytes calldata _extraData ) external; }\n\n\nimport \"./control.sol\";\n\ncontract ERC20 is  control {\n    string public name;\n    string public symbol;\n    uint8 public decimals = 18;  // decimals 可以有的小数点个数，最小的代币单位。18 是建议的默认值\n    uint256 public _totalSupply;\n    // 用mapping保存每个地址对应的余额\n    mapping (address => uint256) public _balances;\n    // 存储对账号的控制\n    // mapping (address => mapping (address => uint256)) public allowance;\n    mapping (address => mapping (address => uint256)) private _allowed;\n    // 事件，用来通知客户端交易发生\n    event Transfer(address indexed from, address indexed to, uint256 value);\n    // 事件，用来通知客户端代币被消费\n    event Burn(address indexed from, uint256 value);\n    /**\n     * 初始化构造\n     */\n    constructor(uint256 initialSupply, string memory tokenName, string memory tokenSymbol) public {\n        _totalSupply = initialSupply * 10 ** uint256(decimals);  // 供应的份额，份额跟最小的代币单位有关，份额 = 币数 * 10 ** decimals。\n        _balances[address(this)] = _totalSupply;                // 创建者拥有所有的代币\n        name = tokenName;                                   // 代币名称\n        symbol = tokenSymbol;                               // 代币符号\n    }\n    \n    //发行代币总量\n    function totalSupply() external view returns (uint256) {\n        return _totalSupply;\n    }\n\n    //查询账户代币余额\n    function balanceOf(address who) external view returns (uint256) {\n        return _balances[who];\n    }\n    \n    //查看账号及允许其可花费的代币数\n    function allowance(address owner, address spender) external view returns (uint256) {\n        return _allowed[owner][spender];\n    }\n    \n    /**\n     * 代币交易转移的内部实现\n     */\n    function _transfer(address _from, address _to, uint _value) internal {\n        // 确保目标地址不为0x0，因为0x0地址代表销毁\n        require(_to != address(0));\n        // 检查发送者余额\n        require(_balances[_from] >= _value);\n        // 确保转移为正数个\n        require(_balances[_to] + _value > _balances[_to]);\n        // 以下用来检查交易，\n        uint previousBalances = _balances[_from] + _balances[_to];\n        // Subtract from the sender\n        _balances[_from] -= _value;\n        // Add the same to the recipient\n        _balances[_to] += _value;\n        emit Transfer(_from, _to, _value);\n        // 用assert来检查代码逻辑。\n        assert(_balances[_from] + _balances[_to] == previousBalances);\n    }\n\n    /**\n     *  代币交易转移\n     * 从创建交易者账号发送`_value`个代币到 `_to`账号\n     *\n     * @param _to 接收者地址\n     * @param _value 转移数额\n     */\n    function transfer(address  _to, uint256 _value) external whenNotPaused returns (bool) {\n        require (msg.data.length==68);            //防止以太坊短地址攻击\n        _transfer(msg.sender, _to, _value);\n    }\n\n    /**\n     * 账号之间代币交易转移\n     * @param _from 发送者地址\n     * @param _to 接收者地址\n     * @param _value 转移数额\n     */\n    function transferFrom(address payable _from, address payable _to, uint256 _value) onlyOwner external whenNotPaused returns (bool) {\n        require(_value <= _allowed[owner][_from]);     // Check allowance\n        // allowance[_from][msg.sender] -= _value;\n        _allowed[owner][_from] -= _value;\n        _transfer(_from, _to, _value);\n        return true;\n    }\n\n    /**\n     * 设置某个地址（合约）可以交易者名义花费的代币数。\n     *\n     * 允许发送者`_spender` 花费不多于 `_value` 个代币\n     *\n     * @param _spender The address authorized to spend\n     * @param _value the max amount they can spend\n     */\n    function approve(address _spender, uint256 _value) onlyOwner external whenNotPaused\n        returns (bool) {\n        // allowance[msg.sender][_spender] = _value;\n        _allowed[owner][_spender] = _value;\n        return true;\n    }\n\n    /**\n     * 销毁合约账户中指定个代币\n     */\n    function burn(uint256 _value) onlyOwner public whenNotPaused returns (bool success) {\n        require(_balances[address(this)] >= _value);   // Check if the sender has enough\n        _balances[address(this)] -= _value;            // Subtract from the sender\n        _totalSupply -= _value;                      // Updates totalSupply\n        emit Burn(address(this), _value);\n        return true;\n    }\n\n    /**\n     * 销毁用户账户中指定个代币\n     *\n     * Remove `_value` tokens from the system irreversibly on behalf of `_from`.\n     *\n     * @param _from the address of the sender\n     * @param _value the amount of money to burn\n     */\n    function burnFrom(address _from, uint256 _value) onlyOwner public whenNotPaused returns (bool success) {\n        require(_balances[_from] >= _value);                // Check if the targeted balance is enough\n        require(_value <= _allowed[owner][_from]);    // Check allowance\n        _balances[_from] -= _value;                         // Subtract from the targeted balance\n        _allowed[owner][_from] -= _value;             // Subtract from the sender's allowance\n        _totalSupply -= _value;                              // Update totalSupply\n        emit Burn(_from, _value);\n        return true;\n    }\n    \n}",
  "sourcePath": "G:\\ControlSolidity\\contracts\\ERC20.sol",
  "compiler": {
    "name": "solc",
    "version": "0.5.0+commit.1d4f565a.Emscripten.clang"
  },
  "schemaVersion": "3.0.5",
  "updatedAt": "2019-04-27T10:11:40.618Z",
  "devdoc": {
    "methods": {
      "approve(address,uint256)": {
        "params": {
          "_spender": "The address authorized to spend",
          "_value": "the max amount they can spend"
        }
      },
      "burnFrom(address,uint256)": {
        "params": {
          "_from": "the address of the sender",
          "_value": "the amount of money to burn"
        }
      },
      "transfer(address,uint256)": {
        "params": {
          "_to": "接收者地址",
          "_value": "转移数额"
        }
      },
      "transferFrom(address,address,uint256)": {
        "params": {
          "_from": "发送者地址",
          "_to": "接收者地址",
          "_value": "转移数额"
        }
      }
    }
  },
  "userdoc": {
    "methods": {
      "approve(address,uint256)": {
        "notice": "设置某个地址（合约）可以交易者名义花费的代币数。     * 允许发送者`_spender` 花费不多于 `_value` 个代币"
      },
      "burn(uint256)": {
        "notice": "销毁合约账户中指定个代币"
      },
      "burnFrom(address,uint256)": {
        "notice": "销毁用户账户中指定个代币     * Remove `_value` tokens from the system irreversibly on behalf of `_from`."
      },
      "constructor": "初始化构造",
      "transfer(address,uint256)": {
        "notice": "代币交易转移 从创建交易者账号发送`_value`个代币到 `_to`账号"
      },
      "transferFrom(address,address,uint256)": {
        "notice": "账号之间代币交易转移"
      }
    }
  }
}