{
  "contractName": "IpControl",
  "abi": [
    {
      "constant": true,
      "inputs": [],
      "name": "owner",
      "outputs": [
        {
          "name": "",
          "type": "address"
        }
      ],
      "payable": false,
      "stateMutability": "view",
      "type": "function",
      "signature": "0x8da5cb5b"
    },
    {
      "anonymous": false,
      "inputs": [
        {
          "indexed": false,
          "name": "length",
          "type": "uint16"
        }
      ],
      "name": "IpIfOk",
      "type": "event",
      "signature": "0x8b42827114392ddf71989b39b1609382adfa90f1bbfeb5fb0cc425e4d9314df1"
    },
    {
      "constant": false,
      "inputs": [
        {
          "name": "_length",
          "type": "uint16"
        }
      ],
      "name": "SetLength",
      "outputs": [],
      "payable": false,
      "stateMutability": "nonpayable",
      "type": "function",
      "signature": "0x1aa03878"
    },
    {
      "constant": false,
      "inputs": [
        {
          "name": "_owner",
          "type": "address"
        }
      ],
      "name": "ChangeOwner",
      "outputs": [],
      "payable": false,
      "stateMutability": "nonpayable",
      "type": "function",
      "signature": "0xf2853292"
    },
    {
      "constant": false,
      "inputs": [
        {
          "name": "number",
          "type": "uint256"
        },
        {
          "name": "ip",
          "type": "string"
        },
        {
          "name": "user",
          "type": "address"
        }
      ],
      "name": "set_ip",
      "outputs": [],
      "payable": false,
      "stateMutability": "nonpayable",
      "type": "function",
      "signature": "0x02561fee"
    },
    {
      "constant": true,
      "inputs": [],
      "name": "getIp",
      "outputs": [
        {
          "name": "",
          "type": "uint256[]"
        },
        {
          "name": "",
          "type": "string[]"
        },
        {
          "name": "",
          "type": "address[]"
        }
      ],
      "payable": false,
      "stateMutability": "view",
      "type": "function",
      "signature": "0xd6f63339"
    },
    {
      "constant": false,
      "inputs": [],
      "name": "set_start",
      "outputs": [],
      "payable": false,
      "stateMutability": "nonpayable",
      "type": "function",
      "signature": "0x873727ee"
    }
  ],
  "bytecode": "0x6080604052336000806101000a81548173ffffffffffffffffffffffffffffffffffffffff021916908373ffffffffffffffffffffffffffffffffffffffff1602179055506064600060146101000a81548161ffff021916908361ffff160217905550600060015534801561007357600080fd5b50610eef806100836000396000f3fe608060405260043610610078576000357c0100000000000000000000000000000000000000000000000000000000900463ffffffff16806302561fee1461007d5780631aa03878146100a6578063873727ee146100cf5780638da5cb5b146100e6578063d6f6333914610111578063f28532921461013e575b600080fd5b34801561008957600080fd5b506100a4600480360361009f9190810190610aab565b610167565b005b3480156100b257600080fd5b506100cd60048036036100c89190810190610a82565b6102bc565b005b3480156100db57600080fd5b506100e4610337565b005b3480156100f257600080fd5b506100fb6103b3565b6040516101089190610c99565b60405180910390f35b34801561011d57600080fd5b506101266103d8565b60405161013593929190610cb4565b60405180910390f35b34801561014a57600080fd5b5061016560048036036101609190810190610a59565b61084c565b005b61016f6108ea565b6060604051908101604052808581526020018481526020018373ffffffffffffffffffffffffffffffffffffffff168152509050600281908060018154018082558091505090600182039060005260206000209060030201600090919290919091506000820151816000015560208201518160010190805190602001906101f7929190610922565b5060408201518160020160006101000a81548173ffffffffffffffffffffffffffffffffffffffff021916908373ffffffffffffffffffffffffffffffffffffffff16021790555050505060008060149054906101000a900461ffff1661ffff1660028054905081151561026757fe5b0614156102b6577f8b42827114392ddf71989b39b1609382adfa90f1bbfeb5fb0cc425e4d9314df1600060149054906101000a900461ffff166040516102ad9190610d00565b60405180910390a15b50505050565b3373ffffffffffffffffffffffffffffffffffffffff166000809054906101000a900473ffffffffffffffffffffffffffffffffffffffff1673ffffffffffffffffffffffffffffffffffffffff1614151561031757600080fd5b80600060146101000a81548161ffff021916908361ffff16021790555050565b3373ffffffffffffffffffffffffffffffffffffffff166000809054906101000a900473ffffffffffffffffffffffffffffffffffffffff1673ffffffffffffffffffffffffffffffffffffffff1614151561039257600080fd5b600060149054906101000a900461ffff1661ffff1660015401600181905550565b6000809054906101000a900473ffffffffffffffffffffffffffffffffffffffff1681565b60608060603373ffffffffffffffffffffffffffffffffffffffff166000809054906101000a900473ffffffffffffffffffffffffffffffffffffffff1673ffffffffffffffffffffffffffffffffffffffff1614151561043857600080fd5b6060600060149054906101000a900461ffff1661ffff1660405190808252806020026020018201604052801561047d5781602001602082028038833980820191505090505b5090506060600060149054906101000a900461ffff1661ffff166040519080825280602002602001820160405280156104ca57816020015b60608152602001906001900390816104b55790505b5090506060600060149054906101000a900461ffff1661ffff166040519080825280602002602001820160405280156105125781602001602082028038833980820191505090505b509050606060026040519080825280602002602001820160405280156105475781602001602082028038833980820191505090505b509050600060149054906101000a900461ffff1661ffff166001540181600181518110151561057257fe5b906020019060200201818152505060015481600081518110151561059257fe5b90602001906020020181815250505b8060018151811015156105b057fe5b906020019060200201518160008151811015156105c957fe5b90602001906020020151101561083a5760028160008151811015156105ea57fe5b9060200190602002015181548110151561060057fe5b9060005260206000209060030201600001548460015483600081518110151561062557fe5b906020019060200201510381518110151561063c57fe5b9060200190602002018181525050600281600081518110151561065b57fe5b9060200190602002015181548110151561067157fe5b90600052602060002090600302016001018054600181600116156101000203166002900480601f0160208091040260200160405190810160405280929190818152602001828054600181600116156101000203166002900480156107165780601f106106eb57610100808354040283529160200191610716565b820191906000526020600020905b8154815290600101906020018083116106f957829003601f168201915b50505050508360015483600081518110151561072e57fe5b906020019060200201510381518110151561074557fe5b90602001906020020181905250600281600081518110151561076357fe5b9060200190602002015181548110151561077957fe5b906000526020600020906003020160020160009054906101000a900473ffffffffffffffffffffffffffffffffffffffff16826001548360008151811015156107be57fe5b90602001906020020151038151811015156107d557fe5b9060200190602002019073ffffffffffffffffffffffffffffffffffffffff16908173ffffffffffffffffffffffffffffffffffffffff168152505080600081518110151561082057fe5b9060200190602002018051809190600101815250506105a1565b83838396509650965050505050909192565b3373ffffffffffffffffffffffffffffffffffffffff166000809054906101000a900473ffffffffffffffffffffffffffffffffffffffff1673ffffffffffffffffffffffffffffffffffffffff161415156108a757600080fd5b806000806101000a81548173ffffffffffffffffffffffffffffffffffffffff021916908373ffffffffffffffffffffffffffffffffffffffff16021790555050565b6060604051908101604052806000815260200160608152602001600073ffffffffffffffffffffffffffffffffffffffff1681525090565b828054600181600116156101000203166002900490600052602060002090601f016020900481019282601f1061096357805160ff1916838001178555610991565b82800160010185558215610991579182015b82811115610990578251825591602001919060010190610975565b5b50905061099e91906109a2565b5090565b6109c491905b808211156109c05760008160009055506001016109a8565b5090565b90565b60006109d38235610e38565b905092915050565b600082601f83011215156109ee57600080fd5b8135610a016109fc82610d48565b610d1b565b91508082526020830160208301858383011115610a1d57600080fd5b610a28838284610e62565b50505092915050565b6000610a3d8235610e4a565b905092915050565b6000610a518235610e58565b905092915050565b600060208284031215610a6b57600080fd5b6000610a79848285016109c7565b91505092915050565b600060208284031215610a9457600080fd5b6000610aa284828501610a31565b91505092915050565b600080600060608486031215610ac057600080fd5b6000610ace86828701610a45565b935050602084013567ffffffffffffffff811115610aeb57600080fd5b610af7868287016109db565b9250506040610b08868287016109c7565b9150509250925092565b610b1b81610dee565b82525050565b6000610b2c82610d9b565b808452602084019350610b3e83610d74565b60005b82811015610b7057610b54868351610b12565b610b5d82610dc7565b9150602086019550600181019050610b41565b50849250505092915050565b6000610b8782610da6565b80845260208401935083602082028501610ba085610d81565b60005b84811015610bd9578383038852610bbb838351610c45565b9250610bc682610dd4565b9150602088019750600181019050610ba3565b508196508694505050505092915050565b6000610bf582610db1565b808452602084019350610c0783610d8e565b60005b82811015610c3957610c1d868351610c8a565b610c2682610de1565b9150602086019550600181019050610c0a565b50849250505092915050565b6000610c5082610dbc565b808452610c64816020860160208601610e71565b610c6d81610ea4565b602085010191505092915050565b610c8481610e00565b82525050565b610c9381610e2e565b82525050565b6000602082019050610cae6000830184610b12565b92915050565b60006060820190508181036000830152610cce8186610bea565b90508181036020830152610ce28185610b7c565b90508181036040830152610cf68184610b21565b9050949350505050565b6000602082019050610d156000830184610c7b565b92915050565b6000604051905081810181811067ffffffffffffffff82111715610d3e57600080fd5b8060405250919050565b600067ffffffffffffffff821115610d5f57600080fd5b601f19601f8301169050602081019050919050565b6000602082019050919050565b6000602082019050919050565b6000602082019050919050565b600081519050919050565b600081519050919050565b600081519050919050565b600081519050919050565b6000602082019050919050565b6000602082019050919050565b6000602082019050919050565b6000610df982610e0e565b9050919050565b600061ffff82169050919050565b600073ffffffffffffffffffffffffffffffffffffffff82169050919050565b6000819050919050565b6000610e4382610e0e565b9050919050565b600061ffff82169050919050565b6000819050919050565b82818337600083830152505050565b60005b83811015610e8f578082015181840152602081019050610e74565b83811115610e9e576000848401525b50505050565b6000601f19601f830116905091905056fea265627a7a72305820e67d46098e869a797cf433b0f80cccb4941adfa7e5e7b04fdb6744db11b2bd486c6578706572696d656e74616cf50037",
  "source": "pragma solidity ^0.5.0;\r\npragma experimental ABIEncoderV2;\r\n\r\ncontract IpControl{\r\n\r\n    struct IpUser {\r\n        uint256 Number;  //设备唯一标识\r\n        string Ip;  //ip位置\r\n        address User;  //用户账户\r\n    }\r\n    address public owner = msg.sender;\r\n    uint16 private length = 100;\r\n    uint256 private start = 0;\r\n    IpUser[] private ip_save;\r\n    event IpIfOk(uint16 length);\r\n\r\n    modifier onlyOwner(){\r\n        require(owner == msg.sender);\r\n        _;\r\n    }\r\n\r\n    function SetLength(uint16 _length) public onlyOwner{\r\n        length = _length;\r\n    }\r\n\r\n    function ChangeOwner(address _owner) public onlyOwner{\r\n        owner = _owner;\r\n    }\r\n\r\n    function set_ip(uint256 number, string memory ip, address user) public{\r\n        IpUser memory _ipUser = IpUser({\r\n            Number: number,\r\n            Ip: ip,\r\n            User: user\r\n        });\r\n        ip_save.push(_ipUser);\r\n        if(ip_save.length % length == 0) emit IpIfOk(length);\r\n    }\r\n\r\n    function getIp() public view onlyOwner returns(uint256[] memory, string[] memory, address[] memory){\r\n        uint256[] memory _number = new uint256[](length);\r\n        string[] memory _ip = new string[](length);\r\n        address[] memory _user = new address[](length);\r\n        uint256[] memory i = new uint256[](2);\r\n        i[1] = start + length;\r\n        for(i[0] = start; i[0] < i[1]; i[0]++){\r\n            _number[i[0] - start] = ip_save[i[0]].Number;\r\n            _ip[i[0] - start] = ip_save[i[0]].Ip;\r\n            _user[i[0] - start] = ip_save[i[0]].User;\r\n        }\r\n        return (_number, _ip, _user);\r\n    }\r\n\r\n    function set_start() public onlyOwner {\r\n        start = start + length;\r\n    }\r\n}\r\n",
  "sourcePath": "G:/ControlSolidity/contracts/IpControl.sol",
  "compiler": {
    "name": "solc",
    "version": "0.5.0+commit.1d4f565a.Emscripten.clang"
  },
  "schemaVersion": "3.0.5",
  "updatedAt": "2019-04-08T08:42:50.307Z",
  "devdoc": {
    "methods": {}
  },
  "userdoc": {
    "methods": {}
  }
}