{
  "contractName": "IpControl",
  "abi": [
    {
      "constant": true,
      "inputs": [],
      "name": "owner",
      "outputs": [
        {
          "name": "",
          "type": "address"
        }
      ],
      "payable": false,
      "stateMutability": "view",
      "type": "function"
    },
    {
      "anonymous": false,
      "inputs": [
        {
          "indexed": false,
          "name": "length",
          "type": "uint16"
        }
      ],
      "name": "IpIfOk",
      "type": "event"
    },
    {
      "constant": false,
      "inputs": [
        {
          "name": "_length",
          "type": "uint16"
        }
      ],
      "name": "SetLength",
      "outputs": [],
      "payable": false,
      "stateMutability": "nonpayable",
      "type": "function"
    },
    {
      "constant": false,
      "inputs": [
        {
          "name": "_owner",
          "type": "address"
        }
      ],
      "name": "ChangeOwner",
      "outputs": [],
      "payable": false,
      "stateMutability": "nonpayable",
      "type": "function"
    },
    {
      "constant": false,
      "inputs": [
        {
          "name": "number",
          "type": "uint256"
        },
        {
          "name": "ip",
          "type": "string"
        },
        {
          "name": "user",
          "type": "address"
        },
        {
          "name": "area",
          "type": "string"
        }
      ],
      "name": "set_ip",
      "outputs": [],
      "payable": false,
      "stateMutability": "nonpayable",
      "type": "function"
    },
    {
      "constant": true,
      "inputs": [],
      "name": "getIp",
      "outputs": [
        {
          "name": "",
          "type": "uint256[]"
        },
        {
          "name": "",
          "type": "string[]"
        },
        {
          "name": "",
          "type": "address[]"
        },
        {
          "name": "",
          "type": "string[]"
        }
      ],
      "payable": false,
      "stateMutability": "view",
      "type": "function"
    },
    {
      "constant": false,
      "inputs": [],
      "name": "set_start",
      "outputs": [],
      "payable": false,
      "stateMutability": "nonpayable",
      "type": "function"
    }
  ],
  "bytecode": "0x60806040526000805433600160a060020a03199091161760a060020a61ffff0219167464000000000000000000000000000000000000000017815560015534801561004957600080fd5b50610e55806100596000396000f3fe6080604052600436106100775763ffffffff7c01000000000000000000000000000000000000000000000000000000006000350416631aa03878811461007c578063873727ee1461009e5780638da5cb5b146100b3578063bcb8dd1b146100de578063d6f63339146100fe578063f285329214610123575b600080fd5b34801561008857600080fd5b5061009c610097366004610ac8565b610143565b005b3480156100aa57600080fd5b5061009c6101b4565b3480156100bf57600080fd5b506100c8610203565b6040516100d59190610cd8565b60405180910390f35b3480156100ea57600080fd5b5061009c6100f9366004610ae6565b61021f565b34801561010a57600080fd5b506101136103bd565b6040516100d59493929190610cec565b34801561012f57600080fd5b5061009c61013e366004610aa2565b6108e9565b60005473ffffffffffffffffffffffffffffffffffffffff16331461016757600080fd5b6000805461ffff90921674010000000000000000000000000000000000000000027fffffffffffffffffffff0000ffffffffffffffffffffffffffffffffffffffff909216919091179055565b60005473ffffffffffffffffffffffffffffffffffffffff1633146101d857600080fd5b600054600180547401000000000000000000000000000000000000000090920461ffff169091019055565b60005473ffffffffffffffffffffffffffffffffffffffff1681565b610227610949565b5060408051608081018252858152602080820186815273ffffffffffffffffffffffffffffffffffffffff86169383019390935260608201849052600280546001810180835560009290925283517f405787fa12a823e0f2b7631cc41b3ba8828b3321ca811111fa75cd3aa3bb5ace6004909202918201908155945180519495929486946102d9937f405787fa12a823e0f2b7631cc41b3ba8828b3321ca811111fa75cd3aa3bb5acf01920190610988565b50604082015160028201805473ffffffffffffffffffffffffffffffffffffffff191673ffffffffffffffffffffffffffffffffffffffff90921691909117905560608201518051610335916003840191602090910190610988565b50506000546002547401000000000000000000000000000000000000000090910461ffff169250905081151561036757fe5b0615156103b6577f8b42827114392ddf71989b39b1609382adfa90f1bbfeb5fb0cc425e4d9314df1600060149054906101000a900461ffff166040516103ad9190610d43565b60405180910390a15b5050505050565b60005460609081908190819073ffffffffffffffffffffffffffffffffffffffff1633146103ea57600080fd5b6060600060149054906101000a900461ffff1661ffff1660405190808252806020026020018201604052801561042a578160200160208202803883390190505b5090506060600060149054906101000a900461ffff1661ffff1660405190808252806020026020018201604052801561047757816020015b60608152602001906001900390816104625790505b5090506060600060149054906101000a900461ffff1661ffff166040519080825280602002602001820160405280156104ba578160200160208202803883390190505b5090506060600060149054906101000a900461ffff1661ffff1660405190808252806020026020018201604052801561050757816020015b60608152602001906001900390816104f25790505b50604080516002808252606080830184529394509091602083019080388339019050509050600060149054906101000a900461ffff1661ffff166001540181600181518110151561055457fe5b6020908102909101015260015481518290600090811061057057fe5b602090810290910101525b80600181518110151561058a57fe5b906020019060200201518160008151811015156105a357fe5b9060200190602002015110156108da5760028160008151811015156105c457fe5b60209081029091010151815481106105d857fe5b906000526020600020906004020160000154856001548360008151811015156105fd57fe5b906020019060200201510381518110151561061457fe5b6020908102909101015280516002908290600090811061063057fe5b602090810290910101518154811061064457fe5b90600052602060002090600402016001018054600181600116156101000203166002900480601f0160208091040260200160405190810160405280929190818152602001828054600181600116156101000203166002900480156106e95780601f106106be576101008083540402835291602001916106e9565b820191906000526020600020905b8154815290600101906020018083116106cc57829003601f168201915b50505050508460015483600081518110151561070157fe5b906020019060200201510381518110151561071857fe5b6020908102909101015280516002908290600090811061073457fe5b602090810290910101518154811061074857fe5b60009182526020822060026004909202010154600154835173ffffffffffffffffffffffffffffffffffffffff909216928692859190811061078657fe5b906020019060200201510381518110151561079d57fe5b73ffffffffffffffffffffffffffffffffffffffff9092166020928302909101909101528051600290829060009081106107d357fe5b60209081029091010151815481106107e757fe5b6000918252602091829020600360049092020101805460408051601f600260001961010060018716150201909416939093049283018590048502810185019091528181529283018282801561087d5780601f106108525761010080835404028352916020019161087d565b820191906000526020600020905b81548152906001019060200180831161086057829003601f168201915b50505050508260015483600081518110151561089557fe5b90602001906020020151038151811015156108ac57fe5b602090810290910101528051819060009081106108c557fe5b6020908102909101018051600101905261057b565b50929791965094509092509050565b60005473ffffffffffffffffffffffffffffffffffffffff16331461090d57600080fd5b6000805473ffffffffffffffffffffffffffffffffffffffff191673ffffffffffffffffffffffffffffffffffffffff92909216919091179055565b6080604051908101604052806000815260200160608152602001600073ffffffffffffffffffffffffffffffffffffffff168152602001606081525090565b828054600181600116156101000203166002900490600052602060002090601f016020900481019282601f106109c957805160ff19168380011785556109f6565b828001600101855582156109f6579182015b828111156109f65782518255916020019190600101906109db565b50610a02929150610a06565b5090565b610a2091905b80821115610a025760008155600101610a0c565b90565b6000610a2f8235610daa565b9392505050565b6000601f82018313610a4757600080fd5b8135610a5a610a5582610d78565b610d51565b91508082526020830160208301858383011115610a7657600080fd5b610a81838284610dd5565b50505092915050565b6000610a2f8235610db5565b6000610a2f8235610a20565b600060208284031215610ab457600080fd5b6000610ac08484610a23565b949350505050565b600060208284031215610ada57600080fd5b6000610ac08484610a8a565b60008060008060808587031215610afc57600080fd5b6000610b088787610a96565b945050602085013567ffffffffffffffff811115610b2557600080fd5b610b3187828801610a36565b9350506040610b4287828801610a23565b925050606085013567ffffffffffffffff811115610b5f57600080fd5b610b6b87828801610a36565b91505092959194509250565b610b8081610daa565b82525050565b6000610b9182610da6565b808452602084019350610ba383610da0565b60005b82811015610bd357610bb9868351610b77565b610bc282610da0565b602096909601959150600101610ba6565b5093949350505050565b6000610be882610da6565b80845260208401935083602082028501610c0185610da0565b60005b84811015610c38578383038852610c1c838351610c91565b9250610c2782610da0565b602098909801979150600101610c04565b50909695505050505050565b6000610c4f82610da6565b808452602084019350610c6183610da0565b60005b82811015610bd357610c77868351610ccf565b610c8082610da0565b602096909601959150600101610c64565b6000610c9c82610da6565b808452610cb0816020860160208601610de1565b610cb981610e11565b9093016020019392505050565b610b8081610db5565b610b8081610a20565b60208101610ce68284610b77565b92915050565b60808082528101610cfd8187610c44565b90508181036020830152610d118186610bdd565b90508181036040830152610d258185610b86565b90508181036060830152610d398184610bdd565b9695505050505050565b60208101610ce68284610cc6565b60405181810167ffffffffffffffff81118282101715610d7057600080fd5b604052919050565b600067ffffffffffffffff821115610d8f57600080fd5b506020601f91909101601f19160190565b60200190565b5190565b6000610ce682610dbc565b61ffff1690565b73ffffffffffffffffffffffffffffffffffffffff1690565b82818337506000910152565b60005b83811015610dfc578181015183820152602001610de4565b83811115610e0b576000848401525b50505050565b601f01601f19169056fea265627a7a72305820f749c777105489d28b4769b76bc2ca2e3b14a31155500268c9a10613c57675986c6578706572696d656e74616cf50037",
  "source": "pragma solidity ^0.5.0;\r\npragma experimental ABIEncoderV2;\r\n\r\ncontract IpControl{\r\n\r\n    struct IpUser {\r\n        uint256 Number;  //设备唯一标识\r\n        string Ip;  //ip位置\r\n        address User;  //用户账户\r\n        string Area;  //地区\r\n    }\r\n    address public owner = msg.sender;\r\n    uint16 private length = 100;\r\n    uint256 private start = 0;\r\n    IpUser[] private ip_save;\r\n    event IpIfOk(uint16 length);\r\n\r\n    modifier onlyOwner(){\r\n        require(owner == msg.sender);\r\n        _;\r\n    }\r\n\r\n    function SetLength(uint16 _length) public onlyOwner{\r\n        length = _length;\r\n    }\r\n\r\n    function ChangeOwner(address _owner) public onlyOwner{\r\n        owner = _owner;\r\n    }\r\n\r\n    function set_ip(uint256 number, string memory ip, address user, string memory area) public{\r\n        IpUser memory _ipUser = IpUser({\r\n            Number: number,\r\n            Ip: ip,\r\n            User: user,\r\n            Area: area\r\n        });\r\n        ip_save.push(_ipUser);\r\n        if(ip_save.length % length == 0) emit IpIfOk(length);\r\n    }\r\n\r\n    function getIp() external view onlyOwner returns(uint256[] memory, string[] memory, address[] memory, string[] memory){\r\n        uint256[] memory _number = new uint256[](length);\r\n        string[] memory _ip = new string[](length);\r\n        address[] memory _user = new address[](length);\r\n        string[] memory _area = new string[](length);\r\n        uint256[] memory i = new uint256[](2);\r\n        i[1] = start + length;\r\n        for(i[0] = start; i[0] < i[1]; i[0]++){\r\n            _number[i[0] - start] = ip_save[i[0]].Number;\r\n            _ip[i[0] - start] = ip_save[i[0]].Ip;\r\n            _user[i[0] - start] = ip_save[i[0]].User;\r\n            _area[i[0] - start] = ip_save[i[0]].Area;\r\n        }\r\n        return (_number, _ip, _user, _area);\r\n    }\r\n\r\n    function set_start() public onlyOwner {\r\n        start = start + length;\r\n    }\r\n}\r\n",
  "sourcePath": "G:/ControlSolidity/contracts/IpControl.sol",
  "compiler": {
    "name": "solc",
    "version": "0.5.0+commit.1d4f565a.Emscripten.clang"
  },
  "schemaVersion": "3.0.5",
  "updatedAt": "2019-05-02T08:54:38.090Z",
  "devdoc": {
    "methods": {}
  },
  "userdoc": {
    "methods": {}
  }
}