{
  "contractName": "IpControl",
  "abi": [
    {
      "constant": true,
      "inputs": [],
      "name": "owner",
      "outputs": [
        {
          "name": "",
          "type": "address"
        }
      ],
      "payable": false,
      "stateMutability": "view",
      "type": "function",
      "signature": "0x8da5cb5b"
    },
    {
      "anonymous": false,
      "inputs": [
        {
          "indexed": false,
          "name": "length",
          "type": "uint16"
        }
      ],
      "name": "IpIfOk",
      "type": "event",
      "signature": "0x8b42827114392ddf71989b39b1609382adfa90f1bbfeb5fb0cc425e4d9314df1"
    },
    {
      "constant": false,
      "inputs": [
        {
          "name": "_length",
          "type": "uint16"
        }
      ],
      "name": "SetLength",
      "outputs": [],
      "payable": false,
      "stateMutability": "nonpayable",
      "type": "function",
      "signature": "0x1aa03878"
    },
    {
      "constant": false,
      "inputs": [
        {
          "name": "_owner",
          "type": "address"
        }
      ],
      "name": "ChangeOwner",
      "outputs": [],
      "payable": false,
      "stateMutability": "nonpayable",
      "type": "function",
      "signature": "0xf2853292"
    },
    {
      "constant": false,
      "inputs": [
        {
          "name": "number",
          "type": "uint256"
        },
        {
          "name": "ip",
          "type": "string"
        },
        {
          "name": "user",
          "type": "address"
        },
        {
          "name": "area",
          "type": "string"
        }
      ],
      "name": "set_ip",
      "outputs": [],
      "payable": false,
      "stateMutability": "nonpayable",
      "type": "function",
      "signature": "0xbcb8dd1b"
    },
    {
      "constant": true,
      "inputs": [],
      "name": "getIp",
      "outputs": [
        {
          "name": "",
          "type": "uint256[]"
        },
        {
          "name": "",
          "type": "string[]"
        },
        {
          "name": "",
          "type": "address[]"
        },
        {
          "name": "",
          "type": "string[]"
        }
      ],
      "payable": false,
      "stateMutability": "view",
      "type": "function",
      "signature": "0xd6f63339"
    },
    {
      "constant": false,
      "inputs": [],
      "name": "set_start",
      "outputs": [],
      "payable": false,
      "stateMutability": "nonpayable",
      "type": "function",
      "signature": "0x873727ee"
    }
  ],
  "bytecode": "0x6080604052336000806101000a81548173ffffffffffffffffffffffffffffffffffffffff021916908373ffffffffffffffffffffffffffffffffffffffff1602179055506064600060146101000a81548161ffff021916908361ffff160217905550600060015534801561007357600080fd5b506110b7806100836000396000f3fe608060405260043610610078576000357c0100000000000000000000000000000000000000000000000000000000900463ffffffff1680631aa038781461007d578063873727ee146100a65780638da5cb5b146100bd578063bcb8dd1b146100e8578063d6f6333914610111578063f28532921461013f575b600080fd5b34801561008957600080fd5b506100a4600480360361009f9190810190610c09565b610168565b005b3480156100b257600080fd5b506100bb6101e3565b005b3480156100c957600080fd5b506100d261025f565b6040516100df9190610e4c565b60405180910390f35b3480156100f457600080fd5b5061010f600480360361010a9190810190610c32565b610284565b005b34801561011d57600080fd5b506101266103fd565b6040516101369493929190610e67565b60405180910390f35b34801561014b57600080fd5b5061016660048036036101619190810190610be0565b6109cc565b005b3373ffffffffffffffffffffffffffffffffffffffff166000809054906101000a900473ffffffffffffffffffffffffffffffffffffffff1673ffffffffffffffffffffffffffffffffffffffff161415156101c357600080fd5b80600060146101000a81548161ffff021916908361ffff16021790555050565b3373ffffffffffffffffffffffffffffffffffffffff166000809054906101000a900473ffffffffffffffffffffffffffffffffffffffff1673ffffffffffffffffffffffffffffffffffffffff1614151561023e57600080fd5b600060149054906101000a900461ffff1661ffff1660015401600181905550565b6000809054906101000a900473ffffffffffffffffffffffffffffffffffffffff1681565b61028c610a6a565b6080604051908101604052808681526020018581526020018473ffffffffffffffffffffffffffffffffffffffff1681526020018381525090506002819080600181540180825580915050906001820390600052602060002090600402016000909192909190915060008201518160000155602082015181600101908051906020019061031a929190610aa9565b5060408201518160020160006101000a81548173ffffffffffffffffffffffffffffffffffffffff021916908373ffffffffffffffffffffffffffffffffffffffff160217905550606082015181600301908051906020019061037e929190610aa9565b5050505060008060149054906101000a900461ffff1661ffff166002805490508115156103a757fe5b0614156103f6577f8b42827114392ddf71989b39b1609382adfa90f1bbfeb5fb0cc425e4d9314df1600060149054906101000a900461ffff166040516103ed9190610ec8565b60405180910390a15b5050505050565b6060806060803373ffffffffffffffffffffffffffffffffffffffff166000809054906101000a900473ffffffffffffffffffffffffffffffffffffffff1673ffffffffffffffffffffffffffffffffffffffff1614151561045e57600080fd5b6060600060149054906101000a900461ffff1661ffff166040519080825280602002602001820160405280156104a35781602001602082028038833980820191505090505b5090506060600060149054906101000a900461ffff1661ffff166040519080825280602002602001820160405280156104f057816020015b60608152602001906001900390816104db5790505b5090506060600060149054906101000a900461ffff1661ffff166040519080825280602002602001820160405280156105385781602001602082028038833980820191505090505b5090506060600060149054906101000a900461ffff1661ffff1660405190808252806020026020018201604052801561058557816020015b60608152602001906001900390816105705790505b509050606060026040519080825280602002602001820160405280156105ba5781602001602082028038833980820191505090505b509050600060149054906101000a900461ffff1661ffff16600154018160018151811015156105e557fe5b906020019060200201818152505060015481600081518110151561060557fe5b90602001906020020181815250505b80600181518110151561062357fe5b9060200190602002015181600081518110151561063c57fe5b9060200190602002015110156109b557600281600081518110151561065d57fe5b9060200190602002015181548110151561067357fe5b9060005260206000209060040201600001548560015483600081518110151561069857fe5b90602001906020020151038151811015156106af57fe5b906020019060200201818152505060028160008151811015156106ce57fe5b906020019060200201518154811015156106e457fe5b90600052602060002090600402016001018054600181600116156101000203166002900480601f0160208091040260200160405190810160405280929190818152602001828054600181600116156101000203166002900480156107895780601f1061075e57610100808354040283529160200191610789565b820191906000526020600020905b81548152906001019060200180831161076c57829003601f168201915b5050505050846001548360008151811015156107a157fe5b90602001906020020151038151811015156107b857fe5b9060200190602002018190525060028160008151811015156107d657fe5b906020019060200201518154811015156107ec57fe5b906000526020600020906004020160020160009054906101000a900473ffffffffffffffffffffffffffffffffffffffff168360015483600081518110151561083157fe5b906020019060200201510381518110151561084857fe5b9060200190602002019073ffffffffffffffffffffffffffffffffffffffff16908173ffffffffffffffffffffffffffffffffffffffff1681525050600281600081518110151561089557fe5b906020019060200201518154811015156108ab57fe5b90600052602060002090600402016003018054600181600116156101000203166002900480601f0160208091040260200160405190810160405280929190818152602001828054600181600116156101000203166002900480156109505780601f1061092557610100808354040283529160200191610950565b820191906000526020600020905b81548152906001019060200180831161093357829003601f168201915b50505050508260015483600081518110151561096857fe5b906020019060200201510381518110151561097f57fe5b9060200190602002018190525080600081518110151561099b57fe5b906020019060200201805180919060010181525050610614565b848484849850985098509850505050505090919293565b3373ffffffffffffffffffffffffffffffffffffffff166000809054906101000a900473ffffffffffffffffffffffffffffffffffffffff1673ffffffffffffffffffffffffffffffffffffffff16141515610a2757600080fd5b806000806101000a81548173ffffffffffffffffffffffffffffffffffffffff021916908373ffffffffffffffffffffffffffffffffffffffff16021790555050565b6080604051908101604052806000815260200160608152602001600073ffffffffffffffffffffffffffffffffffffffff168152602001606081525090565b828054600181600116156101000203166002900490600052602060002090601f016020900481019282601f10610aea57805160ff1916838001178555610b18565b82800160010185558215610b18579182015b82811115610b17578251825591602001919060010190610afc565b5b509050610b259190610b29565b5090565b610b4b91905b80821115610b47576000816000905550600101610b2f565b5090565b90565b6000610b5a8235611000565b905092915050565b600082601f8301121515610b7557600080fd5b8135610b88610b8382610f10565b610ee3565b91508082526020830160208301858383011115610ba457600080fd5b610baf83828461102a565b50505092915050565b6000610bc48235611012565b905092915050565b6000610bd88235611020565b905092915050565b600060208284031215610bf257600080fd5b6000610c0084828501610b4e565b91505092915050565b600060208284031215610c1b57600080fd5b6000610c2984828501610bb8565b91505092915050565b60008060008060808587031215610c4857600080fd5b6000610c5687828801610bcc565b945050602085013567ffffffffffffffff811115610c7357600080fd5b610c7f87828801610b62565b9350506040610c9087828801610b4e565b925050606085013567ffffffffffffffff811115610cad57600080fd5b610cb987828801610b62565b91505092959194509250565b610cce81610fb6565b82525050565b6000610cdf82610f63565b808452602084019350610cf183610f3c565b60005b82811015610d2357610d07868351610cc5565b610d1082610f8f565b9150602086019550600181019050610cf4565b50849250505092915050565b6000610d3a82610f6e565b80845260208401935083602082028501610d5385610f49565b60005b84811015610d8c578383038852610d6e838351610df8565b9250610d7982610f9c565b9150602088019750600181019050610d56565b508196508694505050505092915050565b6000610da882610f79565b808452602084019350610dba83610f56565b60005b82811015610dec57610dd0868351610e3d565b610dd982610fa9565b9150602086019550600181019050610dbd565b50849250505092915050565b6000610e0382610f84565b808452610e17816020860160208601611039565b610e208161106c565b602085010191505092915050565b610e3781610fc8565b82525050565b610e4681610ff6565b82525050565b6000602082019050610e616000830184610cc5565b92915050565b60006080820190508181036000830152610e818187610d9d565b90508181036020830152610e958186610d2f565b90508181036040830152610ea98185610cd4565b90508181036060830152610ebd8184610d2f565b905095945050505050565b6000602082019050610edd6000830184610e2e565b92915050565b6000604051905081810181811067ffffffffffffffff82111715610f0657600080fd5b8060405250919050565b600067ffffffffffffffff821115610f2757600080fd5b601f19601f8301169050602081019050919050565b6000602082019050919050565b6000602082019050919050565b6000602082019050919050565b600081519050919050565b600081519050919050565b600081519050919050565b600081519050919050565b6000602082019050919050565b6000602082019050919050565b6000602082019050919050565b6000610fc182610fd6565b9050919050565b600061ffff82169050919050565b600073ffffffffffffffffffffffffffffffffffffffff82169050919050565b6000819050919050565b600061100b82610fd6565b9050919050565b600061ffff82169050919050565b6000819050919050565b82818337600083830152505050565b60005b8381101561105757808201518184015260208101905061103c565b83811115611066576000848401525b50505050565b6000601f19601f830116905091905056fea265627a7a72305820735092ee9cf6b9e67fe2d56237a3ed9720185d99242e5598bc56cc33f24dbf846c6578706572696d656e74616cf50037",
  "source": "pragma solidity ^0.5.0;\r\npragma experimental ABIEncoderV2;\r\n\r\ncontract IpControl{\r\n\r\n    struct IpUser {\r\n        uint256 Number;  //设备唯一标识\r\n        string Ip;  //ip位置\r\n        address User;  //用户账户\r\n        string Area;  //地区\r\n    }\r\n    address public owner = msg.sender;\r\n    uint16 private length = 100;\r\n    uint256 private start = 0;\r\n    IpUser[] private ip_save;\r\n    event IpIfOk(uint16 length);\r\n\r\n    modifier onlyOwner(){\r\n        require(owner == msg.sender);\r\n        _;\r\n    }\r\n\r\n    function SetLength(uint16 _length) public onlyOwner{\r\n        length = _length;\r\n    }\r\n\r\n    function ChangeOwner(address _owner) public onlyOwner{\r\n        owner = _owner;\r\n    }\r\n\r\n    function set_ip(uint256 number, string memory ip, address user, string memory area) public{\r\n        IpUser memory _ipUser = IpUser({\r\n            Number: number,\r\n            Ip: ip,\r\n            User: user,\r\n            Area: area\r\n        });\r\n        ip_save.push(_ipUser);\r\n        if(ip_save.length % length == 0) emit IpIfOk(length);\r\n    }\r\n\r\n    function getIp() external view onlyOwner returns(uint256[] memory, string[] memory, address[] memory, string[] memory){\r\n        uint256[] memory _number = new uint256[](length);\r\n        string[] memory _ip = new string[](length);\r\n        address[] memory _user = new address[](length);\r\n        string[] memory _area = new string[](length);\r\n        uint256[] memory i = new uint256[](2);\r\n        i[1] = start + length;\r\n        for(i[0] = start; i[0] < i[1]; i[0]++){\r\n            _number[i[0] - start] = ip_save[i[0]].Number;\r\n            _ip[i[0] - start] = ip_save[i[0]].Ip;\r\n            _user[i[0] - start] = ip_save[i[0]].User;\r\n            _area[i[0] - start] = ip_save[i[0]].Area;\r\n        }\r\n        return (_number, _ip, _user, _area);\r\n    }\r\n\r\n    function set_start() public onlyOwner {\r\n        start = start + length;\r\n    }\r\n}\r\n",
  "sourcePath": "G:/ControlSolidity/contracts/IpControl.sol",
  "compiler": {
    "name": "solc",
    "version": "0.5.0+commit.1d4f565a.Emscripten.clang"
  },
  "schemaVersion": "3.0.5",
  "updatedAt": "2019-04-20T06:35:24.343Z",
  "devdoc": {
    "methods": {}
  },
  "userdoc": {
    "methods": {}
  }
}