{
  "contractName": "MyAdvancedToken",
  "abi": [
    {
      "constant": true,
      "inputs": [],
      "name": "rechargePrice",
      "outputs": [
        {
          "name": "",
          "type": "uint256"
        }
      ],
      "payable": false,
      "stateMutability": "view",
      "type": "function"
    },
    {
      "constant": true,
      "inputs": [],
      "name": "name",
      "outputs": [
        {
          "name": "",
          "type": "string"
        }
      ],
      "payable": false,
      "stateMutability": "view",
      "type": "function"
    },
    {
      "constant": false,
      "inputs": [
        {
          "name": "_spender",
          "type": "address"
        },
        {
          "name": "_value",
          "type": "uint256"
        }
      ],
      "name": "approve",
      "outputs": [
        {
          "name": "",
          "type": "bool"
        }
      ],
      "payable": false,
      "stateMutability": "nonpayable",
      "type": "function"
    },
    {
      "constant": true,
      "inputs": [],
      "name": "totalSupply",
      "outputs": [
        {
          "name": "",
          "type": "uint256"
        }
      ],
      "payable": false,
      "stateMutability": "view",
      "type": "function"
    },
    {
      "constant": false,
      "inputs": [
        {
          "name": "_from",
          "type": "address"
        },
        {
          "name": "_to",
          "type": "address"
        },
        {
          "name": "_value",
          "type": "uint256"
        }
      ],
      "name": "transferFrom",
      "outputs": [
        {
          "name": "",
          "type": "bool"
        }
      ],
      "payable": false,
      "stateMutability": "nonpayable",
      "type": "function"
    },
    {
      "constant": true,
      "inputs": [],
      "name": "decimals",
      "outputs": [
        {
          "name": "",
          "type": "uint8"
        }
      ],
      "payable": false,
      "stateMutability": "view",
      "type": "function"
    },
    {
      "constant": true,
      "inputs": [],
      "name": "initialSupply",
      "outputs": [
        {
          "name": "",
          "type": "uint256"
        }
      ],
      "payable": false,
      "stateMutability": "view",
      "type": "function"
    },
    {
      "constant": true,
      "inputs": [],
      "name": "_totalSupply",
      "outputs": [
        {
          "name": "",
          "type": "uint256"
        }
      ],
      "payable": false,
      "stateMutability": "view",
      "type": "function"
    },
    {
      "constant": false,
      "inputs": [],
      "name": "unpause",
      "outputs": [
        {
          "name": "",
          "type": "bool"
        }
      ],
      "payable": false,
      "stateMutability": "nonpayable",
      "type": "function"
    },
    {
      "constant": false,
      "inputs": [
        {
          "name": "_value",
          "type": "uint256"
        }
      ],
      "name": "burn",
      "outputs": [
        {
          "name": "success",
          "type": "bool"
        }
      ],
      "payable": false,
      "stateMutability": "nonpayable",
      "type": "function"
    },
    {
      "constant": true,
      "inputs": [],
      "name": "paused",
      "outputs": [
        {
          "name": "",
          "type": "bool"
        }
      ],
      "payable": false,
      "stateMutability": "view",
      "type": "function"
    },
    {
      "constant": true,
      "inputs": [],
      "name": "tokenName",
      "outputs": [
        {
          "name": "",
          "type": "string"
        }
      ],
      "payable": false,
      "stateMutability": "view",
      "type": "function"
    },
    {
      "constant": true,
      "inputs": [
        {
          "name": "",
          "type": "address"
        }
      ],
      "name": "_balances",
      "outputs": [
        {
          "name": "",
          "type": "uint256"
        }
      ],
      "payable": false,
      "stateMutability": "view",
      "type": "function"
    },
    {
      "constant": true,
      "inputs": [
        {
          "name": "who",
          "type": "address"
        }
      ],
      "name": "balanceOf",
      "outputs": [
        {
          "name": "",
          "type": "uint256"
        }
      ],
      "payable": false,
      "stateMutability": "view",
      "type": "function"
    },
    {
      "constant": true,
      "inputs": [],
      "name": "withdrawPrice",
      "outputs": [
        {
          "name": "",
          "type": "uint256"
        }
      ],
      "payable": false,
      "stateMutability": "view",
      "type": "function"
    },
    {
      "constant": false,
      "inputs": [
        {
          "name": "_from",
          "type": "address"
        },
        {
          "name": "_value",
          "type": "uint256"
        }
      ],
      "name": "burnFrom",
      "outputs": [
        {
          "name": "success",
          "type": "bool"
        }
      ],
      "payable": false,
      "stateMutability": "nonpayable",
      "type": "function"
    },
    {
      "constant": true,
      "inputs": [],
      "name": "tokenSymbol",
      "outputs": [
        {
          "name": "",
          "type": "string"
        }
      ],
      "payable": false,
      "stateMutability": "view",
      "type": "function"
    },
    {
      "constant": false,
      "inputs": [],
      "name": "pause",
      "outputs": [
        {
          "name": "",
          "type": "bool"
        }
      ],
      "payable": false,
      "stateMutability": "nonpayable",
      "type": "function"
    },
    {
      "constant": true,
      "inputs": [],
      "name": "owner",
      "outputs": [
        {
          "name": "",
          "type": "address"
        }
      ],
      "payable": false,
      "stateMutability": "view",
      "type": "function"
    },
    {
      "constant": true,
      "inputs": [],
      "name": "symbol",
      "outputs": [
        {
          "name": "",
          "type": "string"
        }
      ],
      "payable": false,
      "stateMutability": "view",
      "type": "function"
    },
    {
      "constant": false,
      "inputs": [
        {
          "name": "_to",
          "type": "address"
        },
        {
          "name": "_value",
          "type": "uint256"
        }
      ],
      "name": "transfer",
      "outputs": [
        {
          "name": "",
          "type": "bool"
        }
      ],
      "payable": false,
      "stateMutability": "nonpayable",
      "type": "function"
    },
    {
      "constant": true,
      "inputs": [],
      "name": "amount",
      "outputs": [
        {
          "name": "",
          "type": "uint256"
        }
      ],
      "payable": false,
      "stateMutability": "view",
      "type": "function"
    },
    {
      "constant": true,
      "inputs": [
        {
          "name": "",
          "type": "address"
        }
      ],
      "name": "frozenAccount",
      "outputs": [
        {
          "name": "",
          "type": "bool"
        }
      ],
      "payable": false,
      "stateMutability": "view",
      "type": "function"
    },
    {
      "constant": true,
      "inputs": [
        {
          "name": "owner",
          "type": "address"
        },
        {
          "name": "spender",
          "type": "address"
        }
      ],
      "name": "allowance",
      "outputs": [
        {
          "name": "",
          "type": "uint256"
        }
      ],
      "payable": false,
      "stateMutability": "view",
      "type": "function"
    },
    {
      "constant": false,
      "inputs": [
        {
          "name": "newOwner",
          "type": "address"
        }
      ],
      "name": "transferOwnership",
      "outputs": [],
      "payable": false,
      "stateMutability": "nonpayable",
      "type": "function"
    },
    {
      "inputs": [],
      "payable": true,
      "stateMutability": "payable",
      "type": "constructor"
    },
    {
      "payable": true,
      "stateMutability": "payable",
      "type": "fallback"
    },
    {
      "anonymous": false,
      "inputs": [
        {
          "indexed": false,
          "name": "target",
          "type": "address"
        },
        {
          "indexed": false,
          "name": "frozen",
          "type": "bool"
        }
      ],
      "name": "FrozenFunds",
      "type": "event"
    },
    {
      "anonymous": false,
      "inputs": [
        {
          "indexed": true,
          "name": "from",
          "type": "address"
        },
        {
          "indexed": true,
          "name": "to",
          "type": "address"
        },
        {
          "indexed": false,
          "name": "value",
          "type": "uint256"
        }
      ],
      "name": "Transfer",
      "type": "event"
    },
    {
      "anonymous": false,
      "inputs": [
        {
          "indexed": true,
          "name": "from",
          "type": "address"
        },
        {
          "indexed": false,
          "name": "value",
          "type": "uint256"
        }
      ],
      "name": "Burn",
      "type": "event"
    },
    {
      "anonymous": false,
      "inputs": [],
      "name": "Pause",
      "type": "event"
    },
    {
      "anonymous": false,
      "inputs": [],
      "name": "Unpause",
      "type": "event"
    },
    {
      "anonymous": false,
      "inputs": [
        {
          "indexed": false,
          "name": "newContract",
          "type": "address"
        }
      ],
      "name": "ContractUpgrade",
      "type": "event"
    },
    {
      "constant": false,
      "inputs": [
        {
          "name": "target",
          "type": "address"
        },
        {
          "name": "mintedAmount",
          "type": "uint256"
        }
      ],
      "name": "mintToken",
      "outputs": [],
      "payable": false,
      "stateMutability": "nonpayable",
      "type": "function"
    },
    {
      "constant": false,
      "inputs": [
        {
          "name": "target",
          "type": "address"
        },
        {
          "name": "freeze",
          "type": "bool"
        }
      ],
      "name": "freezeAccount",
      "outputs": [],
      "payable": false,
      "stateMutability": "nonpayable",
      "type": "function"
    },
    {
      "constant": true,
      "inputs": [
        {
          "name": "account",
          "type": "address"
        }
      ],
      "name": "ifAccountFrozen",
      "outputs": [
        {
          "name": "",
          "type": "bool"
        }
      ],
      "payable": false,
      "stateMutability": "view",
      "type": "function"
    },
    {
      "constant": false,
      "inputs": [
        {
          "name": "newwithdrawPrice",
          "type": "uint256"
        },
        {
          "name": "newrechargePrice",
          "type": "uint256"
        }
      ],
      "name": "setPrices",
      "outputs": [],
      "payable": false,
      "stateMutability": "nonpayable",
      "type": "function"
    },
    {
      "constant": false,
      "inputs": [],
      "name": "recharge",
      "outputs": [],
      "payable": true,
      "stateMutability": "payable",
      "type": "function"
    },
    {
      "constant": false,
      "inputs": [
        {
          "name": "amount",
          "type": "uint256"
        }
      ],
      "name": "withdraw",
      "outputs": [],
      "payable": false,
      "stateMutability": "nonpayable",
      "type": "function"
    },
    {
      "constant": true,
      "inputs": [],
      "name": "returnContractAddress",
      "outputs": [
        {
          "name": "",
          "type": "address"
        }
      ],
      "payable": false,
      "stateMutability": "view",
      "type": "function"
    },
    {
      "constant": false,
      "inputs": [],
      "name": "heyueTixian",
      "outputs": [],
      "payable": false,
      "stateMutability": "nonpayable",
      "type": "function"
    },
    {
      "constant": true,
      "inputs": [],
      "name": "heyueYitaibi",
      "outputs": [
        {
          "name": "",
          "type": "uint256"
        }
      ],
      "payable": false,
      "stateMutability": "view",
      "type": "function"
    },
    {
      "constant": false,
      "inputs": [],
      "name": "transferHeyue",
      "outputs": [],
      "payable": true,
      "stateMutability": "payable",
      "type": "function"
    }
  ],
  "bytecode": "0x608060405260008060146101000a81548160ff0219169083151502179055506012600360006101000a81548160ff021916908360ff160217905550620186a06009556040805190810160405280600281526020017f6572000000000000000000000000000000000000000000000000000000000000815250600a90805190602001906200008e929190620002fd565b506040805190810160405280600181526020017f6500000000000000000000000000000000000000000000000000000000000000815250600b9080519060200190620000dc929190620002fd565b50600954600a8054600181600116156101000203166002900480601f0160208091040260200160405190810160405280929190818152602001828054600181600116156101000203166002900480156200017a5780601f106200014e576101008083540402835291602001916200017a565b820191906000526020600020905b8154815290600101906020018083116200015c57829003601f168201915b5050505050600b8054600181600116156101000203166002900480601f016020809104026020016040519081016040528092919081815260200182805460018160011615610100020316600290048015620002195780601f10620001ed5761010080835404028352916020019162000219565b820191906000526020600020905b815481529060010190602001808311620001fb57829003601f168201915b5050505050336000806101000a81548173ffffffffffffffffffffffffffffffffffffffff021916908373ffffffffffffffffffffffffffffffffffffffff160217905550600360009054906101000a900460ff1660ff16600a0a8302600481905550600454600560003073ffffffffffffffffffffffffffffffffffffffff1673ffffffffffffffffffffffffffffffffffffffff168152602001908152602001600020819055508160019080519060200190620002da929190620002fd565b508060029080519060200190620002f3929190620002fd565b50505050620003ac565b828054600181600116156101000203166002900490600052602060002090601f016020900481019282601f106200034057805160ff191683800117855562000371565b8280016001018555821562000371579182015b828111156200037057825182559160200191906001019062000353565b5b50905062000380919062000384565b5090565b620003a991905b80821115620003a55760008160009055506001016200038b565b5090565b90565b61237d80620003bc6000396000f3fe6080604052600436106101b7576000357c0100000000000000000000000000000000000000000000000000000000900463ffffffff16806302b090c1146101b95780630589a27c146101e457806305fefda71461023b57806306fdde0314610280578063095ea7b31461031057806318160ddd1461038357806323b872dd146103ae5780632e1a7d4d14610441578063313ce5671461047c578063378dc3dc146104ad5780633eaaf86b146104d85780633f4ba83a1461050357806342966c68146105325780634cddae28146105855780635c975abb1461058f5780636c02a931146105be5780636ebcf6071461064e57806370a08231146106b35780637918447e1461071857806379c650681461074357806379cc67901461079e5780637b61c320146108115780637fed80bb146108a15780638456cb591461090a578063863e4299146109395780638da5cb5b1461096457806395d89b41146109bb578063a9059cbb14610a4b578063aa8c217c14610abe578063b414d4b614610ae9578063ceaf7fb214610b52578063dd62ed3e14610b5c578063e724529c14610be1578063eef71d6f14610c3e578063f2fde38b14610c55575b005b3480156101c557600080fd5b506101ce610ca6565b6040518082815260200191505060405180910390f35b3480156101f057600080fd5b506101f9610cac565b604051808273ffffffffffffffffffffffffffffffffffffffff1673ffffffffffffffffffffffffffffffffffffffff16815260200191505060405180910390f35b34801561024757600080fd5b5061027e6004803603604081101561025e57600080fd5b810190808035906020019092919080359060200190929190505050610cb4565b005b34801561028c57600080fd5b50610295610d3d565b6040518080602001828103825283818151815260200191508051906020019080838360005b838110156102d55780820151818401526020810190506102ba565b50505050905090810190601f1680156103025780820380516001836020036101000a031916815260200191505b509250505060405180910390f35b34801561031c57600080fd5b506103696004803603604081101561033357600080fd5b81019080803573ffffffffffffffffffffffffffffffffffffffff16906020019092919080359060200190929190505050610ddb565b604051808215151515815260200191505060405180910390f35b34801561038f57600080fd5b50610398610f00565b6040518082815260200191505060405180910390f35b3480156103ba57600080fd5b50610427600480360360608110156103d157600080fd5b81019080803573ffffffffffffffffffffffffffffffffffffffff169060200190929190803573ffffffffffffffffffffffffffffffffffffffff16906020019092919080359060200190929190505050610f0a565b604051808215151515815260200191505060405180910390f35b34801561044d57600080fd5b5061047a6004803603602081101561046457600080fd5b81019080803590602001909291905050506110f0565b005b34801561048857600080fd5b5061049161118f565b604051808260ff1660ff16815260200191505060405180910390f35b3480156104b957600080fd5b506104c26111a2565b6040518082815260200191505060405180910390f35b3480156104e457600080fd5b506104ed6111a8565b6040518082815260200191505060405180910390f35b34801561050f57600080fd5b506105186111ae565b604051808215151515815260200191505060405180910390f35b34801561053e57600080fd5b5061056b6004803603602081101561055557600080fd5b8101908080359060200190929190505050611273565b604051808215151515815260200191505060405180910390f35b61058d6113ee565b005b34801561059b57600080fd5b506105a461142a565b604051808215151515815260200191505060405180910390f35b3480156105ca57600080fd5b506105d361143d565b6040518080602001828103825283818151815260200191508051906020019080838360005b838110156106135780820151818401526020810190506105f8565b50505050905090810190601f1680156106405780820380516001836020036101000a031916815260200191505b509250505060405180910390f35b34801561065a57600080fd5b5061069d6004803603602081101561067157600080fd5b81019080803573ffffffffffffffffffffffffffffffffffffffff1690602001909291905050506114db565b6040518082815260200191505060405180910390f35b3480156106bf57600080fd5b50610702600480360360208110156106d657600080fd5b81019080803573ffffffffffffffffffffffffffffffffffffffff1690602001909291905050506114f3565b6040518082815260200191505060405180910390f35b34801561072457600080fd5b5061072d61153c565b6040518082815260200191505060405180910390f35b34801561074f57600080fd5b5061079c6004803603604081101561076657600080fd5b81019080803573ffffffffffffffffffffffffffffffffffffffff16906020019092919080359060200190929190505050611542565b005b3480156107aa57600080fd5b506107f7600480360360408110156107c157600080fd5b81019080803573ffffffffffffffffffffffffffffffffffffffff169060200190929190803590602001909291905050506116e5565b604051808215151515815260200191505060405180910390f35b34801561081d57600080fd5b506108266119b8565b6040518080602001828103825283818151815260200191508051906020019080838360005b8381101561086657808201518184015260208101905061084b565b50505050905090810190601f1680156108935780820380516001836020036101000a031916815260200191505b509250505060405180910390f35b3480156108ad57600080fd5b506108f0600480360360208110156108c457600080fd5b81019080803573ffffffffffffffffffffffffffffffffffffffff169060200190929190505050611a56565b604051808215151515815260200191505060405180910390f35b34801561091657600080fd5b5061091f611aac565b604051808215151515815260200191505060405180910390f35b34801561094557600080fd5b5061094e611b73565b6040518082815260200191505060405180910390f35b34801561097057600080fd5b50610979611b92565b604051808273ffffffffffffffffffffffffffffffffffffffff1673ffffffffffffffffffffffffffffffffffffffff16815260200191505060405180910390f35b3480156109c757600080fd5b506109d0611bb7565b6040518080602001828103825283818151815260200191508051906020019080838360005b83811015610a105780820151818401526020810190506109f5565b50505050905090810190601f168015610a3d5780820380516001836020036101000a031916815260200191505b509250505060405180910390f35b348015610a5757600080fd5b50610aa460048036036040811015610a6e57600080fd5b81019080803573ffffffffffffffffffffffffffffffffffffffff16906020019092919080359060200190929190505050611c55565b604051808215151515815260200191505060405180910390f35b348015610aca57600080fd5b50610ad3611c96565b6040518082815260200191505060405180910390f35b348015610af557600080fd5b50610b3860048036036020811015610b0c57600080fd5b81019080803573ffffffffffffffffffffffffffffffffffffffff169060200190929190505050611c9c565b604051808215151515815260200191505060405180910390f35b610b5a611cbc565b005b348015610b6857600080fd5b50610bcb60048036036040811015610b7f57600080fd5b81019080803573ffffffffffffffffffffffffffffffffffffffff169060200190929190803573ffffffffffffffffffffffffffffffffffffffff169060200190929190505050611ce0565b6040518082815260200191505060405180910390f35b348015610bed57600080fd5b50610c3c60048036036040811015610c0457600080fd5b81019080803573ffffffffffffffffffffffffffffffffffffffff169060200190929190803515159060200190929190505050611d67565b005b348015610c4a57600080fd5b50610c53611ea8565b005b348015610c6157600080fd5b50610ca460048036036020811015610c7857600080fd5b81019080803573ffffffffffffffffffffffffffffffffffffffff169060200190929190505050611fa9565b005b60085481565b600030905090565b6000809054906101000a900473ffffffffffffffffffffffffffffffffffffffff1673ffffffffffffffffffffffffffffffffffffffff163373ffffffffffffffffffffffffffffffffffffffff16141515610d0f57600080fd5b600060149054906101000a900460ff16151515610d2b57600080fd5b81600781905550806008819055505050565b60018054600181600116156101000203166002900480601f016020809104026020016040519081016040528092919081815260200182805460018160011615610100020316600290048015610dd35780601f10610da857610100808354040283529160200191610dd3565b820191906000526020600020905b815481529060010190602001808311610db657829003601f168201915b505050505081565b60008060009054906101000a900473ffffffffffffffffffffffffffffffffffffffff1673ffffffffffffffffffffffffffffffffffffffff163373ffffffffffffffffffffffffffffffffffffffff16141515610e3857600080fd5b600060149054906101000a900460ff16151515610e5457600080fd5b81600660008060009054906101000a900473ffffffffffffffffffffffffffffffffffffffff1673ffffffffffffffffffffffffffffffffffffffff1673ffffffffffffffffffffffffffffffffffffffff16815260200190815260200160002060008573ffffffffffffffffffffffffffffffffffffffff1673ffffffffffffffffffffffffffffffffffffffff168152602001908152602001600020819055506001905092915050565b6000600454905090565b60008060009054906101000a900473ffffffffffffffffffffffffffffffffffffffff1673ffffffffffffffffffffffffffffffffffffffff163373ffffffffffffffffffffffffffffffffffffffff16141515610f6757600080fd5b600060149054906101000a900460ff16151515610f8357600080fd5b600660008060009054906101000a900473ffffffffffffffffffffffffffffffffffffffff1673ffffffffffffffffffffffffffffffffffffffff1673ffffffffffffffffffffffffffffffffffffffff16815260200190815260200160002060008573ffffffffffffffffffffffffffffffffffffffff1673ffffffffffffffffffffffffffffffffffffffff16815260200190815260200160002054821115151561102f57600080fd5b81600660008060009054906101000a900473ffffffffffffffffffffffffffffffffffffffff1673ffffffffffffffffffffffffffffffffffffffff1673ffffffffffffffffffffffffffffffffffffffff16815260200190815260200160002060008673ffffffffffffffffffffffffffffffffffffffff1673ffffffffffffffffffffffffffffffffffffffff168152602001908152602001600020600082825403925050819055506110e5848484612083565b600190509392505050565b600060149054906101000a900460ff1615151561110c57600080fd5b60075481023073ffffffffffffffffffffffffffffffffffffffff16311015151561113657600080fd5b611141333083612083565b3373ffffffffffffffffffffffffffffffffffffffff166108fc60075483029081150290604051600060405180830381858888f1935050505015801561118b573d6000803e3d6000fd5b5050565b600360009054906101000a900460ff1681565b60095481565b60045481565b60008060009054906101000a900473ffffffffffffffffffffffffffffffffffffffff1673ffffffffffffffffffffffffffffffffffffffff163373ffffffffffffffffffffffffffffffffffffffff1614151561120b57600080fd5b600060149054906101000a900460ff16151561122657600080fd5b60008060146101000a81548160ff0219169083151502179055507f7805862f689e2f13df9f062ff482ad3ad112aca9e0847911ed832e158c525b3360405160405180910390a16001905090565b60008060009054906101000a900473ffffffffffffffffffffffffffffffffffffffff1673ffffffffffffffffffffffffffffffffffffffff163373ffffffffffffffffffffffffffffffffffffffff161415156112d057600080fd5b600060149054906101000a900460ff161515156112ec57600080fd5b81600560003073ffffffffffffffffffffffffffffffffffffffff1673ffffffffffffffffffffffffffffffffffffffff168152602001908152602001600020541015151561133a57600080fd5b81600560003073ffffffffffffffffffffffffffffffffffffffff1673ffffffffffffffffffffffffffffffffffffffff16815260200190815260200160002060008282540392505081905550816004600082825403925050819055503073ffffffffffffffffffffffffffffffffffffffff167fcc16f5dbb4873280815c1ee09dbd06736cffcc184412cf7a71a0fdb75d397ca5836040518082815260200191505060405180910390a260019050919050565b600060149054906101000a900460ff1615151561140a57600080fd5b60006008543481151561141957fe5b049050611427303383612083565b50565b600060149054906101000a900460ff1681565b600a8054600181600116156101000203166002900480601f0160208091040260200160405190810160405280929190818152602001828054600181600116156101000203166002900480156114d35780601f106114a8576101008083540402835291602001916114d3565b820191906000526020600020905b8154815290600101906020018083116114b657829003601f168201915b505050505081565b60056020528060005260406000206000915090505481565b6000600560008373ffffffffffffffffffffffffffffffffffffffff1673ffffffffffffffffffffffffffffffffffffffff168152602001908152602001600020549050919050565b60075481565b6000809054906101000a900473ffffffffffffffffffffffffffffffffffffffff1673ffffffffffffffffffffffffffffffffffffffff163373ffffffffffffffffffffffffffffffffffffffff1614151561159d57600080fd5b600060149054906101000a900460ff161515156115b957600080fd5b80600560008473ffffffffffffffffffffffffffffffffffffffff1673ffffffffffffffffffffffffffffffffffffffff16815260200190815260200160002060008282540192505081905550806004600082825401925050819055503073ffffffffffffffffffffffffffffffffffffffff16600073ffffffffffffffffffffffffffffffffffffffff167fddf252ad1be2c89b69c2b068fc378daa952ba7f163c4a11628f55a4df523b3ef836040518082815260200191505060405180910390a38173ffffffffffffffffffffffffffffffffffffffff163073ffffffffffffffffffffffffffffffffffffffff167fddf252ad1be2c89b69c2b068fc378daa952ba7f163c4a11628f55a4df523b3ef836040518082815260200191505060405180910390a35050565b60008060009054906101000a900473ffffffffffffffffffffffffffffffffffffffff1673ffffffffffffffffffffffffffffffffffffffff163373ffffffffffffffffffffffffffffffffffffffff1614151561174257600080fd5b600060149054906101000a900460ff1615151561175e57600080fd5b81600560008573ffffffffffffffffffffffffffffffffffffffff1673ffffffffffffffffffffffffffffffffffffffff16815260200190815260200160002054101515156117ac57600080fd5b600660008060009054906101000a900473ffffffffffffffffffffffffffffffffffffffff1673ffffffffffffffffffffffffffffffffffffffff1673ffffffffffffffffffffffffffffffffffffffff16815260200190815260200160002060008473ffffffffffffffffffffffffffffffffffffffff1673ffffffffffffffffffffffffffffffffffffffff16815260200190815260200160002054821115151561185857600080fd5b81600560008573ffffffffffffffffffffffffffffffffffffffff1673ffffffffffffffffffffffffffffffffffffffff1681526020019081526020016000206000828254039250508190555081600660008060009054906101000a900473ffffffffffffffffffffffffffffffffffffffff1673ffffffffffffffffffffffffffffffffffffffff1673ffffffffffffffffffffffffffffffffffffffff16815260200190815260200160002060008573ffffffffffffffffffffffffffffffffffffffff1673ffffffffffffffffffffffffffffffffffffffff16815260200190815260200160002060008282540392505081905550816004600082825403925050819055508273ffffffffffffffffffffffffffffffffffffffff167fcc16f5dbb4873280815c1ee09dbd06736cffcc184412cf7a71a0fdb75d397ca5836040518082815260200191505060405180910390a26001905092915050565b600b8054600181600116156101000203166002900480601f016020809104026020016040519081016040528092919081815260200182805460018160011615610100020316600290048015611a4e5780601f10611a2357610100808354040283529160200191611a4e565b820191906000526020600020905b815481529060010190602001808311611a3157829003601f168201915b505050505081565b6000600d60008373ffffffffffffffffffffffffffffffffffffffff1673ffffffffffffffffffffffffffffffffffffffff16815260200190815260200160002060009054906101000a900460ff169050919050565b60008060009054906101000a900473ffffffffffffffffffffffffffffffffffffffff1673ffffffffffffffffffffffffffffffffffffffff163373ffffffffffffffffffffffffffffffffffffffff16141515611b0957600080fd5b600060149054906101000a900460ff16151515611b2557600080fd5b6001600060146101000a81548160ff0219169083151502179055507f6985a02210a168e66602d3235cb6db0e70f92b3ba4d376a33c0f3d9434bff62560405160405180910390a16001905090565b60003073ffffffffffffffffffffffffffffffffffffffff1631905090565b6000809054906101000a900473ffffffffffffffffffffffffffffffffffffffff1681565b60028054600181600116156101000203166002900480601f016020809104026020016040519081016040528092919081815260200182805460018160011615610100020316600290048015611c4d5780601f10611c2257610100808354040283529160200191611c4d565b820191906000526020600020905b815481529060010190602001808311611c3057829003601f168201915b505050505081565b60008060149054906101000a900460ff16151515611c7257600080fd5b60446000369050141515611c8557600080fd5b611c90338484612083565b92915050565b600c5481565b600d6020528060005260406000206000915054906101000a900460ff1681565b600060149054906101000a900460ff16151515611cd857600080fd5b600034905050565b6000600660008473ffffffffffffffffffffffffffffffffffffffff1673ffffffffffffffffffffffffffffffffffffffff16815260200190815260200160002060008373ffffffffffffffffffffffffffffffffffffffff1673ffffffffffffffffffffffffffffffffffffffff16815260200190815260200160002054905092915050565b6000809054906101000a900473ffffffffffffffffffffffffffffffffffffffff1673ffffffffffffffffffffffffffffffffffffffff163373ffffffffffffffffffffffffffffffffffffffff16141515611dc257600080fd5b600060149054906101000a900460ff16151515611dde57600080fd5b80600d60008473ffffffffffffffffffffffffffffffffffffffff1673ffffffffffffffffffffffffffffffffffffffff16815260200190815260200160002060006101000a81548160ff0219169083151502179055507f48335238b4855f35377ed80f164e8c6f3c366e54ac00b96a6402d4a9814a03a58282604051808373ffffffffffffffffffffffffffffffffffffffff1673ffffffffffffffffffffffffffffffffffffffff168152602001821515151581526020019250505060405180910390a15050565b6000809054906101000a900473ffffffffffffffffffffffffffffffffffffffff1673ffffffffffffffffffffffffffffffffffffffff163373ffffffffffffffffffffffffffffffffffffffff16141515611f0357600080fd5b600060149054906101000a900460ff16151515611f1f57600080fd5b3073ffffffffffffffffffffffffffffffffffffffff1631600c819055506000809054906101000a900473ffffffffffffffffffffffffffffffffffffffff1673ffffffffffffffffffffffffffffffffffffffff166108fc600c549081150290604051600060405180830381858888f19350505050158015611fa6573d6000803e3d6000fd5b50565b6000809054906101000a900473ffffffffffffffffffffffffffffffffffffffff1673ffffffffffffffffffffffffffffffffffffffff163373ffffffffffffffffffffffffffffffffffffffff1614151561200457600080fd5b600073ffffffffffffffffffffffffffffffffffffffff168173ffffffffffffffffffffffffffffffffffffffff161415151561204057600080fd5b806000806101000a81548173ffffffffffffffffffffffffffffffffffffffff021916908373ffffffffffffffffffffffffffffffffffffffff16021790555050565b600073ffffffffffffffffffffffffffffffffffffffff168273ffffffffffffffffffffffffffffffffffffffff16141515156120bf57600080fd5b80600560008573ffffffffffffffffffffffffffffffffffffffff1673ffffffffffffffffffffffffffffffffffffffff168152602001908152602001600020541015151561210d57600080fd5b600560008373ffffffffffffffffffffffffffffffffffffffff1673ffffffffffffffffffffffffffffffffffffffff1681526020019081526020016000205481600560008573ffffffffffffffffffffffffffffffffffffffff1673ffffffffffffffffffffffffffffffffffffffff168152602001908152602001600020540111151561219b57600080fd5b600d60008473ffffffffffffffffffffffffffffffffffffffff1673ffffffffffffffffffffffffffffffffffffffff16815260200190815260200160002060009054906101000a900460ff161515156121f457600080fd5b600d60008373ffffffffffffffffffffffffffffffffffffffff1673ffffffffffffffffffffffffffffffffffffffff16815260200190815260200160002060009054906101000a900460ff1615151561224d57600080fd5b80600560008573ffffffffffffffffffffffffffffffffffffffff1673ffffffffffffffffffffffffffffffffffffffff1681526020019081526020016000206000828254039250508190555080600560008473ffffffffffffffffffffffffffffffffffffffff1673ffffffffffffffffffffffffffffffffffffffff168152602001908152602001600020600082825401925050819055508173ffffffffffffffffffffffffffffffffffffffff168373ffffffffffffffffffffffffffffffffffffffff167fddf252ad1be2c89b69c2b068fc378daa952ba7f163c4a11628f55a4df523b3ef836040518082815260200191505060405180910390a350505056fea165627a7a7230582052073388ae0a793a85da2fc0d7b48d9c1cc9a7b6f9be033ac8739ee854ecbab30029",
  "source": "pragma solidity ^0.5.0;\r\n\r\nimport \"./ERC20.sol\";\r\n\r\n\r\n/******************************************/\r\n\r\n/*       ADVANCED TOKEN STARTS HERE       */\r\n\r\n/******************************************/\r\n\r\ncontract MyAdvancedToken is ERC20 {\r\n    uint256 public withdrawPrice;//,wei\r\n    uint256 public rechargePrice;//,\r\n    uint256 public initialSupply=100000;\r\n    string public tokenName= \"er\";\r\n    string public tokenSymbol= \"e\";    \r\n    uint256 public amount;\r\n    \r\n    mapping (address => bool) public frozenAccount;//\r\n    \r\n    /* This generates a public event on the blockchain that will notify clients */\r\n    event FrozenFunds(address target, bool frozen);//\r\n\r\n    /* Initializes contract with initial supply tokens to the creator of the contract */\r\n    constructor ( ) ERC20(initialSupply, tokenName, tokenSymbol) payable public {}\r\n\r\n    /* Internal transfer, only can be called by this contract */\r\n    function _transfer(address _from, address _to, uint256 _value) internal {\r\n        require (_to != address(0));                               // Prevent transfer to 0x0 address. Use burn() instead\r\n        require (_balances[_from] >= _value);               // Check if the sender has enough\r\n        require (_balances[_to] + _value > _balances[_to]); // Check for overflows\r\n        require(!frozenAccount[_from]);                     // Check if sender is frozen\r\n        require(!frozenAccount[_to]);                       // Check if recipient is frozen\r\n        _balances[_from] -= _value;                         // Subtract from the sender\r\n        _balances[_to] += _value;                           // Add the same to the recipient\r\n        emit Transfer(_from, _to, _value); //\r\n    }\r\n    \r\n\r\n    //\r\n    /// @notice Create `mintedAmount` tokens and send it to `target`\r\n    /// @param target Address to receive the tokens\r\n    /// @param mintedAmount the amount of tokens it will receive\r\n    function mintToken(address target, uint256 mintedAmount) onlyOwner public whenNotPaused{\r\n        _balances[target] += mintedAmount;\r\n        _totalSupply += mintedAmount;\r\n        emit Transfer(address(0), address(this), mintedAmount);\r\n        emit Transfer(address(this), address(target), mintedAmount);\r\n    }\r\n    \r\n    //\r\n    /// @notice `freeze? Prevent | Allow` `target` from sending & receiving tokens\r\n    /// @param target Address to be frozen\r\n    /// @param freeze either to freeze it or not\r\n    function freezeAccount(address target, bool freeze) onlyOwner public whenNotPaused{\r\n        frozenAccount[target] = freeze;\r\n        emit FrozenFunds(target, freeze);\r\n    }\r\n\r\n    //\r\n    function ifAccountFrozen(address account) external view returns (bool) {\r\n        return frozenAccount[account];\r\n    }\r\n\r\n    //\r\n    //\r\n \r\n    function setPrices(uint256 newwithdrawPrice, uint256 newrechargePrice) onlyOwner public whenNotPaused{\r\n        withdrawPrice = newwithdrawPrice;\r\n        rechargePrice = newrechargePrice;\r\n    }\r\n    \r\n    //\r\n    /// @notice recharge tokens from contract by sending ether\r\n    function recharge() payable public whenNotPaused{\r\n        uint256 amount = msg.value / rechargePrice;               // calculates the amount\r\n        _transfer(address(this), msg.sender, amount);              // makes the transfers\r\n    }\r\n\r\n    //\r\n    /// @notice withdraw `amount` tokens to contract\r\n    /// @param amount amount of tokens to be sold\r\n    function withdraw(uint256 amount) public whenNotPaused{\r\n        require(address(this).balance >= amount * withdrawPrice);      // checks if the contract has enough ether to buy\r\n        _transfer(msg.sender, address(this), amount);              // makes the transfers\r\n        msg.sender.transfer(amount * withdrawPrice);          // sends ether to the seller. It's important to do this last to avoid recursion attacks\r\n    }\r\n    \r\n    //\r\n    function returnContractAddress() external view returns (address) {\r\n        return address(this);\r\n    }\r\n    \r\n    //ETH\r\n    function () payable external { }\r\n    \r\n    //\r\n    function heyueTixian() onlyOwner public whenNotPaused{\r\n        amount=address(this).balance;\r\n        owner.transfer(amount);\r\n        \r\n    }\r\n    \r\n    //\r\n    function heyueYitaibi() external view returns (uint256) {\r\n        return address(this).balance;\r\n    }\r\n    \r\n    //\r\n    function transferHeyue( ) payable public whenNotPaused {\r\n         uint256 value = msg.value;  \r\n    }\r\n    \r\n}",
  "sourcePath": "G:\\ControlSolidity\\contracts\\MyAdvancedToken.sol",
  "compiler": {
    "name": "solc",
    "version": "0.5.0+commit.1d4f565a.Emscripten.clang"
  },
  "schemaVersion": "3.0.5",
  "updatedAt": "2019-04-27T10:11:40.597Z",
  "devdoc": {
    "methods": {
      "approve(address,uint256)": {
        "params": {
          "_spender": "The address authorized to spend",
          "_value": "the max amount they can spend"
        }
      },
      "burnFrom(address,uint256)": {
        "params": {
          "_from": "the address of the sender",
          "_value": "the amount of money to burn"
        }
      },
      "freezeAccount(address,bool)": {
        "params": {
          "freeze": "either to freeze it or not"
        }
      },
      "mintToken(address,uint256)": {
        "params": {
          "mintedAmount": "the amount of tokens it will receive"
        }
      },
      "transfer(address,uint256)": {
        "params": {
          "_to": "",
          "_value": ""
        }
      },
      "transferFrom(address,address,uint256)": {
        "params": {
          "_from": "",
          "_to": "",
          "_value": ""
        }
      },
      "withdraw(uint256)": {
        "params": {
          "amount": "amount of tokens to be sold"
        }
      }
    }
  },
  "userdoc": {
    "methods": {
      "approve(address,uint256)": {
        "notice": "     * `_spender`  `_value` "
      },
      "burn(uint256)": {
        "notice": ""
      },
      "burnFrom(address,uint256)": {
        "notice": "     * Remove `_value` tokens from the system irreversibly on behalf of `_from`."
      },
      "recharge()": {
        "notice": "recharge tokens from contract by sending ether"
      },
      "transfer(address,uint256)": {
        "notice": " `_value` `_to`"
      },
      "transferFrom(address,address,uint256)": {
        "notice": ""
      }
    },
    "notice": "***************************************"
  }
}