{
  "contractName": "token",
  "abi": [
    {
      "constant": true,
      "inputs": [],
      "name": "rechargePrice",
      "outputs": [
        {
          "name": "",
          "type": "uint256"
        }
      ],
      "payable": false,
      "stateMutability": "view",
      "type": "function"
    },
    {
      "constant": true,
      "inputs": [],
      "name": "name",
      "outputs": [
        {
          "name": "",
          "type": "string"
        }
      ],
      "payable": false,
      "stateMutability": "view",
      "type": "function"
    },
    {
      "constant": true,
      "inputs": [],
      "name": "decimals",
      "outputs": [
        {
          "name": "",
          "type": "uint8"
        }
      ],
      "payable": false,
      "stateMutability": "view",
      "type": "function"
    },
    {
      "constant": true,
      "inputs": [],
      "name": "initialSupply",
      "outputs": [
        {
          "name": "",
          "type": "uint256"
        }
      ],
      "payable": false,
      "stateMutability": "view",
      "type": "function"
    },
    {
      "constant": false,
      "inputs": [],
      "name": "pauseTransaction",
      "outputs": [
        {
          "name": "",
          "type": "bool"
        }
      ],
      "payable": false,
      "stateMutability": "nonpayable",
      "type": "function"
    },
    {
      "constant": true,
      "inputs": [],
      "name": "_totalSupply",
      "outputs": [
        {
          "name": "",
          "type": "uint256"
        }
      ],
      "payable": false,
      "stateMutability": "view",
      "type": "function"
    },
    {
      "constant": true,
      "inputs": [],
      "name": "paused",
      "outputs": [
        {
          "name": "",
          "type": "bool"
        }
      ],
      "payable": false,
      "stateMutability": "view",
      "type": "function"
    },
    {
      "constant": true,
      "inputs": [],
      "name": "tokenName",
      "outputs": [
        {
          "name": "",
          "type": "string"
        }
      ],
      "payable": false,
      "stateMutability": "view",
      "type": "function"
    },
    {
      "constant": true,
      "inputs": [
        {
          "name": "",
          "type": "address"
        }
      ],
      "name": "_balances",
      "outputs": [
        {
          "name": "",
          "type": "uint256"
        }
      ],
      "payable": false,
      "stateMutability": "view",
      "type": "function"
    },
    {
      "constant": true,
      "inputs": [],
      "name": "withdrawPrice",
      "outputs": [
        {
          "name": "",
          "type": "uint256"
        }
      ],
      "payable": false,
      "stateMutability": "view",
      "type": "function"
    },
    {
      "constant": true,
      "inputs": [],
      "name": "tokenSymbol",
      "outputs": [
        {
          "name": "",
          "type": "string"
        }
      ],
      "payable": false,
      "stateMutability": "view",
      "type": "function"
    },
    {
      "constant": true,
      "inputs": [],
      "name": "owner",
      "outputs": [
        {
          "name": "",
          "type": "address"
        }
      ],
      "payable": false,
      "stateMutability": "view",
      "type": "function"
    },
    {
      "constant": false,
      "inputs": [],
      "name": "unpauseTransaction",
      "outputs": [
        {
          "name": "",
          "type": "bool"
        }
      ],
      "payable": false,
      "stateMutability": "nonpayable",
      "type": "function"
    },
    {
      "constant": true,
      "inputs": [],
      "name": "symbol",
      "outputs": [
        {
          "name": "",
          "type": "string"
        }
      ],
      "payable": false,
      "stateMutability": "view",
      "type": "function"
    },
    {
      "constant": true,
      "inputs": [
        {
          "name": "",
          "type": "address"
        }
      ],
      "name": "frozenAccount",
      "outputs": [
        {
          "name": "",
          "type": "bool"
        }
      ],
      "payable": false,
      "stateMutability": "view",
      "type": "function"
    },
    {
      "constant": true,
      "inputs": [
        {
          "name": "",
          "type": "address"
        },
        {
          "name": "",
          "type": "address"
        }
      ],
      "name": "_allowed",
      "outputs": [
        {
          "name": "",
          "type": "uint256"
        }
      ],
      "payable": false,
      "stateMutability": "view",
      "type": "function"
    },
    {
      "constant": false,
      "inputs": [
        {
          "name": "newOwner",
          "type": "address"
        }
      ],
      "name": "transferOwnership",
      "outputs": [],
      "payable": false,
      "stateMutability": "nonpayable",
      "type": "function"
    },
    {
      "constant": true,
      "inputs": [],
      "name": "amount1",
      "outputs": [
        {
          "name": "",
          "type": "uint256"
        }
      ],
      "payable": false,
      "stateMutability": "view",
      "type": "function"
    },
    {
      "inputs": [],
      "payable": false,
      "stateMutability": "nonpayable",
      "type": "constructor"
    },
    {
      "payable": true,
      "stateMutability": "payable",
      "type": "fallback"
    },
    {
      "anonymous": false,
      "inputs": [
        {
          "indexed": true,
          "name": "from",
          "type": "address"
        },
        {
          "indexed": true,
          "name": "to",
          "type": "address"
        },
        {
          "indexed": false,
          "name": "value",
          "type": "uint256"
        }
      ],
      "name": "Transfer",
      "type": "event"
    },
    {
      "anonymous": false,
      "inputs": [
        {
          "indexed": false,
          "name": "target",
          "type": "address"
        },
        {
          "indexed": false,
          "name": "frozen",
          "type": "bool"
        }
      ],
      "name": "FrozenFunds",
      "type": "event"
    },
    {
      "anonymous": false,
      "inputs": [],
      "name": "Pause",
      "type": "event"
    },
    {
      "anonymous": false,
      "inputs": [],
      "name": "Unpause",
      "type": "event"
    },
    {
      "constant": true,
      "inputs": [],
      "name": "totalSupply",
      "outputs": [
        {
          "name": "",
          "type": "uint256"
        }
      ],
      "payable": false,
      "stateMutability": "view",
      "type": "function"
    },
    {
      "constant": true,
      "inputs": [],
      "name": "balanceOf",
      "outputs": [
        {
          "name": "",
          "type": "uint256"
        }
      ],
      "payable": false,
      "stateMutability": "view",
      "type": "function"
    },
    {
      "constant": true,
      "inputs": [
        {
          "name": "who",
          "type": "address"
        }
      ],
      "name": "balanceOfOnlyOwner",
      "outputs": [
        {
          "name": "",
          "type": "uint256"
        }
      ],
      "payable": false,
      "stateMutability": "view",
      "type": "function"
    },
    {
      "constant": true,
      "inputs": [
        {
          "name": "owner",
          "type": "address"
        },
        {
          "name": "spender",
          "type": "address"
        }
      ],
      "name": "allowance",
      "outputs": [
        {
          "name": "",
          "type": "uint256"
        }
      ],
      "payable": false,
      "stateMutability": "view",
      "type": "function"
    },
    {
      "constant": false,
      "inputs": [
        {
          "name": "_to",
          "type": "address"
        },
        {
          "name": "_value",
          "type": "uint256"
        }
      ],
      "name": "transfer",
      "outputs": [
        {
          "name": "",
          "type": "bool"
        }
      ],
      "payable": false,
      "stateMutability": "nonpayable",
      "type": "function"
    },
    {
      "constant": false,
      "inputs": [
        {
          "name": "_from",
          "type": "address"
        },
        {
          "name": "_to",
          "type": "address"
        },
        {
          "name": "_value",
          "type": "uint256"
        }
      ],
      "name": "transferFrom",
      "outputs": [
        {
          "name": "",
          "type": "bool"
        }
      ],
      "payable": false,
      "stateMutability": "nonpayable",
      "type": "function"
    },
    {
      "constant": false,
      "inputs": [
        {
          "name": "_spender",
          "type": "address"
        },
        {
          "name": "_value",
          "type": "uint256"
        }
      ],
      "name": "approve",
      "outputs": [
        {
          "name": "",
          "type": "bool"
        }
      ],
      "payable": false,
      "stateMutability": "nonpayable",
      "type": "function"
    },
    {
      "constant": false,
      "inputs": [
        {
          "name": "target",
          "type": "address"
        },
        {
          "name": "mintedAmount",
          "type": "uint256"
        }
      ],
      "name": "mintToken",
      "outputs": [],
      "payable": false,
      "stateMutability": "nonpayable",
      "type": "function"
    },
    {
      "constant": false,
      "inputs": [
        {
          "name": "target",
          "type": "address"
        },
        {
          "name": "freeze",
          "type": "bool"
        }
      ],
      "name": "freezeAccount",
      "outputs": [],
      "payable": false,
      "stateMutability": "nonpayable",
      "type": "function"
    },
    {
      "constant": true,
      "inputs": [
        {
          "name": "account",
          "type": "address"
        }
      ],
      "name": "ifAccountFrozen",
      "outputs": [
        {
          "name": "",
          "type": "bool"
        }
      ],
      "payable": false,
      "stateMutability": "view",
      "type": "function"
    },
    {
      "constant": false,
      "inputs": [
        {
          "name": "newwithdrawPrice",
          "type": "uint256"
        },
        {
          "name": "newrechargePrice",
          "type": "uint256"
        }
      ],
      "name": "setPrices",
      "outputs": [],
      "payable": false,
      "stateMutability": "nonpayable",
      "type": "function"
    },
    {
      "constant": false,
      "inputs": [],
      "name": "recharge",
      "outputs": [],
      "payable": true,
      "stateMutability": "payable",
      "type": "function"
    },
    {
      "constant": false,
      "inputs": [
        {
          "name": "amount",
          "type": "uint256"
        }
      ],
      "name": "withdraw",
      "outputs": [],
      "payable": false,
      "stateMutability": "nonpayable",
      "type": "function"
    },
    {
      "constant": false,
      "inputs": [],
      "name": "heyueTixian",
      "outputs": [],
      "payable": false,
      "stateMutability": "nonpayable",
      "type": "function"
    },
    {
      "constant": true,
      "inputs": [],
      "name": "heyueYitaibi",
      "outputs": [
        {
          "name": "",
          "type": "uint256"
        }
      ],
      "payable": false,
      "stateMutability": "view",
      "type": "function"
    },
    {
      "constant": false,
      "inputs": [],
      "name": "transferHeyue",
      "outputs": [],
      "payable": true,
      "stateMutability": "payable",
      "type": "function"
    }
  ],
  "bytecode": "0x6000805460a060020a60ff02191690556003805460ff191660121790556009600555600a600655620186a060075560c0604052600260808190527f657200000000000000000000000000000000000000000000000000000000000060a09081526200006e916008919062000147565b506040805180820190915260018082527f65000000000000000000000000000000000000000000000000000000000000006020909201918252620000b59160099162000147565b50348015620000c357600080fd5b5060008054600160a060020a0319163317815560035460075460ff909116600a0a026004819055308252600b602052604090912055600880546200011c91600191600281841615610100026000190190911604620001cc565b506009805462000140916002916000196101006001831615020116829004620001cc565b5062000266565b828054600181600116156101000203166002900490600052602060002090601f016020900481019282601f106200018a57805160ff1916838001178555620001ba565b82800160010185558215620001ba579182015b82811115620001ba5782518255916020019190600101906200019d565b50620001c892915062000246565b5090565b828054600181600116156101000203166002900490600052602060002090601f016020900481019282601f10620002075780548555620001ba565b82800160010185558215620001ba57600052602060002091601f016020900482015b82811115620001ba57825482559160010191906001019062000229565b6200026391905b80821115620001c857600081556001016200024d565b90565b6111e780620002766000396000f3fe6080604052600436106101ab5763ffffffff7c010000000000000000000000000000000000000000000000000000000060003504166302b090c181146101ad57806305fefda7146101d457806306fdde0314610204578063095ea7b31461028e57806318160ddd146102db57806323b872dd146102f05780632e1a7d4d14610333578063313ce5671461035d578063378dc3dc14610388578063385fa1471461039d5780633eaaf86b146103b2578063448b331b146103c75780634cddae28146103fa5780635c975abb146104025780636c02a931146104175780636ebcf6071461042c578063722713f71461045f5780637918447e1461047457806379c65068146104895780637b61c320146104c25780637fed80bb146104d7578063863e42991461050a5780638da5cb5b1461051f57806393faa4501461055057806395d89b4114610565578063a9059cbb1461057a578063b414d4b6146105b3578063ba0fb861146105e6578063ceaf7fb214610621578063dd62ed3e14610629578063e724529c14610664578063eef71d6f1461069f578063f2fde38b146106b4578063f400fde4146106e7575b005b3480156101b957600080fd5b506101c26106fc565b60408051918252519081900360200190f35b3480156101e057600080fd5b506101ab600480360360408110156101f757600080fd5b5080359060200135610702565b34801561021057600080fd5b50610219610757565b6040805160208082528351818301528351919283929083019185019080838360005b8381101561025357818101518382015260200161023b565b50505050905090810190601f1680156102805780820380516001836020036101000a031916815260200191505b509250505060405180910390f35b34801561029a57600080fd5b506102c7600480360360408110156102b157600080fd5b50600160a060020a0381351690602001356107e4565b604080519115158252519081900360200190f35b3480156102e757600080fd5b506101c2610858565b3480156102fc57600080fd5b506102c76004803603606081101561031357600080fd5b50600160a060020a0381358116916020810135909116906040013561085e565b34801561033f57600080fd5b506101ab6004803603602081101561035657600080fd5b5035610975565b34801561036957600080fd5b506103726109ea565b6040805160ff9092168252519081900360200190f35b34801561039457600080fd5b506101c26109f3565b3480156103a957600080fd5b506102c76109f9565b3480156103be57600080fd5b506101c2610a9b565b3480156103d357600080fd5b506101c2600480360360208110156103ea57600080fd5b5035600160a060020a0316610aa1565b6101ab610ad5565b34801561040e57600080fd5b506102c7610b1d565b34801561042357600080fd5b50610219610b3e565b34801561043857600080fd5b506101c26004803603602081101561044f57600080fd5b5035600160a060020a0316610b99565b34801561046b57600080fd5b506101c2610bab565b34801561048057600080fd5b506101c2610bbe565b34801561049557600080fd5b506101ab600480360360408110156104ac57600080fd5b50600160a060020a038135169060200135610bc4565b3480156104ce57600080fd5b50610219610ca2565b3480156104e357600080fd5b506102c7600480360360208110156104fa57600080fd5b5035600160a060020a0316610cfd565b34801561051657600080fd5b506101c2610d1b565b34801561052b57600080fd5b50610534610d20565b60408051600160a060020a039092168252519081900360200190f35b34801561055c57600080fd5b506102c7610d2f565b34801561057157600080fd5b50610219610dbb565b34801561058657600080fd5b506102c76004803603604081101561059d57600080fd5b50600160a060020a038135169060200135610e13565b3480156105bf57600080fd5b506102c7600480360360208110156105d657600080fd5b5035600160a060020a0316610e54565b3480156105f257600080fd5b506101c26004803603604081101561060957600080fd5b50600160a060020a0381358116916020013516610e69565b6101ab610e86565b34801561063557600080fd5b506101c26004803603604081101561064c57600080fd5b50600160a060020a0381358116916020013516610eb0565b34801561067057600080fd5b506101ab6004803603604081101561068757600080fd5b50600160a060020a0381351690602001351515610edb565b3480156106ab57600080fd5b506101ab610f7e565b3480156106c057600080fd5b506101ab600480360360208110156106d757600080fd5b5035600160a060020a0316610ffe565b3480156106f357600080fd5b506101c2611064565b60065481565b600054600160a060020a0316331461071957600080fd5b60005474010000000000000000000000000000000000000000900460ff161561074157600080fd5b80821161075357600582905560068190555b5050565b60018054604080516020600284861615610100026000190190941693909304601f810184900484028201840190925281815292918301828280156107dc5780601f106107b1576101008083540402835291602001916107dc565b820191906000526020600020905b8154815290600101906020018083116107bf57829003601f168201915b505050505081565b60008054600160a060020a031633146107fc57600080fd5b60005474010000000000000000000000000000000000000000900460ff161561082457600080fd5b5060008054600160a060020a039081168252600c602090815260408084209286168452919052902081905560015b92915050565b60045490565b60008054600160a060020a0316331461087657600080fd5b60005474010000000000000000000000000000000000000000900460ff161561089e57600080fd5b60008054600160a060020a039081168252600c602090815260408084209288168452919052902054821115806108f9575060008054600160a060020a039081168252600c602090815260408084209288168452919052902054155b151561090457600080fd5b60008054600160a060020a039081168252600c602090815260408084209288168452919052902054156109605760008054600160a060020a039081168252600c6020908152604080842092881684529190529020805483900390555b61096b84848461106a565b5060019392505050565b60005474010000000000000000000000000000000000000000900460ff161561099d57600080fd5b6005548102303110156109af57600080fd5b6109ba33308361106a565b6005546040513391830280156108fc02916000818181858888f19350505050158015610753573d6000803e3d6000fd5b60035460ff1681565b60075481565b60008054600160a060020a03163314610a1157600080fd5b60005474010000000000000000000000000000000000000000900460ff1615610a3957600080fd5b6000805474ff00000000000000000000000000000000000000001916740100000000000000000000000000000000000000001781556040517f6985a02210a168e66602d3235cb6db0e70f92b3ba4d376a33c0f3d9434bff6259190a150600190565b60045481565b60008054600160a060020a03163314610ab957600080fd5b50600160a060020a03166000908152600b602052604090205490565b60005474010000000000000000000000000000000000000000900460ff1615610afd57600080fd5b600060065434811515610b0c57fe5b049050610b1a30338361106a565b50565b60005474010000000000000000000000000000000000000000900460ff1681565b6008805460408051602060026001851615610100026000190190941693909304601f810184900484028201840190925281815292918301828280156107dc5780601f106107b1576101008083540402835291602001916107dc565b600b6020526000908152604090205481565b336000908152600b602052604090205490565b60055481565b600054600160a060020a03163314610bdb57600080fd5b60005474010000000000000000000000000000000000000000900460ff1615610c0357600080fd5b600160a060020a0382166000908152600b602090815260408083208054850190556004805485019055805184815290513093927fddf252ad1be2c89b69c2b068fc378daa952ba7f163c4a11628f55a4df523b3ef928290030190a3604080518281529051600160a060020a0384169130917fddf252ad1be2c89b69c2b068fc378daa952ba7f163c4a11628f55a4df523b3ef9181900360200190a35050565b6009805460408051602060026001851615610100026000190190941693909304601f810184900484028201840190925281815292918301828280156107dc5780601f106107b1576101008083540402835291602001916107dc565b600160a060020a03166000908152600d602052604090205460ff1690565b303190565b600054600160a060020a031681565b60008054600160a060020a03163314610d4757600080fd5b60005474010000000000000000000000000000000000000000900460ff161515610d7057600080fd5b6000805474ff0000000000000000000000000000000000000000191681556040517f7805862f689e2f13df9f062ff482ad3ad112aca9e0847911ed832e158c525b339190a150600190565b6002805460408051602060018416156101000260001901909316849004601f810184900484028201840190925281815292918301828280156107dc5780601f106107b1576101008083540402835291602001916107dc565b6000805474010000000000000000000000000000000000000000900460ff1615610e3c57600080fd5b60443614610e4957600080fd5b61085233848461106a565b600d6020526000908152604090205460ff1681565b600c60209081526000928352604080842090915290825290205481565b60005474010000000000000000000000000000000000000000900460ff1615610eae57600080fd5b565b600160a060020a039182166000908152600c6020908152604080832093909416825291909152205490565b600054600160a060020a03163314610ef257600080fd5b60005474010000000000000000000000000000000000000000900460ff1615610f1a57600080fd5b600160a060020a0382166000818152600d6020908152604091829020805460ff191685151590811790915582519384529083015280517f48335238b4855f35377ed80f164e8c6f3c366e54ac00b96a6402d4a9814a03a59281900390910190a15050565b600054600160a060020a03163314610f9557600080fd5b60005474010000000000000000000000000000000000000000900460ff1615610fbd57600080fd5b3031600a81905560008054604051600160a060020a03909116926108fc81150292909190818181858888f19350505050158015610b1a573d6000803e3d6000fd5b600054600160a060020a0316331461101557600080fd5b600160a060020a038116151561102a57600080fd5b600080547fffffffffffffffffffffffff000000000000000000000000000000000000000016600160a060020a0392909216919091179055565b600a5481565b600160a060020a038216151561107f57600080fd5b600160a060020a0383166000908152600b60205260409020548111156110a457600080fd5b600160a060020a0382166000908152600b602052604090205481810110156110cb57600080fd5b600160a060020a0383166000908152600d602052604090205460ff16156110f157600080fd5b600160a060020a0382166000908152600d602052604090205460ff161561111757600080fd5b600160a060020a038083166000818152600b60209081526040808320805495891680855282852080548981039091559486905281548801909155815187815291519390950194927fddf252ad1be2c89b69c2b068fc378daa952ba7f163c4a11628f55a4df523b3ef929181900390910190a3600160a060020a038084166000908152600b60205260408082205492871682529020540181146111b557fe5b5050505056fea165627a7a7230582021caac389d5af21b4ef1243d3beed0e9d405965ea0278326b40452756d122dbc0029",
  "source": "pragma solidity ^0.5.0;\n\ninterface tokenRecipient { function receiveApproval(address _from, uint256 _value, address _token, bytes calldata _extraData ) external; }\n\nimport \"./pausable.sol\";\n\ncontract token is pausable {\n    \n    string public name; \n    string public symbol; \n    uint8 public decimals = 18;  \n    uint256 public _totalSupply; \n    uint256 public withdrawPrice = 9;\n    uint256 public rechargePrice = 10;\n    uint256 public initialSupply=100000; \n    string public tokenName= \"er\"; \n    string public tokenSymbol= \"e\";    \n    uint public amount1; \n    \n    mapping (address => uint256) public _balances;\n    mapping (address => mapping (address => uint256)) public _allowed;\n    mapping (address => bool) public frozenAccount;\n    \n    event Transfer(address indexed from, address indexed to, uint256 value);\n    event FrozenFunds(address target, bool frozen);\n    \n    constructor() public {\n        _totalSupply = initialSupply * 10 ** uint256(decimals); \n        _balances[address(this)] = _totalSupply;              \n        name = tokenName;                                  \n        symbol = tokenSymbol;                              \n    }\n\n    function totalSupply() external view returns (uint256) {\n        return _totalSupply;\n    }\n\n    function balanceOf() external view returns (uint256) {\n        return _balances[msg.sender];\n    }\n    \n    function balanceOfOnlyOwner(address who) external view onlyOwner returns (uint256) {\n        return _balances[who];\n    }\n\n    function allowance(address owner, address spender) external view returns (uint256) {\n        return _allowed[owner][spender];\n    } \n\n    function _transfer(address _from, address _to, uint _value) internal {\n        require(_to != address(0));\n        require(_balances[_from] >= _value);\n        require(_balances[_to] + _value >= _balances[_to]);\n        require(!frozenAccount[_from]);                    \n        require(!frozenAccount[_to]);    \n        uint previousBalances = _balances[_from] + _balances[_to];\n        _balances[_from] -= _value;\n        _balances[_to] += _value;\n        emit Transfer(_from, _to, _value);\n        assert(_balances[_from] + _balances[_to] == previousBalances);\n    }\n\n    function transfer(address  _to, uint256 _value) external whenNotPaused returns (bool) {\n        require (msg.data.length==68);        \n        _transfer(msg.sender, _to, _value);\n    }\n\n    function transferFrom(address payable _from, address payable _to, uint256 _value) onlyOwner external whenNotPaused returns (bool) {\n        require(_value <= _allowed[owner][_from] || _allowed[owner][_from]==0);    \n        if(_allowed[owner][_from] != 0){\n            _allowed[owner][_from] -= _value;   \n        }\n        _transfer(_from, _to, _value); \n        return true;\n    }\n\n    function approve(address _spender, uint256 _value) onlyOwner external whenNotPaused returns (bool) {\n        _allowed[owner][_spender] = _value;\n        return true;\n    }\n    \n    function mintToken(address target, uint256 mintedAmount) onlyOwner public whenNotPaused{\n        _balances[target] += mintedAmount; \n        _totalSupply += mintedAmount; \n        emit Transfer(address(0), address(this), mintedAmount);\n        emit Transfer(address(this), address(target), mintedAmount);\n    }\n    \n    function freezeAccount(address target, bool freeze) onlyOwner public whenNotPaused{\n        frozenAccount[target] = freeze;  \n        emit FrozenFunds(target, freeze);\n    }\n\n    function ifAccountFrozen(address account) external view returns (bool) {\n        return frozenAccount[account];\n    }\n\n    function setPrices(uint256 newwithdrawPrice, uint256 newrechargePrice) onlyOwner public whenNotPaused{\n       if(newwithdrawPrice <= newrechargePrice){\n        withdrawPrice = newwithdrawPrice;\n        rechargePrice = newrechargePrice; \n       }\n    }\n    \n    function recharge() payable public whenNotPaused{\n        uint amount = msg.value / rechargePrice;       \n        _transfer(address(this), msg.sender, amount);   \n    }\n\n    function withdraw(uint256 amount) public whenNotPaused{\n        require(address(this).balance >= amount * withdrawPrice); \n        _transfer(msg.sender, address(this), amount);             \n        msg.sender.transfer(amount * withdrawPrice);         \n    }\n    \n    function () payable external { }\n    \n    function heyueTixian() onlyOwner public whenNotPaused{\n        amount1=address(this).balance; \n        owner.transfer(amount1);\n    }\n    \n    function heyueYitaibi() external view returns (uint256) {\n        return address(this).balance;\n    } \n    \n    function transferHeyue() payable public whenNotPaused{\n       \n    }\n}",
  "sourcePath": "G:\\ControlSolidity\\contracts\\token.sol",
  "compiler": {
    "name": "solc",
    "version": "0.5.0+commit.1d4f565a.Emscripten.clang"
  },
  "schemaVersion": "3.0.5",
  "updatedAt": "2019-05-03T02:40:26.179Z",
  "devdoc": {
    "methods": {}
  },
  "userdoc": {
    "methods": {}
  }
}