{
  "contractName": "token",
  "abi": [
    {
      "constant": true,
      "inputs": [],
      "name": "rechargePrice",
      "outputs": [
        {
          "name": "",
          "type": "uint256"
        }
      ],
      "payable": false,
      "stateMutability": "view",
      "type": "function"
    },
    {
      "constant": true,
      "inputs": [],
      "name": "name",
      "outputs": [
        {
          "name": "",
          "type": "string"
        }
      ],
      "payable": false,
      "stateMutability": "view",
      "type": "function"
    },
    {
      "constant": true,
      "inputs": [],
      "name": "decimals",
      "outputs": [
        {
          "name": "",
          "type": "uint8"
        }
      ],
      "payable": false,
      "stateMutability": "view",
      "type": "function"
    },
    {
      "constant": true,
      "inputs": [],
      "name": "initialSupply",
      "outputs": [
        {
          "name": "",
          "type": "uint256"
        }
      ],
      "payable": false,
      "stateMutability": "view",
      "type": "function"
    },
    {
      "constant": true,
      "inputs": [],
      "name": "_totalSupply",
      "outputs": [
        {
          "name": "",
          "type": "uint256"
        }
      ],
      "payable": false,
      "stateMutability": "view",
      "type": "function"
    },
    {
      "constant": false,
      "inputs": [],
      "name": "unpause",
      "outputs": [
        {
          "name": "",
          "type": "bool"
        }
      ],
      "payable": false,
      "stateMutability": "nonpayable",
      "type": "function"
    },
    {
      "constant": true,
      "inputs": [],
      "name": "paused",
      "outputs": [
        {
          "name": "",
          "type": "bool"
        }
      ],
      "payable": false,
      "stateMutability": "view",
      "type": "function"
    },
    {
      "constant": true,
      "inputs": [],
      "name": "tokenName",
      "outputs": [
        {
          "name": "",
          "type": "string"
        }
      ],
      "payable": false,
      "stateMutability": "view",
      "type": "function"
    },
    {
      "constant": true,
      "inputs": [
        {
          "name": "",
          "type": "address"
        }
      ],
      "name": "_balances",
      "outputs": [
        {
          "name": "",
          "type": "uint256"
        }
      ],
      "payable": false,
      "stateMutability": "view",
      "type": "function"
    },
    {
      "constant": true,
      "inputs": [],
      "name": "withdrawPrice",
      "outputs": [
        {
          "name": "",
          "type": "uint256"
        }
      ],
      "payable": false,
      "stateMutability": "view",
      "type": "function"
    },
    {
      "constant": true,
      "inputs": [],
      "name": "tokenSymbol",
      "outputs": [
        {
          "name": "",
          "type": "string"
        }
      ],
      "payable": false,
      "stateMutability": "view",
      "type": "function"
    },
    {
      "constant": false,
      "inputs": [],
      "name": "pause",
      "outputs": [
        {
          "name": "",
          "type": "bool"
        }
      ],
      "payable": false,
      "stateMutability": "nonpayable",
      "type": "function"
    },
    {
      "constant": true,
      "inputs": [],
      "name": "owner",
      "outputs": [
        {
          "name": "",
          "type": "address"
        }
      ],
      "payable": false,
      "stateMutability": "view",
      "type": "function"
    },
    {
      "constant": true,
      "inputs": [],
      "name": "symbol",
      "outputs": [
        {
          "name": "",
          "type": "string"
        }
      ],
      "payable": false,
      "stateMutability": "view",
      "type": "function"
    },
    {
      "constant": true,
      "inputs": [
        {
          "name": "",
          "type": "address"
        }
      ],
      "name": "frozenAccount",
      "outputs": [
        {
          "name": "",
          "type": "bool"
        }
      ],
      "payable": false,
      "stateMutability": "view",
      "type": "function"
    },
    {
      "constant": true,
      "inputs": [
        {
          "name": "",
          "type": "address"
        },
        {
          "name": "",
          "type": "address"
        }
      ],
      "name": "_allowed",
      "outputs": [
        {
          "name": "",
          "type": "uint256"
        }
      ],
      "payable": false,
      "stateMutability": "view",
      "type": "function"
    },
    {
      "constant": false,
      "inputs": [
        {
          "name": "newOwner",
          "type": "address"
        }
      ],
      "name": "transferOwnership",
      "outputs": [],
      "payable": false,
      "stateMutability": "nonpayable",
      "type": "function"
    },
    {
      "constant": true,
      "inputs": [],
      "name": "amount1",
      "outputs": [
        {
          "name": "",
          "type": "uint256"
        }
      ],
      "payable": false,
      "stateMutability": "view",
      "type": "function"
    },
    {
      "inputs": [],
      "payable": false,
      "stateMutability": "nonpayable",
      "type": "constructor"
    },
    {
      "payable": true,
      "stateMutability": "payable",
      "type": "fallback"
    },
    {
      "anonymous": false,
      "inputs": [
        {
          "indexed": true,
          "name": "from",
          "type": "address"
        },
        {
          "indexed": true,
          "name": "to",
          "type": "address"
        },
        {
          "indexed": false,
          "name": "value",
          "type": "uint256"
        }
      ],
      "name": "Transfer",
      "type": "event"
    },
    {
      "anonymous": false,
      "inputs": [
        {
          "indexed": false,
          "name": "target",
          "type": "address"
        },
        {
          "indexed": false,
          "name": "frozen",
          "type": "bool"
        }
      ],
      "name": "FrozenFunds",
      "type": "event"
    },
    {
      "anonymous": false,
      "inputs": [],
      "name": "Pause",
      "type": "event"
    },
    {
      "anonymous": false,
      "inputs": [],
      "name": "Unpause",
      "type": "event"
    },
    {
      "constant": true,
      "inputs": [],
      "name": "totalSupply",
      "outputs": [
        {
          "name": "",
          "type": "uint256"
        }
      ],
      "payable": false,
      "stateMutability": "view",
      "type": "function"
    },
    {
      "constant": true,
      "inputs": [
        {
          "name": "who",
          "type": "address"
        }
      ],
      "name": "balanceOf",
      "outputs": [
        {
          "name": "",
          "type": "uint256"
        }
      ],
      "payable": false,
      "stateMutability": "view",
      "type": "function"
    },
    {
      "constant": true,
      "inputs": [
        {
          "name": "owner",
          "type": "address"
        },
        {
          "name": "spender",
          "type": "address"
        }
      ],
      "name": "allowance",
      "outputs": [
        {
          "name": "",
          "type": "uint256"
        }
      ],
      "payable": false,
      "stateMutability": "view",
      "type": "function"
    },
    {
      "constant": false,
      "inputs": [
        {
          "name": "_to",
          "type": "address"
        },
        {
          "name": "_value",
          "type": "uint256"
        }
      ],
      "name": "transfer",
      "outputs": [
        {
          "name": "",
          "type": "bool"
        }
      ],
      "payable": false,
      "stateMutability": "nonpayable",
      "type": "function"
    },
    {
      "constant": false,
      "inputs": [
        {
          "name": "_from",
          "type": "address"
        },
        {
          "name": "_to",
          "type": "address"
        },
        {
          "name": "_value",
          "type": "uint256"
        }
      ],
      "name": "transferFrom",
      "outputs": [
        {
          "name": "",
          "type": "bool"
        }
      ],
      "payable": false,
      "stateMutability": "nonpayable",
      "type": "function"
    },
    {
      "constant": false,
      "inputs": [
        {
          "name": "_spender",
          "type": "address"
        },
        {
          "name": "_value",
          "type": "uint256"
        }
      ],
      "name": "approve",
      "outputs": [
        {
          "name": "",
          "type": "bool"
        }
      ],
      "payable": false,
      "stateMutability": "nonpayable",
      "type": "function"
    },
    {
      "constant": false,
      "inputs": [
        {
          "name": "target",
          "type": "address"
        },
        {
          "name": "mintedAmount",
          "type": "uint256"
        }
      ],
      "name": "mintToken",
      "outputs": [],
      "payable": false,
      "stateMutability": "nonpayable",
      "type": "function"
    },
    {
      "constant": false,
      "inputs": [
        {
          "name": "target",
          "type": "address"
        },
        {
          "name": "freeze",
          "type": "bool"
        }
      ],
      "name": "freezeAccount",
      "outputs": [],
      "payable": false,
      "stateMutability": "nonpayable",
      "type": "function"
    },
    {
      "constant": true,
      "inputs": [
        {
          "name": "account",
          "type": "address"
        }
      ],
      "name": "ifAccountFrozen",
      "outputs": [
        {
          "name": "",
          "type": "bool"
        }
      ],
      "payable": false,
      "stateMutability": "view",
      "type": "function"
    },
    {
      "constant": false,
      "inputs": [
        {
          "name": "newwithdrawPrice",
          "type": "uint256"
        },
        {
          "name": "newrechargePrice",
          "type": "uint256"
        }
      ],
      "name": "setPrices",
      "outputs": [],
      "payable": false,
      "stateMutability": "nonpayable",
      "type": "function"
    },
    {
      "constant": false,
      "inputs": [],
      "name": "recharge",
      "outputs": [],
      "payable": true,
      "stateMutability": "payable",
      "type": "function"
    },
    {
      "constant": false,
      "inputs": [
        {
          "name": "amount",
          "type": "uint256"
        }
      ],
      "name": "withdraw",
      "outputs": [],
      "payable": false,
      "stateMutability": "nonpayable",
      "type": "function"
    },
    {
      "constant": false,
      "inputs": [],
      "name": "heyueTixian",
      "outputs": [],
      "payable": false,
      "stateMutability": "nonpayable",
      "type": "function"
    },
    {
      "constant": true,
      "inputs": [],
      "name": "heyueYitaibi",
      "outputs": [
        {
          "name": "",
          "type": "uint256"
        }
      ],
      "payable": false,
      "stateMutability": "view",
      "type": "function"
    },
    {
      "constant": false,
      "inputs": [],
      "name": "transferHeyue",
      "outputs": [],
      "payable": true,
      "stateMutability": "payable",
      "type": "function"
    }
  ],
  "bytecode": "0x6000805460a060020a60ff02191690556003805460ff191660121790556009600555600a600655620186a060075560c0604052600260808190527f657200000000000000000000000000000000000000000000000000000000000060a09081526200006e916008919062000147565b506040805180820190915260018082527f65000000000000000000000000000000000000000000000000000000000000006020909201918252620000b59160099162000147565b50348015620000c357600080fd5b5060008054600160a060020a0319163317815560035460075460ff909116600a0a026004819055308252600b602052604090912055600880546200011c91600191600281841615610100026000190190911604620001cc565b506009805462000140916002916000196101006001831615020116829004620001cc565b5062000266565b828054600181600116156101000203166002900490600052602060002090601f016020900481019282601f106200018a57805160ff1916838001178555620001ba565b82800160010185558215620001ba579182015b82811115620001ba5782518255916020019190600101906200019d565b50620001c892915062000246565b5090565b828054600181600116156101000203166002900490600052602060002090601f016020900481019282601f10620002075780548555620001ba565b82800160010185558215620001ba57600052602060002091601f016020900482015b82811115620001ba57825482559160010191906001019062000229565b6200026391905b80821115620001c857600081556001016200024d565b90565b61119b80620002766000396000f3fe6080604052600436106101a05763ffffffff7c010000000000000000000000000000000000000000000000000000000060003504166302b090c181146101a257806305fefda7146101c957806306fdde03146101f9578063095ea7b31461028357806318160ddd146102d057806323b872dd146102e55780632e1a7d4d14610328578063313ce56714610352578063378dc3dc1461037d5780633eaaf86b146103925780633f4ba83a146103a75780634cddae28146103bc5780635c975abb146103c45780636c02a931146103d95780636ebcf607146103ee57806370a08231146104215780637918447e1461045457806379c65068146104695780637b61c320146104a25780637fed80bb146104b75780638456cb59146104ea578063863e4299146104ff5780638da5cb5b1461051457806395d89b4114610545578063a9059cbb1461055a578063b414d4b614610593578063ba0fb861146105c6578063ceaf7fb214610601578063dd62ed3e14610609578063e724529c14610644578063eef71d6f1461067f578063f2fde38b14610694578063f400fde4146106c7575b005b3480156101ae57600080fd5b506101b76106dc565b60408051918252519081900360200190f35b3480156101d557600080fd5b506101a0600480360360408110156101ec57600080fd5b50803590602001356106e2565b34801561020557600080fd5b5061020e610737565b6040805160208082528351818301528351919283929083019185019080838360005b83811015610248578181015183820152602001610230565b50505050905090810190601f1680156102755780820380516001836020036101000a031916815260200191505b509250505060405180910390f35b34801561028f57600080fd5b506102bc600480360360408110156102a657600080fd5b50600160a060020a0381351690602001356107c4565b604080519115158252519081900360200190f35b3480156102dc57600080fd5b506101b7610838565b3480156102f157600080fd5b506102bc6004803603606081101561030857600080fd5b50600160a060020a0381358116916020810135909116906040013561083e565b34801561033457600080fd5b506101a06004803603602081101561034b57600080fd5b5035610955565b34801561035e57600080fd5b506103676109ca565b6040805160ff9092168252519081900360200190f35b34801561038957600080fd5b506101b76109d3565b34801561039e57600080fd5b506101b76109d9565b3480156103b357600080fd5b506102bc6109df565b6101a0610a6b565b3480156103d057600080fd5b506102bc610ab3565b3480156103e557600080fd5b5061020e610ad4565b3480156103fa57600080fd5b506101b76004803603602081101561041157600080fd5b5035600160a060020a0316610b2f565b34801561042d57600080fd5b506101b76004803603602081101561044457600080fd5b5035600160a060020a0316610b41565b34801561046057600080fd5b506101b7610b5c565b34801561047557600080fd5b506101a06004803603604081101561048c57600080fd5b50600160a060020a038135169060200135610b62565b3480156104ae57600080fd5b5061020e610c40565b3480156104c357600080fd5b506102bc600480360360208110156104da57600080fd5b5035600160a060020a0316610c9b565b3480156104f657600080fd5b506102bc610cb9565b34801561050b57600080fd5b506101b7610d5b565b34801561052057600080fd5b50610529610d60565b60408051600160a060020a039092168252519081900360200190f35b34801561055157600080fd5b5061020e610d6f565b34801561056657600080fd5b506102bc6004803603604081101561057d57600080fd5b50600160a060020a038135169060200135610dc7565b34801561059f57600080fd5b506102bc600480360360208110156105b657600080fd5b5035600160a060020a0316610e08565b3480156105d257600080fd5b506101b7600480360360408110156105e957600080fd5b50600160a060020a0381358116916020013516610e1d565b6101a0610e3a565b34801561061557600080fd5b506101b76004803603604081101561062c57600080fd5b50600160a060020a0381358116916020013516610e64565b34801561065057600080fd5b506101a06004803603604081101561066757600080fd5b50600160a060020a0381351690602001351515610e8f565b34801561068b57600080fd5b506101a0610f32565b3480156106a057600080fd5b506101a0600480360360208110156106b757600080fd5b5035600160a060020a0316610fb2565b3480156106d357600080fd5b506101b7611018565b60065481565b600054600160a060020a031633146106f957600080fd5b60005474010000000000000000000000000000000000000000900460ff161561072157600080fd5b80821161073357600582905560068190555b5050565b60018054604080516020600284861615610100026000190190941693909304601f810184900484028201840190925281815292918301828280156107bc5780601f10610791576101008083540402835291602001916107bc565b820191906000526020600020905b81548152906001019060200180831161079f57829003601f168201915b505050505081565b60008054600160a060020a031633146107dc57600080fd5b60005474010000000000000000000000000000000000000000900460ff161561080457600080fd5b5060008054600160a060020a039081168252600c602090815260408084209286168452919052902081905560015b92915050565b60045490565b60008054600160a060020a0316331461085657600080fd5b60005474010000000000000000000000000000000000000000900460ff161561087e57600080fd5b60008054600160a060020a039081168252600c602090815260408084209288168452919052902054821115806108d9575060008054600160a060020a039081168252600c602090815260408084209288168452919052902054155b15156108e457600080fd5b60008054600160a060020a039081168252600c602090815260408084209288168452919052902054156109405760008054600160a060020a039081168252600c6020908152604080842092881684529190529020805483900390555b61094b84848461101e565b5060019392505050565b60005474010000000000000000000000000000000000000000900460ff161561097d57600080fd5b60055481023031101561098f57600080fd5b61099a33308361101e565b6005546040513391830280156108fc02916000818181858888f19350505050158015610733573d6000803e3d6000fd5b60035460ff1681565b60075481565b60045481565b60008054600160a060020a031633146109f757600080fd5b60005474010000000000000000000000000000000000000000900460ff161515610a2057600080fd5b6000805474ff0000000000000000000000000000000000000000191681556040517f7805862f689e2f13df9f062ff482ad3ad112aca9e0847911ed832e158c525b339190a150600190565b60005474010000000000000000000000000000000000000000900460ff1615610a9357600080fd5b600060065434811515610aa257fe5b049050610ab030338361101e565b50565b60005474010000000000000000000000000000000000000000900460ff1681565b6008805460408051602060026001851615610100026000190190941693909304601f810184900484028201840190925281815292918301828280156107bc5780601f10610791576101008083540402835291602001916107bc565b600b6020526000908152604090205481565b600160a060020a03166000908152600b602052604090205490565b60055481565b600054600160a060020a03163314610b7957600080fd5b60005474010000000000000000000000000000000000000000900460ff1615610ba157600080fd5b600160a060020a0382166000908152600b602090815260408083208054850190556004805485019055805184815290513093927fddf252ad1be2c89b69c2b068fc378daa952ba7f163c4a11628f55a4df523b3ef928290030190a3604080518281529051600160a060020a0384169130917fddf252ad1be2c89b69c2b068fc378daa952ba7f163c4a11628f55a4df523b3ef9181900360200190a35050565b6009805460408051602060026001851615610100026000190190941693909304601f810184900484028201840190925281815292918301828280156107bc5780601f10610791576101008083540402835291602001916107bc565b600160a060020a03166000908152600d602052604090205460ff1690565b60008054600160a060020a03163314610cd157600080fd5b60005474010000000000000000000000000000000000000000900460ff1615610cf957600080fd5b6000805474ff00000000000000000000000000000000000000001916740100000000000000000000000000000000000000001781556040517f6985a02210a168e66602d3235cb6db0e70f92b3ba4d376a33c0f3d9434bff6259190a150600190565b303190565b600054600160a060020a031681565b6002805460408051602060018416156101000260001901909316849004601f810184900484028201840190925281815292918301828280156107bc5780601f10610791576101008083540402835291602001916107bc565b6000805474010000000000000000000000000000000000000000900460ff1615610df057600080fd5b60443614610dfd57600080fd5b61083233848461101e565b600d6020526000908152604090205460ff1681565b600c60209081526000928352604080842090915290825290205481565b60005474010000000000000000000000000000000000000000900460ff1615610e6257600080fd5b565b600160a060020a039182166000908152600c6020908152604080832093909416825291909152205490565b600054600160a060020a03163314610ea657600080fd5b60005474010000000000000000000000000000000000000000900460ff1615610ece57600080fd5b600160a060020a0382166000818152600d6020908152604091829020805460ff191685151590811790915582519384529083015280517f48335238b4855f35377ed80f164e8c6f3c366e54ac00b96a6402d4a9814a03a59281900390910190a15050565b600054600160a060020a03163314610f4957600080fd5b60005474010000000000000000000000000000000000000000900460ff1615610f7157600080fd5b3031600a81905560008054604051600160a060020a03909116926108fc81150292909190818181858888f19350505050158015610ab0573d6000803e3d6000fd5b600054600160a060020a03163314610fc957600080fd5b600160a060020a0381161515610fde57600080fd5b600080547fffffffffffffffffffffffff000000000000000000000000000000000000000016600160a060020a0392909216919091179055565b600a5481565b600160a060020a038216151561103357600080fd5b600160a060020a0383166000908152600b602052604090205481111561105857600080fd5b600160a060020a0382166000908152600b6020526040902054818101101561107f57600080fd5b600160a060020a0383166000908152600d602052604090205460ff16156110a557600080fd5b600160a060020a0382166000908152600d602052604090205460ff16156110cb57600080fd5b600160a060020a038083166000818152600b60209081526040808320805495891680855282852080548981039091559486905281548801909155815187815291519390950194927fddf252ad1be2c89b69c2b068fc378daa952ba7f163c4a11628f55a4df523b3ef929181900390910190a3600160a060020a038084166000908152600b602052604080822054928716825290205401811461116957fe5b5050505056fea165627a7a723058207f557b5be16289f4250e92855f86d49340551654f5405af5696d51eefff59b5a0029",
  "source": "pragma solidity ^0.5.0;\n\ninterface tokenRecipient { function receiveApproval(address _from, uint256 _value, address _token, bytes calldata _extraData ) external; }\n\nimport \"./pausable.sol\";\n\ncontract token is pausable {\n    \n    string public name; \n    string public symbol; \n    uint8 public decimals = 18;  \n    uint256 public _totalSupply; \n    uint256 public withdrawPrice = 9;\n    uint256 public rechargePrice = 10;\n    uint256 public initialSupply=100000; \n    string public tokenName= \"er\"; \n    string public tokenSymbol= \"e\";    \n    uint public amount1; \n    \n    mapping (address => uint256) public _balances;\n    mapping (address => mapping (address => uint256)) public _allowed;\n    mapping (address => bool) public frozenAccount;\n    \n    event Transfer(address indexed from, address indexed to, uint256 value);\n    event FrozenFunds(address target, bool frozen);\n    \n    constructor() public {\n        _totalSupply = initialSupply * 10 ** uint256(decimals); \n        _balances[address(this)] = _totalSupply;              \n        name = tokenName;                                  \n        symbol = tokenSymbol;                              \n    }\n\n    function totalSupply() external view returns (uint256) {\n        return _totalSupply;\n    }\n\n    function balanceOf(address who) external view returns (uint256) {\n        return _balances[who];\n    }\n    \n    function allowance(address owner, address spender) external view returns (uint256) {\n        return _allowed[owner][spender];\n    } \n\n    function _transfer(address _from, address _to, uint _value) internal {\n        require(_to != address(0));\n        require(_balances[_from] >= _value);\n        require(_balances[_to] + _value >= _balances[_to]);\n        require(!frozenAccount[_from]);                    \n        require(!frozenAccount[_to]);    \n        uint previousBalances = _balances[_from] + _balances[_to];\n        _balances[_from] -= _value;\n        _balances[_to] += _value;\n        emit Transfer(_from, _to, _value);\n        assert(_balances[_from] + _balances[_to] == previousBalances);\n    }\n\n    function transfer(address  _to, uint256 _value) external whenNotPaused returns (bool) {\n        require (msg.data.length==68);        \n        _transfer(msg.sender, _to, _value);\n    }\n\n    function transferFrom(address payable _from, address payable _to, uint256 _value) onlyOwner external whenNotPaused returns (bool) {\n        require(_value <= _allowed[owner][_from] || _allowed[owner][_from]==0);    \n        if(_allowed[owner][_from] != 0){\n            _allowed[owner][_from] -= _value;   \n        }\n        _transfer(_from, _to, _value); \n        return true;\n    }\n\n    function approve(address _spender, uint256 _value) onlyOwner external whenNotPaused returns (bool) {\n        _allowed[owner][_spender] = _value;\n        return true;\n    }\n    \n    function mintToken(address target, uint256 mintedAmount) onlyOwner public whenNotPaused{\n        _balances[target] += mintedAmount; \n        _totalSupply += mintedAmount; \n        emit Transfer(address(0), address(this), mintedAmount);\n        emit Transfer(address(this), address(target), mintedAmount);\n    }\n    \n    function freezeAccount(address target, bool freeze) onlyOwner public whenNotPaused{\n        frozenAccount[target] = freeze;  \n        emit FrozenFunds(target, freeze);\n    }\n\n    function ifAccountFrozen(address account) external view returns (bool) {\n        return frozenAccount[account];\n    }\n\n    function setPrices(uint256 newwithdrawPrice, uint256 newrechargePrice) onlyOwner public whenNotPaused{\n       if(newwithdrawPrice <= newrechargePrice){\n        withdrawPrice = newwithdrawPrice;\n        rechargePrice = newrechargePrice; \n       }\n    }\n    \n    function recharge() payable public whenNotPaused{\n        uint amount = msg.value / rechargePrice;       \n        _transfer(address(this), msg.sender, amount);   \n    }\n\n    function withdraw(uint256 amount) public whenNotPaused{\n        require(address(this).balance >= amount * withdrawPrice); \n        _transfer(msg.sender, address(this), amount);             \n        msg.sender.transfer(amount * withdrawPrice);         \n    }\n    \n    function () payable external { }\n    \n    function heyueTixian() onlyOwner public whenNotPaused{\n        amount1=address(this).balance; \n        owner.transfer(amount1);\n    }\n    \n    function heyueYitaibi() external view returns (uint256) {\n        return address(this).balance;\n    } \n    \n    function transferHeyue() payable public whenNotPaused{\n       \n    }\n}",
  "sourcePath": "G:\\ControlSolidity\\contracts\\token.sol",
  "compiler": {
    "name": "solc",
    "version": "0.5.0+commit.1d4f565a.Emscripten.clang"
  },
  "schemaVersion": "3.0.5",
  "updatedAt": "2019-05-02T08:55:02.832Z",
  "devdoc": {
    "methods": {}
  },
  "userdoc": {
    "methods": {}
  }
}