{
  "contractName": "transaction",
  "abi": [
    {
      "constant": true,
      "inputs": [],
      "name": "rechargePrice",
      "outputs": [
        {
          "name": "",
          "type": "uint256"
        }
      ],
      "payable": false,
      "stateMutability": "view",
      "type": "function"
    },
    {
      "constant": true,
      "inputs": [],
      "name": "returnContractAddress",
      "outputs": [
        {
          "name": "",
          "type": "address"
        }
      ],
      "payable": false,
      "stateMutability": "view",
      "type": "function"
    },
    {
      "constant": false,
      "inputs": [
        {
          "name": "newwithdrawPrice",
          "type": "uint256"
        },
        {
          "name": "newrechargePrice",
          "type": "uint256"
        }
      ],
      "name": "setPrices",
      "outputs": [],
      "payable": false,
      "stateMutability": "nonpayable",
      "type": "function"
    },
    {
      "constant": true,
      "inputs": [],
      "name": "name",
      "outputs": [
        {
          "name": "",
          "type": "string"
        }
      ],
      "payable": false,
      "stateMutability": "view",
      "type": "function"
    },
    {
      "constant": false,
      "inputs": [
        {
          "name": "_spender",
          "type": "address"
        },
        {
          "name": "_value",
          "type": "uint256"
        }
      ],
      "name": "approve",
      "outputs": [
        {
          "name": "",
          "type": "bool"
        }
      ],
      "payable": false,
      "stateMutability": "nonpayable",
      "type": "function"
    },
    {
      "constant": true,
      "inputs": [],
      "name": "totalSupply",
      "outputs": [
        {
          "name": "",
          "type": "uint256"
        }
      ],
      "payable": false,
      "stateMutability": "view",
      "type": "function"
    },
    {
      "constant": false,
      "inputs": [
        {
          "name": "_from",
          "type": "address"
        },
        {
          "name": "_to",
          "type": "address"
        },
        {
          "name": "_value",
          "type": "uint256"
        }
      ],
      "name": "transferFrom",
      "outputs": [
        {
          "name": "",
          "type": "bool"
        }
      ],
      "payable": false,
      "stateMutability": "nonpayable",
      "type": "function"
    },
    {
      "constant": false,
      "inputs": [
        {
          "name": "amount",
          "type": "uint256"
        }
      ],
      "name": "withdraw",
      "outputs": [],
      "payable": false,
      "stateMutability": "nonpayable",
      "type": "function"
    },
    {
      "constant": true,
      "inputs": [],
      "name": "decimals",
      "outputs": [
        {
          "name": "",
          "type": "uint8"
        }
      ],
      "payable": false,
      "stateMutability": "view",
      "type": "function"
    },
    {
      "constant": true,
      "inputs": [],
      "name": "initialSupply",
      "outputs": [
        {
          "name": "",
          "type": "uint256"
        }
      ],
      "payable": false,
      "stateMutability": "view",
      "type": "function"
    },
    {
      "constant": true,
      "inputs": [],
      "name": "_totalSupply",
      "outputs": [
        {
          "name": "",
          "type": "uint256"
        }
      ],
      "payable": false,
      "stateMutability": "view",
      "type": "function"
    },
    {
      "constant": false,
      "inputs": [],
      "name": "unpause",
      "outputs": [
        {
          "name": "",
          "type": "bool"
        }
      ],
      "payable": false,
      "stateMutability": "nonpayable",
      "type": "function"
    },
    {
      "constant": false,
      "inputs": [
        {
          "name": "_value",
          "type": "uint256"
        }
      ],
      "name": "burn",
      "outputs": [
        {
          "name": "success",
          "type": "bool"
        }
      ],
      "payable": false,
      "stateMutability": "nonpayable",
      "type": "function"
    },
    {
      "constant": false,
      "inputs": [],
      "name": "recharge",
      "outputs": [],
      "payable": true,
      "stateMutability": "payable",
      "type": "function"
    },
    {
      "constant": true,
      "inputs": [],
      "name": "paused",
      "outputs": [
        {
          "name": "",
          "type": "bool"
        }
      ],
      "payable": false,
      "stateMutability": "view",
      "type": "function"
    },
    {
      "constant": true,
      "inputs": [],
      "name": "tokenName",
      "outputs": [
        {
          "name": "",
          "type": "string"
        }
      ],
      "payable": false,
      "stateMutability": "view",
      "type": "function"
    },
    {
      "constant": true,
      "inputs": [
        {
          "name": "",
          "type": "address"
        }
      ],
      "name": "_balances",
      "outputs": [
        {
          "name": "",
          "type": "uint256"
        }
      ],
      "payable": false,
      "stateMutability": "view",
      "type": "function"
    },
    {
      "constant": true,
      "inputs": [
        {
          "name": "who",
          "type": "address"
        }
      ],
      "name": "balanceOf",
      "outputs": [
        {
          "name": "",
          "type": "uint256"
        }
      ],
      "payable": false,
      "stateMutability": "view",
      "type": "function"
    },
    {
      "constant": true,
      "inputs": [],
      "name": "withdrawPrice",
      "outputs": [
        {
          "name": "",
          "type": "uint256"
        }
      ],
      "payable": false,
      "stateMutability": "view",
      "type": "function"
    },
    {
      "constant": false,
      "inputs": [
        {
          "name": "target",
          "type": "address"
        },
        {
          "name": "mintedAmount",
          "type": "uint256"
        }
      ],
      "name": "mintToken",
      "outputs": [],
      "payable": false,
      "stateMutability": "nonpayable",
      "type": "function"
    },
    {
      "constant": false,
      "inputs": [
        {
          "name": "_from",
          "type": "address"
        },
        {
          "name": "_value",
          "type": "uint256"
        }
      ],
      "name": "burnFrom",
      "outputs": [
        {
          "name": "success",
          "type": "bool"
        }
      ],
      "payable": false,
      "stateMutability": "nonpayable",
      "type": "function"
    },
    {
      "constant": true,
      "inputs": [],
      "name": "tokenSymbol",
      "outputs": [
        {
          "name": "",
          "type": "string"
        }
      ],
      "payable": false,
      "stateMutability": "view",
      "type": "function"
    },
    {
      "constant": true,
      "inputs": [
        {
          "name": "account",
          "type": "address"
        }
      ],
      "name": "ifAccountFrozen",
      "outputs": [
        {
          "name": "",
          "type": "bool"
        }
      ],
      "payable": false,
      "stateMutability": "view",
      "type": "function"
    },
    {
      "constant": false,
      "inputs": [],
      "name": "pause",
      "outputs": [
        {
          "name": "",
          "type": "bool"
        }
      ],
      "payable": false,
      "stateMutability": "nonpayable",
      "type": "function"
    },
    {
      "constant": true,
      "inputs": [],
      "name": "heyueYitaibi",
      "outputs": [
        {
          "name": "",
          "type": "uint256"
        }
      ],
      "payable": false,
      "stateMutability": "view",
      "type": "function"
    },
    {
      "constant": true,
      "inputs": [],
      "name": "owner",
      "outputs": [
        {
          "name": "",
          "type": "address"
        }
      ],
      "payable": false,
      "stateMutability": "view",
      "type": "function"
    },
    {
      "constant": true,
      "inputs": [],
      "name": "symbol",
      "outputs": [
        {
          "name": "",
          "type": "string"
        }
      ],
      "payable": false,
      "stateMutability": "view",
      "type": "function"
    },
    {
      "constant": false,
      "inputs": [
        {
          "name": "_to",
          "type": "address"
        },
        {
          "name": "_value",
          "type": "uint256"
        }
      ],
      "name": "transfer",
      "outputs": [
        {
          "name": "",
          "type": "bool"
        }
      ],
      "payable": false,
      "stateMutability": "nonpayable",
      "type": "function"
    },
    {
      "constant": true,
      "inputs": [
        {
          "name": "",
          "type": "address"
        }
      ],
      "name": "frozenAccount",
      "outputs": [
        {
          "name": "",
          "type": "bool"
        }
      ],
      "payable": false,
      "stateMutability": "view",
      "type": "function"
    },
    {
      "constant": false,
      "inputs": [],
      "name": "transferHeyue",
      "outputs": [],
      "payable": true,
      "stateMutability": "payable",
      "type": "function"
    },
    {
      "constant": true,
      "inputs": [
        {
          "name": "owner",
          "type": "address"
        },
        {
          "name": "spender",
          "type": "address"
        }
      ],
      "name": "allowance",
      "outputs": [
        {
          "name": "",
          "type": "uint256"
        }
      ],
      "payable": false,
      "stateMutability": "view",
      "type": "function"
    },
    {
      "constant": false,
      "inputs": [
        {
          "name": "target",
          "type": "address"
        },
        {
          "name": "freeze",
          "type": "bool"
        }
      ],
      "name": "freezeAccount",
      "outputs": [],
      "payable": false,
      "stateMutability": "nonpayable",
      "type": "function"
    },
    {
      "constant": false,
      "inputs": [],
      "name": "heyueTixian",
      "outputs": [],
      "payable": false,
      "stateMutability": "nonpayable",
      "type": "function"
    },
    {
      "constant": false,
      "inputs": [
        {
          "name": "newOwner",
          "type": "address"
        }
      ],
      "name": "transferOwnership",
      "outputs": [],
      "payable": false,
      "stateMutability": "nonpayable",
      "type": "function"
    },
    {
      "constant": true,
      "inputs": [],
      "name": "amount1",
      "outputs": [
        {
          "name": "",
          "type": "uint256"
        }
      ],
      "payable": false,
      "stateMutability": "view",
      "type": "function"
    },
    {
      "payable": true,
      "stateMutability": "payable",
      "type": "fallback"
    },
    {
      "anonymous": false,
      "inputs": [
        {
          "indexed": false,
          "name": "target",
          "type": "address"
        },
        {
          "indexed": false,
          "name": "success",
          "type": "bool"
        }
      ],
      "name": "SuccessFunds",
      "type": "event"
    },
    {
      "anonymous": false,
      "inputs": [
        {
          "indexed": false,
          "name": "target",
          "type": "address"
        },
        {
          "indexed": false,
          "name": "frozen",
          "type": "bool"
        }
      ],
      "name": "FrozenFunds",
      "type": "event"
    },
    {
      "anonymous": false,
      "inputs": [
        {
          "indexed": true,
          "name": "from",
          "type": "address"
        },
        {
          "indexed": true,
          "name": "to",
          "type": "address"
        },
        {
          "indexed": false,
          "name": "value",
          "type": "uint256"
        }
      ],
      "name": "Transfer",
      "type": "event"
    },
    {
      "anonymous": false,
      "inputs": [
        {
          "indexed": true,
          "name": "from",
          "type": "address"
        },
        {
          "indexed": false,
          "name": "value",
          "type": "uint256"
        }
      ],
      "name": "Burn",
      "type": "event"
    },
    {
      "anonymous": false,
      "inputs": [],
      "name": "Pause",
      "type": "event"
    },
    {
      "anonymous": false,
      "inputs": [],
      "name": "Unpause",
      "type": "event"
    },
    {
      "constant": false,
      "inputs": [
        {
          "name": "newfeeProportion",
          "type": "uint256"
        },
        {
          "name": "newcommissionProportion",
          "type": "uint256"
        }
      ],
      "name": "setProportion",
      "outputs": [],
      "payable": false,
      "stateMutability": "nonpayable",
      "type": "function"
    },
    {
      "constant": true,
      "inputs": [
        {
          "name": "who",
          "type": "address"
        }
      ],
      "name": "Lastbuytime",
      "outputs": [
        {
          "name": "",
          "type": "uint256"
        }
      ],
      "payable": false,
      "stateMutability": "view",
      "type": "function"
    },
    {
      "constant": true,
      "inputs": [
        {
          "name": "who",
          "type": "address"
        }
      ],
      "name": "Buycontributionvalue",
      "outputs": [
        {
          "name": "",
          "type": "uint256"
        }
      ],
      "payable": false,
      "stateMutability": "view",
      "type": "function"
    },
    {
      "constant": true,
      "inputs": [
        {
          "name": "who",
          "type": "address"
        }
      ],
      "name": "Sellcontributionvalue",
      "outputs": [
        {
          "name": "",
          "type": "uint256"
        }
      ],
      "payable": false,
      "stateMutability": "view",
      "type": "function"
    },
    {
      "constant": true,
      "inputs": [
        {
          "name": "who",
          "type": "address"
        }
      ],
      "name": "Totalbuyerpayment",
      "outputs": [
        {
          "name": "",
          "type": "uint256"
        }
      ],
      "payable": false,
      "stateMutability": "view",
      "type": "function"
    },
    {
      "constant": true,
      "inputs": [
        {
          "name": "who",
          "type": "address"
        }
      ],
      "name": "Totalsellercollection",
      "outputs": [
        {
          "name": "",
          "type": "uint256"
        }
      ],
      "payable": false,
      "stateMutability": "view",
      "type": "function"
    },
    {
      "constant": true,
      "inputs": [
        {
          "name": "who",
          "type": "address"
        },
        {
          "name": "i",
          "type": "uint256"
        }
      ],
      "name": "Sellercredit",
      "outputs": [
        {
          "name": "",
          "type": "uint256"
        }
      ],
      "payable": false,
      "stateMutability": "view",
      "type": "function"
    },
    {
      "constant": false,
      "inputs": [
        {
          "name": "_to",
          "type": "address"
        },
        {
          "name": "totalprice",
          "type": "uint256"
        },
        {
          "name": "_from",
          "type": "address"
        }
      ],
      "name": "beforeDataTransaction",
      "outputs": [],
      "payable": false,
      "stateMutability": "nonpayable",
      "type": "function"
    },
    {
      "constant": false,
      "inputs": [
        {
          "name": "_from",
          "type": "address"
        },
        {
          "name": "_to",
          "type": "address"
        },
        {
          "name": "totalprice",
          "type": "uint256"
        },
        {
          "name": "buyergrade",
          "type": "uint8"
        }
      ],
      "name": "afterDataTransaction",
      "outputs": [],
      "payable": false,
      "stateMutability": "nonpayable",
      "type": "function"
    },
    {
      "constant": false,
      "inputs": [
        {
          "name": "_from",
          "type": "address"
        },
        {
          "name": "_to",
          "type": "address"
        },
        {
          "name": "totalprice",
          "type": "uint256"
        }
      ],
      "name": "dataTransactionRefund",
      "outputs": [],
      "payable": false,
      "stateMutability": "nonpayable",
      "type": "function"
    },
    {
      "constant": false,
      "inputs": [
        {
          "name": "addressNumber",
          "type": "uint256"
        },
        {
          "name": "value",
          "type": "uint256"
        },
        {
          "name": "_from",
          "type": "address"
        }
      ],
      "name": "beforeRealTimeTransaction",
      "outputs": [],
      "payable": false,
      "stateMutability": "nonpayable",
      "type": "function"
    },
    {
      "constant": false,
      "inputs": [
        {
          "name": "_from",
          "type": "address"
        },
        {
          "name": "_to",
          "type": "address[]"
        },
        {
          "name": "value",
          "type": "uint256"
        },
        {
          "name": "buyergrade",
          "type": "uint8"
        }
      ],
      "name": "afterRealTimeTransaction",
      "outputs": [],
      "payable": false,
      "stateMutability": "nonpayable",
      "type": "function"
    },
    {
      "constant": false,
      "inputs": [
        {
          "name": "_from",
          "type": "address"
        },
        {
          "name": "_to",
          "type": "address[]"
        },
        {
          "name": "value",
          "type": "uint256"
        }
      ],
      "name": "realTimeTransactionRefund",
      "outputs": [],
      "payable": false,
      "stateMutability": "nonpayable",
      "type": "function"
    }
  ],
  "bytecode": "0x608060405260008060146101000a81548160ff0219169083151502179055506012600360006101000a81548160ff021916908360ff1602179055506009600755600a600855620186a06009556040805190810160405280600281526020017f6572000000000000000000000000000000000000000000000000000000000000815250600a90805190602001906200009892919062000312565b506040805190810160405280600181526020017f6500000000000000000000000000000000000000000000000000000000000000815250600b9080519060200190620000e692919062000312565b506103e8601b556064601c55600954600a8054600181600116156101000203166002900480601f0160208091040260200160405190810160405280929190818152602001828054600181600116156101000203166002900480156200018f5780601f1062000163576101008083540402835291602001916200018f565b820191906000526020600020905b8154815290600101906020018083116200017157829003601f168201915b5050505050600b8054600181600116156101000203166002900480601f0160208091040260200160405190810160405280929190818152602001828054600181600116156101000203166002900480156200022e5780601f1062000202576101008083540402835291602001916200022e565b820191906000526020600020905b8154815290600101906020018083116200021057829003601f168201915b5050505050336000806101000a81548173ffffffffffffffffffffffffffffffffffffffff021916908373ffffffffffffffffffffffffffffffffffffffff160217905550600360009054906101000a900460ff1660ff16600a0a8302600481905550600454600560003073ffffffffffffffffffffffffffffffffffffffff1673ffffffffffffffffffffffffffffffffffffffff168152602001908152602001600020819055508160019080519060200190620002ef92919062000312565b5080600290805190602001906200030892919062000312565b50505050620003c1565b828054600181600116156101000203166002900490600052602060002090601f016020900481019282601f106200035557805160ff191683800117855562000386565b8280016001018555821562000386579182015b828111156200038557825182559160200191906001019062000368565b5b50905062000395919062000399565b5090565b620003be91905b80821115620003ba576000816000905550600101620003a0565b5090565b90565b61500480620003d16000396000f3fe608060405260043610610246576000357c0100000000000000000000000000000000000000000000000000000000900463ffffffff16806302b090c11461024857806304a85dfa146102735780630589a27c1461036257806305fefda7146103b957806306fdde03146103fe578063095ea7b31461048e5780630a3894dc1461050157806315666013146105665780631595a422146105cb57806318160ddd146106305780631ee71c711461065b57806323b872dd146106e357806324921cd2146107765780632e1a7d4d146107db578063313ce5671461081657806333d34b9214610847578063378dc3dc146108ac5780633eaaf86b146108d75780633f4ba83a1461090257806342966c68146109315780634cddae28146109845780635c975abb1461098e5780636c02a931146109bd5780636ebcf60714610a4d57806370a0823114610ab2578063777bf2a514610b175780637918447e14610b8657806379c6506814610bb157806379cc679014610c0c5780637b61c32014610c7f5780637c28248c14610d0f5780637fed80bb14610d8a5780638456cb5914610df3578063863e429914610e225780638da5cb5b14610e4d57806391bbf43414610ea457806395d89b4114610ee95780639bab5e4914610f79578063a9059cbb14610ff4578063b414d4b614611067578063ceaf7fb2146110d0578063d6a39ab6146110da578063dd62ed3e1461113f578063e724529c146111c4578063e764c6e114611221578063eef71d6f1461131d578063f2fde38b14611334578063f400fde414611385575b005b34801561025457600080fd5b5061025d6113b0565b6040518082815260200191505060405180910390f35b34801561027f57600080fd5b506103606004803603606081101561029657600080fd5b81019080803573ffffffffffffffffffffffffffffffffffffffff169060200190929190803590602001906401000000008111156102d357600080fd5b8201836020820111156102e557600080fd5b8035906020019184602083028401116401000000008311171561030757600080fd5b919080806020026020016040519081016040528093929190818152602001838360200280828437600081840152601f19601f820116905080830192505050505050509192919290803590602001909291905050506113b6565b005b34801561036e57600080fd5b5061037761147e565b604051808273ffffffffffffffffffffffffffffffffffffffff1673ffffffffffffffffffffffffffffffffffffffff16815260200191505060405180910390f35b3480156103c557600080fd5b506103fc600480360360408110156103dc57600080fd5b810190808035906020019092919080359060200190929190505050611486565b005b34801561040a57600080fd5b50610413611519565b6040518080602001828103825283818151815260200191508051906020019080838360005b83811015610453578082015181840152602081019050610438565b50505050905090810190601f1680156104805780820380516001836020036101000a031916815260200191505b509250505060405180910390f35b34801561049a57600080fd5b506104e7600480360360408110156104b157600080fd5b81019080803573ffffffffffffffffffffffffffffffffffffffff169060200190929190803590602001909291905050506115b7565b604051808215151515815260200191505060405180910390f35b34801561050d57600080fd5b506105506004803603602081101561052457600080fd5b81019080803573ffffffffffffffffffffffffffffffffffffffff1690602001909291905050506116dc565b6040518082815260200191505060405180910390f35b34801561057257600080fd5b506105c96004803603606081101561058957600080fd5b810190808035906020019092919080359060200190929190803573ffffffffffffffffffffffffffffffffffffffff169060200190929190505050611725565b005b3480156105d757600080fd5b5061061a600480360360208110156105ee57600080fd5b81019080803573ffffffffffffffffffffffffffffffffffffffff169060200190929190505050611836565b6040518082815260200191505060405180910390f35b34801561063c57600080fd5b5061064561187f565b6040518082815260200191505060405180910390f35b34801561066757600080fd5b506106e16004803603608081101561067e57600080fd5b81019080803573ffffffffffffffffffffffffffffffffffffffff169060200190929190803573ffffffffffffffffffffffffffffffffffffffff16906020019092919080359060200190929190803560ff169060200190929190505050611889565b005b3480156106ef57600080fd5b5061075c6004803603606081101561070657600080fd5b81019080803573ffffffffffffffffffffffffffffffffffffffff169060200190929190803573ffffffffffffffffffffffffffffffffffffffff1690602001909291908035906020019092919050505061194c565b604051808215151515815260200191505060405180910390f35b34801561078257600080fd5b506107c56004803603602081101561079957600080fd5b81019080803573ffffffffffffffffffffffffffffffffffffffff169060200190929190505050611c82565b6040518082815260200191505060405180910390f35b3480156107e757600080fd5b50610814600480360360208110156107fe57600080fd5b8101908080359060200190929190505050611ccb565b005b34801561082257600080fd5b5061082b611d6a565b604051808260ff1660ff16815260200191505060405180910390f35b34801561085357600080fd5b506108966004803603602081101561086a57600080fd5b81019080803573ffffffffffffffffffffffffffffffffffffffff169060200190929190505050611d7d565b6040518082815260200191505060405180910390f35b3480156108b857600080fd5b506108c1611dc6565b6040518082815260200191505060405180910390f35b3480156108e357600080fd5b506108ec611dcc565b6040518082815260200191505060405180910390f35b34801561090e57600080fd5b50610917611dd2565b604051808215151515815260200191505060405180910390f35b34801561093d57600080fd5b5061096a6004803603602081101561095457600080fd5b8101908080359060200190929190505050611e97565b604051808215151515815260200191505060405180910390f35b61098c612012565b005b34801561099a57600080fd5b506109a361204e565b604051808215151515815260200191505060405180910390f35b3480156109c957600080fd5b506109d2612061565b6040518080602001828103825283818151815260200191508051906020019080838360005b83811015610a125780820151818401526020810190506109f7565b50505050905090810190601f168015610a3f5780820380516001836020036101000a031916815260200191505b509250505060405180910390f35b348015610a5957600080fd5b50610a9c60048036036020811015610a7057600080fd5b81019080803573ffffffffffffffffffffffffffffffffffffffff1690602001909291905050506120ff565b6040518082815260200191505060405180910390f35b348015610abe57600080fd5b50610b0160048036036020811015610ad557600080fd5b81019080803573ffffffffffffffffffffffffffffffffffffffff169060200190929190505050612117565b6040518082815260200191505060405180910390f35b348015610b2357600080fd5b50610b7060048036036040811015610b3a57600080fd5b81019080803573ffffffffffffffffffffffffffffffffffffffff16906020019092919080359060200190929190505050612160565b6040518082815260200191505060405180910390f35b348015610b9257600080fd5b50610b9b6121cf565b6040518082815260200191505060405180910390f35b348015610bbd57600080fd5b50610c0a60048036036040811015610bd457600080fd5b81019080803573ffffffffffffffffffffffffffffffffffffffff169060200190929190803590602001909291905050506121d5565b005b348015610c1857600080fd5b50610c6560048036036040811015610c2f57600080fd5b81019080803573ffffffffffffffffffffffffffffffffffffffff16906020019092919080359060200190929190505050612378565b604051808215151515815260200191505060405180910390f35b348015610c8b57600080fd5b50610c946124f4565b6040518080602001828103825283818151815260200191508051906020019080838360005b83811015610cd4578082015181840152602081019050610cb9565b50505050905090810190601f168015610d015780820380516001836020036101000a031916815260200191505b509250505060405180910390f35b348015610d1b57600080fd5b50610d8860048036036060811015610d3257600080fd5b81019080803573ffffffffffffffffffffffffffffffffffffffff169060200190929190803573ffffffffffffffffffffffffffffffffffffffff16906020019092919080359060200190929190505050612592565b005b348015610d9657600080fd5b50610dd960048036036020811015610dad57600080fd5b81019080803573ffffffffffffffffffffffffffffffffffffffff1690602001909291905050506125ec565b604051808215151515815260200191505060405180910390f35b348015610dff57600080fd5b50610e08612642565b604051808215151515815260200191505060405180910390f35b348015610e2e57600080fd5b50610e37612709565b6040518082815260200191505060405180910390f35b348015610e5957600080fd5b50610e62612728565b604051808273ffffffffffffffffffffffffffffffffffffffff1673ffffffffffffffffffffffffffffffffffffffff16815260200191505060405180910390f35b348015610eb057600080fd5b50610ee760048036036040811015610ec757600080fd5b81019080803590602001909291908035906020019092919050505061274d565b005b348015610ef557600080fd5b50610efe6127d6565b6040518080602001828103825283818151815260200191508051906020019080838360005b83811015610f3e578082015181840152602081019050610f23565b50505050905090810190601f168015610f6b5780820380516001836020036101000a031916815260200191505b509250505060405180910390f35b348015610f8557600080fd5b50610ff260048036036060811015610f9c57600080fd5b81019080803573ffffffffffffffffffffffffffffffffffffffff16906020019092919080359060200190929190803573ffffffffffffffffffffffffffffffffffffffff169060200190929190505050612874565b005b34801561100057600080fd5b5061104d6004803603604081101561101757600080fd5b81019080803573ffffffffffffffffffffffffffffffffffffffff169060200190929190803590602001909291905050506129d3565b604051808215151515815260200191505060405180910390f35b34801561107357600080fd5b506110b66004803603602081101561108a57600080fd5b81019080803573ffffffffffffffffffffffffffffffffffffffff169060200190929190505050612a14565b604051808215151515815260200191505060405180910390f35b6110d8612a34565b005b3480156110e657600080fd5b50611129600480360360208110156110fd57600080fd5b81019080803573ffffffffffffffffffffffffffffffffffffffff169060200190929190505050612a52565b6040518082815260200191505060405180910390f35b34801561114b57600080fd5b506111ae6004803603604081101561116257600080fd5b81019080803573ffffffffffffffffffffffffffffffffffffffff169060200190929190803573ffffffffffffffffffffffffffffffffffffffff169060200190929190505050612a9b565b6040518082815260200191505060405180910390f35b3480156111d057600080fd5b5061121f600480360360408110156111e757600080fd5b81019080803573ffffffffffffffffffffffffffffffffffffffff169060200190929190803515159060200190929190505050612b22565b005b34801561122d57600080fd5b5061131b6004803603608081101561124457600080fd5b81019080803573ffffffffffffffffffffffffffffffffffffffff1690602001909291908035906020019064010000000081111561128157600080fd5b82018360208201111561129357600080fd5b803590602001918460208302840111640100000000831117156112b557600080fd5b919080806020026020016040519081016040528093929190818152602001838360200280828437600081840152601f19601f82011690508083019250505050505050919291929080359060200190929190803560ff169060200190929190505050612c63565b005b34801561132957600080fd5b50611332612ded565b005b34801561134057600080fd5b506113836004803603602081101561135757600080fd5b81019080803573ffffffffffffffffffffffffffffffffffffffff169060200190929190505050612eee565b005b34801561139157600080fd5b5061139a612fc8565b6040518082815260200191505060405180910390f35b60085481565b600060149054906101000a900460ff161515156113d257600080fd5b80825102601d819055506113e7601d54612fce565b6018819055506113fa3084601854613030565b60008090505b82518110156114785761142b838281518110151561141a57fe5b9060200190602002015160016132ff565b61144b838281518110151561143c57fe5b90602001906020020151613435565b61146b838281518110151561145c57fe5b906020019060200201516139b1565b8080600101915050611400565b50505050565b600030905090565b6000809054906101000a900473ffffffffffffffffffffffffffffffffffffffff1673ffffffffffffffffffffffffffffffffffffffff163373ffffffffffffffffffffffffffffffffffffffff161415156114e157600080fd5b600060149054906101000a900460ff161515156114fd57600080fd5b80821115156115155781600781905550806008819055505b5050565b60018054600181600116156101000203166002900480601f0160208091040260200160405190810160405280929190818152602001828054600181600116156101000203166002900480156115af5780601f10611584576101008083540402835291602001916115af565b820191906000526020600020905b81548152906001019060200180831161159257829003601f168201915b505050505081565b60008060009054906101000a900473ffffffffffffffffffffffffffffffffffffffff1673ffffffffffffffffffffffffffffffffffffffff163373ffffffffffffffffffffffffffffffffffffffff1614151561161457600080fd5b600060149054906101000a900460ff1615151561163057600080fd5b81600660008060009054906101000a900473ffffffffffffffffffffffffffffffffffffffff1673ffffffffffffffffffffffffffffffffffffffff1673ffffffffffffffffffffffffffffffffffffffff16815260200190815260200160002060008573ffffffffffffffffffffffffffffffffffffffff1673ffffffffffffffffffffffffffffffffffffffff168152602001908152602001600020819055506001905092915050565b6000602060008373ffffffffffffffffffffffffffffffffffffffff1673ffffffffffffffffffffffffffffffffffffffff168152602001908152602001600020549050919050565b600060149054906101000a900460ff1615151561174157600080fd5b600d60008273ffffffffffffffffffffffffffffffffffffffff1673ffffffffffffffffffffffffffffffffffffffff16815260200190815260200160002060009054906101000a900460ff1615151561179a57600080fd5b818302601d819055506117ae601d54612fce565b6018819055506117c18130601854613030565b7f4656763aeb5076063b1b9201e728e03b650c4e545b46330125af5d01c01fae56816001604051808373ffffffffffffffffffffffffffffffffffffffff1673ffffffffffffffffffffffffffffffffffffffff168152602001821515151581526020019250505060405180910390a1505050565b6000602160008373ffffffffffffffffffffffffffffffffffffffff1673ffffffffffffffffffffffffffffffffffffffff168152602001908152602001600020549050919050565b6000600454905090565b600060149054906101000a900460ff161515156118a557600080fd5b6118ae82613f30565b6019819055506118be8284613f92565b6019600082825401925050819055506118da3084601954613030565b6118e582858361430a565b6015819055506118f83085601554613030565b6119028483614684565b61190c83836146fe565b6119168483614778565b61192083836147e5565b61192b8360026132ff565b611934836139b1565b61193d83613435565b61194684614852565b50505050565b60008060009054906101000a900473ffffffffffffffffffffffffffffffffffffffff1673ffffffffffffffffffffffffffffffffffffffff163373ffffffffffffffffffffffffffffffffffffffff161415156119a957600080fd5b600060149054906101000a900460ff161515156119c557600080fd5b600660008060009054906101000a900473ffffffffffffffffffffffffffffffffffffffff1673ffffffffffffffffffffffffffffffffffffffff1673ffffffffffffffffffffffffffffffffffffffff16815260200190815260200160002060008573ffffffffffffffffffffffffffffffffffffffff1673ffffffffffffffffffffffffffffffffffffffff1681526020019081526020016000205482111580611b0e57506000600660008060009054906101000a900473ffffffffffffffffffffffffffffffffffffffff1673ffffffffffffffffffffffffffffffffffffffff1673ffffffffffffffffffffffffffffffffffffffff16815260200190815260200160002060008673ffffffffffffffffffffffffffffffffffffffff1673ffffffffffffffffffffffffffffffffffffffff16815260200190815260200160002054145b1515611b1957600080fd5b6000600660008060009054906101000a900473ffffffffffffffffffffffffffffffffffffffff1673ffffffffffffffffffffffffffffffffffffffff1673ffffffffffffffffffffffffffffffffffffffff16815260200190815260200160002060008673ffffffffffffffffffffffffffffffffffffffff1673ffffffffffffffffffffffffffffffffffffffff16815260200190815260200160002054141515611c6c5781600660008060009054906101000a900473ffffffffffffffffffffffffffffffffffffffff1673ffffffffffffffffffffffffffffffffffffffff1673ffffffffffffffffffffffffffffffffffffffff16815260200190815260200160002060008673ffffffffffffffffffffffffffffffffffffffff1673ffffffffffffffffffffffffffffffffffffffff168152602001908152602001600020600082825403925050819055505b611c77848484613030565b600190509392505050565b6000601f60008373ffffffffffffffffffffffffffffffffffffffff1673ffffffffffffffffffffffffffffffffffffffff168152602001908152602001600020549050919050565b600060149054906101000a900460ff16151515611ce757600080fd5b60075481023073ffffffffffffffffffffffffffffffffffffffff163110151515611d1157600080fd5b611d1c333083613030565b3373ffffffffffffffffffffffffffffffffffffffff166108fc60075483029081150290604051600060405180830381858888f19350505050158015611d66573d6000803e3d6000fd5b5050565b600360009054906101000a900460ff1681565b6000602460008373ffffffffffffffffffffffffffffffffffffffff1673ffffffffffffffffffffffffffffffffffffffff168152602001908152602001600020549050919050565b60095481565b60045481565b60008060009054906101000a900473ffffffffffffffffffffffffffffffffffffffff1673ffffffffffffffffffffffffffffffffffffffff163373ffffffffffffffffffffffffffffffffffffffff16141515611e2f57600080fd5b600060149054906101000a900460ff161515611e4a57600080fd5b60008060146101000a81548160ff0219169083151502179055507f7805862f689e2f13df9f062ff482ad3ad112aca9e0847911ed832e158c525b3360405160405180910390a16001905090565b60008060009054906101000a900473ffffffffffffffffffffffffffffffffffffffff1673ffffffffffffffffffffffffffffffffffffffff163373ffffffffffffffffffffffffffffffffffffffff16141515611ef457600080fd5b600060149054906101000a900460ff16151515611f1057600080fd5b81600560003073ffffffffffffffffffffffffffffffffffffffff1673ffffffffffffffffffffffffffffffffffffffff1681526020019081526020016000205410151515611f5e57600080fd5b81600560003073ffffffffffffffffffffffffffffffffffffffff1673ffffffffffffffffffffffffffffffffffffffff16815260200190815260200160002060008282540392505081905550816004600082825403925050819055503073ffffffffffffffffffffffffffffffffffffffff167fcc16f5dbb4873280815c1ee09dbd06736cffcc184412cf7a71a0fdb75d397ca5836040518082815260200191505060405180910390a260019050919050565b600060149054906101000a900460ff1615151561202e57600080fd5b60006008543481151561203d57fe5b04905061204b303383613030565b50565b600060149054906101000a900460ff1681565b600a8054600181600116156101000203166002900480601f0160208091040260200160405190810160405280929190818152602001828054600181600116156101000203166002900480156120f75780601f106120cc576101008083540402835291602001916120f7565b820191906000526020600020905b8154815290600101906020018083116120da57829003601f168201915b505050505081565b60056020528060005260406000206000915090505481565b6000600560008373ffffffffffffffffffffffffffffffffffffffff1673ffffffffffffffffffffffffffffffffffffffff168152602001908152602001600020549050919050565b6000602260008473ffffffffffffffffffffffffffffffffffffffff1673ffffffffffffffffffffffffffffffffffffffff168152602001908152602001600020826003811015156121ae57fe5b602091828204019190069054906101000a900460ff1660ff16905092915050565b60075481565b6000809054906101000a900473ffffffffffffffffffffffffffffffffffffffff1673ffffffffffffffffffffffffffffffffffffffff163373ffffffffffffffffffffffffffffffffffffffff1614151561223057600080fd5b600060149054906101000a900460ff1615151561224c57600080fd5b80600560008473ffffffffffffffffffffffffffffffffffffffff1673ffffffffffffffffffffffffffffffffffffffff16815260200190815260200160002060008282540192505081905550806004600082825401925050819055503073ffffffffffffffffffffffffffffffffffffffff16600073ffffffffffffffffffffffffffffffffffffffff167fddf252ad1be2c89b69c2b068fc378daa952ba7f163c4a11628f55a4df523b3ef836040518082815260200191505060405180910390a38173ffffffffffffffffffffffffffffffffffffffff163073ffffffffffffffffffffffffffffffffffffffff167fddf252ad1be2c89b69c2b068fc378daa952ba7f163c4a11628f55a4df523b3ef836040518082815260200191505060405180910390a35050565b60008060009054906101000a900473ffffffffffffffffffffffffffffffffffffffff1673ffffffffffffffffffffffffffffffffffffffff163373ffffffffffffffffffffffffffffffffffffffff161415156123d557600080fd5b600060149054906101000a900460ff161515156123f157600080fd5b81600560008573ffffffffffffffffffffffffffffffffffffffff1673ffffffffffffffffffffffffffffffffffffffff168152602001908152602001600020541015151561243f57600080fd5b81600560008573ffffffffffffffffffffffffffffffffffffffff1673ffffffffffffffffffffffffffffffffffffffff16815260200190815260200160002060008282540392505081905550816004600082825403925050819055508273ffffffffffffffffffffffffffffffffffffffff167fcc16f5dbb4873280815c1ee09dbd06736cffcc184412cf7a71a0fdb75d397ca5836040518082815260200191505060405180910390a26001905092915050565b600b8054600181600116156101000203166002900480601f01602080910402602001604051908101604052809291908181526020018280546001816001161561010002031660029004801561258a5780601f1061255f5761010080835404028352916020019161258a565b820191906000526020600020905b81548152906001019060200180831161256d57829003601f168201915b505050505081565b600060149054906101000a900460ff161515156125ae57600080fd5b6125b781612fce565b6018819055506125ca3084601854613030565b6125d58260016132ff565b6125de82613435565b6125e7826139b1565b505050565b6000600d60008373ffffffffffffffffffffffffffffffffffffffff1673ffffffffffffffffffffffffffffffffffffffff16815260200190815260200160002060009054906101000a900460ff169050919050565b60008060009054906101000a900473ffffffffffffffffffffffffffffffffffffffff1673ffffffffffffffffffffffffffffffffffffffff163373ffffffffffffffffffffffffffffffffffffffff1614151561269f57600080fd5b600060149054906101000a900460ff161515156126bb57600080fd5b6001600060146101000a81548160ff0219169083151502179055507f6985a02210a168e66602d3235cb6db0e70f92b3ba4d376a33c0f3d9434bff62560405160405180910390a16001905090565b60003073ffffffffffffffffffffffffffffffffffffffff1631905090565b6000809054906101000a900473ffffffffffffffffffffffffffffffffffffffff1681565b6000809054906101000a900473ffffffffffffffffffffffffffffffffffffffff1673ffffffffffffffffffffffffffffffffffffffff163373ffffffffffffffffffffffffffffffffffffffff161415156127a857600080fd5b600060149054906101000a900460ff161515156127c457600080fd5b81601b8190555080601c819055505050565b60028054600181600116156101000203166002900480601f01602080910402602001604051908101604052809291908181526020018280546001816001161561010002031660029004801561286c5780601f106128415761010080835404028352916020019161286c565b820191906000526020600020905b81548152906001019060200180831161284f57829003601f168201915b505050505081565b600060149054906101000a900460ff1615151561289057600080fd5b600d60008273ffffffffffffffffffffffffffffffffffffffff1673ffffffffffffffffffffffffffffffffffffffff16815260200190815260200160002060009054906101000a900460ff161515156128e957600080fd5b600d60008473ffffffffffffffffffffffffffffffffffffffff1673ffffffffffffffffffffffffffffffffffffffff16815260200190815260200160002060009054906101000a900460ff1615151561294257600080fd5b61294b82612fce565b60188190555061295e8130601854613030565b7f4656763aeb5076063b1b9201e728e03b650c4e545b46330125af5d01c01fae56816001604051808373ffffffffffffffffffffffffffffffffffffffff1673ffffffffffffffffffffffffffffffffffffffff168152602001821515151581526020019250505060405180910390a1505050565b60008060149054906101000a900460ff161515156129f057600080fd5b60446000369050141515612a0357600080fd5b612a0e338484613030565b92915050565b600d6020528060005260406000206000915054906101000a900460ff1681565b600060149054906101000a900460ff16151515612a5057600080fd5b565b6000602360008373ffffffffffffffffffffffffffffffffffffffff1673ffffffffffffffffffffffffffffffffffffffff168152602001908152602001600020549050919050565b6000600660008473ffffffffffffffffffffffffffffffffffffffff1673ffffffffffffffffffffffffffffffffffffffff16815260200190815260200160002060008373ffffffffffffffffffffffffffffffffffffffff1673ffffffffffffffffffffffffffffffffffffffff16815260200190815260200160002054905092915050565b6000809054906101000a900473ffffffffffffffffffffffffffffffffffffffff1673ffffffffffffffffffffffffffffffffffffffff163373ffffffffffffffffffffffffffffffffffffffff16141515612b7d57600080fd5b600060149054906101000a900460ff16151515612b9957600080fd5b80600d60008473ffffffffffffffffffffffffffffffffffffffff1673ffffffffffffffffffffffffffffffffffffffff16815260200190815260200160002060006101000a81548160ff0219169083151502179055507f48335238b4855f35377ed80f164e8c6f3c366e54ac00b96a6402d4a9814a03a58282604051808373ffffffffffffffffffffffffffffffffffffffff1673ffffffffffffffffffffffffffffffffffffffff168152602001821515151581526020019250505060405180910390a15050565b600060149054906101000a900460ff16151515612c7f57600080fd5b60008090505b8351811015612da257612c9783613f30565b601981905550612cbe838583815181101515612caf57fe5b90602001906020020151613f92565b601960008282540192505081905550612cf1308583815181101515612cdf57fe5b90602001906020020151601954613030565b612d128482815181101515612d0257fe5b90602001906020020151846146fe565b612d338482815181101515612d2357fe5b90602001906020020151846147e5565b612d558482815181101515612d4457fe5b9060200190602002015160026132ff565b612d758482815181101515612d6657fe5b906020019060200201516139b1565b612d958482815181101515612d8657fe5b90602001906020020151613435565b8080600101915050612c85565b50612db183518302858361430a565b601581905550612dc43085601554613030565b612dd18484518402614684565b612dde8484518402614778565b612de784614852565b50505050565b6000809054906101000a900473ffffffffffffffffffffffffffffffffffffffff1673ffffffffffffffffffffffffffffffffffffffff163373ffffffffffffffffffffffffffffffffffffffff16141515612e4857600080fd5b600060149054906101000a900460ff16151515612e6457600080fd5b3073ffffffffffffffffffffffffffffffffffffffff1631600c819055506000809054906101000a900473ffffffffffffffffffffffffffffffffffffffff1673ffffffffffffffffffffffffffffffffffffffff166108fc600c549081150290604051600060405180830381858888f19350505050158015612eeb573d6000803e3d6000fd5b50565b6000809054906101000a900473ffffffffffffffffffffffffffffffffffffffff1673ffffffffffffffffffffffffffffffffffffffff163373ffffffffffffffffffffffffffffffffffffffff16141515612f4957600080fd5b600073ffffffffffffffffffffffffffffffffffffffff168173ffffffffffffffffffffffffffffffffffffffff1614151515612f8557600080fd5b806000806101000a81548173ffffffffffffffffffffffffffffffffffffffff021916908373ffffffffffffffffffffffffffffffffffffffff16021790555050565b600c5481565b60008060149054906101000a900460ff16151515612feb57600080fd5b601b5482811515612ff857fe5b04601781905550600060175414151561301b578160175401601881905550613026565b816001016018819055505b6018549050919050565b600073ffffffffffffffffffffffffffffffffffffffff168273ffffffffffffffffffffffffffffffffffffffff161415151561306c57600080fd5b80600560008573ffffffffffffffffffffffffffffffffffffffff1673ffffffffffffffffffffffffffffffffffffffff16815260200190815260200160002054101515156130ba57600080fd5b600560008373ffffffffffffffffffffffffffffffffffffffff1673ffffffffffffffffffffffffffffffffffffffff1681526020019081526020016000205481600560008573ffffffffffffffffffffffffffffffffffffffff1673ffffffffffffffffffffffffffffffffffffffff16815260200190815260200160002054011015151561314957600080fd5b600d60008473ffffffffffffffffffffffffffffffffffffffff1673ffffffffffffffffffffffffffffffffffffffff16815260200190815260200160002060009054906101000a900460ff161515156131a257600080fd5b600d60008373ffffffffffffffffffffffffffffffffffffffff1673ffffffffffffffffffffffffffffffffffffffff16815260200190815260200160002060009054906101000a900460ff161515156131fb57600080fd5b80600560008573ffffffffffffffffffffffffffffffffffffffff1673ffffffffffffffffffffffffffffffffffffffff1681526020019081526020016000206000828254039250508190555080600560008473ffffffffffffffffffffffffffffffffffffffff1673ffffffffffffffffffffffffffffffffffffffff168152602001908152602001600020600082825401925050819055508173ffffffffffffffffffffffffffffffffffffffff168373ffffffffffffffffffffffffffffffffffffffff167fddf252ad1be2c89b69c2b068fc378daa952ba7f163c4a11628f55a4df523b3ef836040518082815260200191505060405180910390a3505050565b600060149054906101000a900460ff1615151561331b57600080fd5b60018114156133a6576001602260008473ffffffffffffffffffffffffffffffffffffffff1673ffffffffffffffffffffffffffffffffffffffff168152602001908152602001600020600160038110151561337357fe5b602091828204019190068282829054906101000a900460ff160192506101000a81548160ff021916908360ff1602179055505b6002811415613431576001602260008473ffffffffffffffffffffffffffffffffffffffff1673ffffffffffffffffffffffffffffffffffffffff16815260200190815260200160002060026003811015156133fe57fe5b602091828204019190068282829054906101000a900460ff160192506101000a81548160ff021916908360ff1602179055505b5050565b600060149054906101000a900460ff1615151561345157600080fd5b600a602260008373ffffffffffffffffffffffffffffffffffffffff1673ffffffffffffffffffffffffffffffffffffffff16815260200190815260200160002060016003811015156134a057fe5b602091828204019190069054906101000a900460ff1660ff1614156136fd576000602260008373ffffffffffffffffffffffffffffffffffffffff1673ffffffffffffffffffffffffffffffffffffffff168152602001908152602001600020600060038110151561350e57fe5b602091828204019190069054906101000a900460ff1660ff16111561361e576001602260008373ffffffffffffffffffffffffffffffffffffffff1673ffffffffffffffffffffffffffffffffffffffff168152602001908152602001600020600060038110151561357c57fe5b602091828204019190068282829054906101000a900460ff160392506101000a81548160ff021916908360ff1602179055506000602260008373ffffffffffffffffffffffffffffffffffffffff1673ffffffffffffffffffffffffffffffffffffffff16815260200190815260200160002060016003811015156135fd57fe5b602091828204019190066101000a81548160ff021916908360ff1602179055505b6000602260008373ffffffffffffffffffffffffffffffffffffffff1673ffffffffffffffffffffffffffffffffffffffff168152602001908152602001600020600060038110151561366d57fe5b602091828204019190069054906101000a900460ff1660ff1614156136fc576000602260008373ffffffffffffffffffffffffffffffffffffffff1673ffffffffffffffffffffffffffffffffffffffff16815260200190815260200160002060006003811015156136db57fe5b602091828204019190066101000a81548160ff021916908360ff1602179055505b5b600a602260008373ffffffffffffffffffffffffffffffffffffffff1673ffffffffffffffffffffffffffffffffffffffff168152602001908152602001600020600160038110151561374c57fe5b602091828204019190069054906101000a900460ff1660ff1611156139ae57600a602260008373ffffffffffffffffffffffffffffffffffffffff1673ffffffffffffffffffffffffffffffffffffffff16815260200190815260200160002060016003811015156137ba57fe5b602091828204019190069054906101000a900460ff1660ff168115156137dc57fe5b04601e60006101000a81548160ff021916908360ff160217905550613872601e60009054906101000a900460ff16602260008473ffffffffffffffffffffffffffffffffffffffff1673ffffffffffffffffffffffffffffffffffffffff168152602001908152602001600020600060038110151561385757fe5b602091828204019190069054906101000a900460ff166148b5565b601e60016101000a81548160ff021916908360ff160217905550601e60019054906101000a900460ff16602260008373ffffffffffffffffffffffffffffffffffffffff1673ffffffffffffffffffffffffffffffffffffffff16815260200190815260200160002060006003811015156138e957fe5b602091828204019190068282829054906101000a900460ff160392506101000a81548160ff021916908360ff160217905550600a601e60019054906101000a900460ff1602602260008373ffffffffffffffffffffffffffffffffffffffff1673ffffffffffffffffffffffffffffffffffffffff168152602001908152602001600020600160038110151561397b57fe5b602091828204019190068282829054906101000a900460ff160392506101000a81548160ff021916908360ff1602179055505b50565b600060149054906101000a900460ff161515156139cd57600080fd5b6032602260008373ffffffffffffffffffffffffffffffffffffffff1673ffffffffffffffffffffffffffffffffffffffff1681526020019081526020016000206002600381101515613a1c57fe5b602091828204019190069054906101000a900460ff1660ff161415613c7957601e602260008373ffffffffffffffffffffffffffffffffffffffff1673ffffffffffffffffffffffffffffffffffffffff1681526020019081526020016000206000600381101515613a8a57fe5b602091828204019190069054906101000a900460ff1660ff161015613b9a576001602260008373ffffffffffffffffffffffffffffffffffffffff1673ffffffffffffffffffffffffffffffffffffffff1681526020019081526020016000206000600381101515613af857fe5b602091828204019190068282829054906101000a900460ff160192506101000a81548160ff021916908360ff1602179055506000602260008373ffffffffffffffffffffffffffffffffffffffff1673ffffffffffffffffffffffffffffffffffffffff1681526020019081526020016000206002600381101515613b7957fe5b602091828204019190066101000a81548160ff021916908360ff1602179055505b601e602260008373ffffffffffffffffffffffffffffffffffffffff1673ffffffffffffffffffffffffffffffffffffffff1681526020019081526020016000206000600381101515613be957fe5b602091828204019190069054906101000a900460ff1660ff161415613c7857601e602260008373ffffffffffffffffffffffffffffffffffffffff1673ffffffffffffffffffffffffffffffffffffffff1681526020019081526020016000206000600381101515613c5757fe5b602091828204019190066101000a81548160ff021916908360ff1602179055505b5b6032602260008373ffffffffffffffffffffffffffffffffffffffff1673ffffffffffffffffffffffffffffffffffffffff1681526020019081526020016000206002600381101515613cc857fe5b602091828204019190069054906101000a900460ff1660ff161115613f2d576032602260008373ffffffffffffffffffffffffffffffffffffffff1673ffffffffffffffffffffffffffffffffffffffff1681526020019081526020016000206002600381101515613d3657fe5b602091828204019190069054906101000a900460ff1660ff16811515613d5857fe5b04601e60026101000a81548160ff021916908360ff160217905550613df1601e60029054906101000a900460ff16602260008473ffffffffffffffffffffffffffffffffffffffff1673ffffffffffffffffffffffffffffffffffffffff1681526020019081526020016000206000600381101515613dd357fe5b602091828204019190069054906101000a900460ff16601e036148b5565b601e60036101000a81548160ff021916908360ff160217905550601e60039054906101000a900460ff16602260008373ffffffffffffffffffffffffffffffffffffffff1673ffffffffffffffffffffffffffffffffffffffff1681526020019081526020016000206000600381101515613e6857fe5b602091828204019190068282829054906101000a900460ff160192506101000a81548160ff021916908360ff1602179055506032601e60039054906101000a900460ff1602602260008373ffffffffffffffffffffffffffffffffffffffff1673ffffffffffffffffffffffffffffffffffffffff1681526020019081526020016000206002600381101515613efa57fe5b602091828204019190068282829054906101000a900460ff160392506101000a81548160ff021916908360ff1602179055505b50565b60008060149054906101000a900460ff16151515613f4d57600080fd5b601c5482811515613f5a57fe5b04601a819055506000601a54141515613f7d57601a548203601981905550613f88565b600182036019819055505b6019549050919050565b60008060149054906101000a900460ff16151515613faf57600080fd5b601c5483811515613fbc57fe5b04601a81905550613fcc826148d4565b601e60056101000a81548160ff021916908360ff1602179055506064601e60059054906101000a900460ff1660ff161115156142ff57605a601e60059054906101000a900460ff1660ff1610151561403757600a6009601a540281151561402f57fe5b046016819055505b605a601e60059054906101000a900460ff1660ff1610156142fe576050601e60059054906101000a900460ff1660ff1610151561408757600a6008601a540281151561407f57fe5b046016819055505b6050601e60059054906101000a900460ff1660ff1610156142fd576046601e60059054906101000a900460ff1660ff161015156140d757600a6007601a54028115156140cf57fe5b046016819055505b6046601e60059054906101000a900460ff1660ff1610156142fc57603c601e60059054906101000a900460ff1660ff1610151561412757600a6006601a540281151561411f57fe5b046016819055505b603c601e60059054906101000a900460ff1660ff1610156142fb576032601e60059054906101000a900460ff1660ff1610151561417757600a6005601a540281151561416f57fe5b046016819055505b6032601e60059054906101000a900460ff1660ff1610156142fa576028601e60059054906101000a900460ff1660ff161015156141c757600a6004601a54028115156141bf57fe5b046016819055505b6028601e60059054906101000a900460ff1660ff1610156142f957601e8060059054906101000a900460ff1660ff1610151561421657600a6003601a540281151561420e57fe5b046016819055505b601e8060059054906101000a900460ff1660ff1610156142f8576014601e60059054906101000a900460ff1660ff1610151561426557600a6002601a540281151561425d57fe5b046016819055505b6014601e60059054906101000a900460ff1660ff1610156142f757600a601e60059054906101000a900460ff1660ff161015156142b557600a6001601a54028115156142ad57fe5b046016819055505b600a601e60059054906101000a900460ff1660ff1610156142f6576000601e60059054906101000a900460ff1660ff161015156142f55760006016819055505b5b5b5b5b5b5b5b5b5b5b601654905092915050565b60008060149054906101000a900460ff1615151561432757600080fd5b601b548481151561433457fe5b0460178190555061434583836149c3565b601e60046101000a81548160ff021916908360ff1602179055506064601e60049054906101000a900460ff1660ff1611151561467857605a601e60049054906101000a900460ff1660ff161015156143b057600a6009601754028115156143a857fe5b046015819055505b605a601e60049054906101000a900460ff1660ff161015614677576050601e60049054906101000a900460ff1660ff1610151561440057600a6008601754028115156143f857fe5b046015819055505b6050601e60049054906101000a900460ff1660ff161015614676576046601e60049054906101000a900460ff1660ff1610151561445057600a60076017540281151561444857fe5b046015819055505b6046601e60049054906101000a900460ff1660ff16101561467557603c601e60049054906101000a900460ff1660ff161015156144a057600a60066017540281151561449857fe5b046015819055505b603c601e60049054906101000a900460ff1660ff161015614674576032601e60049054906101000a900460ff1660ff161015156144f057600a6005601754028115156144e857fe5b046015819055505b6032601e60049054906101000a900460ff1660ff161015614673576028601e60049054906101000a900460ff1660ff1610151561454057600a60046017540281151561453857fe5b046015819055505b6028601e60049054906101000a900460ff1660ff16101561467257601e8060049054906101000a900460ff1660ff1610151561458f57600a60036017540281151561458757fe5b046015819055505b601e8060049054906101000a900460ff1660ff161015614671576014601e60049054906101000a900460ff1660ff161015156145de57600a6002601754028115156145d657fe5b046015819055505b6014601e60049054906101000a900460ff1660ff16101561467057600a601e60049054906101000a900460ff1660ff1610151561462e57600a60016017540281151561462657fe5b046015819055505b600a601e60049054906101000a900460ff1660ff16101561466f576000601e60049054906101000a900460ff1660ff1610151561466e5760006015819055505b5b5b5b5b5b5b5b5b5b5b60155490509392505050565b600060149054906101000a900460ff161515156146a057600080fd5b6107d0811015156146fa576001601f60008473ffffffffffffffffffffffffffffffffffffffff1673ffffffffffffffffffffffffffffffffffffffff168152602001908152602001600020600082825401925050819055505b5050565b600060149054906101000a900460ff1615151561471a57600080fd5b6107d081101515614774576001602060008473ffffffffffffffffffffffffffffffffffffffff1673ffffffffffffffffffffffffffffffffffffffff168152602001908152602001600020600082825401925050819055505b5050565b600060149054906101000a900460ff1615151561479457600080fd5b80602360008473ffffffffffffffffffffffffffffffffffffffff1673ffffffffffffffffffffffffffffffffffffffff168152602001908152602001600020600082825401925050819055505050565b600060149054906101000a900460ff1615151561480157600080fd5b80602460008473ffffffffffffffffffffffffffffffffffffffff1673ffffffffffffffffffffffffffffffffffffffff168152602001908152602001600020600082825401925050819055505050565b600060149054906101000a900460ff1615151561486e57600080fd5b42602160008373ffffffffffffffffffffffffffffffffffffffff1673ffffffffffffffffffffffffffffffffffffffff1681526020019081526020016000208190555050565b60008160ff168360ff16106148ca57816148cc565b825b905092915050565b60008060149054906101000a900460ff161515156148f157600080fd5b602260008373ffffffffffffffffffffffffffffffffffffffff1673ffffffffffffffffffffffffffffffffffffffff168152602001908152602001600020600060038110151561493e57fe5b602091828204019190069054906101000a900460ff16601e60066101000a81548160ff021916908360ff160217905550601e60069054906101000a900460ff1661498783614a39565b61499084614b4b565b0101601e60056101000a81548160ff021916908360ff160217905550601e60059054906101000a900460ff169050919050565b60008060149054906101000a900460ff161515156149e057600080fd5b6149e982614c51565b6149f284614cb3565b6149fb85614dc5565b614a0486614ecb565b010101601e60046101000a81548160ff021916908360ff160217905550601e60049054906101000a900460ff16905092915050565b60008060149054906101000a900460ff16151515614a5657600080fd5b602460008373ffffffffffffffffffffffffffffffffffffffff1673ffffffffffffffffffffffffffffffffffffffff168152602001908152602001600020546014819055506301312d00601454101515614ab45760149050614b46565b6301312d006014541015614b4557621e8480601454101515614ad957600f9050614b46565b621e84806014541015614b445762030d40601454101515614afd57600a9050614b46565b62030d406014541015614b4357614e20601454101515614b205760059050614b46565b614e206014541015614b42576000601454101515614b415760009050614b46565b5b5b5b5b5b919050565b60008060149054906101000a900460ff16151515614b6857600080fd5b602060008373ffffffffffffffffffffffffffffffffffffffff1673ffffffffffffffffffffffffffffffffffffffff16815260200190815260200160002054601381905550612710601354101515614bc45760289050614c4c565b6127106013541015614c4b576103e8601354101515614be657601e9050614c4c565b6103e86013541015614c4a576064601354101515614c075760149050614c4c565b60646013541015614c4957600a601354101515614c2757600a9050614c4c565b600a6013541015614c48576000601354101515614c475760009050614c4c565b5b5b5b5b5b919050565b60008060149054906101000a900460ff16151515614c6e57600080fd5b60008260ff161415614c8357600a9050614cae565b60018260ff161415614c985760149050614cae565b60028260ff161415614cad57601e9050614cae565b5b919050565b60008060149054906101000a900460ff16151515614cd057600080fd5b602360008373ffffffffffffffffffffffffffffffffffffffff1673ffffffffffffffffffffffffffffffffffffffff168152602001908152602001600020546011819055506301312d00601154101515614d2e5760149050614dc0565b6301312d006011541015614dbf57621e8480601154101515614d5357600f9050614dc0565b621e84806011541015614dbe5762030d40601154101515614d7757600a9050614dc0565b62030d406011541015614dbd57614e20601154101515614d9a5760059050614dc0565b614e206011541015614dbc576000601154101515614dbb5760009050614dc0565b5b5b5b5b5b919050565b60008060149054906101000a900460ff16151515614de257600080fd5b601f60008373ffffffffffffffffffffffffffffffffffffffff1673ffffffffffffffffffffffffffffffffffffffff16815260200190815260200160002054601281905550612710601254101515614e3e5760149050614ec6565b6127106012541015614ec5576103e8601254101515614e6057600f9050614ec6565b6103e86012541015614ec4576064601254101515614e8157600a9050614ec6565b60646012541015614ec357600a601254101515614ea15760059050614ec6565b600a6012541015614ec2576000601254101515614ec15760009050614ec6565b5b5b5b5b5b919050565b60008060149054906101000a900460ff16151515614ee857600080fd5b602160008373ffffffffffffffffffffffffffffffffffffffff1673ffffffffffffffffffffffffffffffffffffffff16815260200190815260200160002054600f8190555042600e81905550600f54600e5403601081905550600362278d0002601054101515614f5c5760009050614fd3565b600362278d00026010541015614fd25762278d00601054101515614f8357600a9050614fd3565b62278d006010541015614fd15760036201518002601054101515614faa5760149050614fd3565b600362015180026010541015614fd0576000601054101515614fcf57601e9050614fd3565b5b5b5b5b91905056fea165627a7a72305820cfe134f724a49edfe672bd561a4df1035a2947ecf87ee1939ae923f0110f65430029",
  "source": "pragma solidity ^0.5.0;\r\n\r\nimport \"./MyAdvancedToken.sol\";\r\n\r\ncontract transaction is MyAdvancedToken {\r\n    \r\n    //\r\n    uint256 constant DAY_IN_SECONDS = 86400; //\r\n    uint256 constant MONTH_IN_SECONDS = 2592000; //\r\n    uint256 private currTimeInSeconds; //\r\n    uint256 private lastbuytimeInSeconds; //\r\n    uint256 private timeinterval; //\r\n    \r\n    uint256 private totalbuyerpayment; //\r\n    uint256 private buycontributionvalue; //\r\n    uint256 private sellcontributionvalue; //\r\n    uint256 private totalsellercollection; //\r\n    uint256 private buyrebate; //\r\n    uint256 private sellrebate; //\r\n    uint256 private fee; //\r\n    uint256 private buyerpayment; //+\r\n    uint256 private sellercollection; //-\r\n    uint256 private commission; //\r\n    uint256 private feeProportion = 1000; //\r\n    uint256 private commissionProportion = 100; //\r\n    uint256 private totalvalue; //\r\n    uint8 private needSubsellercredit; //\r\n    uint8 private realSubsellercredit; //\r\n    uint8 private needAddsellercredit; //\r\n    uint8 private realAddsellercredit; //\r\n    uint8 private _buyerTotalScore; //\r\n    uint8 private _sellerTotalScore; //\r\n    uint8 private sellercreditScore; //\r\n    \r\n    event SuccessFunds(address target, bool success);//\r\n    \r\n    // mapping()\r\n    mapping (address => uint256) private _buycontributionvalue;\r\n    // mapping\r\n    mapping (address => uint256) private _sellcontributionvalue;\r\n    // mapping\r\n    mapping (address => uint256) private _lastbuytime;\r\n    // mapping(10-1100)(50+1)\r\n    mapping (address => uint8[3]) private _sellercredit;\r\n    // mapping\r\n    mapping (address => uint256) private _totalbuyerpayment;\r\n    // mapping\r\n    mapping (address => uint256) private _totalsellercollection;\r\n\r\n//\r\n    /**\r\n     * a,b:\r\n     */ \r\n    function min(uint8 a, uint8 b) internal pure returns (uint8) {\r\n        return a < b ? a : b;\r\n    }\r\n    \r\n//\r\n    /**\r\n     * newfeeProportion:1000,newcommissionProportion:100\r\n     */ \r\n    function setProportion(uint256 newfeeProportion, uint256 newcommissionProportion) onlyOwner public whenNotPaused{\r\n        feeProportion = newfeeProportion;\r\n        commissionProportion = newcommissionProportion; \r\n    } \r\n   \r\n//+\r\n    /**\r\n     * totalprice:\r\n     */ \r\n    function _Buyerpayment(uint256 totalprice) internal whenNotPaused returns (uint256){\r\n        fee = totalprice / feeProportion;       //0.1%\r\n        //1\r\n        if(fee!=0){        \r\n            buyerpayment = fee + totalprice; //\r\n        }\r\n        else{\r\n            buyerpayment = 1 + totalprice;\r\n        }\r\n        return buyerpayment;\r\n  }\r\n  \r\n//-\r\n    /**\r\n     * totalprice:\r\n     */ \r\n    function _Sellercollection(uint256 totalprice) internal whenNotPaused returns (uint256){\r\n        commission = totalprice / commissionProportion;       //1%\r\n        //1\r\n        if(commission!=0){        \r\n            sellercollection = totalprice - commission;  //\r\n        }\r\n        else{\r\n            sellercollection = totalprice - 1;\r\n        }\r\n        return sellercollection;\r\n  }\r\n  \r\n//\r\n    /**\r\n     * who:\r\n     */\r\n    function Lastbuytime(address who) external view returns (uint256) {\r\n        return _lastbuytime[who];    //\r\n    }\r\n\r\n//\r\n    /**\r\n     * buyer:\r\n     */\r\n    function _UpdateLastbuytime(address buyer)  internal whenNotPaused{\r\n        _lastbuytime[buyer] = now;  //\r\n    }\r\n\r\n//\r\n    /**\r\n     * who:\r\n     */\r\n    function Buycontributionvalue(address who) external view returns (uint256) {\r\n        return _buycontributionvalue[who];\r\n    }\r\n\r\n//\r\n    /**\r\n     * who:\r\n     */\r\n    function Sellcontributionvalue(address who) external view returns (uint256) {\r\n        return _sellcontributionvalue[who];\r\n    }\r\n    \r\n//\r\n    /**\r\n     * target:,totalprice:\r\n     */\r\n    function _UpdateBuycontributionvalue(address target, uint256 totalprice)  internal whenNotPaused{\r\n        if(totalprice >= 2000){\r\n            _buycontributionvalue[target] += 1;  //>=2000,1\r\n        }\r\n    }\r\n\r\n//\r\n    /**\r\n     * target:,totalprice:\r\n     */\r\n    function _UpdateSellcontributionvalue(address target, uint256 totalprice)  internal whenNotPaused{\r\n        if(totalprice >= 2000){\r\n            _sellcontributionvalue[target] += 1;  //>=2000,1\r\n        }\r\n    }\r\n\r\n//\r\n    /**\r\n     * who:\r\n     */\r\n    function Totalbuyerpayment(address who) external view returns (uint256) {\r\n        return _totalbuyerpayment[who];\r\n    }\r\n\r\n//\r\n    /**\r\n     * who:\r\n     */\r\n    function Totalsellercollection(address who) external view returns (uint256) {\r\n        return _totalsellercollection[who];\r\n    }\r\n\r\n//\r\n    /**\r\n     * target:,totalprice:\r\n     */\r\n    function _UpdateTotalbuyerpayment(address target, uint256 totalprice)  internal whenNotPaused{\r\n            _totalbuyerpayment[target] += totalprice;  //\r\n    }\r\n\r\n//\r\n    /**\r\n     * target:,totalprice:\r\n     */\r\n    function _UpdateTotalsellercollection(address target, uint256 totalprice)  internal whenNotPaused{\r\n            _totalsellercollection[target] += totalprice;  //\r\n    }\r\n\r\n////30100\r\n    /**\r\n     * who://,i:,i0(),1(),2()\r\n     */\r\n    function Sellercredit(address who, uint256 i) external view returns (uint256) {\r\n        return _sellercredit[who][i];//i0()1()2()\r\n    }\r\n\r\n///\r\n    /**\r\n     * target:,i:,i1(),2()\r\n     */\r\n    function _UpdateRelatedSellercredit(address target, uint256 i)  internal whenNotPaused{\r\n        if(i == 1){\r\n            _sellercredit[target][1] += 1;  //1 \r\n        }\r\n        if(i == 2){\r\n            _sellercredit[target][2] += 1;  //1\r\n        }        \r\n    }\r\n\r\n//\r\n//\r\n    /**\r\n     * target:\r\n     */\r\n    function _DecreaseSellercredit(address target)  internal whenNotPaused{\r\n        if(_sellercredit[target][1] == 10){   //10\r\n            if(_sellercredit[target][0] > 0){ //0\r\n                _sellercredit[target][0] -= 1;  //1 \r\n                _sellercredit[target][1] = 0;   //0\r\n            }\r\n            if(_sellercredit[target][0] == 0){   //0\r\n                _sellercredit[target][0] = 0;   //00\r\n            }\r\n        }\r\n        if(_sellercredit[target][1] > 10){   //100\r\n            needSubsellercredit = _sellercredit[target][1] / 10;  //\r\n            realSubsellercredit = min(needSubsellercredit, _sellercredit[target][0]);  //\r\n            _sellercredit[target][0] -= realSubsellercredit;     //\r\n            _sellercredit[target][1] -= realSubsellercredit * 10;  //\r\n        }\r\n    }\r\n\r\n//\r\n    /**\r\n     * target:\r\n     */\r\n    function _IncreaseSellercredit(address target)  internal whenNotPaused{\r\n        if(_sellercredit[target][2] == 50){ //50\r\n            if(_sellercredit[target][0] < 30){ //30\r\n                _sellercredit[target][0] += 1;  //1\r\n                _sellercredit[target][2] = 0;  //0         \r\n            }\r\n            if(_sellercredit[target][0] == 30){   //30\r\n                _sellercredit[target][0] = 30;   //3030\r\n            }\r\n        } \r\n        if(_sellercredit[target][2] > 50){   //5030\r\n            needAddsellercredit = _sellercredit[target][2] / 50;  //\r\n            realAddsellercredit = min(needAddsellercredit, 30 - _sellercredit[target][0]);  //\r\n            _sellercredit[target][0] += realAddsellercredit;     //\r\n            _sellercredit[target][2] -= realAddsellercredit * 50;  //\r\n        }\r\n    }\r\n\r\n//(100)\r\n//(30)(20)\r\n//(30)\r\n    /**\r\n     * who:\r\n     */\r\n    function LastbuytimeScore(address who) internal whenNotPaused returns (uint8) {\r\n        lastbuytimeInSeconds = _lastbuytime[who]; //\r\n        currTimeInSeconds = now; //\r\n        timeinterval = currTimeInSeconds - lastbuytimeInSeconds; //\r\n        if(timeinterval >= MONTH_IN_SECONDS * 3){  //30\r\n            return 0;\r\n        }\r\n        if(timeinterval < MONTH_IN_SECONDS * 3){  \r\n            if(timeinterval >= MONTH_IN_SECONDS) {//3110\r\n                return 10;\r\n            }\r\n            if(timeinterval < MONTH_IN_SECONDS){  \r\n                if(timeinterval >= DAY_IN_SECONDS * 3){ //1320\r\n                    return 20;\r\n                }\r\n                if(timeinterval < DAY_IN_SECONDS * 3){  \r\n                    if(timeinterval >= 0){ //330\r\n                        return 30;\r\n                    }\r\n                }\r\n            }\r\n        }\r\n    }\r\n    \r\n//(20)\r\n    /**\r\n     * who:\r\n     */\r\n    function BuycontributionvalueScore(address who) internal whenNotPaused returns (uint8) {\r\n        buycontributionvalue = _buycontributionvalue[who]; //\r\n        if(buycontributionvalue >= 10000){  //1000020\r\n            return 20;\r\n        }\r\n        if(buycontributionvalue < 10000){  \r\n            if(buycontributionvalue >= 1000) {//10000100015\r\n                return 15;\r\n            }\r\n            if(buycontributionvalue < 1000){  \r\n                if(buycontributionvalue >= 100){ //100010010\r\n                    return 10;\r\n                }\r\n                if(buycontributionvalue < 100){  \r\n                    if(buycontributionvalue >= 10){ //100105\r\n                        return 5;\r\n                    }\r\n                    if(buycontributionvalue < 10){ \r\n                        if(buycontributionvalue >= 0){ //1000\r\n                        return 0;\r\n                        }\r\n                    }\r\n                }\r\n            }\r\n        }\r\n    }\r\n\r\n//(20)\r\n    /**\r\n     * who:\r\n     */\r\n    function TotalbuyerpaymentScore(address who) internal whenNotPaused returns (uint8) {\r\n        totalbuyerpayment = _totalbuyerpayment[who]; //\r\n        if(totalbuyerpayment >= 20000000){  //200000002020001=100002000*10000\r\n            return 20;\r\n        }\r\n        if(totalbuyerpayment < 20000000){  \r\n            if(totalbuyerpayment >= 2000000) {//20000000200000015\r\n                return 15;\r\n            }\r\n            if(totalbuyerpayment < 2000000){  \r\n                if(totalbuyerpayment >= 200000){ //200000020000010\r\n                    return 10;\r\n                }\r\n                if(totalbuyerpayment < 200000){  \r\n                    if(totalbuyerpayment >= 20000){ //200000200005\r\n                        return 5;\r\n                    }\r\n                    if(totalbuyerpayment < 20000){ \r\n                        if(totalbuyerpayment >= 0){ //2000000\r\n                        return 0;\r\n                        }\r\n                    }\r\n                }\r\n            }\r\n        }\r\n    }\r\n\r\n//(30)   \r\n    /**\r\n     * buyergrade:(012)\r\n     */\r\n    function BuyergradeScore(uint8 buyergrade) internal view whenNotPaused returns (uint8) { \r\n        if(buyergrade == 0){ //10\r\n            return 10;       \r\n        }\r\n        if(buyergrade == 1){ //20\r\n            return 20;       \r\n        }\r\n        if(buyergrade == 2){ //30\r\n            return 30;       \r\n        }\r\n    }\r\n\r\n//\r\n    /**\r\n     *who:,buyergrade:(012)\r\n     */\r\n    function BuyerTotalScore(address who, uint8 buyergrade) internal whenNotPaused returns (uint8) { \r\n        _buyerTotalScore = LastbuytimeScore(who) + BuycontributionvalueScore(who) + TotalbuyerpaymentScore(who) + BuyergradeScore(buyergrade); //\r\n        return _buyerTotalScore;\r\n    }\r\n\r\n//(40)\r\n    /**\r\n     * who:\r\n     */\r\n    function SellcontributionvalueScore(address who) internal whenNotPaused returns (uint8) {\r\n        sellcontributionvalue = _sellcontributionvalue[who]; //\r\n        if(sellcontributionvalue >= 10000){  //1000040\r\n            return 40;\r\n        }\r\n        if(sellcontributionvalue < 10000){  \r\n            if(sellcontributionvalue >= 1000) {//10000100030\r\n                return 30;\r\n            }\r\n            if(sellcontributionvalue < 1000){  \r\n                if(sellcontributionvalue >= 100){ //100010020\r\n                    return 20;\r\n                }\r\n                if(sellcontributionvalue < 100){  \r\n                    if(sellcontributionvalue >= 10){ //1001010\r\n                        return 10;\r\n                    }\r\n                    if(sellcontributionvalue < 10){ \r\n                        if(sellcontributionvalue >= 0){ //1000\r\n                        return 0;\r\n                        }\r\n                    }\r\n                }\r\n            }\r\n        }\r\n    }\r\n    \r\n//(30)\r\n    /**\r\n     * who:\r\n     */\r\n    function TotalsellercollectionScore(address who) internal whenNotPaused returns (uint8) {\r\n        totalsellercollection = _totalsellercollection[who]; //\r\n        if(totalsellercollection >= 20000000){  //200000002020001=100002000*10000\r\n            return 20;\r\n        }\r\n        if(totalsellercollection < 20000000){  \r\n            if(totalsellercollection >= 2000000) {//20000000200000015\r\n                return 15;\r\n            }\r\n            if(totalsellercollection < 2000000){  \r\n                if(totalsellercollection >= 200000){ //200000020000010\r\n                    return 10;\r\n                }\r\n                if(totalsellercollection < 200000){  \r\n                    if(totalsellercollection >= 20000){ //200000200005\r\n                        return 5;\r\n                    }\r\n                    if(totalsellercollection < 20000){ \r\n                        if(totalsellercollection >= 0){ //2000000\r\n                        return 0;\r\n                        }\r\n                    }\r\n                }\r\n            }\r\n        }\r\n    }\r\n\r\n//\r\n    /**\r\n     *who:\r\n     */\r\n    function SellerTotalScore(address who) internal whenNotPaused returns (uint8) { \r\n        sellercreditScore = _sellercredit[who][0]; //\r\n        _sellerTotalScore = SellcontributionvalueScore(who) + TotalsellercollectionScore(who) + sellercreditScore; //\r\n        return _sellerTotalScore;\r\n    }\r\n\r\n//\r\n//(*)\r\n    /**\r\n     *totalprice:,who:,buyergrade:(012)\r\n     */\r\n    function BuyRebate(uint256 totalprice, address who, uint8 buyergrade) internal whenNotPaused returns (uint256) { \r\n        \r\n        fee = totalprice / feeProportion;       //0.1%\r\n        _buyerTotalScore = BuyerTotalScore(who, buyergrade);     //\r\n        if(_buyerTotalScore <= 100){  \r\n            if(_buyerTotalScore >= 90) {//1009090%\r\n                buyrebate = fee * 9 / 10;\r\n            }\r\n            if(_buyerTotalScore < 90){  \r\n                if(_buyerTotalScore >= 80){ //908080%\r\n                    buyrebate = fee * 8 / 10;\r\n                }\r\n                if(_buyerTotalScore < 80){  \r\n                    if(_buyerTotalScore >= 70){ //807070%\r\n                        buyrebate = fee * 7 / 10;\r\n                    }\r\n                    if(_buyerTotalScore < 70){ \r\n                        if(_buyerTotalScore >= 60){ //706060%\r\n                            buyrebate = fee * 6 / 10;\r\n                        }\r\n                        if(_buyerTotalScore < 60){ \r\n                            if(_buyerTotalScore >= 50){ //605050%\r\n                                buyrebate = fee * 5 / 10;\r\n                            }\r\n                            if(_buyerTotalScore < 50){ \r\n                                if(_buyerTotalScore >= 40){ //504040%\r\n                                    buyrebate = fee * 4 / 10;\r\n                                }\r\n                                if(_buyerTotalScore < 40){ \r\n                                    if(_buyerTotalScore >= 30){ //403030%\r\n                                        buyrebate = fee * 3 / 10;\r\n                                    }\r\n                                    if(_buyerTotalScore < 30){ \r\n                                        if(_buyerTotalScore >= 20){ //302020%\r\n                                            buyrebate = fee * 2 / 10;\r\n                                        }\r\n                                        if(_buyerTotalScore < 20){ \r\n                                            if(_buyerTotalScore >= 10){ //201010%\r\n                                                buyrebate = fee * 1 / 10;\r\n                                            }\r\n                                           if(_buyerTotalScore < 10){ \r\n                                               if(_buyerTotalScore >= 0){ //1000\r\n                                                    buyrebate = 0;\r\n                                                }\r\n                                            }  \r\n                                        }  \r\n                                    }    \r\n                                }\r\n                            }\r\n                        }\r\n                    }\r\n                }\r\n            }\r\n        }\r\n        return buyrebate;\r\n    }\r\n\r\n//(*)\r\n    /**\r\n     *totalprice:,who:\r\n     */\r\n    function SellRebate(uint256 totalprice, address who) internal whenNotPaused returns (uint256) { \r\n        \r\n        commission = totalprice / commissionProportion;       //1%\r\n        _sellerTotalScore = SellerTotalScore(who);     //\r\n        if(_sellerTotalScore <= 100){  \r\n            if(_sellerTotalScore >= 90) {//1009090%\r\n                sellrebate = commission * 9 / 10;\r\n            }\r\n            if(_sellerTotalScore < 90){  \r\n                if(_sellerTotalScore >= 80){ //908080%\r\n                    sellrebate = commission * 8 / 10;\r\n                }\r\n                if(_sellerTotalScore < 80){  \r\n                    if(_sellerTotalScore >= 70){ //807070%\r\n                        sellrebate = commission * 7 / 10;\r\n                    }\r\n                    if(_sellerTotalScore < 70){ \r\n                        if(_sellerTotalScore >= 60){ //706060%\r\n                            sellrebate = commission * 6 / 10;\r\n                        }\r\n                        if(_sellerTotalScore < 60){ \r\n                            if(_sellerTotalScore >= 50){ //605050%\r\n                                sellrebate = commission * 5 / 10;\r\n                            }\r\n                            if(_sellerTotalScore < 50){ \r\n                                if(_sellerTotalScore >= 40){ //504040%\r\n                                    sellrebate = commission * 4 / 10;\r\n                                }\r\n                                if(_sellerTotalScore < 40){ \r\n                                    if(_sellerTotalScore >= 30){ //403030%\r\n                                        sellrebate = commission * 3 / 10;\r\n                                    }\r\n                                    if(_sellerTotalScore < 30){ \r\n                                        if(_sellerTotalScore >= 20){ //302020%\r\n                                            sellrebate = commission * 2 / 10;\r\n                                        }\r\n                                        if(_sellerTotalScore < 20){ \r\n                                            if(_sellerTotalScore >= 10){ //201010%\r\n                                                sellrebate = commission * 1 / 10;\r\n                                            }\r\n                                           if(_sellerTotalScore < 10){ \r\n                                               if(_sellerTotalScore >= 0){ //1000\r\n                                                    sellrebate = 0;\r\n                                                }\r\n                                            }  \r\n                                        }  \r\n                                    }    \r\n                                }\r\n                            }\r\n                        }\r\n                    }\r\n                }\r\n            }\r\n        }\r\n        return sellrebate;\r\n    }\r\n\r\n//+\r\n//  (TxControl\r\n    /**\r\n     * _to:,totalprice:,_from:\r\n     */ \r\n    function beforeDataTransaction(address _to, uint256 totalprice, address _from) public whenNotPaused{\r\n        require(!frozenAccount[_from]);             // \r\n        require(!frozenAccount[_to]);               // \r\n        buyerpayment = _Buyerpayment(totalprice);  // \r\n        _transfer(_from, address(this), buyerpayment); //\r\n        emit SuccessFunds(_from, true);\r\n  }\r\n \r\n//    (TxControl)\r\n    /**\r\n     * _from:,_to:,totalprice:,buyergrade:\r\n     */ \r\n    function afterDataTransaction(address  _from, address  _to, uint256 totalprice, uint8 buyergrade) public whenNotPaused{\r\n        //\r\n        sellercollection = _Sellercollection(totalprice);   //\r\n        //,+=\r\n        sellercollection += SellRebate(totalprice, _to); //\r\n        _transfer(address(this), _to, sellercollection); //\r\n        //buyergrade*\r\n        buyrebate = BuyRebate(totalprice, _from, buyergrade); //\r\n        _transfer(address(this), _from, buyrebate); //()\r\n        _UpdateBuycontributionvalue(_from, totalprice);//\r\n        _UpdateSellcontributionvalue(_to, totalprice);//\r\n        _UpdateTotalbuyerpayment(_from, totalprice); //\r\n        _UpdateTotalsellercollection(_to, totalprice);//\r\n        _UpdateRelatedSellercredit(_to, 2); //\r\n        //\r\n        _IncreaseSellercredit(_to);//\r\n        _DecreaseSellercredit(_to);//\r\n        _UpdateLastbuytime(_from); //\r\n    }\r\n\r\n//\r\n    /**\r\n     * _from:,_to:(),totalprice:\r\n     */ \r\n    function dataTransactionRefund(address _from, address _to, uint256 totalprice) public whenNotPaused{\r\n        //\r\n        buyerpayment = _Buyerpayment(totalprice);  // \r\n        _transfer( address(this), _from, buyerpayment);  //\r\n        _UpdateRelatedSellercredit(_to, 1);//\r\n        //\r\n        _DecreaseSellercredit(_to);//\r\n        _IncreaseSellercredit(_to);//\r\n    }\r\n\r\n\r\n// (TxControl\r\n    /**\r\n     * addressNumber:,value:,_from:\r\n     */ \r\n     function beforeRealTimeTransaction(uint256 addressNumber, uint256 value, address _from) public whenNotPaused{\r\n        require(!frozenAccount[_from]);             // \r\n        totalvalue = addressNumber * value;   //\r\n        buyerpayment = _Buyerpayment(totalvalue);  // \r\n        _transfer(_from, address(this), buyerpayment); //\r\n        emit SuccessFunds(_from, true);\r\n  }\r\n\r\n//  (TxControl\r\n    /**\r\n     * _from:,_to:,value:,buyergrade:\r\n     */ \r\n    function afterRealTimeTransaction(address _from, address[] memory _to, uint256 value, uint8 buyergrade) public whenNotPaused{\r\n        for(uint256 i = 0; i < _to.length; i++){\r\n            sellercollection = _Sellercollection(value);   //\r\n            //,+=\r\n            sellercollection += SellRebate(value, _to[i]); //\r\n            _transfer(address(this), _to[i], sellercollection); //\r\n            _UpdateSellcontributionvalue(_to[i], value);//\r\n            _UpdateTotalsellercollection(_to[i], value);//\r\n            _UpdateRelatedSellercredit(_to[i], 2);//\r\n            //\r\n            _IncreaseSellercredit(_to[i]);//\r\n            _DecreaseSellercredit(_to[i]);//\r\n        }\r\n        //buyergrade*\r\n        buyrebate = BuyRebate(value * _to.length, _from, buyergrade); //\r\n        _transfer(address(this), _from, buyrebate); //()\r\n        _UpdateBuycontributionvalue(_from, value * _to.length);//\r\n        _UpdateTotalbuyerpayment(_from, value * _to.length); //\r\n        _UpdateLastbuytime(_from); //\r\n}\r\n\r\n//    (TxControl)\r\n    /**\r\n     * _from:,_to:(),value:\r\n     */ \r\n    function realTimeTransactionRefund(address _from, address[] memory _to, uint256 value) public whenNotPaused{\r\n       //\r\n        totalvalue = _to.length * value;   //\r\n        buyerpayment = _Buyerpayment(totalvalue);  // \r\n        _transfer( address(this), _from, buyerpayment);  //\r\n        //\r\n        for(uint256 i = 0; i < _to.length; i++){\r\n            _UpdateRelatedSellercredit(_to[i], 1);//\r\n            //\r\n            _DecreaseSellercredit(_to[i]);//\r\n            _IncreaseSellercredit(_to[i]);//\r\n        }\r\n    }\r\n    \r\n}",
  "sourcePath": "G:\\ControlSolidity\\contracts\\transaction.sol",
  "compiler": {
    "name": "solc",
    "version": "0.5.0+commit.1d4f565a.Emscripten.clang"
  },
  "schemaVersion": "3.0.5",
  "updatedAt": "2019-04-30T03:04:42.632Z",
  "devdoc": {
    "methods": {}
  },
  "userdoc": {
    "methods": {
      "Buycontributionvalue(address)": {
        "notice": "who:\r"
      },
      "Lastbuytime(address)": {
        "notice": "who:\r"
      },
      "Sellcontributionvalue(address)": {
        "notice": "who:\r"
      },
      "Sellercredit(address,uint256)": {
        "notice": "who://,i:,i0(),1(),2()\r"
      },
      "Totalbuyerpayment(address)": {
        "notice": "who:\r"
      },
      "Totalsellercollection(address)": {
        "notice": "who:\r"
      },
      "afterDataTransaction(address,address,uint256,uint8)": {
        "notice": "_from:,_to:,totalprice:,buyergrade:\r"
      },
      "afterRealTimeTransaction(address,address[],uint256,uint8)": {
        "notice": "_from:,_to:,value:,buyergrade:\r"
      },
      "allowance(address,address)": {
        "notice": "owner:,spender:"
      },
      "approve(address,uint256)": {
        "notice": "spender:,_value:"
      },
      "balanceOf(address)": {
        "notice": "who:"
      },
      "beforeDataTransaction(address,uint256,address)": {
        "notice": "_to:,totalprice:,_from:\r"
      },
      "beforeRealTimeTransaction(uint256,uint256,address)": {
        "notice": "addressNumber:,value:,_from:\r"
      },
      "burn(uint256)": {
        "notice": "_value:"
      },
      "burnFrom(address,uint256)": {
        "notice": "_from:, _value:"
      },
      "dataTransactionRefund(address,address,uint256)": {
        "notice": "_from:,_to:(),totalprice:\r"
      },
      "freezeAccount(address,bool)": {
        "notice": "target:,freeze:true/false\r"
      },
      "ifAccountFrozen(address)": {
        "notice": "account:\r"
      },
      "mintToken(address,uint256)": {
        "notice": "target:,mintedAmount:\r"
      },
      "realTimeTransactionRefund(address,address[],uint256)": {
        "notice": "_from:,_to:(),value:\r"
      },
      "setPrices(uint256,uint256)": {
        "notice": "newwithdrawPrice:,newrechargePrice:\r"
      },
      "setProportion(uint256,uint256)": {
        "notice": "newfeeProportion:1000,newcommissionProportion:100\r"
      },
      "transfer(address,uint256)": {
        "notice": "to:_value:"
      },
      "transferFrom(address,address,uint256)": {
        "notice": "_from:,_to:,_value:"
      },
      "transferOwnership(address)": {
        "notice": "ewOwner:\r"
      },
      "withdraw(uint256)": {
        "notice": "amount:\r"
      }
    }
  }
}