{
  "contractName": "transaction",
  "abi": [
    {
      "constant": true,
      "inputs": [],
      "name": "rechargePrice",
      "outputs": [
        {
          "name": "",
          "type": "uint256"
        }
      ],
      "payable": false,
      "stateMutability": "view",
      "type": "function"
    },
    {
      "constant": false,
      "inputs": [
        {
          "name": "newwithdrawPrice",
          "type": "uint256"
        },
        {
          "name": "newrechargePrice",
          "type": "uint256"
        }
      ],
      "name": "setPrices",
      "outputs": [],
      "payable": false,
      "stateMutability": "nonpayable",
      "type": "function"
    },
    {
      "constant": true,
      "inputs": [],
      "name": "name",
      "outputs": [
        {
          "name": "",
          "type": "string"
        }
      ],
      "payable": false,
      "stateMutability": "view",
      "type": "function"
    },
    {
      "constant": false,
      "inputs": [
        {
          "name": "_spender",
          "type": "address"
        },
        {
          "name": "_value",
          "type": "uint256"
        }
      ],
      "name": "approve",
      "outputs": [
        {
          "name": "",
          "type": "bool"
        }
      ],
      "payable": false,
      "stateMutability": "nonpayable",
      "type": "function"
    },
    {
      "constant": true,
      "inputs": [],
      "name": "totalSupply",
      "outputs": [
        {
          "name": "",
          "type": "uint256"
        }
      ],
      "payable": false,
      "stateMutability": "view",
      "type": "function"
    },
    {
      "constant": false,
      "inputs": [
        {
          "name": "_from",
          "type": "address"
        },
        {
          "name": "_to",
          "type": "address"
        },
        {
          "name": "_value",
          "type": "uint256"
        }
      ],
      "name": "transferFrom",
      "outputs": [
        {
          "name": "",
          "type": "bool"
        }
      ],
      "payable": false,
      "stateMutability": "nonpayable",
      "type": "function"
    },
    {
      "constant": false,
      "inputs": [
        {
          "name": "amount",
          "type": "uint256"
        }
      ],
      "name": "withdraw",
      "outputs": [],
      "payable": false,
      "stateMutability": "nonpayable",
      "type": "function"
    },
    {
      "constant": true,
      "inputs": [],
      "name": "decimals",
      "outputs": [
        {
          "name": "",
          "type": "uint8"
        }
      ],
      "payable": false,
      "stateMutability": "view",
      "type": "function"
    },
    {
      "constant": true,
      "inputs": [],
      "name": "initialSupply",
      "outputs": [
        {
          "name": "",
          "type": "uint256"
        }
      ],
      "payable": false,
      "stateMutability": "view",
      "type": "function"
    },
    {
      "constant": true,
      "inputs": [],
      "name": "_totalSupply",
      "outputs": [
        {
          "name": "",
          "type": "uint256"
        }
      ],
      "payable": false,
      "stateMutability": "view",
      "type": "function"
    },
    {
      "constant": false,
      "inputs": [],
      "name": "unpause",
      "outputs": [
        {
          "name": "",
          "type": "bool"
        }
      ],
      "payable": false,
      "stateMutability": "nonpayable",
      "type": "function"
    },
    {
      "constant": false,
      "inputs": [],
      "name": "recharge",
      "outputs": [],
      "payable": true,
      "stateMutability": "payable",
      "type": "function"
    },
    {
      "constant": true,
      "inputs": [],
      "name": "paused",
      "outputs": [
        {
          "name": "",
          "type": "bool"
        }
      ],
      "payable": false,
      "stateMutability": "view",
      "type": "function"
    },
    {
      "constant": true,
      "inputs": [],
      "name": "tokenName",
      "outputs": [
        {
          "name": "",
          "type": "string"
        }
      ],
      "payable": false,
      "stateMutability": "view",
      "type": "function"
    },
    {
      "constant": true,
      "inputs": [
        {
          "name": "",
          "type": "address"
        }
      ],
      "name": "_balances",
      "outputs": [
        {
          "name": "",
          "type": "uint256"
        }
      ],
      "payable": false,
      "stateMutability": "view",
      "type": "function"
    },
    {
      "constant": true,
      "inputs": [
        {
          "name": "who",
          "type": "address"
        }
      ],
      "name": "balanceOf",
      "outputs": [
        {
          "name": "",
          "type": "uint256"
        }
      ],
      "payable": false,
      "stateMutability": "view",
      "type": "function"
    },
    {
      "constant": true,
      "inputs": [],
      "name": "withdrawPrice",
      "outputs": [
        {
          "name": "",
          "type": "uint256"
        }
      ],
      "payable": false,
      "stateMutability": "view",
      "type": "function"
    },
    {
      "constant": false,
      "inputs": [
        {
          "name": "target",
          "type": "address"
        },
        {
          "name": "mintedAmount",
          "type": "uint256"
        }
      ],
      "name": "mintToken",
      "outputs": [],
      "payable": false,
      "stateMutability": "nonpayable",
      "type": "function"
    },
    {
      "constant": true,
      "inputs": [],
      "name": "tokenSymbol",
      "outputs": [
        {
          "name": "",
          "type": "string"
        }
      ],
      "payable": false,
      "stateMutability": "view",
      "type": "function"
    },
    {
      "constant": true,
      "inputs": [
        {
          "name": "account",
          "type": "address"
        }
      ],
      "name": "ifAccountFrozen",
      "outputs": [
        {
          "name": "",
          "type": "bool"
        }
      ],
      "payable": false,
      "stateMutability": "view",
      "type": "function"
    },
    {
      "constant": false,
      "inputs": [],
      "name": "pause",
      "outputs": [
        {
          "name": "",
          "type": "bool"
        }
      ],
      "payable": false,
      "stateMutability": "nonpayable",
      "type": "function"
    },
    {
      "constant": true,
      "inputs": [],
      "name": "heyueYitaibi",
      "outputs": [
        {
          "name": "",
          "type": "uint256"
        }
      ],
      "payable": false,
      "stateMutability": "view",
      "type": "function"
    },
    {
      "constant": true,
      "inputs": [],
      "name": "owner",
      "outputs": [
        {
          "name": "",
          "type": "address"
        }
      ],
      "payable": false,
      "stateMutability": "view",
      "type": "function"
    },
    {
      "constant": true,
      "inputs": [],
      "name": "symbol",
      "outputs": [
        {
          "name": "",
          "type": "string"
        }
      ],
      "payable": false,
      "stateMutability": "view",
      "type": "function"
    },
    {
      "constant": false,
      "inputs": [
        {
          "name": "_to",
          "type": "address"
        },
        {
          "name": "_value",
          "type": "uint256"
        }
      ],
      "name": "transfer",
      "outputs": [
        {
          "name": "",
          "type": "bool"
        }
      ],
      "payable": false,
      "stateMutability": "nonpayable",
      "type": "function"
    },
    {
      "constant": true,
      "inputs": [
        {
          "name": "",
          "type": "address"
        }
      ],
      "name": "frozenAccount",
      "outputs": [
        {
          "name": "",
          "type": "bool"
        }
      ],
      "payable": false,
      "stateMutability": "view",
      "type": "function"
    },
    {
      "constant": true,
      "inputs": [
        {
          "name": "",
          "type": "address"
        },
        {
          "name": "",
          "type": "address"
        }
      ],
      "name": "_allowed",
      "outputs": [
        {
          "name": "",
          "type": "uint256"
        }
      ],
      "payable": false,
      "stateMutability": "view",
      "type": "function"
    },
    {
      "constant": false,
      "inputs": [],
      "name": "transferHeyue",
      "outputs": [],
      "payable": true,
      "stateMutability": "payable",
      "type": "function"
    },
    {
      "constant": true,
      "inputs": [
        {
          "name": "owner",
          "type": "address"
        },
        {
          "name": "spender",
          "type": "address"
        }
      ],
      "name": "allowance",
      "outputs": [
        {
          "name": "",
          "type": "uint256"
        }
      ],
      "payable": false,
      "stateMutability": "view",
      "type": "function"
    },
    {
      "constant": false,
      "inputs": [
        {
          "name": "target",
          "type": "address"
        },
        {
          "name": "freeze",
          "type": "bool"
        }
      ],
      "name": "freezeAccount",
      "outputs": [],
      "payable": false,
      "stateMutability": "nonpayable",
      "type": "function"
    },
    {
      "constant": false,
      "inputs": [],
      "name": "heyueTixian",
      "outputs": [],
      "payable": false,
      "stateMutability": "nonpayable",
      "type": "function"
    },
    {
      "constant": false,
      "inputs": [
        {
          "name": "newOwner",
          "type": "address"
        }
      ],
      "name": "transferOwnership",
      "outputs": [],
      "payable": false,
      "stateMutability": "nonpayable",
      "type": "function"
    },
    {
      "constant": true,
      "inputs": [],
      "name": "amount1",
      "outputs": [
        {
          "name": "",
          "type": "uint256"
        }
      ],
      "payable": false,
      "stateMutability": "view",
      "type": "function"
    },
    {
      "payable": true,
      "stateMutability": "payable",
      "type": "fallback"
    },
    {
      "anonymous": false,
      "inputs": [
        {
          "indexed": false,
          "name": "target",
          "type": "address"
        },
        {
          "indexed": false,
          "name": "success",
          "type": "bool"
        }
      ],
      "name": "SuccessFunds",
      "type": "event"
    },
    {
      "anonymous": false,
      "inputs": [
        {
          "indexed": true,
          "name": "from",
          "type": "address"
        },
        {
          "indexed": true,
          "name": "to",
          "type": "address"
        },
        {
          "indexed": false,
          "name": "value",
          "type": "uint256"
        }
      ],
      "name": "Transfer",
      "type": "event"
    },
    {
      "anonymous": false,
      "inputs": [
        {
          "indexed": false,
          "name": "target",
          "type": "address"
        },
        {
          "indexed": false,
          "name": "frozen",
          "type": "bool"
        }
      ],
      "name": "FrozenFunds",
      "type": "event"
    },
    {
      "anonymous": false,
      "inputs": [],
      "name": "Pause",
      "type": "event"
    },
    {
      "anonymous": false,
      "inputs": [],
      "name": "Unpause",
      "type": "event"
    },
    {
      "constant": false,
      "inputs": [
        {
          "name": "newfeeProportion",
          "type": "uint256"
        },
        {
          "name": "newcommissionProportion",
          "type": "uint256"
        }
      ],
      "name": "setProportion",
      "outputs": [],
      "payable": false,
      "stateMutability": "nonpayable",
      "type": "function"
    },
    {
      "constant": true,
      "inputs": [
        {
          "name": "who",
          "type": "address"
        }
      ],
      "name": "Lastbuytime",
      "outputs": [
        {
          "name": "",
          "type": "uint256"
        }
      ],
      "payable": false,
      "stateMutability": "view",
      "type": "function"
    },
    {
      "constant": true,
      "inputs": [
        {
          "name": "who",
          "type": "address"
        },
        {
          "name": "i",
          "type": "uint256"
        }
      ],
      "name": "contributionvalue",
      "outputs": [
        {
          "name": "",
          "type": "uint256"
        }
      ],
      "payable": false,
      "stateMutability": "view",
      "type": "function"
    },
    {
      "constant": true,
      "inputs": [
        {
          "name": "who",
          "type": "address"
        },
        {
          "name": "i",
          "type": "uint256"
        }
      ],
      "name": "TotalbuyerpaymenORsellercollection",
      "outputs": [
        {
          "name": "",
          "type": "uint256"
        }
      ],
      "payable": false,
      "stateMutability": "view",
      "type": "function"
    },
    {
      "constant": true,
      "inputs": [
        {
          "name": "who",
          "type": "address"
        },
        {
          "name": "i",
          "type": "uint256"
        }
      ],
      "name": "Sellercredit",
      "outputs": [
        {
          "name": "",
          "type": "uint256"
        }
      ],
      "payable": false,
      "stateMutability": "view",
      "type": "function"
    },
    {
      "constant": false,
      "inputs": [
        {
          "name": "_to",
          "type": "address"
        },
        {
          "name": "totalprice",
          "type": "uint256"
        },
        {
          "name": "_from",
          "type": "address"
        }
      ],
      "name": "beforeDataTransaction",
      "outputs": [],
      "payable": false,
      "stateMutability": "nonpayable",
      "type": "function"
    },
    {
      "constant": false,
      "inputs": [
        {
          "name": "_from",
          "type": "address"
        },
        {
          "name": "_to",
          "type": "address"
        },
        {
          "name": "totalprice",
          "type": "uint256"
        },
        {
          "name": "buyergrade",
          "type": "uint8"
        }
      ],
      "name": "afterDataTransaction",
      "outputs": [],
      "payable": false,
      "stateMutability": "nonpayable",
      "type": "function"
    },
    {
      "constant": false,
      "inputs": [
        {
          "name": "_from",
          "type": "address"
        },
        {
          "name": "_to",
          "type": "address"
        },
        {
          "name": "totalprice",
          "type": "uint256"
        }
      ],
      "name": "dataTransactionRefund",
      "outputs": [],
      "payable": false,
      "stateMutability": "nonpayable",
      "type": "function"
    },
    {
      "constant": false,
      "inputs": [
        {
          "name": "addressNumber",
          "type": "uint256"
        },
        {
          "name": "value",
          "type": "uint256"
        },
        {
          "name": "_from",
          "type": "address"
        }
      ],
      "name": "beforeRealTimeTransaction",
      "outputs": [],
      "payable": false,
      "stateMutability": "nonpayable",
      "type": "function"
    },
    {
      "constant": false,
      "inputs": [
        {
          "name": "_from",
          "type": "address"
        },
        {
          "name": "_to",
          "type": "address[]"
        },
        {
          "name": "value",
          "type": "uint256"
        },
        {
          "name": "buyergrade",
          "type": "uint8"
        }
      ],
      "name": "afterRealTimeTransaction",
      "outputs": [],
      "payable": false,
      "stateMutability": "nonpayable",
      "type": "function"
    },
    {
      "constant": false,
      "inputs": [
        {
          "name": "_from",
          "type": "address"
        },
        {
          "name": "_to",
          "type": "address[]"
        },
        {
          "name": "value",
          "type": "uint256"
        }
      ],
      "name": "realTimeTransactionRefund",
      "outputs": [],
      "payable": false,
      "stateMutability": "nonpayable",
      "type": "function"
    }
  ],
  "bytecode": "0x6000805460a060020a60ff02191690556003805460ff191660121790556009600555600a600655620186a060075560c0604052600260808190527f657200000000000000000000000000000000000000000000000000000000000060a09081526200006e916008919062000144565b506040805180820190915260018082527f65000000000000000000000000000000000000000000000000000000000000006020909201918252620000b59160099162000144565b506103e86019556064601a5560008054600160a060020a0319163317815560035460075460ff909116600a0a026004819055308252600b602052604090912055600880546200011991600191600281841615610100026000190190911604620001c9565b50600980546200013d916002916000196101006001831615020116829004620001c9565b5062000263565b828054600181600116156101000203166002900490600052602060002090601f016020900481019282601f106200018757805160ff1916838001178555620001b7565b82800160010185558215620001b7579182015b82811115620001b75782518255916020019190600101906200019a565b50620001c592915062000243565b5090565b828054600181600116156101000203166002900490600052602060002090601f016020900481019282601f10620002045780548555620001b7565b82800160010185558215620001b757600052602060002091601f016020900482015b82811115620001b757825482559160010191906001019062000226565b6200026091905b80821115620001c557600081556001016200024a565b90565b612a0580620002736000396000f3fe6080604052600436106102195763ffffffff7c010000000000000000000000000000000000000000000000000000000060003504166302b090c1811461021b57806304a85dfa1461024257806305fefda71461030457806306fdde0314610334578063095ea7b3146103be578063156660131461040b5780631595a4221461044a57806318160ddd1461047d5780631ee71c711461049257806323b872dd146104df5780632e1a7d4d14610522578063313ce5671461054c578063378dc3dc146105775780633a4575981461058c5780633eaaf86b146105c55780633f4ba83a146105da5780634cddae28146105ef5780635c975abb146105f75780636c02a9311461060c5780636ebcf6071461062157806370a0823114610654578063777bf2a5146106875780637918447e146106c057806379c65068146106d55780637b61c3201461070e5780637c28248c146107235780637fed80bb146107665780638456cb5914610799578063863e4299146107ae5780638da5cb5b146107c357806391bbf434146107f457806395d89b41146108245780639bab5e4914610839578063a9059cbb1461087c578063b414d4b6146108b5578063ba0fb861146108e8578063c774c9e914610923578063ceaf7fb21461095c578063dd62ed3e14610964578063e724529c1461099f578063e764c6e1146109da578063eef71d6f14610aa2578063f2fde38b14610ab7578063f400fde414610aea575b005b34801561022757600080fd5b50610230610aff565b60408051918252519081900360200190f35b34801561024e57600080fd5b506102196004803603606081101561026557600080fd5b600160a060020a03823516919081019060408101602082013564010000000081111561029057600080fd5b8201836020820111156102a257600080fd5b803590602001918460208302840111640100000000831117156102c457600080fd5b9190808060200260200160405190810160405280939291908181526020018383602002808284376000920191909152509295505091359250610b05915050565b34801561031057600080fd5b506102196004803603604081101561032757600080fd5b5080359060200135610bbd565b34801561034057600080fd5b50610349610c01565b6040805160208082528351818301528351919283929083019185019080838360005b8381101561038357818101518382015260200161036b565b50505050905090810190601f1680156103b05780820380516001836020036101000a031916815260200191505b509250505060405180910390f35b3480156103ca57600080fd5b506103f7600480360360408110156103e157600080fd5b50600160a060020a038135169060200135610c8e565b604080519115158252519081900360200190f35b34801561041757600080fd5b506102196004803603606081101561042e57600080fd5b5080359060208101359060400135600160a060020a0316610cf1565b34801561045657600080fd5b506102306004803603602081101561046d57600080fd5b5035600160a060020a0316610d9b565b34801561048957600080fd5b50610230610dba565b34801561049e57600080fd5b50610219600480360360808110156104b557600080fd5b508035600160a060020a03908116916020810135909116906040810135906060013560ff16610dc0565b3480156104eb57600080fd5b506103f76004803603606081101561050257600080fd5b50600160a060020a03813581169160208101359091169060400135610e79565b34801561052e57600080fd5b506102196004803603602081101561054557600080fd5b5035610f7f565b34801561055857600080fd5b50610561610fe3565b6040805160ff9092168252519081900360200190f35b34801561058357600080fd5b50610230610fec565b34801561059857600080fd5b50610230600480360360408110156105af57600080fd5b50600160a060020a038135169060200135610ff2565b3480156105d157600080fd5b50610230611044565b3480156105e657600080fd5b506103f761104a565b6102196110c5565b34801561060357600080fd5b506103f76110fc565b34801561061857600080fd5b5061034961110c565b34801561062d57600080fd5b506102306004803603602081101561064457600080fd5b5035600160a060020a0316611167565b34801561066057600080fd5b506102306004803603602081101561067757600080fd5b5035600160a060020a0316611179565b34801561069357600080fd5b50610230600480360360408110156106aa57600080fd5b50600160a060020a038135169060200135611194565b3480156106cc57600080fd5b506102306111d4565b3480156106e157600080fd5b50610219600480360360408110156106f857600080fd5b50600160a060020a0381351690602001356111da565b34801561071a57600080fd5b506103496112a7565b34801561072f57600080fd5b506102196004803603606081101561074657600080fd5b50600160a060020a03813581169160208101359091169060400135611302565b34801561077257600080fd5b506103f76004803603602081101561078957600080fd5b5035600160a060020a0316611357565b3480156107a557600080fd5b506103f7611375565b3480156107ba57600080fd5b506102306113f5565b3480156107cf57600080fd5b506107d86113fa565b60408051600160a060020a039092168252519081900360200190f35b34801561080057600080fd5b506102196004803603604081101561081757600080fd5b5080359060200135611409565b34801561083057600080fd5b50610349611442565b34801561084557600080fd5b506102196004803603606081101561085c57600080fd5b50600160a060020a0381358116916020810135916040909101351661149a565b34801561088857600080fd5b506103f76004803603604081101561089f57600080fd5b50600160a060020a038135169060200135611506565b3480156108c157600080fd5b506103f7600480360360208110156108d857600080fd5b5035600160a060020a0316611536565b3480156108f457600080fd5b506102306004803603604081101561090b57600080fd5b50600160a060020a038135811691602001351661154b565b34801561092f57600080fd5b506102306004803603604081101561094657600080fd5b50600160a060020a038135169060200135611568565b6102196115ba565b34801561097057600080fd5b506102306004803603604081101561098757600080fd5b50600160a060020a03813581169160200135166115d3565b3480156109ab57600080fd5b50610219600480360360408110156109c257600080fd5b50600160a060020a03813516906020013515156115fe565b3480156109e657600080fd5b50610219600480360360808110156109fd57600080fd5b600160a060020a038235169190810190604081016020820135640100000000811115610a2857600080fd5b820183602082011115610a3a57600080fd5b80359060200191846020830284011164010000000083111715610a5c57600080fd5b919080806020026020016040519081016040528093929190818152602001838360200280828437600092019190915250929550508235935050506020013560ff16611690565b348015610aae57600080fd5b506102196117e3565b348015610ac357600080fd5b5061021960048036036020811015610ada57600080fd5b5035600160a060020a0316611852565b348015610af657600080fd5b506102306118b8565b60065481565b60005460a060020a900460ff1615610b1c57600080fd5b81518102601b819055610b2e906118be565b601681905550610b41308460165461190b565b60005b8251811015610bb757610b6f8382815181101515610b5e57fe5b906020019060200201516001611a56565b610b8f8382815181101515610b8057fe5b90602001906020020151611aee565b610baf8382815181101515610ba057fe5b90602001906020020151611cb6565b600101610b44565b50505050565b600054600160a060020a03163314610bd457600080fd5b60005460a060020a900460ff1615610beb57600080fd5b808211610bfd57600582905560068190555b5050565b60018054604080516020600284861615610100026000190190941693909304601f81018490048402820184019092528181529291830182828015610c865780601f10610c5b57610100808354040283529160200191610c86565b820191906000526020600020905b815481529060010190602001808311610c6957829003601f168201915b505050505081565b60008054600160a060020a03163314610ca657600080fd5b60005460a060020a900460ff1615610cbd57600080fd5b5060008054600160a060020a039081168252600c602090815260408084209286168452919052902081905560015b92915050565b60005460a060020a900460ff1615610d0857600080fd5b600160a060020a0381166000908152600d602052604090205460ff1615610d2e57600080fd5b828202601b819055610d3f906118be565b601681905550610d52813060165461190b565b60408051600160a060020a03831681526001602082015281517f4656763aeb5076063b1b9201e728e03b650c4e545b46330125af5d01c01fae56929181900390910190a1505050565b600160a060020a0381166000908152601f60205260409020545b919050565b60045490565b60005460a060020a900460ff1615610dd757600080fd5b610de082611e7d565b601755610ded8284611ecb565b6017805490910190819055610e05903090859061190b565b610e108285836121fb565b601381905550610e23308560135461190b565b610e2f848360016124ec565b610e3b838360026124ec565b610e4784836001612560565b610e5383836002612560565b610e5e836002611a56565b610e6783611cb6565b610e7083611aee565b610bb7846125cb565b60008054600160a060020a03163314610e9157600080fd5b60005460a060020a900460ff1615610ea857600080fd5b60008054600160a060020a039081168252600c60209081526040808420928816845291905290205482111580610f03575060008054600160a060020a039081168252600c602090815260408084209288168452919052902054155b1515610f0e57600080fd5b60008054600160a060020a039081168252600c60209081526040808420928816845291905290205415610f6a5760008054600160a060020a039081168252600c6020908152604080842092881684529190529020805483900390555b610f7584848461190b565b5060019392505050565b60005460a060020a900460ff1615610f9657600080fd5b600554810230311015610fa857600080fd5b610fb333308361190b565b6005546040513391830280156108fc02916000818181858888f19350505050158015610bfd573d6000803e3d6000fd5b60035460ff1681565b60075481565b6000816001141561101c5750600160a060020a038216600090815260216020526040902054610ceb565b8160021415610ceb5750600160a060020a038216600090815260226020526040902054610ceb565b60045481565b60008054600160a060020a0316331461106257600080fd5b60005460a060020a900460ff16151561107a57600080fd5b6000805474ff0000000000000000000000000000000000000000191681556040517f7805862f689e2f13df9f062ff482ad3ad112aca9e0847911ed832e158c525b339190a150600190565b60005460a060020a900460ff16156110dc57600080fd5b6000600654348115156110eb57fe5b0490506110f930338361190b565b50565b60005460a060020a900460ff1681565b6008805460408051602060026001851615610100026000190190941693909304601f81018490048402820184019092528181529291830182828015610c865780601f10610c5b57610100808354040283529160200191610c86565b600b6020526000908152604090205481565b600160a060020a03166000908152600b602052604090205490565b600160a060020a0382166000908152602080526040812082600381106111b657fe5b602081049091015460ff601f9092166101000a900416905092915050565b60055481565b600054600160a060020a031633146111f157600080fd5b60005460a060020a900460ff161561120857600080fd5b600160a060020a0382166000908152600b602090815260408083208054850190556004805485019055805184815290513093927fddf252ad1be2c89b69c2b068fc378daa952ba7f163c4a11628f55a4df523b3ef928290030190a3604080518281529051600160a060020a0384169130917fddf252ad1be2c89b69c2b068fc378daa952ba7f163c4a11628f55a4df523b3ef9181900360200190a35050565b6009805460408051602060026001851615610100026000190190941693909304601f81018490048402820184019092528181529291830182828015610c865780601f10610c5b57610100808354040283529160200191610c86565b60005460a060020a900460ff161561131957600080fd5b611322816118be565b601681905550611335308460165461190b565b611340826001611a56565b61134982611aee565b61135282611cb6565b505050565b600160a060020a03166000908152600d602052604090205460ff1690565b60008054600160a060020a0316331461138d57600080fd5b60005460a060020a900460ff16156113a457600080fd5b6000805474ff0000000000000000000000000000000000000000191660a060020a1781556040517f6985a02210a168e66602d3235cb6db0e70f92b3ba4d376a33c0f3d9434bff6259190a150600190565b303190565b600054600160a060020a031681565b600054600160a060020a0316331461142057600080fd5b60005460a060020a900460ff161561143757600080fd5b601991909155601a55565b6002805460408051602060018416156101000260001901909316849004601f81018490048402820184019092528181529291830182828015610c865780601f10610c5b57610100808354040283529160200191610c86565b60005460a060020a900460ff16156114b157600080fd5b600160a060020a0381166000908152600d602052604090205460ff16156114d757600080fd5b600160a060020a0383166000908152600d602052604090205460ff16156114fd57600080fd5b610d3f826118be565b6000805460a060020a900460ff161561151e57600080fd5b6044361461152b57600080fd5b610ceb33848461190b565b600d6020526000908152604090205460ff1681565b600c60209081526000928352604080842090915290825290205481565b600081600114156115925750600160a060020a0382166000908152601d6020526040902054610ceb565b8160021415610ceb5750600160a060020a0382166000908152601e6020526040902054610ceb565b60005460a060020a900460ff16156115d157600080fd5b565b600160a060020a039182166000908152600c6020908152604080832093909416825291909152205490565b600054600160a060020a0316331461161557600080fd5b60005460a060020a900460ff161561162c57600080fd5b600160a060020a0382166000818152600d6020908152604091829020805460ff191685151590811790915582519384529083015280517f48335238b4855f35377ed80f164e8c6f3c366e54ac00b96a6402d4a9814a03a59281900390910190a15050565b60005460a060020a900460ff16156116a757600080fd5b60005b83518110156117a3576116bc83611e7d565b60175583516116e29084908690849081106116d357fe5b90602001906020020151611ecb565b60178054909101905583516117119030908690849081106116ff57fe5b9060200190602002015160175461190b565b611734848281518110151561172257fe5b906020019060200201518460026124ec565b611757848281518110151561174557fe5b90602001906020020151846002612560565b611779848281518110151561176857fe5b906020019060200201516002611a56565b61178a8482815181101515610ba057fe5b61179b8482815181101515610b8057fe5b6001016116aa565b506117b28351830285836121fb565b6013819055506117c5308560135461190b565b6117d4848451840260016124ec565b610e7084845184026001612560565b600054600160a060020a031633146117fa57600080fd5b60005460a060020a900460ff161561181157600080fd5b3031600a81905560008054604051600160a060020a03909116926108fc81150292909190818181858888f193505050501580156110f9573d6000803e3d6000fd5b600054600160a060020a0316331461186957600080fd5b600160a060020a038116151561187e57600080fd5b600080547fffffffffffffffffffffffff000000000000000000000000000000000000000016600160a060020a0392909216919091179055565b600a5481565b6000805460a060020a900460ff16156118d657600080fd5b601954828115156118e357fe5b046015819055156118fb576015548201601655611903565b600182016016555b505060165490565b600160a060020a038216151561192057600080fd5b600160a060020a0383166000908152600b602052604090205481111561194557600080fd5b600160a060020a0382166000908152600b6020526040902054818101101561196c57600080fd5b600160a060020a0383166000908152600d602052604090205460ff161561199257600080fd5b600160a060020a0382166000908152600d602052604090205460ff16156119b857600080fd5b600160a060020a038083166000818152600b60209081526040808320805495891680855282852080548981039091559486905281548801909155815187815291519390950194927fddf252ad1be2c89b69c2b068fc378daa952ba7f163c4a11628f55a4df523b3ef929181900390910190a3600160a060020a038084166000908152600b6020526040808220549287168252902054018114610bb757fe5b60005460a060020a900460ff1615611a6d57600080fd5b8060011415611aac57600160a060020a03821660009081526020805260409020805461ff001981166101009182900460ff908116600101169091021790555b8060021415610bfd5750600160a060020a031660009081526020805260409020805462ff0000198116620100009182900460ff90811660010116909102179055565b60005460a060020a900460ff1615611b0557600080fd5b600160a060020a0381166000908152602080526040902054610100900460ff16600a1415611bc157600160a060020a038116600090815260208052604081205460ff161115611b8057600160a060020a03811660009081526020805260409020805460ff808216600019011660ff199091161761ff00191690555b600160a060020a038116600090815260208052604090205460ff161515611bc157600160a060020a03811660009081526020805260409020805460ff191690555b600160a060020a0381166000908152602080526040902054600a61010090910460ff1611156110f957600160a060020a038116600090815260208052604090208054601c8054600a60ff610100909404841604831660ff1990911617908190559154611c3092821691166125fe565b601c805461ff00191661010060ff938416810291909117808355600160a060020a03851660009081526020805260409020805460ff198116928490048616908616038516919091178155915404909116600a029060015b60208104909101805460ff601f9093166101000a80820484169490940383168402929093021990921617905550565b60005460a060020a900460ff1615611ccd57600080fd5b600160a060020a038116600090815260208052604090205462010000900460ff1660321415611d9657600160a060020a0381166000908152602080526040902054602860ff9091161015611d5057600160a060020a038116600090815260208052604090208054600160ff808316919091011660ff199091161762ff0000191690555b600160a060020a038116600090815260208052604090205460ff1660281415611d9657600160a060020a03811660009081526020805260409020805460ff191660281790555b600160a060020a038116600090815260208052604090205460326201000090910460ff1611156110f957600160a060020a038116600090815260208052604090208054601c805462ff000019166032620100009384900460ff908116919091048116840291909117918290559254611e189392909104821691166028036125fe565b601c805460ff928316630100000090810263ff0000001990921691909117808355600160a060020a03851660009081526020805260409020805460ff198116908616928490048616929092018516919091178155915404909116603202906002611c87565b6000805460a060020a900460ff1615611e9557600080fd5b601a5482811515611ea257fe5b04601881905515611eba576018548203601755611ec3565b60001982016017555b505060175490565b6000805460a060020a900460ff1615611ee357600080fd5b601a5483811515611ef057fe5b04601855600160a060020a0382166000908152602080526040902054601c805466ff000000000000191660ff92831666010000000000009081029190911791829055900416611f4083600261261c565b611f498461272a565b601c805465ff0000000000191665010000000000929093019390930160ff90811682029290921792839055606492041611801590611f975750601c54605a6501000000000090910460ff1610155b15611faa57601854600a90600902046014555b601c54605a6501000000000090910460ff16108015611fd95750601c5460506501000000000090910460ff1610155b15611fec57601854600a90600802046014555b601c5460506501000000000090910460ff1610801561201b5750601c5460466501000000000090910460ff1610155b1561202e57601854600a90600702046014555b601c5460466501000000000090910460ff1610801561205d5750601c54603c6501000000000090910460ff1610155b1561207057601854600a90600602046014555b601c54603c6501000000000090910460ff1610801561209f5750601c5460326501000000000090910460ff1610155b156120b257601854600a90600502046014555b601c5460326501000000000090910460ff161080156120e15750601c5460286501000000000090910460ff1610155b156120f457601854600a90600402046014555b601c5460286501000000000090910460ff161080156121235750601c54601e6501000000000090910460ff1610155b1561213657601854600a90600302046014555b601c54601e6501000000000090910460ff161080156121655750601c5460146501000000000090910460ff1610155b1561217857601854600a90600202046014555b601c5460146501000000000090910460ff161080156121a75750601c54600a6501000000000090910460ff1610155b156121b757601854600a90046014555b601c54600a6501000000000090910460ff161080156121e65750601c5460006501000000000090910460ff1610155b156121f15760006014555b5060145492915050565b6000805460a060020a900460ff161561221357600080fd5b6019548481151561222057fe5b0460155561222d826127fb565b61223884600161261c565b6122418561284d565b61224a8661291b565b010101601c60046101000a81548160ff021916908360ff1602179055506064601c60049054906101000a900460ff1660ff16111580156122995750601c54605a64010000000090910460ff1610155b156122ac57601554600a90600902046013555b601c54605a64010000000090910460ff161080156122d95750601c54605064010000000090910460ff1610155b156122ec57601554600a90600802046013555b601c54605064010000000090910460ff161080156123195750601c54604664010000000090910460ff1610155b1561232c57601554600a90600702046013555b601c54604664010000000090910460ff161080156123595750601c54603c64010000000090910460ff1610155b1561236c57601554600a90600602046013555b601c54603c64010000000090910460ff161080156123995750601c54603264010000000090910460ff1610155b156123ac57601554600a90600502046013555b601c54603264010000000090910460ff161080156123d95750601c54602864010000000090910460ff1610155b156123ec57601554600a90600402046013555b601c54602864010000000090910460ff161080156124195750601c54601e64010000000090910460ff1610155b1561242c57601554600a90600302046013555b601c54601e64010000000090910460ff161080156124595750601c54601464010000000090910460ff1610155b1561246c57601554600a90600202046013555b601c54601464010000000090910460ff161080156124995750601c54600a64010000000090910460ff1610155b156124a957601554600a90046013555b601c54600a64010000000090910460ff161080156124d65750601c54600064010000000090910460ff1610155b156124e15760006013555b506013549392505050565b60005460a060020a900460ff161561250357600080fd5b6107d0821061135257806001141561253557600160a060020a0383166000908152601d60205260409020805460010190555b8060021415611352575050600160a060020a03166000908152601e6020526040902080546001019055565b60005460a060020a900460ff161561257757600080fd5b806001141561259f57600160a060020a03831660009081526021602052604090208054830190555b806002141561135257600160a060020a0383166000908152602260205260409020805483019055505050565b60005460a060020a900460ff16156125e257600080fd5b600160a060020a03166000908152601f60205260409020429055565b60008160ff168360ff16106126135781612615565b825b9392505050565b6000805460a060020a900460ff161561263457600080fd5b816001141561265a57600160a060020a0383166000908152602160205260409020546010555b816002141561268057600160a060020a0383166000908152602260205260409020546010555b6010546301312d001161269557506014610ceb565b6301312d006010541080156126af5750621e848060105410155b156126bc5750600f610ceb565b621e84806010541080156126d5575062030d4060105410155b156126e25750600a610ceb565b62030d406010541080156126fa5750614e2060105410155b1561270757506005610ceb565b614e2060105410801561271d5750600060105410155b15610ceb57506000610ceb565b6000805460a060020a900460ff161561274257600080fd5b600160a060020a0382166000908152601e602052604090205460128190556127101161277057506028610db5565b61271060125410801561278757506103e860125410155b156127945750601e610db5565b6103e86012541080156127aa5750606460125410155b156127b757506014610db5565b60646012541080156127cc5750600a60125410155b156127d95750600a610db5565b600a6012541080156127ee5750600060125410155b15610db557506000610db5565b6000805460a060020a900460ff161561281357600080fd5b60ff821615156128255750600a610db5565b8160ff166001141561283957506014610db5565b8160ff1660021415610db55750601e610db5565b6000805460a060020a900460ff161561286557600080fd5b600160a060020a0382166000908152601d602052604090205460118190556127101161289357506014610db5565b6127106011541080156128aa57506103e860115410155b156128b75750600f610db5565b6103e86011541080156128cd5750606460115410155b156128da5750600a610db5565b60646011541080156128ef5750600a60115410155b156128fc57506005610db5565b600a6011541080156127ee5750601154600011610db557506000610db5565b6000805460a060020a900460ff161561293357600080fd5b600160a060020a0382166000908152601f6020526040902054600e8190554203600f8190556276a7001161296957506000610db5565b600f546276a700118015612982575062278d00600f5410155b1561298f5750600a610db5565b62278d00600f541080156129a85750600f546203f48011155b156129b557506014610db5565b600f546203f4801180156129cc57506000600f5410155b15610db55750601e610db556fea165627a7a72305820d4e974d5e0b5bf5bfe7a84091060dff7f2db11df22bde0cd938aade4e635152d0029",
  "source": "pragma solidity ^0.5.0;\r\n\r\nimport \"./token.sol\";\r\n\r\ncontract transaction is token {\r\n    \r\n    uint256 constant DAY_IN_SECONDS = 86400; \r\n    uint256 constant MONTH_IN_SECONDS = 2592000; \r\n    uint256 private lastbuytimeInSeconds; \r\n    uint256 private timeinterval;\r\n    uint256 private totalmoney;\r\n    uint256 private buycontributionvalue;\r\n    uint256 private sellcontributionvalue;\r\n    uint256 private buyrebate; \r\n    uint256 private sellrebate; \r\n    uint256 private fee; \r\n    uint256 private buyerpayment;\r\n    uint256 private sellercollection;\r\n    uint256 private commission;\r\n    uint256 private feeProportion = 1000; \r\n    uint256 private commissionProportion = 100; \r\n    uint256 private totalvalue; \r\n    uint8 private needSubsellercredit;\r\n    uint8 private realSubsellercredit; \r\n    uint8 private needAddsellercredit; \r\n    uint8 private realAddsellercredit; \r\n    uint8 private _buyerTotalScore; \r\n    uint8 private _sellerTotalScore; \r\n    uint8 private sellercreditScore; \r\n    event SuccessFunds(address target, bool success);\r\n    mapping (address => uint256) private _buycontributionvalue;\r\n    mapping (address => uint256) private _sellcontributionvalue;\r\n    mapping (address => uint256) private _lastbuytime;\r\n    mapping (address => uint8[3]) private _sellercredit;\r\n    mapping (address => uint256) private _totalbuyerpayment;\r\n    mapping (address => uint256) private _totalsellercollection;\r\n\r\n    function min(uint8 a, uint8 b) internal pure returns (uint8) {\r\n        return a < b ? a : b;\r\n    }\r\n    \r\n    function setProportion(uint256 newfeeProportion, uint256 newcommissionProportion) onlyOwner public whenNotPaused{\r\n        feeProportion = newfeeProportion;\r\n        commissionProportion = newcommissionProportion; \r\n    } \r\n   \r\n    function _Buyerpayment(uint256 totalprice) internal whenNotPaused returns (uint256){\r\n        fee = totalprice / feeProportion;       \r\n        if(fee!=0){        \r\n            buyerpayment = fee + totalprice; \r\n        }\r\n        else{\r\n            buyerpayment = 1 + totalprice;\r\n        }\r\n        return buyerpayment;\r\n  }\r\n  \r\n    function _Sellercollection(uint256 totalprice) internal whenNotPaused returns (uint256){\r\n        commission = totalprice / commissionProportion;      \r\n        if(commission!=0){        \r\n            sellercollection = totalprice - commission;  \r\n        }\r\n        else{\r\n            sellercollection = totalprice - 1;\r\n        }\r\n        return sellercollection;\r\n  }\r\n  \r\n    function Lastbuytime(address who) external view returns (uint256) {\r\n        return _lastbuytime[who];    \r\n    }  \r\n\r\n    function _UpdateLastbuytime(address buyer)  internal whenNotPaused{\r\n        _lastbuytime[buyer] = now;  \r\n    }\r\n\r\n    function contributionvalue(address who, uint256 i) external view returns (uint256) {\r\n        if(i == 1){\r\n            return _buycontributionvalue[who];\r\n        }\r\n        if(i == 2){\r\n            return _sellcontributionvalue[who];\r\n        }\r\n    } \r\n\r\n    function _Updatecontributionvalue(address target, uint256 totalprice, uint256 i)  internal whenNotPaused{\r\n        if(totalprice >= 2000){\r\n            if(i == 1){\r\n                _buycontributionvalue[target] += 1;\r\n            }\r\n            if(i == 2){\r\n                _sellcontributionvalue[target] += 1;\r\n            }  \r\n        }\r\n    }\r\n\r\n    function TotalbuyerpaymenORsellercollection(address who, uint256 i) external view returns (uint256) {\r\n        if(i == 1){\r\n            return _totalbuyerpayment[who];\r\n        }\r\n        if(i == 2){\r\n            return _totalsellercollection[who];\r\n        }\r\n    }\r\n\r\n    function _UpdateTotalbuyerpaymentORsellercollection(address target, uint256 totalprice, uint256 i)  internal whenNotPaused{\r\n        if(i == 1){\r\n            _totalbuyerpayment[target] += totalprice; \r\n        }\r\n        if(i == 2){\r\n            _totalsellercollection[target] += totalprice;  \r\n        }    \r\n    }\r\n\r\n    function Sellercredit(address who, uint256 i) external view returns (uint256) {\r\n        return _sellercredit[who][i];\r\n    }\r\n\r\n    function _UpdateRelatedSellercredit(address target, uint256 i)  internal whenNotPaused{\r\n        if(i == 1){\r\n            _sellercredit[target][1] += 1;  \r\n        }\r\n        if(i == 2){\r\n            _sellercredit[target][2] += 1;  \r\n        }        \r\n    }\r\n\r\n    function _DecreaseSellercredit(address target)  internal whenNotPaused{\r\n        if(_sellercredit[target][1] == 10){   \r\n            if(_sellercredit[target][0] > 0){\r\n                _sellercredit[target][0] -= 1;  \r\n                _sellercredit[target][1] = 0;   \r\n            }\r\n            if(_sellercredit[target][0] == 0){   \r\n                _sellercredit[target][0] = 0;   \r\n            }\r\n        }\r\n        if(_sellercredit[target][1] > 10){  \r\n            needSubsellercredit = _sellercredit[target][1] / 10;  \r\n            realSubsellercredit = min(needSubsellercredit, _sellercredit[target][0]);  \r\n            _sellercredit[target][0] -= realSubsellercredit;     \r\n            _sellercredit[target][1] -= realSubsellercredit * 10;  \r\n        }\r\n    }\r\n\r\n    function _IncreaseSellercredit(address target)  internal whenNotPaused{\r\n        if(_sellercredit[target][2] == 50){ \r\n            if(_sellercredit[target][0] < 40){ \r\n                _sellercredit[target][0] += 1;  \r\n                _sellercredit[target][2] = 0;          \r\n            }\r\n            if(_sellercredit[target][0] == 40){   \r\n                _sellercredit[target][0] = 40;  \r\n            }\r\n        } \r\n        if(_sellercredit[target][2] > 50){   \r\n            needAddsellercredit = _sellercredit[target][2] / 50;  \r\n            realAddsellercredit = min(needAddsellercredit, 40 - _sellercredit[target][0]);  \r\n            _sellercredit[target][0] += realAddsellercredit;    \r\n            _sellercredit[target][2] -= realAddsellercredit * 50;  \r\n        }\r\n    }\r\n\r\n    function LastbuytimeScore(address who) internal whenNotPaused returns (uint8) {\r\n        lastbuytimeInSeconds = _lastbuytime[who]; \r\n        timeinterval = now - lastbuytimeInSeconds; \r\n        if(timeinterval >= MONTH_IN_SECONDS * 3){ \r\n            return 0;\r\n        }\r\n        if(timeinterval < MONTH_IN_SECONDS * 3 && timeinterval >= MONTH_IN_SECONDS){  \r\n            return 10;\r\n        }\r\n        if(timeinterval < MONTH_IN_SECONDS && timeinterval >= DAY_IN_SECONDS * 3){  \r\n            return 20;\r\n        }\r\n        if(timeinterval < DAY_IN_SECONDS * 3 && timeinterval >= 0){  \r\n            return 30;\r\n        }\r\n    }\r\n    \r\n    function BuycontributionvalueScore(address who) internal whenNotPaused returns (uint8) {\r\n        buycontributionvalue = _buycontributionvalue[who]; \r\n        if(buycontributionvalue >= 10000){  \r\n            return 20;\r\n        }\r\n        if(buycontributionvalue < 10000 && buycontributionvalue >= 1000){  \r\n            return 15;\r\n        }\r\n        if(buycontributionvalue < 1000 && buycontributionvalue >= 100){  \r\n            return 10;\r\n        }\r\n        if(buycontributionvalue < 100 && buycontributionvalue >= 10){  \r\n            return 5;\r\n        }\r\n        if(buycontributionvalue < 10 && buycontributionvalue >= 0){ \r\n            return 0;\r\n        }\r\n    }\r\n\r\n    function TotalbuyerpaymentScoreORsellercollectionScore(address who, uint256 i) internal whenNotPaused returns (uint8) {\r\n        if(i == 1){\r\n            totalmoney = _totalbuyerpayment[who]; \r\n        }\r\n        if(i == 2){\r\n            totalmoney = _totalsellercollection[who]; \r\n        }\r\n        if(totalmoney >= 20000000){ \r\n            return 20;\r\n        }\r\n        if(totalmoney < 20000000 && totalmoney >= 2000000){ \r\n            return 15;\r\n        }\r\n        if(totalmoney < 2000000 && totalmoney >= 200000){  \r\n            return 10;\r\n        }\r\n        if(totalmoney < 200000 && totalmoney >= 20000){  \r\n            return 5;\r\n        }\r\n        if(totalmoney < 20000 && totalmoney >= 0){ \r\n            return 0;\r\n        }\r\n    }\r\n\r\n    function BuyergradeScore(uint8 buyergrade) internal view whenNotPaused returns (uint8) { \r\n        if(buyergrade == 0){ \r\n            return 10;       \r\n        }\r\n        if(buyergrade == 1){ \r\n            return 20;       \r\n        }\r\n        if(buyergrade == 2){ \r\n            return 30;       \r\n        }\r\n    }\r\n\r\n    function SellcontributionvalueScore(address who) internal whenNotPaused returns (uint8) {\r\n        sellcontributionvalue = _sellcontributionvalue[who]; \r\n        if(sellcontributionvalue >= 10000){  \r\n            return 40;\r\n        }\r\n        if(sellcontributionvalue < 10000 && sellcontributionvalue >= 1000){  \r\n            return 30;\r\n        }\r\n        if(sellcontributionvalue < 1000 && sellcontributionvalue >= 100){  \r\n            return 20;\r\n        }\r\n        if(sellcontributionvalue < 100 && sellcontributionvalue >= 10){  \r\n            return 10;\r\n        }\r\n        if(sellcontributionvalue < 10 && sellcontributionvalue >= 0){ \r\n            return 0;\r\n        }\r\n    }\r\n\r\n    function BuyRebate(uint256 totalprice, address who, uint8 buyergrade) internal whenNotPaused returns (uint256) { \r\n        \r\n        fee = totalprice / feeProportion;      \r\n        _buyerTotalScore = LastbuytimeScore(who) + BuycontributionvalueScore(who) + TotalbuyerpaymentScoreORsellercollectionScore(who, 1) + BuyergradeScore(buyergrade);     \r\n        if(_buyerTotalScore <= 100 && _buyerTotalScore >= 90){  \r\n            buyrebate = fee * 9 / 10;\r\n        }\r\n        if(_buyerTotalScore < 90 && _buyerTotalScore >= 80){  \r\n            buyrebate = fee * 8 / 10;\r\n        }\r\n        if(_buyerTotalScore < 80 && _buyerTotalScore >= 70){  \r\n            buyrebate = fee * 7 / 10;\r\n        }\r\n        if(_buyerTotalScore < 70 && _buyerTotalScore >= 60){ \r\n            buyrebate = fee * 6 / 10;\r\n        }\r\n        if(_buyerTotalScore < 60 && _buyerTotalScore >= 50){ \r\n            buyrebate = fee * 5 / 10;\r\n        }\r\n        if(_buyerTotalScore < 50 && _buyerTotalScore >= 40){ \r\n            buyrebate = fee * 4 / 10;\r\n        }\r\n        if(_buyerTotalScore < 40 && _buyerTotalScore >= 30){ \r\n            buyrebate = fee * 3 / 10;\r\n        }\r\n        if(_buyerTotalScore < 30 && _buyerTotalScore >= 20){ \r\n            buyrebate = fee * 2 / 10;\r\n        }\r\n        if(_buyerTotalScore < 20 && _buyerTotalScore >= 10){ \r\n            buyrebate = fee * 1 / 10;\r\n        }\r\n        if(_buyerTotalScore < 10 && _buyerTotalScore >= 0){ \r\n            buyrebate = 0;\r\n        }\r\n        return buyrebate;\r\n    }\r\n\r\n    function SellRebate(uint256 totalprice, address who) internal whenNotPaused returns (uint256) { \r\n        \r\n        commission = totalprice / commissionProportion;    \r\n        sellercreditScore = _sellercredit[who][0]; \r\n        _sellerTotalScore = SellcontributionvalueScore(who) + TotalbuyerpaymentScoreORsellercollectionScore(who, 2) + sellercreditScore; \r\n        if(_sellerTotalScore <= 100 && _sellerTotalScore >= 90){  \r\n            sellrebate = commission * 9 / 10;\r\n        }\r\n        if(_sellerTotalScore < 90 && _sellerTotalScore >= 80){  \r\n            sellrebate = commission * 8 / 10;\r\n        }\r\n        if(_sellerTotalScore < 80 && _sellerTotalScore >= 70){  \r\n            sellrebate = commission * 7 / 10;\r\n        }\r\n        if(_sellerTotalScore < 70 && _sellerTotalScore >= 60){ \r\n            sellrebate = commission * 6 / 10;\r\n        }\r\n        if(_sellerTotalScore < 60 && _sellerTotalScore >= 50){ \r\n            sellrebate = commission * 5 / 10;\r\n        }\r\n        if(_sellerTotalScore < 50 && _sellerTotalScore >= 40){ \r\n            sellrebate = commission * 4 / 10;\r\n        }\r\n        if(_sellerTotalScore < 40 && _sellerTotalScore >= 30){ \r\n            sellrebate = commission * 3 / 10;\r\n        }\r\n        if(_sellerTotalScore < 30 && _sellerTotalScore >= 20){ \r\n            sellrebate = commission * 2 / 10;\r\n        }\r\n        if(_sellerTotalScore < 20 && _sellerTotalScore >= 10){ \r\n            sellrebate = commission * 1 / 10;\r\n        }\r\n        if(_sellerTotalScore < 10 && _sellerTotalScore >= 0){ \r\n            sellrebate = 0;\r\n        }\r\n        return sellrebate;\r\n    }\r\n\r\n    function beforeDataTransaction(address _to, uint256 totalprice, address _from) public whenNotPaused{\r\n        require(!frozenAccount[_from]);             \r\n        require(!frozenAccount[_to]);               \r\n        buyerpayment = _Buyerpayment(totalprice);  \r\n        _transfer(_from, address(this), buyerpayment); \r\n        emit SuccessFunds(_from, true);\r\n  }\r\n  \r\n    function afterDataTransaction(address  _from, address  _to, uint256 totalprice, uint8 buyergrade) public whenNotPaused{\r\n        sellercollection = _Sellercollection(totalprice);   \r\n        sellercollection += SellRebate(totalprice, _to); \r\n        _transfer(address(this), _to, sellercollection); \r\n        buyrebate = BuyRebate(totalprice, _from, buyergrade); \r\n        _transfer(address(this), _from, buyrebate); \r\n        _Updatecontributionvalue(_from, totalprice, 1);\r\n        _Updatecontributionvalue(_to, totalprice, 2);\r\n        _UpdateTotalbuyerpaymentORsellercollection(_from, totalprice, 1);\r\n        _UpdateTotalbuyerpaymentORsellercollection(_to, totalprice, 2);\r\n        _UpdateRelatedSellercredit(_to, 2);\r\n        _IncreaseSellercredit(_to);\r\n        _DecreaseSellercredit(_to);\r\n        _UpdateLastbuytime(_from); \r\n    }\r\n\r\n    function dataTransactionRefund(address _from, address _to, uint256 totalprice) public whenNotPaused{\r\n        buyerpayment = _Buyerpayment(totalprice);  \r\n        _transfer( address(this), _from, buyerpayment);  \r\n        _UpdateRelatedSellercredit(_to, 1);\r\n        _DecreaseSellercredit(_to);\r\n        _IncreaseSellercredit(_to);\r\n    }\r\n\r\n     function beforeRealTimeTransaction(uint256 addressNumber, uint256 value, address _from) public whenNotPaused{\r\n        require(!frozenAccount[_from]);             \r\n        totalvalue = addressNumber * value;   \r\n        buyerpayment = _Buyerpayment(totalvalue);  \r\n        _transfer(_from, address(this), buyerpayment); \r\n        emit SuccessFunds(_from, true);\r\n  }\r\n \r\n    function afterRealTimeTransaction(address _from, address[] memory _to, uint256 value, uint8 buyergrade) public whenNotPaused{\r\n        for(uint256 i = 0; i < _to.length; i++){\r\n            sellercollection = _Sellercollection(value);   \r\n            sellercollection += SellRebate(value, _to[i]); \r\n            _transfer(address(this), _to[i], sellercollection); \r\n            _Updatecontributionvalue(_to[i], value, 2);\r\n            _UpdateTotalbuyerpaymentORsellercollection(_to[i], value, 2);\r\n            _UpdateRelatedSellercredit(_to[i], 2);\r\n            _IncreaseSellercredit(_to[i]);\r\n            _DecreaseSellercredit(_to[i]);\r\n        }\r\n        buyrebate = BuyRebate(value * _to.length, _from, buyergrade); \r\n        _transfer(address(this), _from, buyrebate);\r\n        _Updatecontributionvalue(_from, value * _to.length, 1);\r\n        _UpdateTotalbuyerpaymentORsellercollection(_from, value * _to.length, 1);\r\n        _UpdateLastbuytime(_from); \r\n}\r\n   \r\n    function realTimeTransactionRefund(address _from, address[] memory _to, uint256 value) public whenNotPaused{\r\n        totalvalue = _to.length * value;  \r\n        buyerpayment = _Buyerpayment(totalvalue);  \r\n        _transfer( address(this), _from, buyerpayment);  \r\n        for(uint256 i = 0; i < _to.length; i++){\r\n            _UpdateRelatedSellercredit(_to[i], 1);\r\n            _DecreaseSellercredit(_to[i]);\r\n            _IncreaseSellercredit(_to[i]);\r\n        }\r\n    }\r\n}",
  "sourcePath": "G:\\ControlSolidity\\contracts\\transaction.sol",
  "compiler": {
    "name": "solc",
    "version": "0.5.0+commit.1d4f565a.Emscripten.clang"
  },
  "schemaVersion": "3.0.5",
  "updatedAt": "2019-05-02T08:55:02.864Z",
  "devdoc": {
    "methods": {}
  },
  "userdoc": {
    "methods": {}
  }
}