{
  "contractName": "transaction",
  "abi": [
    {
      "constant": true,
      "inputs": [],
      "name": "rechargePrice",
      "outputs": [
        {
          "name": "",
          "type": "uint256"
        }
      ],
      "payable": false,
      "stateMutability": "view",
      "type": "function"
    },
    {
      "constant": true,
      "inputs": [],
      "name": "returnContractAddress",
      "outputs": [
        {
          "name": "",
          "type": "address"
        }
      ],
      "payable": false,
      "stateMutability": "view",
      "type": "function"
    },
    {
      "constant": false,
      "inputs": [
        {
          "name": "newwithdrawPrice",
          "type": "uint256"
        },
        {
          "name": "newrechargePrice",
          "type": "uint256"
        }
      ],
      "name": "setPrices",
      "outputs": [],
      "payable": false,
      "stateMutability": "nonpayable",
      "type": "function"
    },
    {
      "constant": true,
      "inputs": [],
      "name": "name",
      "outputs": [
        {
          "name": "",
          "type": "string"
        }
      ],
      "payable": false,
      "stateMutability": "view",
      "type": "function"
    },
    {
      "constant": false,
      "inputs": [
        {
          "name": "_spender",
          "type": "address"
        },
        {
          "name": "_value",
          "type": "uint256"
        }
      ],
      "name": "approve",
      "outputs": [
        {
          "name": "",
          "type": "bool"
        }
      ],
      "payable": false,
      "stateMutability": "nonpayable",
      "type": "function"
    },
    {
      "constant": true,
      "inputs": [],
      "name": "totalSupply",
      "outputs": [
        {
          "name": "",
          "type": "uint256"
        }
      ],
      "payable": false,
      "stateMutability": "view",
      "type": "function"
    },
    {
      "constant": false,
      "inputs": [
        {
          "name": "_from",
          "type": "address"
        },
        {
          "name": "_to",
          "type": "address"
        },
        {
          "name": "_value",
          "type": "uint256"
        }
      ],
      "name": "transferFrom",
      "outputs": [
        {
          "name": "",
          "type": "bool"
        }
      ],
      "payable": false,
      "stateMutability": "nonpayable",
      "type": "function"
    },
    {
      "constant": false,
      "inputs": [
        {
          "name": "amount",
          "type": "uint256"
        }
      ],
      "name": "withdraw",
      "outputs": [],
      "payable": false,
      "stateMutability": "nonpayable",
      "type": "function"
    },
    {
      "constant": true,
      "inputs": [],
      "name": "decimals",
      "outputs": [
        {
          "name": "",
          "type": "uint8"
        }
      ],
      "payable": false,
      "stateMutability": "view",
      "type": "function"
    },
    {
      "constant": true,
      "inputs": [],
      "name": "initialSupply",
      "outputs": [
        {
          "name": "",
          "type": "uint256"
        }
      ],
      "payable": false,
      "stateMutability": "view",
      "type": "function"
    },
    {
      "constant": true,
      "inputs": [],
      "name": "_totalSupply",
      "outputs": [
        {
          "name": "",
          "type": "uint256"
        }
      ],
      "payable": false,
      "stateMutability": "view",
      "type": "function"
    },
    {
      "constant": false,
      "inputs": [],
      "name": "unpause",
      "outputs": [
        {
          "name": "",
          "type": "bool"
        }
      ],
      "payable": false,
      "stateMutability": "nonpayable",
      "type": "function"
    },
    {
      "constant": false,
      "inputs": [
        {
          "name": "_value",
          "type": "uint256"
        }
      ],
      "name": "burn",
      "outputs": [
        {
          "name": "success",
          "type": "bool"
        }
      ],
      "payable": false,
      "stateMutability": "nonpayable",
      "type": "function"
    },
    {
      "constant": false,
      "inputs": [],
      "name": "recharge",
      "outputs": [],
      "payable": true,
      "stateMutability": "payable",
      "type": "function"
    },
    {
      "constant": true,
      "inputs": [],
      "name": "paused",
      "outputs": [
        {
          "name": "",
          "type": "bool"
        }
      ],
      "payable": false,
      "stateMutability": "view",
      "type": "function"
    },
    {
      "constant": true,
      "inputs": [],
      "name": "tokenName",
      "outputs": [
        {
          "name": "",
          "type": "string"
        }
      ],
      "payable": false,
      "stateMutability": "view",
      "type": "function"
    },
    {
      "constant": true,
      "inputs": [
        {
          "name": "",
          "type": "address"
        }
      ],
      "name": "_balances",
      "outputs": [
        {
          "name": "",
          "type": "uint256"
        }
      ],
      "payable": false,
      "stateMutability": "view",
      "type": "function"
    },
    {
      "constant": true,
      "inputs": [
        {
          "name": "who",
          "type": "address"
        }
      ],
      "name": "balanceOf",
      "outputs": [
        {
          "name": "",
          "type": "uint256"
        }
      ],
      "payable": false,
      "stateMutability": "view",
      "type": "function"
    },
    {
      "constant": true,
      "inputs": [],
      "name": "withdrawPrice",
      "outputs": [
        {
          "name": "",
          "type": "uint256"
        }
      ],
      "payable": false,
      "stateMutability": "view",
      "type": "function"
    },
    {
      "constant": false,
      "inputs": [
        {
          "name": "target",
          "type": "address"
        },
        {
          "name": "mintedAmount",
          "type": "uint256"
        }
      ],
      "name": "mintToken",
      "outputs": [],
      "payable": false,
      "stateMutability": "nonpayable",
      "type": "function"
    },
    {
      "constant": false,
      "inputs": [
        {
          "name": "_from",
          "type": "address"
        },
        {
          "name": "_value",
          "type": "uint256"
        }
      ],
      "name": "burnFrom",
      "outputs": [
        {
          "name": "success",
          "type": "bool"
        }
      ],
      "payable": false,
      "stateMutability": "nonpayable",
      "type": "function"
    },
    {
      "constant": true,
      "inputs": [],
      "name": "tokenSymbol",
      "outputs": [
        {
          "name": "",
          "type": "string"
        }
      ],
      "payable": false,
      "stateMutability": "view",
      "type": "function"
    },
    {
      "constant": true,
      "inputs": [
        {
          "name": "account",
          "type": "address"
        }
      ],
      "name": "ifAccountFrozen",
      "outputs": [
        {
          "name": "",
          "type": "bool"
        }
      ],
      "payable": false,
      "stateMutability": "view",
      "type": "function"
    },
    {
      "constant": false,
      "inputs": [],
      "name": "pause",
      "outputs": [
        {
          "name": "",
          "type": "bool"
        }
      ],
      "payable": false,
      "stateMutability": "nonpayable",
      "type": "function"
    },
    {
      "constant": true,
      "inputs": [],
      "name": "heyueYitaibi",
      "outputs": [
        {
          "name": "",
          "type": "uint256"
        }
      ],
      "payable": false,
      "stateMutability": "view",
      "type": "function"
    },
    {
      "constant": true,
      "inputs": [],
      "name": "owner",
      "outputs": [
        {
          "name": "",
          "type": "address"
        }
      ],
      "payable": false,
      "stateMutability": "view",
      "type": "function"
    },
    {
      "constant": true,
      "inputs": [],
      "name": "symbol",
      "outputs": [
        {
          "name": "",
          "type": "string"
        }
      ],
      "payable": false,
      "stateMutability": "view",
      "type": "function"
    },
    {
      "constant": false,
      "inputs": [
        {
          "name": "_to",
          "type": "address"
        },
        {
          "name": "_value",
          "type": "uint256"
        }
      ],
      "name": "transfer",
      "outputs": [
        {
          "name": "",
          "type": "bool"
        }
      ],
      "payable": false,
      "stateMutability": "nonpayable",
      "type": "function"
    },
    {
      "constant": true,
      "inputs": [
        {
          "name": "",
          "type": "address"
        }
      ],
      "name": "frozenAccount",
      "outputs": [
        {
          "name": "",
          "type": "bool"
        }
      ],
      "payable": false,
      "stateMutability": "view",
      "type": "function"
    },
    {
      "constant": false,
      "inputs": [],
      "name": "transferHeyue",
      "outputs": [],
      "payable": true,
      "stateMutability": "payable",
      "type": "function"
    },
    {
      "constant": true,
      "inputs": [
        {
          "name": "owner",
          "type": "address"
        },
        {
          "name": "spender",
          "type": "address"
        }
      ],
      "name": "allowance",
      "outputs": [
        {
          "name": "",
          "type": "uint256"
        }
      ],
      "payable": false,
      "stateMutability": "view",
      "type": "function"
    },
    {
      "constant": false,
      "inputs": [
        {
          "name": "target",
          "type": "address"
        },
        {
          "name": "freeze",
          "type": "bool"
        }
      ],
      "name": "freezeAccount",
      "outputs": [],
      "payable": false,
      "stateMutability": "nonpayable",
      "type": "function"
    },
    {
      "constant": false,
      "inputs": [],
      "name": "heyueTixian",
      "outputs": [],
      "payable": false,
      "stateMutability": "nonpayable",
      "type": "function"
    },
    {
      "constant": false,
      "inputs": [
        {
          "name": "newOwner",
          "type": "address"
        }
      ],
      "name": "transferOwnership",
      "outputs": [],
      "payable": false,
      "stateMutability": "nonpayable",
      "type": "function"
    },
    {
      "constant": true,
      "inputs": [],
      "name": "amount1",
      "outputs": [
        {
          "name": "",
          "type": "uint256"
        }
      ],
      "payable": false,
      "stateMutability": "view",
      "type": "function"
    },
    {
      "payable": true,
      "stateMutability": "payable",
      "type": "fallback"
    },
    {
      "anonymous": false,
      "inputs": [
        {
          "indexed": false,
          "name": "target",
          "type": "address"
        },
        {
          "indexed": false,
          "name": "success",
          "type": "bool"
        }
      ],
      "name": "SuccessFunds",
      "type": "event"
    },
    {
      "anonymous": false,
      "inputs": [
        {
          "indexed": false,
          "name": "target",
          "type": "address"
        },
        {
          "indexed": false,
          "name": "frozen",
          "type": "bool"
        }
      ],
      "name": "FrozenFunds",
      "type": "event"
    },
    {
      "anonymous": false,
      "inputs": [
        {
          "indexed": true,
          "name": "from",
          "type": "address"
        },
        {
          "indexed": true,
          "name": "to",
          "type": "address"
        },
        {
          "indexed": false,
          "name": "value",
          "type": "uint256"
        }
      ],
      "name": "Transfer",
      "type": "event"
    },
    {
      "anonymous": false,
      "inputs": [
        {
          "indexed": true,
          "name": "from",
          "type": "address"
        },
        {
          "indexed": false,
          "name": "value",
          "type": "uint256"
        }
      ],
      "name": "Burn",
      "type": "event"
    },
    {
      "anonymous": false,
      "inputs": [],
      "name": "Pause",
      "type": "event"
    },
    {
      "anonymous": false,
      "inputs": [],
      "name": "Unpause",
      "type": "event"
    },
    {
      "constant": true,
      "inputs": [
        {
          "name": "who",
          "type": "address"
        }
      ],
      "name": "Buycontributionvalue",
      "outputs": [
        {
          "name": "",
          "type": "uint256"
        }
      ],
      "payable": false,
      "stateMutability": "view",
      "type": "function"
    },
    {
      "constant": true,
      "inputs": [
        {
          "name": "who",
          "type": "address"
        }
      ],
      "name": "Sellcontributionvalue",
      "outputs": [
        {
          "name": "",
          "type": "uint256"
        }
      ],
      "payable": false,
      "stateMutability": "view",
      "type": "function"
    },
    {
      "constant": true,
      "inputs": [
        {
          "name": "who",
          "type": "address"
        }
      ],
      "name": "Lastbuytime",
      "outputs": [
        {
          "name": "",
          "type": "uint256"
        }
      ],
      "payable": false,
      "stateMutability": "view",
      "type": "function"
    },
    {
      "constant": false,
      "inputs": [
        {
          "name": "_to",
          "type": "address"
        },
        {
          "name": "totalprice",
          "type": "uint256"
        },
        {
          "name": "_from",
          "type": "address"
        }
      ],
      "name": "beforeDataTransaction",
      "outputs": [],
      "payable": false,
      "stateMutability": "nonpayable",
      "type": "function"
    },
    {
      "constant": false,
      "inputs": [
        {
          "name": "_from",
          "type": "address"
        },
        {
          "name": "_to",
          "type": "address"
        },
        {
          "name": "totalprice",
          "type": "uint256"
        },
        {
          "name": "buyergrade",
          "type": "uint8"
        }
      ],
      "name": "afterDataTransaction",
      "outputs": [],
      "payable": false,
      "stateMutability": "nonpayable",
      "type": "function"
    },
    {
      "constant": false,
      "inputs": [
        {
          "name": "_from",
          "type": "address"
        },
        {
          "name": "_to",
          "type": "address"
        },
        {
          "name": "totalprice",
          "type": "uint256"
        }
      ],
      "name": "dataTransactionRefund",
      "outputs": [],
      "payable": false,
      "stateMutability": "nonpayable",
      "type": "function"
    },
    {
      "constant": false,
      "inputs": [
        {
          "name": "addressNumber",
          "type": "uint256"
        },
        {
          "name": "value",
          "type": "uint256"
        },
        {
          "name": "_from",
          "type": "address"
        }
      ],
      "name": "beforeRealTimeTransaction",
      "outputs": [],
      "payable": false,
      "stateMutability": "nonpayable",
      "type": "function"
    },
    {
      "constant": false,
      "inputs": [
        {
          "name": "_from",
          "type": "address"
        },
        {
          "name": "_to",
          "type": "address[]"
        },
        {
          "name": "value",
          "type": "uint256"
        },
        {
          "name": "buyergrade",
          "type": "uint8"
        }
      ],
      "name": "afterRealTimeTransaction",
      "outputs": [],
      "payable": false,
      "stateMutability": "nonpayable",
      "type": "function"
    },
    {
      "constant": false,
      "inputs": [
        {
          "name": "_from",
          "type": "address"
        },
        {
          "name": "_to",
          "type": "address[]"
        },
        {
          "name": "value",
          "type": "uint256"
        }
      ],
      "name": "realTimeTransactionRefund",
      "outputs": [],
      "payable": false,
      "stateMutability": "nonpayable",
      "type": "function"
    }
  ],
  "bytecode": "0x608060405260008060146101000a81548160ff0219169083151502179055506012600360006101000a81548160ff021916908360ff1602179055506009600755600a600855620186a06009556040805190810160405280600281526020017f6572000000000000000000000000000000000000000000000000000000000000815250600a90805190602001906200009892919062000307565b506040805190810160405280600181526020017f6500000000000000000000000000000000000000000000000000000000000000815250600b9080519060200190620000e692919062000307565b50600954600a8054600181600116156101000203166002900480601f016020809104026020016040519081016040528092919081815260200182805460018160011615610100020316600290048015620001845780601f10620001585761010080835404028352916020019162000184565b820191906000526020600020905b8154815290600101906020018083116200016657829003601f168201915b5050505050600b8054600181600116156101000203166002900480601f016020809104026020016040519081016040528092919081815260200182805460018160011615610100020316600290048015620002235780601f10620001f75761010080835404028352916020019162000223565b820191906000526020600020905b8154815290600101906020018083116200020557829003601f168201915b5050505050336000806101000a81548173ffffffffffffffffffffffffffffffffffffffff021916908373ffffffffffffffffffffffffffffffffffffffff160217905550600360009054906101000a900460ff1660ff16600a0a8302600481905550600454600560003073ffffffffffffffffffffffffffffffffffffffff1673ffffffffffffffffffffffffffffffffffffffff168152602001908152602001600020819055508160019080519060200190620002e492919062000307565b508060029080519060200190620002fd92919062000307565b50505050620003b6565b828054600181600116156101000203166002900490600052602060002090601f016020900481019282601f106200034a57805160ff19168380011785556200037b565b828001600101855582156200037b579182015b828111156200037a5782518255916020019190600101906200035d565b5b5090506200038a91906200038e565b5090565b620003b391905b80821115620003af57600081600090555060010162000395565b5090565b90565b612a8480620003c66000396000f3fe60806040526004361061021a576000357c0100000000000000000000000000000000000000000000000000000000900463ffffffff16806302b090c11461021c57806304a85dfa146102475780630589a27c1461033657806305fefda71461038d57806306fdde03146103d2578063095ea7b3146104625780630a3894dc146104d5578063156660131461053a5780631595a4221461059f57806318160ddd146106045780631ee71c711461062f57806323b872dd146106b757806324921cd21461074a5780632e1a7d4d146107af578063313ce567146107ea578063378dc3dc1461081b5780633eaaf86b146108465780633f4ba83a1461087157806342966c68146108a05780634cddae28146108f35780635c975abb146108fd5780636c02a9311461092c5780636ebcf607146109bc57806370a0823114610a215780637918447e14610a8657806379c6506814610ab157806379cc679014610b0c5780637b61c32014610b7f5780637c28248c14610c0f5780637fed80bb14610c8a5780638456cb5914610cf3578063863e429914610d225780638da5cb5b14610d4d57806395d89b4114610da45780639bab5e4914610e34578063a9059cbb14610eaf578063b414d4b614610f22578063ceaf7fb214610f8b578063dd62ed3e14610f95578063e724529c1461101a578063e764c6e114611077578063eef71d6f14611173578063f2fde38b1461118a578063f400fde4146111db575b005b34801561022857600080fd5b50610231611206565b6040518082815260200191505060405180910390f35b34801561025357600080fd5b506103346004803603606081101561026a57600080fd5b81019080803573ffffffffffffffffffffffffffffffffffffffff169060200190929190803590602001906401000000008111156102a757600080fd5b8201836020820111156102b957600080fd5b803590602001918460208302840111640100000000831117156102db57600080fd5b919080806020026020016040519081016040528093929190818152602001838360200280828437600081840152601f19601f8201169050808301925050505050505091929192908035906020019092919050505061120c565b005b34801561034257600080fd5b5061034b61122d565b604051808273ffffffffffffffffffffffffffffffffffffffff1673ffffffffffffffffffffffffffffffffffffffff16815260200191505060405180910390f35b34801561039957600080fd5b506103d0600480360360408110156103b057600080fd5b810190808035906020019092919080359060200190929190505050611235565b005b3480156103de57600080fd5b506103e76112c8565b6040518080602001828103825283818151815260200191508051906020019080838360005b8381101561042757808201518184015260208101905061040c565b50505050905090810190601f1680156104545780820380516001836020036101000a031916815260200191505b509250505060405180910390f35b34801561046e57600080fd5b506104bb6004803603604081101561048557600080fd5b81019080803573ffffffffffffffffffffffffffffffffffffffff16906020019092919080359060200190929190505050611366565b604051808215151515815260200191505060405180910390f35b3480156104e157600080fd5b50610524600480360360208110156104f857600080fd5b81019080803573ffffffffffffffffffffffffffffffffffffffff16906020019092919050505061148b565b6040518082815260200191505060405180910390f35b34801561054657600080fd5b5061059d6004803603606081101561055d57600080fd5b810190808035906020019092919080359060200190929190803573ffffffffffffffffffffffffffffffffffffffff1690602001909291905050506114d4565b005b3480156105ab57600080fd5b506105ee600480360360208110156105c257600080fd5b81019080803573ffffffffffffffffffffffffffffffffffffffff1690602001909291905050506114f5565b6040518082815260200191505060405180910390f35b34801561061057600080fd5b5061061961153e565b6040518082815260200191505060405180910390f35b34801561063b57600080fd5b506106b56004803603608081101561065257600080fd5b81019080803573ffffffffffffffffffffffffffffffffffffffff169060200190929190803573ffffffffffffffffffffffffffffffffffffffff16906020019092919080359060200190929190803560ff169060200190929190505050611548565b005b3480156106c357600080fd5b50610730600480360360608110156106da57600080fd5b81019080803573ffffffffffffffffffffffffffffffffffffffff169060200190929190803573ffffffffffffffffffffffffffffffffffffffff1690602001909291908035906020019092919050505061156a565b604051808215151515815260200191505060405180910390f35b34801561075657600080fd5b506107996004803603602081101561076d57600080fd5b81019080803573ffffffffffffffffffffffffffffffffffffffff169060200190929190505050611750565b6040518082815260200191505060405180910390f35b3480156107bb57600080fd5b506107e8600480360360208110156107d257600080fd5b8101908080359060200190929190505050611799565b005b3480156107f657600080fd5b506107ff611838565b604051808260ff1660ff16815260200191505060405180910390f35b34801561082757600080fd5b5061083061184b565b6040518082815260200191505060405180910390f35b34801561085257600080fd5b5061085b611851565b6040518082815260200191505060405180910390f35b34801561087d57600080fd5b50610886611857565b604051808215151515815260200191505060405180910390f35b3480156108ac57600080fd5b506108d9600480360360208110156108c357600080fd5b810190808035906020019092919050505061191c565b604051808215151515815260200191505060405180910390f35b6108fb611a97565b005b34801561090957600080fd5b50610912611ad3565b604051808215151515815260200191505060405180910390f35b34801561093857600080fd5b50610941611ae6565b6040518080602001828103825283818151815260200191508051906020019080838360005b83811015610981578082015181840152602081019050610966565b50505050905090810190601f1680156109ae5780820380516001836020036101000a031916815260200191505b509250505060405180910390f35b3480156109c857600080fd5b50610a0b600480360360208110156109df57600080fd5b81019080803573ffffffffffffffffffffffffffffffffffffffff169060200190929190505050611b84565b6040518082815260200191505060405180910390f35b348015610a2d57600080fd5b50610a7060048036036020811015610a4457600080fd5b81019080803573ffffffffffffffffffffffffffffffffffffffff169060200190929190505050611b9c565b6040518082815260200191505060405180910390f35b348015610a9257600080fd5b50610a9b611be5565b6040518082815260200191505060405180910390f35b348015610abd57600080fd5b50610b0a60048036036040811015610ad457600080fd5b81019080803573ffffffffffffffffffffffffffffffffffffffff16906020019092919080359060200190929190505050611beb565b005b348015610b1857600080fd5b50610b6560048036036040811015610b2f57600080fd5b81019080803573ffffffffffffffffffffffffffffffffffffffff16906020019092919080359060200190929190505050611d8e565b604051808215151515815260200191505060405180910390f35b348015610b8b57600080fd5b50610b94612061565b6040518080602001828103825283818151815260200191508051906020019080838360005b83811015610bd4578082015181840152602081019050610bb9565b50505050905090810190601f168015610c015780820380516001836020036101000a031916815260200191505b509250505060405180910390f35b348015610c1b57600080fd5b50610c8860048036036060811015610c3257600080fd5b81019080803573ffffffffffffffffffffffffffffffffffffffff169060200190929190803573ffffffffffffffffffffffffffffffffffffffff169060200190929190803590602001909291905050506120ff565b005b348015610c9657600080fd5b50610cd960048036036020811015610cad57600080fd5b81019080803573ffffffffffffffffffffffffffffffffffffffff169060200190929190505050612120565b604051808215151515815260200191505060405180910390f35b348015610cff57600080fd5b50610d08612176565b604051808215151515815260200191505060405180910390f35b348015610d2e57600080fd5b50610d3761223d565b6040518082815260200191505060405180910390f35b348015610d5957600080fd5b50610d6261225c565b604051808273ffffffffffffffffffffffffffffffffffffffff1673ffffffffffffffffffffffffffffffffffffffff16815260200191505060405180910390f35b348015610db057600080fd5b50610db9612281565b6040518080602001828103825283818151815260200191508051906020019080838360005b83811015610df9578082015181840152602081019050610dde565b50505050905090810190601f168015610e265780820380516001836020036101000a031916815260200191505b509250505060405180910390f35b348015610e4057600080fd5b50610ead60048036036060811015610e5757600080fd5b81019080803573ffffffffffffffffffffffffffffffffffffffff16906020019092919080359060200190929190803573ffffffffffffffffffffffffffffffffffffffff16906020019092919050505061231f565b005b348015610ebb57600080fd5b50610f0860048036036040811015610ed257600080fd5b81019080803573ffffffffffffffffffffffffffffffffffffffff16906020019092919080359060200190929190505050612340565b604051808215151515815260200191505060405180910390f35b348015610f2e57600080fd5b50610f7160048036036020811015610f4557600080fd5b81019080803573ffffffffffffffffffffffffffffffffffffffff169060200190929190505050612381565b604051808215151515815260200191505060405180910390f35b610f936123a1565b005b348015610fa157600080fd5b5061100460048036036040811015610fb857600080fd5b81019080803573ffffffffffffffffffffffffffffffffffffffff169060200190929190803573ffffffffffffffffffffffffffffffffffffffff1690602001909291905050506123bf565b6040518082815260200191505060405180910390f35b34801561102657600080fd5b506110756004803603604081101561103d57600080fd5b81019080803573ffffffffffffffffffffffffffffffffffffffff169060200190929190803515159060200190929190505050612446565b005b34801561108357600080fd5b506111716004803603608081101561109a57600080fd5b81019080803573ffffffffffffffffffffffffffffffffffffffff169060200190929190803590602001906401000000008111156110d757600080fd5b8201836020820111156110e957600080fd5b8035906020019184602083028401116401000000008311171561110b57600080fd5b919080806020026020016040519081016040528093929190818152602001838360200280828437600081840152601f19601f82011690508083019250505050505050919291929080359060200190929190803560ff169060200190929190505050612587565b005b34801561117f57600080fd5b506111886125a9565b005b34801561119657600080fd5b506111d9600480360360208110156111ad57600080fd5b81019080803573ffffffffffffffffffffffffffffffffffffffff1690602001909291905050506126aa565b005b3480156111e757600080fd5b506111f0612784565b6040518082815260200191505060405180910390f35b60085481565b600060149054906101000a900460ff1615151561122857600080fd5b505050565b600030905090565b6000809054906101000a900473ffffffffffffffffffffffffffffffffffffffff1673ffffffffffffffffffffffffffffffffffffffff163373ffffffffffffffffffffffffffffffffffffffff1614151561129057600080fd5b600060149054906101000a900460ff161515156112ac57600080fd5b80821115156112c45781600781905550806008819055505b5050565b60018054600181600116156101000203166002900480601f01602080910402602001604051908101604052809291908181526020018280546001816001161561010002031660029004801561135e5780601f106113335761010080835404028352916020019161135e565b820191906000526020600020905b81548152906001019060200180831161134157829003601f168201915b505050505081565b60008060009054906101000a900473ffffffffffffffffffffffffffffffffffffffff1673ffffffffffffffffffffffffffffffffffffffff163373ffffffffffffffffffffffffffffffffffffffff161415156113c357600080fd5b600060149054906101000a900460ff161515156113df57600080fd5b81600660008060009054906101000a900473ffffffffffffffffffffffffffffffffffffffff1673ffffffffffffffffffffffffffffffffffffffff1673ffffffffffffffffffffffffffffffffffffffff16815260200190815260200160002060008573ffffffffffffffffffffffffffffffffffffffff1673ffffffffffffffffffffffffffffffffffffffff168152602001908152602001600020819055506001905092915050565b6000601460008373ffffffffffffffffffffffffffffffffffffffff1673ffffffffffffffffffffffffffffffffffffffff168152602001908152602001600020549050919050565b600060149054906101000a900460ff161515156114f057600080fd5b505050565b6000601560008373ffffffffffffffffffffffffffffffffffffffff1673ffffffffffffffffffffffffffffffffffffffff168152602001908152602001600020549050919050565b6000600454905090565b600060149054906101000a900460ff1615151561156457600080fd5b50505050565b60008060009054906101000a900473ffffffffffffffffffffffffffffffffffffffff1673ffffffffffffffffffffffffffffffffffffffff163373ffffffffffffffffffffffffffffffffffffffff161415156115c757600080fd5b600060149054906101000a900460ff161515156115e357600080fd5b600660008060009054906101000a900473ffffffffffffffffffffffffffffffffffffffff1673ffffffffffffffffffffffffffffffffffffffff1673ffffffffffffffffffffffffffffffffffffffff16815260200190815260200160002060008573ffffffffffffffffffffffffffffffffffffffff1673ffffffffffffffffffffffffffffffffffffffff16815260200190815260200160002054821115151561168f57600080fd5b81600660008060009054906101000a900473ffffffffffffffffffffffffffffffffffffffff1673ffffffffffffffffffffffffffffffffffffffff1673ffffffffffffffffffffffffffffffffffffffff16815260200190815260200160002060008673ffffffffffffffffffffffffffffffffffffffff1673ffffffffffffffffffffffffffffffffffffffff1681526020019081526020016000206000828254039250508190555061174584848461278a565b600190509392505050565b6000601360008373ffffffffffffffffffffffffffffffffffffffff1673ffffffffffffffffffffffffffffffffffffffff168152602001908152602001600020549050919050565b600060149054906101000a900460ff161515156117b557600080fd5b60075481023073ffffffffffffffffffffffffffffffffffffffff1631101515156117df57600080fd5b6117ea33308361278a565b3373ffffffffffffffffffffffffffffffffffffffff166108fc60075483029081150290604051600060405180830381858888f19350505050158015611834573d6000803e3d6000fd5b5050565b600360009054906101000a900460ff1681565b60095481565b60045481565b60008060009054906101000a900473ffffffffffffffffffffffffffffffffffffffff1673ffffffffffffffffffffffffffffffffffffffff163373ffffffffffffffffffffffffffffffffffffffff161415156118b457600080fd5b600060149054906101000a900460ff1615156118cf57600080fd5b60008060146101000a81548160ff0219169083151502179055507f7805862f689e2f13df9f062ff482ad3ad112aca9e0847911ed832e158c525b3360405160405180910390a16001905090565b60008060009054906101000a900473ffffffffffffffffffffffffffffffffffffffff1673ffffffffffffffffffffffffffffffffffffffff163373ffffffffffffffffffffffffffffffffffffffff1614151561197957600080fd5b600060149054906101000a900460ff1615151561199557600080fd5b81600560003073ffffffffffffffffffffffffffffffffffffffff1673ffffffffffffffffffffffffffffffffffffffff16815260200190815260200160002054101515156119e357600080fd5b81600560003073ffffffffffffffffffffffffffffffffffffffff1673ffffffffffffffffffffffffffffffffffffffff16815260200190815260200160002060008282540392505081905550816004600082825403925050819055503073ffffffffffffffffffffffffffffffffffffffff167fcc16f5dbb4873280815c1ee09dbd06736cffcc184412cf7a71a0fdb75d397ca5836040518082815260200191505060405180910390a260019050919050565b600060149054906101000a900460ff16151515611ab357600080fd5b600060085434811515611ac257fe5b049050611ad030338361278a565b50565b600060149054906101000a900460ff1681565b600a8054600181600116156101000203166002900480601f016020809104026020016040519081016040528092919081815260200182805460018160011615610100020316600290048015611b7c5780601f10611b5157610100808354040283529160200191611b7c565b820191906000526020600020905b815481529060010190602001808311611b5f57829003601f168201915b505050505081565b60056020528060005260406000206000915090505481565b6000600560008373ffffffffffffffffffffffffffffffffffffffff1673ffffffffffffffffffffffffffffffffffffffff168152602001908152602001600020549050919050565b60075481565b6000809054906101000a900473ffffffffffffffffffffffffffffffffffffffff1673ffffffffffffffffffffffffffffffffffffffff163373ffffffffffffffffffffffffffffffffffffffff16141515611c4657600080fd5b600060149054906101000a900460ff16151515611c6257600080fd5b80600560008473ffffffffffffffffffffffffffffffffffffffff1673ffffffffffffffffffffffffffffffffffffffff16815260200190815260200160002060008282540192505081905550806004600082825401925050819055503073ffffffffffffffffffffffffffffffffffffffff16600073ffffffffffffffffffffffffffffffffffffffff167fddf252ad1be2c89b69c2b068fc378daa952ba7f163c4a11628f55a4df523b3ef836040518082815260200191505060405180910390a38173ffffffffffffffffffffffffffffffffffffffff163073ffffffffffffffffffffffffffffffffffffffff167fddf252ad1be2c89b69c2b068fc378daa952ba7f163c4a11628f55a4df523b3ef836040518082815260200191505060405180910390a35050565b60008060009054906101000a900473ffffffffffffffffffffffffffffffffffffffff1673ffffffffffffffffffffffffffffffffffffffff163373ffffffffffffffffffffffffffffffffffffffff16141515611deb57600080fd5b600060149054906101000a900460ff16151515611e0757600080fd5b81600560008573ffffffffffffffffffffffffffffffffffffffff1673ffffffffffffffffffffffffffffffffffffffff1681526020019081526020016000205410151515611e5557600080fd5b600660008060009054906101000a900473ffffffffffffffffffffffffffffffffffffffff1673ffffffffffffffffffffffffffffffffffffffff1673ffffffffffffffffffffffffffffffffffffffff16815260200190815260200160002060008473ffffffffffffffffffffffffffffffffffffffff1673ffffffffffffffffffffffffffffffffffffffff168152602001908152602001600020548211151515611f0157600080fd5b81600560008573ffffffffffffffffffffffffffffffffffffffff1673ffffffffffffffffffffffffffffffffffffffff1681526020019081526020016000206000828254039250508190555081600660008060009054906101000a900473ffffffffffffffffffffffffffffffffffffffff1673ffffffffffffffffffffffffffffffffffffffff1673ffffffffffffffffffffffffffffffffffffffff16815260200190815260200160002060008573ffffffffffffffffffffffffffffffffffffffff1673ffffffffffffffffffffffffffffffffffffffff16815260200190815260200160002060008282540392505081905550816004600082825403925050819055508273ffffffffffffffffffffffffffffffffffffffff167fcc16f5dbb4873280815c1ee09dbd06736cffcc184412cf7a71a0fdb75d397ca5836040518082815260200191505060405180910390a26001905092915050565b600b8054600181600116156101000203166002900480601f0160208091040260200160405190810160405280929190818152602001828054600181600116156101000203166002900480156120f75780601f106120cc576101008083540402835291602001916120f7565b820191906000526020600020905b8154815290600101906020018083116120da57829003601f168201915b505050505081565b600060149054906101000a900460ff1615151561211b57600080fd5b505050565b6000600d60008373ffffffffffffffffffffffffffffffffffffffff1673ffffffffffffffffffffffffffffffffffffffff16815260200190815260200160002060009054906101000a900460ff169050919050565b60008060009054906101000a900473ffffffffffffffffffffffffffffffffffffffff1673ffffffffffffffffffffffffffffffffffffffff163373ffffffffffffffffffffffffffffffffffffffff161415156121d357600080fd5b600060149054906101000a900460ff161515156121ef57600080fd5b6001600060146101000a81548160ff0219169083151502179055507f6985a02210a168e66602d3235cb6db0e70f92b3ba4d376a33c0f3d9434bff62560405160405180910390a16001905090565b60003073ffffffffffffffffffffffffffffffffffffffff1631905090565b6000809054906101000a900473ffffffffffffffffffffffffffffffffffffffff1681565b60028054600181600116156101000203166002900480601f0160208091040260200160405190810160405280929190818152602001828054600181600116156101000203166002900480156123175780601f106122ec57610100808354040283529160200191612317565b820191906000526020600020905b8154815290600101906020018083116122fa57829003601f168201915b505050505081565b600060149054906101000a900460ff1615151561233b57600080fd5b505050565b60008060149054906101000a900460ff1615151561235d57600080fd5b6044600036905014151561237057600080fd5b61237b33848461278a565b92915050565b600d6020528060005260406000206000915054906101000a900460ff1681565b600060149054906101000a900460ff161515156123bd57600080fd5b565b6000600660008473ffffffffffffffffffffffffffffffffffffffff1673ffffffffffffffffffffffffffffffffffffffff16815260200190815260200160002060008373ffffffffffffffffffffffffffffffffffffffff1673ffffffffffffffffffffffffffffffffffffffff16815260200190815260200160002054905092915050565b6000809054906101000a900473ffffffffffffffffffffffffffffffffffffffff1673ffffffffffffffffffffffffffffffffffffffff163373ffffffffffffffffffffffffffffffffffffffff161415156124a157600080fd5b600060149054906101000a900460ff161515156124bd57600080fd5b80600d60008473ffffffffffffffffffffffffffffffffffffffff1673ffffffffffffffffffffffffffffffffffffffff16815260200190815260200160002060006101000a81548160ff0219169083151502179055507f48335238b4855f35377ed80f164e8c6f3c366e54ac00b96a6402d4a9814a03a58282604051808373ffffffffffffffffffffffffffffffffffffffff1673ffffffffffffffffffffffffffffffffffffffff168152602001821515151581526020019250505060405180910390a15050565b600060149054906101000a900460ff161515156125a357600080fd5b50505050565b6000809054906101000a900473ffffffffffffffffffffffffffffffffffffffff1673ffffffffffffffffffffffffffffffffffffffff163373ffffffffffffffffffffffffffffffffffffffff1614151561260457600080fd5b600060149054906101000a900460ff1615151561262057600080fd5b3073ffffffffffffffffffffffffffffffffffffffff1631600c819055506000809054906101000a900473ffffffffffffffffffffffffffffffffffffffff1673ffffffffffffffffffffffffffffffffffffffff166108fc600c549081150290604051600060405180830381858888f193505050501580156126a7573d6000803e3d6000fd5b50565b6000809054906101000a900473ffffffffffffffffffffffffffffffffffffffff1673ffffffffffffffffffffffffffffffffffffffff163373ffffffffffffffffffffffffffffffffffffffff1614151561270557600080fd5b600073ffffffffffffffffffffffffffffffffffffffff168173ffffffffffffffffffffffffffffffffffffffff161415151561274157600080fd5b806000806101000a81548173ffffffffffffffffffffffffffffffffffffffff021916908373ffffffffffffffffffffffffffffffffffffffff16021790555050565b600c5481565b600073ffffffffffffffffffffffffffffffffffffffff168273ffffffffffffffffffffffffffffffffffffffff16141515156127c657600080fd5b80600560008573ffffffffffffffffffffffffffffffffffffffff1673ffffffffffffffffffffffffffffffffffffffff168152602001908152602001600020541015151561281457600080fd5b600560008373ffffffffffffffffffffffffffffffffffffffff1673ffffffffffffffffffffffffffffffffffffffff1681526020019081526020016000205481600560008573ffffffffffffffffffffffffffffffffffffffff1673ffffffffffffffffffffffffffffffffffffffff16815260200190815260200160002054011115156128a257600080fd5b600d60008473ffffffffffffffffffffffffffffffffffffffff1673ffffffffffffffffffffffffffffffffffffffff16815260200190815260200160002060009054906101000a900460ff161515156128fb57600080fd5b600d60008373ffffffffffffffffffffffffffffffffffffffff1673ffffffffffffffffffffffffffffffffffffffff16815260200190815260200160002060009054906101000a900460ff1615151561295457600080fd5b80600560008573ffffffffffffffffffffffffffffffffffffffff1673ffffffffffffffffffffffffffffffffffffffff1681526020019081526020016000206000828254039250508190555080600560008473ffffffffffffffffffffffffffffffffffffffff1673ffffffffffffffffffffffffffffffffffffffff168152602001908152602001600020600082825401925050819055508173ffffffffffffffffffffffffffffffffffffffff168373ffffffffffffffffffffffffffffffffffffffff167fddf252ad1be2c89b69c2b068fc378daa952ba7f163c4a11628f55a4df523b3ef836040518082815260200191505060405180910390a350505056fea165627a7a72305820aa1aa62481ac320c582bf125ab5ce3569c9ede3c09c2e7f4f43257f7372b91a00029",
  "source": "pragma solidity ^0.5.0;\r\n\r\nimport \"./MyAdvancedToken.sol\";\r\n\r\n\r\ncontract transaction is MyAdvancedToken {\r\n    //\r\n    uint256 constant DAY_IN_SECONDS = 86400; //\r\n    uint256 constant MONTH_IN_SECONDS = 2592000; //\r\n    uint256 private currTimeInSeconds; //\r\n    uint256 private fee; //\r\n    uint256 private buyerpayment; //+\r\n    uint256 private sellercollection; //-\r\n    uint256 private commission; //\r\n    \r\n    event SuccessFunds(address target, bool success);//\r\n    \r\n    // mapping()\r\n    mapping (address => uint256) private _buycontributionvalue;\r\n    // mapping\r\n    mapping (address => uint256) private _sellcontributionvalue;\r\n    // mapping\r\n    mapping (address => uint256) private _lastbuytime;\r\n    \r\n    \r\n//+\r\n    /**\r\n     * totalprice:\r\n     */ \r\n    function _Buyerpayment(uint256 totalprice) internal returns (uint256){\r\n        fee = totalprice / 1000;       //0.1%\r\n        //1\r\n        if(fee!=0){        \r\n            buyerpayment = fee + totalprice; //\r\n        }\r\n        else{\r\n            buyerpayment = 1 + totalprice;\r\n        }\r\n        return buyerpayment;\r\n  }\r\n  \r\n//-\r\n    /**\r\n     * totalprice:\r\n     */ \r\n    function _Sellercollection(uint256 totalprice) internal returns (uint256){\r\n        commission = totalprice / 100;       //1%\r\n        //1\r\n        if(commission!=0){        \r\n            sellercollection = totalprice - commission;  //\r\n        }\r\n        else{\r\n            sellercollection = totalprice - 1;\r\n        }\r\n        return sellercollection;\r\n  }\r\n  \r\n//\r\n    function _currTimeInSeconds() internal view returns (uint256){\r\n        return now;\r\n    }\r\n\r\n//\r\n    /**\r\n     * who:\r\n     */\r\n    function Buycontributionvalue(address who) external view returns (uint256) {\r\n        return _buycontributionvalue[who];\r\n    }\r\n\r\n//\r\n    /**\r\n     * who:\r\n     */\r\n    function Sellcontributionvalue(address who) external view returns (uint256) {\r\n        return _sellcontributionvalue[who];\r\n    }\r\n\r\n//\r\n    /**\r\n     * who:\r\n     */\r\n    function Lastbuytime(address who) external view returns (uint256) {\r\n        return _lastbuytime[who];\r\n    }\r\n\r\n//\r\n    /**\r\n     * buyer:,now:\r\n     */\r\n    function _UpdateLastbuytime(address buyer, uint256 now)  internal whenNotPaused{\r\n        _lastbuytime[buyer] = now;  //\r\n    }\r\n\r\n//\r\n    /**\r\n     * _to:,totalprice:,_from:\r\n     */ \r\n    // function beforeYYQtransaction(address _to, uint256 totalprice, address _from) public whenNotPaused{\r\n    //     require(!frozenAccount[_from]);             // \r\n    //     require(!frozenAccount[_to]);               // \r\n    //     buyerpayment = _Buyerpayment(totalprice);  // \r\n    //     _transfer(_from, address(this), buyerpayment); //\r\n    //     emit SuccessFunds(_from, true);\r\n    // }\r\n  \r\n//\r\n    /**\r\n     * state:/true/false,_from:,_to:,totalprice:\r\n     */ \r\n    // function afterYYQtransaction(uint8 grade, address _from, address _to, uint256 totalprice) public whenNotPaused{\r\n    //     //\r\n    //     sellercollection = _Sellercollection(totalprice);   //\r\n    //     _transfer(address(this), _to, sellercollection); //\r\n    //     currTimeInSeconds = _currTimeInSeconds(); //\r\n    //     _UpdateLastbuytime(_from, currTimeInSeconds); //\r\n    // }\r\n    \r\n    \r\n//\r\n    // function beforeSYQtransaction(address _to, uint256 totalprice, address _from) public whenNotPaused{\r\n    //     require(!frozenAccount[_from]);             // \r\n    //     require(!frozenAccount[_to]);               // \r\n    //     buyerpayment = _Buyerpayment(totalprice);  // \r\n    //     _transfer(_from, address(this), buyerpayment); //\r\n    //     emit SuccessFunds(_from, true);\r\n    // }\r\n  \r\n//\r\n    // function afterSYQtransaction(uint8 grade, address _from, address _to, uint256 totalprice) public whenNotPaused{\r\n    //     sellercollection = _Sellercollection(totalprice);   //\r\n    //     _transfer(address(this), _to, sellercollection); //\r\n    //     currTimeInSeconds = _currTimeInSeconds(); //\r\n    //     _UpdateLastbuytime(_from, currTimeInSeconds); //\r\n    // }\r\n    \r\n\r\n//\r\n    //  function beforeSSDZtransaction(uint256 totalprice, address _from) public whenNotPaused{\r\n    //     require(!frozenAccount[_from]);             // \r\n    //     buyerpayment = _Buyerpayment(totalprice);  // \r\n    //     _transfer(_from, address(this), buyerpayment); //\r\n    //     emit SuccessFunds(_from, true);\r\n    // }\r\n  \r\n//\r\n    // function afterSSDZtransaction(uint8 grade, address _from, address _to, uint256 totalprice) public whenNotPaused{\r\n    //     sellercollection = _Sellercollection(totalprice);   //\r\n    //     _transfer(address(this), _to, sellercollection); //\r\n    //     currTimeInSeconds = _currTimeInSeconds(); //\r\n    //     _UpdateLastbuytime(_from, currTimeInSeconds); //\r\n        \r\n    // }\r\n\r\n    \r\n\r\n\r\n\r\n\r\n\r\n    //  (TxControl\r\n    /**\r\n     * _to:,totalprice:,_from:\r\n     */ \r\n    function beforeDataTransaction(address _to, uint256 totalprice, address _from) public whenNotPaused{\r\n\r\n    }\r\n  \r\n//    (TxControl)\r\n    /**\r\n     * _from:,_to:,totalprice:,buyergrade:\r\n     */ \r\n    function afterDataTransaction(address _from, address _to, uint256 totalprice, uint8 buyergrade) public whenNotPaused{\r\n\r\n    }\r\n//    (TxControl)\r\n    /**\r\n     * _from:,_to:(),totalprice:\r\n     */ \r\n    function dataTransactionRefund(address _from, address _to, uint256 totalprice) public whenNotPaused{\r\n\r\n    }\r\n\r\n// (TxControl\r\n    /**\r\n     * _to:,value:,_from:\r\n     */ \r\n    function beforeRealTimeTransaction(uint256 addressNumber, uint256 value, address _from) public whenNotPaused{\r\n\r\n    }\r\n  \r\n//  (TxControl\r\n    /**\r\n     * _from:,_to:,value:,buyergrade:\r\n     */ \r\n    function afterRealTimeTransaction(address _from, address[] memory _to, uint256 value, uint8 buyergrade) public whenNotPaused{\r\n   \r\n    }\r\n//    (TxControl)\r\n    /**\r\n     * _from:,_to:(),value:\r\n     */ \r\n    function realTimeTransactionRefund(address _from, address[] memory _to, uint256 value) public whenNotPaused{\r\n\r\n    }\r\n}\r\n",
  "sourcePath": "G:\\ControlSolidity\\contracts\\transaction.sol",
  "compiler": {
    "name": "solc",
    "version": "0.5.0+commit.1d4f565a.Emscripten.clang"
  },
  "schemaVersion": "3.0.5",
  "updatedAt": "2019-04-28T07:32:41.042Z",
  "devdoc": {
    "methods": {
      "withdraw(uint256)": {
        "params": {
          "amount": "amount of tokens to be sold"
        }
      }
    }
  },
  "userdoc": {
    "methods": {
      "Buycontributionvalue(address)": {
        "notice": "who:\r"
      },
      "Lastbuytime(address)": {
        "notice": "who:\r"
      },
      "Sellcontributionvalue(address)": {
        "notice": "who:\r"
      },
      "afterDataTransaction(address,address,uint256,uint8)": {
        "notice": "_from:,_to:,totalprice:,buyergrade:\r"
      },
      "afterRealTimeTransaction(address,address[],uint256,uint8)": {
        "notice": "_from:,_to:,value:,buyergrade:\r"
      },
      "allowance(address,address)": {
        "notice": "owner:,spender:"
      },
      "approve(address,uint256)": {
        "notice": "spender:,_value:"
      },
      "balanceOf(address)": {
        "notice": "who:"
      },
      "beforeDataTransaction(address,uint256,address)": {
        "notice": "_to:,totalprice:,_from:\r"
      },
      "beforeRealTimeTransaction(uint256,uint256,address)": {
        "notice": "_to:,value:,_from:\r"
      },
      "burn(uint256)": {
        "notice": "_value:"
      },
      "burnFrom(address,uint256)": {
        "notice": "_from:, _value:"
      },
      "dataTransactionRefund(address,address,uint256)": {
        "notice": "_from:,_to:(),totalprice:\r"
      },
      "freezeAccount(address,bool)": {
        "notice": "target:,freeze:true/false\r"
      },
      "ifAccountFrozen(address)": {
        "notice": "account:\r"
      },
      "mintToken(address,uint256)": {
        "notice": "target:,mintedAmount:\r"
      },
      "realTimeTransactionRefund(address,address[],uint256)": {
        "notice": "_from:,_to:(),value:\r"
      },
      "setPrices(uint256,uint256)": {
        "notice": "newwithdrawPrice:,newrechargePrice:\r"
      },
      "transfer(address,uint256)": {
        "notice": "to:_value:"
      },
      "transferFrom(address,address,uint256)": {
        "notice": "_from:,_to:,_value:"
      },
      "transferOwnership(address)": {
        "notice": "ewOwner:\r"
      }
    }
  }
}