{
  "contractName": "transaction",
  "abi": [
    {
      "constant": true,
      "inputs": [],
      "name": "rechargePrice",
      "outputs": [
        {
          "name": "",
          "type": "uint256"
        }
      ],
      "payable": false,
      "stateMutability": "view",
      "type": "function"
    },
    {
      "constant": false,
      "inputs": [
        {
          "name": "newwithdrawPrice",
          "type": "uint256"
        },
        {
          "name": "newrechargePrice",
          "type": "uint256"
        }
      ],
      "name": "setPrices",
      "outputs": [],
      "payable": false,
      "stateMutability": "nonpayable",
      "type": "function"
    },
    {
      "constant": true,
      "inputs": [],
      "name": "name",
      "outputs": [
        {
          "name": "",
          "type": "string"
        }
      ],
      "payable": false,
      "stateMutability": "view",
      "type": "function"
    },
    {
      "constant": false,
      "inputs": [
        {
          "name": "_spender",
          "type": "address"
        },
        {
          "name": "_value",
          "type": "uint256"
        }
      ],
      "name": "approve",
      "outputs": [
        {
          "name": "",
          "type": "bool"
        }
      ],
      "payable": false,
      "stateMutability": "nonpayable",
      "type": "function"
    },
    {
      "constant": true,
      "inputs": [],
      "name": "totalSupply",
      "outputs": [
        {
          "name": "",
          "type": "uint256"
        }
      ],
      "payable": false,
      "stateMutability": "view",
      "type": "function"
    },
    {
      "constant": false,
      "inputs": [
        {
          "name": "_from",
          "type": "address"
        },
        {
          "name": "_to",
          "type": "address"
        },
        {
          "name": "_value",
          "type": "uint256"
        }
      ],
      "name": "transferFrom",
      "outputs": [
        {
          "name": "",
          "type": "bool"
        }
      ],
      "payable": false,
      "stateMutability": "nonpayable",
      "type": "function"
    },
    {
      "constant": false,
      "inputs": [
        {
          "name": "amount",
          "type": "uint256"
        }
      ],
      "name": "withdraw",
      "outputs": [],
      "payable": false,
      "stateMutability": "nonpayable",
      "type": "function"
    },
    {
      "constant": true,
      "inputs": [],
      "name": "decimals",
      "outputs": [
        {
          "name": "",
          "type": "uint8"
        }
      ],
      "payable": false,
      "stateMutability": "view",
      "type": "function"
    },
    {
      "constant": true,
      "inputs": [],
      "name": "initialSupply",
      "outputs": [
        {
          "name": "",
          "type": "uint256"
        }
      ],
      "payable": false,
      "stateMutability": "view",
      "type": "function"
    },
    {
      "constant": false,
      "inputs": [],
      "name": "pauseTransaction",
      "outputs": [
        {
          "name": "",
          "type": "bool"
        }
      ],
      "payable": false,
      "stateMutability": "nonpayable",
      "type": "function"
    },
    {
      "constant": true,
      "inputs": [],
      "name": "_totalSupply",
      "outputs": [
        {
          "name": "",
          "type": "uint256"
        }
      ],
      "payable": false,
      "stateMutability": "view",
      "type": "function"
    },
    {
      "constant": true,
      "inputs": [
        {
          "name": "who",
          "type": "address"
        }
      ],
      "name": "balanceOfOnlyOwner",
      "outputs": [
        {
          "name": "",
          "type": "uint256"
        }
      ],
      "payable": false,
      "stateMutability": "view",
      "type": "function"
    },
    {
      "constant": false,
      "inputs": [],
      "name": "recharge",
      "outputs": [],
      "payable": true,
      "stateMutability": "payable",
      "type": "function"
    },
    {
      "constant": true,
      "inputs": [],
      "name": "paused",
      "outputs": [
        {
          "name": "",
          "type": "bool"
        }
      ],
      "payable": false,
      "stateMutability": "view",
      "type": "function"
    },
    {
      "constant": true,
      "inputs": [],
      "name": "tokenName",
      "outputs": [
        {
          "name": "",
          "type": "string"
        }
      ],
      "payable": false,
      "stateMutability": "view",
      "type": "function"
    },
    {
      "constant": true,
      "inputs": [
        {
          "name": "",
          "type": "address"
        }
      ],
      "name": "_balances",
      "outputs": [
        {
          "name": "",
          "type": "uint256"
        }
      ],
      "payable": false,
      "stateMutability": "view",
      "type": "function"
    },
    {
      "constant": true,
      "inputs": [],
      "name": "balanceOf",
      "outputs": [
        {
          "name": "",
          "type": "uint256"
        }
      ],
      "payable": false,
      "stateMutability": "view",
      "type": "function"
    },
    {
      "constant": true,
      "inputs": [],
      "name": "withdrawPrice",
      "outputs": [
        {
          "name": "",
          "type": "uint256"
        }
      ],
      "payable": false,
      "stateMutability": "view",
      "type": "function"
    },
    {
      "constant": false,
      "inputs": [
        {
          "name": "target",
          "type": "address"
        },
        {
          "name": "mintedAmount",
          "type": "uint256"
        }
      ],
      "name": "mintToken",
      "outputs": [],
      "payable": false,
      "stateMutability": "nonpayable",
      "type": "function"
    },
    {
      "constant": true,
      "inputs": [],
      "name": "tokenSymbol",
      "outputs": [
        {
          "name": "",
          "type": "string"
        }
      ],
      "payable": false,
      "stateMutability": "view",
      "type": "function"
    },
    {
      "constant": true,
      "inputs": [
        {
          "name": "account",
          "type": "address"
        }
      ],
      "name": "ifAccountFrozen",
      "outputs": [
        {
          "name": "",
          "type": "bool"
        }
      ],
      "payable": false,
      "stateMutability": "view",
      "type": "function"
    },
    {
      "constant": true,
      "inputs": [],
      "name": "heyueYitaibi",
      "outputs": [
        {
          "name": "",
          "type": "uint256"
        }
      ],
      "payable": false,
      "stateMutability": "view",
      "type": "function"
    },
    {
      "constant": true,
      "inputs": [],
      "name": "owner",
      "outputs": [
        {
          "name": "",
          "type": "address"
        }
      ],
      "payable": false,
      "stateMutability": "view",
      "type": "function"
    },
    {
      "constant": false,
      "inputs": [],
      "name": "unpauseTransaction",
      "outputs": [
        {
          "name": "",
          "type": "bool"
        }
      ],
      "payable": false,
      "stateMutability": "nonpayable",
      "type": "function"
    },
    {
      "constant": true,
      "inputs": [],
      "name": "symbol",
      "outputs": [
        {
          "name": "",
          "type": "string"
        }
      ],
      "payable": false,
      "stateMutability": "view",
      "type": "function"
    },
    {
      "constant": false,
      "inputs": [
        {
          "name": "_to",
          "type": "address"
        },
        {
          "name": "_value",
          "type": "uint256"
        }
      ],
      "name": "transfer",
      "outputs": [
        {
          "name": "",
          "type": "bool"
        }
      ],
      "payable": false,
      "stateMutability": "nonpayable",
      "type": "function"
    },
    {
      "constant": true,
      "inputs": [
        {
          "name": "",
          "type": "address"
        }
      ],
      "name": "frozenAccount",
      "outputs": [
        {
          "name": "",
          "type": "bool"
        }
      ],
      "payable": false,
      "stateMutability": "view",
      "type": "function"
    },
    {
      "constant": true,
      "inputs": [
        {
          "name": "",
          "type": "address"
        },
        {
          "name": "",
          "type": "address"
        }
      ],
      "name": "_allowed",
      "outputs": [
        {
          "name": "",
          "type": "uint256"
        }
      ],
      "payable": false,
      "stateMutability": "view",
      "type": "function"
    },
    {
      "constant": false,
      "inputs": [],
      "name": "transferHeyue",
      "outputs": [],
      "payable": true,
      "stateMutability": "payable",
      "type": "function"
    },
    {
      "constant": true,
      "inputs": [
        {
          "name": "owner",
          "type": "address"
        },
        {
          "name": "spender",
          "type": "address"
        }
      ],
      "name": "allowance",
      "outputs": [
        {
          "name": "",
          "type": "uint256"
        }
      ],
      "payable": false,
      "stateMutability": "view",
      "type": "function"
    },
    {
      "constant": false,
      "inputs": [
        {
          "name": "target",
          "type": "address"
        },
        {
          "name": "freeze",
          "type": "bool"
        }
      ],
      "name": "freezeAccount",
      "outputs": [],
      "payable": false,
      "stateMutability": "nonpayable",
      "type": "function"
    },
    {
      "constant": false,
      "inputs": [],
      "name": "heyueTixian",
      "outputs": [],
      "payable": false,
      "stateMutability": "nonpayable",
      "type": "function"
    },
    {
      "constant": false,
      "inputs": [
        {
          "name": "newOwner",
          "type": "address"
        }
      ],
      "name": "transferOwnership",
      "outputs": [],
      "payable": false,
      "stateMutability": "nonpayable",
      "type": "function"
    },
    {
      "constant": true,
      "inputs": [],
      "name": "amount1",
      "outputs": [
        {
          "name": "",
          "type": "uint256"
        }
      ],
      "payable": false,
      "stateMutability": "view",
      "type": "function"
    },
    {
      "payable": true,
      "stateMutability": "payable",
      "type": "fallback"
    },
    {
      "anonymous": false,
      "inputs": [
        {
          "indexed": false,
          "name": "target",
          "type": "address"
        },
        {
          "indexed": false,
          "name": "success",
          "type": "bool"
        }
      ],
      "name": "SuccessFunds",
      "type": "event"
    },
    {
      "anonymous": false,
      "inputs": [
        {
          "indexed": true,
          "name": "from",
          "type": "address"
        },
        {
          "indexed": true,
          "name": "to",
          "type": "address"
        },
        {
          "indexed": false,
          "name": "value",
          "type": "uint256"
        }
      ],
      "name": "Transfer",
      "type": "event"
    },
    {
      "anonymous": false,
      "inputs": [
        {
          "indexed": false,
          "name": "target",
          "type": "address"
        },
        {
          "indexed": false,
          "name": "frozen",
          "type": "bool"
        }
      ],
      "name": "FrozenFunds",
      "type": "event"
    },
    {
      "anonymous": false,
      "inputs": [],
      "name": "Pause",
      "type": "event"
    },
    {
      "anonymous": false,
      "inputs": [],
      "name": "Unpause",
      "type": "event"
    },
    {
      "constant": false,
      "inputs": [
        {
          "name": "newfeeProportion",
          "type": "uint256"
        },
        {
          "name": "newcommissionProportion",
          "type": "uint256"
        }
      ],
      "name": "setProportion",
      "outputs": [],
      "payable": false,
      "stateMutability": "nonpayable",
      "type": "function"
    },
    {
      "constant": true,
      "inputs": [
        {
          "name": "who",
          "type": "address"
        }
      ],
      "name": "Lastbuytime",
      "outputs": [
        {
          "name": "",
          "type": "uint256"
        }
      ],
      "payable": false,
      "stateMutability": "view",
      "type": "function"
    },
    {
      "constant": true,
      "inputs": [
        {
          "name": "who",
          "type": "address"
        },
        {
          "name": "i",
          "type": "uint256"
        }
      ],
      "name": "contributionvalue",
      "outputs": [
        {
          "name": "",
          "type": "uint256"
        }
      ],
      "payable": false,
      "stateMutability": "view",
      "type": "function"
    },
    {
      "constant": true,
      "inputs": [
        {
          "name": "who",
          "type": "address"
        },
        {
          "name": "i",
          "type": "uint256"
        }
      ],
      "name": "TotalbuyerpaymenORsellercollection",
      "outputs": [
        {
          "name": "",
          "type": "uint256"
        }
      ],
      "payable": false,
      "stateMutability": "view",
      "type": "function"
    },
    {
      "constant": true,
      "inputs": [
        {
          "name": "who",
          "type": "address"
        },
        {
          "name": "i",
          "type": "uint256"
        }
      ],
      "name": "Sellercredit",
      "outputs": [
        {
          "name": "",
          "type": "uint256"
        }
      ],
      "payable": false,
      "stateMutability": "view",
      "type": "function"
    },
    {
      "constant": false,
      "inputs": [
        {
          "name": "_to",
          "type": "address"
        },
        {
          "name": "totalprice",
          "type": "uint256"
        },
        {
          "name": "_from",
          "type": "address"
        }
      ],
      "name": "beforeDataTransaction",
      "outputs": [],
      "payable": false,
      "stateMutability": "nonpayable",
      "type": "function"
    },
    {
      "constant": false,
      "inputs": [
        {
          "name": "_from",
          "type": "address"
        },
        {
          "name": "_to",
          "type": "address"
        },
        {
          "name": "totalprice",
          "type": "uint256"
        },
        {
          "name": "buyergrade",
          "type": "uint8"
        }
      ],
      "name": "afterDataTransaction",
      "outputs": [],
      "payable": false,
      "stateMutability": "nonpayable",
      "type": "function"
    },
    {
      "constant": false,
      "inputs": [
        {
          "name": "_from",
          "type": "address"
        },
        {
          "name": "_to",
          "type": "address"
        },
        {
          "name": "totalprice",
          "type": "uint256"
        }
      ],
      "name": "dataTransactionRefund",
      "outputs": [],
      "payable": false,
      "stateMutability": "nonpayable",
      "type": "function"
    },
    {
      "constant": false,
      "inputs": [
        {
          "name": "addressNumber",
          "type": "uint256"
        },
        {
          "name": "value",
          "type": "uint256"
        },
        {
          "name": "_from",
          "type": "address"
        }
      ],
      "name": "beforeRealTimeTransaction",
      "outputs": [],
      "payable": false,
      "stateMutability": "nonpayable",
      "type": "function"
    },
    {
      "constant": false,
      "inputs": [
        {
          "name": "_from",
          "type": "address"
        },
        {
          "name": "_to",
          "type": "address[]"
        },
        {
          "name": "value",
          "type": "uint256"
        },
        {
          "name": "buyergrade",
          "type": "uint8"
        }
      ],
      "name": "afterRealTimeTransaction",
      "outputs": [],
      "payable": false,
      "stateMutability": "nonpayable",
      "type": "function"
    },
    {
      "constant": false,
      "inputs": [
        {
          "name": "_from",
          "type": "address"
        },
        {
          "name": "_to",
          "type": "address[]"
        },
        {
          "name": "value",
          "type": "uint256"
        }
      ],
      "name": "realTimeTransactionRefund",
      "outputs": [],
      "payable": false,
      "stateMutability": "nonpayable",
      "type": "function"
    }
  ],
  "bytecode": "0x6000805460a060020a60ff02191690556003805460ff191660121790556009600555600a600655620186a060075560c0604052600260808190527f657200000000000000000000000000000000000000000000000000000000000060a09081526200006e916008919062000144565b506040805180820190915260018082527f65000000000000000000000000000000000000000000000000000000000000006020909201918252620000b59160099162000144565b506103e86019556064601a5560008054600160a060020a0319163317815560035460075460ff909116600a0a026004819055308252600b602052604090912055600880546200011991600191600281841615610100026000190190911604620001c9565b50600980546200013d916002916000196101006001831615020116829004620001c9565b5062000263565b828054600181600116156101000203166002900490600052602060002090601f016020900481019282601f106200018757805160ff1916838001178555620001b7565b82800160010185558215620001b7579182015b82811115620001b75782518255916020019190600101906200019a565b50620001c592915062000243565b5090565b828054600181600116156101000203166002900490600052602060002090601f016020900481019282601f10620002045780548555620001b7565b82800160010185558215620001b757600052602060002091601f016020900482015b82811115620001b757825482559160010191906001019062000226565b6200026091905b80821115620001c557600081556001016200024a565b90565b612a5180620002736000396000f3fe6080604052600436106102245763ffffffff7c010000000000000000000000000000000000000000000000000000000060003504166302b090c1811461022657806304a85dfa1461024d57806305fefda71461030f57806306fdde031461033f578063095ea7b3146103c957806315666013146104165780631595a4221461045557806318160ddd146104885780631ee71c711461049d57806323b872dd146104ea5780632e1a7d4d1461052d578063313ce56714610557578063378dc3dc14610582578063385fa147146105975780633a457598146105ac5780633eaaf86b146105e5578063448b331b146105fa5780634cddae281461062d5780635c975abb146106355780636c02a9311461064a5780636ebcf6071461065f578063722713f714610692578063777bf2a5146106a75780637918447e146106e057806379c65068146106f55780637b61c3201461072e5780637c28248c146107435780637fed80bb14610786578063863e4299146107b95780638da5cb5b146107ce57806391bbf434146107ff57806393faa4501461082f57806395d89b41146108445780639bab5e4914610859578063a9059cbb1461089c578063b414d4b6146108d5578063ba0fb86114610908578063c774c9e914610943578063ceaf7fb21461097c578063dd62ed3e14610984578063e724529c146109bf578063e764c6e1146109fa578063eef71d6f14610ac2578063f2fde38b14610ad7578063f400fde414610b0a575b005b34801561023257600080fd5b5061023b610b1f565b60408051918252519081900360200190f35b34801561025957600080fd5b506102246004803603606081101561027057600080fd5b600160a060020a03823516919081019060408101602082013564010000000081111561029b57600080fd5b8201836020820111156102ad57600080fd5b803590602001918460208302840111640100000000831117156102cf57600080fd5b9190808060200260200160405190810160405280939291908181526020018383602002808284376000920191909152509295505091359250610b25915050565b34801561031b57600080fd5b506102246004803603604081101561033257600080fd5b5080359060200135610bdd565b34801561034b57600080fd5b50610354610c21565b6040805160208082528351818301528351919283929083019185019080838360005b8381101561038e578181015183820152602001610376565b50505050905090810190601f1680156103bb5780820380516001836020036101000a031916815260200191505b509250505060405180910390f35b3480156103d557600080fd5b50610402600480360360408110156103ec57600080fd5b50600160a060020a038135169060200135610cae565b604080519115158252519081900360200190f35b34801561042257600080fd5b506102246004803603606081101561043957600080fd5b5080359060208101359060400135600160a060020a0316610d11565b34801561046157600080fd5b5061023b6004803603602081101561047857600080fd5b5035600160a060020a0316610dbb565b34801561049457600080fd5b5061023b610dda565b3480156104a957600080fd5b50610224600480360360808110156104c057600080fd5b508035600160a060020a03908116916020810135909116906040810135906060013560ff16610de0565b3480156104f657600080fd5b506104026004803603606081101561050d57600080fd5b50600160a060020a03813581169160208101359091169060400135610e99565b34801561053957600080fd5b506102246004803603602081101561055057600080fd5b5035610f9f565b34801561056357600080fd5b5061056c611003565b6040805160ff9092168252519081900360200190f35b34801561058e57600080fd5b5061023b61100c565b3480156105a357600080fd5b50610402611012565b3480156105b857600080fd5b5061023b600480360360408110156105cf57600080fd5b50600160a060020a038135169060200135611092565b3480156105f157600080fd5b5061023b6110e4565b34801561060657600080fd5b5061023b6004803603602081101561061d57600080fd5b5035600160a060020a03166110ea565b61022461111e565b34801561064157600080fd5b50610402611155565b34801561065657600080fd5b50610354611165565b34801561066b57600080fd5b5061023b6004803603602081101561068257600080fd5b5035600160a060020a03166111c0565b34801561069e57600080fd5b5061023b6111d2565b3480156106b357600080fd5b5061023b600480360360408110156106ca57600080fd5b50600160a060020a0381351690602001356111e5565b3480156106ec57600080fd5b5061023b611225565b34801561070157600080fd5b506102246004803603604081101561071857600080fd5b50600160a060020a03813516906020013561122b565b34801561073a57600080fd5b506103546112f8565b34801561074f57600080fd5b506102246004803603606081101561076657600080fd5b50600160a060020a03813581169160208101359091169060400135611353565b34801561079257600080fd5b50610402600480360360208110156107a957600080fd5b5035600160a060020a03166113a8565b3480156107c557600080fd5b5061023b6113c6565b3480156107da57600080fd5b506107e36113cb565b60408051600160a060020a039092168252519081900360200190f35b34801561080b57600080fd5b506102246004803603604081101561082257600080fd5b50803590602001356113da565b34801561083b57600080fd5b50610402611413565b34801561085057600080fd5b5061035461148e565b34801561086557600080fd5b506102246004803603606081101561087c57600080fd5b50600160a060020a038135811691602081013591604090910135166114e6565b3480156108a857600080fd5b50610402600480360360408110156108bf57600080fd5b50600160a060020a038135169060200135611552565b3480156108e157600080fd5b50610402600480360360208110156108f857600080fd5b5035600160a060020a0316611582565b34801561091457600080fd5b5061023b6004803603604081101561092b57600080fd5b50600160a060020a0381358116916020013516611597565b34801561094f57600080fd5b5061023b6004803603604081101561096657600080fd5b50600160a060020a0381351690602001356115b4565b610224611606565b34801561099057600080fd5b5061023b600480360360408110156109a757600080fd5b50600160a060020a038135811691602001351661161f565b3480156109cb57600080fd5b50610224600480360360408110156109e257600080fd5b50600160a060020a038135169060200135151561164a565b348015610a0657600080fd5b5061022460048036036080811015610a1d57600080fd5b600160a060020a038235169190810190604081016020820135640100000000811115610a4857600080fd5b820183602082011115610a5a57600080fd5b80359060200191846020830284011164010000000083111715610a7c57600080fd5b919080806020026020016040519081016040528093929190818152602001838360200280828437600092019190915250929550508235935050506020013560ff166116dc565b348015610ace57600080fd5b5061022461182f565b348015610ae357600080fd5b5061022460048036036020811015610afa57600080fd5b5035600160a060020a031661189e565b348015610b1657600080fd5b5061023b611904565b60065481565b60005460a060020a900460ff1615610b3c57600080fd5b81518102601b819055610b4e9061190a565b601681905550610b613084601654611957565b60005b8251811015610bd757610b8f8382815181101515610b7e57fe5b906020019060200201516001611aa2565b610baf8382815181101515610ba057fe5b90602001906020020151611b3a565b610bcf8382815181101515610bc057fe5b90602001906020020151611d02565b600101610b64565b50505050565b600054600160a060020a03163314610bf457600080fd5b60005460a060020a900460ff1615610c0b57600080fd5b808211610c1d57600582905560068190555b5050565b60018054604080516020600284861615610100026000190190941693909304601f81018490048402820184019092528181529291830182828015610ca65780601f10610c7b57610100808354040283529160200191610ca6565b820191906000526020600020905b815481529060010190602001808311610c8957829003601f168201915b505050505081565b60008054600160a060020a03163314610cc657600080fd5b60005460a060020a900460ff1615610cdd57600080fd5b5060008054600160a060020a039081168252600c602090815260408084209286168452919052902081905560015b92915050565b60005460a060020a900460ff1615610d2857600080fd5b600160a060020a0381166000908152600d602052604090205460ff1615610d4e57600080fd5b828202601b819055610d5f9061190a565b601681905550610d728130601654611957565b60408051600160a060020a03831681526001602082015281517f4656763aeb5076063b1b9201e728e03b650c4e545b46330125af5d01c01fae56929181900390910190a1505050565b600160a060020a0381166000908152601f60205260409020545b919050565b60045490565b60005460a060020a900460ff1615610df757600080fd5b610e0082611ec9565b601755610e0d8284611f17565b6017805490910190819055610e259030908590611957565b610e30828583612247565b601381905550610e433085601354611957565b610e4f84836001612538565b610e5b83836002612538565b610e67848360016125ac565b610e73838360026125ac565b610e7e836002611aa2565b610e8783611d02565b610e9083611b3a565b610bd784612617565b60008054600160a060020a03163314610eb157600080fd5b60005460a060020a900460ff1615610ec857600080fd5b60008054600160a060020a039081168252600c60209081526040808420928816845291905290205482111580610f23575060008054600160a060020a039081168252600c602090815260408084209288168452919052902054155b1515610f2e57600080fd5b60008054600160a060020a039081168252600c60209081526040808420928816845291905290205415610f8a5760008054600160a060020a039081168252600c6020908152604080842092881684529190529020805483900390555b610f95848484611957565b5060019392505050565b60005460a060020a900460ff1615610fb657600080fd5b600554810230311015610fc857600080fd5b610fd3333083611957565b6005546040513391830280156108fc02916000818181858888f19350505050158015610c1d573d6000803e3d6000fd5b60035460ff1681565b60075481565b60008054600160a060020a0316331461102a57600080fd5b60005460a060020a900460ff161561104157600080fd5b6000805474ff0000000000000000000000000000000000000000191660a060020a1781556040517f6985a02210a168e66602d3235cb6db0e70f92b3ba4d376a33c0f3d9434bff6259190a150600190565b600081600114156110bc5750600160a060020a038216600090815260216020526040902054610d0b565b8160021415610d0b5750600160a060020a038216600090815260226020526040902054610d0b565b60045481565b60008054600160a060020a0316331461110257600080fd5b50600160a060020a03166000908152600b602052604090205490565b60005460a060020a900460ff161561113557600080fd5b60006006543481151561114457fe5b049050611152303383611957565b50565b60005460a060020a900460ff1681565b6008805460408051602060026001851615610100026000190190941693909304601f81018490048402820184019092528181529291830182828015610ca65780601f10610c7b57610100808354040283529160200191610ca6565b600b6020526000908152604090205481565b336000908152600b602052604090205490565b600160a060020a03821660009081526020805260408120826003811061120757fe5b602081049091015460ff601f9092166101000a900416905092915050565b60055481565b600054600160a060020a0316331461124257600080fd5b60005460a060020a900460ff161561125957600080fd5b600160a060020a0382166000908152600b602090815260408083208054850190556004805485019055805184815290513093927fddf252ad1be2c89b69c2b068fc378daa952ba7f163c4a11628f55a4df523b3ef928290030190a3604080518281529051600160a060020a0384169130917fddf252ad1be2c89b69c2b068fc378daa952ba7f163c4a11628f55a4df523b3ef9181900360200190a35050565b6009805460408051602060026001851615610100026000190190941693909304601f81018490048402820184019092528181529291830182828015610ca65780601f10610c7b57610100808354040283529160200191610ca6565b60005460a060020a900460ff161561136a57600080fd5b6113738161190a565b6016819055506113863084601654611957565b611391826001611aa2565b61139a82611b3a565b6113a382611d02565b505050565b600160a060020a03166000908152600d602052604090205460ff1690565b303190565b600054600160a060020a031681565b600054600160a060020a031633146113f157600080fd5b60005460a060020a900460ff161561140857600080fd5b601991909155601a55565b60008054600160a060020a0316331461142b57600080fd5b60005460a060020a900460ff16151561144357600080fd5b6000805474ff0000000000000000000000000000000000000000191681556040517f7805862f689e2f13df9f062ff482ad3ad112aca9e0847911ed832e158c525b339190a150600190565b6002805460408051602060018416156101000260001901909316849004601f81018490048402820184019092528181529291830182828015610ca65780601f10610c7b57610100808354040283529160200191610ca6565b60005460a060020a900460ff16156114fd57600080fd5b600160a060020a0381166000908152600d602052604090205460ff161561152357600080fd5b600160a060020a0383166000908152600d602052604090205460ff161561154957600080fd5b610d5f8261190a565b6000805460a060020a900460ff161561156a57600080fd5b6044361461157757600080fd5b610d0b338484611957565b600d6020526000908152604090205460ff1681565b600c60209081526000928352604080842090915290825290205481565b600081600114156115de5750600160a060020a0382166000908152601d6020526040902054610d0b565b8160021415610d0b5750600160a060020a0382166000908152601e6020526040902054610d0b565b60005460a060020a900460ff161561161d57600080fd5b565b600160a060020a039182166000908152600c6020908152604080832093909416825291909152205490565b600054600160a060020a0316331461166157600080fd5b60005460a060020a900460ff161561167857600080fd5b600160a060020a0382166000818152600d6020908152604091829020805460ff191685151590811790915582519384529083015280517f48335238b4855f35377ed80f164e8c6f3c366e54ac00b96a6402d4a9814a03a59281900390910190a15050565b60005460a060020a900460ff16156116f357600080fd5b60005b83518110156117ef5761170883611ec9565b601755835161172e90849086908490811061171f57fe5b90602001906020020151611f17565b601780549091019055835161175d90309086908490811061174b57fe5b90602001906020020151601754611957565b611780848281518110151561176e57fe5b90602001906020020151846002612538565b6117a3848281518110151561179157fe5b906020019060200201518460026125ac565b6117c584828151811015156117b457fe5b906020019060200201516002611aa2565b6117d68482815181101515610bc057fe5b6117e78482815181101515610ba057fe5b6001016116f6565b506117fe835183028583612247565b6013819055506118113085601354611957565b61182084845184026001612538565b610e90848451840260016125ac565b600054600160a060020a0316331461184657600080fd5b60005460a060020a900460ff161561185d57600080fd5b3031600a81905560008054604051600160a060020a03909116926108fc81150292909190818181858888f19350505050158015611152573d6000803e3d6000fd5b600054600160a060020a031633146118b557600080fd5b600160a060020a03811615156118ca57600080fd5b600080547fffffffffffffffffffffffff000000000000000000000000000000000000000016600160a060020a0392909216919091179055565b600a5481565b6000805460a060020a900460ff161561192257600080fd5b6019548281151561192f57fe5b0460158190551561194757601554820160165561194f565b600182016016555b505060165490565b600160a060020a038216151561196c57600080fd5b600160a060020a0383166000908152600b602052604090205481111561199157600080fd5b600160a060020a0382166000908152600b602052604090205481810110156119b857600080fd5b600160a060020a0383166000908152600d602052604090205460ff16156119de57600080fd5b600160a060020a0382166000908152600d602052604090205460ff1615611a0457600080fd5b600160a060020a038083166000818152600b60209081526040808320805495891680855282852080548981039091559486905281548801909155815187815291519390950194927fddf252ad1be2c89b69c2b068fc378daa952ba7f163c4a11628f55a4df523b3ef929181900390910190a3600160a060020a038084166000908152600b6020526040808220549287168252902054018114610bd757fe5b60005460a060020a900460ff1615611ab957600080fd5b8060011415611af857600160a060020a03821660009081526020805260409020805461ff001981166101009182900460ff908116600101169091021790555b8060021415610c1d5750600160a060020a031660009081526020805260409020805462ff0000198116620100009182900460ff90811660010116909102179055565b60005460a060020a900460ff1615611b5157600080fd5b600160a060020a0381166000908152602080526040902054610100900460ff16600a1415611c0d57600160a060020a038116600090815260208052604081205460ff161115611bcc57600160a060020a03811660009081526020805260409020805460ff808216600019011660ff199091161761ff00191690555b600160a060020a038116600090815260208052604090205460ff161515611c0d57600160a060020a03811660009081526020805260409020805460ff191690555b600160a060020a0381166000908152602080526040902054600a61010090910460ff16111561115257600160a060020a038116600090815260208052604090208054601c8054600a60ff610100909404841604831660ff1990911617908190559154611c7c928216911661264a565b601c805461ff00191661010060ff938416810291909117808355600160a060020a03851660009081526020805260409020805460ff198116928490048616908616038516919091178155915404909116600a029060015b60208104909101805460ff601f9093166101000a80820484169490940383168402929093021990921617905550565b60005460a060020a900460ff1615611d1957600080fd5b600160a060020a038116600090815260208052604090205462010000900460ff1660321415611de257600160a060020a0381166000908152602080526040902054602860ff9091161015611d9c57600160a060020a038116600090815260208052604090208054600160ff808316919091011660ff199091161762ff0000191690555b600160a060020a038116600090815260208052604090205460ff1660281415611de257600160a060020a03811660009081526020805260409020805460ff191660281790555b600160a060020a038116600090815260208052604090205460326201000090910460ff16111561115257600160a060020a038116600090815260208052604090208054601c805462ff000019166032620100009384900460ff908116919091048116840291909117918290559254611e6493929091048216911660280361264a565b601c805460ff928316630100000090810263ff0000001990921691909117808355600160a060020a03851660009081526020805260409020805460ff198116908616928490048616929092018516919091178155915404909116603202906002611cd3565b6000805460a060020a900460ff1615611ee157600080fd5b601a5482811515611eee57fe5b04601881905515611f06576018548203601755611f0f565b60001982016017555b505060175490565b6000805460a060020a900460ff1615611f2f57600080fd5b601a5483811515611f3c57fe5b04601855600160a060020a0382166000908152602080526040902054601c805466ff000000000000191660ff92831666010000000000009081029190911791829055900416611f8c836002612668565b611f9584612776565b601c805465ff0000000000191665010000000000929093019390930160ff90811682029290921792839055606492041611801590611fe35750601c54605a6501000000000090910460ff1610155b15611ff657601854600a90600902046014555b601c54605a6501000000000090910460ff161080156120255750601c5460506501000000000090910460ff1610155b1561203857601854600a90600802046014555b601c5460506501000000000090910460ff161080156120675750601c5460466501000000000090910460ff1610155b1561207a57601854600a90600702046014555b601c5460466501000000000090910460ff161080156120a95750601c54603c6501000000000090910460ff1610155b156120bc57601854600a90600602046014555b601c54603c6501000000000090910460ff161080156120eb5750601c5460326501000000000090910460ff1610155b156120fe57601854600a90600502046014555b601c5460326501000000000090910460ff1610801561212d5750601c5460286501000000000090910460ff1610155b1561214057601854600a90600402046014555b601c5460286501000000000090910460ff1610801561216f5750601c54601e6501000000000090910460ff1610155b1561218257601854600a90600302046014555b601c54601e6501000000000090910460ff161080156121b15750601c5460146501000000000090910460ff1610155b156121c457601854600a90600202046014555b601c5460146501000000000090910460ff161080156121f35750601c54600a6501000000000090910460ff1610155b1561220357601854600a90046014555b601c54600a6501000000000090910460ff161080156122325750601c5460006501000000000090910460ff1610155b1561223d5760006014555b5060145492915050565b6000805460a060020a900460ff161561225f57600080fd5b6019548481151561226c57fe5b0460155561227982612847565b612284846001612668565b61228d85612899565b61229686612967565b010101601c60046101000a81548160ff021916908360ff1602179055506064601c60049054906101000a900460ff1660ff16111580156122e55750601c54605a64010000000090910460ff1610155b156122f857601554600a90600902046013555b601c54605a64010000000090910460ff161080156123255750601c54605064010000000090910460ff1610155b1561233857601554600a90600802046013555b601c54605064010000000090910460ff161080156123655750601c54604664010000000090910460ff1610155b1561237857601554600a90600702046013555b601c54604664010000000090910460ff161080156123a55750601c54603c64010000000090910460ff1610155b156123b857601554600a90600602046013555b601c54603c64010000000090910460ff161080156123e55750601c54603264010000000090910460ff1610155b156123f857601554600a90600502046013555b601c54603264010000000090910460ff161080156124255750601c54602864010000000090910460ff1610155b1561243857601554600a90600402046013555b601c54602864010000000090910460ff161080156124655750601c54601e64010000000090910460ff1610155b1561247857601554600a90600302046013555b601c54601e64010000000090910460ff161080156124a55750601c54601464010000000090910460ff1610155b156124b857601554600a90600202046013555b601c54601464010000000090910460ff161080156124e55750601c54600a64010000000090910460ff1610155b156124f557601554600a90046013555b601c54600a64010000000090910460ff161080156125225750601c54600064010000000090910460ff1610155b1561252d5760006013555b506013549392505050565b60005460a060020a900460ff161561254f57600080fd5b6107d082106113a357806001141561258157600160a060020a0383166000908152601d60205260409020805460010190555b80600214156113a3575050600160a060020a03166000908152601e6020526040902080546001019055565b60005460a060020a900460ff16156125c357600080fd5b80600114156125eb57600160a060020a03831660009081526021602052604090208054830190555b80600214156113a357600160a060020a0383166000908152602260205260409020805483019055505050565b60005460a060020a900460ff161561262e57600080fd5b600160a060020a03166000908152601f60205260409020429055565b60008160ff168360ff161061265f5781612661565b825b9392505050565b6000805460a060020a900460ff161561268057600080fd5b81600114156126a657600160a060020a0383166000908152602160205260409020546010555b81600214156126cc57600160a060020a0383166000908152602260205260409020546010555b6010546301312d00116126e157506014610d0b565b6301312d006010541080156126fb5750621e848060105410155b156127085750600f610d0b565b621e8480601054108015612721575062030d4060105410155b1561272e5750600a610d0b565b62030d406010541080156127465750614e2060105410155b1561275357506005610d0b565b614e206010541080156127695750600060105410155b15610d0b57506000610d0b565b6000805460a060020a900460ff161561278e57600080fd5b600160a060020a0382166000908152601e60205260409020546012819055612710116127bc57506028610dd5565b6127106012541080156127d357506103e860125410155b156127e05750601e610dd5565b6103e86012541080156127f65750606460125410155b1561280357506014610dd5565b60646012541080156128185750600a60125410155b156128255750600a610dd5565b600a60125410801561283a5750600060125410155b15610dd557506000610dd5565b6000805460a060020a900460ff161561285f57600080fd5b60ff821615156128715750600a610dd5565b8160ff166001141561288557506014610dd5565b8160ff1660021415610dd55750601e610dd5565b6000805460a060020a900460ff16156128b157600080fd5b600160a060020a0382166000908152601d60205260409020546011819055612710116128df57506014610dd5565b6127106011541080156128f657506103e860115410155b156129035750600f610dd5565b6103e86011541080156129195750606460115410155b156129265750600a610dd5565b606460115410801561293b5750600a60115410155b1561294857506005610dd5565b600a60115410801561283a5750601154600011610dd557506000610dd5565b6000805460a060020a900460ff161561297f57600080fd5b600160a060020a0382166000908152601f6020526040902054600e8190554203600f8190556276a700116129b557506000610dd5565b600f546276a7001180156129ce575062278d00600f5410155b156129db5750600a610dd5565b62278d00600f541080156129f45750600f546203f48011155b15612a0157506014610dd5565b600f546203f480118015612a1857506000600f5410155b15610dd55750601e610dd556fea165627a7a72305820359663fcb481d40b2d31c5022e1b0fc1ca598f600c4221014b82ff309693a3a20029",
  "source": "pragma solidity ^0.5.0;\r\n\r\nimport \"./token.sol\";\r\n\r\ncontract transaction is token {\r\n    \r\n    uint256 constant DAY_IN_SECONDS = 86400; \r\n    uint256 constant MONTH_IN_SECONDS = 2592000; \r\n    uint256 private lastbuytimeInSeconds; \r\n    uint256 private timeinterval;\r\n    uint256 private totalmoney;\r\n    uint256 private buycontributionvalue;\r\n    uint256 private sellcontributionvalue;\r\n    uint256 private buyrebate; \r\n    uint256 private sellrebate; \r\n    uint256 private fee; \r\n    uint256 private buyerpayment;\r\n    uint256 private sellercollection;\r\n    uint256 private commission;\r\n    uint256 private feeProportion = 1000; \r\n    uint256 private commissionProportion = 100; \r\n    uint256 private totalvalue; \r\n    uint8 private needSubsellercredit;\r\n    uint8 private realSubsellercredit; \r\n    uint8 private needAddsellercredit; \r\n    uint8 private realAddsellercredit; \r\n    uint8 private _buyerTotalScore; \r\n    uint8 private _sellerTotalScore; \r\n    uint8 private sellercreditScore; \r\n    event SuccessFunds(address target, bool success);\r\n    mapping (address => uint256) private _buycontributionvalue;\r\n    mapping (address => uint256) private _sellcontributionvalue;\r\n    mapping (address => uint256) private _lastbuytime;\r\n    mapping (address => uint8[3]) private _sellercredit;\r\n    mapping (address => uint256) private _totalbuyerpayment;\r\n    mapping (address => uint256) private _totalsellercollection;\r\n\r\n    function min(uint8 a, uint8 b) internal pure returns (uint8) {\r\n        return a < b ? a : b;\r\n    }\r\n    \r\n    function setProportion(uint256 newfeeProportion, uint256 newcommissionProportion) onlyOwner public whenNotPaused{\r\n        feeProportion = newfeeProportion;\r\n        commissionProportion = newcommissionProportion; \r\n    } \r\n   \r\n    function _Buyerpayment(uint256 totalprice) internal whenNotPaused returns (uint256){\r\n        fee = totalprice / feeProportion;       \r\n        if(fee!=0){        \r\n            buyerpayment = fee + totalprice; \r\n        }\r\n        else{\r\n            buyerpayment = 1 + totalprice;\r\n        }\r\n        return buyerpayment;\r\n  }\r\n  \r\n    function _Sellercollection(uint256 totalprice) internal whenNotPaused returns (uint256){\r\n        commission = totalprice / commissionProportion;      \r\n        if(commission!=0){        \r\n            sellercollection = totalprice - commission;  \r\n        }\r\n        else{\r\n            sellercollection = totalprice - 1;\r\n        }\r\n        return sellercollection;\r\n  }\r\n  \r\n    function Lastbuytime(address who) external view returns (uint256) {\r\n        return _lastbuytime[who];    \r\n    }  \r\n\r\n    function _UpdateLastbuytime(address buyer)  internal whenNotPaused{\r\n        _lastbuytime[buyer] = now;  \r\n    }\r\n\r\n    function contributionvalue(address who, uint256 i) external view returns (uint256) {\r\n        if(i == 1){\r\n            return _buycontributionvalue[who];\r\n        }\r\n        if(i == 2){\r\n            return _sellcontributionvalue[who];\r\n        }\r\n    } \r\n\r\n    function _Updatecontributionvalue(address target, uint256 totalprice, uint256 i)  internal whenNotPaused{\r\n        if(totalprice >= 2000){\r\n            if(i == 1){\r\n                _buycontributionvalue[target] += 1;\r\n            }\r\n            if(i == 2){\r\n                _sellcontributionvalue[target] += 1;\r\n            }  \r\n        }\r\n    }\r\n\r\n    function TotalbuyerpaymenORsellercollection(address who, uint256 i) external view returns (uint256) {\r\n        if(i == 1){\r\n            return _totalbuyerpayment[who];\r\n        }\r\n        if(i == 2){\r\n            return _totalsellercollection[who];\r\n        }\r\n    }\r\n\r\n    function _UpdateTotalbuyerpaymentORsellercollection(address target, uint256 totalprice, uint256 i)  internal whenNotPaused{\r\n        if(i == 1){\r\n            _totalbuyerpayment[target] += totalprice; \r\n        }\r\n        if(i == 2){\r\n            _totalsellercollection[target] += totalprice;  \r\n        }    \r\n    }\r\n\r\n    function Sellercredit(address who, uint256 i) external view returns (uint256) {\r\n        return _sellercredit[who][i];\r\n    }\r\n\r\n    function _UpdateRelatedSellercredit(address target, uint256 i)  internal whenNotPaused{\r\n        if(i == 1){\r\n            _sellercredit[target][1] += 1;  \r\n        }\r\n        if(i == 2){\r\n            _sellercredit[target][2] += 1;  \r\n        }        \r\n    }\r\n\r\n    function _DecreaseSellercredit(address target)  internal whenNotPaused{\r\n        if(_sellercredit[target][1] == 10){   \r\n            if(_sellercredit[target][0] > 0){\r\n                _sellercredit[target][0] -= 1;  \r\n                _sellercredit[target][1] = 0;   \r\n            }\r\n            if(_sellercredit[target][0] == 0){   \r\n                _sellercredit[target][0] = 0;   \r\n            }\r\n        }\r\n        if(_sellercredit[target][1] > 10){  \r\n            needSubsellercredit = _sellercredit[target][1] / 10;  \r\n            realSubsellercredit = min(needSubsellercredit, _sellercredit[target][0]);  \r\n            _sellercredit[target][0] -= realSubsellercredit;     \r\n            _sellercredit[target][1] -= realSubsellercredit * 10;  \r\n        }\r\n    }\r\n\r\n    function _IncreaseSellercredit(address target)  internal whenNotPaused{\r\n        if(_sellercredit[target][2] == 50){ \r\n            if(_sellercredit[target][0] < 40){ \r\n                _sellercredit[target][0] += 1;  \r\n                _sellercredit[target][2] = 0;          \r\n            }\r\n            if(_sellercredit[target][0] == 40){   \r\n                _sellercredit[target][0] = 40;  \r\n            }\r\n        } \r\n        if(_sellercredit[target][2] > 50){   \r\n            needAddsellercredit = _sellercredit[target][2] / 50;  \r\n            realAddsellercredit = min(needAddsellercredit, 40 - _sellercredit[target][0]);  \r\n            _sellercredit[target][0] += realAddsellercredit;    \r\n            _sellercredit[target][2] -= realAddsellercredit * 50;  \r\n        }\r\n    }\r\n\r\n    function LastbuytimeScore(address who) internal whenNotPaused returns (uint8) {\r\n        lastbuytimeInSeconds = _lastbuytime[who]; \r\n        timeinterval = now - lastbuytimeInSeconds; \r\n        if(timeinterval >= MONTH_IN_SECONDS * 3){ \r\n            return 0;\r\n        }\r\n        if(timeinterval < MONTH_IN_SECONDS * 3 && timeinterval >= MONTH_IN_SECONDS){  \r\n            return 10;\r\n        }\r\n        if(timeinterval < MONTH_IN_SECONDS && timeinterval >= DAY_IN_SECONDS * 3){  \r\n            return 20;\r\n        }\r\n        if(timeinterval < DAY_IN_SECONDS * 3 && timeinterval >= 0){  \r\n            return 30;\r\n        }\r\n    }\r\n    \r\n    function BuycontributionvalueScore(address who) internal whenNotPaused returns (uint8) {\r\n        buycontributionvalue = _buycontributionvalue[who]; \r\n        if(buycontributionvalue >= 10000){  \r\n            return 20;\r\n        }\r\n        if(buycontributionvalue < 10000 && buycontributionvalue >= 1000){  \r\n            return 15;\r\n        }\r\n        if(buycontributionvalue < 1000 && buycontributionvalue >= 100){  \r\n            return 10;\r\n        }\r\n        if(buycontributionvalue < 100 && buycontributionvalue >= 10){  \r\n            return 5;\r\n        }\r\n        if(buycontributionvalue < 10 && buycontributionvalue >= 0){ \r\n            return 0;\r\n        }\r\n    }\r\n\r\n    function TotalbuyerpaymentScoreORsellercollectionScore(address who, uint256 i) internal whenNotPaused returns (uint8) {\r\n        if(i == 1){\r\n            totalmoney = _totalbuyerpayment[who]; \r\n        }\r\n        if(i == 2){\r\n            totalmoney = _totalsellercollection[who]; \r\n        }\r\n        if(totalmoney >= 20000000){ \r\n            return 20;\r\n        }\r\n        if(totalmoney < 20000000 && totalmoney >= 2000000){ \r\n            return 15;\r\n        }\r\n        if(totalmoney < 2000000 && totalmoney >= 200000){  \r\n            return 10;\r\n        }\r\n        if(totalmoney < 200000 && totalmoney >= 20000){  \r\n            return 5;\r\n        }\r\n        if(totalmoney < 20000 && totalmoney >= 0){ \r\n            return 0;\r\n        }\r\n    }\r\n\r\n    function BuyergradeScore(uint8 buyergrade) internal view whenNotPaused returns (uint8) { \r\n        if(buyergrade == 0){ \r\n            return 10;       \r\n        }\r\n        if(buyergrade == 1){ \r\n            return 20;       \r\n        }\r\n        if(buyergrade == 2){ \r\n            return 30;       \r\n        }\r\n    }\r\n\r\n    function SellcontributionvalueScore(address who) internal whenNotPaused returns (uint8) {\r\n        sellcontributionvalue = _sellcontributionvalue[who]; \r\n        if(sellcontributionvalue >= 10000){  \r\n            return 40;\r\n        }\r\n        if(sellcontributionvalue < 10000 && sellcontributionvalue >= 1000){  \r\n            return 30;\r\n        }\r\n        if(sellcontributionvalue < 1000 && sellcontributionvalue >= 100){  \r\n            return 20;\r\n        }\r\n        if(sellcontributionvalue < 100 && sellcontributionvalue >= 10){  \r\n            return 10;\r\n        }\r\n        if(sellcontributionvalue < 10 && sellcontributionvalue >= 0){ \r\n            return 0;\r\n        }\r\n    }\r\n\r\n    function BuyRebate(uint256 totalprice, address who, uint8 buyergrade) internal whenNotPaused returns (uint256) { \r\n        \r\n        fee = totalprice / feeProportion;      \r\n        _buyerTotalScore = LastbuytimeScore(who) + BuycontributionvalueScore(who) + TotalbuyerpaymentScoreORsellercollectionScore(who, 1) + BuyergradeScore(buyergrade);     \r\n        if(_buyerTotalScore <= 100 && _buyerTotalScore >= 90){  \r\n            buyrebate = fee * 9 / 10;\r\n        }\r\n        if(_buyerTotalScore < 90 && _buyerTotalScore >= 80){  \r\n            buyrebate = fee * 8 / 10;\r\n        }\r\n        if(_buyerTotalScore < 80 && _buyerTotalScore >= 70){  \r\n            buyrebate = fee * 7 / 10;\r\n        }\r\n        if(_buyerTotalScore < 70 && _buyerTotalScore >= 60){ \r\n            buyrebate = fee * 6 / 10;\r\n        }\r\n        if(_buyerTotalScore < 60 && _buyerTotalScore >= 50){ \r\n            buyrebate = fee * 5 / 10;\r\n        }\r\n        if(_buyerTotalScore < 50 && _buyerTotalScore >= 40){ \r\n            buyrebate = fee * 4 / 10;\r\n        }\r\n        if(_buyerTotalScore < 40 && _buyerTotalScore >= 30){ \r\n            buyrebate = fee * 3 / 10;\r\n        }\r\n        if(_buyerTotalScore < 30 && _buyerTotalScore >= 20){ \r\n            buyrebate = fee * 2 / 10;\r\n        }\r\n        if(_buyerTotalScore < 20 && _buyerTotalScore >= 10){ \r\n            buyrebate = fee * 1 / 10;\r\n        }\r\n        if(_buyerTotalScore < 10 && _buyerTotalScore >= 0){ \r\n            buyrebate = 0;\r\n        }\r\n        return buyrebate;\r\n    }\r\n\r\n    function SellRebate(uint256 totalprice, address who) internal whenNotPaused returns (uint256) { \r\n        \r\n        commission = totalprice / commissionProportion;    \r\n        sellercreditScore = _sellercredit[who][0]; \r\n        _sellerTotalScore = SellcontributionvalueScore(who) + TotalbuyerpaymentScoreORsellercollectionScore(who, 2) + sellercreditScore; \r\n        if(_sellerTotalScore <= 100 && _sellerTotalScore >= 90){  \r\n            sellrebate = commission * 9 / 10;\r\n        }\r\n        if(_sellerTotalScore < 90 && _sellerTotalScore >= 80){  \r\n            sellrebate = commission * 8 / 10;\r\n        }\r\n        if(_sellerTotalScore < 80 && _sellerTotalScore >= 70){  \r\n            sellrebate = commission * 7 / 10;\r\n        }\r\n        if(_sellerTotalScore < 70 && _sellerTotalScore >= 60){ \r\n            sellrebate = commission * 6 / 10;\r\n        }\r\n        if(_sellerTotalScore < 60 && _sellerTotalScore >= 50){ \r\n            sellrebate = commission * 5 / 10;\r\n        }\r\n        if(_sellerTotalScore < 50 && _sellerTotalScore >= 40){ \r\n            sellrebate = commission * 4 / 10;\r\n        }\r\n        if(_sellerTotalScore < 40 && _sellerTotalScore >= 30){ \r\n            sellrebate = commission * 3 / 10;\r\n        }\r\n        if(_sellerTotalScore < 30 && _sellerTotalScore >= 20){ \r\n            sellrebate = commission * 2 / 10;\r\n        }\r\n        if(_sellerTotalScore < 20 && _sellerTotalScore >= 10){ \r\n            sellrebate = commission * 1 / 10;\r\n        }\r\n        if(_sellerTotalScore < 10 && _sellerTotalScore >= 0){ \r\n            sellrebate = 0;\r\n        }\r\n        return sellrebate;\r\n    }\r\n\r\n    function beforeDataTransaction(address _to, uint256 totalprice, address _from) public whenNotPaused{\r\n        require(!frozenAccount[_from]);             \r\n        require(!frozenAccount[_to]);               \r\n        buyerpayment = _Buyerpayment(totalprice);  \r\n        _transfer(_from, address(this), buyerpayment); \r\n        emit SuccessFunds(_from, true);\r\n  }\r\n  \r\n    function afterDataTransaction(address  _from, address  _to, uint256 totalprice, uint8 buyergrade) public whenNotPaused{\r\n        sellercollection = _Sellercollection(totalprice);   \r\n        sellercollection += SellRebate(totalprice, _to); \r\n        _transfer(address(this), _to, sellercollection); \r\n        buyrebate = BuyRebate(totalprice, _from, buyergrade); \r\n        _transfer(address(this), _from, buyrebate); \r\n        _Updatecontributionvalue(_from, totalprice, 1);\r\n        _Updatecontributionvalue(_to, totalprice, 2);\r\n        _UpdateTotalbuyerpaymentORsellercollection(_from, totalprice, 1);\r\n        _UpdateTotalbuyerpaymentORsellercollection(_to, totalprice, 2);\r\n        _UpdateRelatedSellercredit(_to, 2);\r\n        _IncreaseSellercredit(_to);\r\n        _DecreaseSellercredit(_to);\r\n        _UpdateLastbuytime(_from); \r\n    }\r\n\r\n    function dataTransactionRefund(address _from, address _to, uint256 totalprice) public whenNotPaused{\r\n        buyerpayment = _Buyerpayment(totalprice);  \r\n        _transfer( address(this), _from, buyerpayment);  \r\n        _UpdateRelatedSellercredit(_to, 1);\r\n        _DecreaseSellercredit(_to);\r\n        _IncreaseSellercredit(_to);\r\n    }\r\n\r\n     function beforeRealTimeTransaction(uint256 addressNumber, uint256 value, address _from) public whenNotPaused{\r\n        require(!frozenAccount[_from]);             \r\n        totalvalue = addressNumber * value;   \r\n        buyerpayment = _Buyerpayment(totalvalue);  \r\n        _transfer(_from, address(this), buyerpayment); \r\n        emit SuccessFunds(_from, true);\r\n  }\r\n \r\n    function afterRealTimeTransaction(address _from, address[] memory _to, uint256 value, uint8 buyergrade) public whenNotPaused{\r\n        for(uint256 i = 0; i < _to.length; i++){\r\n            sellercollection = _Sellercollection(value);   \r\n            sellercollection += SellRebate(value, _to[i]); \r\n            _transfer(address(this), _to[i], sellercollection); \r\n            _Updatecontributionvalue(_to[i], value, 2);\r\n            _UpdateTotalbuyerpaymentORsellercollection(_to[i], value, 2);\r\n            _UpdateRelatedSellercredit(_to[i], 2);\r\n            _IncreaseSellercredit(_to[i]);\r\n            _DecreaseSellercredit(_to[i]);\r\n        }\r\n        buyrebate = BuyRebate(value * _to.length, _from, buyergrade); \r\n        _transfer(address(this), _from, buyrebate);\r\n        _Updatecontributionvalue(_from, value * _to.length, 1);\r\n        _UpdateTotalbuyerpaymentORsellercollection(_from, value * _to.length, 1);\r\n        _UpdateLastbuytime(_from); \r\n}\r\n   \r\n    function realTimeTransactionRefund(address _from, address[] memory _to, uint256 value) public whenNotPaused{\r\n        totalvalue = _to.length * value;  \r\n        buyerpayment = _Buyerpayment(totalvalue);  \r\n        _transfer( address(this), _from, buyerpayment);  \r\n        for(uint256 i = 0; i < _to.length; i++){\r\n            _UpdateRelatedSellercredit(_to[i], 1);\r\n            _DecreaseSellercredit(_to[i]);\r\n            _IncreaseSellercredit(_to[i]);\r\n        }\r\n    }\r\n}",
  "sourcePath": "G:\\ControlSolidity\\contracts\\transaction.sol",
  "compiler": {
    "name": "solc",
    "version": "0.5.0+commit.1d4f565a.Emscripten.clang"
  },
  "schemaVersion": "3.0.5",
  "updatedAt": "2019-05-03T02:40:26.216Z",
  "devdoc": {
    "methods": {}
  },
  "userdoc": {
    "methods": {}
  }
}