{
  "contractName": "TxControl",
  "abi": [
    {
      "constant": true,
      "inputs": [],
      "name": "rechargePrice",
      "outputs": [
        {
          "name": "",
          "type": "uint256"
        }
      ],
      "payable": false,
      "stateMutability": "view",
      "type": "function"
    },
    {
      "constant": false,
      "inputs": [
        {
          "name": "_from",
          "type": "address"
        },
        {
          "name": "_to",
          "type": "address[]"
        },
        {
          "name": "value",
          "type": "uint256"
        }
      ],
      "name": "realTimeTransactionRefund",
      "outputs": [],
      "payable": false,
      "stateMutability": "nonpayable",
      "type": "function"
    },
    {
      "constant": true,
      "inputs": [],
      "name": "returnContractAddress",
      "outputs": [
        {
          "name": "",
          "type": "address"
        }
      ],
      "payable": false,
      "stateMutability": "view",
      "type": "function"
    },
    {
      "constant": false,
      "inputs": [
        {
          "name": "newwithdrawPrice",
          "type": "uint256"
        },
        {
          "name": "newrechargePrice",
          "type": "uint256"
        }
      ],
      "name": "setPrices",
      "outputs": [],
      "payable": false,
      "stateMutability": "nonpayable",
      "type": "function"
    },
    {
      "constant": true,
      "inputs": [],
      "name": "name",
      "outputs": [
        {
          "name": "",
          "type": "string"
        }
      ],
      "payable": false,
      "stateMutability": "view",
      "type": "function"
    },
    {
      "constant": false,
      "inputs": [
        {
          "name": "_spender",
          "type": "address"
        },
        {
          "name": "_value",
          "type": "uint256"
        }
      ],
      "name": "approve",
      "outputs": [
        {
          "name": "",
          "type": "bool"
        }
      ],
      "payable": false,
      "stateMutability": "nonpayable",
      "type": "function"
    },
    {
      "constant": true,
      "inputs": [
        {
          "name": "who",
          "type": "address"
        }
      ],
      "name": "Sellcontributionvalue",
      "outputs": [
        {
          "name": "",
          "type": "uint256"
        }
      ],
      "payable": false,
      "stateMutability": "view",
      "type": "function"
    },
    {
      "constant": false,
      "inputs": [
        {
          "name": "addressNumber",
          "type": "uint256"
        },
        {
          "name": "value",
          "type": "uint256"
        },
        {
          "name": "_from",
          "type": "address"
        }
      ],
      "name": "beforeRealTimeTransaction",
      "outputs": [],
      "payable": false,
      "stateMutability": "nonpayable",
      "type": "function"
    },
    {
      "constant": true,
      "inputs": [
        {
          "name": "who",
          "type": "address"
        }
      ],
      "name": "Lastbuytime",
      "outputs": [
        {
          "name": "",
          "type": "uint256"
        }
      ],
      "payable": false,
      "stateMutability": "view",
      "type": "function"
    },
    {
      "constant": true,
      "inputs": [],
      "name": "totalSupply",
      "outputs": [
        {
          "name": "",
          "type": "uint256"
        }
      ],
      "payable": false,
      "stateMutability": "view",
      "type": "function"
    },
    {
      "constant": false,
      "inputs": [
        {
          "name": "_from",
          "type": "address"
        },
        {
          "name": "_to",
          "type": "address"
        },
        {
          "name": "totalprice",
          "type": "uint256"
        },
        {
          "name": "buyergrade",
          "type": "uint8"
        }
      ],
      "name": "afterDataTransaction",
      "outputs": [],
      "payable": false,
      "stateMutability": "nonpayable",
      "type": "function"
    },
    {
      "constant": false,
      "inputs": [
        {
          "name": "_from",
          "type": "address"
        },
        {
          "name": "_to",
          "type": "address"
        },
        {
          "name": "_value",
          "type": "uint256"
        }
      ],
      "name": "transferFrom",
      "outputs": [
        {
          "name": "",
          "type": "bool"
        }
      ],
      "payable": false,
      "stateMutability": "nonpayable",
      "type": "function"
    },
    {
      "constant": true,
      "inputs": [
        {
          "name": "who",
          "type": "address"
        }
      ],
      "name": "Buycontributionvalue",
      "outputs": [
        {
          "name": "",
          "type": "uint256"
        }
      ],
      "payable": false,
      "stateMutability": "view",
      "type": "function"
    },
    {
      "constant": false,
      "inputs": [
        {
          "name": "amount",
          "type": "uint256"
        }
      ],
      "name": "withdraw",
      "outputs": [],
      "payable": false,
      "stateMutability": "nonpayable",
      "type": "function"
    },
    {
      "constant": true,
      "inputs": [],
      "name": "decimals",
      "outputs": [
        {
          "name": "",
          "type": "uint8"
        }
      ],
      "payable": false,
      "stateMutability": "view",
      "type": "function"
    },
    {
      "constant": true,
      "inputs": [
        {
          "name": "who",
          "type": "address"
        }
      ],
      "name": "Totalsellercollection",
      "outputs": [
        {
          "name": "",
          "type": "uint256"
        }
      ],
      "payable": false,
      "stateMutability": "view",
      "type": "function"
    },
    {
      "constant": true,
      "inputs": [],
      "name": "initialSupply",
      "outputs": [
        {
          "name": "",
          "type": "uint256"
        }
      ],
      "payable": false,
      "stateMutability": "view",
      "type": "function"
    },
    {
      "constant": true,
      "inputs": [],
      "name": "_totalSupply",
      "outputs": [
        {
          "name": "",
          "type": "uint256"
        }
      ],
      "payable": false,
      "stateMutability": "view",
      "type": "function"
    },
    {
      "constant": false,
      "inputs": [],
      "name": "unpause",
      "outputs": [
        {
          "name": "",
          "type": "bool"
        }
      ],
      "payable": false,
      "stateMutability": "nonpayable",
      "type": "function"
    },
    {
      "constant": false,
      "inputs": [
        {
          "name": "_value",
          "type": "uint256"
        }
      ],
      "name": "burn",
      "outputs": [
        {
          "name": "success",
          "type": "bool"
        }
      ],
      "payable": false,
      "stateMutability": "nonpayable",
      "type": "function"
    },
    {
      "constant": false,
      "inputs": [],
      "name": "recharge",
      "outputs": [],
      "payable": true,
      "stateMutability": "payable",
      "type": "function"
    },
    {
      "constant": true,
      "inputs": [],
      "name": "paused",
      "outputs": [
        {
          "name": "",
          "type": "bool"
        }
      ],
      "payable": false,
      "stateMutability": "view",
      "type": "function"
    },
    {
      "constant": true,
      "inputs": [],
      "name": "tokenName",
      "outputs": [
        {
          "name": "",
          "type": "string"
        }
      ],
      "payable": false,
      "stateMutability": "view",
      "type": "function"
    },
    {
      "constant": true,
      "inputs": [
        {
          "name": "",
          "type": "address"
        }
      ],
      "name": "_balances",
      "outputs": [
        {
          "name": "",
          "type": "uint256"
        }
      ],
      "payable": false,
      "stateMutability": "view",
      "type": "function"
    },
    {
      "constant": true,
      "inputs": [
        {
          "name": "who",
          "type": "address"
        }
      ],
      "name": "balanceOf",
      "outputs": [
        {
          "name": "",
          "type": "uint256"
        }
      ],
      "payable": false,
      "stateMutability": "view",
      "type": "function"
    },
    {
      "constant": true,
      "inputs": [
        {
          "name": "who",
          "type": "address"
        },
        {
          "name": "i",
          "type": "uint256"
        }
      ],
      "name": "Sellercredit",
      "outputs": [
        {
          "name": "",
          "type": "uint256"
        }
      ],
      "payable": false,
      "stateMutability": "view",
      "type": "function"
    },
    {
      "constant": true,
      "inputs": [],
      "name": "withdrawPrice",
      "outputs": [
        {
          "name": "",
          "type": "uint256"
        }
      ],
      "payable": false,
      "stateMutability": "view",
      "type": "function"
    },
    {
      "constant": false,
      "inputs": [
        {
          "name": "target",
          "type": "address"
        },
        {
          "name": "mintedAmount",
          "type": "uint256"
        }
      ],
      "name": "mintToken",
      "outputs": [],
      "payable": false,
      "stateMutability": "nonpayable",
      "type": "function"
    },
    {
      "constant": false,
      "inputs": [
        {
          "name": "_from",
          "type": "address"
        },
        {
          "name": "_value",
          "type": "uint256"
        }
      ],
      "name": "burnFrom",
      "outputs": [
        {
          "name": "success",
          "type": "bool"
        }
      ],
      "payable": false,
      "stateMutability": "nonpayable",
      "type": "function"
    },
    {
      "constant": true,
      "inputs": [],
      "name": "tokenSymbol",
      "outputs": [
        {
          "name": "",
          "type": "string"
        }
      ],
      "payable": false,
      "stateMutability": "view",
      "type": "function"
    },
    {
      "constant": false,
      "inputs": [
        {
          "name": "_from",
          "type": "address"
        },
        {
          "name": "_to",
          "type": "address"
        },
        {
          "name": "totalprice",
          "type": "uint256"
        }
      ],
      "name": "dataTransactionRefund",
      "outputs": [],
      "payable": false,
      "stateMutability": "nonpayable",
      "type": "function"
    },
    {
      "constant": true,
      "inputs": [
        {
          "name": "",
          "type": "address"
        },
        {
          "name": "",
          "type": "uint256"
        }
      ],
      "name": "collectionAddress",
      "outputs": [
        {
          "name": "",
          "type": "address"
        }
      ],
      "payable": false,
      "stateMutability": "view",
      "type": "function"
    },
    {
      "constant": true,
      "inputs": [
        {
          "name": "account",
          "type": "address"
        }
      ],
      "name": "ifAccountFrozen",
      "outputs": [
        {
          "name": "",
          "type": "bool"
        }
      ],
      "payable": false,
      "stateMutability": "view",
      "type": "function"
    },
    {
      "constant": false,
      "inputs": [],
      "name": "pause",
      "outputs": [
        {
          "name": "",
          "type": "bool"
        }
      ],
      "payable": false,
      "stateMutability": "nonpayable",
      "type": "function"
    },
    {
      "constant": true,
      "inputs": [],
      "name": "heyueYitaibi",
      "outputs": [
        {
          "name": "",
          "type": "uint256"
        }
      ],
      "payable": false,
      "stateMutability": "view",
      "type": "function"
    },
    {
      "constant": true,
      "inputs": [],
      "name": "owner",
      "outputs": [
        {
          "name": "",
          "type": "address"
        }
      ],
      "payable": false,
      "stateMutability": "view",
      "type": "function"
    },
    {
      "constant": false,
      "inputs": [
        {
          "name": "newfeeProportion",
          "type": "uint256"
        },
        {
          "name": "newcommissionProportion",
          "type": "uint256"
        }
      ],
      "name": "setProportion",
      "outputs": [],
      "payable": false,
      "stateMutability": "nonpayable",
      "type": "function"
    },
    {
      "constant": true,
      "inputs": [],
      "name": "symbol",
      "outputs": [
        {
          "name": "",
          "type": "string"
        }
      ],
      "payable": false,
      "stateMutability": "view",
      "type": "function"
    },
    {
      "constant": false,
      "inputs": [
        {
          "name": "_to",
          "type": "address"
        },
        {
          "name": "totalprice",
          "type": "uint256"
        },
        {
          "name": "_from",
          "type": "address"
        }
      ],
      "name": "beforeDataTransaction",
      "outputs": [],
      "payable": false,
      "stateMutability": "nonpayable",
      "type": "function"
    },
    {
      "constant": false,
      "inputs": [
        {
          "name": "_to",
          "type": "address"
        },
        {
          "name": "_value",
          "type": "uint256"
        }
      ],
      "name": "transfer",
      "outputs": [
        {
          "name": "",
          "type": "bool"
        }
      ],
      "payable": false,
      "stateMutability": "nonpayable",
      "type": "function"
    },
    {
      "constant": true,
      "inputs": [
        {
          "name": "",
          "type": "address"
        }
      ],
      "name": "frozenAccount",
      "outputs": [
        {
          "name": "",
          "type": "bool"
        }
      ],
      "payable": false,
      "stateMutability": "view",
      "type": "function"
    },
    {
      "constant": false,
      "inputs": [],
      "name": "transferHeyue",
      "outputs": [],
      "payable": true,
      "stateMutability": "payable",
      "type": "function"
    },
    {
      "constant": true,
      "inputs": [
        {
          "name": "who",
          "type": "address"
        }
      ],
      "name": "Totalbuyerpayment",
      "outputs": [
        {
          "name": "",
          "type": "uint256"
        }
      ],
      "payable": false,
      "stateMutability": "view",
      "type": "function"
    },
    {
      "constant": true,
      "inputs": [
        {
          "name": "owner",
          "type": "address"
        },
        {
          "name": "spender",
          "type": "address"
        }
      ],
      "name": "allowance",
      "outputs": [
        {
          "name": "",
          "type": "uint256"
        }
      ],
      "payable": false,
      "stateMutability": "view",
      "type": "function"
    },
    {
      "constant": false,
      "inputs": [
        {
          "name": "target",
          "type": "address"
        },
        {
          "name": "freeze",
          "type": "bool"
        }
      ],
      "name": "freezeAccount",
      "outputs": [],
      "payable": false,
      "stateMutability": "nonpayable",
      "type": "function"
    },
    {
      "constant": false,
      "inputs": [
        {
          "name": "_from",
          "type": "address"
        },
        {
          "name": "_to",
          "type": "address[]"
        },
        {
          "name": "value",
          "type": "uint256"
        },
        {
          "name": "buyergrade",
          "type": "uint8"
        }
      ],
      "name": "afterRealTimeTransaction",
      "outputs": [],
      "payable": false,
      "stateMutability": "nonpayable",
      "type": "function"
    },
    {
      "constant": false,
      "inputs": [],
      "name": "heyueTixian",
      "outputs": [],
      "payable": false,
      "stateMutability": "nonpayable",
      "type": "function"
    },
    {
      "constant": false,
      "inputs": [
        {
          "name": "newOwner",
          "type": "address"
        }
      ],
      "name": "transferOwnership",
      "outputs": [],
      "payable": false,
      "stateMutability": "nonpayable",
      "type": "function"
    },
    {
      "constant": true,
      "inputs": [],
      "name": "amount1",
      "outputs": [
        {
          "name": "",
          "type": "uint256"
        }
      ],
      "payable": false,
      "stateMutability": "view",
      "type": "function"
    },
    {
      "payable": true,
      "stateMutability": "payable",
      "type": "fallback"
    },
    {
      "anonymous": false,
      "inputs": [
        {
          "indexed": false,
          "name": "seller",
          "type": "address"
        },
        {
          "indexed": false,
          "name": "fileNUmberList",
          "type": "uint256[]"
        },
        {
          "indexed": false,
          "name": "publicKeyCheck",
          "type": "string"
        }
      ],
      "name": "addTx",
      "type": "event"
    },
    {
      "anonymous": false,
      "inputs": [
        {
          "indexed": false,
          "name": "buyerId",
          "type": "uint256"
        },
        {
          "indexed": false,
          "name": "publicKeyCheck",
          "type": "string"
        },
        {
          "indexed": false,
          "name": "ipOrEigenvalues",
          "type": "string"
        },
        {
          "indexed": false,
          "name": "duration",
          "type": "uint64"
        }
      ],
      "name": "addRealTimeTx",
      "type": "event"
    },
    {
      "anonymous": false,
      "inputs": [
        {
          "indexed": false,
          "name": "i",
          "type": "uint256"
        }
      ],
      "name": "confirmTx",
      "type": "event"
    },
    {
      "anonymous": false,
      "inputs": [
        {
          "indexed": false,
          "name": "i",
          "type": "uint256"
        }
      ],
      "name": "confirmRealTimeTx",
      "type": "event"
    },
    {
      "anonymous": false,
      "inputs": [
        {
          "indexed": false,
          "name": "target",
          "type": "address"
        },
        {
          "indexed": false,
          "name": "success",
          "type": "bool"
        }
      ],
      "name": "SuccessFunds",
      "type": "event"
    },
    {
      "anonymous": false,
      "inputs": [
        {
          "indexed": false,
          "name": "target",
          "type": "address"
        },
        {
          "indexed": false,
          "name": "frozen",
          "type": "bool"
        }
      ],
      "name": "FrozenFunds",
      "type": "event"
    },
    {
      "anonymous": false,
      "inputs": [
        {
          "indexed": true,
          "name": "from",
          "type": "address"
        },
        {
          "indexed": true,
          "name": "to",
          "type": "address"
        },
        {
          "indexed": false,
          "name": "value",
          "type": "uint256"
        }
      ],
      "name": "Transfer",
      "type": "event"
    },
    {
      "anonymous": false,
      "inputs": [
        {
          "indexed": true,
          "name": "from",
          "type": "address"
        },
        {
          "indexed": false,
          "name": "value",
          "type": "uint256"
        }
      ],
      "name": "Burn",
      "type": "event"
    },
    {
      "anonymous": false,
      "inputs": [],
      "name": "Pause",
      "type": "event"
    },
    {
      "anonymous": false,
      "inputs": [],
      "name": "Unpause",
      "type": "event"
    },
    {
      "constant": true,
      "inputs": [
        {
          "name": "buyer",
          "type": "address"
        },
        {
          "name": "i",
          "type": "uint256"
        }
      ],
      "name": "checkDataTxOwner",
      "outputs": [
        {
          "name": "",
          "type": "bool"
        }
      ],
      "payable": false,
      "stateMutability": "view",
      "type": "function"
    },
    {
      "constant": false,
      "inputs": [
        {
          "name": "_seller",
          "type": "address"
        },
        {
          "name": "_txType",
          "type": "uint8"
        },
        {
          "name": "_value",
          "type": "uint256"
        },
        {
          "name": "_buyerGrade",
          "type": "uint8"
        }
      ],
      "name": "buyData",
      "outputs": [
        {
          "name": "",
          "type": "uint256"
        }
      ],
      "payable": false,
      "stateMutability": "nonpayable",
      "type": "function"
    },
    {
      "constant": false,
      "inputs": [
        {
          "name": "i",
          "type": "uint256"
        }
      ],
      "name": "refundData",
      "outputs": [],
      "payable": false,
      "stateMutability": "nonpayable",
      "type": "function"
    },
    {
      "constant": false,
      "inputs": [
        {
          "name": "i",
          "type": "uint256"
        }
      ],
      "name": "makeSureTx",
      "outputs": [],
      "payable": false,
      "stateMutability": "nonpayable",
      "type": "function"
    },
    {
      "constant": true,
      "inputs": [
        {
          "name": "buyer",
          "type": "address"
        },
        {
          "name": "i",
          "type": "uint256"
        }
      ],
      "name": "checkRealTimeTxOwner",
      "outputs": [
        {
          "name": "",
          "type": "bool"
        }
      ],
      "payable": false,
      "stateMutability": "view",
      "type": "function"
    },
    {
      "constant": false,
      "inputs": [
        {
          "name": "nonce",
          "type": "uint256"
        },
        {
          "name": "_publicKeyCheck",
          "type": "string"
        },
        {
          "name": "_ipOrEigenvalues",
          "type": "string"
        },
        {
          "name": "_value",
          "type": "uint256"
        },
        {
          "name": "_accountsNumber",
          "type": "uint32"
        },
        {
          "name": "_buyerGrade",
          "type": "uint8"
        },
        {
          "name": "_duration",
          "type": "uint64"
        },
        {
          "name": "_buyerId",
          "type": "uint256"
        }
      ],
      "name": "buyRealTimeData",
      "outputs": [
        {
          "name": "",
          "type": "uint256"
        },
        {
          "name": "",
          "type": "uint256"
        }
      ],
      "payable": false,
      "stateMutability": "nonpayable",
      "type": "function"
    },
    {
      "constant": false,
      "inputs": [
        {
          "name": "addressList",
          "type": "address[]"
        }
      ],
      "name": "setAddress",
      "outputs": [],
      "payable": false,
      "stateMutability": "nonpayable",
      "type": "function"
    },
    {
      "constant": false,
      "inputs": [
        {
          "name": "i",
          "type": "uint256"
        }
      ],
      "name": "makeSureRealTimeTx",
      "outputs": [],
      "payable": false,
      "stateMutability": "nonpayable",
      "type": "function"
    },
    {
      "constant": false,
      "inputs": [
        {
          "name": "i",
          "type": "uint256"
        }
      ],
      "name": "refundRealTime",
      "outputs": [],
      "payable": false,
      "stateMutability": "nonpayable",
      "type": "function"
    }
  ],
  "bytecode": "0x608060405260008060146101000a81548160ff0219169083151502179055506012600360006101000a81548160ff021916908360ff1602179055506009600755600a600855620186a06009556040805190810160405280600281526020017f6572000000000000000000000000000000000000000000000000000000000000815250600a90805190602001906200009892919062000353565b506040805190810160405280600181526020017f6500000000000000000000000000000000000000000000000000000000000000815250600b9080519060200190620000e692919062000353565b506103e8601b556064601c5533602660006101000a81548173ffffffffffffffffffffffffffffffffffffffff021916908373ffffffffffffffffffffffffffffffffffffffff160217905550600954600a8054600181600116156101000203166002900480601f016020809104026020016040519081016040528092919081815260200182805460018160011615610100020316600290048015620001d05780601f10620001a457610100808354040283529160200191620001d0565b820191906000526020600020905b815481529060010190602001808311620001b257829003601f168201915b5050505050600b8054600181600116156101000203166002900480601f0160208091040260200160405190810160405280929190818152602001828054600181600116156101000203166002900480156200026f5780601f1062000243576101008083540402835291602001916200026f565b820191906000526020600020905b8154815290600101906020018083116200025157829003601f168201915b5050505050336000806101000a81548173ffffffffffffffffffffffffffffffffffffffff021916908373ffffffffffffffffffffffffffffffffffffffff160217905550600360009054906101000a900460ff1660ff16600a0a8302600481905550600454600560003073ffffffffffffffffffffffffffffffffffffffff1673ffffffffffffffffffffffffffffffffffffffff1681526020019081526020016000208190555081600190805190602001906200033092919062000353565b5080600290805190602001906200034992919062000353565b5050505062000402565b828054600181600116156101000203166002900490600052602060002090601f016020900481019282601f106200039657805160ff1916838001178555620003c7565b82800160010185558215620003c7579182015b82811115620003c6578251825591602001919060010190620003a9565b5b509050620003d69190620003da565b5090565b620003ff91905b80821115620003fb576000816000905550600101620003e1565b5090565b90565b6166af80620004126000396000f3fe6080604052600436106102b4576000357c0100000000000000000000000000000000000000000000000000000000900463ffffffff16806302b090c1146102b657806304a85dfa146102e15780630589a27c146103d057806305fefda71461042757806306fdde031461046c578063095ea7b3146104fc5780630a3894dc1461056f5780630fbee98b146105d457806315666013146106475780631595a422146106ac57806318160ddd146107115780631ee71c711461073c57806323b872dd146107c457806324921cd2146108575780632e1a7d4d146108bc578063313ce567146108f757806333d34b9214610928578063378dc3dc1461098d5780633eaaf86b146109b85780633f4ba83a146109e357806342966c6814610a125780634b160ef714610a655780634cddae2814610aa05780635c975abb14610aaa5780636c02a93114610ad95780636ebcf60714610b6957806370a0823114610bce578063777bf2a514610c335780637918447e14610ca257806379c6506814610ccd57806379cc679014610d285780637b61c32014610d9b5780637c28248c14610e2b5780637d520ea614610ea65780637fed80bb14610f415780638456cb5914610faa578063863e429914610fd95780638da5cb5b1461100457806391bbf4341461105b57806395d89b41146110a05780639bab5e49146111305780639e8c9a40146111ab5780639ee66913146111e6578063a354d3f614611221578063a9059cbb146112e6578063b414d4b614611359578063b60d3b1d146113c2578063ceaf7fb21461144b578063d19d49f914611455578063d6a39ab61461161f578063dd62ed3e14611684578063e724529c14611709578063e764c6e114611766578063eef71d6f14611862578063f2fde38b14611879578063f400fde4146118ca578063f73b152d146118f5578063fcbd7ae214611968575b005b3480156102c257600080fd5b506102cb6119a3565b6040518082815260200191505060405180910390f35b3480156102ed57600080fd5b506103ce6004803603606081101561030457600080fd5b81019080803573ffffffffffffffffffffffffffffffffffffffff1690602001909291908035906020019064010000000081111561034157600080fd5b82018360208201111561035357600080fd5b8035906020019184602083028401116401000000008311171561037557600080fd5b919080806020026020016040519081016040528093929190818152602001838360200280828437600081840152601f19601f820116905080830192505050505050509192919290803590602001909291905050506119a9565b005b3480156103dc57600080fd5b506103e5611a71565b604051808273ffffffffffffffffffffffffffffffffffffffff1673ffffffffffffffffffffffffffffffffffffffff16815260200191505060405180910390f35b34801561043357600080fd5b5061046a6004803603604081101561044a57600080fd5b810190808035906020019092919080359060200190929190505050611a79565b005b34801561047857600080fd5b50610481611b0c565b6040518080602001828103825283818151815260200191508051906020019080838360005b838110156104c15780820151818401526020810190506104a6565b50505050905090810190601f1680156104ee5780820380516001836020036101000a031916815260200191505b509250505060405180910390f35b34801561050857600080fd5b506105556004803603604081101561051f57600080fd5b81019080803573ffffffffffffffffffffffffffffffffffffffff16906020019092919080359060200190929190505050611baa565b604051808215151515815260200191505060405180910390f35b34801561057b57600080fd5b506105be6004803603602081101561059257600080fd5b81019080803573ffffffffffffffffffffffffffffffffffffffff169060200190929190505050611ccf565b6040518082815260200191505060405180910390f35b3480156105e057600080fd5b5061062d600480360360408110156105f757600080fd5b81019080803573ffffffffffffffffffffffffffffffffffffffff16906020019092919080359060200190929190505050611d18565b604051808215151515815260200191505060405180910390f35b34801561065357600080fd5b506106aa6004803603606081101561066a57600080fd5b810190808035906020019092919080359060200190929190803573ffffffffffffffffffffffffffffffffffffffff169060200190929190505050611da2565b005b3480156106b857600080fd5b506106fb600480360360208110156106cf57600080fd5b81019080803573ffffffffffffffffffffffffffffffffffffffff169060200190929190505050611eb3565b6040518082815260200191505060405180910390f35b34801561071d57600080fd5b50610726611efc565b6040518082815260200191505060405180910390f35b34801561074857600080fd5b506107c26004803603608081101561075f57600080fd5b81019080803573ffffffffffffffffffffffffffffffffffffffff169060200190929190803573ffffffffffffffffffffffffffffffffffffffff16906020019092919080359060200190929190803560ff169060200190929190505050611f06565b005b3480156107d057600080fd5b5061083d600480360360608110156107e757600080fd5b81019080803573ffffffffffffffffffffffffffffffffffffffff169060200190929190803573ffffffffffffffffffffffffffffffffffffffff16906020019092919080359060200190929190505050611fc9565b604051808215151515815260200191505060405180910390f35b34801561086357600080fd5b506108a66004803603602081101561087a57600080fd5b81019080803573ffffffffffffffffffffffffffffffffffffffff1690602001909291905050506122ff565b6040518082815260200191505060405180910390f35b3480156108c857600080fd5b506108f5600480360360208110156108df57600080fd5b8101908080359060200190929190505050612348565b005b34801561090357600080fd5b5061090c6123e7565b604051808260ff1660ff16815260200191505060405180910390f35b34801561093457600080fd5b506109776004803603602081101561094b57600080fd5b81019080803573ffffffffffffffffffffffffffffffffffffffff1690602001909291905050506123fa565b6040518082815260200191505060405180910390f35b34801561099957600080fd5b506109a2612443565b6040518082815260200191505060405180910390f35b3480156109c457600080fd5b506109cd612449565b6040518082815260200191505060405180910390f35b3480156109ef57600080fd5b506109f861244f565b604051808215151515815260200191505060405180910390f35b348015610a1e57600080fd5b50610a4b60048036036020811015610a3557600080fd5b8101908080359060200190929190505050612514565b604051808215151515815260200191505060405180910390f35b348015610a7157600080fd5b50610a9e60048036036020811015610a8857600080fd5b810190808035906020019092919050505061268f565b005b610aa86127d5565b005b348015610ab657600080fd5b50610abf612811565b604051808215151515815260200191505060405180910390f35b348015610ae557600080fd5b50610aee612824565b6040518080602001828103825283818151815260200191508051906020019080838360005b83811015610b2e578082015181840152602081019050610b13565b50505050905090810190601f168015610b5b5780820380516001836020036101000a031916815260200191505b509250505060405180910390f35b348015610b7557600080fd5b50610bb860048036036020811015610b8c57600080fd5b81019080803573ffffffffffffffffffffffffffffffffffffffff1690602001909291905050506128c2565b6040518082815260200191505060405180910390f35b348015610bda57600080fd5b50610c1d60048036036020811015610bf157600080fd5b81019080803573ffffffffffffffffffffffffffffffffffffffff1690602001909291905050506128da565b6040518082815260200191505060405180910390f35b348015610c3f57600080fd5b50610c8c60048036036040811015610c5657600080fd5b81019080803573ffffffffffffffffffffffffffffffffffffffff16906020019092919080359060200190929190505050612923565b6040518082815260200191505060405180910390f35b348015610cae57600080fd5b50610cb7612992565b6040518082815260200191505060405180910390f35b348015610cd957600080fd5b50610d2660048036036040811015610cf057600080fd5b81019080803573ffffffffffffffffffffffffffffffffffffffff16906020019092919080359060200190929190505050612998565b005b348015610d3457600080fd5b50610d8160048036036040811015610d4b57600080fd5b81019080803573ffffffffffffffffffffffffffffffffffffffff16906020019092919080359060200190929190505050612b3b565b604051808215151515815260200191505060405180910390f35b348015610da757600080fd5b50610db0612cb7565b6040518080602001828103825283818151815260200191508051906020019080838360005b83811015610df0578082015181840152602081019050610dd5565b50505050905090810190601f168015610e1d5780820380516001836020036101000a031916815260200191505b509250505060405180910390f35b348015610e3757600080fd5b50610ea460048036036060811015610e4e57600080fd5b81019080803573ffffffffffffffffffffffffffffffffffffffff169060200190929190803573ffffffffffffffffffffffffffffffffffffffff16906020019092919080359060200190929190505050612d55565b005b348015610eb257600080fd5b50610eff60048036036040811015610ec957600080fd5b81019080803573ffffffffffffffffffffffffffffffffffffffff16906020019092919080359060200190929190505050612daf565b604051808273ffffffffffffffffffffffffffffffffffffffff1673ffffffffffffffffffffffffffffffffffffffff16815260200191505060405180910390f35b348015610f4d57600080fd5b50610f9060048036036020811015610f6457600080fd5b81019080803573ffffffffffffffffffffffffffffffffffffffff169060200190929190505050612dfc565b604051808215151515815260200191505060405180910390f35b348015610fb657600080fd5b50610fbf612e52565b604051808215151515815260200191505060405180910390f35b348015610fe557600080fd5b50610fee612f19565b6040518082815260200191505060405180910390f35b34801561101057600080fd5b50611019612f38565b604051808273ffffffffffffffffffffffffffffffffffffffff1673ffffffffffffffffffffffffffffffffffffffff16815260200191505060405180910390f35b34801561106757600080fd5b5061109e6004803603604081101561107e57600080fd5b810190808035906020019092919080359060200190929190505050612f5d565b005b3480156110ac57600080fd5b506110b5612fe6565b6040518080602001828103825283818151815260200191508051906020019080838360005b838110156110f55780820151818401526020810190506110da565b50505050905090810190601f1680156111225780820380516001836020036101000a031916815260200191505b509250505060405180910390f35b34801561113c57600080fd5b506111a96004803603606081101561115357600080fd5b81019080803573ffffffffffffffffffffffffffffffffffffffff16906020019092919080359060200190929190803573ffffffffffffffffffffffffffffffffffffffff169060200190929190505050613084565b005b3480156111b757600080fd5b506111e4600480360360208110156111ce57600080fd5b81019080803590602001909291905050506131e3565b005b3480156111f257600080fd5b5061121f6004803603602081101561120957600080fd5b810190808035906020019092919050505061341c565b005b34801561122d57600080fd5b506112e46004803603602081101561124457600080fd5b810190808035906020019064010000000081111561126157600080fd5b82018360208201111561127357600080fd5b8035906020019184602083028401116401000000008311171561129557600080fd5b919080806020026020016040519081016040528093929190818152602001838360200280828437600081840152601f19601f8201169050808301925050505050505091929192905050506135c7565b005b3480156112f257600080fd5b5061133f6004803603604081101561130957600080fd5b81019080803573ffffffffffffffffffffffffffffffffffffffff1690602001909291908035906020019092919050505061361e565b604051808215151515815260200191505060405180910390f35b34801561136557600080fd5b506113a86004803603602081101561137c57600080fd5b81019080803573ffffffffffffffffffffffffffffffffffffffff16906020019092919050505061365f565b604051808215151515815260200191505060405180910390f35b3480156113ce57600080fd5b50611435600480360360808110156113e557600080fd5b81019080803573ffffffffffffffffffffffffffffffffffffffff169060200190929190803560ff16906020019092919080359060200190929190803560ff16906020019092919050505061367f565b6040518082815260200191505060405180910390f35b611453613889565b005b34801561146157600080fd5b50611602600480360361010081101561147957600080fd5b8101908080359060200190929190803590602001906401000000008111156114a057600080fd5b8201836020820111156114b257600080fd5b803590602001918460018302840111640100000000831117156114d457600080fd5b91908080601f016020809104026020016040519081016040528093929190818152602001838380828437600081840152601f19601f8201169050808301925050505050505091929192908035906020019064010000000081111561153757600080fd5b82018360208201111561154957600080fd5b8035906020019184600183028401116401000000008311171561156b57600080fd5b91908080601f016020809104026020016040519081016040528093929190818152602001838380828437600081840152601f19601f82011690508083019250505050505050919291929080359060200190929190803563ffffffff169060200190929190803560ff169060200190929190803567ffffffffffffffff169060200190929190803590602001909291905050506138a7565b604051808381526020018281526020019250505060405180910390f35b34801561162b57600080fd5b5061166e6004803603602081101561164257600080fd5b81019080803573ffffffffffffffffffffffffffffffffffffffff169060200190929190505050613c34565b6040518082815260200191505060405180910390f35b34801561169057600080fd5b506116f3600480360360408110156116a757600080fd5b81019080803573ffffffffffffffffffffffffffffffffffffffff169060200190929190803573ffffffffffffffffffffffffffffffffffffffff169060200190929190505050613c7d565b6040518082815260200191505060405180910390f35b34801561171557600080fd5b506117646004803603604081101561172c57600080fd5b81019080803573ffffffffffffffffffffffffffffffffffffffff169060200190929190803515159060200190929190505050613d04565b005b34801561177257600080fd5b506118606004803603608081101561178957600080fd5b81019080803573ffffffffffffffffffffffffffffffffffffffff169060200190929190803590602001906401000000008111156117c657600080fd5b8201836020820111156117d857600080fd5b803590602001918460208302840111640100000000831117156117fa57600080fd5b919080806020026020016040519081016040528093929190818152602001838360200280828437600081840152601f19601f82011690508083019250505050505050919291929080359060200190929190803560ff169060200190929190505050613e45565b005b34801561186e57600080fd5b50611877613fcf565b005b34801561188557600080fd5b506118c86004803603602081101561189c57600080fd5b81019080803573ffffffffffffffffffffffffffffffffffffffff1690602001909291905050506140d0565b005b3480156118d657600080fd5b506118df6141aa565b6040518082815260200191505060405180910390f35b34801561190157600080fd5b5061194e6004803603604081101561191857600080fd5b81019080803573ffffffffffffffffffffffffffffffffffffffff169060200190929190803590602001909291905050506141b0565b604051808215151515815260200191505060405180910390f35b34801561197457600080fd5b506119a16004803603602081101561198b57600080fd5b810190808035906020019092919050505061423a565b005b60085481565b600060149054906101000a900460ff161515156119c557600080fd5b80825102601d819055506119da601d54614403565b6018819055506119ed3084601854614465565b60008090505b8251811015611a6b57611a1e8382815181101515611a0d57fe5b906020019060200201516001614734565b611a3e8382815181101515611a2f57fe5b9060200190602002015161486a565b611a5e8382815181101515611a4f57fe5b90602001906020020151614de6565b80806001019150506119f3565b50505050565b600030905090565b6000809054906101000a900473ffffffffffffffffffffffffffffffffffffffff1673ffffffffffffffffffffffffffffffffffffffff163373ffffffffffffffffffffffffffffffffffffffff16141515611ad457600080fd5b600060149054906101000a900460ff16151515611af057600080fd5b8082111515611b085781600781905550806008819055505b5050565b60018054600181600116156101000203166002900480601f016020809104026020016040519081016040528092919081815260200182805460018160011615610100020316600290048015611ba25780601f10611b7757610100808354040283529160200191611ba2565b820191906000526020600020905b815481529060010190602001808311611b8557829003601f168201915b505050505081565b60008060009054906101000a900473ffffffffffffffffffffffffffffffffffffffff1673ffffffffffffffffffffffffffffffffffffffff163373ffffffffffffffffffffffffffffffffffffffff16141515611c0757600080fd5b600060149054906101000a900460ff16151515611c2357600080fd5b81600660008060009054906101000a900473ffffffffffffffffffffffffffffffffffffffff1673ffffffffffffffffffffffffffffffffffffffff1673ffffffffffffffffffffffffffffffffffffffff16815260200190815260200160002060008573ffffffffffffffffffffffffffffffffffffffff1673ffffffffffffffffffffffffffffffffffffffff168152602001908152602001600020819055506001905092915050565b6000602060008373ffffffffffffffffffffffffffffffffffffffff1673ffffffffffffffffffffffffffffffffffffffff168152602001908152602001600020549050919050565b6000602782815481101515611d2957fe5b906000526020600020906004020160000160009054906101000a900473ffffffffffffffffffffffffffffffffffffffff1673ffffffffffffffffffffffffffffffffffffffff168373ffffffffffffffffffffffffffffffffffffffff161415611d975760019050611d9c565b600090505b92915050565b600060149054906101000a900460ff16151515611dbe57600080fd5b600d60008273ffffffffffffffffffffffffffffffffffffffff1673ffffffffffffffffffffffffffffffffffffffff16815260200190815260200160002060009054906101000a900460ff16151515611e1757600080fd5b818302601d81905550611e2b601d54614403565b601881905550611e3e8130601854614465565b7f4656763aeb5076063b1b9201e728e03b650c4e545b46330125af5d01c01fae56816001604051808373ffffffffffffffffffffffffffffffffffffffff1673ffffffffffffffffffffffffffffffffffffffff168152602001821515151581526020019250505060405180910390a1505050565b6000602160008373ffffffffffffffffffffffffffffffffffffffff1673ffffffffffffffffffffffffffffffffffffffff168152602001908152602001600020549050919050565b6000600454905090565b600060149054906101000a900460ff16151515611f2257600080fd5b611f2b82615365565b601981905550611f3b82846153c7565b601960008282540192505081905550611f573084601954614465565b611f6282858361573f565b601581905550611f753085601554614465565b611f7f8483615ab9565b611f898383615b33565b611f938483615bad565b611f9d8383615c1a565b611fa8836002614734565b611fb183614de6565b611fba8361486a565b611fc384615c87565b50505050565b60008060009054906101000a900473ffffffffffffffffffffffffffffffffffffffff1673ffffffffffffffffffffffffffffffffffffffff163373ffffffffffffffffffffffffffffffffffffffff1614151561202657600080fd5b600060149054906101000a900460ff1615151561204257600080fd5b600660008060009054906101000a900473ffffffffffffffffffffffffffffffffffffffff1673ffffffffffffffffffffffffffffffffffffffff1673ffffffffffffffffffffffffffffffffffffffff16815260200190815260200160002060008573ffffffffffffffffffffffffffffffffffffffff1673ffffffffffffffffffffffffffffffffffffffff168152602001908152602001600020548211158061218b57506000600660008060009054906101000a900473ffffffffffffffffffffffffffffffffffffffff1673ffffffffffffffffffffffffffffffffffffffff1673ffffffffffffffffffffffffffffffffffffffff16815260200190815260200160002060008673ffffffffffffffffffffffffffffffffffffffff1673ffffffffffffffffffffffffffffffffffffffff16815260200190815260200160002054145b151561219657600080fd5b6000600660008060009054906101000a900473ffffffffffffffffffffffffffffffffffffffff1673ffffffffffffffffffffffffffffffffffffffff1673ffffffffffffffffffffffffffffffffffffffff16815260200190815260200160002060008673ffffffffffffffffffffffffffffffffffffffff1673ffffffffffffffffffffffffffffffffffffffff168152602001908152602001600020541415156122e95781600660008060009054906101000a900473ffffffffffffffffffffffffffffffffffffffff1673ffffffffffffffffffffffffffffffffffffffff1673ffffffffffffffffffffffffffffffffffffffff16815260200190815260200160002060008673ffffffffffffffffffffffffffffffffffffffff1673ffffffffffffffffffffffffffffffffffffffff168152602001908152602001600020600082825403925050819055505b6122f4848484614465565b600190509392505050565b6000601f60008373ffffffffffffffffffffffffffffffffffffffff1673ffffffffffffffffffffffffffffffffffffffff168152602001908152602001600020549050919050565b600060149054906101000a900460ff1615151561236457600080fd5b60075481023073ffffffffffffffffffffffffffffffffffffffff16311015151561238e57600080fd5b612399333083614465565b3373ffffffffffffffffffffffffffffffffffffffff166108fc60075483029081150290604051600060405180830381858888f193505050501580156123e3573d6000803e3d6000fd5b5050565b600360009054906101000a900460ff1681565b6000602460008373ffffffffffffffffffffffffffffffffffffffff1673ffffffffffffffffffffffffffffffffffffffff168152602001908152602001600020549050919050565b60095481565b60045481565b60008060009054906101000a900473ffffffffffffffffffffffffffffffffffffffff1673ffffffffffffffffffffffffffffffffffffffff163373ffffffffffffffffffffffffffffffffffffffff161415156124ac57600080fd5b600060149054906101000a900460ff1615156124c757600080fd5b60008060146101000a81548160ff0219169083151502179055507f7805862f689e2f13df9f062ff482ad3ad112aca9e0847911ed832e158c525b3360405160405180910390a16001905090565b60008060009054906101000a900473ffffffffffffffffffffffffffffffffffffffff1673ffffffffffffffffffffffffffffffffffffffff163373ffffffffffffffffffffffffffffffffffffffff1614151561257157600080fd5b600060149054906101000a900460ff1615151561258d57600080fd5b81600560003073ffffffffffffffffffffffffffffffffffffffff1673ffffffffffffffffffffffffffffffffffffffff16815260200190815260200160002054101515156125db57600080fd5b81600560003073ffffffffffffffffffffffffffffffffffffffff1673ffffffffffffffffffffffffffffffffffffffff16815260200190815260200160002060008282540392505081905550816004600082825403925050819055503073ffffffffffffffffffffffffffffffffffffffff167fcc16f5dbb4873280815c1ee09dbd06736cffcc184412cf7a71a0fdb75d397ca5836040518082815260200191505060405180910390a260019050919050565b803373ffffffffffffffffffffffffffffffffffffffff16602660009054906101000a900473ffffffffffffffffffffffffffffffffffffffff1673ffffffffffffffffffffffffffffffffffffffff161415156126ec57600080fd5b6027818154811015156126fb57fe5b906000526020600020906004020160010160159054906101000a900460ff1615151561272657600080fd5b6127d160278381548110151561273857fe5b906000526020600020906004020160000160009054906101000a900473ffffffffffffffffffffffffffffffffffffffff1660278481548110151561277957fe5b906000526020600020906004020160010160009054906101000a900473ffffffffffffffffffffffffffffffffffffffff166027858154811015156127ba57fe5b906000526020600020906004020160020154612d55565b5050565b600060149054906101000a900460ff161515156127f157600080fd5b60006008543481151561280057fe5b04905061280e303383614465565b50565b600060149054906101000a900460ff1681565b600a8054600181600116156101000203166002900480601f0160208091040260200160405190810160405280929190818152602001828054600181600116156101000203166002900480156128ba5780601f1061288f576101008083540402835291602001916128ba565b820191906000526020600020905b81548152906001019060200180831161289d57829003601f168201915b505050505081565b60056020528060005260406000206000915090505481565b6000600560008373ffffffffffffffffffffffffffffffffffffffff1673ffffffffffffffffffffffffffffffffffffffff168152602001908152602001600020549050919050565b6000602260008473ffffffffffffffffffffffffffffffffffffffff1673ffffffffffffffffffffffffffffffffffffffff1681526020019081526020016000208260038110151561297157fe5b602091828204019190069054906101000a900460ff1660ff16905092915050565b60075481565b6000809054906101000a900473ffffffffffffffffffffffffffffffffffffffff1673ffffffffffffffffffffffffffffffffffffffff163373ffffffffffffffffffffffffffffffffffffffff161415156129f357600080fd5b600060149054906101000a900460ff16151515612a0f57600080fd5b80600560008473ffffffffffffffffffffffffffffffffffffffff1673ffffffffffffffffffffffffffffffffffffffff16815260200190815260200160002060008282540192505081905550806004600082825401925050819055503073ffffffffffffffffffffffffffffffffffffffff16600073ffffffffffffffffffffffffffffffffffffffff167fddf252ad1be2c89b69c2b068fc378daa952ba7f163c4a11628f55a4df523b3ef836040518082815260200191505060405180910390a38173ffffffffffffffffffffffffffffffffffffffff163073ffffffffffffffffffffffffffffffffffffffff167fddf252ad1be2c89b69c2b068fc378daa952ba7f163c4a11628f55a4df523b3ef836040518082815260200191505060405180910390a35050565b60008060009054906101000a900473ffffffffffffffffffffffffffffffffffffffff1673ffffffffffffffffffffffffffffffffffffffff163373ffffffffffffffffffffffffffffffffffffffff16141515612b9857600080fd5b600060149054906101000a900460ff16151515612bb457600080fd5b81600560008573ffffffffffffffffffffffffffffffffffffffff1673ffffffffffffffffffffffffffffffffffffffff1681526020019081526020016000205410151515612c0257600080fd5b81600560008573ffffffffffffffffffffffffffffffffffffffff1673ffffffffffffffffffffffffffffffffffffffff16815260200190815260200160002060008282540392505081905550816004600082825403925050819055508273ffffffffffffffffffffffffffffffffffffffff167fcc16f5dbb4873280815c1ee09dbd06736cffcc184412cf7a71a0fdb75d397ca5836040518082815260200191505060405180910390a26001905092915050565b600b8054600181600116156101000203166002900480601f016020809104026020016040519081016040528092919081815260200182805460018160011615610100020316600290048015612d4d5780601f10612d2257610100808354040283529160200191612d4d565b820191906000526020600020905b815481529060010190602001808311612d3057829003601f168201915b505050505081565b600060149054906101000a900460ff16151515612d7157600080fd5b612d7a81614403565b601881905550612d8d3084601854614465565b612d98826001614734565b612da18261486a565b612daa82614de6565b505050565b602560205281600052604060002081815481101515612dca57fe5b906000526020600020016000915091509054906101000a900473ffffffffffffffffffffffffffffffffffffffff1681565b6000600d60008373ffffffffffffffffffffffffffffffffffffffff1673ffffffffffffffffffffffffffffffffffffffff16815260200190815260200160002060009054906101000a900460ff169050919050565b60008060009054906101000a900473ffffffffffffffffffffffffffffffffffffffff1673ffffffffffffffffffffffffffffffffffffffff163373ffffffffffffffffffffffffffffffffffffffff16141515612eaf57600080fd5b600060149054906101000a900460ff16151515612ecb57600080fd5b6001600060146101000a81548160ff0219169083151502179055507f6985a02210a168e66602d3235cb6db0e70f92b3ba4d376a33c0f3d9434bff62560405160405180910390a16001905090565b60003073ffffffffffffffffffffffffffffffffffffffff1631905090565b6000809054906101000a900473ffffffffffffffffffffffffffffffffffffffff1681565b6000809054906101000a900473ffffffffffffffffffffffffffffffffffffffff1673ffffffffffffffffffffffffffffffffffffffff163373ffffffffffffffffffffffffffffffffffffffff16141515612fb857600080fd5b600060149054906101000a900460ff16151515612fd457600080fd5b81601b8190555080601c819055505050565b60028054600181600116156101000203166002900480601f01602080910402602001604051908101604052809291908181526020018280546001816001161561010002031660029004801561307c5780601f106130515761010080835404028352916020019161307c565b820191906000526020600020905b81548152906001019060200180831161305f57829003601f168201915b505050505081565b600060149054906101000a900460ff161515156130a057600080fd5b600d60008273ffffffffffffffffffffffffffffffffffffffff1673ffffffffffffffffffffffffffffffffffffffff16815260200190815260200160002060009054906101000a900460ff161515156130f957600080fd5b600d60008473ffffffffffffffffffffffffffffffffffffffff1673ffffffffffffffffffffffffffffffffffffffff16815260200190815260200160002060009054906101000a900460ff1615151561315257600080fd5b61315b82614403565b60188190555061316e8130601854614465565b7f4656763aeb5076063b1b9201e728e03b650c4e545b46330125af5d01c01fae56816001604051808373ffffffffffffffffffffffffffffffffffffffff1673ffffffffffffffffffffffffffffffffffffffff168152602001821515151581526020019250505060405180910390a1505050565b803373ffffffffffffffffffffffffffffffffffffffff16602660009054906101000a900473ffffffffffffffffffffffffffffffffffffffff1673ffffffffffffffffffffffffffffffffffffffff1614151561324057600080fd5b60288181548110151561324f57fe5b906000526020600020906007020160030160009054906101000a900460ff1615151561327a57600080fd5b61339633602560003373ffffffffffffffffffffffffffffffffffffffff1673ffffffffffffffffffffffffffffffffffffffff16815260200190815260200160002080548060200260200160405190810160405280929190818152602001828054801561333d57602002820191906000526020600020905b8160009054906101000a900473ffffffffffffffffffffffffffffffffffffffff1673ffffffffffffffffffffffffffffffffffffffff16815260200190600101908083116132f3575b505050505060288581548110151561335157fe5b90600052602060002090600702016004015460288681548110151561337257fe5b906000526020600020906007020160050160049054906101000a900460ff16613e45565b602560003373ffffffffffffffffffffffffffffffffffffffff1673ffffffffffffffffffffffffffffffffffffffff16815260200190815260200160002060006133e1919061640d565b7f8b83e47b1af3f949d67804a4ab493fded8198468172c75006b4c7da507345c74826040518082815260200191505060405180910390a15050565b803373ffffffffffffffffffffffffffffffffffffffff16602660009054906101000a900473ffffffffffffffffffffffffffffffffffffffff1673ffffffffffffffffffffffffffffffffffffffff1614151561347957600080fd5b60278181548110151561348857fe5b906000526020600020906004020160010160159054906101000a900460ff161515156134b357600080fd5b61358c6027838154811015156134c557fe5b906000526020600020906004020160000160009054906101000a900473ffffffffffffffffffffffffffffffffffffffff1660278481548110151561350657fe5b906000526020600020906004020160010160009054906101000a900473ffffffffffffffffffffffffffffffffffffffff1660278581548110151561354757fe5b90600052602060002090600402016002015460278681548110151561356857fe5b906000526020600020906004020160030160009054906101000a900460ff16611f06565b7f801be060160611f44999389892b6b79359677ff2d431948a5c8b5a80e14a1ff8826040518082815260200191505060405180910390a15050565b80602560003373ffffffffffffffffffffffffffffffffffffffff1673ffffffffffffffffffffffffffffffffffffffff168152602001908152602001600020908051906020019061361a92919061642e565b5050565b60008060149054906101000a900460ff1615151561363b57600080fd5b6044600036905014151561364e57600080fd5b613659338484614465565b92915050565b600d6020528060005260406000206000915054906101000a900460ff1681565b6000338380600560008473ffffffffffffffffffffffffffffffffffffffff1673ffffffffffffffffffffffffffffffffffffffff168152602001908152602001600020541115156136d057600080fd5b6136d86164b8565b60c0604051908101604052803373ffffffffffffffffffffffffffffffffffffffff1681526020018973ffffffffffffffffffffffffffffffffffffffff1681526020018860ff1681526020016000151581526020018781526020018660ff1681525090506027819080600181540180825580915050906001820390600052602060002090600402016000909192909190915060008201518160000160006101000a81548173ffffffffffffffffffffffffffffffffffffffff021916908373ffffffffffffffffffffffffffffffffffffffff16021790555060208201518160010160006101000a81548173ffffffffffffffffffffffffffffffffffffffff021916908373ffffffffffffffffffffffffffffffffffffffff16021790555060408201518160010160146101000a81548160ff021916908360ff16021790555060608201518160010160156101000a81548160ff0219169083151502179055506080820151816002015560a08201518160030160006101000a81548160ff021916908360ff16021790555050505061387333878a613084565b6001602780549050039350505050949350505050565b600060149054906101000a900460ff161515156138a557600080fd5b565b6000803387878063ffffffff168202600560008573ffffffffffffffffffffffffffffffffffffffff1673ffffffffffffffffffffffffffffffffffffffff1681526020019081526020016000205411151561390257600080fd5b61390a616523565b610120604051908101604052803373ffffffffffffffffffffffffffffffffffffffff1681526020018d81526020018e81526020016000151581526020018c81526020018b63ffffffff1681526020018a60ff1681526020018967ffffffffffffffff1681526020018881525090506028819080600181540180825580915050906001820390600052602060002090600702016000909192909190915060008201518160000160006101000a81548173ffffffffffffffffffffffffffffffffffffffff021916908373ffffffffffffffffffffffffffffffffffffffff1602179055506020820151816001019080519060200190613a0a92919061659b565b506040820151816002019080519060200190613a2792919061659b565b5060608201518160030160006101000a81548160ff0219169083151502179055506080820151816004015560a08201518160050160006101000a81548163ffffffff021916908363ffffffff16021790555060c08201518160050160046101000a81548160ff021916908360ff16021790555060e08201518160050160056101000a81548167ffffffffffffffff021916908367ffffffffffffffff1602179055506101008201518160060155505050613ae88a63ffffffff168c33611da2565b7f1a32be2704981bde44de8613f56d25e84735c7435c934716c334b2cb00335b1c878e8e8b6040518085815260200180602001806020018467ffffffffffffffff1667ffffffffffffffff168152602001838103835286818151815260200191508051906020019080838360005b83811015613b71578082015181840152602081019050613b56565b50505050905090810190601f168015613b9e5780820380516001836020036101000a031916815260200191505b50838103825285818151815260200191508051906020019080838360005b83811015613bd7578082015181840152602081019050613bbc565b50505050905090810190601f168015613c045780820380516001836020036101000a031916815260200191505b50965050505050505060405180910390a16001602880549050038e95509550505050509850989650505050505050565b6000602360008373ffffffffffffffffffffffffffffffffffffffff1673ffffffffffffffffffffffffffffffffffffffff168152602001908152602001600020549050919050565b6000600660008473ffffffffffffffffffffffffffffffffffffffff1673ffffffffffffffffffffffffffffffffffffffff16815260200190815260200160002060008373ffffffffffffffffffffffffffffffffffffffff1673ffffffffffffffffffffffffffffffffffffffff16815260200190815260200160002054905092915050565b6000809054906101000a900473ffffffffffffffffffffffffffffffffffffffff1673ffffffffffffffffffffffffffffffffffffffff163373ffffffffffffffffffffffffffffffffffffffff16141515613d5f57600080fd5b600060149054906101000a900460ff16151515613d7b57600080fd5b80600d60008473ffffffffffffffffffffffffffffffffffffffff1673ffffffffffffffffffffffffffffffffffffffff16815260200190815260200160002060006101000a81548160ff0219169083151502179055507f48335238b4855f35377ed80f164e8c6f3c366e54ac00b96a6402d4a9814a03a58282604051808373ffffffffffffffffffffffffffffffffffffffff1673ffffffffffffffffffffffffffffffffffffffff168152602001821515151581526020019250505060405180910390a15050565b600060149054906101000a900460ff16151515613e6157600080fd5b60008090505b8351811015613f8457613e7983615365565b601981905550613ea0838583815181101515613e9157fe5b906020019060200201516153c7565b601960008282540192505081905550613ed3308583815181101515613ec157fe5b90602001906020020151601954614465565b613ef48482815181101515613ee457fe5b9060200190602002015184615b33565b613f158482815181101515613f0557fe5b9060200190602002015184615c1a565b613f378482815181101515613f2657fe5b906020019060200201516002614734565b613f578482815181101515613f4857fe5b90602001906020020151614de6565b613f778482815181101515613f6857fe5b9060200190602002015161486a565b8080600101915050613e67565b50613f9383518302858361573f565b601581905550613fa63085601554614465565b613fb38484518402615ab9565b613fc08484518402615bad565b613fc984615c87565b50505050565b6000809054906101000a900473ffffffffffffffffffffffffffffffffffffffff1673ffffffffffffffffffffffffffffffffffffffff163373ffffffffffffffffffffffffffffffffffffffff1614151561402a57600080fd5b600060149054906101000a900460ff1615151561404657600080fd5b3073ffffffffffffffffffffffffffffffffffffffff1631600c819055506000809054906101000a900473ffffffffffffffffffffffffffffffffffffffff1673ffffffffffffffffffffffffffffffffffffffff166108fc600c549081150290604051600060405180830381858888f193505050501580156140cd573d6000803e3d6000fd5b50565b6000809054906101000a900473ffffffffffffffffffffffffffffffffffffffff1673ffffffffffffffffffffffffffffffffffffffff163373ffffffffffffffffffffffffffffffffffffffff1614151561412b57600080fd5b600073ffffffffffffffffffffffffffffffffffffffff168173ffffffffffffffffffffffffffffffffffffffff161415151561416757600080fd5b806000806101000a81548173ffffffffffffffffffffffffffffffffffffffff021916908373ffffffffffffffffffffffffffffffffffffffff16021790555050565b600c5481565b60006028828154811015156141c157fe5b906000526020600020906007020160000160009054906101000a900473ffffffffffffffffffffffffffffffffffffffff1673ffffffffffffffffffffffffffffffffffffffff168373ffffffffffffffffffffffffffffffffffffffff16141561422f5760019050614234565b600090505b92915050565b803373ffffffffffffffffffffffffffffffffffffffff16602660009054906101000a900473ffffffffffffffffffffffffffffffffffffffff1673ffffffffffffffffffffffffffffffffffffffff1614151561429757600080fd5b6028818154811015156142a657fe5b906000526020600020906007020160030160009054906101000a900460ff161515156142d157600080fd5b6143ff6028838154811015156142e357fe5b906000526020600020906007020160000160009054906101000a900473ffffffffffffffffffffffffffffffffffffffff16602560003373ffffffffffffffffffffffffffffffffffffffff1673ffffffffffffffffffffffffffffffffffffffff1681526020019081526020016000208054806020026020016040519081016040528092919081815260200182805480156143d457602002820191906000526020600020905b8160009054906101000a900473ffffffffffffffffffffffffffffffffffffffff1673ffffffffffffffffffffffffffffffffffffffff168152602001906001019080831161438a575b50505050506028858154811015156143e857fe5b9060005260206000209060070201600401546119a9565b5050565b60008060149054906101000a900460ff1615151561442057600080fd5b601b548281151561442d57fe5b04601781905550600060175414151561445057816017540160188190555061445b565b816001016018819055505b6018549050919050565b600073ffffffffffffffffffffffffffffffffffffffff168273ffffffffffffffffffffffffffffffffffffffff16141515156144a157600080fd5b80600560008573ffffffffffffffffffffffffffffffffffffffff1673ffffffffffffffffffffffffffffffffffffffff16815260200190815260200160002054101515156144ef57600080fd5b600560008373ffffffffffffffffffffffffffffffffffffffff1673ffffffffffffffffffffffffffffffffffffffff1681526020019081526020016000205481600560008573ffffffffffffffffffffffffffffffffffffffff1673ffffffffffffffffffffffffffffffffffffffff16815260200190815260200160002054011015151561457e57600080fd5b600d60008473ffffffffffffffffffffffffffffffffffffffff1673ffffffffffffffffffffffffffffffffffffffff16815260200190815260200160002060009054906101000a900460ff161515156145d757600080fd5b600d60008373ffffffffffffffffffffffffffffffffffffffff1673ffffffffffffffffffffffffffffffffffffffff16815260200190815260200160002060009054906101000a900460ff1615151561463057600080fd5b80600560008573ffffffffffffffffffffffffffffffffffffffff1673ffffffffffffffffffffffffffffffffffffffff1681526020019081526020016000206000828254039250508190555080600560008473ffffffffffffffffffffffffffffffffffffffff1673ffffffffffffffffffffffffffffffffffffffff168152602001908152602001600020600082825401925050819055508173ffffffffffffffffffffffffffffffffffffffff168373ffffffffffffffffffffffffffffffffffffffff167fddf252ad1be2c89b69c2b068fc378daa952ba7f163c4a11628f55a4df523b3ef836040518082815260200191505060405180910390a3505050565b600060149054906101000a900460ff1615151561475057600080fd5b60018114156147db576001602260008473ffffffffffffffffffffffffffffffffffffffff1673ffffffffffffffffffffffffffffffffffffffff16815260200190815260200160002060016003811015156147a857fe5b602091828204019190068282829054906101000a900460ff160192506101000a81548160ff021916908360ff1602179055505b6002811415614866576001602260008473ffffffffffffffffffffffffffffffffffffffff1673ffffffffffffffffffffffffffffffffffffffff168152602001908152602001600020600260038110151561483357fe5b602091828204019190068282829054906101000a900460ff160192506101000a81548160ff021916908360ff1602179055505b5050565b600060149054906101000a900460ff1615151561488657600080fd5b600a602260008373ffffffffffffffffffffffffffffffffffffffff1673ffffffffffffffffffffffffffffffffffffffff16815260200190815260200160002060016003811015156148d557fe5b602091828204019190069054906101000a900460ff1660ff161415614b32576000602260008373ffffffffffffffffffffffffffffffffffffffff1673ffffffffffffffffffffffffffffffffffffffff168152602001908152602001600020600060038110151561494357fe5b602091828204019190069054906101000a900460ff1660ff161115614a53576001602260008373ffffffffffffffffffffffffffffffffffffffff1673ffffffffffffffffffffffffffffffffffffffff16815260200190815260200160002060006003811015156149b157fe5b602091828204019190068282829054906101000a900460ff160392506101000a81548160ff021916908360ff1602179055506000602260008373ffffffffffffffffffffffffffffffffffffffff1673ffffffffffffffffffffffffffffffffffffffff1681526020019081526020016000206001600381101515614a3257fe5b602091828204019190066101000a81548160ff021916908360ff1602179055505b6000602260008373ffffffffffffffffffffffffffffffffffffffff1673ffffffffffffffffffffffffffffffffffffffff1681526020019081526020016000206000600381101515614aa257fe5b602091828204019190069054906101000a900460ff1660ff161415614b31576000602260008373ffffffffffffffffffffffffffffffffffffffff1673ffffffffffffffffffffffffffffffffffffffff1681526020019081526020016000206000600381101515614b1057fe5b602091828204019190066101000a81548160ff021916908360ff1602179055505b5b600a602260008373ffffffffffffffffffffffffffffffffffffffff1673ffffffffffffffffffffffffffffffffffffffff1681526020019081526020016000206001600381101515614b8157fe5b602091828204019190069054906101000a900460ff1660ff161115614de357600a602260008373ffffffffffffffffffffffffffffffffffffffff1673ffffffffffffffffffffffffffffffffffffffff1681526020019081526020016000206001600381101515614bef57fe5b602091828204019190069054906101000a900460ff1660ff16811515614c1157fe5b04601e60006101000a81548160ff021916908360ff160217905550614ca7601e60009054906101000a900460ff16602260008473ffffffffffffffffffffffffffffffffffffffff1673ffffffffffffffffffffffffffffffffffffffff1681526020019081526020016000206000600381101515614c8c57fe5b602091828204019190069054906101000a900460ff16615cea565b601e60016101000a81548160ff021916908360ff160217905550601e60019054906101000a900460ff16602260008373ffffffffffffffffffffffffffffffffffffffff1673ffffffffffffffffffffffffffffffffffffffff1681526020019081526020016000206000600381101515614d1e57fe5b602091828204019190068282829054906101000a900460ff160392506101000a81548160ff021916908360ff160217905550600a601e60019054906101000a900460ff1602602260008373ffffffffffffffffffffffffffffffffffffffff1673ffffffffffffffffffffffffffffffffffffffff1681526020019081526020016000206001600381101515614db057fe5b602091828204019190068282829054906101000a900460ff160392506101000a81548160ff021916908360ff1602179055505b50565b600060149054906101000a900460ff16151515614e0257600080fd5b6032602260008373ffffffffffffffffffffffffffffffffffffffff1673ffffffffffffffffffffffffffffffffffffffff1681526020019081526020016000206002600381101515614e5157fe5b602091828204019190069054906101000a900460ff1660ff1614156150ae57601e602260008373ffffffffffffffffffffffffffffffffffffffff1673ffffffffffffffffffffffffffffffffffffffff1681526020019081526020016000206000600381101515614ebf57fe5b602091828204019190069054906101000a900460ff1660ff161015614fcf576001602260008373ffffffffffffffffffffffffffffffffffffffff1673ffffffffffffffffffffffffffffffffffffffff1681526020019081526020016000206000600381101515614f2d57fe5b602091828204019190068282829054906101000a900460ff160192506101000a81548160ff021916908360ff1602179055506000602260008373ffffffffffffffffffffffffffffffffffffffff1673ffffffffffffffffffffffffffffffffffffffff1681526020019081526020016000206002600381101515614fae57fe5b602091828204019190066101000a81548160ff021916908360ff1602179055505b601e602260008373ffffffffffffffffffffffffffffffffffffffff1673ffffffffffffffffffffffffffffffffffffffff168152602001908152602001600020600060038110151561501e57fe5b602091828204019190069054906101000a900460ff1660ff1614156150ad57601e602260008373ffffffffffffffffffffffffffffffffffffffff1673ffffffffffffffffffffffffffffffffffffffff168152602001908152602001600020600060038110151561508c57fe5b602091828204019190066101000a81548160ff021916908360ff1602179055505b5b6032602260008373ffffffffffffffffffffffffffffffffffffffff1673ffffffffffffffffffffffffffffffffffffffff16815260200190815260200160002060026003811015156150fd57fe5b602091828204019190069054906101000a900460ff1660ff161115615362576032602260008373ffffffffffffffffffffffffffffffffffffffff1673ffffffffffffffffffffffffffffffffffffffff168152602001908152602001600020600260038110151561516b57fe5b602091828204019190069054906101000a900460ff1660ff1681151561518d57fe5b04601e60026101000a81548160ff021916908360ff160217905550615226601e60029054906101000a900460ff16602260008473ffffffffffffffffffffffffffffffffffffffff1673ffffffffffffffffffffffffffffffffffffffff168152602001908152602001600020600060038110151561520857fe5b602091828204019190069054906101000a900460ff16601e03615cea565b601e60036101000a81548160ff021916908360ff160217905550601e60039054906101000a900460ff16602260008373ffffffffffffffffffffffffffffffffffffffff1673ffffffffffffffffffffffffffffffffffffffff168152602001908152602001600020600060038110151561529d57fe5b602091828204019190068282829054906101000a900460ff160192506101000a81548160ff021916908360ff1602179055506032601e60039054906101000a900460ff1602602260008373ffffffffffffffffffffffffffffffffffffffff1673ffffffffffffffffffffffffffffffffffffffff168152602001908152602001600020600260038110151561532f57fe5b602091828204019190068282829054906101000a900460ff160392506101000a81548160ff021916908360ff1602179055505b50565b60008060149054906101000a900460ff1615151561538257600080fd5b601c548281151561538f57fe5b04601a819055506000601a541415156153b257601a5482036019819055506153bd565b600182036019819055505b6019549050919050565b60008060149054906101000a900460ff161515156153e457600080fd5b601c54838115156153f157fe5b04601a8190555061540182615d09565b601e60056101000a81548160ff021916908360ff1602179055506064601e60059054906101000a900460ff1660ff1611151561573457605a601e60059054906101000a900460ff1660ff1610151561546c57600a6009601a540281151561546457fe5b046016819055505b605a601e60059054906101000a900460ff1660ff161015615733576050601e60059054906101000a900460ff1660ff161015156154bc57600a6008601a54028115156154b457fe5b046016819055505b6050601e60059054906101000a900460ff1660ff161015615732576046601e60059054906101000a900460ff1660ff1610151561550c57600a6007601a540281151561550457fe5b046016819055505b6046601e60059054906101000a900460ff1660ff16101561573157603c601e60059054906101000a900460ff1660ff1610151561555c57600a6006601a540281151561555457fe5b046016819055505b603c601e60059054906101000a900460ff1660ff161015615730576032601e60059054906101000a900460ff1660ff161015156155ac57600a6005601a54028115156155a457fe5b046016819055505b6032601e60059054906101000a900460ff1660ff16101561572f576028601e60059054906101000a900460ff1660ff161015156155fc57600a6004601a54028115156155f457fe5b046016819055505b6028601e60059054906101000a900460ff1660ff16101561572e57601e8060059054906101000a900460ff1660ff1610151561564b57600a6003601a540281151561564357fe5b046016819055505b601e8060059054906101000a900460ff1660ff16101561572d576014601e60059054906101000a900460ff1660ff1610151561569a57600a6002601a540281151561569257fe5b046016819055505b6014601e60059054906101000a900460ff1660ff16101561572c57600a601e60059054906101000a900460ff1660ff161015156156ea57600a6001601a54028115156156e257fe5b046016819055505b600a601e60059054906101000a900460ff1660ff16101561572b576000601e60059054906101000a900460ff1660ff1610151561572a5760006016819055505b5b5b5b5b5b5b5b5b5b5b601654905092915050565b60008060149054906101000a900460ff1615151561575c57600080fd5b601b548481151561576957fe5b0460178190555061577a8383615df8565b601e60046101000a81548160ff021916908360ff1602179055506064601e60049054906101000a900460ff1660ff16111515615aad57605a601e60049054906101000a900460ff1660ff161015156157e557600a6009601754028115156157dd57fe5b046015819055505b605a601e60049054906101000a900460ff1660ff161015615aac576050601e60049054906101000a900460ff1660ff1610151561583557600a60086017540281151561582d57fe5b046015819055505b6050601e60049054906101000a900460ff1660ff161015615aab576046601e60049054906101000a900460ff1660ff1610151561588557600a60076017540281151561587d57fe5b046015819055505b6046601e60049054906101000a900460ff1660ff161015615aaa57603c601e60049054906101000a900460ff1660ff161015156158d557600a6006601754028115156158cd57fe5b046015819055505b603c601e60049054906101000a900460ff1660ff161015615aa9576032601e60049054906101000a900460ff1660ff1610151561592557600a60056017540281151561591d57fe5b046015819055505b6032601e60049054906101000a900460ff1660ff161015615aa8576028601e60049054906101000a900460ff1660ff1610151561597557600a60046017540281151561596d57fe5b046015819055505b6028601e60049054906101000a900460ff1660ff161015615aa757601e8060049054906101000a900460ff1660ff161015156159c457600a6003601754028115156159bc57fe5b046015819055505b601e8060049054906101000a900460ff1660ff161015615aa6576014601e60049054906101000a900460ff1660ff16101515615a1357600a600260175402811515615a0b57fe5b046015819055505b6014601e60049054906101000a900460ff1660ff161015615aa557600a601e60049054906101000a900460ff1660ff16101515615a6357600a600160175402811515615a5b57fe5b046015819055505b600a601e60049054906101000a900460ff1660ff161015615aa4576000601e60049054906101000a900460ff1660ff16101515615aa35760006015819055505b5b5b5b5b5b5b5b5b5b5b60155490509392505050565b600060149054906101000a900460ff16151515615ad557600080fd5b6107d081101515615b2f576001601f60008473ffffffffffffffffffffffffffffffffffffffff1673ffffffffffffffffffffffffffffffffffffffff168152602001908152602001600020600082825401925050819055505b5050565b600060149054906101000a900460ff16151515615b4f57600080fd5b6107d081101515615ba9576001602060008473ffffffffffffffffffffffffffffffffffffffff1673ffffffffffffffffffffffffffffffffffffffff168152602001908152602001600020600082825401925050819055505b5050565b600060149054906101000a900460ff16151515615bc957600080fd5b80602360008473ffffffffffffffffffffffffffffffffffffffff1673ffffffffffffffffffffffffffffffffffffffff168152602001908152602001600020600082825401925050819055505050565b600060149054906101000a900460ff16151515615c3657600080fd5b80602460008473ffffffffffffffffffffffffffffffffffffffff1673ffffffffffffffffffffffffffffffffffffffff168152602001908152602001600020600082825401925050819055505050565b600060149054906101000a900460ff16151515615ca357600080fd5b42602160008373ffffffffffffffffffffffffffffffffffffffff1673ffffffffffffffffffffffffffffffffffffffff1681526020019081526020016000208190555050565b60008160ff168360ff1610615cff5781615d01565b825b905092915050565b60008060149054906101000a900460ff16151515615d2657600080fd5b602260008373ffffffffffffffffffffffffffffffffffffffff1673ffffffffffffffffffffffffffffffffffffffff1681526020019081526020016000206000600381101515615d7357fe5b602091828204019190069054906101000a900460ff16601e60066101000a81548160ff021916908360ff160217905550601e60069054906101000a900460ff16615dbc83615e6e565b615dc584615f80565b0101601e60056101000a81548160ff021916908360ff160217905550601e60059054906101000a900460ff169050919050565b60008060149054906101000a900460ff16151515615e1557600080fd5b615e1e82616086565b615e27846160e8565b615e30856161fa565b615e3986616300565b010101601e60046101000a81548160ff021916908360ff160217905550601e60049054906101000a900460ff16905092915050565b60008060149054906101000a900460ff16151515615e8b57600080fd5b602460008373ffffffffffffffffffffffffffffffffffffffff1673ffffffffffffffffffffffffffffffffffffffff168152602001908152602001600020546014819055506301312d00601454101515615ee95760149050615f7b565b6301312d006014541015615f7a57621e8480601454101515615f0e57600f9050615f7b565b621e84806014541015615f795762030d40601454101515615f3257600a9050615f7b565b62030d406014541015615f7857614e20601454101515615f555760059050615f7b565b614e206014541015615f77576000601454101515615f765760009050615f7b565b5b5b5b5b5b919050565b60008060149054906101000a900460ff16151515615f9d57600080fd5b602060008373ffffffffffffffffffffffffffffffffffffffff1673ffffffffffffffffffffffffffffffffffffffff16815260200190815260200160002054601381905550612710601354101515615ff95760289050616081565b6127106013541015616080576103e860135410151561601b57601e9050616081565b6103e8601354101561607f57606460135410151561603c5760149050616081565b6064601354101561607e57600a60135410151561605c57600a9050616081565b600a601354101561607d57600060135410151561607c5760009050616081565b5b5b5b5b5b919050565b60008060149054906101000a900460ff161515156160a357600080fd5b60008260ff1614156160b857600a90506160e3565b60018260ff1614156160cd57601490506160e3565b60028260ff1614156160e257601e90506160e3565b5b919050565b60008060149054906101000a900460ff1615151561610557600080fd5b602360008373ffffffffffffffffffffffffffffffffffffffff1673ffffffffffffffffffffffffffffffffffffffff168152602001908152602001600020546011819055506301312d0060115410151561616357601490506161f5565b6301312d0060115410156161f457621e848060115410151561618857600f90506161f5565b621e848060115410156161f35762030d406011541015156161ac57600a90506161f5565b62030d4060115410156161f257614e206011541015156161cf57600590506161f5565b614e2060115410156161f15760006011541015156161f057600090506161f5565b5b5b5b5b5b919050565b60008060149054906101000a900460ff1615151561621757600080fd5b601f60008373ffffffffffffffffffffffffffffffffffffffff1673ffffffffffffffffffffffffffffffffffffffff1681526020019081526020016000205460128190555061271060125410151561627357601490506162fb565b61271060125410156162fa576103e860125410151561629557600f90506162fb565b6103e860125410156162f95760646012541015156162b657600a90506162fb565b606460125410156162f857600a6012541015156162d657600590506162fb565b600a60125410156162f75760006012541015156162f657600090506162fb565b5b5b5b5b5b919050565b60008060149054906101000a900460ff1615151561631d57600080fd5b602160008373ffffffffffffffffffffffffffffffffffffffff1673ffffffffffffffffffffffffffffffffffffffff16815260200190815260200160002054600f8190555042600e81905550600f54600e5403601081905550600362278d00026010541015156163915760009050616408565b600362278d000260105410156164075762278d006010541015156163b857600a9050616408565b62278d00601054101561640657600362015180026010541015156163df5760149050616408565b60036201518002601054101561640557600060105410151561640457601e9050616408565b5b5b5b5b919050565b508054600082559060005260206000209081019061642b919061661b565b50565b8280548282559060005260206000209081019282156164a7579160200282015b828111156164a65782518260006101000a81548173ffffffffffffffffffffffffffffffffffffffff021916908373ffffffffffffffffffffffffffffffffffffffff1602179055509160200191906001019061644e565b5b5090506164b49190616640565b5090565b60c060405190810160405280600073ffffffffffffffffffffffffffffffffffffffff168152602001600073ffffffffffffffffffffffffffffffffffffffff168152602001600060ff16815260200160001515815260200160008152602001600060ff1681525090565b61012060405190810160405280600073ffffffffffffffffffffffffffffffffffffffff168152602001606081526020016060815260200160001515815260200160008152602001600063ffffffff168152602001600060ff168152602001600067ffffffffffffffff168152602001600081525090565b828054600181600116156101000203166002900490600052602060002090601f016020900481019282601f106165dc57805160ff191683800117855561660a565b8280016001018555821561660a579182015b828111156166095782518255916020019190600101906165ee565b5b509050616617919061661b565b5090565b61663d91905b80821115616639576000816000905550600101616621565b5090565b90565b61668091905b8082111561667c57600081816101000a81549073ffffffffffffffffffffffffffffffffffffffff021916905550600101616646565b5090565b9056fea165627a7a72305820e1209b88d9eaf22506faaa8222e4887a3efc1c12bbce3c4a00d8e0f76a78d4240029",
  "source": "pragma solidity ^0.5.0;\r\nimport './transaction.sol';\r\n\r\ncontract TxControl is transaction{\r\n    // struct txSave{  //\r\n    //     address buyer;  //\r\n    //     address seller;  //\r\n    //     uint256[] fileNumberList;  //\r\n    //     string publicKeyCheck;  //\r\n    //     uint8 txType;  // 1 2 \r\n    //     bool txStatus;  //  \r\n    //     uint256 value;  //\r\n    //     uint8 buyerGrade;  //\r\n    // } \r\n\r\n    struct txSave{  //\r\n        address buyer;  //\r\n        address seller;  //\r\n        uint8 txType;  // 1 2 \r\n        bool txStatus;  //  \r\n        uint256 value;  //\r\n        uint8 buyerGrade;  //\r\n    } \r\n\r\n    struct txSaveRealTime{  //\r\n        address buyer;  //\r\n        string ipOrEigenvalues;  //ip\r\n        string publicKeyCheck;  //\r\n        bool txStatus;  //  \r\n        uint256 value;  //\r\n        uint32 accountsNumber;  //\r\n        uint8 buyerGrade;  //\r\n        uint64 duration;  //\r\n        uint256 buyerId;\r\n    }\r\n\r\n    mapping(address => address[]) public collectionAddress;  //\r\n    address owner = msg.sender;\r\n    txSave[] txList;  //\r\n    txSaveRealTime[] txRealTimeList;  //\r\n    // uint256 txPending = 0;  //\r\n    event addTx(address seller, uint256[] fileNUmberList, string publicKeyCheck);  //\r\n    event addRealTimeTx(uint256 buyerId, string publicKeyCheck, string ipOrEigenvalues, uint64 duration);\r\n    event confirmTx(uint256 i);  //\r\n    event confirmRealTimeTx(uint256 i);  //\r\n\r\n    modifier onlyOwnerTx(uint256 i){  //\r\n        require(owner == msg.sender);\r\n        require(!txList[i].txStatus);\r\n        _;\r\n    }\r\n\r\n    modifier onlyOwnerRealTimeTx(uint256 i){  //\r\n        require(owner == msg.sender);\r\n        require(!txRealTimeList[i].txStatus);\r\n        _;\r\n    }\r\n\r\n    //\r\n    modifier checkBalanceOfBuyData(address buyer, uint256 value){\r\n        require(_balances[buyer] > value);\r\n        _;\r\n    }\r\n\r\n    //\r\n    modifier checkBalanceOfBuyRealTimeData(address buyer, uint256 value, uint32 accountsNumber){\r\n        require(_balances[buyer] > value * accountsNumber);\r\n        _;\r\n    }\r\n\r\n    function () payable external { }\r\n    //\r\n    function checkDataTxOwner(address buyer, uint256 i) public view returns(bool){\r\n        if(buyer == txList[i].buyer){\r\n            return true;\r\n        }else{\r\n            return false;\r\n        }\r\n    }\r\n\r\n    //\r\n    // function buyData(address _seller, uint256[] memory _fileNumberList, string memory _publicKeyCheck, uint8 _txType, uint256 _value, uint8 _buyerGrade) public checkBalanceOfBuyData(msg.sender, _value) returns(uint256){\r\n    //     txSave memory txData = txSave({\r\n    //         buyer: msg.sender,\r\n    //         seller: _seller,\r\n    //         fileNumberList: _fileNumberList,\r\n    //         publicKeyCheck: _publicKeyCheck,\r\n    //         txType: _txType,\r\n    //         txStatus: false,\r\n    //         value: _value,\r\n    //         buyerGrade: _buyerGrade\r\n    //     });\r\n    //     txList.push(txData);\r\n    //     beforeDataTransaction(msg.sender, _value, _seller);\r\n    //     emit addTx(_seller, _fileNumberList, _publicKeyCheck);\r\n    //     return txList.length;\r\n    // }\r\n\r\n    function buyData(address _seller, uint8 _txType, uint256 _value, uint8 _buyerGrade) public checkBalanceOfBuyData(msg.sender, _value) returns(uint256){\r\n        txSave memory txData = txSave({\r\n            buyer: msg.sender,\r\n            seller: _seller,\r\n            txType: _txType,\r\n            txStatus: false,\r\n            value: _value,\r\n            buyerGrade: _buyerGrade\r\n        });\r\n        txList.push(txData);\r\n        beforeDataTransaction(msg.sender, _value, _seller);\r\n        // emit addTx(_seller, _fileNumberList, _publicKeyCheck);\r\n        return txList.length - 1;\r\n    }\r\n\r\n    //\r\n    function refundData(uint256 i) public onlyOwnerTx(i) {\r\n        dataTransactionRefund(txList[i].buyer,txList[i].seller, txList[i].value);\r\n    }\r\n\r\n\r\n    //\r\n    function makeSureTx(uint256 i) public onlyOwnerTx(i){\r\n        afterDataTransaction(txList[i].buyer,txList[i].seller, txList[i].value, txList[i].buyerGrade);\r\n        emit confirmTx(i);\r\n    }\r\n\r\n    //\r\n    function checkRealTimeTxOwner(address buyer, uint256 i) public view returns(bool){\r\n        if(buyer == txRealTimeList[i].buyer){\r\n            return true;\r\n        }else{\r\n            return false;\r\n        }\r\n    }\r\n\r\n    //\r\n    function buyRealTimeData(uint256 nonce, string memory _publicKeyCheck, string memory _ipOrEigenvalues, uint256 _value, uint32 _accountsNumber, uint8 _buyerGrade, uint64 _duration, uint256 _buyerId) public checkBalanceOfBuyRealTimeData(msg.sender, _value, _accountsNumber) returns(uint256, uint256){\r\n        txSaveRealTime memory txRealTimeData = txSaveRealTime({\r\n            buyer: msg.sender,\r\n            publicKeyCheck: _publicKeyCheck,\r\n            ipOrEigenvalues: _ipOrEigenvalues,\r\n            txStatus: false,\r\n            value: _value,\r\n            accountsNumber: _accountsNumber,\r\n            buyerGrade: _buyerGrade,\r\n            duration: _duration,\r\n            buyerId: _buyerId\r\n        });\r\n        txRealTimeList.push(txRealTimeData);\r\n        beforeRealTimeTransaction(_accountsNumber,_value, msg.sender );\r\n        emit addRealTimeTx(_buyerId, _publicKeyCheck, _ipOrEigenvalues, _duration);\r\n        return (txRealTimeList.length - 1, nonce);\r\n    }\r\n\r\n    \r\n    //\r\n    function setAddress(address[] memory addressList) public {\r\n        collectionAddress[msg.sender] = addressList;\r\n    }\r\n\r\n    //\r\n    function makeSureRealTimeTx(uint256 i) public onlyOwnerRealTimeTx(i){\r\n        afterRealTimeTransaction(msg.sender, collectionAddress[msg.sender], txRealTimeList[i].value, txRealTimeList[i].buyerGrade);\r\n        delete collectionAddress[msg.sender];\r\n        emit confirmRealTimeTx(i);\r\n    }\r\n\r\n    \r\n    // \r\n    function refundRealTime(uint256 i) public onlyOwnerRealTimeTx(i) {\r\n        realTimeTransactionRefund(txRealTimeList[i].buyer, collectionAddress[msg.sender], txRealTimeList[i].value);\r\n    }\r\n\r\n}",
  "sourcePath": "G:/ControlSolidity/contracts/TxControl.sol",
  "compiler": {
    "name": "solc",
    "version": "0.5.0+commit.1d4f565a.Emscripten.clang"
  },
  "schemaVersion": "3.0.5",
  "updatedAt": "2019-04-30T03:04:22.731Z",
  "devdoc": {
    "methods": {}
  },
  "userdoc": {
    "methods": {
      "Buycontributionvalue(address)": {
        "notice": "who:\r"
      },
      "Lastbuytime(address)": {
        "notice": "who:\r"
      },
      "Sellcontributionvalue(address)": {
        "notice": "who:\r"
      },
      "Sellercredit(address,uint256)": {
        "notice": "who://,i:,i0(),1(),2()\r"
      },
      "Totalbuyerpayment(address)": {
        "notice": "who:\r"
      },
      "Totalsellercollection(address)": {
        "notice": "who:\r"
      },
      "afterDataTransaction(address,address,uint256,uint8)": {
        "notice": "_from:,_to:,totalprice:,buyergrade:\r"
      },
      "afterRealTimeTransaction(address,address[],uint256,uint8)": {
        "notice": "_from:,_to:,value:,buyergrade:\r"
      },
      "allowance(address,address)": {
        "notice": "owner:,spender:"
      },
      "approve(address,uint256)": {
        "notice": "spender:,_value:"
      },
      "balanceOf(address)": {
        "notice": "who:"
      },
      "beforeDataTransaction(address,uint256,address)": {
        "notice": "_to:,totalprice:,_from:\r"
      },
      "beforeRealTimeTransaction(uint256,uint256,address)": {
        "notice": "addressNumber:,value:,_from:\r"
      },
      "burn(uint256)": {
        "notice": "_value:"
      },
      "burnFrom(address,uint256)": {
        "notice": "_from:, _value:"
      },
      "dataTransactionRefund(address,address,uint256)": {
        "notice": "_from:,_to:(),totalprice:\r"
      },
      "freezeAccount(address,bool)": {
        "notice": "target:,freeze:true/false\r"
      },
      "ifAccountFrozen(address)": {
        "notice": "account:\r"
      },
      "mintToken(address,uint256)": {
        "notice": "target:,mintedAmount:\r"
      },
      "realTimeTransactionRefund(address,address[],uint256)": {
        "notice": "_from:,_to:(),value:\r"
      },
      "setPrices(uint256,uint256)": {
        "notice": "newwithdrawPrice:,newrechargePrice:\r"
      },
      "setProportion(uint256,uint256)": {
        "notice": "newfeeProportion:1000,newcommissionProportion:100\r"
      },
      "transfer(address,uint256)": {
        "notice": "to:_value:"
      },
      "transferFrom(address,address,uint256)": {
        "notice": "_from:,_to:,_value:"
      },
      "transferOwnership(address)": {
        "notice": "ewOwner:\r"
      },
      "withdraw(uint256)": {
        "notice": "amount:\r"
      }
    }
  }
}