{
  "contractName": "TxControl",
  "abi": [
    {
      "constant": true,
      "inputs": [],
      "name": "rechargePrice",
      "outputs": [
        {
          "name": "",
          "type": "uint256"
        }
      ],
      "payable": false,
      "stateMutability": "view",
      "type": "function",
      "signature": "0x02b090c1"
    },
    {
      "constant": false,
      "inputs": [
        {
          "name": "_from",
          "type": "address"
        },
        {
          "name": "_to",
          "type": "address[]"
        },
        {
          "name": "value",
          "type": "uint256"
        }
      ],
      "name": "realTimeTransactionRefund",
      "outputs": [],
      "payable": false,
      "stateMutability": "nonpayable",
      "type": "function",
      "signature": "0x04a85dfa"
    },
    {
      "constant": false,
      "inputs": [
        {
          "name": "newwithdrawPrice",
          "type": "uint256"
        },
        {
          "name": "newrechargePrice",
          "type": "uint256"
        }
      ],
      "name": "setPrices",
      "outputs": [],
      "payable": false,
      "stateMutability": "nonpayable",
      "type": "function",
      "signature": "0x05fefda7"
    },
    {
      "constant": true,
      "inputs": [],
      "name": "name",
      "outputs": [
        {
          "name": "",
          "type": "string"
        }
      ],
      "payable": false,
      "stateMutability": "view",
      "type": "function",
      "signature": "0x06fdde03"
    },
    {
      "constant": false,
      "inputs": [
        {
          "name": "_spender",
          "type": "address"
        },
        {
          "name": "_value",
          "type": "uint256"
        }
      ],
      "name": "approve",
      "outputs": [
        {
          "name": "",
          "type": "bool"
        }
      ],
      "payable": false,
      "stateMutability": "nonpayable",
      "type": "function",
      "signature": "0x095ea7b3"
    },
    {
      "constant": false,
      "inputs": [
        {
          "name": "addressNumber",
          "type": "uint256"
        },
        {
          "name": "value",
          "type": "uint256"
        },
        {
          "name": "_from",
          "type": "address"
        }
      ],
      "name": "beforeRealTimeTransaction",
      "outputs": [],
      "payable": false,
      "stateMutability": "nonpayable",
      "type": "function",
      "signature": "0x15666013"
    },
    {
      "constant": true,
      "inputs": [
        {
          "name": "who",
          "type": "address"
        }
      ],
      "name": "Lastbuytime",
      "outputs": [
        {
          "name": "",
          "type": "uint256"
        }
      ],
      "payable": false,
      "stateMutability": "view",
      "type": "function",
      "signature": "0x1595a422"
    },
    {
      "constant": true,
      "inputs": [],
      "name": "totalSupply",
      "outputs": [
        {
          "name": "",
          "type": "uint256"
        }
      ],
      "payable": false,
      "stateMutability": "view",
      "type": "function",
      "signature": "0x18160ddd"
    },
    {
      "constant": false,
      "inputs": [
        {
          "name": "_from",
          "type": "address"
        },
        {
          "name": "_to",
          "type": "address"
        },
        {
          "name": "totalprice",
          "type": "uint256"
        },
        {
          "name": "buyergrade",
          "type": "uint8"
        }
      ],
      "name": "afterDataTransaction",
      "outputs": [],
      "payable": false,
      "stateMutability": "nonpayable",
      "type": "function",
      "signature": "0x1ee71c71"
    },
    {
      "constant": false,
      "inputs": [
        {
          "name": "_from",
          "type": "address"
        },
        {
          "name": "_to",
          "type": "address"
        },
        {
          "name": "_value",
          "type": "uint256"
        }
      ],
      "name": "transferFrom",
      "outputs": [
        {
          "name": "",
          "type": "bool"
        }
      ],
      "payable": false,
      "stateMutability": "nonpayable",
      "type": "function",
      "signature": "0x23b872dd"
    },
    {
      "constant": false,
      "inputs": [
        {
          "name": "amount",
          "type": "uint256"
        }
      ],
      "name": "withdraw",
      "outputs": [],
      "payable": false,
      "stateMutability": "nonpayable",
      "type": "function",
      "signature": "0x2e1a7d4d"
    },
    {
      "constant": true,
      "inputs": [],
      "name": "decimals",
      "outputs": [
        {
          "name": "",
          "type": "uint8"
        }
      ],
      "payable": false,
      "stateMutability": "view",
      "type": "function",
      "signature": "0x313ce567"
    },
    {
      "constant": true,
      "inputs": [],
      "name": "initialSupply",
      "outputs": [
        {
          "name": "",
          "type": "uint256"
        }
      ],
      "payable": false,
      "stateMutability": "view",
      "type": "function",
      "signature": "0x378dc3dc"
    },
    {
      "constant": false,
      "inputs": [],
      "name": "pauseTransaction",
      "outputs": [
        {
          "name": "",
          "type": "bool"
        }
      ],
      "payable": false,
      "stateMutability": "nonpayable",
      "type": "function",
      "signature": "0x385fa147"
    },
    {
      "constant": true,
      "inputs": [
        {
          "name": "who",
          "type": "address"
        },
        {
          "name": "i",
          "type": "uint256"
        }
      ],
      "name": "TotalbuyerpaymenORsellercollection",
      "outputs": [
        {
          "name": "",
          "type": "uint256"
        }
      ],
      "payable": false,
      "stateMutability": "view",
      "type": "function",
      "signature": "0x3a457598"
    },
    {
      "constant": true,
      "inputs": [],
      "name": "_totalSupply",
      "outputs": [
        {
          "name": "",
          "type": "uint256"
        }
      ],
      "payable": false,
      "stateMutability": "view",
      "type": "function",
      "signature": "0x3eaaf86b"
    },
    {
      "constant": true,
      "inputs": [
        {
          "name": "who",
          "type": "address"
        }
      ],
      "name": "balanceOfOnlyOwner",
      "outputs": [
        {
          "name": "",
          "type": "uint256"
        }
      ],
      "payable": false,
      "stateMutability": "view",
      "type": "function",
      "signature": "0x448b331b"
    },
    {
      "constant": false,
      "inputs": [],
      "name": "recharge",
      "outputs": [],
      "payable": true,
      "stateMutability": "payable",
      "type": "function",
      "signature": "0x4cddae28"
    },
    {
      "constant": true,
      "inputs": [],
      "name": "paused",
      "outputs": [
        {
          "name": "",
          "type": "bool"
        }
      ],
      "payable": false,
      "stateMutability": "view",
      "type": "function",
      "signature": "0x5c975abb"
    },
    {
      "constant": true,
      "inputs": [],
      "name": "tokenName",
      "outputs": [
        {
          "name": "",
          "type": "string"
        }
      ],
      "payable": false,
      "stateMutability": "view",
      "type": "function",
      "signature": "0x6c02a931"
    },
    {
      "constant": true,
      "inputs": [
        {
          "name": "",
          "type": "address"
        }
      ],
      "name": "_balances",
      "outputs": [
        {
          "name": "",
          "type": "uint256"
        }
      ],
      "payable": false,
      "stateMutability": "view",
      "type": "function",
      "signature": "0x6ebcf607"
    },
    {
      "constant": true,
      "inputs": [],
      "name": "balanceOf",
      "outputs": [
        {
          "name": "",
          "type": "uint256"
        }
      ],
      "payable": false,
      "stateMutability": "view",
      "type": "function",
      "signature": "0x722713f7"
    },
    {
      "constant": true,
      "inputs": [
        {
          "name": "who",
          "type": "address"
        },
        {
          "name": "i",
          "type": "uint256"
        }
      ],
      "name": "Sellercredit",
      "outputs": [
        {
          "name": "",
          "type": "uint256"
        }
      ],
      "payable": false,
      "stateMutability": "view",
      "type": "function",
      "signature": "0x777bf2a5"
    },
    {
      "constant": true,
      "inputs": [],
      "name": "withdrawPrice",
      "outputs": [
        {
          "name": "",
          "type": "uint256"
        }
      ],
      "payable": false,
      "stateMutability": "view",
      "type": "function",
      "signature": "0x7918447e"
    },
    {
      "constant": false,
      "inputs": [
        {
          "name": "target",
          "type": "address"
        },
        {
          "name": "mintedAmount",
          "type": "uint256"
        }
      ],
      "name": "mintToken",
      "outputs": [],
      "payable": false,
      "stateMutability": "nonpayable",
      "type": "function",
      "signature": "0x79c65068"
    },
    {
      "constant": true,
      "inputs": [],
      "name": "tokenSymbol",
      "outputs": [
        {
          "name": "",
          "type": "string"
        }
      ],
      "payable": false,
      "stateMutability": "view",
      "type": "function",
      "signature": "0x7b61c320"
    },
    {
      "constant": false,
      "inputs": [
        {
          "name": "_from",
          "type": "address"
        },
        {
          "name": "_to",
          "type": "address"
        },
        {
          "name": "totalprice",
          "type": "uint256"
        }
      ],
      "name": "dataTransactionRefund",
      "outputs": [],
      "payable": false,
      "stateMutability": "nonpayable",
      "type": "function",
      "signature": "0x7c28248c"
    },
    {
      "constant": true,
      "inputs": [
        {
          "name": "",
          "type": "address"
        },
        {
          "name": "",
          "type": "uint256"
        }
      ],
      "name": "collectionAddress",
      "outputs": [
        {
          "name": "",
          "type": "address"
        }
      ],
      "payable": false,
      "stateMutability": "view",
      "type": "function",
      "signature": "0x7d520ea6"
    },
    {
      "constant": true,
      "inputs": [
        {
          "name": "account",
          "type": "address"
        }
      ],
      "name": "ifAccountFrozen",
      "outputs": [
        {
          "name": "",
          "type": "bool"
        }
      ],
      "payable": false,
      "stateMutability": "view",
      "type": "function",
      "signature": "0x7fed80bb"
    },
    {
      "constant": true,
      "inputs": [],
      "name": "heyueYitaibi",
      "outputs": [
        {
          "name": "",
          "type": "uint256"
        }
      ],
      "payable": false,
      "stateMutability": "view",
      "type": "function",
      "signature": "0x863e4299"
    },
    {
      "constant": true,
      "inputs": [],
      "name": "owner",
      "outputs": [
        {
          "name": "",
          "type": "address"
        }
      ],
      "payable": false,
      "stateMutability": "view",
      "type": "function",
      "signature": "0x8da5cb5b"
    },
    {
      "constant": false,
      "inputs": [
        {
          "name": "newfeeProportion",
          "type": "uint256"
        },
        {
          "name": "newcommissionProportion",
          "type": "uint256"
        }
      ],
      "name": "setProportion",
      "outputs": [],
      "payable": false,
      "stateMutability": "nonpayable",
      "type": "function",
      "signature": "0x91bbf434"
    },
    {
      "constant": false,
      "inputs": [],
      "name": "unpauseTransaction",
      "outputs": [
        {
          "name": "",
          "type": "bool"
        }
      ],
      "payable": false,
      "stateMutability": "nonpayable",
      "type": "function",
      "signature": "0x93faa450"
    },
    {
      "constant": true,
      "inputs": [],
      "name": "symbol",
      "outputs": [
        {
          "name": "",
          "type": "string"
        }
      ],
      "payable": false,
      "stateMutability": "view",
      "type": "function",
      "signature": "0x95d89b41"
    },
    {
      "constant": false,
      "inputs": [
        {
          "name": "_to",
          "type": "address"
        },
        {
          "name": "totalprice",
          "type": "uint256"
        },
        {
          "name": "_from",
          "type": "address"
        }
      ],
      "name": "beforeDataTransaction",
      "outputs": [],
      "payable": false,
      "stateMutability": "nonpayable",
      "type": "function",
      "signature": "0x9bab5e49"
    },
    {
      "constant": false,
      "inputs": [
        {
          "name": "_to",
          "type": "address"
        },
        {
          "name": "_value",
          "type": "uint256"
        }
      ],
      "name": "transfer",
      "outputs": [
        {
          "name": "",
          "type": "bool"
        }
      ],
      "payable": false,
      "stateMutability": "nonpayable",
      "type": "function",
      "signature": "0xa9059cbb"
    },
    {
      "constant": true,
      "inputs": [
        {
          "name": "",
          "type": "address"
        }
      ],
      "name": "frozenAccount",
      "outputs": [
        {
          "name": "",
          "type": "bool"
        }
      ],
      "payable": false,
      "stateMutability": "view",
      "type": "function",
      "signature": "0xb414d4b6"
    },
    {
      "constant": true,
      "inputs": [
        {
          "name": "",
          "type": "address"
        },
        {
          "name": "",
          "type": "address"
        }
      ],
      "name": "_allowed",
      "outputs": [
        {
          "name": "",
          "type": "uint256"
        }
      ],
      "payable": false,
      "stateMutability": "view",
      "type": "function",
      "signature": "0xba0fb861"
    },
    {
      "constant": true,
      "inputs": [
        {
          "name": "who",
          "type": "address"
        },
        {
          "name": "i",
          "type": "uint256"
        }
      ],
      "name": "contributionvalue",
      "outputs": [
        {
          "name": "",
          "type": "uint256"
        }
      ],
      "payable": false,
      "stateMutability": "view",
      "type": "function",
      "signature": "0xc774c9e9"
    },
    {
      "constant": false,
      "inputs": [],
      "name": "transferHeyue",
      "outputs": [],
      "payable": true,
      "stateMutability": "payable",
      "type": "function",
      "signature": "0xceaf7fb2"
    },
    {
      "constant": true,
      "inputs": [
        {
          "name": "owner",
          "type": "address"
        },
        {
          "name": "spender",
          "type": "address"
        }
      ],
      "name": "allowance",
      "outputs": [
        {
          "name": "",
          "type": "uint256"
        }
      ],
      "payable": false,
      "stateMutability": "view",
      "type": "function",
      "signature": "0xdd62ed3e"
    },
    {
      "constant": false,
      "inputs": [
        {
          "name": "target",
          "type": "address"
        },
        {
          "name": "freeze",
          "type": "bool"
        }
      ],
      "name": "freezeAccount",
      "outputs": [],
      "payable": false,
      "stateMutability": "nonpayable",
      "type": "function",
      "signature": "0xe724529c"
    },
    {
      "constant": false,
      "inputs": [
        {
          "name": "_from",
          "type": "address"
        },
        {
          "name": "_to",
          "type": "address[]"
        },
        {
          "name": "value",
          "type": "uint256"
        },
        {
          "name": "buyergrade",
          "type": "uint8"
        }
      ],
      "name": "afterRealTimeTransaction",
      "outputs": [],
      "payable": false,
      "stateMutability": "nonpayable",
      "type": "function",
      "signature": "0xe764c6e1"
    },
    {
      "constant": false,
      "inputs": [],
      "name": "heyueTixian",
      "outputs": [],
      "payable": false,
      "stateMutability": "nonpayable",
      "type": "function",
      "signature": "0xeef71d6f"
    },
    {
      "constant": false,
      "inputs": [
        {
          "name": "newOwner",
          "type": "address"
        }
      ],
      "name": "transferOwnership",
      "outputs": [],
      "payable": false,
      "stateMutability": "nonpayable",
      "type": "function",
      "signature": "0xf2fde38b"
    },
    {
      "constant": true,
      "inputs": [],
      "name": "amount1",
      "outputs": [
        {
          "name": "",
          "type": "uint256"
        }
      ],
      "payable": false,
      "stateMutability": "view",
      "type": "function",
      "signature": "0xf400fde4"
    },
    {
      "payable": true,
      "stateMutability": "payable",
      "type": "fallback"
    },
    {
      "anonymous": false,
      "inputs": [
        {
          "indexed": false,
          "name": "seller",
          "type": "address"
        },
        {
          "indexed": false,
          "name": "fileNUmberList",
          "type": "uint256[]"
        },
        {
          "indexed": false,
          "name": "publicKeyCheck",
          "type": "string"
        }
      ],
      "name": "addTx",
      "type": "event",
      "signature": "0xc3eebc9cdbc07130e15fe44f4d0b5fbeeb52cb0be98e0282c4249ec6657996b1"
    },
    {
      "anonymous": false,
      "inputs": [
        {
          "indexed": false,
          "name": "buyerId",
          "type": "uint256"
        },
        {
          "indexed": false,
          "name": "publicKeyCheck",
          "type": "string"
        },
        {
          "indexed": false,
          "name": "ipOrEigenvalues",
          "type": "string"
        },
        {
          "indexed": false,
          "name": "duration",
          "type": "uint64"
        }
      ],
      "name": "addRealTimeTx",
      "type": "event",
      "signature": "0x1a32be2704981bde44de8613f56d25e84735c7435c934716c334b2cb00335b1c"
    },
    {
      "anonymous": false,
      "inputs": [
        {
          "indexed": false,
          "name": "i",
          "type": "uint256"
        }
      ],
      "name": "confirmTx",
      "type": "event",
      "signature": "0x801be060160611f44999389892b6b79359677ff2d431948a5c8b5a80e14a1ff8"
    },
    {
      "anonymous": false,
      "inputs": [
        {
          "indexed": false,
          "name": "i",
          "type": "uint256"
        }
      ],
      "name": "confirmRealTimeTx",
      "type": "event",
      "signature": "0x8b83e47b1af3f949d67804a4ab493fded8198468172c75006b4c7da507345c74"
    },
    {
      "anonymous": false,
      "inputs": [
        {
          "indexed": false,
          "name": "target",
          "type": "address"
        },
        {
          "indexed": false,
          "name": "success",
          "type": "bool"
        }
      ],
      "name": "SuccessFunds",
      "type": "event",
      "signature": "0x4656763aeb5076063b1b9201e728e03b650c4e545b46330125af5d01c01fae56"
    },
    {
      "anonymous": false,
      "inputs": [
        {
          "indexed": true,
          "name": "from",
          "type": "address"
        },
        {
          "indexed": true,
          "name": "to",
          "type": "address"
        },
        {
          "indexed": false,
          "name": "value",
          "type": "uint256"
        }
      ],
      "name": "Transfer",
      "type": "event",
      "signature": "0xddf252ad1be2c89b69c2b068fc378daa952ba7f163c4a11628f55a4df523b3ef"
    },
    {
      "anonymous": false,
      "inputs": [
        {
          "indexed": false,
          "name": "target",
          "type": "address"
        },
        {
          "indexed": false,
          "name": "frozen",
          "type": "bool"
        }
      ],
      "name": "FrozenFunds",
      "type": "event",
      "signature": "0x48335238b4855f35377ed80f164e8c6f3c366e54ac00b96a6402d4a9814a03a5"
    },
    {
      "anonymous": false,
      "inputs": [],
      "name": "Pause",
      "type": "event",
      "signature": "0x6985a02210a168e66602d3235cb6db0e70f92b3ba4d376a33c0f3d9434bff625"
    },
    {
      "anonymous": false,
      "inputs": [],
      "name": "Unpause",
      "type": "event",
      "signature": "0x7805862f689e2f13df9f062ff482ad3ad112aca9e0847911ed832e158c525b33"
    },
    {
      "constant": false,
      "inputs": [
        {
          "name": "_seller",
          "type": "address"
        },
        {
          "name": "_txType",
          "type": "uint8"
        },
        {
          "name": "_value",
          "type": "uint256"
        },
        {
          "name": "_buyerGrade",
          "type": "uint8"
        }
      ],
      "name": "buyData",
      "outputs": [
        {
          "name": "",
          "type": "uint256"
        }
      ],
      "payable": false,
      "stateMutability": "nonpayable",
      "type": "function",
      "signature": "0xb60d3b1d"
    },
    {
      "constant": false,
      "inputs": [
        {
          "name": "i",
          "type": "uint256"
        }
      ],
      "name": "refundData",
      "outputs": [],
      "payable": false,
      "stateMutability": "nonpayable",
      "type": "function",
      "signature": "0x4b160ef7"
    },
    {
      "constant": false,
      "inputs": [
        {
          "name": "i",
          "type": "uint256"
        }
      ],
      "name": "makeSureTx",
      "outputs": [],
      "payable": false,
      "stateMutability": "nonpayable",
      "type": "function",
      "signature": "0x9ee66913"
    },
    {
      "constant": false,
      "inputs": [
        {
          "name": "nonce",
          "type": "uint256"
        },
        {
          "name": "_publicKeyCheck",
          "type": "string"
        },
        {
          "name": "_ipOrEigenvalues",
          "type": "string"
        },
        {
          "name": "_value",
          "type": "uint256"
        },
        {
          "name": "_accountsNumber",
          "type": "uint32"
        },
        {
          "name": "_buyerGrade",
          "type": "uint8"
        },
        {
          "name": "_duration",
          "type": "uint64"
        },
        {
          "name": "_buyerId",
          "type": "uint256"
        }
      ],
      "name": "buyRealTimeData",
      "outputs": [
        {
          "name": "",
          "type": "uint256"
        },
        {
          "name": "",
          "type": "uint256"
        }
      ],
      "payable": false,
      "stateMutability": "nonpayable",
      "type": "function",
      "signature": "0xd19d49f9"
    },
    {
      "constant": false,
      "inputs": [
        {
          "name": "addressList",
          "type": "address[]"
        }
      ],
      "name": "setAddress",
      "outputs": [],
      "payable": false,
      "stateMutability": "nonpayable",
      "type": "function",
      "signature": "0xa354d3f6"
    },
    {
      "constant": false,
      "inputs": [
        {
          "name": "i",
          "type": "uint256"
        }
      ],
      "name": "makeSureRealTimeTx",
      "outputs": [],
      "payable": false,
      "stateMutability": "nonpayable",
      "type": "function",
      "signature": "0x9e8c9a40"
    },
    {
      "constant": false,
      "inputs": [
        {
          "name": "i",
          "type": "uint256"
        }
      ],
      "name": "refundRealTime",
      "outputs": [],
      "payable": false,
      "stateMutability": "nonpayable",
      "type": "function",
      "signature": "0xfcbd7ae2"
    }
  ],
  "bytecode": "0x6000805460a060020a60ff02191690556003805460ff191660121790556009600555600a600655620186a060075560c0604052600260808190527f657200000000000000000000000000000000000000000000000000000000000060a09081526200006e916008919062000154565b506040805180820190915260018082527f65000000000000000000000000000000000000000000000000000000000000006020909201918252620000b59160099162000154565b506103e86019556064601a556024805433600160a060020a0319918216811790925560008054909116909117815560035460075460ff909116600a0a026004819055308252600b602052604090912055600880546200012991600191600261010082851615026000190190911604620001d9565b50600980546200014d916002916000196101006001831615020116829004620001d9565b5062000273565b828054600181600116156101000203166002900490600052602060002090601f016020900481019282601f106200019757805160ff1916838001178555620001c7565b82800160010185558215620001c7579182015b82811115620001c7578251825591602001919060010190620001aa565b50620001d592915062000253565b5090565b828054600181600116156101000203166002900490600052602060002090601f016020900481019282601f10620002145780548555620001c7565b82800160010185558215620001c757600052602060002091601f016020900482015b82811115620001c757825482559160010191906001019062000236565b6200027091905b80821115620001d557600081556001016200025a565b90565b61396180620002836000396000f3fe60806040526004361061027c5763ffffffff7c010000000000000000000000000000000000000000000000000000000060003504166302b090c1811461027e57806304a85dfa146102a557806305fefda71461036757806306fdde0314610397578063095ea7b314610421578063156660131461046e5780631595a422146104ad57806318160ddd146104e05780631ee71c71146104f557806323b872dd146105425780632e1a7d4d14610585578063313ce567146105af578063378dc3dc146105da578063385fa147146105ef5780633a457598146106045780633eaaf86b1461063d578063448b331b146106525780634b160ef7146106855780634cddae28146106af5780635c975abb146106b75780636c02a931146106cc5780636ebcf607146106e1578063722713f714610714578063777bf2a5146107295780637918447e1461076257806379c65068146107775780637b61c320146107b05780637c28248c146107c55780637d520ea6146108085780637fed80bb1461085d578063863e4299146108905780638da5cb5b146108a557806391bbf434146108ba57806393faa450146108ea57806395d89b41146108ff5780639bab5e49146109145780639e8c9a40146109575780639ee6691314610981578063a354d3f6146109ab578063a9059cbb14610a5b578063b414d4b614610a94578063b60d3b1d14610ac7578063ba0fb86114610b13578063c774c9e914610b4e578063ceaf7fb214610b87578063d19d49f914610b8f578063dd62ed3e14610d14578063e724529c14610d4f578063e764c6e114610d8a578063eef71d6f14610e52578063f2fde38b14610e67578063f400fde414610e9a578063fcbd7ae214610eaf575b005b34801561028a57600080fd5b50610293610ed9565b60408051918252519081900360200190f35b3480156102b157600080fd5b5061027c600480360360608110156102c857600080fd5b600160a060020a0382351691908101906040810160208201356401000000008111156102f357600080fd5b82018360208201111561030557600080fd5b8035906020019184602083028401116401000000008311171561032757600080fd5b9190808060200260200160405190810160405280939291908181526020018383602002808284376000920191909152509295505091359250610edf915050565b34801561037357600080fd5b5061027c6004803603604081101561038a57600080fd5b5080359060200135610f97565b3480156103a357600080fd5b506103ac610fdb565b6040805160208082528351818301528351919283929083019185019080838360005b838110156103e65781810151838201526020016103ce565b50505050905090810190601f1680156104135780820380516001836020036101000a031916815260200191505b509250505060405180910390f35b34801561042d57600080fd5b5061045a6004803603604081101561044457600080fd5b50600160a060020a038135169060200135611068565b604080519115158252519081900360200190f35b34801561047a57600080fd5b5061027c6004803603606081101561049157600080fd5b5080359060208101359060400135600160a060020a03166110cb565b3480156104b957600080fd5b50610293600480360360208110156104d057600080fd5b5035600160a060020a0316611175565b3480156104ec57600080fd5b50610293611194565b34801561050157600080fd5b5061027c6004803603608081101561051857600080fd5b508035600160a060020a03908116916020810135909116906040810135906060013560ff1661119b565b34801561054e57600080fd5b5061045a6004803603606081101561056557600080fd5b50600160a060020a03813581169160208101359091169060400135611254565b34801561059157600080fd5b5061027c600480360360208110156105a857600080fd5b503561135a565b3480156105bb57600080fd5b506105c46113be565b6040805160ff9092168252519081900360200190f35b3480156105e657600080fd5b506102936113c7565b3480156105fb57600080fd5b5061045a6113cd565b34801561061057600080fd5b506102936004803603604081101561062757600080fd5b50600160a060020a03813516906020013561144d565b34801561064957600080fd5b5061029361149f565b34801561065e57600080fd5b506102936004803603602081101561067557600080fd5b5035600160a060020a03166114a5565b34801561069157600080fd5b5061027c600480360360208110156106a857600080fd5b50356114d9565b61027c6115bc565b3480156106c357600080fd5b5061045a6115f3565b3480156106d857600080fd5b506103ac611603565b3480156106ed57600080fd5b506102936004803603602081101561070457600080fd5b5035600160a060020a031661165e565b34801561072057600080fd5b50610293611670565b34801561073557600080fd5b506102936004803603604081101561074c57600080fd5b50600160a060020a038135169060200135611683565b34801561076e57600080fd5b506102936116c3565b34801561078357600080fd5b5061027c6004803603604081101561079a57600080fd5b50600160a060020a0381351690602001356116c9565b3480156107bc57600080fd5b506103ac611796565b3480156107d157600080fd5b5061027c600480360360608110156107e857600080fd5b50600160a060020a038135811691602081013590911690604001356117f1565b34801561081457600080fd5b506108416004803603604081101561082b57600080fd5b50600160a060020a038135169060200135611846565b60408051600160a060020a039092168252519081900360200190f35b34801561086957600080fd5b5061045a6004803603602081101561088057600080fd5b5035600160a060020a031661187d565b34801561089c57600080fd5b5061029361189b565b3480156108b157600080fd5b506108416118a0565b3480156108c657600080fd5b5061027c600480360360408110156108dd57600080fd5b50803590602001356118af565b3480156108f657600080fd5b5061045a6118e8565b34801561090b57600080fd5b506103ac611963565b34801561092057600080fd5b5061027c6004803603606081101561093757600080fd5b50600160a060020a038135811691602081013591604090910135166119bb565b34801561096357600080fd5b5061027c6004803603602081101561097a57600080fd5b5035611a27565b34801561098d57600080fd5b5061027c600480360360208110156109a457600080fd5b5035611b7a565b3480156109b757600080fd5b5061027c600480360360208110156109ce57600080fd5b8101906020810181356401000000008111156109e957600080fd5b8201836020820111156109fb57600080fd5b80359060200191846020830284011164010000000083111715610a1d57600080fd5b919080806020026020016040519081016040528093929190818152602001838360200280828437600092019190915250929550611cba945050505050565b348015610a6757600080fd5b5061045a60048036036040811015610a7e57600080fd5b50600160a060020a038135169060200135611cda565b348015610aa057600080fd5b5061045a60048036036020811015610ab757600080fd5b5035600160a060020a0316611d0a565b348015610ad357600080fd5b5061029360048036036080811015610aea57600080fd5b50600160a060020a038135169060ff602082013581169160408101359160609091013516611d1f565b348015610b1f57600080fd5b5061029360048036036040811015610b3657600080fd5b50600160a060020a0381358116916020013516611ee1565b348015610b5a57600080fd5b5061029360048036036040811015610b7157600080fd5b50600160a060020a038135169060200135611efe565b61027c611f50565b348015610b9b57600080fd5b50610cfb6004803603610100811015610bb357600080fd5b81359190810190604081016020820135640100000000811115610bd557600080fd5b820183602082011115610be757600080fd5b80359060200191846001830284011164010000000083111715610c0957600080fd5b91908080601f0160208091040260200160405190810160405280939291908181526020018383808284376000920191909152509295949360208101935035915050640100000000811115610c5c57600080fd5b820183602082011115610c6e57600080fd5b80359060200191846001830284011164010000000083111715610c9057600080fd5b91908080601f01602080910402602001604051908101604052809392919081815260200183838082843760009201919091525092955050823593505063ffffffff6020830135169160ff604082013516915067ffffffffffffffff6060820135169060800135611f69565b6040805192835260208301919091528051918290030190f35b348015610d2057600080fd5b5061029360048036036040811015610d3757600080fd5b50600160a060020a0381358116916020013516612268565b348015610d5b57600080fd5b5061027c60048036036040811015610d7257600080fd5b50600160a060020a0381351690602001351515612293565b348015610d9657600080fd5b5061027c60048036036080811015610dad57600080fd5b600160a060020a038235169190810190604081016020820135640100000000811115610dd857600080fd5b820183602082011115610dea57600080fd5b80359060200191846020830284011164010000000083111715610e0c57600080fd5b919080806020026020016040519081016040528093929190818152602001838360200280828437600092019190915250929550508235935050506020013560ff16612325565b348015610e5e57600080fd5b5061027c612478565b348015610e7357600080fd5b5061027c60048036036020811015610e8a57600080fd5b5035600160a060020a03166124e7565b348015610ea657600080fd5b50610293612542565b348015610ebb57600080fd5b5061027c60048036036020811015610ed257600080fd5b5035612548565b60065481565b60005460a060020a900460ff1615610ef657600080fd5b81518102601b819055610f0890612647565b601681905550610f1b3084601654612694565b60005b8251811015610f9157610f498382815181101515610f3857fe5b9060200190602002015160016127df565b610f698382815181101515610f5a57fe5b90602001906020020151612877565b610f898382815181101515610f7a57fe5b90602001906020020151612a3f565b600101610f1e565b50505050565b600054600160a060020a03163314610fae57600080fd5b60005460a060020a900460ff1615610fc557600080fd5b808211610fd757600582905560068190555b5050565b60018054604080516020600284861615610100026000190190941693909304601f810184900484028201840190925281815292918301828280156110605780601f1061103557610100808354040283529160200191611060565b820191906000526020600020905b81548152906001019060200180831161104357829003601f168201915b505050505081565b60008054600160a060020a0316331461108057600080fd5b60005460a060020a900460ff161561109757600080fd5b5060008054600160a060020a039081168252600c602090815260408084209286168452919052902081905560015b92915050565b60005460a060020a900460ff16156110e257600080fd5b600160a060020a0381166000908152600d602052604090205460ff161561110857600080fd5b828202601b81905561111990612647565b60168190555061112c8130601654612694565b60408051600160a060020a03831681526001602082015281517f4656763aeb5076063b1b9201e728e03b650c4e545b46330125af5d01c01fae56929181900390910190a1505050565b600160a060020a0381166000908152601f60205260409020545b919050565b6004545b90565b60005460a060020a900460ff16156111b257600080fd5b6111bb82612c06565b6017556111c88284612c54565b60178054909101908190556111e09030908590612694565b6111eb828583612f84565b6013819055506111fe3085601354612694565b61120a84836001613275565b61121683836002613275565b611222848360016132e9565b61122e838360026132e9565b6112398360026127df565b61124283612a3f565b61124b83612877565b610f9184613354565b60008054600160a060020a0316331461126c57600080fd5b60005460a060020a900460ff161561128357600080fd5b60008054600160a060020a039081168252600c602090815260408084209288168452919052902054821115806112de575060008054600160a060020a039081168252600c602090815260408084209288168452919052902054155b15156112e957600080fd5b60008054600160a060020a039081168252600c602090815260408084209288168452919052902054156113455760008054600160a060020a039081168252600c6020908152604080842092881684529190529020805483900390555b611350848484612694565b5060019392505050565b60005460a060020a900460ff161561137157600080fd5b60055481023031101561138357600080fd5b61138e333083612694565b6005546040513391830280156108fc02916000818181858888f19350505050158015610fd7573d6000803e3d6000fd5b60035460ff1681565b60075481565b60008054600160a060020a031633146113e557600080fd5b60005460a060020a900460ff16156113fc57600080fd5b6000805474ff0000000000000000000000000000000000000000191660a060020a1781556040517f6985a02210a168e66602d3235cb6db0e70f92b3ba4d376a33c0f3d9434bff6259190a150600190565b600081600114156114775750600160a060020a0382166000908152602160205260409020546110c5565b81600214156110c55750600160a060020a0382166000908152602260205260409020546110c5565b60045481565b60008054600160a060020a031633146114bd57600080fd5b50600160a060020a03166000908152600b602052604090205490565b6024548190600160a060020a031633146114f257600080fd5b602580548290811061150057fe5b60009182526020909120600490910201600101547501000000000000000000000000000000000000000000900460ff161561153a57600080fd5b610fd760258381548110151561154c57fe5b600091825260209091206004909102015460258054600160a060020a03909216918590811061157757fe5b600091825260209091206001600490920201015460258054600160a060020a0390921691869081106115a557fe5b9060005260206000209060040201600201546117f1565b60005460a060020a900460ff16156115d357600080fd5b6000600654348115156115e257fe5b0490506115f0303383612694565b50565b60005460a060020a900460ff1681565b6008805460408051602060026001851615610100026000190190941693909304601f810184900484028201840190925281815292918301828280156110605780601f1061103557610100808354040283529160200191611060565b600b6020526000908152604090205481565b336000908152600b602052604090205490565b600160a060020a0382166000908152602080526040812082600381106116a557fe5b602081049091015460ff601f9092166101000a900416905092915050565b60055481565b600054600160a060020a031633146116e057600080fd5b60005460a060020a900460ff16156116f757600080fd5b600160a060020a0382166000908152600b602090815260408083208054850190556004805485019055805184815290513093927fddf252ad1be2c89b69c2b068fc378daa952ba7f163c4a11628f55a4df523b3ef928290030190a3604080518281529051600160a060020a0384169130917fddf252ad1be2c89b69c2b068fc378daa952ba7f163c4a11628f55a4df523b3ef9181900360200190a35050565b6009805460408051602060026001851615610100026000190190941693909304601f810184900484028201840190925281815292918301828280156110605780601f1061103557610100808354040283529160200191611060565b60005460a060020a900460ff161561180857600080fd5b61181181612647565b6016819055506118243084601654612694565b61182f8260016127df565b61183882612877565b61184182612a3f565b505050565b60236020528160005260406000208181548110151561186157fe5b600091825260209091200154600160a060020a03169150829050565b600160a060020a03166000908152600d602052604090205460ff1690565b303190565b600054600160a060020a031681565b600054600160a060020a031633146118c657600080fd5b60005460a060020a900460ff16156118dd57600080fd5b601991909155601a55565b60008054600160a060020a0316331461190057600080fd5b60005460a060020a900460ff16151561191857600080fd5b6000805474ff0000000000000000000000000000000000000000191681556040517f7805862f689e2f13df9f062ff482ad3ad112aca9e0847911ed832e158c525b339190a150600190565b6002805460408051602060018416156101000260001901909316849004601f810184900484028201840190925281815292918301828280156110605780601f1061103557610100808354040283529160200191611060565b60005460a060020a900460ff16156119d257600080fd5b600160a060020a0381166000908152600d602052604090205460ff16156119f857600080fd5b600160a060020a0383166000908152600d602052604090205460ff1615611a1e57600080fd5b61111982612647565b6024548190600160a060020a03163314611a4057600080fd5b6026805482908110611a4e57fe5b600091825260209091206003600790920201015460ff1615611a6f57600080fd5b336000818152602360209081526040918290208054835181840281018401909452808452611b2b949392830182828015611ad257602002820191906000526020600020905b8154600160a060020a03168152600190910190602001808311611ab4575b5050505050602685815481101515611ae657fe5b906000526020600020906007020160040154602686815481101515611b0757fe5b906000526020600020906007020160050160049054906101000a900460ff16612325565b336000908152602360205260408120611b4391613762565b6040805183815290517f8b83e47b1af3f949d67804a4ab493fded8198468172c75006b4c7da507345c749181900360200190a15050565b6024548190600160a060020a03163314611b9357600080fd5b6025805482908110611ba157fe5b60009182526020909120600490910201600101547501000000000000000000000000000000000000000000900460ff1615611bdb57600080fd5b611c83602583815481101515611bed57fe5b600091825260209091206004909102015460258054600160a060020a039092169185908110611c1857fe5b600091825260209091206001600490920201015460258054600160a060020a039092169186908110611c4657fe5b906000526020600020906004020160020154602586815481101515611c6757fe5b600091825260209091206003600490920201015460ff1661119b565b6040805183815290517f801be060160611f44999389892b6b79359677ff2d431948a5c8b5a80e14a1ff89181900360200190a15050565b3360009081526023602090815260409091208251610fd792840190613780565b6000805460a060020a900460ff1615611cf257600080fd5b60443614611cff57600080fd5b6110c5338484612694565b600d6020526000908152604090205460ff1681565b6000611d296137f2565b506040805160c08101825233808252600160a060020a038881166020840190815260ff808a16958501958652600060608601818152608087018b81528a841660a08901908152602580546001810182559452885160049094027f401968ff42a154441da5f6c4c935ac46b8671f0e062baaa62a7545ba53bb6e4c8101805495891673ffffffffffffffffffffffffffffffffffffffff1996871617905595517f401968ff42a154441da5f6c4c935ac46b8671f0e062baaa62a7545ba53bb6e4d870180549b51945115157501000000000000000000000000000000000000000000027fffffffffffffffffffff00ffffffffffffffffffffffffffffffffffffffffff95881660a060020a0274ff00000000000000000000000000000000000000001993909a169c9096169b909b171696909617919091169190911790965594517f401968ff42a154441da5f6c4c935ac46b8671f0e062baaa62a7545ba53bb6e4e82015590517f401968ff42a154441da5f6c4c935ac46b8671f0e062baaa62a7545ba53bb6e4f90910180549190941660ff199091161790925590611ed09085886119bb565b505060255460001901949350505050565b600c60209081526000928352604080842090915290825290205481565b60008160011415611f285750600160a060020a0382166000908152601d60205260409020546110c5565b81600214156110c55750600160a060020a0382166000908152601e60205260409020546110c5565b60005460a060020a900460ff1615611f6757600080fd5b565b600080611f74613827565b50604080516101208101825233815260208082018b81529282018c9052600060608301819052608083018b905263ffffffff8a1660a084015260ff891660c084015267ffffffffffffffff881660e08401526101008301879052602680546001810180835591909252835160079092027f744a2cf8fd7008e3d53b67916e73460df9fa5214e3ef23dd4259ca09493a359481018054600160a060020a039490941673ffffffffffffffffffffffffffffffffffffffff199094169390931783559451805194959194869461206c937f744a2cf8fd7008e3d53b67916e73460df9fa5214e3ef23dd4259ca09493a359501920190613874565b5060408201518051612088916002840191602090910190613874565b50606082015160038201805460ff19169115159190911790556080820151600482015560a082015160058201805460c085015160e086015163ffffffff1990921663ffffffff9485161764ff00000000191664010000000060ff90921691909102176cffffffffffffffff000000000019166501000000000067ffffffffffffffff909216919091021790556101009092015160069091015561212f9150881689336110cb565b7f1a32be2704981bde44de8613f56d25e84735c7435c934716c334b2cb00335b1c848b8b886040518085815260200180602001806020018467ffffffffffffffff1667ffffffffffffffff168152602001838103835286818151815260200191508051906020019080838360005b838110156121b557818101518382015260200161219d565b50505050905090810190601f1680156121e25780820380516001836020036101000a031916815260200191505b50838103825285518152855160209182019187019080838360005b838110156122155781810151838201526020016121fd565b50505050905090810190601f1680156122425780820380516001836020036101000a031916815260200191505b50965050505050505060405180910390a150506026546000190199975050505050505050565b600160a060020a039182166000908152600c6020908152604080832093909416825291909152205490565b600054600160a060020a031633146122aa57600080fd5b60005460a060020a900460ff16156122c157600080fd5b600160a060020a0382166000818152600d6020908152604091829020805460ff191685151590811790915582519384529083015280517f48335238b4855f35377ed80f164e8c6f3c366e54ac00b96a6402d4a9814a03a59281900390910190a15050565b60005460a060020a900460ff161561233c57600080fd5b60005b83518110156124385761235183612c06565b601755835161237790849086908490811061236857fe5b90602001906020020151612c54565b60178054909101905583516123a690309086908490811061239457fe5b90602001906020020151601754612694565b6123c984828151811015156123b757fe5b90602001906020020151846002613275565b6123ec84828151811015156123da57fe5b906020019060200201518460026132e9565b61240e84828151811015156123fd57fe5b9060200190602002015160026127df565b61241f8482815181101515610f7a57fe5b6124308482815181101515610f5a57fe5b60010161233f565b50612447835183028583612f84565b60138190555061245a3085601354612694565b61246984845184026001613275565b61124b848451840260016132e9565b600054600160a060020a0316331461248f57600080fd5b60005460a060020a900460ff16156124a657600080fd5b3031600a81905560008054604051600160a060020a03909116926108fc81150292909190818181858888f193505050501580156115f0573d6000803e3d6000fd5b600054600160a060020a031633146124fe57600080fd5b600160a060020a038116151561251357600080fd5b6000805473ffffffffffffffffffffffffffffffffffffffff1916600160a060020a0392909216919091179055565b600a5481565b6024548190600160a060020a0316331461256157600080fd5b602680548290811061256f57fe5b600091825260209091206003600790920201015460ff161561259057600080fd5b610fd76026838154811015156125a257fe5b60009182526020808320600790920290910154338352602382526040928390208054845181850281018501909552808552600160a060020a03909216939290919083018282801561261c57602002820191906000526020600020905b8154600160a060020a031681526001909101906020018083116125fe575b505050505060268581548110151561263057fe5b906000526020600020906007020160040154610edf565b6000805460a060020a900460ff161561265f57600080fd5b6019548281151561266c57fe5b0460158190551561268457601554820160165561268c565b600182016016555b505060165490565b600160a060020a03821615156126a957600080fd5b600160a060020a0383166000908152600b60205260409020548111156126ce57600080fd5b600160a060020a0382166000908152600b602052604090205481810110156126f557600080fd5b600160a060020a0383166000908152600d602052604090205460ff161561271b57600080fd5b600160a060020a0382166000908152600d602052604090205460ff161561274157600080fd5b600160a060020a038083166000818152600b60209081526040808320805495891680855282852080548981039091559486905281548801909155815187815291519390950194927fddf252ad1be2c89b69c2b068fc378daa952ba7f163c4a11628f55a4df523b3ef929181900390910190a3600160a060020a038084166000908152600b6020526040808220549287168252902054018114610f9157fe5b60005460a060020a900460ff16156127f657600080fd5b806001141561283557600160a060020a03821660009081526020805260409020805461ff001981166101009182900460ff908116600101169091021790555b8060021415610fd75750600160a060020a031660009081526020805260409020805462ff0000198116620100009182900460ff90811660010116909102179055565b60005460a060020a900460ff161561288e57600080fd5b600160a060020a0381166000908152602080526040902054610100900460ff16600a141561294a57600160a060020a038116600090815260208052604081205460ff16111561290957600160a060020a03811660009081526020805260409020805460ff808216600019011660ff199091161761ff00191690555b600160a060020a038116600090815260208052604090205460ff16151561294a57600160a060020a03811660009081526020805260409020805460ff191690555b600160a060020a0381166000908152602080526040902054600a61010090910460ff1611156115f057600160a060020a038116600090815260208052604090208054601c8054600a60ff610100909404841604831660ff19909116179081905591546129b99282169116613387565b601c805461ff00191661010060ff938416810291909117808355600160a060020a03851660009081526020805260409020805460ff198116928490048616908616038516919091178155915404909116600a029060015b60208104909101805460ff601f9093166101000a80820484169490940383168402929093021990921617905550565b60005460a060020a900460ff1615612a5657600080fd5b600160a060020a038116600090815260208052604090205462010000900460ff1660321415612b1f57600160a060020a0381166000908152602080526040902054602860ff9091161015612ad957600160a060020a038116600090815260208052604090208054600160ff808316919091011660ff199091161762ff0000191690555b600160a060020a038116600090815260208052604090205460ff1660281415612b1f57600160a060020a03811660009081526020805260409020805460ff191660281790555b600160a060020a038116600090815260208052604090205460326201000090910460ff1611156115f057600160a060020a038116600090815260208052604090208054601c805462ff000019166032620100009384900460ff908116919091048116840291909117918290559254612ba1939290910482169116602803613387565b601c805460ff928316630100000090810263ff0000001990921691909117808355600160a060020a03851660009081526020805260409020805460ff198116908616928490048616929092018516919091178155915404909116603202906002612a10565b6000805460a060020a900460ff1615612c1e57600080fd5b601a5482811515612c2b57fe5b04601881905515612c43576018548203601755612c4c565b60001982016017555b505060175490565b6000805460a060020a900460ff1615612c6c57600080fd5b601a5483811515612c7957fe5b04601855600160a060020a0382166000908152602080526040902054601c805466ff000000000000191660ff92831666010000000000009081029190911791829055900416612cc98360026133a5565b612cd2846134b3565b601c805465ff0000000000191665010000000000929093019390930160ff90811682029290921792839055606492041611801590612d205750601c54605a6501000000000090910460ff1610155b15612d3357601854600a90600902046014555b601c54605a6501000000000090910460ff16108015612d625750601c5460506501000000000090910460ff1610155b15612d7557601854600a90600802046014555b601c5460506501000000000090910460ff16108015612da45750601c5460466501000000000090910460ff1610155b15612db757601854600a90600702046014555b601c5460466501000000000090910460ff16108015612de65750601c54603c6501000000000090910460ff1610155b15612df957601854600a90600602046014555b601c54603c6501000000000090910460ff16108015612e285750601c5460326501000000000090910460ff1610155b15612e3b57601854600a90600502046014555b601c5460326501000000000090910460ff16108015612e6a5750601c5460286501000000000090910460ff1610155b15612e7d57601854600a90600402046014555b601c5460286501000000000090910460ff16108015612eac5750601c54601e6501000000000090910460ff1610155b15612ebf57601854600a90600302046014555b601c54601e6501000000000090910460ff16108015612eee5750601c5460146501000000000090910460ff1610155b15612f0157601854600a90600202046014555b601c5460146501000000000090910460ff16108015612f305750601c54600a6501000000000090910460ff1610155b15612f4057601854600a90046014555b601c54600a6501000000000090910460ff16108015612f6f5750601c5460006501000000000090910460ff1610155b15612f7a5760006014555b5060145492915050565b6000805460a060020a900460ff1615612f9c57600080fd5b60195484811515612fa957fe5b04601555612fb682613584565b612fc18460016133a5565b612fca856135d6565b612fd3866136a4565b010101601c60046101000a81548160ff021916908360ff1602179055506064601c60049054906101000a900460ff1660ff16111580156130225750601c54605a64010000000090910460ff1610155b1561303557601554600a90600902046013555b601c54605a64010000000090910460ff161080156130625750601c54605064010000000090910460ff1610155b1561307557601554600a90600802046013555b601c54605064010000000090910460ff161080156130a25750601c54604664010000000090910460ff1610155b156130b557601554600a90600702046013555b601c54604664010000000090910460ff161080156130e25750601c54603c64010000000090910460ff1610155b156130f557601554600a90600602046013555b601c54603c64010000000090910460ff161080156131225750601c54603264010000000090910460ff1610155b1561313557601554600a90600502046013555b601c54603264010000000090910460ff161080156131625750601c54602864010000000090910460ff1610155b1561317557601554600a90600402046013555b601c54602864010000000090910460ff161080156131a25750601c54601e64010000000090910460ff1610155b156131b557601554600a90600302046013555b601c54601e64010000000090910460ff161080156131e25750601c54601464010000000090910460ff1610155b156131f557601554600a90600202046013555b601c54601464010000000090910460ff161080156132225750601c54600a64010000000090910460ff1610155b1561323257601554600a90046013555b601c54600a64010000000090910460ff1610801561325f5750601c54600064010000000090910460ff1610155b1561326a5760006013555b506013549392505050565b60005460a060020a900460ff161561328c57600080fd5b6107d082106118415780600114156132be57600160a060020a0383166000908152601d60205260409020805460010190555b8060021415611841575050600160a060020a03166000908152601e6020526040902080546001019055565b60005460a060020a900460ff161561330057600080fd5b806001141561332857600160a060020a03831660009081526021602052604090208054830190555b806002141561184157600160a060020a0383166000908152602260205260409020805483019055505050565b60005460a060020a900460ff161561336b57600080fd5b600160a060020a03166000908152601f60205260409020429055565b60008160ff168360ff161061339c578161339e565b825b9392505050565b6000805460a060020a900460ff16156133bd57600080fd5b81600114156133e357600160a060020a0383166000908152602160205260409020546010555b816002141561340957600160a060020a0383166000908152602260205260409020546010555b6010546301312d001161341e575060146110c5565b6301312d006010541080156134385750621e848060105410155b156134455750600f6110c5565b621e848060105410801561345e575062030d4060105410155b1561346b5750600a6110c5565b62030d406010541080156134835750614e2060105410155b15613490575060056110c5565b614e206010541080156134a65750600060105410155b156110c5575060006110c5565b6000805460a060020a900460ff16156134cb57600080fd5b600160a060020a0382166000908152601e60205260409020546012819055612710116134f95750602861118f565b61271060125410801561351057506103e860125410155b1561351d5750601e61118f565b6103e86012541080156135335750606460125410155b156135405750601461118f565b60646012541080156135555750600a60125410155b156135625750600a61118f565b600a6012541080156135775750600060125410155b1561118f5750600061118f565b6000805460a060020a900460ff161561359c57600080fd5b60ff821615156135ae5750600a61118f565b8160ff16600114156135c25750601461118f565b8160ff166002141561118f5750601e61118f565b6000805460a060020a900460ff16156135ee57600080fd5b600160a060020a0382166000908152601d602052604090205460118190556127101161361c5750601461118f565b61271060115410801561363357506103e860115410155b156136405750600f61118f565b6103e86011541080156136565750606460115410155b156136635750600a61118f565b60646011541080156136785750600a60115410155b156136855750600561118f565b600a601154108015613577575060115460001161118f5750600061118f565b6000805460a060020a900460ff16156136bc57600080fd5b600160a060020a0382166000908152601f6020526040902054600e8190554203600f8190556276a700116136f25750600061118f565b600f546276a70011801561370b575062278d00600f5410155b156137185750600a61118f565b62278d00600f541080156137315750600f546203f48011155b1561373e5750601461118f565b600f546203f48011801561375557506000600f5410155b1561118f5750601e61118f565b50805460008255906000526020600020908101906115f091906138ea565b8280548282559060005260206000209081019282156137e2579160200282015b828111156137e2578251825473ffffffffffffffffffffffffffffffffffffffff1916600160a060020a039091161782556020909201916001909101906137a0565b506137ee929150613904565b5090565b6040805160c081018252600080825260208201819052918101829052606081018290526080810182905260a081019190915290565b604080516101208101825260008082526060602083018190529282018390529181018290526080810182905260a0810182905260c0810182905260e0810182905261010081019190915290565b828054600181600116156101000203166002900490600052602060002090601f016020900481019282601f106138b557805160ff19168380011785556138e2565b828001600101855582156138e2579182015b828111156138e25782518255916020019190600101906138c7565b506137ee9291505b61119891905b808211156137ee57600081556001016138f0565b61119891905b808211156137ee57805473ffffffffffffffffffffffffffffffffffffffff1916815560010161390a56fea165627a7a72305820a72ecaa9849c68ec415011bd9d03264b9d9ec23d060f7ef2c8d5ae25ed1d5e9a0029",
  "source": "pragma solidity ^0.5.0;\r\n\r\nimport './transaction.sol';\r\n\r\ncontract TxControl is transaction {\r\n    \r\n    struct txSave{  \r\n        address buyer;  \r\n        address seller;  \r\n        uint8 txType; \r\n        bool txStatus; \r\n        uint256 value;  \r\n        uint8 buyerGrade;  \r\n    } \r\n    struct txSaveRealTime{  \r\n        address buyer;  \r\n        string ipOrEigenvalues;  \r\n        string publicKeyCheck;  \r\n        bool txStatus;  \r\n        uint256 value;  \r\n        uint32 accountsNumber;  \r\n        uint8 buyerGrade; \r\n        uint64 duration;  \r\n        uint256 buyerId;\r\n    }\r\n\r\n    mapping(address => address[]) public collectionAddress;  \r\n    address owner = msg.sender;\r\n    txSave[] txList;  \r\n    txSaveRealTime[] txRealTimeList;  \r\n    event addTx(address seller, uint256[] fileNUmberList, string publicKeyCheck);  //\r\n    event addRealTimeTx(uint256 buyerId, string publicKeyCheck, string ipOrEigenvalues, uint64 duration);\r\n    event confirmTx(uint256 i); \r\n    event confirmRealTimeTx(uint256 i); \r\n\r\n    modifier onlyOwnerTx(uint256 i){  \r\n        require(owner == msg.sender);\r\n        require(!txList[i].txStatus);\r\n        _;\r\n    }\r\n\r\n    modifier onlyOwnerRealTimeTx(uint256 i){  \r\n        require(owner == msg.sender);\r\n        require(!txRealTimeList[i].txStatus);\r\n        _;\r\n    }\r\n\r\n    /*modifier checkBalanceOfBuyData(address buyer, uint256 value){\r\n        require(_balances[buyer] > value);\r\n        _;\r\n    }\r\n\r\n    modifier checkBalanceOfBuyRealTimeData(address buyer, uint256 value, uint32 accountsNumber){\r\n        require(_balances[buyer] > value * accountsNumber);\r\n        _;\r\n    } */\r\n\r\n    function () payable external { } \r\n    \r\n   /* function checkDataTxOwner(address buyer, uint256 i) public view returns(bool){\r\n        if(buyer == txList[i].buyer){\r\n            return true;\r\n        }\r\n        else{\r\n            return false;\r\n        }\r\n    } */\r\n\r\n    function buyData(address _seller, uint8 _txType, uint256 _value, uint8 _buyerGrade) public returns(uint256){\r\n        txSave memory txData = txSave({\r\n            buyer: msg.sender,\r\n            seller: _seller,\r\n            txType: _txType,\r\n            txStatus: false,\r\n            value: _value,\r\n            buyerGrade: _buyerGrade\r\n        });\r\n        txList.push(txData);\r\n        beforeDataTransaction(msg.sender, _value, _seller);\r\n        return txList.length - 1;\r\n    } \r\n\r\n    function refundData(uint256 i) public onlyOwnerTx(i) {\r\n        dataTransactionRefund(txList[i].buyer,txList[i].seller, txList[i].value);\r\n    }\r\n\r\n    function makeSureTx(uint256 i) public onlyOwnerTx(i){\r\n        afterDataTransaction(txList[i].buyer,txList[i].seller, txList[i].value, txList[i].buyerGrade);\r\n        emit confirmTx(i);\r\n    }\r\n\r\n   /* function checkRealTimeTxOwner(address buyer, uint256 i) public view returns(bool){\r\n        if(buyer == txRealTimeList[i].buyer){\r\n            return true;\r\n        }else{\r\n            return false;\r\n        }\r\n    } */\r\n\r\n    function buyRealTimeData(uint256 nonce, string memory _publicKeyCheck, string memory _ipOrEigenvalues, uint256 _value, uint32 _accountsNumber, uint8 _buyerGrade, uint64 _duration, uint256 _buyerId) public returns(uint256, uint256){\r\n        txSaveRealTime memory txRealTimeData = txSaveRealTime({\r\n            buyer: msg.sender,\r\n            publicKeyCheck: _publicKeyCheck,\r\n            ipOrEigenvalues: _ipOrEigenvalues,\r\n            txStatus: false,\r\n            value: _value,\r\n            accountsNumber: _accountsNumber,\r\n            buyerGrade: _buyerGrade,\r\n            duration: _duration,\r\n            buyerId: _buyerId\r\n        });\r\n        txRealTimeList.push(txRealTimeData);\r\n        beforeRealTimeTransaction(_accountsNumber,_value, msg.sender );\r\n        emit addRealTimeTx(_buyerId, _publicKeyCheck, _ipOrEigenvalues, _duration);\r\n        return (txRealTimeList.length - 1, nonce);\r\n    }\r\n\r\n    function setAddress(address[] memory addressList) public {\r\n        collectionAddress[msg.sender] = addressList;\r\n    }\r\n\r\n    function makeSureRealTimeTx(uint256 i) public onlyOwnerRealTimeTx(i){\r\n        afterRealTimeTransaction(msg.sender, collectionAddress[msg.sender], txRealTimeList[i].value, txRealTimeList[i].buyerGrade);\r\n        delete collectionAddress[msg.sender];\r\n        emit confirmRealTimeTx(i);\r\n    }\r\n\r\n    function refundRealTime(uint256 i) public onlyOwnerRealTimeTx(i) {\r\n        realTimeTransactionRefund(txRealTimeList[i].buyer, collectionAddress[msg.sender], txRealTimeList[i].value);\r\n    }  \r\n}",
  "sourcePath": "G:/ControlSolidity/contracts/TxControl.sol",
  "compiler": {
    "name": "solc",
    "version": "0.5.0+commit.1d4f565a.Emscripten.clang"
  },
  "schemaVersion": "3.0.5",
  "updatedAt": "2019-05-03T02:40:27.110Z",
  "devdoc": {
    "methods": {}
  },
  "userdoc": {
    "methods": {}
  }
}