{
  "contractName": "TxControl",
  "abi": [
    {
      "constant": true,
      "inputs": [],
      "name": "rechargePrice",
      "outputs": [
        {
          "name": "",
          "type": "uint256"
        }
      ],
      "payable": false,
      "stateMutability": "view",
      "type": "function",
      "signature": "0x02b090c1"
    },
    {
      "constant": false,
      "inputs": [
        {
          "name": "_from",
          "type": "address"
        },
        {
          "name": "_to",
          "type": "address[]"
        },
        {
          "name": "value",
          "type": "uint256"
        }
      ],
      "name": "realTimeTransactionRefund",
      "outputs": [],
      "payable": false,
      "stateMutability": "nonpayable",
      "type": "function",
      "signature": "0x04a85dfa"
    },
    {
      "constant": false,
      "inputs": [
        {
          "name": "newwithdrawPrice",
          "type": "uint256"
        },
        {
          "name": "newrechargePrice",
          "type": "uint256"
        }
      ],
      "name": "setPrices",
      "outputs": [],
      "payable": false,
      "stateMutability": "nonpayable",
      "type": "function",
      "signature": "0x05fefda7"
    },
    {
      "constant": true,
      "inputs": [],
      "name": "name",
      "outputs": [
        {
          "name": "",
          "type": "string"
        }
      ],
      "payable": false,
      "stateMutability": "view",
      "type": "function",
      "signature": "0x06fdde03"
    },
    {
      "constant": false,
      "inputs": [
        {
          "name": "_spender",
          "type": "address"
        },
        {
          "name": "_value",
          "type": "uint256"
        }
      ],
      "name": "approve",
      "outputs": [
        {
          "name": "",
          "type": "bool"
        }
      ],
      "payable": false,
      "stateMutability": "nonpayable",
      "type": "function",
      "signature": "0x095ea7b3"
    },
    {
      "constant": false,
      "inputs": [
        {
          "name": "addressNumber",
          "type": "uint256"
        },
        {
          "name": "value",
          "type": "uint256"
        },
        {
          "name": "_from",
          "type": "address"
        }
      ],
      "name": "beforeRealTimeTransaction",
      "outputs": [],
      "payable": false,
      "stateMutability": "nonpayable",
      "type": "function",
      "signature": "0x15666013"
    },
    {
      "constant": true,
      "inputs": [],
      "name": "totalSupply",
      "outputs": [
        {
          "name": "",
          "type": "uint256"
        }
      ],
      "payable": false,
      "stateMutability": "view",
      "type": "function",
      "signature": "0x18160ddd"
    },
    {
      "constant": false,
      "inputs": [
        {
          "name": "_from",
          "type": "address"
        },
        {
          "name": "_to",
          "type": "address"
        },
        {
          "name": "totalprice",
          "type": "uint256"
        },
        {
          "name": "buyergrade",
          "type": "uint8"
        }
      ],
      "name": "afterDataTransaction",
      "outputs": [],
      "payable": false,
      "stateMutability": "nonpayable",
      "type": "function",
      "signature": "0x1ee71c71"
    },
    {
      "constant": false,
      "inputs": [
        {
          "name": "_from",
          "type": "address"
        },
        {
          "name": "_to",
          "type": "address"
        },
        {
          "name": "_value",
          "type": "uint256"
        }
      ],
      "name": "transferFrom",
      "outputs": [
        {
          "name": "",
          "type": "bool"
        }
      ],
      "payable": false,
      "stateMutability": "nonpayable",
      "type": "function",
      "signature": "0x23b872dd"
    },
    {
      "constant": true,
      "inputs": [
        {
          "name": "who",
          "type": "address"
        }
      ],
      "name": "LastbuytimeOnlyOwner",
      "outputs": [
        {
          "name": "",
          "type": "uint256"
        }
      ],
      "payable": false,
      "stateMutability": "view",
      "type": "function",
      "signature": "0x286ad860"
    },
    {
      "constant": false,
      "inputs": [
        {
          "name": "amount",
          "type": "uint256"
        }
      ],
      "name": "withdraw",
      "outputs": [],
      "payable": false,
      "stateMutability": "nonpayable",
      "type": "function",
      "signature": "0x2e1a7d4d"
    },
    {
      "constant": true,
      "inputs": [
        {
          "name": "i",
          "type": "uint256"
        }
      ],
      "name": "TotalbuyerpaymenORsellercollection",
      "outputs": [
        {
          "name": "",
          "type": "uint256"
        }
      ],
      "payable": false,
      "stateMutability": "view",
      "type": "function",
      "signature": "0x2f15ce7e"
    },
    {
      "constant": true,
      "inputs": [],
      "name": "decimals",
      "outputs": [
        {
          "name": "",
          "type": "uint8"
        }
      ],
      "payable": false,
      "stateMutability": "view",
      "type": "function",
      "signature": "0x313ce567"
    },
    {
      "constant": true,
      "inputs": [],
      "name": "initialSupply",
      "outputs": [
        {
          "name": "",
          "type": "uint256"
        }
      ],
      "payable": false,
      "stateMutability": "view",
      "type": "function",
      "signature": "0x378dc3dc"
    },
    {
      "constant": false,
      "inputs": [],
      "name": "pauseTransaction",
      "outputs": [
        {
          "name": "",
          "type": "bool"
        }
      ],
      "payable": false,
      "stateMutability": "nonpayable",
      "type": "function",
      "signature": "0x385fa147"
    },
    {
      "constant": true,
      "inputs": [],
      "name": "_totalSupply",
      "outputs": [
        {
          "name": "",
          "type": "uint256"
        }
      ],
      "payable": false,
      "stateMutability": "view",
      "type": "function",
      "signature": "0x3eaaf86b"
    },
    {
      "constant": true,
      "inputs": [
        {
          "name": "who",
          "type": "address"
        }
      ],
      "name": "balanceOfOnlyOwner",
      "outputs": [
        {
          "name": "",
          "type": "uint256"
        }
      ],
      "payable": false,
      "stateMutability": "view",
      "type": "function",
      "signature": "0x448b331b"
    },
    {
      "constant": false,
      "inputs": [],
      "name": "recharge",
      "outputs": [],
      "payable": true,
      "stateMutability": "payable",
      "type": "function",
      "signature": "0x4cddae28"
    },
    {
      "constant": true,
      "inputs": [],
      "name": "paused",
      "outputs": [
        {
          "name": "",
          "type": "bool"
        }
      ],
      "payable": false,
      "stateMutability": "view",
      "type": "function",
      "signature": "0x5c975abb"
    },
    {
      "constant": true,
      "inputs": [],
      "name": "tokenName",
      "outputs": [
        {
          "name": "",
          "type": "string"
        }
      ],
      "payable": false,
      "stateMutability": "view",
      "type": "function",
      "signature": "0x6c02a931"
    },
    {
      "constant": true,
      "inputs": [
        {
          "name": "who",
          "type": "address"
        },
        {
          "name": "i",
          "type": "uint256"
        }
      ],
      "name": "contributionvalueOnlyOwner",
      "outputs": [
        {
          "name": "",
          "type": "uint256"
        }
      ],
      "payable": false,
      "stateMutability": "view",
      "type": "function",
      "signature": "0x6c982561"
    },
    {
      "constant": true,
      "inputs": [
        {
          "name": "",
          "type": "address"
        }
      ],
      "name": "_balances",
      "outputs": [
        {
          "name": "",
          "type": "uint256"
        }
      ],
      "payable": false,
      "stateMutability": "view",
      "type": "function",
      "signature": "0x6ebcf607"
    },
    {
      "constant": true,
      "inputs": [],
      "name": "balanceOf",
      "outputs": [
        {
          "name": "",
          "type": "uint256"
        }
      ],
      "payable": false,
      "stateMutability": "view",
      "type": "function",
      "signature": "0x722713f7"
    },
    {
      "constant": true,
      "inputs": [],
      "name": "withdrawPrice",
      "outputs": [
        {
          "name": "",
          "type": "uint256"
        }
      ],
      "payable": false,
      "stateMutability": "view",
      "type": "function",
      "signature": "0x7918447e"
    },
    {
      "constant": false,
      "inputs": [
        {
          "name": "target",
          "type": "address"
        },
        {
          "name": "mintedAmount",
          "type": "uint256"
        }
      ],
      "name": "mintToken",
      "outputs": [],
      "payable": false,
      "stateMutability": "nonpayable",
      "type": "function",
      "signature": "0x79c65068"
    },
    {
      "constant": true,
      "inputs": [],
      "name": "tokenSymbol",
      "outputs": [
        {
          "name": "",
          "type": "string"
        }
      ],
      "payable": false,
      "stateMutability": "view",
      "type": "function",
      "signature": "0x7b61c320"
    },
    {
      "constant": false,
      "inputs": [
        {
          "name": "_from",
          "type": "address"
        },
        {
          "name": "_to",
          "type": "address"
        },
        {
          "name": "totalprice",
          "type": "uint256"
        }
      ],
      "name": "dataTransactionRefund",
      "outputs": [],
      "payable": false,
      "stateMutability": "nonpayable",
      "type": "function",
      "signature": "0x7c28248c"
    },
    {
      "constant": true,
      "inputs": [
        {
          "name": "",
          "type": "address"
        },
        {
          "name": "",
          "type": "uint256"
        }
      ],
      "name": "collectionAddress",
      "outputs": [
        {
          "name": "",
          "type": "address"
        }
      ],
      "payable": false,
      "stateMutability": "view",
      "type": "function",
      "signature": "0x7d520ea6"
    },
    {
      "constant": true,
      "inputs": [
        {
          "name": "account",
          "type": "address"
        }
      ],
      "name": "ifAccountFrozen",
      "outputs": [
        {
          "name": "",
          "type": "bool"
        }
      ],
      "payable": false,
      "stateMutability": "view",
      "type": "function",
      "signature": "0x7fed80bb"
    },
    {
      "constant": true,
      "inputs": [],
      "name": "heyueYitaibi",
      "outputs": [
        {
          "name": "",
          "type": "uint256"
        }
      ],
      "payable": false,
      "stateMutability": "view",
      "type": "function",
      "signature": "0x863e4299"
    },
    {
      "constant": true,
      "inputs": [],
      "name": "owner",
      "outputs": [
        {
          "name": "",
          "type": "address"
        }
      ],
      "payable": false,
      "stateMutability": "view",
      "type": "function",
      "signature": "0x8da5cb5b"
    },
    {
      "constant": false,
      "inputs": [
        {
          "name": "newfeeProportion",
          "type": "uint256"
        },
        {
          "name": "newcommissionProportion",
          "type": "uint256"
        }
      ],
      "name": "setProportion",
      "outputs": [],
      "payable": false,
      "stateMutability": "nonpayable",
      "type": "function",
      "signature": "0x91bbf434"
    },
    {
      "constant": true,
      "inputs": [],
      "name": "Lastbuytime",
      "outputs": [
        {
          "name": "",
          "type": "uint256"
        }
      ],
      "payable": false,
      "stateMutability": "view",
      "type": "function",
      "signature": "0x92fb7174"
    },
    {
      "constant": false,
      "inputs": [],
      "name": "unpauseTransaction",
      "outputs": [
        {
          "name": "",
          "type": "bool"
        }
      ],
      "payable": false,
      "stateMutability": "nonpayable",
      "type": "function",
      "signature": "0x93faa450"
    },
    {
      "constant": true,
      "inputs": [],
      "name": "symbol",
      "outputs": [
        {
          "name": "",
          "type": "string"
        }
      ],
      "payable": false,
      "stateMutability": "view",
      "type": "function",
      "signature": "0x95d89b41"
    },
    {
      "constant": false,
      "inputs": [
        {
          "name": "_to",
          "type": "address"
        },
        {
          "name": "totalprice",
          "type": "uint256"
        },
        {
          "name": "_from",
          "type": "address"
        }
      ],
      "name": "beforeDataTransaction",
      "outputs": [],
      "payable": false,
      "stateMutability": "nonpayable",
      "type": "function",
      "signature": "0x9bab5e49"
    },
    {
      "constant": false,
      "inputs": [
        {
          "name": "_to",
          "type": "address"
        },
        {
          "name": "_value",
          "type": "uint256"
        }
      ],
      "name": "transfer",
      "outputs": [
        {
          "name": "",
          "type": "bool"
        }
      ],
      "payable": false,
      "stateMutability": "nonpayable",
      "type": "function",
      "signature": "0xa9059cbb"
    },
    {
      "constant": true,
      "inputs": [
        {
          "name": "",
          "type": "address"
        }
      ],
      "name": "frozenAccount",
      "outputs": [
        {
          "name": "",
          "type": "bool"
        }
      ],
      "payable": false,
      "stateMutability": "view",
      "type": "function",
      "signature": "0xb414d4b6"
    },
    {
      "constant": true,
      "inputs": [
        {
          "name": "",
          "type": "address"
        },
        {
          "name": "",
          "type": "address"
        }
      ],
      "name": "_allowed",
      "outputs": [
        {
          "name": "",
          "type": "uint256"
        }
      ],
      "payable": false,
      "stateMutability": "view",
      "type": "function",
      "signature": "0xba0fb861"
    },
    {
      "constant": true,
      "inputs": [
        {
          "name": "i",
          "type": "uint256"
        }
      ],
      "name": "Sellercredit",
      "outputs": [
        {
          "name": "",
          "type": "uint256"
        }
      ],
      "payable": false,
      "stateMutability": "view",
      "type": "function",
      "signature": "0xc2d6a0b3"
    },
    {
      "constant": true,
      "inputs": [
        {
          "name": "who",
          "type": "address"
        },
        {
          "name": "i",
          "type": "uint256"
        }
      ],
      "name": "SellercreditOnlyOwner",
      "outputs": [
        {
          "name": "",
          "type": "uint256"
        }
      ],
      "payable": false,
      "stateMutability": "view",
      "type": "function",
      "signature": "0xcea601e6"
    },
    {
      "constant": false,
      "inputs": [],
      "name": "transferHeyue",
      "outputs": [],
      "payable": true,
      "stateMutability": "payable",
      "type": "function",
      "signature": "0xceaf7fb2"
    },
    {
      "constant": true,
      "inputs": [
        {
          "name": "i",
          "type": "uint256"
        }
      ],
      "name": "contributionvalue",
      "outputs": [
        {
          "name": "",
          "type": "uint256"
        }
      ],
      "payable": false,
      "stateMutability": "view",
      "type": "function",
      "signature": "0xd59f70be"
    },
    {
      "constant": true,
      "inputs": [
        {
          "name": "owner",
          "type": "address"
        },
        {
          "name": "spender",
          "type": "address"
        }
      ],
      "name": "allowance",
      "outputs": [
        {
          "name": "",
          "type": "uint256"
        }
      ],
      "payable": false,
      "stateMutability": "view",
      "type": "function",
      "signature": "0xdd62ed3e"
    },
    {
      "constant": false,
      "inputs": [
        {
          "name": "target",
          "type": "address"
        },
        {
          "name": "freeze",
          "type": "bool"
        }
      ],
      "name": "freezeAccount",
      "outputs": [],
      "payable": false,
      "stateMutability": "nonpayable",
      "type": "function",
      "signature": "0xe724529c"
    },
    {
      "constant": false,
      "inputs": [
        {
          "name": "_from",
          "type": "address"
        },
        {
          "name": "_to",
          "type": "address[]"
        },
        {
          "name": "value",
          "type": "uint256"
        },
        {
          "name": "buyergrade",
          "type": "uint8"
        }
      ],
      "name": "afterRealTimeTransaction",
      "outputs": [],
      "payable": false,
      "stateMutability": "nonpayable",
      "type": "function",
      "signature": "0xe764c6e1"
    },
    {
      "constant": false,
      "inputs": [],
      "name": "heyueTixian",
      "outputs": [],
      "payable": false,
      "stateMutability": "nonpayable",
      "type": "function",
      "signature": "0xeef71d6f"
    },
    {
      "constant": false,
      "inputs": [
        {
          "name": "newOwner",
          "type": "address"
        }
      ],
      "name": "transferOwnership",
      "outputs": [],
      "payable": false,
      "stateMutability": "nonpayable",
      "type": "function",
      "signature": "0xf2fde38b"
    },
    {
      "constant": true,
      "inputs": [],
      "name": "amount1",
      "outputs": [
        {
          "name": "",
          "type": "uint256"
        }
      ],
      "payable": false,
      "stateMutability": "view",
      "type": "function",
      "signature": "0xf400fde4"
    },
    {
      "constant": true,
      "inputs": [
        {
          "name": "who",
          "type": "address"
        },
        {
          "name": "i",
          "type": "uint256"
        }
      ],
      "name": "TotalbuyerpaymenORsellercollectionOnlyOwner",
      "outputs": [
        {
          "name": "",
          "type": "uint256"
        }
      ],
      "payable": false,
      "stateMutability": "view",
      "type": "function",
      "signature": "0xfdb38bcd"
    },
    {
      "payable": true,
      "stateMutability": "payable",
      "type": "fallback"
    },
    {
      "anonymous": false,
      "inputs": [
        {
          "indexed": false,
          "name": "seller",
          "type": "address"
        },
        {
          "indexed": false,
          "name": "fileNUmberList",
          "type": "uint256[]"
        },
        {
          "indexed": false,
          "name": "publicKeyCheck",
          "type": "string"
        }
      ],
      "name": "addTx",
      "type": "event",
      "signature": "0xc3eebc9cdbc07130e15fe44f4d0b5fbeeb52cb0be98e0282c4249ec6657996b1"
    },
    {
      "anonymous": false,
      "inputs": [
        {
          "indexed": false,
          "name": "buyerId",
          "type": "uint256"
        },
        {
          "indexed": false,
          "name": "publicKeyCheck",
          "type": "string"
        },
        {
          "indexed": false,
          "name": "ipOrEigenvalues",
          "type": "string"
        },
        {
          "indexed": false,
          "name": "duration",
          "type": "uint64"
        }
      ],
      "name": "addRealTimeTx",
      "type": "event",
      "signature": "0x1a32be2704981bde44de8613f56d25e84735c7435c934716c334b2cb00335b1c"
    },
    {
      "anonymous": false,
      "inputs": [
        {
          "indexed": false,
          "name": "i",
          "type": "uint256"
        }
      ],
      "name": "confirmTx",
      "type": "event",
      "signature": "0x801be060160611f44999389892b6b79359677ff2d431948a5c8b5a80e14a1ff8"
    },
    {
      "anonymous": false,
      "inputs": [
        {
          "indexed": false,
          "name": "i",
          "type": "uint256"
        }
      ],
      "name": "confirmRealTimeTx",
      "type": "event",
      "signature": "0x8b83e47b1af3f949d67804a4ab493fded8198468172c75006b4c7da507345c74"
    },
    {
      "anonymous": false,
      "inputs": [
        {
          "indexed": false,
          "name": "target",
          "type": "address"
        },
        {
          "indexed": false,
          "name": "success",
          "type": "bool"
        }
      ],
      "name": "SuccessFunds",
      "type": "event",
      "signature": "0x4656763aeb5076063b1b9201e728e03b650c4e545b46330125af5d01c01fae56"
    },
    {
      "anonymous": false,
      "inputs": [
        {
          "indexed": true,
          "name": "from",
          "type": "address"
        },
        {
          "indexed": true,
          "name": "to",
          "type": "address"
        },
        {
          "indexed": false,
          "name": "value",
          "type": "uint256"
        }
      ],
      "name": "Transfer",
      "type": "event",
      "signature": "0xddf252ad1be2c89b69c2b068fc378daa952ba7f163c4a11628f55a4df523b3ef"
    },
    {
      "anonymous": false,
      "inputs": [
        {
          "indexed": false,
          "name": "target",
          "type": "address"
        },
        {
          "indexed": false,
          "name": "frozen",
          "type": "bool"
        }
      ],
      "name": "FrozenFunds",
      "type": "event",
      "signature": "0x48335238b4855f35377ed80f164e8c6f3c366e54ac00b96a6402d4a9814a03a5"
    },
    {
      "anonymous": false,
      "inputs": [],
      "name": "Pause",
      "type": "event",
      "signature": "0x6985a02210a168e66602d3235cb6db0e70f92b3ba4d376a33c0f3d9434bff625"
    },
    {
      "anonymous": false,
      "inputs": [],
      "name": "Unpause",
      "type": "event",
      "signature": "0x7805862f689e2f13df9f062ff482ad3ad112aca9e0847911ed832e158c525b33"
    },
    {
      "constant": false,
      "inputs": [
        {
          "name": "_seller",
          "type": "address"
        },
        {
          "name": "_txType",
          "type": "uint8"
        },
        {
          "name": "_value",
          "type": "uint256"
        },
        {
          "name": "_buyerGrade",
          "type": "uint8"
        }
      ],
      "name": "buyData",
      "outputs": [
        {
          "name": "",
          "type": "uint256"
        }
      ],
      "payable": false,
      "stateMutability": "nonpayable",
      "type": "function",
      "signature": "0xb60d3b1d"
    },
    {
      "constant": false,
      "inputs": [
        {
          "name": "i",
          "type": "uint256"
        }
      ],
      "name": "refundData",
      "outputs": [],
      "payable": false,
      "stateMutability": "nonpayable",
      "type": "function",
      "signature": "0x4b160ef7"
    },
    {
      "constant": false,
      "inputs": [
        {
          "name": "i",
          "type": "uint256"
        }
      ],
      "name": "makeSureTx",
      "outputs": [],
      "payable": false,
      "stateMutability": "nonpayable",
      "type": "function",
      "signature": "0x9ee66913"
    },
    {
      "constant": false,
      "inputs": [
        {
          "name": "nonce",
          "type": "uint256"
        },
        {
          "name": "_publicKeyCheck",
          "type": "string"
        },
        {
          "name": "_ipOrEigenvalues",
          "type": "string"
        },
        {
          "name": "_value",
          "type": "uint256"
        },
        {
          "name": "_accountsNumber",
          "type": "uint32"
        },
        {
          "name": "_buyerGrade",
          "type": "uint8"
        },
        {
          "name": "_duration",
          "type": "uint64"
        },
        {
          "name": "_buyerId",
          "type": "uint256"
        }
      ],
      "name": "buyRealTimeData",
      "outputs": [
        {
          "name": "",
          "type": "uint256"
        },
        {
          "name": "",
          "type": "uint256"
        }
      ],
      "payable": false,
      "stateMutability": "nonpayable",
      "type": "function",
      "signature": "0xd19d49f9"
    },
    {
      "constant": false,
      "inputs": [
        {
          "name": "addressList",
          "type": "address[]"
        }
      ],
      "name": "setAddress",
      "outputs": [],
      "payable": false,
      "stateMutability": "nonpayable",
      "type": "function",
      "signature": "0xa354d3f6"
    },
    {
      "constant": false,
      "inputs": [
        {
          "name": "i",
          "type": "uint256"
        }
      ],
      "name": "makeSureRealTimeTx",
      "outputs": [],
      "payable": false,
      "stateMutability": "nonpayable",
      "type": "function",
      "signature": "0x9e8c9a40"
    },
    {
      "constant": false,
      "inputs": [
        {
          "name": "i",
          "type": "uint256"
        }
      ],
      "name": "refundRealTime",
      "outputs": [],
      "payable": false,
      "stateMutability": "nonpayable",
      "type": "function",
      "signature": "0xfcbd7ae2"
    }
  ],
  "bytecode": "0x6000805460a060020a60ff02191690556003805460ff191660121790556009600555600a600655620186a060075560c0604052600260808190527f657200000000000000000000000000000000000000000000000000000000000060a09081526200006e916008919062000154565b506040805180820190915260018082527f65000000000000000000000000000000000000000000000000000000000000006020909201918252620000b59160099162000154565b506103e86019556064601a556024805433600160a060020a0319918216811790925560008054909116909117815560035460075460ff909116600a0a026004819055308252600b602052604090912055600880546200012991600191600261010082851615026000190190911604620001d9565b50600980546200014d916002916000196101006001831615020116829004620001d9565b5062000273565b828054600181600116156101000203166002900490600052602060002090601f016020900481019282601f106200019757805160ff1916838001178555620001c7565b82800160010185558215620001c7579182015b82811115620001c7578251825591602001919060010190620001aa565b50620001d592915062000253565b5090565b828054600181600116156101000203166002900490600052602060002090601f016020900481019282601f10620002145780548555620001c7565b82800160010185558215620001c757600052602060002091601f016020900482015b82811115620001c757825482559160010191906001019062000236565b6200027091905b80821115620001d557600081556001016200025a565b90565b613c2b80620002836000396000f3fe6080604052600436106102a85763ffffffff7c010000000000000000000000000000000000000000000000000000000060003504166302b090c181146102aa57806304a85dfa146102d157806305fefda71461039357806306fdde03146103c3578063095ea7b31461044d578063156660131461049a57806318160ddd146104d95780631ee71c71146104ee57806323b872dd1461053b578063286ad8601461057e5780632e1a7d4d146105b15780632f15ce7e146105db578063313ce56714610605578063378dc3dc14610630578063385fa147146106455780633eaaf86b1461065a578063448b331b1461066f5780634b160ef7146106a25780634cddae28146106cc5780635c975abb146106d45780636c02a931146106e95780636c982561146106fe5780636ebcf60714610737578063722713f71461076a5780637918447e1461077f57806379c65068146107945780637b61c320146107cd5780637c28248c146107e25780637d520ea6146108255780637fed80bb1461087a578063863e4299146108ad5780638da5cb5b146108c257806391bbf434146108d757806392fb71741461090757806393faa4501461091c57806395d89b41146109315780639bab5e49146109465780639e8c9a40146109895780639ee66913146109b3578063a354d3f6146109dd578063a9059cbb14610a8d578063b414d4b614610ac6578063b60d3b1d14610af9578063ba0fb86114610b45578063c2d6a0b314610b80578063cea601e614610baa578063ceaf7fb214610be3578063d19d49f914610beb578063d59f70be14610d70578063dd62ed3e14610d9a578063e724529c14610dd5578063e764c6e114610e10578063eef71d6f14610ed8578063f2fde38b14610eed578063f400fde414610f20578063fcbd7ae214610f35578063fdb38bcd14610f5f575b005b3480156102b657600080fd5b506102bf610f98565b60408051918252519081900360200190f35b3480156102dd57600080fd5b506102a8600480360360608110156102f457600080fd5b600160a060020a03823516919081019060408101602082013564010000000081111561031f57600080fd5b82018360208201111561033157600080fd5b8035906020019184602083028401116401000000008311171561035357600080fd5b9190808060200260200160405190810160405280939291908181526020018383602002808284376000920191909152509295505091359250610f9e915050565b34801561039f57600080fd5b506102a8600480360360408110156103b657600080fd5b5080359060200135611056565b3480156103cf57600080fd5b506103d861109a565b6040805160208082528351818301528351919283929083019185019080838360005b838110156104125781810151838201526020016103fa565b50505050905090810190601f16801561043f5780820380516001836020036101000a031916815260200191505b509250505060405180910390f35b34801561045957600080fd5b506104866004803603604081101561047057600080fd5b50600160a060020a038135169060200135611127565b604080519115158252519081900360200190f35b3480156104a657600080fd5b506102a8600480360360608110156104bd57600080fd5b5080359060208101359060400135600160a060020a031661118a565b3480156104e557600080fd5b506102bf611234565b3480156104fa57600080fd5b506102a86004803603608081101561051157600080fd5b508035600160a060020a03908116916020810135909116906040810135906060013560ff1661123b565b34801561054757600080fd5b506104866004803603606081101561055e57600080fd5b50600160a060020a038135811691602081013590911690604001356112f4565b34801561058a57600080fd5b506102bf600480360360208110156105a157600080fd5b5035600160a060020a03166113fa565b3480156105bd57600080fd5b506102a8600480360360208110156105d457600080fd5b5035611432565b3480156105e757600080fd5b506102bf600480360360208110156105fe57600080fd5b5035611496565b34801561061157600080fd5b5061061a6114d6565b6040805160ff9092168252519081900360200190f35b34801561063c57600080fd5b506102bf6114df565b34801561065157600080fd5b506104866114e5565b34801561066657600080fd5b506102bf611565565b34801561067b57600080fd5b506102bf6004803603602081101561069257600080fd5b5035600160a060020a031661156b565b3480156106ae57600080fd5b506102a8600480360360208110156106c557600080fd5b503561159f565b6102a86116b5565b3480156106e057600080fd5b506104866116ec565b3480156106f557600080fd5b506103d86116fc565b34801561070a57600080fd5b506102bf6004803603604081101561072157600080fd5b50600160a060020a038135169060200135611757565b34801561074357600080fd5b506102bf6004803603602081101561075a57600080fd5b5035600160a060020a03166117bf565b34801561077657600080fd5b506102bf6117d1565b34801561078b57600080fd5b506102bf6117e4565b3480156107a057600080fd5b506102a8600480360360408110156107b757600080fd5b50600160a060020a0381351690602001356117ea565b3480156107d957600080fd5b506103d86118b7565b3480156107ee57600080fd5b506102a86004803603606081101561080557600080fd5b50600160a060020a03813581169160208101359091169060400135611912565b34801561083157600080fd5b5061085e6004803603604081101561084857600080fd5b50600160a060020a038135169060200135611967565b60408051600160a060020a039092168252519081900360200190f35b34801561088657600080fd5b506104866004803603602081101561089d57600080fd5b5035600160a060020a031661199e565b3480156108b957600080fd5b506102bf6119bc565b3480156108ce57600080fd5b5061085e6119c1565b3480156108e357600080fd5b506102a8600480360360408110156108fa57600080fd5b50803590602001356119d0565b34801561091357600080fd5b506102bf611a09565b34801561092857600080fd5b50610486611a1c565b34801561093d57600080fd5b506103d8611a97565b34801561095257600080fd5b506102a86004803603606081101561096957600080fd5b50600160a060020a03813581169160208101359160409091013516611aef565b34801561099557600080fd5b506102a8600480360360208110156109ac57600080fd5b5035611b5b565b3480156109bf57600080fd5b506102a8600480360360208110156109d657600080fd5b5035611ce1565b3480156109e957600080fd5b506102a860048036036020811015610a0057600080fd5b810190602081018135640100000000811115610a1b57600080fd5b820183602082011115610a2d57600080fd5b80359060200191846020830284011164010000000083111715610a4f57600080fd5b919080806020026020016040519081016040528093929190818152602001838360200280828437600092019190915250929550611e54945050505050565b348015610a9957600080fd5b5061048660048036036040811015610ab057600080fd5b50600160a060020a038135169060200135611e74565b348015610ad257600080fd5b5061048660048036036020811015610ae957600080fd5b5035600160a060020a0316611ea4565b348015610b0557600080fd5b506102bf60048036036080811015610b1c57600080fd5b50600160a060020a038135169060ff602082013581169160408101359160609091013516611eb9565b348015610b5157600080fd5b506102bf60048036036040811015610b6857600080fd5b50600160a060020a038135811691602001351661207b565b348015610b8c57600080fd5b506102bf60048036036020811015610ba357600080fd5b5035612098565b348015610bb657600080fd5b506102bf60048036036040811015610bcd57600080fd5b50600160a060020a0381351690602001356120ce565b6102a8612126565b348015610bf757600080fd5b50610d576004803603610100811015610c0f57600080fd5b81359190810190604081016020820135640100000000811115610c3157600080fd5b820183602082011115610c4357600080fd5b80359060200191846001830284011164010000000083111715610c6557600080fd5b91908080601f0160208091040260200160405190810160405280939291908181526020018383808284376000920191909152509295949360208101935035915050640100000000811115610cb857600080fd5b820183602082011115610cca57600080fd5b80359060200191846001830284011164010000000083111715610cec57600080fd5b91908080601f01602080910402602001604051908101604052809392919081815260200183838082843760009201919091525092955050823593505063ffffffff6020830135169160ff604082013516915067ffffffffffffffff606082013516906080013561213f565b6040805192835260208301919091528051918290030190f35b348015610d7c57600080fd5b506102bf60048036036020811015610d9357600080fd5b503561243e565b348015610da657600080fd5b506102bf60048036036040811015610dbd57600080fd5b50600160a060020a038135811691602001351661247e565b348015610de157600080fd5b506102a860048036036040811015610df857600080fd5b50600160a060020a03813516906020013515156124a9565b348015610e1c57600080fd5b506102a860048036036080811015610e3357600080fd5b600160a060020a038235169190810190604081016020820135640100000000811115610e5e57600080fd5b820183602082011115610e7057600080fd5b80359060200191846020830284011164010000000083111715610e9257600080fd5b919080806020026020016040519081016040528093929190818152602001838360200280828437600092019190915250929550508235935050506020013560ff1661253b565b348015610ee457600080fd5b506102a861268e565b348015610ef957600080fd5b506102a860048036036020811015610f1057600080fd5b5035600160a060020a0316612716565b348015610f2c57600080fd5b506102bf612771565b348015610f4157600080fd5b506102a860048036036020811015610f5857600080fd5b5035612777565b348015610f6b57600080fd5b506102bf60048036036040811015610f8257600080fd5b50600160a060020a0381351690602001356128a9565b60065481565b60005460a060020a900460ff1615610fb557600080fd5b81518102601b819055610fc790612911565b601681905550610fda308460165461295e565b60005b8251811015611050576110088382815181101515610ff757fe5b906020019060200201516001612aa9565b611028838281518110151561101957fe5b90602001906020020151612b41565b611048838281518110151561103957fe5b90602001906020020151612d09565b600101610fdd565b50505050565b600054600160a060020a0316331461106d57600080fd5b60005460a060020a900460ff161561108457600080fd5b80821161109657600582905560068190555b5050565b60018054604080516020600284861615610100026000190190941693909304601f8101849004840282018401909252818152929183018282801561111f5780601f106110f45761010080835404028352916020019161111f565b820191906000526020600020905b81548152906001019060200180831161110257829003601f168201915b505050505081565b60008054600160a060020a0316331461113f57600080fd5b60005460a060020a900460ff161561115657600080fd5b5060008054600160a060020a039081168252600c602090815260408084209286168452919052902081905560015b92915050565b60005460a060020a900460ff16156111a157600080fd5b600160a060020a0381166000908152600d602052604090205460ff16156111c757600080fd5b828202601b8190556111d890612911565b6016819055506111eb813060165461295e565b60408051600160a060020a03831681526001602082015281517f4656763aeb5076063b1b9201e728e03b650c4e545b46330125af5d01c01fae56929181900390910190a1505050565b6004545b90565b60005460a060020a900460ff161561125257600080fd5b61125b82612ed0565b6017556112688284612f1e565b6017805490910190819055611280903090859061295e565b61128b82858361324e565b60138190555061129e308560135461295e565b6112aa8483600161353f565b6112b68383600261353f565b6112c2848360016135b3565b6112ce838360026135b3565b6112d9836002612aa9565b6112e283612d09565b6112eb83612b41565b6110508461361e565b60008054600160a060020a0316331461130c57600080fd5b60005460a060020a900460ff161561132357600080fd5b60008054600160a060020a039081168252600c6020908152604080842092881684529190529020548211158061137e575060008054600160a060020a039081168252600c602090815260408084209288168452919052902054155b151561138957600080fd5b60008054600160a060020a039081168252600c602090815260408084209288168452919052902054156113e55760008054600160a060020a039081168252600c6020908152604080842092881684529190529020805483900390555b6113f084848461295e565b5060019392505050565b60008054600160a060020a0316331461141257600080fd5b50600160a060020a0381166000908152601f60205260409020545b919050565b60005460a060020a900460ff161561144957600080fd5b60055481023031101561145b57600080fd5b61146633308361295e565b6005546040513391830280156108fc02916000818181858888f19350505050158015611096573d6000803e3d6000fd5b600081600114156114b757503360009081526021602052604090205461142d565b816002141561142d57503360009081526022602052604090205461142d565b60035460ff1681565b60075481565b60008054600160a060020a031633146114fd57600080fd5b60005460a060020a900460ff161561151457600080fd5b6000805474ff0000000000000000000000000000000000000000191660a060020a1781556040517f6985a02210a168e66602d3235cb6db0e70f92b3ba4d376a33c0f3d9434bff6259190a150600190565b60045481565b60008054600160a060020a0316331461158357600080fd5b50600160a060020a03166000908152600b602052604090205490565b6024548190600160a060020a03163314806115e0575060258054829081106115c357fe5b6000918252602090912060049091020154600160a060020a031633145b15156115eb57600080fd5b60258054829081106115f957fe5b60009182526020909120600490910201600101547501000000000000000000000000000000000000000000900460ff161561163357600080fd5b61109660258381548110151561164557fe5b600091825260209091206004909102015460258054600160a060020a03909216918590811061167057fe5b600091825260209091206001600490920201015460258054600160a060020a03909216918690811061169e57fe5b906000526020600020906004020160020154611912565b60005460a060020a900460ff16156116cc57600080fd5b6000600654348115156116db57fe5b0490506116e930338361295e565b50565b60005460a060020a900460ff1681565b6008805460408051602060026001851615610100026000190190941693909304601f8101849004840282018401909252818152929183018282801561111f5780601f106110f45761010080835404028352916020019161111f565b60008054600160a060020a0316331461176f57600080fd5b81600114156117975750600160a060020a0382166000908152601d6020526040902054611184565b81600214156111845750600160a060020a0382166000908152601e6020526040902054611184565b600b6020526000908152604090205481565b336000908152600b602052604090205490565b60055481565b600054600160a060020a0316331461180157600080fd5b60005460a060020a900460ff161561181857600080fd5b600160a060020a0382166000908152600b602090815260408083208054850190556004805485019055805184815290513093927fddf252ad1be2c89b69c2b068fc378daa952ba7f163c4a11628f55a4df523b3ef928290030190a3604080518281529051600160a060020a0384169130917fddf252ad1be2c89b69c2b068fc378daa952ba7f163c4a11628f55a4df523b3ef9181900360200190a35050565b6009805460408051602060026001851615610100026000190190941693909304601f8101849004840282018401909252818152929183018282801561111f5780601f106110f45761010080835404028352916020019161111f565b60005460a060020a900460ff161561192957600080fd5b61193281612911565b601681905550611945308460165461295e565b611950826001612aa9565b61195982612b41565b61196282612d09565b505050565b60236020528160005260406000208181548110151561198257fe5b600091825260209091200154600160a060020a03169150829050565b600160a060020a03166000908152600d602052604090205460ff1690565b303190565b600054600160a060020a031681565b600054600160a060020a031633146119e757600080fd5b60005460a060020a900460ff16156119fe57600080fd5b601991909155601a55565b336000908152601f602052604090205490565b60008054600160a060020a03163314611a3457600080fd5b60005460a060020a900460ff161515611a4c57600080fd5b6000805474ff0000000000000000000000000000000000000000191681556040517f7805862f689e2f13df9f062ff482ad3ad112aca9e0847911ed832e158c525b339190a150600190565b6002805460408051602060018416156101000260001901909316849004601f8101849004840282018401909252818152929183018282801561111f5780601f106110f45761010080835404028352916020019161111f565b60005460a060020a900460ff1615611b0657600080fd5b600160a060020a0381166000908152600d602052604090205460ff1615611b2c57600080fd5b600160a060020a0383166000908152600d602052604090205460ff1615611b5257600080fd5b6111d882612911565b6024548190600160a060020a0316331480611b9c57506026805482908110611b7f57fe5b6000918252602090912060079091020154600160a060020a031633145b1515611ba757600080fd5b6026805482908110611bb557fe5b600091825260209091206003600790920201015460ff1615611bd657600080fd5b336000818152602360209081526040918290208054835181840281018401909452808452611c92949392830182828015611c3957602002820191906000526020600020905b8154600160a060020a03168152600190910190602001808311611c1b575b5050505050602685815481101515611c4d57fe5b906000526020600020906007020160040154602686815481101515611c6e57fe5b906000526020600020906007020160050160049054906101000a900460ff1661253b565b336000908152602360205260408120611caa91613a2c565b6040805183815290517f8b83e47b1af3f949d67804a4ab493fded8198468172c75006b4c7da507345c749181900360200190a15050565b6024548190600160a060020a0316331480611d2257506025805482908110611d0557fe5b6000918252602090912060049091020154600160a060020a031633145b1515611d2d57600080fd5b6025805482908110611d3b57fe5b60009182526020909120600490910201600101547501000000000000000000000000000000000000000000900460ff1615611d7557600080fd5b611e1d602583815481101515611d8757fe5b600091825260209091206004909102015460258054600160a060020a039092169185908110611db257fe5b600091825260209091206001600490920201015460258054600160a060020a039092169186908110611de057fe5b906000526020600020906004020160020154602586815481101515611e0157fe5b600091825260209091206003600490920201015460ff1661123b565b6040805183815290517f801be060160611f44999389892b6b79359677ff2d431948a5c8b5a80e14a1ff89181900360200190a15050565b336000908152602360209081526040909120825161109692840190613a4a565b6000805460a060020a900460ff1615611e8c57600080fd5b60443614611e9957600080fd5b61118433848461295e565b600d6020526000908152604090205460ff1681565b6000611ec3613abc565b506040805160c08101825233808252600160a060020a038881166020840190815260ff808a16958501958652600060608601818152608087018b81528a841660a08901908152602580546001810182559452885160049094027f401968ff42a154441da5f6c4c935ac46b8671f0e062baaa62a7545ba53bb6e4c8101805495891673ffffffffffffffffffffffffffffffffffffffff1996871617905595517f401968ff42a154441da5f6c4c935ac46b8671f0e062baaa62a7545ba53bb6e4d870180549b51945115157501000000000000000000000000000000000000000000027fffffffffffffffffffff00ffffffffffffffffffffffffffffffffffffffffff95881660a060020a0274ff00000000000000000000000000000000000000001993909a169c9096169b909b171696909617919091169190911790965594517f401968ff42a154441da5f6c4c935ac46b8671f0e062baaa62a7545ba53bb6e4e82015590517f401968ff42a154441da5f6c4c935ac46b8671f0e062baaa62a7545ba53bb6e4f90910180549190941660ff19909116179092559061206a908588611aef565b505060255460001901949350505050565b600c60209081526000928352604080842090915290825290205481565b336000908152602080526040812082600381106120b157fe5b602081049091015460ff601f9092166101000a9004169050919050565b60008054600160a060020a031633146120e657600080fd5b600160a060020a03831660009081526020805260409020826003811061210857fe5b602081049091015460ff601f9092166101000a900416905092915050565b60005460a060020a900460ff161561213d57600080fd5b565b60008061214a613af1565b50604080516101208101825233815260208082018b81529282018c9052600060608301819052608083018b905263ffffffff8a1660a084015260ff891660c084015267ffffffffffffffff881660e08401526101008301879052602680546001810180835591909252835160079092027f744a2cf8fd7008e3d53b67916e73460df9fa5214e3ef23dd4259ca09493a359481018054600160a060020a039490941673ffffffffffffffffffffffffffffffffffffffff1990941693909317835594518051949591948694612242937f744a2cf8fd7008e3d53b67916e73460df9fa5214e3ef23dd4259ca09493a359501920190613b3e565b506040820151805161225e916002840191602090910190613b3e565b50606082015160038201805460ff19169115159190911790556080820151600482015560a082015160058201805460c085015160e086015163ffffffff1990921663ffffffff9485161764ff00000000191664010000000060ff90921691909102176cffffffffffffffff000000000019166501000000000067ffffffffffffffff909216919091021790556101009092015160069091015561230591508816893361118a565b7f1a32be2704981bde44de8613f56d25e84735c7435c934716c334b2cb00335b1c848b8b886040518085815260200180602001806020018467ffffffffffffffff1667ffffffffffffffff168152602001838103835286818151815260200191508051906020019080838360005b8381101561238b578181015183820152602001612373565b50505050905090810190601f1680156123b85780820380516001836020036101000a031916815260200191505b50838103825285518152855160209182019187019080838360005b838110156123eb5781810151838201526020016123d3565b50505050905090810190601f1680156124185780820380516001836020036101000a031916815260200191505b50965050505050505060405180910390a150506026546000190199975050505050505050565b6000816001141561245f5750336000908152601d602052604090205461142d565b816002141561142d5750336000908152601e602052604090205461142d565b600160a060020a039182166000908152600c6020908152604080832093909416825291909152205490565b600054600160a060020a031633146124c057600080fd5b60005460a060020a900460ff16156124d757600080fd5b600160a060020a0382166000818152600d6020908152604091829020805460ff191685151590811790915582519384529083015280517f48335238b4855f35377ed80f164e8c6f3c366e54ac00b96a6402d4a9814a03a59281900390910190a15050565b60005460a060020a900460ff161561255257600080fd5b60005b835181101561264e5761256783612ed0565b601755835161258d90849086908490811061257e57fe5b90602001906020020151612f1e565b60178054909101905583516125bc9030908690849081106125aa57fe5b9060200190602002015160175461295e565b6125df84828151811015156125cd57fe5b9060200190602002015184600261353f565b61260284828151811015156125f057fe5b906020019060200201518460026135b3565b612624848281518110151561261357fe5b906020019060200201516002612aa9565b612635848281518110151561103957fe5b612646848281518110151561101957fe5b600101612555565b5061265d83518302858361324e565b601381905550612670308560135461295e565b61267f8484518402600161353f565b6112eb848451840260016135b3565b600054600160a060020a031633146126a557600080fd5b60005460a060020a900460ff16156126bc57600080fd5b600554306000818152600b60205260408082205460045403909302913191909103600a81905581549251600160a060020a03909316926108fc82150292818181858888f193505050501580156116e9573d6000803e3d6000fd5b600054600160a060020a0316331461272d57600080fd5b600160a060020a038116151561274257600080fd5b6000805473ffffffffffffffffffffffffffffffffffffffff1916600160a060020a0392909216919091179055565b600a5481565b6024548190600160a060020a03163314806127b85750602680548290811061279b57fe5b6000918252602090912060079091020154600160a060020a031633145b15156127c357600080fd5b60268054829081106127d157fe5b600091825260209091206003600790920201015460ff16156127f257600080fd5b61109660268381548110151561280457fe5b60009182526020808320600790920290910154338352602382526040928390208054845181850281018501909552808552600160a060020a03909216939290919083018282801561287e57602002820191906000526020600020905b8154600160a060020a03168152600190910190602001808311612860575b505050505060268581548110151561289257fe5b906000526020600020906007020160040154610f9e565b60008054600160a060020a031633146128c157600080fd5b81600114156128e95750600160a060020a038216600090815260216020526040902054611184565b81600214156111845750600160a060020a038216600090815260226020526040902054611184565b6000805460a060020a900460ff161561292957600080fd5b6019548281151561293657fe5b0460158190551561294e576015548201601655612956565b600182016016555b505060165490565b600160a060020a038216151561297357600080fd5b600160a060020a0383166000908152600b602052604090205481111561299857600080fd5b600160a060020a0382166000908152600b602052604090205481810110156129bf57600080fd5b600160a060020a0383166000908152600d602052604090205460ff16156129e557600080fd5b600160a060020a0382166000908152600d602052604090205460ff1615612a0b57600080fd5b600160a060020a038083166000818152600b60209081526040808320805495891680855282852080548981039091559486905281548801909155815187815291519390950194927fddf252ad1be2c89b69c2b068fc378daa952ba7f163c4a11628f55a4df523b3ef929181900390910190a3600160a060020a038084166000908152600b602052604080822054928716825290205401811461105057fe5b60005460a060020a900460ff1615612ac057600080fd5b8060011415612aff57600160a060020a03821660009081526020805260409020805461ff001981166101009182900460ff908116600101169091021790555b80600214156110965750600160a060020a031660009081526020805260409020805462ff0000198116620100009182900460ff90811660010116909102179055565b60005460a060020a900460ff1615612b5857600080fd5b600160a060020a0381166000908152602080526040902054610100900460ff16600a1415612c1457600160a060020a038116600090815260208052604081205460ff161115612bd357600160a060020a03811660009081526020805260409020805460ff808216600019011660ff199091161761ff00191690555b600160a060020a038116600090815260208052604090205460ff161515612c1457600160a060020a03811660009081526020805260409020805460ff191690555b600160a060020a0381166000908152602080526040902054600a61010090910460ff1611156116e957600160a060020a038116600090815260208052604090208054601c8054600a60ff610100909404841604831660ff1990911617908190559154612c839282169116613651565b601c805461ff00191661010060ff938416810291909117808355600160a060020a03851660009081526020805260409020805460ff198116928490048616908616038516919091178155915404909116600a029060015b60208104909101805460ff601f9093166101000a80820484169490940383168402929093021990921617905550565b60005460a060020a900460ff1615612d2057600080fd5b600160a060020a038116600090815260208052604090205462010000900460ff1660321415612de957600160a060020a0381166000908152602080526040902054602860ff9091161015612da357600160a060020a038116600090815260208052604090208054600160ff808316919091011660ff199091161762ff0000191690555b600160a060020a038116600090815260208052604090205460ff1660281415612de957600160a060020a03811660009081526020805260409020805460ff191660281790555b600160a060020a038116600090815260208052604090205460326201000090910460ff1611156116e957600160a060020a038116600090815260208052604090208054601c805462ff000019166032620100009384900460ff908116919091048116840291909117918290559254612e6b939290910482169116602803613651565b601c805460ff928316630100000090810263ff0000001990921691909117808355600160a060020a03851660009081526020805260409020805460ff198116908616928490048616929092018516919091178155915404909116603202906002612cda565b6000805460a060020a900460ff1615612ee857600080fd5b601a5482811515612ef557fe5b04601881905515612f0d576018548203601755612f16565b60001982016017555b505060175490565b6000805460a060020a900460ff1615612f3657600080fd5b601a5483811515612f4357fe5b04601855600160a060020a0382166000908152602080526040902054601c805466ff000000000000191660ff92831666010000000000009081029190911791829055900416612f9383600261366f565b612f9c8461377d565b601c805465ff0000000000191665010000000000929093019390930160ff90811682029290921792839055606492041611801590612fea5750601c54605a6501000000000090910460ff1610155b15612ffd57601854600a90600902046014555b601c54605a6501000000000090910460ff1610801561302c5750601c5460506501000000000090910460ff1610155b1561303f57601854600a90600802046014555b601c5460506501000000000090910460ff1610801561306e5750601c5460466501000000000090910460ff1610155b1561308157601854600a90600702046014555b601c5460466501000000000090910460ff161080156130b05750601c54603c6501000000000090910460ff1610155b156130c357601854600a90600602046014555b601c54603c6501000000000090910460ff161080156130f25750601c5460326501000000000090910460ff1610155b1561310557601854600a90600502046014555b601c5460326501000000000090910460ff161080156131345750601c5460286501000000000090910460ff1610155b1561314757601854600a90600402046014555b601c5460286501000000000090910460ff161080156131765750601c54601e6501000000000090910460ff1610155b1561318957601854600a90600302046014555b601c54601e6501000000000090910460ff161080156131b85750601c5460146501000000000090910460ff1610155b156131cb57601854600a90600202046014555b601c5460146501000000000090910460ff161080156131fa5750601c54600a6501000000000090910460ff1610155b1561320a57601854600a90046014555b601c54600a6501000000000090910460ff161080156132395750601c5460006501000000000090910460ff1610155b156132445760006014555b5060145492915050565b6000805460a060020a900460ff161561326657600080fd5b6019548481151561327357fe5b046015556132808261384e565b61328b84600161366f565b613294856138a0565b61329d8661396e565b010101601c60046101000a81548160ff021916908360ff1602179055506064601c60049054906101000a900460ff1660ff16111580156132ec5750601c54605a64010000000090910460ff1610155b156132ff57601554600a90600902046013555b601c54605a64010000000090910460ff1610801561332c5750601c54605064010000000090910460ff1610155b1561333f57601554600a90600802046013555b601c54605064010000000090910460ff1610801561336c5750601c54604664010000000090910460ff1610155b1561337f57601554600a90600702046013555b601c54604664010000000090910460ff161080156133ac5750601c54603c64010000000090910460ff1610155b156133bf57601554600a90600602046013555b601c54603c64010000000090910460ff161080156133ec5750601c54603264010000000090910460ff1610155b156133ff57601554600a90600502046013555b601c54603264010000000090910460ff1610801561342c5750601c54602864010000000090910460ff1610155b1561343f57601554600a90600402046013555b601c54602864010000000090910460ff1610801561346c5750601c54601e64010000000090910460ff1610155b1561347f57601554600a90600302046013555b601c54601e64010000000090910460ff161080156134ac5750601c54601464010000000090910460ff1610155b156134bf57601554600a90600202046013555b601c54601464010000000090910460ff161080156134ec5750601c54600a64010000000090910460ff1610155b156134fc57601554600a90046013555b601c54600a64010000000090910460ff161080156135295750601c54600064010000000090910460ff1610155b156135345760006013555b506013549392505050565b60005460a060020a900460ff161561355657600080fd5b6107d0821061196257806001141561358857600160a060020a0383166000908152601d60205260409020805460010190555b8060021415611962575050600160a060020a03166000908152601e6020526040902080546001019055565b60005460a060020a900460ff16156135ca57600080fd5b80600114156135f257600160a060020a03831660009081526021602052604090208054830190555b806002141561196257600160a060020a0383166000908152602260205260409020805483019055505050565b60005460a060020a900460ff161561363557600080fd5b600160a060020a03166000908152601f60205260409020429055565b60008160ff168360ff16106136665781613668565b825b9392505050565b6000805460a060020a900460ff161561368757600080fd5b81600114156136ad57600160a060020a0383166000908152602160205260409020546010555b81600214156136d357600160a060020a0383166000908152602260205260409020546010555b6010546301312d00116136e857506014611184565b6301312d006010541080156137025750621e848060105410155b1561370f5750600f611184565b621e8480601054108015613728575062030d4060105410155b156137355750600a611184565b62030d4060105410801561374d5750614e2060105410155b1561375a57506005611184565b614e206010541080156137705750600060105410155b1561118457506000611184565b6000805460a060020a900460ff161561379557600080fd5b600160a060020a0382166000908152601e60205260409020546012819055612710116137c35750602861142d565b6127106012541080156137da57506103e860125410155b156137e75750601e61142d565b6103e86012541080156137fd5750606460125410155b1561380a5750601461142d565b606460125410801561381f5750600a60125410155b1561382c5750600a61142d565b600a6012541080156138415750600060125410155b1561142d5750600061142d565b6000805460a060020a900460ff161561386657600080fd5b60ff821615156138785750600a61142d565b8160ff166001141561388c5750601461142d565b8160ff166002141561142d5750601e61142d565b6000805460a060020a900460ff16156138b857600080fd5b600160a060020a0382166000908152601d60205260409020546011819055612710116138e65750601461142d565b6127106011541080156138fd57506103e860115410155b1561390a5750600f61142d565b6103e86011541080156139205750606460115410155b1561392d5750600a61142d565b60646011541080156139425750600a60115410155b1561394f5750600561142d565b600a601154108015613841575060115460001161142d5750600061142d565b6000805460a060020a900460ff161561398657600080fd5b600160a060020a0382166000908152601f6020526040902054600e8190554203600f8190556276a700116139bc5750600061142d565b600f546276a7001180156139d5575062278d00600f5410155b156139e25750600a61142d565b62278d00600f541080156139fb5750600f546203f48011155b15613a085750601461142d565b600f546203f480118015613a1f57506000600f5410155b1561142d5750601e61142d565b50805460008255906000526020600020908101906116e99190613bb4565b828054828255906000526020600020908101928215613aac579160200282015b82811115613aac578251825473ffffffffffffffffffffffffffffffffffffffff1916600160a060020a03909116178255602090920191600190910190613a6a565b50613ab8929150613bce565b5090565b6040805160c081018252600080825260208201819052918101829052606081018290526080810182905260a081019190915290565b604080516101208101825260008082526060602083018190529282018390529181018290526080810182905260a0810182905260c0810182905260e0810182905261010081019190915290565b828054600181600116156101000203166002900490600052602060002090601f016020900481019282601f10613b7f57805160ff1916838001178555613bac565b82800160010185558215613bac579182015b82811115613bac578251825591602001919060010190613b91565b50613ab89291505b61123891905b80821115613ab85760008155600101613bba565b61123891905b80821115613ab857805473ffffffffffffffffffffffffffffffffffffffff19168155600101613bd456fea165627a7a723058203d9eee9e16409d357a54eee183514ae73b5f8143aebfcd5084ae0c647a86f0500029",
  "source": "pragma solidity ^0.5.0;\r\n\r\nimport './transaction.sol';\r\n\r\ncontract TxControl is transaction {\r\n    \r\n    struct txSave{  \r\n        address buyer;  \r\n        address seller;  \r\n        uint8 txType; \r\n        bool txStatus; \r\n        uint256 value;  \r\n        uint8 buyerGrade;  \r\n    } \r\n    struct txSaveRealTime{  \r\n        address buyer;  \r\n        string ipOrEigenvalues;  \r\n        string publicKeyCheck;  \r\n        bool txStatus;  \r\n        uint256 value;  \r\n        uint32 accountsNumber;  \r\n        uint8 buyerGrade; \r\n        uint64 duration;  \r\n        uint256 buyerId;\r\n    }\r\n\r\n    mapping(address => address[]) public collectionAddress;  \r\n    address owner = msg.sender;\r\n    txSave[] txList;  \r\n    txSaveRealTime[] txRealTimeList;  \r\n    event addTx(address seller, uint256[] fileNUmberList, string publicKeyCheck);  //\r\n    event addRealTimeTx(uint256 buyerId, string publicKeyCheck, string ipOrEigenvalues, uint64 duration);\r\n    event confirmTx(uint256 i); \r\n    event confirmRealTimeTx(uint256 i); \r\n\r\n    modifier onlyOwnerOrBuyerTx(uint256 i){  \r\n        require(owner == msg.sender || msg.sender == txList[i].buyer);\r\n        require(!txList[i].txStatus);\r\n        _;\r\n    }\r\n\r\n    modifier onlyOwnerOrBuyerRealTimeTx(uint256 i){  \r\n        require(owner == msg.sender || msg.sender == txRealTimeList[i].buyer);\r\n        require(!txRealTimeList[i].txStatus);\r\n        _;\r\n    }\r\n\r\n\r\n    function () payable external { } \r\n    \r\n\r\n    function buyData(address _seller, uint8 _txType, uint256 _value, uint8 _buyerGrade) public returns(uint256){\r\n        txSave memory txData = txSave({\r\n            buyer: msg.sender,\r\n            seller: _seller,\r\n            txType: _txType,\r\n            txStatus: false,\r\n            value: _value,\r\n            buyerGrade: _buyerGrade\r\n        });\r\n        txList.push(txData);\r\n        beforeDataTransaction(msg.sender, _value, _seller);\r\n        return txList.length - 1;\r\n    } \r\n\r\n    function refundData(uint256 i) public onlyOwnerOrBuyerTx(i) {\r\n        dataTransactionRefund(txList[i].buyer,txList[i].seller, txList[i].value);\r\n    }\r\n\r\n    function makeSureTx(uint256 i) public onlyOwnerOrBuyerTx(i){\r\n        afterDataTransaction(txList[i].buyer,txList[i].seller, txList[i].value, txList[i].buyerGrade);\r\n        emit confirmTx(i);\r\n    }\r\n\r\n\r\n    function buyRealTimeData(uint256 nonce, string memory _publicKeyCheck, string memory _ipOrEigenvalues, uint256 _value, uint32 _accountsNumber, uint8 _buyerGrade, uint64 _duration, uint256 _buyerId) public returns(uint256, uint256){\r\n        txSaveRealTime memory txRealTimeData = txSaveRealTime({\r\n            buyer: msg.sender,\r\n            publicKeyCheck: _publicKeyCheck,\r\n            ipOrEigenvalues: _ipOrEigenvalues,\r\n            txStatus: false,\r\n            value: _value,\r\n            accountsNumber: _accountsNumber,\r\n            buyerGrade: _buyerGrade,\r\n            duration: _duration,\r\n            buyerId: _buyerId\r\n        });\r\n        txRealTimeList.push(txRealTimeData);\r\n        beforeRealTimeTransaction(_accountsNumber,_value, msg.sender );\r\n        emit addRealTimeTx(_buyerId, _publicKeyCheck, _ipOrEigenvalues, _duration);\r\n        return (txRealTimeList.length - 1, nonce);\r\n    }\r\n\r\n    function setAddress(address[] memory addressList) public {\r\n        collectionAddress[msg.sender] = addressList;\r\n    }\r\n\r\n    function makeSureRealTimeTx(uint256 i) public onlyOwnerOrBuyerRealTimeTx(i){\r\n        afterRealTimeTransaction(msg.sender, collectionAddress[msg.sender], txRealTimeList[i].value, txRealTimeList[i].buyerGrade);\r\n        delete collectionAddress[msg.sender];\r\n        emit confirmRealTimeTx(i);\r\n    }\r\n\r\n    function refundRealTime(uint256 i) public onlyOwnerOrBuyerRealTimeTx(i) {\r\n        realTimeTransactionRefund(txRealTimeList[i].buyer, collectionAddress[msg.sender], txRealTimeList[i].value);\r\n    }  \r\n}",
  "sourcePath": "G:/ControlSolidity/contracts/TxControl.sol",
  "compiler": {
    "name": "solc",
    "version": "0.5.0+commit.1d4f565a.Emscripten.clang"
  },
  "schemaVersion": "3.0.5",
  "updatedAt": "2019-05-04T02:20:08.365Z",
  "devdoc": {
    "methods": {}
  },
  "userdoc": {
    "methods": {}
  }
}