{
  "contractName": "TxControl",
  "abi": [
    {
      "constant": true,
      "inputs": [],
      "name": "rechargePrice",
      "outputs": [
        {
          "name": "",
          "type": "uint256"
        }
      ],
      "payable": false,
      "stateMutability": "view",
      "type": "function",
      "signature": "0x02b090c1"
    },
    {
      "constant": false,
      "inputs": [
        {
          "name": "_from",
          "type": "address"
        },
        {
          "name": "_to",
          "type": "address[]"
        },
        {
          "name": "value",
          "type": "uint256"
        }
      ],
      "name": "realTimeTransactionRefund",
      "outputs": [],
      "payable": false,
      "stateMutability": "nonpayable",
      "type": "function",
      "signature": "0x04a85dfa"
    },
    {
      "constant": false,
      "inputs": [
        {
          "name": "newwithdrawPrice",
          "type": "uint256"
        },
        {
          "name": "newrechargePrice",
          "type": "uint256"
        }
      ],
      "name": "setPrices",
      "outputs": [],
      "payable": false,
      "stateMutability": "nonpayable",
      "type": "function",
      "signature": "0x05fefda7"
    },
    {
      "constant": true,
      "inputs": [],
      "name": "name",
      "outputs": [
        {
          "name": "",
          "type": "string"
        }
      ],
      "payable": false,
      "stateMutability": "view",
      "type": "function",
      "signature": "0x06fdde03"
    },
    {
      "constant": false,
      "inputs": [
        {
          "name": "_spender",
          "type": "address"
        },
        {
          "name": "_value",
          "type": "uint256"
        }
      ],
      "name": "approve",
      "outputs": [
        {
          "name": "",
          "type": "bool"
        }
      ],
      "payable": false,
      "stateMutability": "nonpayable",
      "type": "function",
      "signature": "0x095ea7b3"
    },
    {
      "constant": false,
      "inputs": [
        {
          "name": "addressNumber",
          "type": "uint256"
        },
        {
          "name": "value",
          "type": "uint256"
        },
        {
          "name": "_from",
          "type": "address"
        }
      ],
      "name": "beforeRealTimeTransaction",
      "outputs": [],
      "payable": false,
      "stateMutability": "nonpayable",
      "type": "function",
      "signature": "0x15666013"
    },
    {
      "constant": true,
      "inputs": [
        {
          "name": "who",
          "type": "address"
        }
      ],
      "name": "Lastbuytime",
      "outputs": [
        {
          "name": "",
          "type": "uint256"
        }
      ],
      "payable": false,
      "stateMutability": "view",
      "type": "function",
      "signature": "0x1595a422"
    },
    {
      "constant": true,
      "inputs": [],
      "name": "totalSupply",
      "outputs": [
        {
          "name": "",
          "type": "uint256"
        }
      ],
      "payable": false,
      "stateMutability": "view",
      "type": "function",
      "signature": "0x18160ddd"
    },
    {
      "constant": false,
      "inputs": [
        {
          "name": "_from",
          "type": "address"
        },
        {
          "name": "_to",
          "type": "address"
        },
        {
          "name": "totalprice",
          "type": "uint256"
        },
        {
          "name": "buyergrade",
          "type": "uint8"
        }
      ],
      "name": "afterDataTransaction",
      "outputs": [],
      "payable": false,
      "stateMutability": "nonpayable",
      "type": "function",
      "signature": "0x1ee71c71"
    },
    {
      "constant": false,
      "inputs": [
        {
          "name": "_from",
          "type": "address"
        },
        {
          "name": "_to",
          "type": "address"
        },
        {
          "name": "_value",
          "type": "uint256"
        }
      ],
      "name": "transferFrom",
      "outputs": [
        {
          "name": "",
          "type": "bool"
        }
      ],
      "payable": false,
      "stateMutability": "nonpayable",
      "type": "function",
      "signature": "0x23b872dd"
    },
    {
      "constant": false,
      "inputs": [
        {
          "name": "amount",
          "type": "uint256"
        }
      ],
      "name": "withdraw",
      "outputs": [],
      "payable": false,
      "stateMutability": "nonpayable",
      "type": "function",
      "signature": "0x2e1a7d4d"
    },
    {
      "constant": true,
      "inputs": [],
      "name": "decimals",
      "outputs": [
        {
          "name": "",
          "type": "uint8"
        }
      ],
      "payable": false,
      "stateMutability": "view",
      "type": "function",
      "signature": "0x313ce567"
    },
    {
      "constant": true,
      "inputs": [],
      "name": "initialSupply",
      "outputs": [
        {
          "name": "",
          "type": "uint256"
        }
      ],
      "payable": false,
      "stateMutability": "view",
      "type": "function",
      "signature": "0x378dc3dc"
    },
    {
      "constant": true,
      "inputs": [
        {
          "name": "who",
          "type": "address"
        },
        {
          "name": "i",
          "type": "uint256"
        }
      ],
      "name": "TotalbuyerpaymenORsellercollection",
      "outputs": [
        {
          "name": "",
          "type": "uint256"
        }
      ],
      "payable": false,
      "stateMutability": "view",
      "type": "function",
      "signature": "0x3a457598"
    },
    {
      "constant": true,
      "inputs": [],
      "name": "_totalSupply",
      "outputs": [
        {
          "name": "",
          "type": "uint256"
        }
      ],
      "payable": false,
      "stateMutability": "view",
      "type": "function",
      "signature": "0x3eaaf86b"
    },
    {
      "constant": false,
      "inputs": [],
      "name": "unpause",
      "outputs": [
        {
          "name": "",
          "type": "bool"
        }
      ],
      "payable": false,
      "stateMutability": "nonpayable",
      "type": "function",
      "signature": "0x3f4ba83a"
    },
    {
      "constant": false,
      "inputs": [],
      "name": "recharge",
      "outputs": [],
      "payable": true,
      "stateMutability": "payable",
      "type": "function",
      "signature": "0x4cddae28"
    },
    {
      "constant": true,
      "inputs": [],
      "name": "paused",
      "outputs": [
        {
          "name": "",
          "type": "bool"
        }
      ],
      "payable": false,
      "stateMutability": "view",
      "type": "function",
      "signature": "0x5c975abb"
    },
    {
      "constant": true,
      "inputs": [],
      "name": "tokenName",
      "outputs": [
        {
          "name": "",
          "type": "string"
        }
      ],
      "payable": false,
      "stateMutability": "view",
      "type": "function",
      "signature": "0x6c02a931"
    },
    {
      "constant": true,
      "inputs": [
        {
          "name": "",
          "type": "address"
        }
      ],
      "name": "_balances",
      "outputs": [
        {
          "name": "",
          "type": "uint256"
        }
      ],
      "payable": false,
      "stateMutability": "view",
      "type": "function",
      "signature": "0x6ebcf607"
    },
    {
      "constant": true,
      "inputs": [
        {
          "name": "who",
          "type": "address"
        }
      ],
      "name": "balanceOf",
      "outputs": [
        {
          "name": "",
          "type": "uint256"
        }
      ],
      "payable": false,
      "stateMutability": "view",
      "type": "function",
      "signature": "0x70a08231"
    },
    {
      "constant": true,
      "inputs": [
        {
          "name": "who",
          "type": "address"
        },
        {
          "name": "i",
          "type": "uint256"
        }
      ],
      "name": "Sellercredit",
      "outputs": [
        {
          "name": "",
          "type": "uint256"
        }
      ],
      "payable": false,
      "stateMutability": "view",
      "type": "function",
      "signature": "0x777bf2a5"
    },
    {
      "constant": true,
      "inputs": [],
      "name": "withdrawPrice",
      "outputs": [
        {
          "name": "",
          "type": "uint256"
        }
      ],
      "payable": false,
      "stateMutability": "view",
      "type": "function",
      "signature": "0x7918447e"
    },
    {
      "constant": false,
      "inputs": [
        {
          "name": "target",
          "type": "address"
        },
        {
          "name": "mintedAmount",
          "type": "uint256"
        }
      ],
      "name": "mintToken",
      "outputs": [],
      "payable": false,
      "stateMutability": "nonpayable",
      "type": "function",
      "signature": "0x79c65068"
    },
    {
      "constant": true,
      "inputs": [],
      "name": "tokenSymbol",
      "outputs": [
        {
          "name": "",
          "type": "string"
        }
      ],
      "payable": false,
      "stateMutability": "view",
      "type": "function",
      "signature": "0x7b61c320"
    },
    {
      "constant": false,
      "inputs": [
        {
          "name": "_from",
          "type": "address"
        },
        {
          "name": "_to",
          "type": "address"
        },
        {
          "name": "totalprice",
          "type": "uint256"
        }
      ],
      "name": "dataTransactionRefund",
      "outputs": [],
      "payable": false,
      "stateMutability": "nonpayable",
      "type": "function",
      "signature": "0x7c28248c"
    },
    {
      "constant": true,
      "inputs": [
        {
          "name": "",
          "type": "address"
        },
        {
          "name": "",
          "type": "uint256"
        }
      ],
      "name": "collectionAddress",
      "outputs": [
        {
          "name": "",
          "type": "address"
        }
      ],
      "payable": false,
      "stateMutability": "view",
      "type": "function",
      "signature": "0x7d520ea6"
    },
    {
      "constant": true,
      "inputs": [
        {
          "name": "account",
          "type": "address"
        }
      ],
      "name": "ifAccountFrozen",
      "outputs": [
        {
          "name": "",
          "type": "bool"
        }
      ],
      "payable": false,
      "stateMutability": "view",
      "type": "function",
      "signature": "0x7fed80bb"
    },
    {
      "constant": false,
      "inputs": [],
      "name": "pause",
      "outputs": [
        {
          "name": "",
          "type": "bool"
        }
      ],
      "payable": false,
      "stateMutability": "nonpayable",
      "type": "function",
      "signature": "0x8456cb59"
    },
    {
      "constant": true,
      "inputs": [],
      "name": "heyueYitaibi",
      "outputs": [
        {
          "name": "",
          "type": "uint256"
        }
      ],
      "payable": false,
      "stateMutability": "view",
      "type": "function",
      "signature": "0x863e4299"
    },
    {
      "constant": true,
      "inputs": [],
      "name": "owner",
      "outputs": [
        {
          "name": "",
          "type": "address"
        }
      ],
      "payable": false,
      "stateMutability": "view",
      "type": "function",
      "signature": "0x8da5cb5b"
    },
    {
      "constant": false,
      "inputs": [
        {
          "name": "newfeeProportion",
          "type": "uint256"
        },
        {
          "name": "newcommissionProportion",
          "type": "uint256"
        }
      ],
      "name": "setProportion",
      "outputs": [],
      "payable": false,
      "stateMutability": "nonpayable",
      "type": "function",
      "signature": "0x91bbf434"
    },
    {
      "constant": true,
      "inputs": [],
      "name": "symbol",
      "outputs": [
        {
          "name": "",
          "type": "string"
        }
      ],
      "payable": false,
      "stateMutability": "view",
      "type": "function",
      "signature": "0x95d89b41"
    },
    {
      "constant": false,
      "inputs": [
        {
          "name": "_to",
          "type": "address"
        },
        {
          "name": "totalprice",
          "type": "uint256"
        },
        {
          "name": "_from",
          "type": "address"
        }
      ],
      "name": "beforeDataTransaction",
      "outputs": [],
      "payable": false,
      "stateMutability": "nonpayable",
      "type": "function",
      "signature": "0x9bab5e49"
    },
    {
      "constant": false,
      "inputs": [
        {
          "name": "_to",
          "type": "address"
        },
        {
          "name": "_value",
          "type": "uint256"
        }
      ],
      "name": "transfer",
      "outputs": [
        {
          "name": "",
          "type": "bool"
        }
      ],
      "payable": false,
      "stateMutability": "nonpayable",
      "type": "function",
      "signature": "0xa9059cbb"
    },
    {
      "constant": true,
      "inputs": [
        {
          "name": "",
          "type": "address"
        }
      ],
      "name": "frozenAccount",
      "outputs": [
        {
          "name": "",
          "type": "bool"
        }
      ],
      "payable": false,
      "stateMutability": "view",
      "type": "function",
      "signature": "0xb414d4b6"
    },
    {
      "constant": true,
      "inputs": [
        {
          "name": "",
          "type": "address"
        },
        {
          "name": "",
          "type": "address"
        }
      ],
      "name": "_allowed",
      "outputs": [
        {
          "name": "",
          "type": "uint256"
        }
      ],
      "payable": false,
      "stateMutability": "view",
      "type": "function",
      "signature": "0xba0fb861"
    },
    {
      "constant": true,
      "inputs": [
        {
          "name": "who",
          "type": "address"
        },
        {
          "name": "i",
          "type": "uint256"
        }
      ],
      "name": "contributionvalue",
      "outputs": [
        {
          "name": "",
          "type": "uint256"
        }
      ],
      "payable": false,
      "stateMutability": "view",
      "type": "function",
      "signature": "0xc774c9e9"
    },
    {
      "constant": false,
      "inputs": [],
      "name": "transferHeyue",
      "outputs": [],
      "payable": true,
      "stateMutability": "payable",
      "type": "function",
      "signature": "0xceaf7fb2"
    },
    {
      "constant": true,
      "inputs": [
        {
          "name": "owner",
          "type": "address"
        },
        {
          "name": "spender",
          "type": "address"
        }
      ],
      "name": "allowance",
      "outputs": [
        {
          "name": "",
          "type": "uint256"
        }
      ],
      "payable": false,
      "stateMutability": "view",
      "type": "function",
      "signature": "0xdd62ed3e"
    },
    {
      "constant": false,
      "inputs": [
        {
          "name": "target",
          "type": "address"
        },
        {
          "name": "freeze",
          "type": "bool"
        }
      ],
      "name": "freezeAccount",
      "outputs": [],
      "payable": false,
      "stateMutability": "nonpayable",
      "type": "function",
      "signature": "0xe724529c"
    },
    {
      "constant": false,
      "inputs": [
        {
          "name": "_from",
          "type": "address"
        },
        {
          "name": "_to",
          "type": "address[]"
        },
        {
          "name": "value",
          "type": "uint256"
        },
        {
          "name": "buyergrade",
          "type": "uint8"
        }
      ],
      "name": "afterRealTimeTransaction",
      "outputs": [],
      "payable": false,
      "stateMutability": "nonpayable",
      "type": "function",
      "signature": "0xe764c6e1"
    },
    {
      "constant": false,
      "inputs": [],
      "name": "heyueTixian",
      "outputs": [],
      "payable": false,
      "stateMutability": "nonpayable",
      "type": "function",
      "signature": "0xeef71d6f"
    },
    {
      "constant": false,
      "inputs": [
        {
          "name": "newOwner",
          "type": "address"
        }
      ],
      "name": "transferOwnership",
      "outputs": [],
      "payable": false,
      "stateMutability": "nonpayable",
      "type": "function",
      "signature": "0xf2fde38b"
    },
    {
      "constant": true,
      "inputs": [],
      "name": "amount1",
      "outputs": [
        {
          "name": "",
          "type": "uint256"
        }
      ],
      "payable": false,
      "stateMutability": "view",
      "type": "function",
      "signature": "0xf400fde4"
    },
    {
      "payable": true,
      "stateMutability": "payable",
      "type": "fallback"
    },
    {
      "anonymous": false,
      "inputs": [
        {
          "indexed": false,
          "name": "seller",
          "type": "address"
        },
        {
          "indexed": false,
          "name": "fileNUmberList",
          "type": "uint256[]"
        },
        {
          "indexed": false,
          "name": "publicKeyCheck",
          "type": "string"
        }
      ],
      "name": "addTx",
      "type": "event",
      "signature": "0xc3eebc9cdbc07130e15fe44f4d0b5fbeeb52cb0be98e0282c4249ec6657996b1"
    },
    {
      "anonymous": false,
      "inputs": [
        {
          "indexed": false,
          "name": "buyerId",
          "type": "uint256"
        },
        {
          "indexed": false,
          "name": "publicKeyCheck",
          "type": "string"
        },
        {
          "indexed": false,
          "name": "ipOrEigenvalues",
          "type": "string"
        },
        {
          "indexed": false,
          "name": "duration",
          "type": "uint64"
        }
      ],
      "name": "addRealTimeTx",
      "type": "event",
      "signature": "0x1a32be2704981bde44de8613f56d25e84735c7435c934716c334b2cb00335b1c"
    },
    {
      "anonymous": false,
      "inputs": [
        {
          "indexed": false,
          "name": "i",
          "type": "uint256"
        }
      ],
      "name": "confirmTx",
      "type": "event",
      "signature": "0x801be060160611f44999389892b6b79359677ff2d431948a5c8b5a80e14a1ff8"
    },
    {
      "anonymous": false,
      "inputs": [
        {
          "indexed": false,
          "name": "i",
          "type": "uint256"
        }
      ],
      "name": "confirmRealTimeTx",
      "type": "event",
      "signature": "0x8b83e47b1af3f949d67804a4ab493fded8198468172c75006b4c7da507345c74"
    },
    {
      "anonymous": false,
      "inputs": [
        {
          "indexed": false,
          "name": "target",
          "type": "address"
        },
        {
          "indexed": false,
          "name": "success",
          "type": "bool"
        }
      ],
      "name": "SuccessFunds",
      "type": "event",
      "signature": "0x4656763aeb5076063b1b9201e728e03b650c4e545b46330125af5d01c01fae56"
    },
    {
      "anonymous": false,
      "inputs": [
        {
          "indexed": true,
          "name": "from",
          "type": "address"
        },
        {
          "indexed": true,
          "name": "to",
          "type": "address"
        },
        {
          "indexed": false,
          "name": "value",
          "type": "uint256"
        }
      ],
      "name": "Transfer",
      "type": "event",
      "signature": "0xddf252ad1be2c89b69c2b068fc378daa952ba7f163c4a11628f55a4df523b3ef"
    },
    {
      "anonymous": false,
      "inputs": [
        {
          "indexed": false,
          "name": "target",
          "type": "address"
        },
        {
          "indexed": false,
          "name": "frozen",
          "type": "bool"
        }
      ],
      "name": "FrozenFunds",
      "type": "event",
      "signature": "0x48335238b4855f35377ed80f164e8c6f3c366e54ac00b96a6402d4a9814a03a5"
    },
    {
      "anonymous": false,
      "inputs": [],
      "name": "Pause",
      "type": "event",
      "signature": "0x6985a02210a168e66602d3235cb6db0e70f92b3ba4d376a33c0f3d9434bff625"
    },
    {
      "anonymous": false,
      "inputs": [],
      "name": "Unpause",
      "type": "event",
      "signature": "0x7805862f689e2f13df9f062ff482ad3ad112aca9e0847911ed832e158c525b33"
    },
    {
      "constant": false,
      "inputs": [
        {
          "name": "_seller",
          "type": "address"
        },
        {
          "name": "_txType",
          "type": "uint8"
        },
        {
          "name": "_value",
          "type": "uint256"
        },
        {
          "name": "_buyerGrade",
          "type": "uint8"
        }
      ],
      "name": "buyData",
      "outputs": [
        {
          "name": "",
          "type": "uint256"
        }
      ],
      "payable": false,
      "stateMutability": "nonpayable",
      "type": "function",
      "signature": "0xb60d3b1d"
    },
    {
      "constant": false,
      "inputs": [
        {
          "name": "i",
          "type": "uint256"
        }
      ],
      "name": "refundData",
      "outputs": [],
      "payable": false,
      "stateMutability": "nonpayable",
      "type": "function",
      "signature": "0x4b160ef7"
    },
    {
      "constant": false,
      "inputs": [
        {
          "name": "i",
          "type": "uint256"
        }
      ],
      "name": "makeSureTx",
      "outputs": [],
      "payable": false,
      "stateMutability": "nonpayable",
      "type": "function",
      "signature": "0x9ee66913"
    },
    {
      "constant": false,
      "inputs": [
        {
          "name": "nonce",
          "type": "uint256"
        },
        {
          "name": "_publicKeyCheck",
          "type": "string"
        },
        {
          "name": "_ipOrEigenvalues",
          "type": "string"
        },
        {
          "name": "_value",
          "type": "uint256"
        },
        {
          "name": "_accountsNumber",
          "type": "uint32"
        },
        {
          "name": "_buyerGrade",
          "type": "uint8"
        },
        {
          "name": "_duration",
          "type": "uint64"
        },
        {
          "name": "_buyerId",
          "type": "uint256"
        }
      ],
      "name": "buyRealTimeData",
      "outputs": [
        {
          "name": "",
          "type": "uint256"
        },
        {
          "name": "",
          "type": "uint256"
        }
      ],
      "payable": false,
      "stateMutability": "nonpayable",
      "type": "function",
      "signature": "0xd19d49f9"
    },
    {
      "constant": false,
      "inputs": [
        {
          "name": "addressList",
          "type": "address[]"
        }
      ],
      "name": "setAddress",
      "outputs": [],
      "payable": false,
      "stateMutability": "nonpayable",
      "type": "function",
      "signature": "0xa354d3f6"
    },
    {
      "constant": false,
      "inputs": [
        {
          "name": "i",
          "type": "uint256"
        }
      ],
      "name": "makeSureRealTimeTx",
      "outputs": [],
      "payable": false,
      "stateMutability": "nonpayable",
      "type": "function",
      "signature": "0x9e8c9a40"
    },
    {
      "constant": false,
      "inputs": [
        {
          "name": "i",
          "type": "uint256"
        }
      ],
      "name": "refundRealTime",
      "outputs": [],
      "payable": false,
      "stateMutability": "nonpayable",
      "type": "function",
      "signature": "0xfcbd7ae2"
    }
  ],
  "bytecode": "0x6000805460a060020a60ff02191690556003805460ff191660121790556009600555600a600655620186a060075560c0604052600260808190527f657200000000000000000000000000000000000000000000000000000000000060a09081526200006e916008919062000154565b506040805180820190915260018082527f65000000000000000000000000000000000000000000000000000000000000006020909201918252620000b59160099162000154565b506103e86019556064601a556024805433600160a060020a0319918216811790925560008054909116909117815560035460075460ff909116600a0a026004819055308252600b602052604090912055600880546200012991600191600261010082851615026000190190911604620001d9565b50600980546200014d916002916000196101006001831615020116829004620001d9565b5062000273565b828054600181600116156101000203166002900490600052602060002090601f016020900481019282601f106200019757805160ff1916838001178555620001c7565b82800160010185558215620001c7579182015b82811115620001c7578251825591602001919060010190620001aa565b50620001d592915062000253565b5090565b828054600181600116156101000203166002900490600052602060002090601f016020900481019282601f10620002145780548555620001c7565b82800160010185558215620001c757600052602060002091601f016020900482015b82811115620001c757825482559160010191906001019062000236565b6200027091905b80821115620001d557600081556001016200025a565b90565b61391580620002836000396000f3fe6080604052600436106102715763ffffffff7c010000000000000000000000000000000000000000000000000000000060003504166302b090c1811461027357806304a85dfa1461029a57806305fefda71461035c57806306fdde031461038c578063095ea7b31461041657806315666013146104635780631595a422146104a257806318160ddd146104d55780631ee71c71146104ea57806323b872dd146105375780632e1a7d4d1461057a578063313ce567146105a4578063378dc3dc146105cf5780633a457598146105e45780633eaaf86b1461061d5780633f4ba83a146106325780634b160ef7146106475780634cddae28146106715780635c975abb146106795780636c02a9311461068e5780636ebcf607146106a357806370a08231146106d6578063777bf2a5146107095780637918447e1461074257806379c65068146107575780637b61c320146107905780637c28248c146107a55780637d520ea6146107e85780637fed80bb1461083d5780638456cb5914610870578063863e4299146108855780638da5cb5b1461089a57806391bbf434146108af57806395d89b41146108df5780639bab5e49146108f45780639e8c9a40146109375780639ee6691314610961578063a354d3f61461098b578063a9059cbb14610a3b578063b414d4b614610a74578063b60d3b1d14610aa7578063ba0fb86114610af3578063c774c9e914610b2e578063ceaf7fb214610b67578063d19d49f914610b6f578063dd62ed3e14610cf4578063e724529c14610d2f578063e764c6e114610d6a578063eef71d6f14610e32578063f2fde38b14610e47578063f400fde414610e7a578063fcbd7ae214610e8f575b005b34801561027f57600080fd5b50610288610eb9565b60408051918252519081900360200190f35b3480156102a657600080fd5b50610271600480360360608110156102bd57600080fd5b600160a060020a0382351691908101906040810160208201356401000000008111156102e857600080fd5b8201836020820111156102fa57600080fd5b8035906020019184602083028401116401000000008311171561031c57600080fd5b9190808060200260200160405190810160405280939291908181526020018383602002808284376000920191909152509295505091359250610ebf915050565b34801561036857600080fd5b506102716004803603604081101561037f57600080fd5b5080359060200135610f77565b34801561039857600080fd5b506103a1610fbb565b6040805160208082528351818301528351919283929083019185019080838360005b838110156103db5781810151838201526020016103c3565b50505050905090810190601f1680156104085780820380516001836020036101000a031916815260200191505b509250505060405180910390f35b34801561042257600080fd5b5061044f6004803603604081101561043957600080fd5b50600160a060020a038135169060200135611048565b604080519115158252519081900360200190f35b34801561046f57600080fd5b506102716004803603606081101561048657600080fd5b5080359060208101359060400135600160a060020a03166110ab565b3480156104ae57600080fd5b50610288600480360360208110156104c557600080fd5b5035600160a060020a0316611155565b3480156104e157600080fd5b50610288611174565b3480156104f657600080fd5b506102716004803603608081101561050d57600080fd5b508035600160a060020a03908116916020810135909116906040810135906060013560ff1661117b565b34801561054357600080fd5b5061044f6004803603606081101561055a57600080fd5b50600160a060020a03813581169160208101359091169060400135611234565b34801561058657600080fd5b506102716004803603602081101561059d57600080fd5b503561133a565b3480156105b057600080fd5b506105b961139e565b6040805160ff9092168252519081900360200190f35b3480156105db57600080fd5b506102886113a7565b3480156105f057600080fd5b506102886004803603604081101561060757600080fd5b50600160a060020a0381351690602001356113ad565b34801561062957600080fd5b506102886113ff565b34801561063e57600080fd5b5061044f611405565b34801561065357600080fd5b506102716004803603602081101561066a57600080fd5b5035611480565b610271611563565b34801561068557600080fd5b5061044f61159a565b34801561069a57600080fd5b506103a16115aa565b3480156106af57600080fd5b50610288600480360360208110156106c657600080fd5b5035600160a060020a0316611605565b3480156106e257600080fd5b50610288600480360360208110156106f957600080fd5b5035600160a060020a0316611617565b34801561071557600080fd5b506102886004803603604081101561072c57600080fd5b50600160a060020a038135169060200135611632565b34801561074e57600080fd5b50610288611672565b34801561076357600080fd5b506102716004803603604081101561077a57600080fd5b50600160a060020a038135169060200135611678565b34801561079c57600080fd5b506103a1611745565b3480156107b157600080fd5b50610271600480360360608110156107c857600080fd5b50600160a060020a038135811691602081013590911690604001356117a0565b3480156107f457600080fd5b506108216004803603604081101561080b57600080fd5b50600160a060020a0381351690602001356117f5565b60408051600160a060020a039092168252519081900360200190f35b34801561084957600080fd5b5061044f6004803603602081101561086057600080fd5b5035600160a060020a031661182c565b34801561087c57600080fd5b5061044f61184a565b34801561089157600080fd5b506102886118ca565b3480156108a657600080fd5b506108216118cf565b3480156108bb57600080fd5b50610271600480360360408110156108d257600080fd5b50803590602001356118de565b3480156108eb57600080fd5b506103a1611917565b34801561090057600080fd5b506102716004803603606081101561091757600080fd5b50600160a060020a0381358116916020810135916040909101351661196f565b34801561094357600080fd5b506102716004803603602081101561095a57600080fd5b50356119db565b34801561096d57600080fd5b506102716004803603602081101561098457600080fd5b5035611b2e565b34801561099757600080fd5b50610271600480360360208110156109ae57600080fd5b8101906020810181356401000000008111156109c957600080fd5b8201836020820111156109db57600080fd5b803590602001918460208302840111640100000000831117156109fd57600080fd5b919080806020026020016040519081016040528093929190818152602001838360200280828437600092019190915250929550611c6e945050505050565b348015610a4757600080fd5b5061044f60048036036040811015610a5e57600080fd5b50600160a060020a038135169060200135611c8e565b348015610a8057600080fd5b5061044f60048036036020811015610a9757600080fd5b5035600160a060020a0316611cbe565b348015610ab357600080fd5b5061028860048036036080811015610aca57600080fd5b50600160a060020a038135169060ff602082013581169160408101359160609091013516611cd3565b348015610aff57600080fd5b5061028860048036036040811015610b1657600080fd5b50600160a060020a0381358116916020013516611e95565b348015610b3a57600080fd5b5061028860048036036040811015610b5157600080fd5b50600160a060020a038135169060200135611eb2565b610271611f04565b348015610b7b57600080fd5b50610cdb6004803603610100811015610b9357600080fd5b81359190810190604081016020820135640100000000811115610bb557600080fd5b820183602082011115610bc757600080fd5b80359060200191846001830284011164010000000083111715610be957600080fd5b91908080601f0160208091040260200160405190810160405280939291908181526020018383808284376000920191909152509295949360208101935035915050640100000000811115610c3c57600080fd5b820183602082011115610c4e57600080fd5b80359060200191846001830284011164010000000083111715610c7057600080fd5b91908080601f01602080910402602001604051908101604052809392919081815260200183838082843760009201919091525092955050823593505063ffffffff6020830135169160ff604082013516915067ffffffffffffffff6060820135169060800135611f1d565b6040805192835260208301919091528051918290030190f35b348015610d0057600080fd5b5061028860048036036040811015610d1757600080fd5b50600160a060020a038135811691602001351661221c565b348015610d3b57600080fd5b5061027160048036036040811015610d5257600080fd5b50600160a060020a0381351690602001351515612247565b348015610d7657600080fd5b5061027160048036036080811015610d8d57600080fd5b600160a060020a038235169190810190604081016020820135640100000000811115610db857600080fd5b820183602082011115610dca57600080fd5b80359060200191846020830284011164010000000083111715610dec57600080fd5b919080806020026020016040519081016040528093929190818152602001838360200280828437600092019190915250929550508235935050506020013560ff166122d9565b348015610e3e57600080fd5b5061027161242c565b348015610e5357600080fd5b5061027160048036036020811015610e6a57600080fd5b5035600160a060020a031661249b565b348015610e8657600080fd5b506102886124f6565b348015610e9b57600080fd5b5061027160048036036020811015610eb257600080fd5b50356124fc565b60065481565b60005460a060020a900460ff1615610ed657600080fd5b81518102601b819055610ee8906125fb565b601681905550610efb3084601654612648565b60005b8251811015610f7157610f298382815181101515610f1857fe5b906020019060200201516001612793565b610f498382815181101515610f3a57fe5b9060200190602002015161282b565b610f698382815181101515610f5a57fe5b906020019060200201516129f3565b600101610efe565b50505050565b600054600160a060020a03163314610f8e57600080fd5b60005460a060020a900460ff1615610fa557600080fd5b808211610fb757600582905560068190555b5050565b60018054604080516020600284861615610100026000190190941693909304601f810184900484028201840190925281815292918301828280156110405780601f1061101557610100808354040283529160200191611040565b820191906000526020600020905b81548152906001019060200180831161102357829003601f168201915b505050505081565b60008054600160a060020a0316331461106057600080fd5b60005460a060020a900460ff161561107757600080fd5b5060008054600160a060020a039081168252600c602090815260408084209286168452919052902081905560015b92915050565b60005460a060020a900460ff16156110c257600080fd5b600160a060020a0381166000908152600d602052604090205460ff16156110e857600080fd5b828202601b8190556110f9906125fb565b60168190555061110c8130601654612648565b60408051600160a060020a03831681526001602082015281517f4656763aeb5076063b1b9201e728e03b650c4e545b46330125af5d01c01fae56929181900390910190a1505050565b600160a060020a0381166000908152601f60205260409020545b919050565b6004545b90565b60005460a060020a900460ff161561119257600080fd5b61119b82612bba565b6017556111a88284612c08565b60178054909101908190556111c09030908590612648565b6111cb828583612f38565b6013819055506111de3085601354612648565b6111ea84836001613229565b6111f683836002613229565b6112028483600161329d565b61120e8383600261329d565b611219836002612793565b611222836129f3565b61122b8361282b565b610f7184613308565b60008054600160a060020a0316331461124c57600080fd5b60005460a060020a900460ff161561126357600080fd5b60008054600160a060020a039081168252600c602090815260408084209288168452919052902054821115806112be575060008054600160a060020a039081168252600c602090815260408084209288168452919052902054155b15156112c957600080fd5b60008054600160a060020a039081168252600c602090815260408084209288168452919052902054156113255760008054600160a060020a039081168252600c6020908152604080842092881684529190529020805483900390555b611330848484612648565b5060019392505050565b60005460a060020a900460ff161561135157600080fd5b60055481023031101561136357600080fd5b61136e333083612648565b6005546040513391830280156108fc02916000818181858888f19350505050158015610fb7573d6000803e3d6000fd5b60035460ff1681565b60075481565b600081600114156113d75750600160a060020a0382166000908152602160205260409020546110a5565b81600214156110a55750600160a060020a0382166000908152602260205260409020546110a5565b60045481565b60008054600160a060020a0316331461141d57600080fd5b60005460a060020a900460ff16151561143557600080fd5b6000805474ff0000000000000000000000000000000000000000191681556040517f7805862f689e2f13df9f062ff482ad3ad112aca9e0847911ed832e158c525b339190a150600190565b6024548190600160a060020a0316331461149957600080fd5b60258054829081106114a757fe5b60009182526020909120600490910201600101547501000000000000000000000000000000000000000000900460ff16156114e157600080fd5b610fb76025838154811015156114f357fe5b600091825260209091206004909102015460258054600160a060020a03909216918590811061151e57fe5b600091825260209091206001600490920201015460258054600160a060020a03909216918690811061154c57fe5b9060005260206000209060040201600201546117a0565b60005460a060020a900460ff161561157a57600080fd5b60006006543481151561158957fe5b049050611597303383612648565b50565b60005460a060020a900460ff1681565b6008805460408051602060026001851615610100026000190190941693909304601f810184900484028201840190925281815292918301828280156110405780601f1061101557610100808354040283529160200191611040565b600b6020526000908152604090205481565b600160a060020a03166000908152600b602052604090205490565b600160a060020a03821660009081526020805260408120826003811061165457fe5b602081049091015460ff601f9092166101000a900416905092915050565b60055481565b600054600160a060020a0316331461168f57600080fd5b60005460a060020a900460ff16156116a657600080fd5b600160a060020a0382166000908152600b602090815260408083208054850190556004805485019055805184815290513093927fddf252ad1be2c89b69c2b068fc378daa952ba7f163c4a11628f55a4df523b3ef928290030190a3604080518281529051600160a060020a0384169130917fddf252ad1be2c89b69c2b068fc378daa952ba7f163c4a11628f55a4df523b3ef9181900360200190a35050565b6009805460408051602060026001851615610100026000190190941693909304601f810184900484028201840190925281815292918301828280156110405780601f1061101557610100808354040283529160200191611040565b60005460a060020a900460ff16156117b757600080fd5b6117c0816125fb565b6016819055506117d33084601654612648565b6117de826001612793565b6117e78261282b565b6117f0826129f3565b505050565b60236020528160005260406000208181548110151561181057fe5b600091825260209091200154600160a060020a03169150829050565b600160a060020a03166000908152600d602052604090205460ff1690565b60008054600160a060020a0316331461186257600080fd5b60005460a060020a900460ff161561187957600080fd5b6000805474ff0000000000000000000000000000000000000000191660a060020a1781556040517f6985a02210a168e66602d3235cb6db0e70f92b3ba4d376a33c0f3d9434bff6259190a150600190565b303190565b600054600160a060020a031681565b600054600160a060020a031633146118f557600080fd5b60005460a060020a900460ff161561190c57600080fd5b601991909155601a55565b6002805460408051602060018416156101000260001901909316849004601f810184900484028201840190925281815292918301828280156110405780601f1061101557610100808354040283529160200191611040565b60005460a060020a900460ff161561198657600080fd5b600160a060020a0381166000908152600d602052604090205460ff16156119ac57600080fd5b600160a060020a0383166000908152600d602052604090205460ff16156119d257600080fd5b6110f9826125fb565b6024548190600160a060020a031633146119f457600080fd5b6026805482908110611a0257fe5b600091825260209091206003600790920201015460ff1615611a2357600080fd5b336000818152602360209081526040918290208054835181840281018401909452808452611adf949392830182828015611a8657602002820191906000526020600020905b8154600160a060020a03168152600190910190602001808311611a68575b5050505050602685815481101515611a9a57fe5b906000526020600020906007020160040154602686815481101515611abb57fe5b906000526020600020906007020160050160049054906101000a900460ff166122d9565b336000908152602360205260408120611af791613716565b6040805183815290517f8b83e47b1af3f949d67804a4ab493fded8198468172c75006b4c7da507345c749181900360200190a15050565b6024548190600160a060020a03163314611b4757600080fd5b6025805482908110611b5557fe5b60009182526020909120600490910201600101547501000000000000000000000000000000000000000000900460ff1615611b8f57600080fd5b611c37602583815481101515611ba157fe5b600091825260209091206004909102015460258054600160a060020a039092169185908110611bcc57fe5b600091825260209091206001600490920201015460258054600160a060020a039092169186908110611bfa57fe5b906000526020600020906004020160020154602586815481101515611c1b57fe5b600091825260209091206003600490920201015460ff1661117b565b6040805183815290517f801be060160611f44999389892b6b79359677ff2d431948a5c8b5a80e14a1ff89181900360200190a15050565b3360009081526023602090815260409091208251610fb792840190613734565b6000805460a060020a900460ff1615611ca657600080fd5b60443614611cb357600080fd5b6110a5338484612648565b600d6020526000908152604090205460ff1681565b6000611cdd6137a6565b506040805160c08101825233808252600160a060020a038881166020840190815260ff808a16958501958652600060608601818152608087018b81528a841660a08901908152602580546001810182559452885160049094027f401968ff42a154441da5f6c4c935ac46b8671f0e062baaa62a7545ba53bb6e4c8101805495891673ffffffffffffffffffffffffffffffffffffffff1996871617905595517f401968ff42a154441da5f6c4c935ac46b8671f0e062baaa62a7545ba53bb6e4d870180549b51945115157501000000000000000000000000000000000000000000027fffffffffffffffffffff00ffffffffffffffffffffffffffffffffffffffffff95881660a060020a0274ff00000000000000000000000000000000000000001993909a169c9096169b909b171696909617919091169190911790965594517f401968ff42a154441da5f6c4c935ac46b8671f0e062baaa62a7545ba53bb6e4e82015590517f401968ff42a154441da5f6c4c935ac46b8671f0e062baaa62a7545ba53bb6e4f90910180549190941660ff199091161790925590611e8490858861196f565b505060255460001901949350505050565b600c60209081526000928352604080842090915290825290205481565b60008160011415611edc5750600160a060020a0382166000908152601d60205260409020546110a5565b81600214156110a55750600160a060020a0382166000908152601e60205260409020546110a5565b60005460a060020a900460ff1615611f1b57600080fd5b565b600080611f286137db565b50604080516101208101825233815260208082018b81529282018c9052600060608301819052608083018b905263ffffffff8a1660a084015260ff891660c084015267ffffffffffffffff881660e08401526101008301879052602680546001810180835591909252835160079092027f744a2cf8fd7008e3d53b67916e73460df9fa5214e3ef23dd4259ca09493a359481018054600160a060020a039490941673ffffffffffffffffffffffffffffffffffffffff1990941693909317835594518051949591948694612020937f744a2cf8fd7008e3d53b67916e73460df9fa5214e3ef23dd4259ca09493a359501920190613828565b506040820151805161203c916002840191602090910190613828565b50606082015160038201805460ff19169115159190911790556080820151600482015560a082015160058201805460c085015160e086015163ffffffff1990921663ffffffff9485161764ff00000000191664010000000060ff90921691909102176cffffffffffffffff000000000019166501000000000067ffffffffffffffff90921691909102179055610100909201516006909101556120e39150881689336110ab565b7f1a32be2704981bde44de8613f56d25e84735c7435c934716c334b2cb00335b1c848b8b886040518085815260200180602001806020018467ffffffffffffffff1667ffffffffffffffff168152602001838103835286818151815260200191508051906020019080838360005b83811015612169578181015183820152602001612151565b50505050905090810190601f1680156121965780820380516001836020036101000a031916815260200191505b50838103825285518152855160209182019187019080838360005b838110156121c95781810151838201526020016121b1565b50505050905090810190601f1680156121f65780820380516001836020036101000a031916815260200191505b50965050505050505060405180910390a150506026546000190199975050505050505050565b600160a060020a039182166000908152600c6020908152604080832093909416825291909152205490565b600054600160a060020a0316331461225e57600080fd5b60005460a060020a900460ff161561227557600080fd5b600160a060020a0382166000818152600d6020908152604091829020805460ff191685151590811790915582519384529083015280517f48335238b4855f35377ed80f164e8c6f3c366e54ac00b96a6402d4a9814a03a59281900390910190a15050565b60005460a060020a900460ff16156122f057600080fd5b60005b83518110156123ec5761230583612bba565b601755835161232b90849086908490811061231c57fe5b90602001906020020151612c08565b601780549091019055835161235a90309086908490811061234857fe5b90602001906020020151601754612648565b61237d848281518110151561236b57fe5b90602001906020020151846002613229565b6123a0848281518110151561238e57fe5b9060200190602002015184600261329d565b6123c284828151811015156123b157fe5b906020019060200201516002612793565b6123d38482815181101515610f5a57fe5b6123e48482815181101515610f3a57fe5b6001016122f3565b506123fb835183028583612f38565b60138190555061240e3085601354612648565b61241d84845184026001613229565b61122b8484518402600161329d565b600054600160a060020a0316331461244357600080fd5b60005460a060020a900460ff161561245a57600080fd5b3031600a81905560008054604051600160a060020a03909116926108fc81150292909190818181858888f19350505050158015611597573d6000803e3d6000fd5b600054600160a060020a031633146124b257600080fd5b600160a060020a03811615156124c757600080fd5b6000805473ffffffffffffffffffffffffffffffffffffffff1916600160a060020a0392909216919091179055565b600a5481565b6024548190600160a060020a0316331461251557600080fd5b602680548290811061252357fe5b600091825260209091206003600790920201015460ff161561254457600080fd5b610fb760268381548110151561255657fe5b60009182526020808320600790920290910154338352602382526040928390208054845181850281018501909552808552600160a060020a0390921693929091908301828280156125d057602002820191906000526020600020905b8154600160a060020a031681526001909101906020018083116125b2575b50505050506026858154811015156125e457fe5b906000526020600020906007020160040154610ebf565b6000805460a060020a900460ff161561261357600080fd5b6019548281151561262057fe5b04601581905515612638576015548201601655612640565b600182016016555b505060165490565b600160a060020a038216151561265d57600080fd5b600160a060020a0383166000908152600b602052604090205481111561268257600080fd5b600160a060020a0382166000908152600b602052604090205481810110156126a957600080fd5b600160a060020a0383166000908152600d602052604090205460ff16156126cf57600080fd5b600160a060020a0382166000908152600d602052604090205460ff16156126f557600080fd5b600160a060020a038083166000818152600b60209081526040808320805495891680855282852080548981039091559486905281548801909155815187815291519390950194927fddf252ad1be2c89b69c2b068fc378daa952ba7f163c4a11628f55a4df523b3ef929181900390910190a3600160a060020a038084166000908152600b6020526040808220549287168252902054018114610f7157fe5b60005460a060020a900460ff16156127aa57600080fd5b80600114156127e957600160a060020a03821660009081526020805260409020805461ff001981166101009182900460ff908116600101169091021790555b8060021415610fb75750600160a060020a031660009081526020805260409020805462ff0000198116620100009182900460ff90811660010116909102179055565b60005460a060020a900460ff161561284257600080fd5b600160a060020a0381166000908152602080526040902054610100900460ff16600a14156128fe57600160a060020a038116600090815260208052604081205460ff1611156128bd57600160a060020a03811660009081526020805260409020805460ff808216600019011660ff199091161761ff00191690555b600160a060020a038116600090815260208052604090205460ff1615156128fe57600160a060020a03811660009081526020805260409020805460ff191690555b600160a060020a0381166000908152602080526040902054600a61010090910460ff16111561159757600160a060020a038116600090815260208052604090208054601c8054600a60ff610100909404841604831660ff199091161790819055915461296d928216911661333b565b601c805461ff00191661010060ff938416810291909117808355600160a060020a03851660009081526020805260409020805460ff198116928490048616908616038516919091178155915404909116600a029060015b60208104909101805460ff601f9093166101000a80820484169490940383168402929093021990921617905550565b60005460a060020a900460ff1615612a0a57600080fd5b600160a060020a038116600090815260208052604090205462010000900460ff1660321415612ad357600160a060020a0381166000908152602080526040902054602860ff9091161015612a8d57600160a060020a038116600090815260208052604090208054600160ff808316919091011660ff199091161762ff0000191690555b600160a060020a038116600090815260208052604090205460ff1660281415612ad357600160a060020a03811660009081526020805260409020805460ff191660281790555b600160a060020a038116600090815260208052604090205460326201000090910460ff16111561159757600160a060020a038116600090815260208052604090208054601c805462ff000019166032620100009384900460ff908116919091048116840291909117918290559254612b5593929091048216911660280361333b565b601c805460ff928316630100000090810263ff0000001990921691909117808355600160a060020a03851660009081526020805260409020805460ff1981169086169284900486169290920185169190911781559154049091166032029060026129c4565b6000805460a060020a900460ff1615612bd257600080fd5b601a5482811515612bdf57fe5b04601881905515612bf7576018548203601755612c00565b60001982016017555b505060175490565b6000805460a060020a900460ff1615612c2057600080fd5b601a5483811515612c2d57fe5b04601855600160a060020a0382166000908152602080526040902054601c805466ff000000000000191660ff92831666010000000000009081029190911791829055900416612c7d836002613359565b612c8684613467565b601c805465ff0000000000191665010000000000929093019390930160ff90811682029290921792839055606492041611801590612cd45750601c54605a6501000000000090910460ff1610155b15612ce757601854600a90600902046014555b601c54605a6501000000000090910460ff16108015612d165750601c5460506501000000000090910460ff1610155b15612d2957601854600a90600802046014555b601c5460506501000000000090910460ff16108015612d585750601c5460466501000000000090910460ff1610155b15612d6b57601854600a90600702046014555b601c5460466501000000000090910460ff16108015612d9a5750601c54603c6501000000000090910460ff1610155b15612dad57601854600a90600602046014555b601c54603c6501000000000090910460ff16108015612ddc5750601c5460326501000000000090910460ff1610155b15612def57601854600a90600502046014555b601c5460326501000000000090910460ff16108015612e1e5750601c5460286501000000000090910460ff1610155b15612e3157601854600a90600402046014555b601c5460286501000000000090910460ff16108015612e605750601c54601e6501000000000090910460ff1610155b15612e7357601854600a90600302046014555b601c54601e6501000000000090910460ff16108015612ea25750601c5460146501000000000090910460ff1610155b15612eb557601854600a90600202046014555b601c5460146501000000000090910460ff16108015612ee45750601c54600a6501000000000090910460ff1610155b15612ef457601854600a90046014555b601c54600a6501000000000090910460ff16108015612f235750601c5460006501000000000090910460ff1610155b15612f2e5760006014555b5060145492915050565b6000805460a060020a900460ff1615612f5057600080fd5b60195484811515612f5d57fe5b04601555612f6a82613538565b612f75846001613359565b612f7e8561358a565b612f8786613658565b010101601c60046101000a81548160ff021916908360ff1602179055506064601c60049054906101000a900460ff1660ff1611158015612fd65750601c54605a64010000000090910460ff1610155b15612fe957601554600a90600902046013555b601c54605a64010000000090910460ff161080156130165750601c54605064010000000090910460ff1610155b1561302957601554600a90600802046013555b601c54605064010000000090910460ff161080156130565750601c54604664010000000090910460ff1610155b1561306957601554600a90600702046013555b601c54604664010000000090910460ff161080156130965750601c54603c64010000000090910460ff1610155b156130a957601554600a90600602046013555b601c54603c64010000000090910460ff161080156130d65750601c54603264010000000090910460ff1610155b156130e957601554600a90600502046013555b601c54603264010000000090910460ff161080156131165750601c54602864010000000090910460ff1610155b1561312957601554600a90600402046013555b601c54602864010000000090910460ff161080156131565750601c54601e64010000000090910460ff1610155b1561316957601554600a90600302046013555b601c54601e64010000000090910460ff161080156131965750601c54601464010000000090910460ff1610155b156131a957601554600a90600202046013555b601c54601464010000000090910460ff161080156131d65750601c54600a64010000000090910460ff1610155b156131e657601554600a90046013555b601c54600a64010000000090910460ff161080156132135750601c54600064010000000090910460ff1610155b1561321e5760006013555b506013549392505050565b60005460a060020a900460ff161561324057600080fd5b6107d082106117f057806001141561327257600160a060020a0383166000908152601d60205260409020805460010190555b80600214156117f0575050600160a060020a03166000908152601e6020526040902080546001019055565b60005460a060020a900460ff16156132b457600080fd5b80600114156132dc57600160a060020a03831660009081526021602052604090208054830190555b80600214156117f057600160a060020a0383166000908152602260205260409020805483019055505050565b60005460a060020a900460ff161561331f57600080fd5b600160a060020a03166000908152601f60205260409020429055565b60008160ff168360ff16106133505781613352565b825b9392505050565b6000805460a060020a900460ff161561337157600080fd5b816001141561339757600160a060020a0383166000908152602160205260409020546010555b81600214156133bd57600160a060020a0383166000908152602260205260409020546010555b6010546301312d00116133d2575060146110a5565b6301312d006010541080156133ec5750621e848060105410155b156133f95750600f6110a5565b621e8480601054108015613412575062030d4060105410155b1561341f5750600a6110a5565b62030d406010541080156134375750614e2060105410155b15613444575060056110a5565b614e2060105410801561345a5750600060105410155b156110a5575060006110a5565b6000805460a060020a900460ff161561347f57600080fd5b600160a060020a0382166000908152601e60205260409020546012819055612710116134ad5750602861116f565b6127106012541080156134c457506103e860125410155b156134d15750601e61116f565b6103e86012541080156134e75750606460125410155b156134f45750601461116f565b60646012541080156135095750600a60125410155b156135165750600a61116f565b600a60125410801561352b5750600060125410155b1561116f5750600061116f565b6000805460a060020a900460ff161561355057600080fd5b60ff821615156135625750600a61116f565b8160ff16600114156135765750601461116f565b8160ff166002141561116f5750601e61116f565b6000805460a060020a900460ff16156135a257600080fd5b600160a060020a0382166000908152601d60205260409020546011819055612710116135d05750601461116f565b6127106011541080156135e757506103e860115410155b156135f45750600f61116f565b6103e860115410801561360a5750606460115410155b156136175750600a61116f565b606460115410801561362c5750600a60115410155b156136395750600561116f565b600a60115410801561352b575060115460001161116f5750600061116f565b6000805460a060020a900460ff161561367057600080fd5b600160a060020a0382166000908152601f6020526040902054600e8190554203600f8190556276a700116136a65750600061116f565b600f546276a7001180156136bf575062278d00600f5410155b156136cc5750600a61116f565b62278d00600f541080156136e55750600f546203f48011155b156136f25750601461116f565b600f546203f48011801561370957506000600f5410155b1561116f5750601e61116f565b5080546000825590600052602060002090810190611597919061389e565b828054828255906000526020600020908101928215613796579160200282015b82811115613796578251825473ffffffffffffffffffffffffffffffffffffffff1916600160a060020a03909116178255602090920191600190910190613754565b506137a29291506138b8565b5090565b6040805160c081018252600080825260208201819052918101829052606081018290526080810182905260a081019190915290565b604080516101208101825260008082526060602083018190529282018390529181018290526080810182905260a0810182905260c0810182905260e0810182905261010081019190915290565b828054600181600116156101000203166002900490600052602060002090601f016020900481019282601f1061386957805160ff1916838001178555613896565b82800160010185558215613896579182015b8281111561389657825182559160200191906001019061387b565b506137a29291505b61117891905b808211156137a257600081556001016138a4565b61117891905b808211156137a257805473ffffffffffffffffffffffffffffffffffffffff191681556001016138be56fea165627a7a72305820b954d3009f6ea2e8281b4d17a13b2d53117319f88e1b838fa0a40ffd293594670029",
  "source": "pragma solidity ^0.5.0;\r\n\r\nimport './transaction.sol';\r\n\r\ncontract TxControl is transaction {\r\n    \r\n    struct txSave{  \r\n        address buyer;  \r\n        address seller;  \r\n        uint8 txType; \r\n        bool txStatus; \r\n        uint256 value;  \r\n        uint8 buyerGrade;  \r\n    } \r\n    struct txSaveRealTime{  \r\n        address buyer;  \r\n        string ipOrEigenvalues;  \r\n        string publicKeyCheck;  \r\n        bool txStatus;  \r\n        uint256 value;  \r\n        uint32 accountsNumber;  \r\n        uint8 buyerGrade; \r\n        uint64 duration;  \r\n        uint256 buyerId;\r\n    }\r\n\r\n    mapping(address => address[]) public collectionAddress;  \r\n    address owner = msg.sender;\r\n    txSave[] txList;  \r\n    txSaveRealTime[] txRealTimeList;  \r\n    event addTx(address seller, uint256[] fileNUmberList, string publicKeyCheck);  //\r\n    event addRealTimeTx(uint256 buyerId, string publicKeyCheck, string ipOrEigenvalues, uint64 duration);\r\n    event confirmTx(uint256 i); \r\n    event confirmRealTimeTx(uint256 i); \r\n\r\n    modifier onlyOwnerTx(uint256 i){  \r\n        require(owner == msg.sender);\r\n        require(!txList[i].txStatus);\r\n        _;\r\n    }\r\n\r\n    modifier onlyOwnerRealTimeTx(uint256 i){  \r\n        require(owner == msg.sender);\r\n        require(!txRealTimeList[i].txStatus);\r\n        _;\r\n    }\r\n\r\n    /*modifier checkBalanceOfBuyData(address buyer, uint256 value){\r\n        require(_balances[buyer] > value);\r\n        _;\r\n    }\r\n\r\n    modifier checkBalanceOfBuyRealTimeData(address buyer, uint256 value, uint32 accountsNumber){\r\n        require(_balances[buyer] > value * accountsNumber);\r\n        _;\r\n    } */\r\n\r\n    function () payable external { } \r\n    \r\n   /* function checkDataTxOwner(address buyer, uint256 i) public view returns(bool){\r\n        if(buyer == txList[i].buyer){\r\n            return true;\r\n        }\r\n        else{\r\n            return false;\r\n        }\r\n    } */\r\n\r\n    function buyData(address _seller, uint8 _txType, uint256 _value, uint8 _buyerGrade) public returns(uint256){\r\n        txSave memory txData = txSave({\r\n            buyer: msg.sender,\r\n            seller: _seller,\r\n            txType: _txType,\r\n            txStatus: false,\r\n            value: _value,\r\n            buyerGrade: _buyerGrade\r\n        });\r\n        txList.push(txData);\r\n        beforeDataTransaction(msg.sender, _value, _seller);\r\n        return txList.length - 1;\r\n    } \r\n\r\n    function refundData(uint256 i) public onlyOwnerTx(i) {\r\n        dataTransactionRefund(txList[i].buyer,txList[i].seller, txList[i].value);\r\n    }\r\n\r\n    function makeSureTx(uint256 i) public onlyOwnerTx(i){\r\n        afterDataTransaction(txList[i].buyer,txList[i].seller, txList[i].value, txList[i].buyerGrade);\r\n        emit confirmTx(i);\r\n    }\r\n\r\n   /* function checkRealTimeTxOwner(address buyer, uint256 i) public view returns(bool){\r\n        if(buyer == txRealTimeList[i].buyer){\r\n            return true;\r\n        }else{\r\n            return false;\r\n        }\r\n    } */\r\n\r\n    function buyRealTimeData(uint256 nonce, string memory _publicKeyCheck, string memory _ipOrEigenvalues, uint256 _value, uint32 _accountsNumber, uint8 _buyerGrade, uint64 _duration, uint256 _buyerId) public returns(uint256, uint256){\r\n        txSaveRealTime memory txRealTimeData = txSaveRealTime({\r\n            buyer: msg.sender,\r\n            publicKeyCheck: _publicKeyCheck,\r\n            ipOrEigenvalues: _ipOrEigenvalues,\r\n            txStatus: false,\r\n            value: _value,\r\n            accountsNumber: _accountsNumber,\r\n            buyerGrade: _buyerGrade,\r\n            duration: _duration,\r\n            buyerId: _buyerId\r\n        });\r\n        txRealTimeList.push(txRealTimeData);\r\n        beforeRealTimeTransaction(_accountsNumber,_value, msg.sender );\r\n        emit addRealTimeTx(_buyerId, _publicKeyCheck, _ipOrEigenvalues, _duration);\r\n        return (txRealTimeList.length - 1, nonce);\r\n    }\r\n\r\n    function setAddress(address[] memory addressList) public {\r\n        collectionAddress[msg.sender] = addressList;\r\n    }\r\n\r\n    function makeSureRealTimeTx(uint256 i) public onlyOwnerRealTimeTx(i){\r\n        afterRealTimeTransaction(msg.sender, collectionAddress[msg.sender], txRealTimeList[i].value, txRealTimeList[i].buyerGrade);\r\n        delete collectionAddress[msg.sender];\r\n        emit confirmRealTimeTx(i);\r\n    }\r\n\r\n    function refundRealTime(uint256 i) public onlyOwnerRealTimeTx(i) {\r\n        realTimeTransactionRefund(txRealTimeList[i].buyer, collectionAddress[msg.sender], txRealTimeList[i].value);\r\n    }  \r\n}",
  "sourcePath": "G:/ControlSolidity/contracts/TxControl.sol",
  "compiler": {
    "name": "solc",
    "version": "0.5.0+commit.1d4f565a.Emscripten.clang"
  },
  "schemaVersion": "3.0.5",
  "updatedAt": "2019-05-02T08:55:03.755Z",
  "devdoc": {
    "methods": {}
  },
  "userdoc": {
    "methods": {}
  }
}