{
  "contractName": "TxControl",
  "abi": [
    {
      "constant": true,
      "inputs": [],
      "name": "rechargePrice",
      "outputs": [
        {
          "name": "",
          "type": "uint256"
        }
      ],
      "payable": false,
      "stateMutability": "view",
      "type": "function",
      "signature": "0x02b090c1"
    },
    {
      "constant": false,
      "inputs": [
        {
          "name": "_from",
          "type": "address"
        },
        {
          "name": "_to",
          "type": "address[]"
        },
        {
          "name": "value",
          "type": "uint256"
        }
      ],
      "name": "realTimeTransactionRefund",
      "outputs": [],
      "payable": false,
      "stateMutability": "nonpayable",
      "type": "function",
      "signature": "0x04a85dfa"
    },
    {
      "constant": true,
      "inputs": [],
      "name": "returnContractAddress",
      "outputs": [
        {
          "name": "",
          "type": "address"
        }
      ],
      "payable": false,
      "stateMutability": "view",
      "type": "function",
      "signature": "0x0589a27c"
    },
    {
      "constant": false,
      "inputs": [
        {
          "name": "newwithdrawPrice",
          "type": "uint256"
        },
        {
          "name": "newrechargePrice",
          "type": "uint256"
        }
      ],
      "name": "setPrices",
      "outputs": [],
      "payable": false,
      "stateMutability": "nonpayable",
      "type": "function",
      "signature": "0x05fefda7"
    },
    {
      "constant": true,
      "inputs": [],
      "name": "name",
      "outputs": [
        {
          "name": "",
          "type": "string"
        }
      ],
      "payable": false,
      "stateMutability": "view",
      "type": "function",
      "signature": "0x06fdde03"
    },
    {
      "constant": false,
      "inputs": [
        {
          "name": "_spender",
          "type": "address"
        },
        {
          "name": "_value",
          "type": "uint256"
        }
      ],
      "name": "approve",
      "outputs": [
        {
          "name": "",
          "type": "bool"
        }
      ],
      "payable": false,
      "stateMutability": "nonpayable",
      "type": "function",
      "signature": "0x095ea7b3"
    },
    {
      "constant": true,
      "inputs": [
        {
          "name": "who",
          "type": "address"
        }
      ],
      "name": "Sellcontributionvalue",
      "outputs": [
        {
          "name": "",
          "type": "uint256"
        }
      ],
      "payable": false,
      "stateMutability": "view",
      "type": "function",
      "signature": "0x0a3894dc"
    },
    {
      "constant": false,
      "inputs": [
        {
          "name": "addressNumber",
          "type": "uint256"
        },
        {
          "name": "value",
          "type": "uint256"
        },
        {
          "name": "_from",
          "type": "address"
        }
      ],
      "name": "beforeRealTimeTransaction",
      "outputs": [],
      "payable": false,
      "stateMutability": "nonpayable",
      "type": "function",
      "signature": "0x15666013"
    },
    {
      "constant": true,
      "inputs": [
        {
          "name": "who",
          "type": "address"
        }
      ],
      "name": "Lastbuytime",
      "outputs": [
        {
          "name": "",
          "type": "uint256"
        }
      ],
      "payable": false,
      "stateMutability": "view",
      "type": "function",
      "signature": "0x1595a422"
    },
    {
      "constant": true,
      "inputs": [],
      "name": "totalSupply",
      "outputs": [
        {
          "name": "",
          "type": "uint256"
        }
      ],
      "payable": false,
      "stateMutability": "view",
      "type": "function",
      "signature": "0x18160ddd"
    },
    {
      "constant": false,
      "inputs": [
        {
          "name": "_from",
          "type": "address"
        },
        {
          "name": "_to",
          "type": "address"
        },
        {
          "name": "totalprice",
          "type": "uint256"
        },
        {
          "name": "buyergrade",
          "type": "uint8"
        }
      ],
      "name": "afterDataTransaction",
      "outputs": [],
      "payable": false,
      "stateMutability": "nonpayable",
      "type": "function",
      "signature": "0x1ee71c71"
    },
    {
      "constant": false,
      "inputs": [
        {
          "name": "_from",
          "type": "address"
        },
        {
          "name": "_to",
          "type": "address"
        },
        {
          "name": "_value",
          "type": "uint256"
        }
      ],
      "name": "transferFrom",
      "outputs": [
        {
          "name": "",
          "type": "bool"
        }
      ],
      "payable": false,
      "stateMutability": "nonpayable",
      "type": "function",
      "signature": "0x23b872dd"
    },
    {
      "constant": true,
      "inputs": [
        {
          "name": "who",
          "type": "address"
        }
      ],
      "name": "Buycontributionvalue",
      "outputs": [
        {
          "name": "",
          "type": "uint256"
        }
      ],
      "payable": false,
      "stateMutability": "view",
      "type": "function",
      "signature": "0x24921cd2"
    },
    {
      "constant": false,
      "inputs": [
        {
          "name": "amount",
          "type": "uint256"
        }
      ],
      "name": "withdraw",
      "outputs": [],
      "payable": false,
      "stateMutability": "nonpayable",
      "type": "function",
      "signature": "0x2e1a7d4d"
    },
    {
      "constant": true,
      "inputs": [],
      "name": "decimals",
      "outputs": [
        {
          "name": "",
          "type": "uint8"
        }
      ],
      "payable": false,
      "stateMutability": "view",
      "type": "function",
      "signature": "0x313ce567"
    },
    {
      "constant": true,
      "inputs": [],
      "name": "initialSupply",
      "outputs": [
        {
          "name": "",
          "type": "uint256"
        }
      ],
      "payable": false,
      "stateMutability": "view",
      "type": "function",
      "signature": "0x378dc3dc"
    },
    {
      "constant": true,
      "inputs": [],
      "name": "_totalSupply",
      "outputs": [
        {
          "name": "",
          "type": "uint256"
        }
      ],
      "payable": false,
      "stateMutability": "view",
      "type": "function",
      "signature": "0x3eaaf86b"
    },
    {
      "constant": false,
      "inputs": [],
      "name": "unpause",
      "outputs": [
        {
          "name": "",
          "type": "bool"
        }
      ],
      "payable": false,
      "stateMutability": "nonpayable",
      "type": "function",
      "signature": "0x3f4ba83a"
    },
    {
      "constant": false,
      "inputs": [
        {
          "name": "_value",
          "type": "uint256"
        }
      ],
      "name": "burn",
      "outputs": [
        {
          "name": "success",
          "type": "bool"
        }
      ],
      "payable": false,
      "stateMutability": "nonpayable",
      "type": "function",
      "signature": "0x42966c68"
    },
    {
      "constant": false,
      "inputs": [],
      "name": "recharge",
      "outputs": [],
      "payable": true,
      "stateMutability": "payable",
      "type": "function",
      "signature": "0x4cddae28"
    },
    {
      "constant": true,
      "inputs": [],
      "name": "paused",
      "outputs": [
        {
          "name": "",
          "type": "bool"
        }
      ],
      "payable": false,
      "stateMutability": "view",
      "type": "function",
      "signature": "0x5c975abb"
    },
    {
      "constant": true,
      "inputs": [],
      "name": "tokenName",
      "outputs": [
        {
          "name": "",
          "type": "string"
        }
      ],
      "payable": false,
      "stateMutability": "view",
      "type": "function",
      "signature": "0x6c02a931"
    },
    {
      "constant": true,
      "inputs": [
        {
          "name": "",
          "type": "address"
        }
      ],
      "name": "_balances",
      "outputs": [
        {
          "name": "",
          "type": "uint256"
        }
      ],
      "payable": false,
      "stateMutability": "view",
      "type": "function",
      "signature": "0x6ebcf607"
    },
    {
      "constant": true,
      "inputs": [
        {
          "name": "who",
          "type": "address"
        }
      ],
      "name": "balanceOf",
      "outputs": [
        {
          "name": "",
          "type": "uint256"
        }
      ],
      "payable": false,
      "stateMutability": "view",
      "type": "function",
      "signature": "0x70a08231"
    },
    {
      "constant": true,
      "inputs": [],
      "name": "withdrawPrice",
      "outputs": [
        {
          "name": "",
          "type": "uint256"
        }
      ],
      "payable": false,
      "stateMutability": "view",
      "type": "function",
      "signature": "0x7918447e"
    },
    {
      "constant": false,
      "inputs": [
        {
          "name": "target",
          "type": "address"
        },
        {
          "name": "mintedAmount",
          "type": "uint256"
        }
      ],
      "name": "mintToken",
      "outputs": [],
      "payable": false,
      "stateMutability": "nonpayable",
      "type": "function",
      "signature": "0x79c65068"
    },
    {
      "constant": false,
      "inputs": [
        {
          "name": "_from",
          "type": "address"
        },
        {
          "name": "_value",
          "type": "uint256"
        }
      ],
      "name": "burnFrom",
      "outputs": [
        {
          "name": "success",
          "type": "bool"
        }
      ],
      "payable": false,
      "stateMutability": "nonpayable",
      "type": "function",
      "signature": "0x79cc6790"
    },
    {
      "constant": true,
      "inputs": [],
      "name": "tokenSymbol",
      "outputs": [
        {
          "name": "",
          "type": "string"
        }
      ],
      "payable": false,
      "stateMutability": "view",
      "type": "function",
      "signature": "0x7b61c320"
    },
    {
      "constant": false,
      "inputs": [
        {
          "name": "_from",
          "type": "address"
        },
        {
          "name": "_to",
          "type": "address"
        },
        {
          "name": "totalprice",
          "type": "uint256"
        }
      ],
      "name": "dataTransactionRefund",
      "outputs": [],
      "payable": false,
      "stateMutability": "nonpayable",
      "type": "function",
      "signature": "0x7c28248c"
    },
    {
      "constant": true,
      "inputs": [
        {
          "name": "",
          "type": "address"
        },
        {
          "name": "",
          "type": "uint256"
        }
      ],
      "name": "collectionAddress",
      "outputs": [
        {
          "name": "",
          "type": "address"
        }
      ],
      "payable": false,
      "stateMutability": "view",
      "type": "function",
      "signature": "0x7d520ea6"
    },
    {
      "constant": true,
      "inputs": [
        {
          "name": "account",
          "type": "address"
        }
      ],
      "name": "ifAccountFrozen",
      "outputs": [
        {
          "name": "",
          "type": "bool"
        }
      ],
      "payable": false,
      "stateMutability": "view",
      "type": "function",
      "signature": "0x7fed80bb"
    },
    {
      "constant": false,
      "inputs": [],
      "name": "pause",
      "outputs": [
        {
          "name": "",
          "type": "bool"
        }
      ],
      "payable": false,
      "stateMutability": "nonpayable",
      "type": "function",
      "signature": "0x8456cb59"
    },
    {
      "constant": true,
      "inputs": [],
      "name": "heyueYitaibi",
      "outputs": [
        {
          "name": "",
          "type": "uint256"
        }
      ],
      "payable": false,
      "stateMutability": "view",
      "type": "function",
      "signature": "0x863e4299"
    },
    {
      "constant": true,
      "inputs": [],
      "name": "owner",
      "outputs": [
        {
          "name": "",
          "type": "address"
        }
      ],
      "payable": false,
      "stateMutability": "view",
      "type": "function",
      "signature": "0x8da5cb5b"
    },
    {
      "constant": true,
      "inputs": [],
      "name": "symbol",
      "outputs": [
        {
          "name": "",
          "type": "string"
        }
      ],
      "payable": false,
      "stateMutability": "view",
      "type": "function",
      "signature": "0x95d89b41"
    },
    {
      "constant": false,
      "inputs": [
        {
          "name": "_to",
          "type": "address"
        },
        {
          "name": "totalprice",
          "type": "uint256"
        },
        {
          "name": "_from",
          "type": "address"
        }
      ],
      "name": "beforeDataTransaction",
      "outputs": [],
      "payable": false,
      "stateMutability": "nonpayable",
      "type": "function",
      "signature": "0x9bab5e49"
    },
    {
      "constant": false,
      "inputs": [
        {
          "name": "_to",
          "type": "address"
        },
        {
          "name": "_value",
          "type": "uint256"
        }
      ],
      "name": "transfer",
      "outputs": [
        {
          "name": "",
          "type": "bool"
        }
      ],
      "payable": false,
      "stateMutability": "nonpayable",
      "type": "function",
      "signature": "0xa9059cbb"
    },
    {
      "constant": true,
      "inputs": [
        {
          "name": "",
          "type": "address"
        }
      ],
      "name": "frozenAccount",
      "outputs": [
        {
          "name": "",
          "type": "bool"
        }
      ],
      "payable": false,
      "stateMutability": "view",
      "type": "function",
      "signature": "0xb414d4b6"
    },
    {
      "constant": false,
      "inputs": [],
      "name": "transferHeyue",
      "outputs": [],
      "payable": true,
      "stateMutability": "payable",
      "type": "function",
      "signature": "0xceaf7fb2"
    },
    {
      "constant": true,
      "inputs": [
        {
          "name": "owner",
          "type": "address"
        },
        {
          "name": "spender",
          "type": "address"
        }
      ],
      "name": "allowance",
      "outputs": [
        {
          "name": "",
          "type": "uint256"
        }
      ],
      "payable": false,
      "stateMutability": "view",
      "type": "function",
      "signature": "0xdd62ed3e"
    },
    {
      "constant": false,
      "inputs": [
        {
          "name": "target",
          "type": "address"
        },
        {
          "name": "freeze",
          "type": "bool"
        }
      ],
      "name": "freezeAccount",
      "outputs": [],
      "payable": false,
      "stateMutability": "nonpayable",
      "type": "function",
      "signature": "0xe724529c"
    },
    {
      "constant": false,
      "inputs": [
        {
          "name": "_from",
          "type": "address"
        },
        {
          "name": "_to",
          "type": "address[]"
        },
        {
          "name": "value",
          "type": "uint256"
        },
        {
          "name": "buyergrade",
          "type": "uint8"
        }
      ],
      "name": "afterRealTimeTransaction",
      "outputs": [],
      "payable": false,
      "stateMutability": "nonpayable",
      "type": "function",
      "signature": "0xe764c6e1"
    },
    {
      "constant": false,
      "inputs": [],
      "name": "heyueTixian",
      "outputs": [],
      "payable": false,
      "stateMutability": "nonpayable",
      "type": "function",
      "signature": "0xeef71d6f"
    },
    {
      "constant": false,
      "inputs": [
        {
          "name": "newOwner",
          "type": "address"
        }
      ],
      "name": "transferOwnership",
      "outputs": [],
      "payable": false,
      "stateMutability": "nonpayable",
      "type": "function",
      "signature": "0xf2fde38b"
    },
    {
      "constant": true,
      "inputs": [],
      "name": "amount1",
      "outputs": [
        {
          "name": "",
          "type": "uint256"
        }
      ],
      "payable": false,
      "stateMutability": "view",
      "type": "function",
      "signature": "0xf400fde4"
    },
    {
      "payable": true,
      "stateMutability": "payable",
      "type": "fallback"
    },
    {
      "anonymous": false,
      "inputs": [
        {
          "indexed": false,
          "name": "seller",
          "type": "address"
        },
        {
          "indexed": false,
          "name": "fileNUmberList",
          "type": "uint256[]"
        },
        {
          "indexed": false,
          "name": "publicKeyCheck",
          "type": "string"
        }
      ],
      "name": "addTx",
      "type": "event",
      "signature": "0xc3eebc9cdbc07130e15fe44f4d0b5fbeeb52cb0be98e0282c4249ec6657996b1"
    },
    {
      "anonymous": false,
      "inputs": [
        {
          "indexed": false,
          "name": "publicKeyCheck",
          "type": "string"
        },
        {
          "indexed": false,
          "name": "ipOrEigenvalues",
          "type": "string"
        }
      ],
      "name": "addRealTimeTx",
      "type": "event",
      "signature": "0xbda6b93561aad1ca0c8cf12fa0283601a1743b8ae2133e0923ba6f02a7c248b9"
    },
    {
      "anonymous": false,
      "inputs": [
        {
          "indexed": false,
          "name": "i",
          "type": "uint256"
        }
      ],
      "name": "confirmTx",
      "type": "event",
      "signature": "0x801be060160611f44999389892b6b79359677ff2d431948a5c8b5a80e14a1ff8"
    },
    {
      "anonymous": false,
      "inputs": [
        {
          "indexed": false,
          "name": "i",
          "type": "uint256"
        }
      ],
      "name": "confirmRealTimeTx",
      "type": "event",
      "signature": "0x8b83e47b1af3f949d67804a4ab493fded8198468172c75006b4c7da507345c74"
    },
    {
      "anonymous": false,
      "inputs": [
        {
          "indexed": false,
          "name": "target",
          "type": "address"
        },
        {
          "indexed": false,
          "name": "success",
          "type": "bool"
        }
      ],
      "name": "SuccessFunds",
      "type": "event",
      "signature": "0x4656763aeb5076063b1b9201e728e03b650c4e545b46330125af5d01c01fae56"
    },
    {
      "anonymous": false,
      "inputs": [
        {
          "indexed": false,
          "name": "target",
          "type": "address"
        },
        {
          "indexed": false,
          "name": "frozen",
          "type": "bool"
        }
      ],
      "name": "FrozenFunds",
      "type": "event",
      "signature": "0x48335238b4855f35377ed80f164e8c6f3c366e54ac00b96a6402d4a9814a03a5"
    },
    {
      "anonymous": false,
      "inputs": [
        {
          "indexed": true,
          "name": "from",
          "type": "address"
        },
        {
          "indexed": true,
          "name": "to",
          "type": "address"
        },
        {
          "indexed": false,
          "name": "value",
          "type": "uint256"
        }
      ],
      "name": "Transfer",
      "type": "event",
      "signature": "0xddf252ad1be2c89b69c2b068fc378daa952ba7f163c4a11628f55a4df523b3ef"
    },
    {
      "anonymous": false,
      "inputs": [
        {
          "indexed": true,
          "name": "from",
          "type": "address"
        },
        {
          "indexed": false,
          "name": "value",
          "type": "uint256"
        }
      ],
      "name": "Burn",
      "type": "event",
      "signature": "0xcc16f5dbb4873280815c1ee09dbd06736cffcc184412cf7a71a0fdb75d397ca5"
    },
    {
      "anonymous": false,
      "inputs": [],
      "name": "Pause",
      "type": "event",
      "signature": "0x6985a02210a168e66602d3235cb6db0e70f92b3ba4d376a33c0f3d9434bff625"
    },
    {
      "anonymous": false,
      "inputs": [],
      "name": "Unpause",
      "type": "event",
      "signature": "0x7805862f689e2f13df9f062ff482ad3ad112aca9e0847911ed832e158c525b33"
    },
    {
      "constant": true,
      "inputs": [
        {
          "name": "buyer",
          "type": "address"
        },
        {
          "name": "i",
          "type": "uint256"
        }
      ],
      "name": "checkDataTxOwner",
      "outputs": [
        {
          "name": "",
          "type": "bool"
        }
      ],
      "payable": false,
      "stateMutability": "view",
      "type": "function",
      "signature": "0x0fbee98b"
    },
    {
      "constant": false,
      "inputs": [
        {
          "name": "_seller",
          "type": "address"
        },
        {
          "name": "_fileNumberList",
          "type": "uint256[]"
        },
        {
          "name": "_publicKeyCheck",
          "type": "string"
        },
        {
          "name": "_txType",
          "type": "uint8"
        },
        {
          "name": "_value",
          "type": "uint256"
        },
        {
          "name": "_buyerGrade",
          "type": "uint8"
        }
      ],
      "name": "buyData",
      "outputs": [
        {
          "name": "",
          "type": "uint256"
        }
      ],
      "payable": false,
      "stateMutability": "nonpayable",
      "type": "function",
      "signature": "0x8c904400"
    },
    {
      "constant": false,
      "inputs": [
        {
          "name": "i",
          "type": "uint256"
        }
      ],
      "name": "refundData",
      "outputs": [],
      "payable": false,
      "stateMutability": "nonpayable",
      "type": "function",
      "signature": "0x4b160ef7"
    },
    {
      "constant": false,
      "inputs": [
        {
          "name": "i",
          "type": "uint256"
        }
      ],
      "name": "makeSureTx",
      "outputs": [],
      "payable": false,
      "stateMutability": "nonpayable",
      "type": "function",
      "signature": "0x9ee66913"
    },
    {
      "constant": true,
      "inputs": [
        {
          "name": "buyer",
          "type": "address"
        },
        {
          "name": "i",
          "type": "uint256"
        }
      ],
      "name": "checkRealTimeTxOwner",
      "outputs": [
        {
          "name": "",
          "type": "bool"
        }
      ],
      "payable": false,
      "stateMutability": "view",
      "type": "function",
      "signature": "0xf73b152d"
    },
    {
      "constant": false,
      "inputs": [
        {
          "name": "_publicKeyCheck",
          "type": "string"
        },
        {
          "name": "_ipOrEigenvalues",
          "type": "string"
        },
        {
          "name": "_value",
          "type": "uint256"
        },
        {
          "name": "_accountsNumber",
          "type": "uint32"
        },
        {
          "name": "_buyerGrade",
          "type": "uint8"
        }
      ],
      "name": "buyRealTimeData",
      "outputs": [
        {
          "name": "",
          "type": "uint256"
        }
      ],
      "payable": false,
      "stateMutability": "nonpayable",
      "type": "function",
      "signature": "0x6d0c7c4b"
    },
    {
      "constant": false,
      "inputs": [
        {
          "name": "addressList",
          "type": "address[]"
        }
      ],
      "name": "setAddress",
      "outputs": [],
      "payable": false,
      "stateMutability": "nonpayable",
      "type": "function",
      "signature": "0xa354d3f6"
    },
    {
      "constant": false,
      "inputs": [
        {
          "name": "i",
          "type": "uint256"
        }
      ],
      "name": "makeSureRealTimeTx",
      "outputs": [],
      "payable": false,
      "stateMutability": "nonpayable",
      "type": "function",
      "signature": "0x9e8c9a40"
    },
    {
      "constant": false,
      "inputs": [
        {
          "name": "i",
          "type": "uint256"
        }
      ],
      "name": "refundRealTime",
      "outputs": [],
      "payable": false,
      "stateMutability": "nonpayable",
      "type": "function",
      "signature": "0xfcbd7ae2"
    }
  ],
  "bytecode": "0x608060405260008060146101000a81548160ff0219169083151502179055506012600360006101000a81548160ff021916908360ff1602179055506009600755600a600855620186a06009556040805190810160405280600281526020017f6572000000000000000000000000000000000000000000000000000000000000815250600a90805190602001906200009892919062000348565b506040805190810160405280600181526020017f6500000000000000000000000000000000000000000000000000000000000000815250600b9080519060200190620000e692919062000348565b5033601760006101000a81548173ffffffffffffffffffffffffffffffffffffffff021916908373ffffffffffffffffffffffffffffffffffffffff160217905550600954600a8054600181600116156101000203166002900480601f016020809104026020016040519081016040528092919081815260200182805460018160011615610100020316600290048015620001c55780601f106200019957610100808354040283529160200191620001c5565b820191906000526020600020905b815481529060010190602001808311620001a757829003601f168201915b5050505050600b8054600181600116156101000203166002900480601f016020809104026020016040519081016040528092919081815260200182805460018160011615610100020316600290048015620002645780601f10620002385761010080835404028352916020019162000264565b820191906000526020600020905b8154815290600101906020018083116200024657829003601f168201915b5050505050336000806101000a81548173ffffffffffffffffffffffffffffffffffffffff021916908373ffffffffffffffffffffffffffffffffffffffff160217905550600360009054906101000a900460ff1660ff16600a0a8302600481905550600454600560003073ffffffffffffffffffffffffffffffffffffffff1673ffffffffffffffffffffffffffffffffffffffff1681526020019081526020016000208190555081600190805190602001906200032592919062000348565b5080600290805190602001906200033e92919062000348565b50505050620003f7565b828054600181600116156101000203166002900490600052602060002090601f016020900481019282601f106200038b57805160ff1916838001178555620003bc565b82800160010185558215620003bc579182015b82811115620003bb5782518255916020019190600101906200039e565b5b509050620003cb9190620003cf565b5090565b620003f491905b80821115620003f0576000816000905550600101620003d6565b5090565b90565b6140a680620004076000396000f3fe608060405260043610610288576000357c0100000000000000000000000000000000000000000000000000000000900463ffffffff16806302b090c11461028a57806304a85dfa146102b55780630589a27c146102de57806305fefda71461030957806306fdde0314610332578063095ea7b31461035d5780630a3894dc1461039a5780630fbee98b146103d757806315666013146104145780631595a4221461043d57806318160ddd1461047a5780631ee71c71146104a557806323b872dd146104ce57806324921cd21461050b5780632e1a7d4d14610548578063313ce56714610571578063378dc3dc1461059c5780633eaaf86b146105c75780633f4ba83a146105f257806342966c681461061d5780634b160ef71461065a5780634cddae28146106835780635c975abb1461068d5780636c02a931146106b85780636d0c7c4b146106e35780636ebcf6071461072057806370a082311461075d5780637918447e1461079a57806379c65068146107c557806379cc6790146107ee5780637b61c3201461082b5780637c28248c146108565780637d520ea61461087f5780637fed80bb146108bc5780638456cb59146108f9578063863e4299146109245780638c9044001461094f5780638da5cb5b1461098c57806395d89b41146109b75780639bab5e49146109e25780639e8c9a4014610a0b5780639ee6691314610a34578063a354d3f614610a5d578063a9059cbb14610a86578063b414d4b614610ac3578063ceaf7fb214610b00578063dd62ed3e14610b0a578063e724529c14610b47578063e764c6e114610b70578063eef71d6f14610b99578063f2fde38b14610bb0578063f400fde414610bd9578063f73b152d14610c04578063fcbd7ae214610c41575b005b34801561029657600080fd5b5061029f610c6a565b6040516102ac9190613e41565b60405180910390f35b3480156102c157600080fd5b506102dc60048036036102d79190810190613819565b610c70565b005b3480156102ea57600080fd5b506102f3610c91565b6040516103009190613d29565b60405180910390f35b34801561031557600080fd5b50610330600480360361032b9190810190613b8c565b610c99565b005b34801561033e57600080fd5b50610347610d2c565b6040516103549190613de8565b60405180910390f35b34801561036957600080fd5b50610384600480360361037f91908101906139f0565b610dca565b6040516103919190613dcd565b60405180910390f35b3480156103a657600080fd5b506103c160048036036103bc919081019061368a565b610eef565b6040516103ce9190613e41565b60405180910390f35b3480156103e357600080fd5b506103fe60048036036103f991908101906139f0565b610f38565b60405161040b9190613dcd565b60405180910390f35b34801561042057600080fd5b5061043b60048036036104369190810190613bc8565b610fc2565b005b34801561044957600080fd5b50610464600480360361045f919081019061368a565b610fe3565b6040516104719190613e41565b60405180910390f35b34801561048657600080fd5b5061048f61102c565b60405161049c9190613e41565b60405180910390f35b3480156104b157600080fd5b506104cc60048036036104c791908101906137b6565b611036565b005b3480156104da57600080fd5b506104f560048036036104f091908101906136dc565b611058565b6040516105029190613dcd565b60405180910390f35b34801561051757600080fd5b50610532600480360361052d919081019061368a565b61123e565b60405161053f9190613e41565b60405180910390f35b34801561055457600080fd5b5061056f600480360361056a9190810190613b63565b611287565b005b34801561057d57600080fd5b50610586611326565b6040516105939190613e5c565b60405180910390f35b3480156105a857600080fd5b506105b1611339565b6040516105be9190613e41565b60405180910390f35b3480156105d357600080fd5b506105dc61133f565b6040516105e99190613e41565b60405180910390f35b3480156105fe57600080fd5b50610607611345565b6040516106149190613dcd565b60405180910390f35b34801561062957600080fd5b50610644600480360361063f9190810190613b63565b61140a565b6040516106519190613dcd565b60405180910390f35b34801561066657600080fd5b50610681600480360361067c9190810190613b63565b611585565b005b61068b6116cb565b005b34801561069957600080fd5b506106a2611707565b6040516106af9190613dcd565b60405180910390f35b3480156106c457600080fd5b506106cd61171a565b6040516106da9190613de8565b60405180910390f35b3480156106ef57600080fd5b5061070a60048036036107059190810190613abc565b6117b8565b6040516107179190613e41565b60405180910390f35b34801561072c57600080fd5b506107476004803603610742919081019061368a565b6119f5565b6040516107549190613e41565b60405180910390f35b34801561076957600080fd5b50610784600480360361077f919081019061368a565b611a0d565b6040516107919190613e41565b60405180910390f35b3480156107a657600080fd5b506107af611a56565b6040516107bc9190613e41565b60405180910390f35b3480156107d157600080fd5b506107ec60048036036107e791908101906139f0565b611a5c565b005b3480156107fa57600080fd5b50610815600480360361081091908101906139f0565b611bff565b6040516108229190613dcd565b60405180910390f35b34801561083757600080fd5b50610840611ed2565b60405161084d9190613de8565b60405180910390f35b34801561086257600080fd5b5061087d60048036036108789190810190613767565b611f70565b005b34801561088b57600080fd5b506108a660048036036108a191908101906139f0565b611f91565b6040516108b39190613d29565b60405180910390f35b3480156108c857600080fd5b506108e360048036036108de919081019061368a565b611fde565b6040516108f09190613dcd565b60405180910390f35b34801561090557600080fd5b5061090e612034565b60405161091b9190613dcd565b60405180910390f35b34801561093057600080fd5b506109396120fb565b6040516109469190613e41565b60405180910390f35b34801561095b57600080fd5b50610976600480360361097191908101906138fb565b61211a565b6040516109839190613e41565b60405180910390f35b34801561099857600080fd5b506109a16123a5565b6040516109ae9190613d44565b60405180910390f35b3480156109c357600080fd5b506109cc6123ca565b6040516109d99190613de8565b60405180910390f35b3480156109ee57600080fd5b50610a096004803603610a049190810190613a2c565b612468565b005b348015610a1757600080fd5b50610a326004803603610a2d9190810190613b63565b612489565b005b348015610a4057600080fd5b50610a5b6004803603610a569190810190613b63565b6126c2565b005b348015610a6957600080fd5b50610a846004803603610a7f9190810190613a7b565b61286d565b005b348015610a9257600080fd5b50610aad6004803603610aa891908101906139f0565b6128c4565b604051610aba9190613dcd565b60405180910390f35b348015610acf57600080fd5b50610aea6004803603610ae5919081019061368a565b612905565b604051610af79190613dcd565b60405180910390f35b610b08612925565b005b348015610b1657600080fd5b50610b316004803603610b2c919081019061372b565b612943565b604051610b3e9190613e41565b60405180910390f35b348015610b5357600080fd5b50610b6e6004803603610b6991908101906139b4565b6129ca565b005b348015610b7c57600080fd5b50610b976004803603610b929190810190613880565b612ad5565b005b348015610ba557600080fd5b50610bae612af7565b005b348015610bbc57600080fd5b50610bd76004803603610bd291908101906136b3565b612bf8565b005b348015610be557600080fd5b50610bee612cd2565b604051610bfb9190613e41565b60405180910390f35b348015610c1057600080fd5b50610c2b6004803603610c2691908101906139f0565b612cd8565b604051610c389190613dcd565b60405180910390f35b348015610c4d57600080fd5b50610c686004803603610c639190810190613b63565b612d62565b005b60085481565b600060149054906101000a900460ff16151515610c8c57600080fd5b505050565b600030905090565b6000809054906101000a900473ffffffffffffffffffffffffffffffffffffffff1673ffffffffffffffffffffffffffffffffffffffff163373ffffffffffffffffffffffffffffffffffffffff16141515610cf457600080fd5b600060149054906101000a900460ff16151515610d1057600080fd5b8082111515610d285781600781905550806008819055505b5050565b60018054600181600116156101000203166002900480601f016020809104026020016040519081016040528092919081815260200182805460018160011615610100020316600290048015610dc25780601f10610d9757610100808354040283529160200191610dc2565b820191906000526020600020905b815481529060010190602001808311610da557829003601f168201915b505050505081565b60008060009054906101000a900473ffffffffffffffffffffffffffffffffffffffff1673ffffffffffffffffffffffffffffffffffffffff163373ffffffffffffffffffffffffffffffffffffffff16141515610e2757600080fd5b600060149054906101000a900460ff16151515610e4357600080fd5b81600660008060009054906101000a900473ffffffffffffffffffffffffffffffffffffffff1673ffffffffffffffffffffffffffffffffffffffff1673ffffffffffffffffffffffffffffffffffffffff16815260200190815260200160002060008573ffffffffffffffffffffffffffffffffffffffff1673ffffffffffffffffffffffffffffffffffffffff168152602001908152602001600020819055506001905092915050565b6000601460008373ffffffffffffffffffffffffffffffffffffffff1673ffffffffffffffffffffffffffffffffffffffff168152602001908152602001600020549050919050565b6000601882815481101515610f4957fe5b906000526020600020906007020160000160009054906101000a900473ffffffffffffffffffffffffffffffffffffffff1673ffffffffffffffffffffffffffffffffffffffff168373ffffffffffffffffffffffffffffffffffffffff161415610fb75760019050610fbc565b600090505b92915050565b600060149054906101000a900460ff16151515610fde57600080fd5b505050565b6000601560008373ffffffffffffffffffffffffffffffffffffffff1673ffffffffffffffffffffffffffffffffffffffff168152602001908152602001600020549050919050565b6000600454905090565b600060149054906101000a900460ff1615151561105257600080fd5b50505050565b60008060009054906101000a900473ffffffffffffffffffffffffffffffffffffffff1673ffffffffffffffffffffffffffffffffffffffff163373ffffffffffffffffffffffffffffffffffffffff161415156110b557600080fd5b600060149054906101000a900460ff161515156110d157600080fd5b600660008060009054906101000a900473ffffffffffffffffffffffffffffffffffffffff1673ffffffffffffffffffffffffffffffffffffffff1673ffffffffffffffffffffffffffffffffffffffff16815260200190815260200160002060008573ffffffffffffffffffffffffffffffffffffffff1673ffffffffffffffffffffffffffffffffffffffff16815260200190815260200160002054821115151561117d57600080fd5b81600660008060009054906101000a900473ffffffffffffffffffffffffffffffffffffffff1673ffffffffffffffffffffffffffffffffffffffff1673ffffffffffffffffffffffffffffffffffffffff16815260200190815260200160002060008673ffffffffffffffffffffffffffffffffffffffff1673ffffffffffffffffffffffffffffffffffffffff16815260200190815260200160002060008282540392505081905550611233848484612f2b565b600190509392505050565b6000601360008373ffffffffffffffffffffffffffffffffffffffff1673ffffffffffffffffffffffffffffffffffffffff168152602001908152602001600020549050919050565b600060149054906101000a900460ff161515156112a357600080fd5b60075481023073ffffffffffffffffffffffffffffffffffffffff1631101515156112cd57600080fd5b6112d8333083612f2b565b3373ffffffffffffffffffffffffffffffffffffffff166108fc60075483029081150290604051600060405180830381858888f19350505050158015611322573d6000803e3d6000fd5b5050565b600360009054906101000a900460ff1681565b60095481565b60045481565b60008060009054906101000a900473ffffffffffffffffffffffffffffffffffffffff1673ffffffffffffffffffffffffffffffffffffffff163373ffffffffffffffffffffffffffffffffffffffff161415156113a257600080fd5b600060149054906101000a900460ff1615156113bd57600080fd5b60008060146101000a81548160ff0219169083151502179055507f7805862f689e2f13df9f062ff482ad3ad112aca9e0847911ed832e158c525b3360405160405180910390a16001905090565b60008060009054906101000a900473ffffffffffffffffffffffffffffffffffffffff1673ffffffffffffffffffffffffffffffffffffffff163373ffffffffffffffffffffffffffffffffffffffff1614151561146757600080fd5b600060149054906101000a900460ff1615151561148357600080fd5b81600560003073ffffffffffffffffffffffffffffffffffffffff1673ffffffffffffffffffffffffffffffffffffffff16815260200190815260200160002054101515156114d157600080fd5b81600560003073ffffffffffffffffffffffffffffffffffffffff1673ffffffffffffffffffffffffffffffffffffffff16815260200190815260200160002060008282540392505081905550816004600082825403925050819055503073ffffffffffffffffffffffffffffffffffffffff167fcc16f5dbb4873280815c1ee09dbd06736cffcc184412cf7a71a0fdb75d397ca5836040516115749190613e41565b60405180910390a260019050919050565b803373ffffffffffffffffffffffffffffffffffffffff16601760009054906101000a900473ffffffffffffffffffffffffffffffffffffffff1673ffffffffffffffffffffffffffffffffffffffff161415156115e257600080fd5b6018818154811015156115f157fe5b906000526020600020906007020160040160019054906101000a900460ff1615151561161c57600080fd5b6116c760188381548110151561162e57fe5b906000526020600020906007020160000160009054906101000a900473ffffffffffffffffffffffffffffffffffffffff1660188481548110151561166f57fe5b906000526020600020906007020160010160009054906101000a900473ffffffffffffffffffffffffffffffffffffffff166018858154811015156116b057fe5b906000526020600020906007020160050154611f70565b5050565b600060149054906101000a900460ff161515156116e757600080fd5b6000600854348115156116f657fe5b049050611704303383612f2b565b50565b600060149054906101000a900460ff1681565b600a8054600181600116156101000203166002900480601f0160208091040260200160405190810160405280929190818152602001828054600181600116156101000203166002900480156117b05780601f10611785576101008083540402835291602001916117b0565b820191906000526020600020905b81548152906001019060200180831161179357829003601f168201915b505050505081565b60003384848063ffffffff168202600560008573ffffffffffffffffffffffffffffffffffffffff1673ffffffffffffffffffffffffffffffffffffffff1681526020019081526020016000205411151561181257600080fd5b61181a6131f9565b60e0604051908101604052803373ffffffffffffffffffffffffffffffffffffffff1681526020018a81526020018b81526020016000151581526020018981526020018863ffffffff1681526020018760ff1681525090506019819080600181540180825580915050906001820390600052602060002090600602016000909192909190915060008201518160000160006101000a81548173ffffffffffffffffffffffffffffffffffffffff021916908373ffffffffffffffffffffffffffffffffffffffff1602179055506020820151816001019080519060200190611903929190613258565b506040820151816002019080519060200190611920929190613258565b5060608201518160030160006101000a81548160ff0219169083151502179055506080820151816004015560a08201518160050160006101000a81548163ffffffff021916908363ffffffff16021790555060c08201518160050160046101000a81548160ff021916908360ff1602179055505050506119a78763ffffffff168933610fc2565b7fbda6b93561aad1ca0c8cf12fa0283601a1743b8ae2133e0923ba6f02a7c248b98a8a6040516119d8929190613e0a565b60405180910390a160198054905094505050505095945050505050565b60056020528060005260406000206000915090505481565b6000600560008373ffffffffffffffffffffffffffffffffffffffff1673ffffffffffffffffffffffffffffffffffffffff168152602001908152602001600020549050919050565b60075481565b6000809054906101000a900473ffffffffffffffffffffffffffffffffffffffff1673ffffffffffffffffffffffffffffffffffffffff163373ffffffffffffffffffffffffffffffffffffffff16141515611ab757600080fd5b600060149054906101000a900460ff16151515611ad357600080fd5b80600560008473ffffffffffffffffffffffffffffffffffffffff1673ffffffffffffffffffffffffffffffffffffffff16815260200190815260200160002060008282540192505081905550806004600082825401925050819055503073ffffffffffffffffffffffffffffffffffffffff16600073ffffffffffffffffffffffffffffffffffffffff167fddf252ad1be2c89b69c2b068fc378daa952ba7f163c4a11628f55a4df523b3ef83604051611b8e9190613e41565b60405180910390a38173ffffffffffffffffffffffffffffffffffffffff163073ffffffffffffffffffffffffffffffffffffffff167fddf252ad1be2c89b69c2b068fc378daa952ba7f163c4a11628f55a4df523b3ef83604051611bf39190613e41565b60405180910390a35050565b60008060009054906101000a900473ffffffffffffffffffffffffffffffffffffffff1673ffffffffffffffffffffffffffffffffffffffff163373ffffffffffffffffffffffffffffffffffffffff16141515611c5c57600080fd5b600060149054906101000a900460ff16151515611c7857600080fd5b81600560008573ffffffffffffffffffffffffffffffffffffffff1673ffffffffffffffffffffffffffffffffffffffff1681526020019081526020016000205410151515611cc657600080fd5b600660008060009054906101000a900473ffffffffffffffffffffffffffffffffffffffff1673ffffffffffffffffffffffffffffffffffffffff1673ffffffffffffffffffffffffffffffffffffffff16815260200190815260200160002060008473ffffffffffffffffffffffffffffffffffffffff1673ffffffffffffffffffffffffffffffffffffffff168152602001908152602001600020548211151515611d7257600080fd5b81600560008573ffffffffffffffffffffffffffffffffffffffff1673ffffffffffffffffffffffffffffffffffffffff1681526020019081526020016000206000828254039250508190555081600660008060009054906101000a900473ffffffffffffffffffffffffffffffffffffffff1673ffffffffffffffffffffffffffffffffffffffff1673ffffffffffffffffffffffffffffffffffffffff16815260200190815260200160002060008573ffffffffffffffffffffffffffffffffffffffff1673ffffffffffffffffffffffffffffffffffffffff16815260200190815260200160002060008282540392505081905550816004600082825403925050819055508273ffffffffffffffffffffffffffffffffffffffff167fcc16f5dbb4873280815c1ee09dbd06736cffcc184412cf7a71a0fdb75d397ca583604051611ec09190613e41565b60405180910390a26001905092915050565b600b8054600181600116156101000203166002900480601f016020809104026020016040519081016040528092919081815260200182805460018160011615610100020316600290048015611f685780601f10611f3d57610100808354040283529160200191611f68565b820191906000526020600020905b815481529060010190602001808311611f4b57829003601f168201915b505050505081565b600060149054906101000a900460ff16151515611f8c57600080fd5b505050565b601660205281600052604060002081815481101515611fac57fe5b906000526020600020016000915091509054906101000a900473ffffffffffffffffffffffffffffffffffffffff1681565b6000600d60008373ffffffffffffffffffffffffffffffffffffffff1673ffffffffffffffffffffffffffffffffffffffff16815260200190815260200160002060009054906101000a900460ff169050919050565b60008060009054906101000a900473ffffffffffffffffffffffffffffffffffffffff1673ffffffffffffffffffffffffffffffffffffffff163373ffffffffffffffffffffffffffffffffffffffff1614151561209157600080fd5b600060149054906101000a900460ff161515156120ad57600080fd5b6001600060146101000a81548160ff0219169083151502179055507f6985a02210a168e66602d3235cb6db0e70f92b3ba4d376a33c0f3d9434bff62560405160405180910390a16001905090565b60003073ffffffffffffffffffffffffffffffffffffffff1631905090565b6000338380600560008473ffffffffffffffffffffffffffffffffffffffff1673ffffffffffffffffffffffffffffffffffffffff1681526020019081526020016000205411151561216b57600080fd5b6121736132d8565b610100604051908101604052803373ffffffffffffffffffffffffffffffffffffffff1681526020018b73ffffffffffffffffffffffffffffffffffffffff1681526020018a81526020018981526020018860ff1681526020016000151581526020018781526020018660ff1681525090506018819080600181540180825580915050906001820390600052602060002090600702016000909192909190915060008201518160000160006101000a81548173ffffffffffffffffffffffffffffffffffffffff021916908373ffffffffffffffffffffffffffffffffffffffff16021790555060208201518160010160006101000a81548173ffffffffffffffffffffffffffffffffffffffff021916908373ffffffffffffffffffffffffffffffffffffffff16021790555060408201518160020190805190602001906122bd929190613352565b5060608201518160030190805190602001906122da929190613258565b5060808201518160040160006101000a81548160ff021916908360ff16021790555060a08201518160040160016101000a81548160ff02191690831515021790555060c0820151816005015560e08201518160060160006101000a81548160ff021916908360ff16021790555050505061235533878c612468565b7fc3eebc9cdbc07130e15fe44f4d0b5fbeeb52cb0be98e0282c4249ec6657996b18a8a8a60405161238893929190613d5f565b60405180910390a160188054905093505050509695505050505050565b6000809054906101000a900473ffffffffffffffffffffffffffffffffffffffff1681565b60028054600181600116156101000203166002900480601f0160208091040260200160405190810160405280929190818152602001828054600181600116156101000203166002900480156124605780601f1061243557610100808354040283529160200191612460565b820191906000526020600020905b81548152906001019060200180831161244357829003601f168201915b505050505081565b600060149054906101000a900460ff1615151561248457600080fd5b505050565b803373ffffffffffffffffffffffffffffffffffffffff16601760009054906101000a900473ffffffffffffffffffffffffffffffffffffffff1673ffffffffffffffffffffffffffffffffffffffff161415156124e657600080fd5b6019818154811015156124f557fe5b906000526020600020906006020160030160009054906101000a900460ff1615151561252057600080fd5b61263c33601660003373ffffffffffffffffffffffffffffffffffffffff1673ffffffffffffffffffffffffffffffffffffffff1681526020019081526020016000208054806020026020016040519081016040528092919081815260200182805480156125e357602002820191906000526020600020905b8160009054906101000a900473ffffffffffffffffffffffffffffffffffffffff1673ffffffffffffffffffffffffffffffffffffffff1681526020019060010190808311612599575b50505050506019858154811015156125f757fe5b90600052602060002090600602016004015460198681548110151561261857fe5b906000526020600020906006020160050160049054906101000a900460ff16612ad5565b601660003373ffffffffffffffffffffffffffffffffffffffff1673ffffffffffffffffffffffffffffffffffffffff1681526020019081526020016000206000612687919061339f565b7f8b83e47b1af3f949d67804a4ab493fded8198468172c75006b4c7da507345c74826040516126b69190613e41565b60405180910390a15050565b803373ffffffffffffffffffffffffffffffffffffffff16601760009054906101000a900473ffffffffffffffffffffffffffffffffffffffff1673ffffffffffffffffffffffffffffffffffffffff1614151561271f57600080fd5b60188181548110151561272e57fe5b906000526020600020906007020160040160019054906101000a900460ff1615151561275957600080fd5b61283260188381548110151561276b57fe5b906000526020600020906007020160000160009054906101000a900473ffffffffffffffffffffffffffffffffffffffff166018848154811015156127ac57fe5b906000526020600020906007020160010160009054906101000a900473ffffffffffffffffffffffffffffffffffffffff166018858154811015156127ed57fe5b90600052602060002090600702016005015460188681548110151561280e57fe5b906000526020600020906007020160060160009054906101000a900460ff16611036565b7f801be060160611f44999389892b6b79359677ff2d431948a5c8b5a80e14a1ff8826040516128619190613e41565b60405180910390a15050565b80601660003373ffffffffffffffffffffffffffffffffffffffff1673ffffffffffffffffffffffffffffffffffffffff16815260200190815260200160002090805190602001906128c09291906133c0565b5050565b60008060149054906101000a900460ff161515156128e157600080fd5b604460003690501415156128f457600080fd5b6128ff338484612f2b565b92915050565b600d6020528060005260406000206000915054906101000a900460ff1681565b600060149054906101000a900460ff1615151561294157600080fd5b565b6000600660008473ffffffffffffffffffffffffffffffffffffffff1673ffffffffffffffffffffffffffffffffffffffff16815260200190815260200160002060008373ffffffffffffffffffffffffffffffffffffffff1673ffffffffffffffffffffffffffffffffffffffff16815260200190815260200160002054905092915050565b6000809054906101000a900473ffffffffffffffffffffffffffffffffffffffff1673ffffffffffffffffffffffffffffffffffffffff163373ffffffffffffffffffffffffffffffffffffffff16141515612a2557600080fd5b600060149054906101000a900460ff16151515612a4157600080fd5b80600d60008473ffffffffffffffffffffffffffffffffffffffff1673ffffffffffffffffffffffffffffffffffffffff16815260200190815260200160002060006101000a81548160ff0219169083151502179055507f48335238b4855f35377ed80f164e8c6f3c366e54ac00b96a6402d4a9814a03a58282604051612ac9929190613da4565b60405180910390a15050565b600060149054906101000a900460ff16151515612af157600080fd5b50505050565b6000809054906101000a900473ffffffffffffffffffffffffffffffffffffffff1673ffffffffffffffffffffffffffffffffffffffff163373ffffffffffffffffffffffffffffffffffffffff16141515612b5257600080fd5b600060149054906101000a900460ff16151515612b6e57600080fd5b3073ffffffffffffffffffffffffffffffffffffffff1631600c819055506000809054906101000a900473ffffffffffffffffffffffffffffffffffffffff1673ffffffffffffffffffffffffffffffffffffffff166108fc600c549081150290604051600060405180830381858888f19350505050158015612bf5573d6000803e3d6000fd5b50565b6000809054906101000a900473ffffffffffffffffffffffffffffffffffffffff1673ffffffffffffffffffffffffffffffffffffffff163373ffffffffffffffffffffffffffffffffffffffff16141515612c5357600080fd5b600073ffffffffffffffffffffffffffffffffffffffff168173ffffffffffffffffffffffffffffffffffffffff1614151515612c8f57600080fd5b806000806101000a81548173ffffffffffffffffffffffffffffffffffffffff021916908373ffffffffffffffffffffffffffffffffffffffff16021790555050565b600c5481565b6000601982815481101515612ce957fe5b906000526020600020906006020160000160009054906101000a900473ffffffffffffffffffffffffffffffffffffffff1673ffffffffffffffffffffffffffffffffffffffff168373ffffffffffffffffffffffffffffffffffffffff161415612d575760019050612d5c565b600090505b92915050565b803373ffffffffffffffffffffffffffffffffffffffff16601760009054906101000a900473ffffffffffffffffffffffffffffffffffffffff1673ffffffffffffffffffffffffffffffffffffffff16141515612dbf57600080fd5b601981815481101515612dce57fe5b906000526020600020906006020160030160009054906101000a900460ff16151515612df957600080fd5b612f27601983815481101515612e0b57fe5b906000526020600020906006020160000160009054906101000a900473ffffffffffffffffffffffffffffffffffffffff16601660003373ffffffffffffffffffffffffffffffffffffffff1673ffffffffffffffffffffffffffffffffffffffff168152602001908152602001600020805480602002602001604051908101604052809291908181526020018280548015612efc57602002820191906000526020600020905b8160009054906101000a900473ffffffffffffffffffffffffffffffffffffffff1673ffffffffffffffffffffffffffffffffffffffff1681526020019060010190808311612eb2575b5050505050601985815481101515612f1057fe5b906000526020600020906006020160040154610c70565b5050565b600073ffffffffffffffffffffffffffffffffffffffff168273ffffffffffffffffffffffffffffffffffffffff1614151515612f6757600080fd5b80600560008573ffffffffffffffffffffffffffffffffffffffff1673ffffffffffffffffffffffffffffffffffffffff1681526020019081526020016000205410151515612fb557600080fd5b600560008373ffffffffffffffffffffffffffffffffffffffff1673ffffffffffffffffffffffffffffffffffffffff1681526020019081526020016000205481600560008573ffffffffffffffffffffffffffffffffffffffff1673ffffffffffffffffffffffffffffffffffffffff168152602001908152602001600020540111151561304357600080fd5b600d60008473ffffffffffffffffffffffffffffffffffffffff1673ffffffffffffffffffffffffffffffffffffffff16815260200190815260200160002060009054906101000a900460ff1615151561309c57600080fd5b600d60008373ffffffffffffffffffffffffffffffffffffffff1673ffffffffffffffffffffffffffffffffffffffff16815260200190815260200160002060009054906101000a900460ff161515156130f557600080fd5b80600560008573ffffffffffffffffffffffffffffffffffffffff1673ffffffffffffffffffffffffffffffffffffffff1681526020019081526020016000206000828254039250508190555080600560008473ffffffffffffffffffffffffffffffffffffffff1673ffffffffffffffffffffffffffffffffffffffff168152602001908152602001600020600082825401925050819055508173ffffffffffffffffffffffffffffffffffffffff168373ffffffffffffffffffffffffffffffffffffffff167fddf252ad1be2c89b69c2b068fc378daa952ba7f163c4a11628f55a4df523b3ef836040516131ec9190613e41565b60405180910390a3505050565b60e060405190810160405280600073ffffffffffffffffffffffffffffffffffffffff168152602001606081526020016060815260200160001515815260200160008152602001600063ffffffff168152602001600060ff1681525090565b828054600181600116156101000203166002900490600052602060002090601f016020900481019282601f1061329957805160ff19168380011785556132c7565b828001600101855582156132c7579182015b828111156132c65782518255916020019190600101906132ab565b5b5090506132d4919061344a565b5090565b61010060405190810160405280600073ffffffffffffffffffffffffffffffffffffffff168152602001600073ffffffffffffffffffffffffffffffffffffffff1681526020016060815260200160608152602001600060ff16815260200160001515815260200160008152602001600060ff1681525090565b82805482825590600052602060002090810192821561338e579160200282015b8281111561338d578251825591602001919060010190613372565b5b50905061339b919061344a565b5090565b50805460008255906000526020600020908101906133bd919061344a565b50565b828054828255906000526020600020908101928215613439579160200282015b828111156134385782518260006101000a81548173ffffffffffffffffffffffffffffffffffffffff021916908373ffffffffffffffffffffffffffffffffffffffff160217905550916020019190600101906133e0565b5b509050613446919061346f565b5090565b61346c91905b80821115613468576000816000905550600101613450565b5090565b90565b6134af91905b808211156134ab57600081816101000a81549073ffffffffffffffffffffffffffffffffffffffff021916905550600101613475565b5090565b90565b60006134be8235613fc2565b905092915050565b60006134d28235613fd4565b905092915050565b600082601f83011215156134ed57600080fd5b81356135006134fb82613ea4565b613e77565b9150818183526020840193506020810190508385602084028201111561352557600080fd5b60005b83811015613555578161353b88826134b2565b845260208401935060208301925050600181019050613528565b5050505092915050565b600082601f830112151561357257600080fd5b813561358561358082613ecc565b613e77565b915081818352602084019350602081019050838560208402820111156135aa57600080fd5b60005b838110156135da57816135c0888261364e565b8452602084019350602083019250506001810190506135ad565b5050505092915050565b60006135f08235613fe6565b905092915050565b600082601f830112151561360b57600080fd5b813561361e61361982613ef4565b613e77565b9150808252602083016020830185838301111561363a57600080fd5b613645838284614019565b50505092915050565b600061365a8235613ff2565b905092915050565b600061366e8235613ffc565b905092915050565b6000613682823561400c565b905092915050565b60006020828403121561369c57600080fd5b60006136aa848285016134b2565b91505092915050565b6000602082840312156136c557600080fd5b60006136d3848285016134c6565b91505092915050565b6000806000606084860312156136f157600080fd5b60006136ff868287016134c6565b9350506020613710868287016134c6565b92505060406137218682870161364e565b9150509250925092565b6000806040838503121561373e57600080fd5b600061374c858286016134b2565b925050602061375d858286016134b2565b9150509250929050565b60008060006060848603121561377c57600080fd5b600061378a868287016134b2565b935050602061379b868287016134b2565b92505060406137ac8682870161364e565b9150509250925092565b600080600080608085870312156137cc57600080fd5b60006137da878288016134b2565b94505060206137eb878288016134b2565b93505060406137fc8782880161364e565b925050606061380d87828801613676565b91505092959194509250565b60008060006060848603121561382e57600080fd5b600061383c868287016134b2565b935050602084013567ffffffffffffffff81111561385957600080fd5b613865868287016134da565b92505060406138768682870161364e565b9150509250925092565b6000806000806080858703121561389657600080fd5b60006138a4878288016134b2565b945050602085013567ffffffffffffffff8111156138c157600080fd5b6138cd878288016134da565b93505060406138de8782880161364e565b92505060606138ef87828801613676565b91505092959194509250565b60008060008060008060c0878903121561391457600080fd5b600061392289828a016134b2565b965050602087013567ffffffffffffffff81111561393f57600080fd5b61394b89828a0161355f565b955050604087013567ffffffffffffffff81111561396857600080fd5b61397489828a016135f8565b945050606061398589828a01613676565b935050608061399689828a0161364e565b92505060a06139a789828a01613676565b9150509295509295509295565b600080604083850312156139c757600080fd5b60006139d5858286016134b2565b92505060206139e6858286016135e4565b9150509250929050565b60008060408385031215613a0357600080fd5b6000613a11858286016134b2565b9250506020613a228582860161364e565b9150509250929050565b600080600060608486031215613a4157600080fd5b6000613a4f868287016134b2565b9350506020613a608682870161364e565b9250506040613a71868287016134b2565b9150509250925092565b600060208284031215613a8d57600080fd5b600082013567ffffffffffffffff811115613aa757600080fd5b613ab3848285016134da565b91505092915050565b600080600080600060a08688031215613ad457600080fd5b600086013567ffffffffffffffff811115613aee57600080fd5b613afa888289016135f8565b955050602086013567ffffffffffffffff811115613b1757600080fd5b613b23888289016135f8565b9450506040613b348882890161364e565b9350506060613b4588828901613662565b9250506080613b5688828901613676565b9150509295509295909350565b600060208284031215613b7557600080fd5b6000613b838482850161364e565b91505092915050565b60008060408385031215613b9f57600080fd5b6000613bad8582860161364e565b9250506020613bbe8582860161364e565b9150509250929050565b600080600060608486031215613bdd57600080fd5b6000613beb8682870161364e565b9350506020613bfc8682870161364e565b9250506040613c0d868287016134b2565b9150509250925092565b613c2081613f6d565b82525050565b613c2f81613f5b565b82525050565b6000613c4082613f2d565b808452602084019350613c5283613f20565b60005b82811015613c8457613c68868351613d0b565b613c7182613f4e565b9150602086019550600181019050613c55565b50849250505092915050565b613c9981613f7f565b82525050565b6000613caa82613f43565b808452613cbe816020860160208601614028565b613cc78161405b565b602085010191505092915050565b6000613ce082613f38565b808452613cf4816020860160208601614028565b613cfd8161405b565b602085010191505092915050565b613d1481613fab565b82525050565b613d2381613fb5565b82525050565b6000602082019050613d3e6000830184613c26565b92915050565b6000602082019050613d596000830184613c17565b92915050565b6000606082019050613d746000830186613c26565b8181036020830152613d868185613c35565b90508181036040830152613d9a8184613c9f565b9050949350505050565b6000604082019050613db96000830185613c26565b613dc66020830184613c90565b9392505050565b6000602082019050613de26000830184613c90565b92915050565b60006020820190508181036000830152613e028184613cd5565b905092915050565b60006040820190508181036000830152613e248185613c9f565b90508181036020830152613e388184613c9f565b90509392505050565b6000602082019050613e566000830184613d0b565b92915050565b6000602082019050613e716000830184613d1a565b92915050565b6000604051905081810181811067ffffffffffffffff82111715613e9a57600080fd5b8060405250919050565b600067ffffffffffffffff821115613ebb57600080fd5b602082029050602081019050919050565b600067ffffffffffffffff821115613ee357600080fd5b602082029050602081019050919050565b600067ffffffffffffffff821115613f0b57600080fd5b601f19601f8301169050602081019050919050565b6000602082019050919050565b600081519050919050565b600081519050919050565b600081519050919050565b6000602082019050919050565b6000613f6682613f8b565b9050919050565b6000613f7882613f8b565b9050919050565b60008115159050919050565b600073ffffffffffffffffffffffffffffffffffffffff82169050919050565b6000819050919050565b600060ff82169050919050565b6000613fcd82613f8b565b9050919050565b6000613fdf82613f8b565b9050919050565b60008115159050919050565b6000819050919050565b600063ffffffff82169050919050565b600060ff82169050919050565b82818337600083830152505050565b60005b8381101561404657808201518184015260208101905061402b565b83811115614055576000848401525b50505050565b6000601f19601f830116905091905056fea265627a7a723058204e2fbd371ecee9dd07f2e0e24e3e0eb8aa2168e6d0e9531eba05c39143491d9f6c6578706572696d656e74616cf50037",
  "source": "pragma solidity ^0.5.0;\r\npragma experimental ABIEncoderV2;\r\nimport './transaction.sol';\r\nimport './DataControl.sol';\r\nimport './IpControl.sol';\r\n\r\ncontract TxControl is transaction{\r\n    struct txSave{  //\r\n        address buyer;  //\r\n        address seller;  //\r\n        uint256[] fileNumberList;  //\r\n        string publicKeyCheck;  //\r\n        uint8 txType;  // 1 2 \r\n        bool txStatus;  //  \r\n        uint256 value;  //\r\n        uint8 buyerGrade;  //\r\n    } \r\n\r\n    struct txSaveRealTime{  //\r\n        address buyer;  //\r\n        string ipOrEigenvalues;  //ip\r\n        string publicKeyCheck;  //\r\n        bool txStatus;  //  \r\n        uint256 value;  //\r\n        uint32 accountsNumber;  //\r\n        uint8 buyerGrade;  //\r\n    }\r\n\r\n    mapping(address => address[]) public collectionAddress;  //\r\n    address owner = msg.sender;\r\n    txSave[] txList;  //\r\n    txSaveRealTime[] txRealTimeList;  //\r\n    // uint256 txPending = 0;  //\r\n    event addTx(address seller, uint256[] fileNUmberList, string publicKeyCheck);  //\r\n    event addRealTimeTx(string publicKeyCheck, string ipOrEigenvalues);\r\n    event confirmTx(uint256 i);  //\r\n    event confirmRealTimeTx(uint256 i);  //\r\n\r\n    modifier onlyOwnerTx(uint256 i){  //\r\n        require(owner == msg.sender);\r\n        require(!txList[i].txStatus);\r\n        _;\r\n    }\r\n\r\n    modifier onlyOwnerRealTimeTx(uint256 i){  //\r\n        require(owner == msg.sender);\r\n        require(!txRealTimeList[i].txStatus);\r\n        _;\r\n    }\r\n\r\n    //\r\n    modifier checkBalanceOfBuyData(address buyer, uint256 value){\r\n        require(_balances[buyer] > value);\r\n        _;\r\n    }\r\n\r\n    //\r\n    modifier checkBalanceOfBuyRealTimeData(address buyer, uint256 value, uint32 accountsNumber){\r\n        require(_balances[buyer] > value * accountsNumber);\r\n        _;\r\n    }\r\n\r\n    //\r\n    function checkDataTxOwner(address buyer, uint256 i) public view returns(bool){\r\n        if(buyer == txList[i].buyer){\r\n            return true;\r\n        }else{\r\n            return false;\r\n        }\r\n    }\r\n\r\n    //\r\n    function buyData(address _seller, uint256[] memory _fileNumberList, string memory _publicKeyCheck, uint8 _txType, uint256 _value, uint8 _buyerGrade) public checkBalanceOfBuyData(msg.sender, _value) returns(uint256){\r\n         txSave memory txData = txSave({\r\n            buyer: msg.sender,\r\n            seller: _seller,\r\n            fileNumberList: _fileNumberList,\r\n            publicKeyCheck: _publicKeyCheck,\r\n            txType: _txType,\r\n            txStatus: false,\r\n            value: _value,\r\n            buyerGrade: _buyerGrade\r\n        });\r\n        txList.push(txData);\r\n        beforeDataTransaction(msg.sender, _value, _seller);\r\n        emit addTx(_seller, _fileNumberList, _publicKeyCheck);\r\n        return txList.length;\r\n    }\r\n\r\n    //\r\n    function refundData(uint256 i) public onlyOwnerTx(i) {\r\n        dataTransactionRefund(txList[i].buyer,txList[i].seller, txList[i].value);\r\n    }\r\n\r\n\r\n    //\r\n    function makeSureTx(uint256 i) public onlyOwnerTx(i){\r\n        afterDataTransaction(txList[i].buyer,txList[i].seller, txList[i].value, txList[i].buyerGrade);\r\n        emit confirmTx(i);\r\n    }\r\n\r\n\r\n\r\n    //\r\n    function checkRealTimeTxOwner(address buyer, uint256 i) public view returns(bool){\r\n        if(buyer == txRealTimeList[i].buyer){\r\n            return true;\r\n        }else{\r\n            return false;\r\n        }\r\n    }\r\n\r\n    //\r\n    function buyRealTimeData(string memory _publicKeyCheck, string memory _ipOrEigenvalues, uint256 _value, uint32 _accountsNumber, uint8 _buyerGrade) public checkBalanceOfBuyRealTimeData(msg.sender, _value, _accountsNumber) returns(uint256){\r\n        txSaveRealTime memory txRealTimeData = txSaveRealTime({\r\n            buyer: msg.sender,\r\n            publicKeyCheck: _publicKeyCheck,\r\n            ipOrEigenvalues: _ipOrEigenvalues,\r\n            txStatus: false,\r\n            value: _value,\r\n            accountsNumber: _accountsNumber,\r\n            buyerGrade: _buyerGrade\r\n        });\r\n        txRealTimeList.push(txRealTimeData);\r\n        beforeRealTimeTransaction(_accountsNumber,_value, msg.sender );\r\n        emit addRealTimeTx(_publicKeyCheck, _ipOrEigenvalues);\r\n        return txRealTimeList.length;\r\n    }\r\n\r\n    \r\n    //\r\n    function setAddress(address[] memory addressList) public {\r\n        collectionAddress[msg.sender] = addressList;\r\n    }\r\n\r\n    //\r\n    function makeSureRealTimeTx(uint256 i) public onlyOwnerRealTimeTx(i){\r\n        afterRealTimeTransaction(msg.sender, collectionAddress[msg.sender], txRealTimeList[i].value, txRealTimeList[i].buyerGrade);\r\n        delete collectionAddress[msg.sender];\r\n        emit confirmRealTimeTx(i);\r\n    }\r\n\r\n    \r\n    // \r\n    function refundRealTime(uint256 i) public onlyOwnerRealTimeTx(i) {\r\n        realTimeTransactionRefund(txRealTimeList[i].buyer, collectionAddress[msg.sender], txRealTimeList[i].value);\r\n    }\r\n\r\n}",
  "sourcePath": "G:/ControlSolidity/contracts/TxControl.sol",
  "compiler": {
    "name": "solc",
    "version": "0.5.0+commit.1d4f565a.Emscripten.clang"
  },
  "schemaVersion": "3.0.5",
  "updatedAt": "2019-04-28T07:32:42.250Z",
  "devdoc": {
    "methods": {
      "withdraw(uint256)": {
        "params": {
          "amount": "amount of tokens to be sold"
        }
      }
    }
  },
  "userdoc": {
    "methods": {
      "Buycontributionvalue(address)": {
        "notice": "who:\r"
      },
      "Lastbuytime(address)": {
        "notice": "who:\r"
      },
      "Sellcontributionvalue(address)": {
        "notice": "who:\r"
      },
      "afterDataTransaction(address,address,uint256,uint8)": {
        "notice": "_from:,_to:,totalprice:,buyergrade:\r"
      },
      "afterRealTimeTransaction(address,address[],uint256,uint8)": {
        "notice": "_from:,_to:,value:,buyergrade:\r"
      },
      "allowance(address,address)": {
        "notice": "owner:,spender:"
      },
      "approve(address,uint256)": {
        "notice": "spender:,_value:"
      },
      "balanceOf(address)": {
        "notice": "who:"
      },
      "beforeDataTransaction(address,uint256,address)": {
        "notice": "_to:,totalprice:,_from:\r"
      },
      "beforeRealTimeTransaction(uint256,uint256,address)": {
        "notice": "_to:,value:,_from:\r"
      },
      "burn(uint256)": {
        "notice": "_value:"
      },
      "burnFrom(address,uint256)": {
        "notice": "_from:, _value:"
      },
      "dataTransactionRefund(address,address,uint256)": {
        "notice": "_from:,_to:(),totalprice:\r"
      },
      "freezeAccount(address,bool)": {
        "notice": "target:,freeze:true/false\r"
      },
      "ifAccountFrozen(address)": {
        "notice": "account:\r"
      },
      "mintToken(address,uint256)": {
        "notice": "target:,mintedAmount:\r"
      },
      "realTimeTransactionRefund(address,address[],uint256)": {
        "notice": "_from:,_to:(),value:\r"
      },
      "setPrices(uint256,uint256)": {
        "notice": "newwithdrawPrice:,newrechargePrice:\r"
      },
      "transfer(address,uint256)": {
        "notice": "to:_value:"
      },
      "transferFrom(address,address,uint256)": {
        "notice": "_from:,_to:,_value:"
      },
      "transferOwnership(address)": {
        "notice": "ewOwner:\r"
      }
    }
  }
}