{
  "contractName": "TxControl",
  "abi": [
    {
      "constant": true,
      "inputs": [],
      "name": "rechargePrice",
      "outputs": [
        {
          "name": "",
          "type": "uint256"
        }
      ],
      "payable": false,
      "stateMutability": "view",
      "type": "function",
      "signature": "0x02b090c1"
    },
    {
      "constant": true,
      "inputs": [],
      "name": "returnContractAddress",
      "outputs": [
        {
          "name": "",
          "type": "address"
        }
      ],
      "payable": false,
      "stateMutability": "view",
      "type": "function",
      "signature": "0x0589a27c"
    },
    {
      "constant": false,
      "inputs": [
        {
          "name": "newwithdrawPrice",
          "type": "uint256"
        },
        {
          "name": "newrechargePrice",
          "type": "uint256"
        }
      ],
      "name": "setPrices",
      "outputs": [],
      "payable": false,
      "stateMutability": "nonpayable",
      "type": "function",
      "signature": "0x05fefda7"
    },
    {
      "constant": true,
      "inputs": [],
      "name": "name",
      "outputs": [
        {
          "name": "",
          "type": "string"
        }
      ],
      "payable": false,
      "stateMutability": "view",
      "type": "function",
      "signature": "0x06fdde03"
    },
    {
      "constant": false,
      "inputs": [
        {
          "name": "_spender",
          "type": "address"
        },
        {
          "name": "_value",
          "type": "uint256"
        }
      ],
      "name": "approve",
      "outputs": [
        {
          "name": "",
          "type": "bool"
        }
      ],
      "payable": false,
      "stateMutability": "nonpayable",
      "type": "function",
      "signature": "0x095ea7b3"
    },
    {
      "constant": true,
      "inputs": [],
      "name": "totalSupply",
      "outputs": [
        {
          "name": "",
          "type": "uint256"
        }
      ],
      "payable": false,
      "stateMutability": "view",
      "type": "function",
      "signature": "0x18160ddd"
    },
    {
      "constant": false,
      "inputs": [
        {
          "name": "_from",
          "type": "address"
        },
        {
          "name": "_to",
          "type": "address"
        },
        {
          "name": "_value",
          "type": "uint256"
        }
      ],
      "name": "transferFrom",
      "outputs": [
        {
          "name": "",
          "type": "bool"
        }
      ],
      "payable": false,
      "stateMutability": "nonpayable",
      "type": "function",
      "signature": "0x23b872dd"
    },
    {
      "constant": false,
      "inputs": [
        {
          "name": "amount",
          "type": "uint256"
        }
      ],
      "name": "withdraw",
      "outputs": [],
      "payable": false,
      "stateMutability": "nonpayable",
      "type": "function",
      "signature": "0x2e1a7d4d"
    },
    {
      "constant": true,
      "inputs": [],
      "name": "decimals",
      "outputs": [
        {
          "name": "",
          "type": "uint8"
        }
      ],
      "payable": false,
      "stateMutability": "view",
      "type": "function",
      "signature": "0x313ce567"
    },
    {
      "constant": true,
      "inputs": [],
      "name": "initialSupply",
      "outputs": [
        {
          "name": "",
          "type": "uint256"
        }
      ],
      "payable": false,
      "stateMutability": "view",
      "type": "function",
      "signature": "0x378dc3dc"
    },
    {
      "constant": true,
      "inputs": [],
      "name": "_totalSupply",
      "outputs": [
        {
          "name": "",
          "type": "uint256"
        }
      ],
      "payable": false,
      "stateMutability": "view",
      "type": "function",
      "signature": "0x3eaaf86b"
    },
    {
      "constant": false,
      "inputs": [],
      "name": "unpause",
      "outputs": [
        {
          "name": "",
          "type": "bool"
        }
      ],
      "payable": false,
      "stateMutability": "nonpayable",
      "type": "function",
      "signature": "0x3f4ba83a"
    },
    {
      "constant": false,
      "inputs": [
        {
          "name": "_value",
          "type": "uint256"
        }
      ],
      "name": "burn",
      "outputs": [
        {
          "name": "success",
          "type": "bool"
        }
      ],
      "payable": false,
      "stateMutability": "nonpayable",
      "type": "function",
      "signature": "0x42966c68"
    },
    {
      "constant": false,
      "inputs": [
        {
          "name": "_to",
          "type": "address"
        },
        {
          "name": "totalprice",
          "type": "uint256"
        },
        {
          "name": "_from",
          "type": "address"
        }
      ],
      "name": "beforeYYQtransaction",
      "outputs": [],
      "payable": false,
      "stateMutability": "nonpayable",
      "type": "function",
      "signature": "0x4816a29c"
    },
    {
      "constant": false,
      "inputs": [],
      "name": "recharge",
      "outputs": [],
      "payable": true,
      "stateMutability": "payable",
      "type": "function",
      "signature": "0x4cddae28"
    },
    {
      "constant": true,
      "inputs": [],
      "name": "paused",
      "outputs": [
        {
          "name": "",
          "type": "bool"
        }
      ],
      "payable": false,
      "stateMutability": "view",
      "type": "function",
      "signature": "0x5c975abb"
    },
    {
      "constant": false,
      "inputs": [
        {
          "name": "_to",
          "type": "address"
        },
        {
          "name": "totalprice",
          "type": "uint256"
        },
        {
          "name": "_from",
          "type": "address"
        }
      ],
      "name": "beforeSYQtransaction",
      "outputs": [],
      "payable": false,
      "stateMutability": "nonpayable",
      "type": "function",
      "signature": "0x6805b60b"
    },
    {
      "constant": true,
      "inputs": [],
      "name": "tokenName",
      "outputs": [
        {
          "name": "",
          "type": "string"
        }
      ],
      "payable": false,
      "stateMutability": "view",
      "type": "function",
      "signature": "0x6c02a931"
    },
    {
      "constant": true,
      "inputs": [
        {
          "name": "",
          "type": "address"
        }
      ],
      "name": "_balances",
      "outputs": [
        {
          "name": "",
          "type": "uint256"
        }
      ],
      "payable": false,
      "stateMutability": "view",
      "type": "function",
      "signature": "0x6ebcf607"
    },
    {
      "constant": true,
      "inputs": [
        {
          "name": "who",
          "type": "address"
        }
      ],
      "name": "balanceOf",
      "outputs": [
        {
          "name": "",
          "type": "uint256"
        }
      ],
      "payable": false,
      "stateMutability": "view",
      "type": "function",
      "signature": "0x70a08231"
    },
    {
      "constant": true,
      "inputs": [],
      "name": "withdrawPrice",
      "outputs": [
        {
          "name": "",
          "type": "uint256"
        }
      ],
      "payable": false,
      "stateMutability": "view",
      "type": "function",
      "signature": "0x7918447e"
    },
    {
      "constant": false,
      "inputs": [
        {
          "name": "target",
          "type": "address"
        },
        {
          "name": "mintedAmount",
          "type": "uint256"
        }
      ],
      "name": "mintToken",
      "outputs": [],
      "payable": false,
      "stateMutability": "nonpayable",
      "type": "function",
      "signature": "0x79c65068"
    },
    {
      "constant": false,
      "inputs": [
        {
          "name": "_from",
          "type": "address"
        },
        {
          "name": "_value",
          "type": "uint256"
        }
      ],
      "name": "burnFrom",
      "outputs": [
        {
          "name": "success",
          "type": "bool"
        }
      ],
      "payable": false,
      "stateMutability": "nonpayable",
      "type": "function",
      "signature": "0x79cc6790"
    },
    {
      "constant": true,
      "inputs": [],
      "name": "tokenSymbol",
      "outputs": [
        {
          "name": "",
          "type": "string"
        }
      ],
      "payable": false,
      "stateMutability": "view",
      "type": "function",
      "signature": "0x7b61c320"
    },
    {
      "constant": true,
      "inputs": [
        {
          "name": "",
          "type": "address"
        },
        {
          "name": "",
          "type": "uint256"
        }
      ],
      "name": "collectionAddress",
      "outputs": [
        {
          "name": "",
          "type": "address"
        }
      ],
      "payable": false,
      "stateMutability": "view",
      "type": "function",
      "signature": "0x7d520ea6"
    },
    {
      "constant": true,
      "inputs": [
        {
          "name": "account",
          "type": "address"
        }
      ],
      "name": "ifAccountFrozen",
      "outputs": [
        {
          "name": "",
          "type": "bool"
        }
      ],
      "payable": false,
      "stateMutability": "view",
      "type": "function",
      "signature": "0x7fed80bb"
    },
    {
      "constant": false,
      "inputs": [],
      "name": "pause",
      "outputs": [
        {
          "name": "",
          "type": "bool"
        }
      ],
      "payable": false,
      "stateMutability": "nonpayable",
      "type": "function",
      "signature": "0x8456cb59"
    },
    {
      "constant": true,
      "inputs": [],
      "name": "heyueYitaibi",
      "outputs": [
        {
          "name": "",
          "type": "uint256"
        }
      ],
      "payable": false,
      "stateMutability": "view",
      "type": "function",
      "signature": "0x863e4299"
    },
    {
      "constant": true,
      "inputs": [],
      "name": "owner",
      "outputs": [
        {
          "name": "",
          "type": "address"
        }
      ],
      "payable": false,
      "stateMutability": "view",
      "type": "function",
      "signature": "0x8da5cb5b"
    },
    {
      "constant": false,
      "inputs": [
        {
          "name": "_to",
          "type": "address"
        },
        {
          "name": "totalprice",
          "type": "uint256"
        }
      ],
      "name": "afterSYQtransaction",
      "outputs": [],
      "payable": false,
      "stateMutability": "nonpayable",
      "type": "function",
      "signature": "0x95d6cdc0"
    },
    {
      "constant": true,
      "inputs": [],
      "name": "symbol",
      "outputs": [
        {
          "name": "",
          "type": "string"
        }
      ],
      "payable": false,
      "stateMutability": "view",
      "type": "function",
      "signature": "0x95d89b41"
    },
    {
      "constant": false,
      "inputs": [
        {
          "name": "_to",
          "type": "address"
        },
        {
          "name": "_value",
          "type": "uint256"
        }
      ],
      "name": "transfer",
      "outputs": [
        {
          "name": "",
          "type": "bool"
        }
      ],
      "payable": false,
      "stateMutability": "nonpayable",
      "type": "function",
      "signature": "0xa9059cbb"
    },
    {
      "constant": true,
      "inputs": [],
      "name": "amount",
      "outputs": [
        {
          "name": "",
          "type": "uint256"
        }
      ],
      "payable": false,
      "stateMutability": "view",
      "type": "function",
      "signature": "0xaa8c217c"
    },
    {
      "constant": false,
      "inputs": [
        {
          "name": "_to",
          "type": "address"
        },
        {
          "name": "totalprice",
          "type": "uint256"
        }
      ],
      "name": "afterYYQtransaction",
      "outputs": [],
      "payable": false,
      "stateMutability": "nonpayable",
      "type": "function",
      "signature": "0xaee8a0b3"
    },
    {
      "constant": true,
      "inputs": [
        {
          "name": "",
          "type": "address"
        }
      ],
      "name": "frozenAccount",
      "outputs": [
        {
          "name": "",
          "type": "bool"
        }
      ],
      "payable": false,
      "stateMutability": "view",
      "type": "function",
      "signature": "0xb414d4b6"
    },
    {
      "constant": false,
      "inputs": [
        {
          "name": "_to",
          "type": "address"
        },
        {
          "name": "totalprice",
          "type": "uint256"
        }
      ],
      "name": "afterSSDZtransaction",
      "outputs": [],
      "payable": false,
      "stateMutability": "nonpayable",
      "type": "function",
      "signature": "0xc9072460"
    },
    {
      "constant": false,
      "inputs": [],
      "name": "transferHeyue",
      "outputs": [],
      "payable": true,
      "stateMutability": "payable",
      "type": "function",
      "signature": "0xceaf7fb2"
    },
    {
      "constant": false,
      "inputs": [
        {
          "name": "totalprice",
          "type": "uint256"
        },
        {
          "name": "_from",
          "type": "address"
        }
      ],
      "name": "beforeSSDZtransaction",
      "outputs": [],
      "payable": false,
      "stateMutability": "nonpayable",
      "type": "function",
      "signature": "0xdba3d122"
    },
    {
      "constant": true,
      "inputs": [
        {
          "name": "owner",
          "type": "address"
        },
        {
          "name": "spender",
          "type": "address"
        }
      ],
      "name": "allowance",
      "outputs": [
        {
          "name": "",
          "type": "uint256"
        }
      ],
      "payable": false,
      "stateMutability": "view",
      "type": "function",
      "signature": "0xdd62ed3e"
    },
    {
      "constant": false,
      "inputs": [
        {
          "name": "target",
          "type": "address"
        },
        {
          "name": "freeze",
          "type": "bool"
        }
      ],
      "name": "freezeAccount",
      "outputs": [],
      "payable": false,
      "stateMutability": "nonpayable",
      "type": "function",
      "signature": "0xe724529c"
    },
    {
      "constant": false,
      "inputs": [],
      "name": "heyueTixian",
      "outputs": [],
      "payable": false,
      "stateMutability": "nonpayable",
      "type": "function",
      "signature": "0xeef71d6f"
    },
    {
      "constant": false,
      "inputs": [
        {
          "name": "newOwner",
          "type": "address"
        }
      ],
      "name": "transferOwnership",
      "outputs": [],
      "payable": false,
      "stateMutability": "nonpayable",
      "type": "function",
      "signature": "0xf2fde38b"
    },
    {
      "payable": true,
      "stateMutability": "payable",
      "type": "fallback"
    },
    {
      "anonymous": false,
      "inputs": [
        {
          "indexed": false,
          "name": "seller",
          "type": "address"
        },
        {
          "indexed": false,
          "name": "fileNUmberList",
          "type": "uint256[]"
        },
        {
          "indexed": false,
          "name": "publicKeyCheck",
          "type": "string"
        }
      ],
      "name": "addTx",
      "type": "event",
      "signature": "0xc3eebc9cdbc07130e15fe44f4d0b5fbeeb52cb0be98e0282c4249ec6657996b1"
    },
    {
      "anonymous": false,
      "inputs": [
        {
          "indexed": false,
          "name": "publicKeyCheck",
          "type": "string"
        },
        {
          "indexed": false,
          "name": "ipOrEigenvalues",
          "type": "string"
        }
      ],
      "name": "addRealTimeTx",
      "type": "event",
      "signature": "0xbda6b93561aad1ca0c8cf12fa0283601a1743b8ae2133e0923ba6f02a7c248b9"
    },
    {
      "anonymous": false,
      "inputs": [
        {
          "indexed": false,
          "name": "i",
          "type": "uint256"
        }
      ],
      "name": "confirmTx",
      "type": "event",
      "signature": "0x801be060160611f44999389892b6b79359677ff2d431948a5c8b5a80e14a1ff8"
    },
    {
      "anonymous": false,
      "inputs": [
        {
          "indexed": false,
          "name": "i",
          "type": "uint256"
        }
      ],
      "name": "confirmRealTimeTx",
      "type": "event",
      "signature": "0x8b83e47b1af3f949d67804a4ab493fded8198468172c75006b4c7da507345c74"
    },
    {
      "anonymous": false,
      "inputs": [
        {
          "indexed": false,
          "name": "target",
          "type": "address"
        },
        {
          "indexed": false,
          "name": "success",
          "type": "bool"
        }
      ],
      "name": "SuccessFunds",
      "type": "event",
      "signature": "0x4656763aeb5076063b1b9201e728e03b650c4e545b46330125af5d01c01fae56"
    },
    {
      "anonymous": false,
      "inputs": [
        {
          "indexed": false,
          "name": "target",
          "type": "address"
        },
        {
          "indexed": false,
          "name": "frozen",
          "type": "bool"
        }
      ],
      "name": "FrozenFunds",
      "type": "event",
      "signature": "0x48335238b4855f35377ed80f164e8c6f3c366e54ac00b96a6402d4a9814a03a5"
    },
    {
      "anonymous": false,
      "inputs": [
        {
          "indexed": true,
          "name": "from",
          "type": "address"
        },
        {
          "indexed": true,
          "name": "to",
          "type": "address"
        },
        {
          "indexed": false,
          "name": "value",
          "type": "uint256"
        }
      ],
      "name": "Transfer",
      "type": "event",
      "signature": "0xddf252ad1be2c89b69c2b068fc378daa952ba7f163c4a11628f55a4df523b3ef"
    },
    {
      "anonymous": false,
      "inputs": [
        {
          "indexed": true,
          "name": "from",
          "type": "address"
        },
        {
          "indexed": false,
          "name": "value",
          "type": "uint256"
        }
      ],
      "name": "Burn",
      "type": "event",
      "signature": "0xcc16f5dbb4873280815c1ee09dbd06736cffcc184412cf7a71a0fdb75d397ca5"
    },
    {
      "anonymous": false,
      "inputs": [],
      "name": "Pause",
      "type": "event",
      "signature": "0x6985a02210a168e66602d3235cb6db0e70f92b3ba4d376a33c0f3d9434bff625"
    },
    {
      "anonymous": false,
      "inputs": [],
      "name": "Unpause",
      "type": "event",
      "signature": "0x7805862f689e2f13df9f062ff482ad3ad112aca9e0847911ed832e158c525b33"
    },
    {
      "anonymous": false,
      "inputs": [
        {
          "indexed": false,
          "name": "newContract",
          "type": "address"
        }
      ],
      "name": "ContractUpgrade",
      "type": "event",
      "signature": "0x450db8da6efbe9c22f2347f7c2021231df1fc58d3ae9a2fa75d39fa446199305"
    },
    {
      "constant": false,
      "inputs": [
        {
          "name": "_seller",
          "type": "address"
        },
        {
          "name": "_fileNumberList",
          "type": "uint256[]"
        },
        {
          "name": "_publicKeyCheck",
          "type": "string"
        },
        {
          "name": "_txType",
          "type": "uint8"
        },
        {
          "name": "_value",
          "type": "uint256"
        }
      ],
      "name": "buyData",
      "outputs": [
        {
          "name": "",
          "type": "uint256"
        }
      ],
      "payable": false,
      "stateMutability": "nonpayable",
      "type": "function",
      "signature": "0x49f9043b"
    },
    {
      "constant": false,
      "inputs": [
        {
          "name": "_publicKeyCheck",
          "type": "string"
        },
        {
          "name": "_ipOrEigenvalues",
          "type": "string"
        },
        {
          "name": "_value",
          "type": "uint256"
        },
        {
          "name": "_accountsNumber",
          "type": "uint32"
        }
      ],
      "name": "buyRealTimeData",
      "outputs": [
        {
          "name": "",
          "type": "uint256"
        }
      ],
      "payable": false,
      "stateMutability": "nonpayable",
      "type": "function",
      "signature": "0x281005c3"
    },
    {
      "constant": false,
      "inputs": [
        {
          "name": "i",
          "type": "uint256"
        }
      ],
      "name": "makeSureTx",
      "outputs": [],
      "payable": false,
      "stateMutability": "nonpayable",
      "type": "function",
      "signature": "0x9ee66913"
    },
    {
      "constant": false,
      "inputs": [
        {
          "name": "addressList",
          "type": "address[]"
        }
      ],
      "name": "setAddress",
      "outputs": [],
      "payable": false,
      "stateMutability": "nonpayable",
      "type": "function",
      "signature": "0xa354d3f6"
    },
    {
      "constant": false,
      "inputs": [
        {
          "name": "i",
          "type": "uint256"
        }
      ],
      "name": "makeSureRealTimeTx",
      "outputs": [],
      "payable": false,
      "stateMutability": "nonpayable",
      "type": "function",
      "signature": "0x9e8c9a40"
    },
    {
      "constant": true,
      "inputs": [
        {
          "name": "buyer",
          "type": "address"
        },
        {
          "name": "i",
          "type": "uint256"
        }
      ],
      "name": "checkDataTxOwner",
      "outputs": [
        {
          "name": "",
          "type": "bool"
        }
      ],
      "payable": false,
      "stateMutability": "view",
      "type": "function",
      "signature": "0x0fbee98b"
    },
    {
      "constant": true,
      "inputs": [
        {
          "name": "buyer",
          "type": "address"
        },
        {
          "name": "i",
          "type": "uint256"
        }
      ],
      "name": "checkRealTimeTxOwner",
      "outputs": [
        {
          "name": "",
          "type": "bool"
        }
      ],
      "payable": false,
      "stateMutability": "view",
      "type": "function",
      "signature": "0xf73b152d"
    },
    {
      "constant": false,
      "inputs": [
        {
          "name": "i",
          "type": "uint256"
        }
      ],
      "name": "refundData",
      "outputs": [],
      "payable": false,
      "stateMutability": "nonpayable",
      "type": "function",
      "signature": "0x4b160ef7"
    },
    {
      "constant": false,
      "inputs": [
        {
          "name": "i",
          "type": "uint256"
        }
      ],
      "name": "refundRealTime",
      "outputs": [],
      "payable": false,
      "stateMutability": "nonpayable",
      "type": "function",
      "signature": "0xfcbd7ae2"
    }
  ],
  "bytecode": "0x608060405260008060146101000a81548160ff0219169083151502179055506012600360006101000a81548160ff021916908360ff160217905550620186a06009556040805190810160405280600281526020017f6572000000000000000000000000000000000000000000000000000000000000815250600a90805190602001906200008e9291906200033e565b506040805190810160405280600181526020017f6500000000000000000000000000000000000000000000000000000000000000815250600b9080519060200190620000dc9291906200033e565b5033601160006101000a81548173ffffffffffffffffffffffffffffffffffffffff021916908373ffffffffffffffffffffffffffffffffffffffff160217905550600954600a8054600181600116156101000203166002900480601f016020809104026020016040519081016040528092919081815260200182805460018160011615610100020316600290048015620001bb5780601f106200018f57610100808354040283529160200191620001bb565b820191906000526020600020905b8154815290600101906020018083116200019d57829003601f168201915b5050505050600b8054600181600116156101000203166002900480601f0160208091040260200160405190810160405280929190818152602001828054600181600116156101000203166002900480156200025a5780601f106200022e576101008083540402835291602001916200025a565b820191906000526020600020905b8154815290600101906020018083116200023c57829003601f168201915b5050505050336000806101000a81548173ffffffffffffffffffffffffffffffffffffffff021916908373ffffffffffffffffffffffffffffffffffffffff160217905550600360009054906101000a900460ff1660ff16600a0a8302600481905550600454600560003073ffffffffffffffffffffffffffffffffffffffff1673ffffffffffffffffffffffffffffffffffffffff1681526020019081526020016000208190555081600190805190602001906200031b9291906200033e565b508060029080519060200190620003349291906200033e565b50505050620003ed565b828054600181600116156101000203166002900490600052602060002090601f016020900481019282601f106200038157805160ff1916838001178555620003b2565b82800160010185558215620003b2579182015b82811115620003b157825182559160200191906001019062000394565b5b509050620003c19190620003c5565b5090565b620003ea91905b80821115620003e6576000816000905550600101620003cc565b5090565b90565b6140c180620003fd6000396000f3fe608060405260043610610267576000357c0100000000000000000000000000000000000000000000000000000000900463ffffffff16806302b090c1146102695780630589a27c1461029457806305fefda7146102bf57806306fdde03146102e8578063095ea7b3146103135780630fbee98b1461035057806318160ddd1461038d57806323b872dd146103b8578063281005c3146103f55780632e1a7d4d14610432578063313ce5671461045b578063378dc3dc146104865780633eaaf86b146104b15780633f4ba83a146104dc57806342966c68146105075780634816a29c1461054457806349f9043b1461056d5780634b160ef7146105aa5780634cddae28146105d35780635c975abb146105dd5780636805b60b146106085780636c02a931146106315780636ebcf6071461065c57806370a08231146106995780637918447e146106d657806379c650681461070157806379cc67901461072a5780637b61c320146107675780637d520ea6146107925780637fed80bb146107cf5780638456cb591461080c578063863e4299146108375780638da5cb5b1461086257806395d6cdc01461088d57806395d89b41146108b65780639e8c9a40146108e15780639ee669131461090a578063a354d3f614610933578063a9059cbb1461095c578063aa8c217c14610999578063aee8a0b3146109c4578063b414d4b6146109ed578063c907246014610a2a578063ceaf7fb214610a53578063dba3d12214610a5d578063dd62ed3e14610a86578063e724529c14610ac3578063eef71d6f14610aec578063f2fde38b14610b03578063f73b152d14610b2c578063fcbd7ae214610b69575b005b34801561027557600080fd5b5061027e610b92565b60405161028b9190613e5c565b60405180910390f35b3480156102a057600080fd5b506102a9610b98565b6040516102b69190613d44565b60405180910390f35b3480156102cb57600080fd5b506102e660048036036102e19190810190613bf6565b610ba0565b005b3480156102f457600080fd5b506102fd610c29565b60405161030a9190613e03565b60405180910390f35b34801561031f57600080fd5b5061033a60048036036103359190810190613a32565b610cc7565b6040516103479190613de8565b60405180910390f35b34801561035c57600080fd5b5061037760048036036103729190810190613a32565b610dec565b6040516103849190613de8565b60405180910390f35b34801561039957600080fd5b506103a2610e76565b6040516103af9190613e5c565b60405180910390f35b3480156103c457600080fd5b506103df60048036036103da91908101906138c4565b610e80565b6040516103ec9190613de8565b60405180910390f35b34801561040157600080fd5b5061041c60048036036104179190810190613afe565b611066565b6040516104299190613e5c565b60405180910390f35b34801561043e57600080fd5b5061045960048036036104549190810190613b91565b611271565b005b34801561046757600080fd5b50610470611310565b60405161047d9190613e77565b60405180910390f35b34801561049257600080fd5b5061049b611323565b6040516104a89190613e5c565b60405180910390f35b3480156104bd57600080fd5b506104c6611329565b6040516104d39190613e5c565b60405180910390f35b3480156104e857600080fd5b506104f161132f565b6040516104fe9190613de8565b60405180910390f35b34801561051357600080fd5b5061052e60048036036105299190810190613b91565b6113f4565b60405161053b9190613de8565b60405180910390f35b34801561055057600080fd5b5061056b60048036036105669190810190613a6e565b61156f565b005b34801561057957600080fd5b50610594600480360361058f919081019061394f565b6116c4565b6040516105a19190613e5c565b60405180910390f35b3480156105b657600080fd5b506105d160048036036105cc9190810190613b91565b611923565b005b6105db611b06565b005b3480156105e957600080fd5b506105f2611b42565b6040516105ff9190613de8565b60405180910390f35b34801561061457600080fd5b5061062f600480360361062a9190810190613a6e565b611b55565b005b34801561063d57600080fd5b50610646611caa565b6040516106539190613e03565b60405180910390f35b34801561066857600080fd5b50610683600480360361067e9190810190613872565b611d48565b6040516106909190613e5c565b60405180910390f35b3480156106a557600080fd5b506106c060048036036106bb9190810190613872565b611d60565b6040516106cd9190613e5c565b60405180910390f35b3480156106e257600080fd5b506106eb611da9565b6040516106f89190613e5c565b60405180910390f35b34801561070d57600080fd5b5061072860048036036107239190810190613a32565b611daf565b005b34801561073657600080fd5b50610751600480360361074c9190810190613a32565b611f52565b60405161075e9190613de8565b60405180910390f35b34801561077357600080fd5b5061077c612225565b6040516107899190613e03565b60405180910390f35b34801561079e57600080fd5b506107b960048036036107b49190810190613a32565b6122c3565b6040516107c69190613d44565b60405180910390f35b3480156107db57600080fd5b506107f660048036036107f19190810190613872565b612310565b6040516108039190613de8565b60405180910390f35b34801561081857600080fd5b50610821612366565b60405161082e9190613de8565b60405180910390f35b34801561084357600080fd5b5061084c61242d565b6040516108599190613e5c565b60405180910390f35b34801561086e57600080fd5b5061087761244c565b6040516108849190613d5f565b60405180910390f35b34801561089957600080fd5b506108b460048036036108af9190810190613a32565b612471565b005b3480156108c257600080fd5b506108cb61249c565b6040516108d89190613e03565b60405180910390f35b3480156108ed57600080fd5b5061090860048036036109039190810190613b91565b61253a565b005b34801561091657600080fd5b50610931600480360361092c9190810190613b91565b612755565b005b34801561093f57600080fd5b5061095a60048036036109559190810190613abd565b61296f565b005b34801561096857600080fd5b50610983600480360361097e9190810190613a32565b6129c6565b6040516109909190613de8565b60405180910390f35b3480156109a557600080fd5b506109ae612a07565b6040516109bb9190613e5c565b60405180910390f35b3480156109d057600080fd5b506109eb60048036036109e69190810190613a32565b612a0d565b005b3480156109f957600080fd5b50610a146004803603610a0f9190810190613872565b612a38565b604051610a219190613de8565b60405180910390f35b348015610a3657600080fd5b50610a516004803603610a4c9190810190613a32565b612a58565b005b610a5b612a83565b005b348015610a6957600080fd5b50610a846004803603610a7f9190810190613bba565b612aa7565b005b348015610a9257600080fd5b50610aad6004803603610aa89190810190613913565b612ba2565b604051610aba9190613e5c565b60405180910390f35b348015610acf57600080fd5b50610aea6004803603610ae591908101906139f6565b612c29565b005b348015610af857600080fd5b50610b01612d34565b005b348015610b0f57600080fd5b50610b2a6004803603610b25919081019061389b565b612e35565b005b348015610b3857600080fd5b50610b536004803603610b4e9190810190613a32565b612f0f565b604051610b609190613de8565b60405180910390f35b348015610b7557600080fd5b50610b906004803603610b8b9190810190613b91565b612f99565b005b60085481565b600030905090565b6000809054906101000a900473ffffffffffffffffffffffffffffffffffffffff1673ffffffffffffffffffffffffffffffffffffffff163373ffffffffffffffffffffffffffffffffffffffff16141515610bfb57600080fd5b600060149054906101000a900460ff16151515610c1757600080fd5b81600781905550806008819055505050565b60018054600181600116156101000203166002900480601f016020809104026020016040519081016040528092919081815260200182805460018160011615610100020316600290048015610cbf5780601f10610c9457610100808354040283529160200191610cbf565b820191906000526020600020905b815481529060010190602001808311610ca257829003601f168201915b505050505081565b60008060009054906101000a900473ffffffffffffffffffffffffffffffffffffffff1673ffffffffffffffffffffffffffffffffffffffff163373ffffffffffffffffffffffffffffffffffffffff16141515610d2457600080fd5b600060149054906101000a900460ff16151515610d4057600080fd5b81600660008060009054906101000a900473ffffffffffffffffffffffffffffffffffffffff1673ffffffffffffffffffffffffffffffffffffffff1673ffffffffffffffffffffffffffffffffffffffff16815260200190815260200160002060008573ffffffffffffffffffffffffffffffffffffffff1673ffffffffffffffffffffffffffffffffffffffff168152602001908152602001600020819055506001905092915050565b6000601282815481101515610dfd57fe5b906000526020600020906006020160000160009054906101000a900473ffffffffffffffffffffffffffffffffffffffff1673ffffffffffffffffffffffffffffffffffffffff168373ffffffffffffffffffffffffffffffffffffffff161415610e6b5760019050610e70565b600090505b92915050565b6000600454905090565b60008060009054906101000a900473ffffffffffffffffffffffffffffffffffffffff1673ffffffffffffffffffffffffffffffffffffffff163373ffffffffffffffffffffffffffffffffffffffff16141515610edd57600080fd5b600060149054906101000a900460ff16151515610ef957600080fd5b600660008060009054906101000a900473ffffffffffffffffffffffffffffffffffffffff1673ffffffffffffffffffffffffffffffffffffffff1673ffffffffffffffffffffffffffffffffffffffff16815260200190815260200160002060008573ffffffffffffffffffffffffffffffffffffffff1673ffffffffffffffffffffffffffffffffffffffff168152602001908152602001600020548211151515610fa557600080fd5b81600660008060009054906101000a900473ffffffffffffffffffffffffffffffffffffffff1673ffffffffffffffffffffffffffffffffffffffff1673ffffffffffffffffffffffffffffffffffffffff16815260200190815260200160002060008673ffffffffffffffffffffffffffffffffffffffff1673ffffffffffffffffffffffffffffffffffffffff1681526020019081526020016000206000828254039250508190555061105b848484613128565b600190509392505050565b60003383838063ffffffff168202600560008573ffffffffffffffffffffffffffffffffffffffff1673ffffffffffffffffffffffffffffffffffffffff168152602001908152602001600020541115156110c057600080fd5b6110c86133f6565b60c0604051908101604052803373ffffffffffffffffffffffffffffffffffffffff1681526020018981526020018a81526020016000151581526020018881526020018763ffffffff1681525090506013819080600181540180825580915050906001820390600052602060002090600602016000909192909190915060008201518160000160006101000a81548173ffffffffffffffffffffffffffffffffffffffff021916908373ffffffffffffffffffffffffffffffffffffffff16021790555060208201518160010190805190602001906111a892919061344b565b5060408201518160020190805190602001906111c592919061344b565b5060608201518160030160006101000a81548160ff0219169083151502179055506080820151816004015560a08201518160050160006101000a81548163ffffffff021916908363ffffffff1602179055505050506112248733612aa7565b7fbda6b93561aad1ca0c8cf12fa0283601a1743b8ae2133e0923ba6f02a7c248b98989604051611255929190613e25565b60405180910390a1601380549050945050505050949350505050565b600060149054906101000a900460ff1615151561128d57600080fd5b60075481023073ffffffffffffffffffffffffffffffffffffffff1631101515156112b757600080fd5b6112c2333083613128565b3373ffffffffffffffffffffffffffffffffffffffff166108fc60075483029081150290604051600060405180830381858888f1935050505015801561130c573d6000803e3d6000fd5b5050565b600360009054906101000a900460ff1681565b60095481565b60045481565b60008060009054906101000a900473ffffffffffffffffffffffffffffffffffffffff1673ffffffffffffffffffffffffffffffffffffffff163373ffffffffffffffffffffffffffffffffffffffff1614151561138c57600080fd5b600060149054906101000a900460ff1615156113a757600080fd5b60008060146101000a81548160ff0219169083151502179055507f7805862f689e2f13df9f062ff482ad3ad112aca9e0847911ed832e158c525b3360405160405180910390a16001905090565b60008060009054906101000a900473ffffffffffffffffffffffffffffffffffffffff1673ffffffffffffffffffffffffffffffffffffffff163373ffffffffffffffffffffffffffffffffffffffff1614151561145157600080fd5b600060149054906101000a900460ff1615151561146d57600080fd5b81600560003073ffffffffffffffffffffffffffffffffffffffff1673ffffffffffffffffffffffffffffffffffffffff16815260200190815260200160002054101515156114bb57600080fd5b81600560003073ffffffffffffffffffffffffffffffffffffffff1673ffffffffffffffffffffffffffffffffffffffff16815260200190815260200160002060008282540392505081905550816004600082825403925050819055503073ffffffffffffffffffffffffffffffffffffffff167fcc16f5dbb4873280815c1ee09dbd06736cffcc184412cf7a71a0fdb75d397ca58360405161155e9190613e5c565b60405180910390a260019050919050565b600060149054906101000a900460ff1615151561158b57600080fd5b600d60008273ffffffffffffffffffffffffffffffffffffffff1673ffffffffffffffffffffffffffffffffffffffff16815260200190815260200160002060009054906101000a900460ff161515156115e457600080fd5b600d60008473ffffffffffffffffffffffffffffffffffffffff1673ffffffffffffffffffffffffffffffffffffffff16815260200190815260200160002060009054906101000a900460ff1615151561163d57600080fd5b6103e88281151561164a57fe5b04600e819055506000600e5414151561166d5781600e5401600f81905550611678565b81600101600f819055505b6116858130600f54613128565b7f4656763aeb5076063b1b9201e728e03b650c4e545b46330125af5d01c01fae568160016040516116b7929190613dbf565b60405180910390a1505050565b6000338280600560008473ffffffffffffffffffffffffffffffffffffffff1673ffffffffffffffffffffffffffffffffffffffff1681526020019081526020016000205411151561171557600080fd5b61171d6134cb565b60e0604051908101604052803373ffffffffffffffffffffffffffffffffffffffff1681526020018a73ffffffffffffffffffffffffffffffffffffffff1681526020018981526020018881526020018760ff1681526020016000151581526020018681525090506012819080600181540180825580915050906001820390600052602060002090600602016000909192909190915060008201518160000160006101000a81548173ffffffffffffffffffffffffffffffffffffffff021916908373ffffffffffffffffffffffffffffffffffffffff16021790555060208201518160010160006101000a81548173ffffffffffffffffffffffffffffffffffffffff021916908373ffffffffffffffffffffffffffffffffffffffff160217905550604082015181600201908051906020019061185d92919061353a565b50606082015181600301908051906020019061187a92919061344b565b5060808201518160040160006101000a81548160ff021916908360ff16021790555060a08201518160040160016101000a81548160ff02191690831515021790555060c082015181600501555050506118d489863361156f565b7fc3eebc9cdbc07130e15fe44f4d0b5fbeeb52cb0be98e0282c4249ec6657996b189898960405161190793929190613d7a565b60405180910390a1601280549050935050505095945050505050565b803373ffffffffffffffffffffffffffffffffffffffff16601160009054906101000a900473ffffffffffffffffffffffffffffffffffffffff1673ffffffffffffffffffffffffffffffffffffffff1614151561198057600080fd5b60128181548110151561198f57fe5b906000526020600020906006020160040160019054906101000a900460ff161515156119ba57600080fd5b60016012838154811015156119cb57fe5b906000526020600020906006020160040160009054906101000a900460ff1660ff161415611a5e57611a5d601283815481101515611a0557fe5b906000526020600020906006020160000160009054906101000a900473ffffffffffffffffffffffffffffffffffffffff16601284815481101515611a4657fe5b906000526020600020906006020160050154612a0d565b5b6002601283815481101515611a6f57fe5b906000526020600020906006020160040160009054906101000a900460ff1660ff161415611b0257611b01601283815481101515611aa957fe5b906000526020600020906006020160000160009054906101000a900473ffffffffffffffffffffffffffffffffffffffff16601284815481101515611aea57fe5b906000526020600020906006020160050154612471565b5b5050565b600060149054906101000a900460ff16151515611b2257600080fd5b600060085434811515611b3157fe5b049050611b3f303383613128565b50565b600060149054906101000a900460ff1681565b600060149054906101000a900460ff16151515611b7157600080fd5b600d60008273ffffffffffffffffffffffffffffffffffffffff1673ffffffffffffffffffffffffffffffffffffffff16815260200190815260200160002060009054906101000a900460ff16151515611bca57600080fd5b600d60008473ffffffffffffffffffffffffffffffffffffffff1673ffffffffffffffffffffffffffffffffffffffff16815260200190815260200160002060009054906101000a900460ff16151515611c2357600080fd5b6103e882811515611c3057fe5b04600e819055506000600e54141515611c535781600e5401600f81905550611c5e565b81600101600f819055505b611c6b8130600f54613128565b7f4656763aeb5076063b1b9201e728e03b650c4e545b46330125af5d01c01fae56816001604051611c9d929190613dbf565b60405180910390a1505050565b600a8054600181600116156101000203166002900480601f016020809104026020016040519081016040528092919081815260200182805460018160011615610100020316600290048015611d405780601f10611d1557610100808354040283529160200191611d40565b820191906000526020600020905b815481529060010190602001808311611d2357829003601f168201915b505050505081565b60056020528060005260406000206000915090505481565b6000600560008373ffffffffffffffffffffffffffffffffffffffff1673ffffffffffffffffffffffffffffffffffffffff168152602001908152602001600020549050919050565b60075481565b6000809054906101000a900473ffffffffffffffffffffffffffffffffffffffff1673ffffffffffffffffffffffffffffffffffffffff163373ffffffffffffffffffffffffffffffffffffffff16141515611e0a57600080fd5b600060149054906101000a900460ff16151515611e2657600080fd5b80600560008473ffffffffffffffffffffffffffffffffffffffff1673ffffffffffffffffffffffffffffffffffffffff16815260200190815260200160002060008282540192505081905550806004600082825401925050819055503073ffffffffffffffffffffffffffffffffffffffff16600073ffffffffffffffffffffffffffffffffffffffff167fddf252ad1be2c89b69c2b068fc378daa952ba7f163c4a11628f55a4df523b3ef83604051611ee19190613e5c565b60405180910390a38173ffffffffffffffffffffffffffffffffffffffff163073ffffffffffffffffffffffffffffffffffffffff167fddf252ad1be2c89b69c2b068fc378daa952ba7f163c4a11628f55a4df523b3ef83604051611f469190613e5c565b60405180910390a35050565b60008060009054906101000a900473ffffffffffffffffffffffffffffffffffffffff1673ffffffffffffffffffffffffffffffffffffffff163373ffffffffffffffffffffffffffffffffffffffff16141515611faf57600080fd5b600060149054906101000a900460ff16151515611fcb57600080fd5b81600560008573ffffffffffffffffffffffffffffffffffffffff1673ffffffffffffffffffffffffffffffffffffffff168152602001908152602001600020541015151561201957600080fd5b600660008060009054906101000a900473ffffffffffffffffffffffffffffffffffffffff1673ffffffffffffffffffffffffffffffffffffffff1673ffffffffffffffffffffffffffffffffffffffff16815260200190815260200160002060008473ffffffffffffffffffffffffffffffffffffffff1673ffffffffffffffffffffffffffffffffffffffff1681526020019081526020016000205482111515156120c557600080fd5b81600560008573ffffffffffffffffffffffffffffffffffffffff1673ffffffffffffffffffffffffffffffffffffffff1681526020019081526020016000206000828254039250508190555081600660008060009054906101000a900473ffffffffffffffffffffffffffffffffffffffff1673ffffffffffffffffffffffffffffffffffffffff1673ffffffffffffffffffffffffffffffffffffffff16815260200190815260200160002060008573ffffffffffffffffffffffffffffffffffffffff1673ffffffffffffffffffffffffffffffffffffffff16815260200190815260200160002060008282540392505081905550816004600082825403925050819055508273ffffffffffffffffffffffffffffffffffffffff167fcc16f5dbb4873280815c1ee09dbd06736cffcc184412cf7a71a0fdb75d397ca5836040516122139190613e5c565b60405180910390a26001905092915050565b600b8054600181600116156101000203166002900480601f0160208091040260200160405190810160405280929190818152602001828054600181600116156101000203166002900480156122bb5780601f10612290576101008083540402835291602001916122bb565b820191906000526020600020905b81548152906001019060200180831161229e57829003601f168201915b505050505081565b6010602052816000526040600020818154811015156122de57fe5b906000526020600020016000915091509054906101000a900473ffffffffffffffffffffffffffffffffffffffff1681565b6000600d60008373ffffffffffffffffffffffffffffffffffffffff1673ffffffffffffffffffffffffffffffffffffffff16815260200190815260200160002060009054906101000a900460ff169050919050565b60008060009054906101000a900473ffffffffffffffffffffffffffffffffffffffff1673ffffffffffffffffffffffffffffffffffffffff163373ffffffffffffffffffffffffffffffffffffffff161415156123c357600080fd5b600060149054906101000a900460ff161515156123df57600080fd5b6001600060146101000a81548160ff0219169083151502179055507f6985a02210a168e66602d3235cb6db0e70f92b3ba4d376a33c0f3d9434bff62560405160405180910390a16001905090565b60003073ffffffffffffffffffffffffffffffffffffffff1631905090565b6000809054906101000a900473ffffffffffffffffffffffffffffffffffffffff1681565b600060149054906101000a900460ff1615151561248d57600080fd5b612498308383613128565b5050565b60028054600181600116156101000203166002900480601f0160208091040260200160405190810160405280929190818152602001828054600181600116156101000203166002900480156125325780601f1061250757610100808354040283529160200191612532565b820191906000526020600020905b81548152906001019060200180831161251557829003601f168201915b505050505081565b803373ffffffffffffffffffffffffffffffffffffffff16601160009054906101000a900473ffffffffffffffffffffffffffffffffffffffff1673ffffffffffffffffffffffffffffffffffffffff1614151561259757600080fd5b6013818154811015156125a657fe5b906000526020600020906006020160030160009054906101000a900460ff161515156125d157600080fd5b60008090505b601060003373ffffffffffffffffffffffffffffffffffffffff1673ffffffffffffffffffffffffffffffffffffffff168152602001908152602001600020805490508110156126ce576126c1601060003373ffffffffffffffffffffffffffffffffffffffff1673ffffffffffffffffffffffffffffffffffffffff1681526020019081526020016000208281548110151561267057fe5b9060005260206000200160009054906101000a900473ffffffffffffffffffffffffffffffffffffffff166013858154811015156126aa57fe5b906000526020600020906006020160040154612a58565b80806001019150506125d7565b50601060003373ffffffffffffffffffffffffffffffffffffffff1673ffffffffffffffffffffffffffffffffffffffff168152602001908152602001600020600061271a9190613587565b7f8b83e47b1af3f949d67804a4ab493fded8198468172c75006b4c7da507345c74826040516127499190613e5c565b60405180910390a15050565b803373ffffffffffffffffffffffffffffffffffffffff16601160009054906101000a900473ffffffffffffffffffffffffffffffffffffffff1673ffffffffffffffffffffffffffffffffffffffff161415156127b257600080fd5b6012818154811015156127c157fe5b906000526020600020906006020160040160019054906101000a900460ff161515156127ec57600080fd5b60016012838154811015156127fd57fe5b906000526020600020906006020160040160009054906101000a900460ff1660ff1614156128905761288f60128381548110151561283757fe5b906000526020600020906006020160010160009054906101000a900473ffffffffffffffffffffffffffffffffffffffff1660128481548110151561287857fe5b906000526020600020906006020160050154612a0d565b5b60026012838154811015156128a157fe5b906000526020600020906006020160040160009054906101000a900460ff1660ff161415612934576129336012838154811015156128db57fe5b906000526020600020906006020160010160009054906101000a900473ffffffffffffffffffffffffffffffffffffffff1660128481548110151561291c57fe5b906000526020600020906006020160050154612471565b5b7f801be060160611f44999389892b6b79359677ff2d431948a5c8b5a80e14a1ff8826040516129639190613e5c565b60405180910390a15050565b80601060003373ffffffffffffffffffffffffffffffffffffffff1673ffffffffffffffffffffffffffffffffffffffff16815260200190815260200160002090805190602001906129c29291906135a8565b5050565b60008060149054906101000a900460ff161515156129e357600080fd5b604460003690501415156129f657600080fd5b612a01338484613128565b92915050565b600c5481565b600060149054906101000a900460ff16151515612a2957600080fd5b612a34308383613128565b5050565b600d6020528060005260406000206000915054906101000a900460ff1681565b600060149054906101000a900460ff16151515612a7457600080fd5b612a7f308383613128565b5050565b600060149054906101000a900460ff16151515612a9f57600080fd5b600034905050565b600060149054906101000a900460ff16151515612ac357600080fd5b600d60008273ffffffffffffffffffffffffffffffffffffffff1673ffffffffffffffffffffffffffffffffffffffff16815260200190815260200160002060009054906101000a900460ff16151515612b1c57600080fd5b6103e882811515612b2957fe5b04600e819055506000600e54141515612b4c5781600e5401600f81905550612b57565b81600101600f819055505b612b648130600f54613128565b7f4656763aeb5076063b1b9201e728e03b650c4e545b46330125af5d01c01fae56816001604051612b96929190613dbf565b60405180910390a15050565b6000600660008473ffffffffffffffffffffffffffffffffffffffff1673ffffffffffffffffffffffffffffffffffffffff16815260200190815260200160002060008373ffffffffffffffffffffffffffffffffffffffff1673ffffffffffffffffffffffffffffffffffffffff16815260200190815260200160002054905092915050565b6000809054906101000a900473ffffffffffffffffffffffffffffffffffffffff1673ffffffffffffffffffffffffffffffffffffffff163373ffffffffffffffffffffffffffffffffffffffff16141515612c8457600080fd5b600060149054906101000a900460ff16151515612ca057600080fd5b80600d60008473ffffffffffffffffffffffffffffffffffffffff1673ffffffffffffffffffffffffffffffffffffffff16815260200190815260200160002060006101000a81548160ff0219169083151502179055507f48335238b4855f35377ed80f164e8c6f3c366e54ac00b96a6402d4a9814a03a58282604051612d28929190613dbf565b60405180910390a15050565b6000809054906101000a900473ffffffffffffffffffffffffffffffffffffffff1673ffffffffffffffffffffffffffffffffffffffff163373ffffffffffffffffffffffffffffffffffffffff16141515612d8f57600080fd5b600060149054906101000a900460ff16151515612dab57600080fd5b3073ffffffffffffffffffffffffffffffffffffffff1631600c819055506000809054906101000a900473ffffffffffffffffffffffffffffffffffffffff1673ffffffffffffffffffffffffffffffffffffffff166108fc600c549081150290604051600060405180830381858888f19350505050158015612e32573d6000803e3d6000fd5b50565b6000809054906101000a900473ffffffffffffffffffffffffffffffffffffffff1673ffffffffffffffffffffffffffffffffffffffff163373ffffffffffffffffffffffffffffffffffffffff16141515612e9057600080fd5b600073ffffffffffffffffffffffffffffffffffffffff168173ffffffffffffffffffffffffffffffffffffffff1614151515612ecc57600080fd5b806000806101000a81548173ffffffffffffffffffffffffffffffffffffffff021916908373ffffffffffffffffffffffffffffffffffffffff16021790555050565b6000601382815481101515612f2057fe5b906000526020600020906006020160000160009054906101000a900473ffffffffffffffffffffffffffffffffffffffff1673ffffffffffffffffffffffffffffffffffffffff168373ffffffffffffffffffffffffffffffffffffffff161415612f8e5760019050612f93565b600090505b92915050565b803373ffffffffffffffffffffffffffffffffffffffff16601160009054906101000a900473ffffffffffffffffffffffffffffffffffffffff1673ffffffffffffffffffffffffffffffffffffffff16141515612ff657600080fd5b60138181548110151561300557fe5b906000526020600020906006020160030160009054906101000a900460ff1615151561303057600080fd5b60006010600060138581548110151561304557fe5b906000526020600020906006020160000160009054906101000a900473ffffffffffffffffffffffffffffffffffffffff1673ffffffffffffffffffffffffffffffffffffffff1673ffffffffffffffffffffffffffffffffffffffff1681526020019081526020016000208054905090506131236013848154811015156130c957fe5b906000526020600020906006020160000160009054906101000a900473ffffffffffffffffffffffffffffffffffffffff168260138681548110151561310b57fe5b90600052602060002090600602016004015402612a58565b505050565b600073ffffffffffffffffffffffffffffffffffffffff168273ffffffffffffffffffffffffffffffffffffffff161415151561316457600080fd5b80600560008573ffffffffffffffffffffffffffffffffffffffff1673ffffffffffffffffffffffffffffffffffffffff16815260200190815260200160002054101515156131b257600080fd5b600560008373ffffffffffffffffffffffffffffffffffffffff1673ffffffffffffffffffffffffffffffffffffffff1681526020019081526020016000205481600560008573ffffffffffffffffffffffffffffffffffffffff1673ffffffffffffffffffffffffffffffffffffffff168152602001908152602001600020540111151561324057600080fd5b600d60008473ffffffffffffffffffffffffffffffffffffffff1673ffffffffffffffffffffffffffffffffffffffff16815260200190815260200160002060009054906101000a900460ff1615151561329957600080fd5b600d60008373ffffffffffffffffffffffffffffffffffffffff1673ffffffffffffffffffffffffffffffffffffffff16815260200190815260200160002060009054906101000a900460ff161515156132f257600080fd5b80600560008573ffffffffffffffffffffffffffffffffffffffff1673ffffffffffffffffffffffffffffffffffffffff1681526020019081526020016000206000828254039250508190555080600560008473ffffffffffffffffffffffffffffffffffffffff1673ffffffffffffffffffffffffffffffffffffffff168152602001908152602001600020600082825401925050819055508173ffffffffffffffffffffffffffffffffffffffff168373ffffffffffffffffffffffffffffffffffffffff167fddf252ad1be2c89b69c2b068fc378daa952ba7f163c4a11628f55a4df523b3ef836040516133e99190613e5c565b60405180910390a3505050565b60c060405190810160405280600073ffffffffffffffffffffffffffffffffffffffff168152602001606081526020016060815260200160001515815260200160008152602001600063ffffffff1681525090565b828054600181600116156101000203166002900490600052602060002090601f016020900481019282601f1061348c57805160ff19168380011785556134ba565b828001600101855582156134ba579182015b828111156134b957825182559160200191906001019061349e565b5b5090506134c79190613632565b5090565b60e060405190810160405280600073ffffffffffffffffffffffffffffffffffffffff168152602001600073ffffffffffffffffffffffffffffffffffffffff1681526020016060815260200160608152602001600060ff168152602001600015158152602001600081525090565b828054828255906000526020600020908101928215613576579160200282015b8281111561357557825182559160200191906001019061355a565b5b5090506135839190613632565b5090565b50805460008255906000526020600020908101906135a59190613632565b50565b828054828255906000526020600020908101928215613621579160200282015b828111156136205782518260006101000a81548173ffffffffffffffffffffffffffffffffffffffff021916908373ffffffffffffffffffffffffffffffffffffffff160217905550916020019190600101906135c8565b5b50905061362e9190613657565b5090565b61365491905b80821115613650576000816000905550600101613638565b5090565b90565b61369791905b8082111561369357600081816101000a81549073ffffffffffffffffffffffffffffffffffffffff02191690555060010161365d565b5090565b90565b60006136a68235613fdd565b905092915050565b60006136ba8235613fef565b905092915050565b600082601f83011215156136d557600080fd5b81356136e86136e382613ebf565b613e92565b9150818183526020840193506020810190508385602084028201111561370d57600080fd5b60005b8381101561373d5781613723888261369a565b845260208401935060208301925050600181019050613710565b5050505092915050565b600082601f830112151561375a57600080fd5b813561376d61376882613ee7565b613e92565b9150818183526020840193506020810190508385602084028201111561379257600080fd5b60005b838110156137c257816137a88882613836565b845260208401935060208301925050600181019050613795565b5050505092915050565b60006137d88235614001565b905092915050565b600082601f83011215156137f357600080fd5b813561380661380182613f0f565b613e92565b9150808252602083016020830185838301111561382257600080fd5b61382d838284614034565b50505092915050565b6000613842823561400d565b905092915050565b60006138568235614017565b905092915050565b600061386a8235614027565b905092915050565b60006020828403121561388457600080fd5b60006138928482850161369a565b91505092915050565b6000602082840312156138ad57600080fd5b60006138bb848285016136ae565b91505092915050565b6000806000606084860312156138d957600080fd5b60006138e7868287016136ae565b93505060206138f8868287016136ae565b925050604061390986828701613836565b9150509250925092565b6000806040838503121561392657600080fd5b60006139348582860161369a565b92505060206139458582860161369a565b9150509250929050565b600080600080600060a0868803121561396757600080fd5b60006139758882890161369a565b955050602086013567ffffffffffffffff81111561399257600080fd5b61399e88828901613747565b945050604086013567ffffffffffffffff8111156139bb57600080fd5b6139c7888289016137e0565b93505060606139d88882890161385e565b92505060806139e988828901613836565b9150509295509295909350565b60008060408385031215613a0957600080fd5b6000613a178582860161369a565b9250506020613a28858286016137cc565b9150509250929050565b60008060408385031215613a4557600080fd5b6000613a538582860161369a565b9250506020613a6485828601613836565b9150509250929050565b600080600060608486031215613a8357600080fd5b6000613a918682870161369a565b9350506020613aa286828701613836565b9250506040613ab38682870161369a565b9150509250925092565b600060208284031215613acf57600080fd5b600082013567ffffffffffffffff811115613ae957600080fd5b613af5848285016136c2565b91505092915050565b60008060008060808587031215613b1457600080fd5b600085013567ffffffffffffffff811115613b2e57600080fd5b613b3a878288016137e0565b945050602085013567ffffffffffffffff811115613b5757600080fd5b613b63878288016137e0565b9350506040613b7487828801613836565b9250506060613b858782880161384a565b91505092959194509250565b600060208284031215613ba357600080fd5b6000613bb184828501613836565b91505092915050565b60008060408385031215613bcd57600080fd5b6000613bdb85828601613836565b9250506020613bec8582860161369a565b9150509250929050565b60008060408385031215613c0957600080fd5b6000613c1785828601613836565b9250506020613c2885828601613836565b9150509250929050565b613c3b81613f88565b82525050565b613c4a81613f76565b82525050565b6000613c5b82613f48565b808452602084019350613c6d83613f3b565b60005b82811015613c9f57613c83868351613d26565b613c8c82613f69565b9150602086019550600181019050613c70565b50849250505092915050565b613cb481613f9a565b82525050565b6000613cc582613f5e565b808452613cd9816020860160208601614043565b613ce281614076565b602085010191505092915050565b6000613cfb82613f53565b808452613d0f816020860160208601614043565b613d1881614076565b602085010191505092915050565b613d2f81613fc6565b82525050565b613d3e81613fd0565b82525050565b6000602082019050613d596000830184613c41565b92915050565b6000602082019050613d746000830184613c32565b92915050565b6000606082019050613d8f6000830186613c41565b8181036020830152613da18185613c50565b90508181036040830152613db58184613cba565b9050949350505050565b6000604082019050613dd46000830185613c41565b613de16020830184613cab565b9392505050565b6000602082019050613dfd6000830184613cab565b92915050565b60006020820190508181036000830152613e1d8184613cf0565b905092915050565b60006040820190508181036000830152613e3f8185613cba565b90508181036020830152613e538184613cba565b90509392505050565b6000602082019050613e716000830184613d26565b92915050565b6000602082019050613e8c6000830184613d35565b92915050565b6000604051905081810181811067ffffffffffffffff82111715613eb557600080fd5b8060405250919050565b600067ffffffffffffffff821115613ed657600080fd5b602082029050602081019050919050565b600067ffffffffffffffff821115613efe57600080fd5b602082029050602081019050919050565b600067ffffffffffffffff821115613f2657600080fd5b601f19601f8301169050602081019050919050565b6000602082019050919050565b600081519050919050565b600081519050919050565b600081519050919050565b6000602082019050919050565b6000613f8182613fa6565b9050919050565b6000613f9382613fa6565b9050919050565b60008115159050919050565b600073ffffffffffffffffffffffffffffffffffffffff82169050919050565b6000819050919050565b600060ff82169050919050565b6000613fe882613fa6565b9050919050565b6000613ffa82613fa6565b9050919050565b60008115159050919050565b6000819050919050565b600063ffffffff82169050919050565b600060ff82169050919050565b82818337600083830152505050565b60005b83811015614061578082015181840152602081019050614046565b83811115614070576000848401525b50505050565b6000601f19601f830116905091905056fea265627a7a72305820bcb2f9ece83db455fde33dcb18fd79c2d69e8878594c22782dfb8efeacf5e28b6c6578706572696d656e74616cf50037",
  "source": "pragma solidity ^0.5.0;\r\npragma experimental ABIEncoderV2;\r\nimport './transaction.sol';\r\nimport './DataControl.sol';\r\nimport './IpControl.sol';\r\n\r\ncontract TxControl is transaction{\r\n    struct txSave{  //\r\n        address buyer;  //\r\n        address seller;  //\r\n        uint256[] fileNumberList;  //\r\n        string publicKeyCheck;  //\r\n        uint8 txType;  // 1 2 \r\n        bool txStatus;  //  \r\n        uint256 value;  //\r\n    } \r\n\r\n    struct txSaveRealTime{  //\r\n        address buyer;  //\r\n        string ipOrEigenvalues;  //ip\r\n        string publicKeyCheck;  //\r\n        bool txStatus;  //  \r\n        uint256 value;  //\r\n        uint32 accountsNumber;  //\r\n    }\r\n\r\n    mapping(address => address[]) public collectionAddress;  //\r\n    address owner = msg.sender;\r\n    txSave[] txList;  //\r\n    txSaveRealTime[] txRealTimeList;  //\r\n    // uint256 txPending = 0;  //\r\n    event addTx(address seller, uint256[] fileNUmberList, string publicKeyCheck);  //\r\n    event addRealTimeTx(string publicKeyCheck, string ipOrEigenvalues);\r\n    event confirmTx(uint256 i);  //\r\n    event confirmRealTimeTx(uint256 i);  //\r\n\r\n    modifier onlyOwnerTx(uint256 i){  //\r\n        require(owner == msg.sender);\r\n        require(!txList[i].txStatus);\r\n        _;\r\n    }\r\n\r\n    modifier onlyOwnerRealTimeTx(uint256 i){  //\r\n        require(owner == msg.sender);\r\n        require(!txRealTimeList[i].txStatus);\r\n        _;\r\n    }\r\n\r\n    //\r\n    modifier checkBalanceOfBuyData(address buyer, uint256 value){\r\n        require(_balances[buyer] > value);\r\n        _;\r\n    }\r\n\r\n    //\r\n    modifier checkBalanceOfBuyRealTimeData(address buyer, uint256 value, uint32 accountsNumber){\r\n        require(_balances[buyer] > value * accountsNumber);\r\n        _;\r\n    }\r\n    //\r\n    function buyData(address _seller, uint256[] memory _fileNumberList, string memory _publicKeyCheck, uint8 _txType, uint256 _value) public checkBalanceOfBuyData(msg.sender, _value) returns(uint256){\r\n         txSave memory txData = txSave({\r\n            buyer: msg.sender,\r\n            seller: _seller,\r\n            fileNumberList: _fileNumberList,\r\n            publicKeyCheck: _publicKeyCheck,\r\n            txType: _txType,\r\n            txStatus: false,\r\n            value: _value\r\n        });\r\n        txList.push(txData);\r\n        beforeYYQtransaction(_seller, _value, msg.sender);\r\n        emit addTx(_seller, _fileNumberList, _publicKeyCheck);\r\n        return txList.length;\r\n    }\r\n\r\n    //\r\n    function buyRealTimeData(string memory _publicKeyCheck, string memory _ipOrEigenvalues, uint256 _value, uint32 _accountsNumber) public checkBalanceOfBuyRealTimeData(msg.sender, _value, _accountsNumber) returns(uint256){\r\n        txSaveRealTime memory txRealTimeData = txSaveRealTime({\r\n            buyer: msg.sender,\r\n            publicKeyCheck: _publicKeyCheck,\r\n            ipOrEigenvalues: _ipOrEigenvalues,\r\n            txStatus: false,\r\n            value: _value,\r\n            accountsNumber: _accountsNumber\r\n        });\r\n        txRealTimeList.push(txRealTimeData);\r\n        beforeSSDZtransaction(_value, msg.sender);\r\n        emit addRealTimeTx(_publicKeyCheck, _ipOrEigenvalues);\r\n        return txRealTimeList.length;\r\n    }\r\n\r\n    //\r\n    function makeSureTx(uint256 i) public onlyOwnerTx(i){\r\n        if(txList[i].txType == 1){\r\n            afterYYQtransaction(txList[i].seller, txList[i].value);\r\n        }\r\n        if(txList[i].txType == 2){\r\n            afterSYQtransaction(txList[i].seller, txList[i].value);\r\n        }\r\n        emit confirmTx(i);\r\n    }\r\n\r\n    //\r\n    function setAddress(address[] memory addressList) public {\r\n        collectionAddress[msg.sender] = addressList;\r\n    }\r\n\r\n    //\r\n    function makeSureRealTimeTx(uint256 i) public onlyOwnerRealTimeTx(i){\r\n        for(uint256 j = 0; j < collectionAddress[msg.sender].length; j++){\r\n            afterSSDZtransaction(collectionAddress[msg.sender][j], txRealTimeList[i].value);\r\n        }\r\n        delete collectionAddress[msg.sender];\r\n        emit confirmRealTimeTx(i);\r\n    }\r\n\r\n    //\r\n    function checkDataTxOwner(address buyer, uint256 i) public view returns(bool){\r\n        if(buyer == txList[i].buyer){\r\n            return true;\r\n        }else{\r\n            return false;\r\n        }\r\n    }\r\n\r\n    //\r\n    function checkRealTimeTxOwner(address buyer, uint256 i) public view returns(bool){\r\n        if(buyer == txRealTimeList[i].buyer){\r\n            return true;\r\n        }else{\r\n            return false;\r\n        }\r\n    }\r\n\r\n    //\r\n    function refundData(uint256 i) public onlyOwnerTx(i) {\r\n        if(txList[i].txType == 1){\r\n            afterYYQtransaction(txList[i].buyer, txList[i].value);\r\n        }\r\n        if(txList[i].txType == 2){\r\n            afterSYQtransaction(txList[i].buyer, txList[i].value);\r\n        }\r\n    }\r\n\r\n    // \r\n    function refundRealTime(uint256 i) public onlyOwnerRealTimeTx(i) {\r\n        uint256 number = collectionAddress[txRealTimeList[i].buyer].length;\r\n        afterSSDZtransaction(txRealTimeList[i].buyer, txRealTimeList[i].value * number);\r\n    }\r\n\r\n}",
  "sourcePath": "G:/ControlSolidity/contracts/TxControl.sol",
  "compiler": {
    "name": "solc",
    "version": "0.5.0+commit.1d4f565a.Emscripten.clang"
  },
  "schemaVersion": "3.0.5",
  "updatedAt": "2019-04-27T10:11:41.436Z",
  "devdoc": {
    "methods": {
      "approve(address,uint256)": {
        "params": {
          "_spender": "The address authorized to spend",
          "_value": "the max amount they can spend"
        }
      },
      "burnFrom(address,uint256)": {
        "params": {
          "_from": "the address of the sender",
          "_value": "the amount of money to burn"
        }
      },
      "freezeAccount(address,bool)": {
        "params": {
          "freeze": "either to freeze it or not"
        }
      },
      "mintToken(address,uint256)": {
        "params": {
          "mintedAmount": "the amount of tokens it will receive"
        }
      },
      "transfer(address,uint256)": {
        "params": {
          "_to": "",
          "_value": ""
        }
      },
      "transferFrom(address,address,uint256)": {
        "params": {
          "_from": "",
          "_to": "",
          "_value": ""
        }
      },
      "withdraw(uint256)": {
        "params": {
          "amount": "amount of tokens to be sold"
        }
      }
    }
  },
  "userdoc": {
    "methods": {
      "approve(address,uint256)": {
        "notice": "     * `_spender`  `_value` "
      },
      "burn(uint256)": {
        "notice": ""
      },
      "burnFrom(address,uint256)": {
        "notice": "     * Remove `_value` tokens from the system irreversibly on behalf of `_from`."
      },
      "recharge()": {
        "notice": "recharge tokens from contract by sending ether"
      },
      "transfer(address,uint256)": {
        "notice": " `_value` `_to`"
      },
      "transferFrom(address,address,uint256)": {
        "notice": ""
      }
    }
  }
}